{
	"LibertyFinancialChain/LiberttFinancial/exchange.sol": {
		"SecureHybridExchange": {
			"abi": [
				{
					"inputs": [
						{
							"internalType": "address",
							"name": "_feeRecipient",
							"type": "address"
						}
					],
					"stateMutability": "nonpayable",
					"type": "constructor"
				},
				{
					"inputs": [],
					"name": "AccessControlBadConfirmation",
					"type": "error"
				},
				{
					"inputs": [
						{
							"internalType": "address",
							"name": "account",
							"type": "address"
						},
						{
							"internalType": "bytes32",
							"name": "neededRole",
							"type": "bytes32"
						}
					],
					"name": "AccessControlUnauthorizedAccount",
					"type": "error"
				},
				{
					"inputs": [
						{
							"internalType": "address",
							"name": "token",
							"type": "address"
						}
					],
					"name": "SafeERC20FailedOperation",
					"type": "error"
				},
				{
					"anonymous": false,
					"inputs": [
						{
							"indexed": false,
							"internalType": "address",
							"name": "oldRecipient",
							"type": "address"
						},
						{
							"indexed": false,
							"internalType": "address",
							"name": "newRecipient",
							"type": "address"
						}
					],
					"name": "FeeRecipientUpdated",
					"type": "event"
				},
				{
					"anonymous": false,
					"inputs": [
						{
							"indexed": false,
							"internalType": "uint256",
							"name": "oldFeeBps",
							"type": "uint256"
						},
						{
							"indexed": false,
							"internalType": "uint256",
							"name": "newFeeBps",
							"type": "uint256"
						}
					],
					"name": "FeeUpdated",
					"type": "event"
				},
				{
					"anonymous": false,
					"inputs": [
						{
							"indexed": true,
							"internalType": "address",
							"name": "tokenIn",
							"type": "address"
						},
						{
							"indexed": true,
							"internalType": "address",
							"name": "tokenOut",
							"type": "address"
						},
						{
							"indexed": false,
							"internalType": "uint256",
							"name": "rate",
							"type": "uint256"
						}
					],
					"name": "GlobalRateSet",
					"type": "event"
				},
				{
					"anonymous": false,
					"inputs": [
						{
							"indexed": true,
							"internalType": "uint256",
							"name": "orderId",
							"type": "uint256"
						},
						{
							"indexed": false,
							"internalType": "uint256",
							"name": "amountRefunded",
							"type": "uint256"
						}
					],
					"name": "OrderCancelled",
					"type": "event"
				},
				{
					"anonymous": false,
					"inputs": [
						{
							"indexed": true,
							"internalType": "uint256",
							"name": "orderId",
							"type": "uint256"
						},
						{
							"indexed": true,
							"internalType": "address",
							"name": "maker",
							"type": "address"
						},
						{
							"indexed": false,
							"internalType": "address",
							"name": "tokenIn",
							"type": "address"
						},
						{
							"indexed": false,
							"internalType": "address",
							"name": "tokenOut",
							"type": "address"
						},
						{
							"indexed": false,
							"internalType": "uint256",
							"name": "amountInitial",
							"type": "uint256"
						},
						{
							"indexed": false,
							"internalType": "uint256",
							"name": "rate",
							"type": "uint256"
						},
						{
							"indexed": false,
							"internalType": "uint256",
							"name": "expiresAt",
							"type": "uint256"
						}
					],
					"name": "OrderCreated",
					"type": "event"
				},
				{
					"anonymous": false,
					"inputs": [
						{
							"indexed": true,
							"internalType": "uint256",
							"name": "orderId",
							"type": "uint256"
						},
						{
							"indexed": true,
							"internalType": "address",
							"name": "taker",
							"type": "address"
						},
						{
							"indexed": false,
							"internalType": "uint256",
							"name": "fillAmount",
							"type": "uint256"
						},
						{
							"indexed": false,
							"internalType": "uint256",
							"name": "outAmount",
							"type": "uint256"
						},
						{
							"indexed": false,
							"internalType": "uint256",
							"name": "fee",
							"type": "uint256"
						}
					],
					"name": "OrderMatched",
					"type": "event"
				},
				{
					"anonymous": false,
					"inputs": [
						{
							"indexed": true,
							"internalType": "bytes32",
							"name": "role",
							"type": "bytes32"
						},
						{
							"indexed": true,
							"internalType": "bytes32",
							"name": "previousAdminRole",
							"type": "bytes32"
						},
						{
							"indexed": true,
							"internalType": "bytes32",
							"name": "newAdminRole",
							"type": "bytes32"
						}
					],
					"name": "RoleAdminChanged",
					"type": "event"
				},
				{
					"anonymous": false,
					"inputs": [
						{
							"indexed": true,
							"internalType": "bytes32",
							"name": "role",
							"type": "bytes32"
						},
						{
							"indexed": true,
							"internalType": "address",
							"name": "account",
							"type": "address"
						},
						{
							"indexed": true,
							"internalType": "address",
							"name": "sender",
							"type": "address"
						}
					],
					"name": "RoleGranted",
					"type": "event"
				},
				{
					"anonymous": false,
					"inputs": [
						{
							"indexed": true,
							"internalType": "bytes32",
							"name": "role",
							"type": "bytes32"
						},
						{
							"indexed": true,
							"internalType": "address",
							"name": "account",
							"type": "address"
						},
						{
							"indexed": true,
							"internalType": "address",
							"name": "sender",
							"type": "address"
						}
					],
					"name": "RoleRevoked",
					"type": "event"
				},
				{
					"anonymous": false,
					"inputs": [
						{
							"indexed": true,
							"internalType": "address",
							"name": "sender",
							"type": "address"
						},
						{
							"indexed": true,
							"internalType": "address",
							"name": "tokenIn",
							"type": "address"
						},
						{
							"indexed": true,
							"internalType": "address",
							"name": "tokenOut",
							"type": "address"
						},
						{
							"indexed": false,
							"internalType": "uint256",
							"name": "amountIn",
							"type": "uint256"
						},
						{
							"indexed": false,
							"internalType": "uint256",
							"name": "amountOut",
							"type": "uint256"
						},
						{
							"indexed": false,
							"internalType": "uint256",
							"name": "fee",
							"type": "uint256"
						}
					],
					"name": "SwapGlobal",
					"type": "event"
				},
				{
					"anonymous": false,
					"inputs": [
						{
							"indexed": true,
							"internalType": "address",
							"name": "token",
							"type": "address"
						},
						{
							"indexed": false,
							"internalType": "bool",
							"name": "allowed",
							"type": "bool"
						}
					],
					"name": "TokenWhitelistUpdated",
					"type": "event"
				},
				{
					"inputs": [],
					"name": "DEFAULT_ADMIN_ROLE",
					"outputs": [
						{
							"internalType": "bytes32",
							"name": "",
							"type": "bytes32"
						}
					],
					"stateMutability": "view",
					"type": "function"
				},
				{
					"inputs": [],
					"name": "SUBADMIN_ROLE",
					"outputs": [
						{
							"internalType": "bytes32",
							"name": "",
							"type": "bytes32"
						}
					],
					"stateMutability": "view",
					"type": "function"
				},
				{
					"inputs": [
						{
							"internalType": "address",
							"name": "",
							"type": "address"
						}
					],
					"name": "allowedTokens",
					"outputs": [
						{
							"internalType": "bool",
							"name": "",
							"type": "bool"
						}
					],
					"stateMutability": "view",
					"type": "function"
				},
				{
					"inputs": [
						{
							"internalType": "uint256",
							"name": "orderId",
							"type": "uint256"
						}
					],
					"name": "cancelOrder",
					"outputs": [],
					"stateMutability": "nonpayable",
					"type": "function"
				},
				{
					"inputs": [
						{
							"internalType": "address",
							"name": "tokenIn",
							"type": "address"
						},
						{
							"internalType": "address",
							"name": "tokenOut",
							"type": "address"
						},
						{
							"internalType": "uint256",
							"name": "amountIn",
							"type": "uint256"
						},
						{
							"internalType": "uint256",
							"name": "rate",
							"type": "uint256"
						},
						{
							"internalType": "uint256",
							"name": "expiresInSeconds",
							"type": "uint256"
						}
					],
					"name": "createOrder",
					"outputs": [],
					"stateMutability": "nonpayable",
					"type": "function"
				},
				{
					"inputs": [
						{
							"internalType": "address",
							"name": "token",
							"type": "address"
						},
						{
							"internalType": "uint256",
							"name": "nAmount",
							"type": "uint256"
						}
					],
					"name": "denormalize",
					"outputs": [
						{
							"internalType": "uint256",
							"name": "",
							"type": "uint256"
						}
					],
					"stateMutability": "view",
					"type": "function"
				},
				{
					"inputs": [
						{
							"internalType": "address",
							"name": "token",
							"type": "address"
						}
					],
					"name": "emergencyWithdraw",
					"outputs": [],
					"stateMutability": "nonpayable",
					"type": "function"
				},
				{
					"inputs": [],
					"name": "feeRecipient",
					"outputs": [
						{
							"internalType": "address",
							"name": "",
							"type": "address"
						}
					],
					"stateMutability": "view",
					"type": "function"
				},
				{
					"inputs": [
						{
							"internalType": "address",
							"name": "token",
							"type": "address"
						}
					],
					"name": "getDecimals",
					"outputs": [
						{
							"internalType": "uint8",
							"name": "",
							"type": "uint8"
						}
					],
					"stateMutability": "view",
					"type": "function"
				},
				{
					"inputs": [
						{
							"internalType": "bytes32",
							"name": "role",
							"type": "bytes32"
						}
					],
					"name": "getRoleAdmin",
					"outputs": [
						{
							"internalType": "bytes32",
							"name": "",
							"type": "bytes32"
						}
					],
					"stateMutability": "view",
					"type": "function"
				},
				{
					"inputs": [
						{
							"internalType": "address",
							"name": "",
							"type": "address"
						},
						{
							"internalType": "address",
							"name": "",
							"type": "address"
						}
					],
					"name": "globalRates",
					"outputs": [
						{
							"internalType": "uint256",
							"name": "",
							"type": "uint256"
						}
					],
					"stateMutability": "view",
					"type": "function"
				},
				{
					"inputs": [
						{
							"internalType": "bytes32",
							"name": "role",
							"type": "bytes32"
						},
						{
							"internalType": "address",
							"name": "account",
							"type": "address"
						}
					],
					"name": "grantRole",
					"outputs": [],
					"stateMutability": "nonpayable",
					"type": "function"
				},
				{
					"inputs": [
						{
							"internalType": "address",
							"name": "account",
							"type": "address"
						}
					],
					"name": "grantSubAdmin",
					"outputs": [],
					"stateMutability": "nonpayable",
					"type": "function"
				},
				{
					"inputs": [
						{
							"internalType": "bytes32",
							"name": "role",
							"type": "bytes32"
						},
						{
							"internalType": "address",
							"name": "account",
							"type": "address"
						}
					],
					"name": "hasRole",
					"outputs": [
						{
							"internalType": "bool",
							"name": "",
							"type": "bool"
						}
					],
					"stateMutability": "view",
					"type": "function"
				},
				{
					"inputs": [
						{
							"internalType": "uint256",
							"name": "orderId",
							"type": "uint256"
						},
						{
							"internalType": "uint256",
							"name": "fillAmount",
							"type": "uint256"
						},
						{
							"internalType": "uint256",
							"name": "minAmountOut",
							"type": "uint256"
						}
					],
					"name": "matchOrder",
					"outputs": [],
					"stateMutability": "nonpayable",
					"type": "function"
				},
				{
					"inputs": [
						{
							"internalType": "address",
							"name": "token",
							"type": "address"
						},
						{
							"internalType": "uint256",
							"name": "amount",
							"type": "uint256"
						}
					],
					"name": "normalize",
					"outputs": [
						{
							"internalType": "uint256",
							"name": "",
							"type": "uint256"
						}
					],
					"stateMutability": "view",
					"type": "function"
				},
				{
					"inputs": [
						{
							"internalType": "uint256",
							"name": "",
							"type": "uint256"
						}
					],
					"name": "orders",
					"outputs": [
						{
							"internalType": "address",
							"name": "maker",
							"type": "address"
						},
						{
							"internalType": "address",
							"name": "tokenIn",
							"type": "address"
						},
						{
							"internalType": "address",
							"name": "tokenOut",
							"type": "address"
						},
						{
							"internalType": "uint256",
							"name": "amountInitial",
							"type": "uint256"
						},
						{
							"internalType": "uint256",
							"name": "amountRemaining",
							"type": "uint256"
						},
						{
							"internalType": "uint256",
							"name": "rate",
							"type": "uint256"
						},
						{
							"internalType": "uint256",
							"name": "expiresAt",
							"type": "uint256"
						},
						{
							"internalType": "bool",
							"name": "active",
							"type": "bool"
						}
					],
					"stateMutability": "view",
					"type": "function"
				},
				{
					"inputs": [
						{
							"internalType": "bytes32",
							"name": "role",
							"type": "bytes32"
						},
						{
							"internalType": "address",
							"name": "callerConfirmation",
							"type": "address"
						}
					],
					"name": "renounceRole",
					"outputs": [],
					"stateMutability": "nonpayable",
					"type": "function"
				},
				{
					"inputs": [
						{
							"internalType": "bytes32",
							"name": "role",
							"type": "bytes32"
						},
						{
							"internalType": "address",
							"name": "account",
							"type": "address"
						}
					],
					"name": "revokeRole",
					"outputs": [],
					"stateMutability": "nonpayable",
					"type": "function"
				},
				{
					"inputs": [
						{
							"internalType": "address",
							"name": "token",
							"type": "address"
						},
						{
							"internalType": "bool",
							"name": "allowed",
							"type": "bool"
						}
					],
					"name": "setAllowedToken",
					"outputs": [],
					"stateMutability": "nonpayable",
					"type": "function"
				},
				{
					"inputs": [
						{
							"internalType": "uint256",
							"name": "newFeeBps",
							"type": "uint256"
						}
					],
					"name": "setFee",
					"outputs": [],
					"stateMutability": "nonpayable",
					"type": "function"
				},
				{
					"inputs": [
						{
							"internalType": "address",
							"name": "recipient",
							"type": "address"
						}
					],
					"name": "setFeeRecipient",
					"outputs": [],
					"stateMutability": "nonpayable",
					"type": "function"
				},
				{
					"inputs": [
						{
							"internalType": "address",
							"name": "tokenIn",
							"type": "address"
						},
						{
							"internalType": "address",
							"name": "tokenOut",
							"type": "address"
						},
						{
							"internalType": "uint256",
							"name": "rate",
							"type": "uint256"
						}
					],
					"name": "setGlobalRate",
					"outputs": [],
					"stateMutability": "nonpayable",
					"type": "function"
				},
				{
					"inputs": [
						{
							"internalType": "bytes4",
							"name": "interfaceId",
							"type": "bytes4"
						}
					],
					"name": "supportsInterface",
					"outputs": [
						{
							"internalType": "bool",
							"name": "",
							"type": "bool"
						}
					],
					"stateMutability": "view",
					"type": "function"
				},
				{
					"inputs": [],
					"name": "swapFeeBps",
					"outputs": [
						{
							"internalType": "uint256",
							"name": "",
							"type": "uint256"
						}
					],
					"stateMutability": "view",
					"type": "function"
				},
				{
					"inputs": [
						{
							"internalType": "address",
							"name": "tokenIn",
							"type": "address"
						},
						{
							"internalType": "address",
							"name": "tokenOut",
							"type": "address"
						},
						{
							"internalType": "uint256",
							"name": "amountIn",
							"type": "uint256"
						},
						{
							"internalType": "uint256",
							"name": "minAmountOut",
							"type": "uint256"
						}
					],
					"name": "swapGlobal",
					"outputs": [],
					"stateMutability": "nonpayable",
					"type": "function"
				}
			],
			"devdoc": {
				"errors": {
					"AccessControlBadConfirmation()": [
						{
							"details": "The caller of a function is not the expected one. NOTE: Don't confuse with {AccessControlUnauthorizedAccount}."
						}
					],
					"AccessControlUnauthorizedAccount(address,bytes32)": [
						{
							"details": "The `account` is missing a role."
						}
					],
					"SafeERC20FailedOperation(address)": [
						{
							"details": "An operation with an ERC-20 token failed."
						}
					]
				},
				"events": {
					"RoleAdminChanged(bytes32,bytes32,bytes32)": {
						"details": "Emitted when `newAdminRole` is set as ``role``'s admin role, replacing `previousAdminRole` `DEFAULT_ADMIN_ROLE` is the starting admin for all roles, despite {RoleAdminChanged} not being emitted to signal this."
					},
					"RoleGranted(bytes32,address,address)": {
						"details": "Emitted when `account` is granted `role`. `sender` is the account that originated the contract call. This account bears the admin role (for the granted role). Expected in cases where the role was granted using the internal {AccessControl-_grantRole}."
					},
					"RoleRevoked(bytes32,address,address)": {
						"details": "Emitted when `account` is revoked `role`. `sender` is the account that originated the contract call:   - if using `revokeRole`, it is the admin role bearer   - if using `renounceRole`, it is the role bearer (i.e. `account`)"
					}
				},
				"kind": "dev",
				"methods": {
					"getRoleAdmin(bytes32)": {
						"details": "Returns the admin role that controls `role`. See {grantRole} and {revokeRole}. To change a role's admin, use {_setRoleAdmin}."
					},
					"grantRole(bytes32,address)": {
						"details": "Grants `role` to `account`. If `account` had not been already granted `role`, emits a {RoleGranted} event. Requirements: - the caller must have ``role``'s admin role. May emit a {RoleGranted} event."
					},
					"hasRole(bytes32,address)": {
						"details": "Returns `true` if `account` has been granted `role`."
					},
					"renounceRole(bytes32,address)": {
						"details": "Revokes `role` from the calling account. Roles are often managed via {grantRole} and {revokeRole}: this function's purpose is to provide a mechanism for accounts to lose their privileges if they are compromised (such as when a trusted device is misplaced). If the calling account had been revoked `role`, emits a {RoleRevoked} event. Requirements: - the caller must be `callerConfirmation`. May emit a {RoleRevoked} event."
					},
					"revokeRole(bytes32,address)": {
						"details": "Revokes `role` from `account`. If `account` had been granted `role`, emits a {RoleRevoked} event. Requirements: - the caller must have ``role``'s admin role. May emit a {RoleRevoked} event."
					},
					"supportsInterface(bytes4)": {
						"details": "Returns true if this contract implements the interface defined by `interfaceId`. See the corresponding https://eips.ethereum.org/EIPS/eip-165#how-interfaces-are-identified[ERC section] to learn more about how these ids are created. This function call must use less than 30 000 gas."
					}
				},
				"version": 1
			},
			"evm": {
				"assembly": "    /* \"LibertyFinancialChain/LiberttFinancial/exchange.sol\":380:9388  contract SecureHybridExchange is AccessControl, ReentrancyGuard {... */\n  mstore(0x40, 0x80)\n    /* \"LibertyFinancialChain/LiberttFinancial/exchange.sol\":650:652  50 */\n  0x32\n    /* \"LibertyFinancialChain/LiberttFinancial/exchange.sol\":622:652  uint256 public swapFeeBps = 50 */\n  0x02\n  sstore\n    /* \"LibertyFinancialChain/LiberttFinancial/exchange.sol\":2120:2324  constructor(address _feeRecipient) {... */\n  callvalue\n  dup1\n  iszero\n  tag_1\n  jumpi\n  0x00\n  dup1\n  revert\ntag_1:\n  pop\n  mload(0x40)\n  sub(codesize, bytecodeSize)\n  dup1\n  bytecodeSize\n  dup4\n  codecopy\n  dup2\n  add\n  0x40\n  dup2\n  swap1\n  mstore\n  tag_2\n  swap2\n  tag_3\n  jump\t// in\ntag_2:\n    /* \"@openzeppelin/contracts/security/ReentrancyGuard.sol\":1716:1717  1 */\n  0x01\n    /* \"@openzeppelin/contracts/security/ReentrancyGuard.sol\":1821:1843  _status = _NOT_ENTERED */\n  dup1\n  sstore\n  sub(shl(0xa0, 0x01), 0x01)\n    /* \"LibertyFinancialChain/LiberttFinancial/exchange.sol\":2173:2200  _feeRecipient != address(0) */\n  dup2\n  and\n    /* \"LibertyFinancialChain/LiberttFinancial/exchange.sol\":2165:2227  require(_feeRecipient != address(0), \"Fee recipient required\") */\n  tag_8\n  jumpi\n  mload(0x40)\n  shl(0xe5, 0x461bcd)\n  dup2\n  mstore\n    /* \"#utility.yul\":511:513   */\n  0x20\n    /* \"LibertyFinancialChain/LiberttFinancial/exchange.sol\":2165:2227  require(_feeRecipient != address(0), \"Fee recipient required\") */\n  0x04\n  dup3\n  add\n    /* \"#utility.yul\":493:514   */\n  mstore\n    /* \"#utility.yul\":550:552   */\n  0x16\n    /* \"#utility.yul\":530:548   */\n  0x24\n  dup3\n  add\n    /* \"#utility.yul\":523:553   */\n  mstore\n    /* \"#utility.yul\":589:613   */\n  0x46656520726563697069656e7420726571756972656400000000000000000000\n    /* \"#utility.yul\":569:587   */\n  0x44\n  dup3\n  add\n    /* \"#utility.yul\":562:614   */\n  mstore\n    /* \"#utility.yul\":631:649   */\n  0x64\n  add\n    /* \"LibertyFinancialChain/LiberttFinancial/exchange.sol\":2165:2227  require(_feeRecipient != address(0), \"Fee recipient required\") */\n  mload(0x40)\n  dup1\n  swap2\n  sub\n  swap1\n  revert\ntag_8:\n    /* \"LibertyFinancialChain/LiberttFinancial/exchange.sol\":2237:2279  _grantRole(DEFAULT_ADMIN_ROLE, msg.sender) */\n  tag_11\n    /* \"@openzeppelin/contracts/access/AccessControl.sol\":2241:2245  0x00 */\n  0x00\n    /* \"LibertyFinancialChain/LiberttFinancial/exchange.sol\":2268:2278  msg.sender */\n  caller\n    /* \"LibertyFinancialChain/LiberttFinancial/exchange.sol\":2237:2247  _grantRole */\n  tag_12\n    /* \"LibertyFinancialChain/LiberttFinancial/exchange.sol\":2237:2279  _grantRole(DEFAULT_ADMIN_ROLE, msg.sender) */\n  jump\t// in\ntag_11:\n  pop\n    /* \"LibertyFinancialChain/LiberttFinancial/exchange.sol\":2289:2301  feeRecipient */\n  0x03\n    /* \"LibertyFinancialChain/LiberttFinancial/exchange.sol\":2289:2317  feeRecipient = _feeRecipient */\n  dup1\n  sload\n  not(sub(shl(0xa0, 0x01), 0x01))\n  and\n  sub(shl(0xa0, 0x01), 0x01)\n  swap3\n  swap1\n  swap3\n  and\n  swap2\n  swap1\n  swap2\n  or\n  swap1\n  sstore\n    /* \"LibertyFinancialChain/LiberttFinancial/exchange.sol\":380:9388  contract SecureHybridExchange is AccessControl, ReentrancyGuard {... */\n  jump(tag_23)\n    /* \"@openzeppelin/contracts/access/AccessControl.sol\":6155:6471  function _grantRole(bytes32 role, address account) internal virtual returns (bool) {... */\ntag_12:\n    /* \"@openzeppelin/contracts/access/AccessControl.sol\":6232:6236  bool */\n  0x00\n    /* \"@openzeppelin/contracts/access/AccessControl.sol\":2930:2942  _roles[role] */\n  dup3\n  dup2\n  mstore\n  0x20\n  dup2\n  dup2\n  mstore\n  0x40\n  dup1\n  dup4\n  keccak256\n  sub(shl(0xa0, 0x01), 0x01)\n    /* \"@openzeppelin/contracts/access/AccessControl.sol\":2930:2959  _roles[role].hasRole[account] */\n  dup6\n  and\n  dup5\n  mstore\n  swap1\n  swap2\n  mstore\n  dup2\n  keccak256\n  sload\n  0xff\n  and\n    /* \"@openzeppelin/contracts/access/AccessControl.sol\":6248:6465  if (!hasRole(role, account)) {... */\n  tag_17\n  jumpi\n    /* \"@openzeppelin/contracts/access/AccessControl.sol\":6291:6297  _roles */\n  0x00\n    /* \"@openzeppelin/contracts/access/AccessControl.sol\":6291:6303  _roles[role] */\n  dup4\n  dup2\n  mstore\n  0x20\n  dup2\n  dup2\n  mstore\n  0x40\n  dup1\n  dup4\n  keccak256\n  sub(shl(0xa0, 0x01), 0x01)\n    /* \"@openzeppelin/contracts/access/AccessControl.sol\":6291:6320  _roles[role].hasRole[account] */\n  dup7\n  and\n  dup5\n  mstore\n  swap1\n  swap2\n  mstore\n  swap1\n  keccak256\n    /* \"@openzeppelin/contracts/access/AccessControl.sol\":6291:6327  _roles[role].hasRole[account] = true */\n  dup1\n  sload\n  not(0xff)\n  and\n    /* \"@openzeppelin/contracts/access/AccessControl.sol\":6323:6327  true */\n  0x01\n    /* \"@openzeppelin/contracts/access/AccessControl.sol\":6291:6327  _roles[role].hasRole[account] = true */\n  or\n  swap1\n  sstore\n    /* \"@openzeppelin/contracts/access/AccessControl.sol\":6373:6385  _msgSender() */\n  tag_18\n    /* \"@openzeppelin/contracts/utils/Context.sol\":735:745  msg.sender */\n  caller\n  swap1\n    /* \"@openzeppelin/contracts/utils/Context.sol\":656:752  function _msgSender() internal view virtual returns (address) {... */\n  jump\n    /* \"@openzeppelin/contracts/access/AccessControl.sol\":6373:6385  _msgSender() */\ntag_18:\n  sub(shl(0xa0, 0x01), 0x01)\n    /* \"@openzeppelin/contracts/access/AccessControl.sol\":6346:6386  RoleGranted(role, account, _msgSender()) */\n  and\n    /* \"@openzeppelin/contracts/access/AccessControl.sol\":6364:6371  account */\n  dup3\n  sub(shl(0xa0, 0x01), 0x01)\n    /* \"@openzeppelin/contracts/access/AccessControl.sol\":6346:6386  RoleGranted(role, account, _msgSender()) */\n  and\n    /* \"@openzeppelin/contracts/access/AccessControl.sol\":6358:6362  role */\n  dup5\n    /* \"@openzeppelin/contracts/access/AccessControl.sol\":6346:6386  RoleGranted(role, account, _msgSender()) */\n  0x2f8788117e7eff1d82e926ec794901d17c78024a50270940304540a733656f0d\n  mload(0x40)\n  mload(0x40)\n  dup1\n  swap2\n  sub\n  swap1\n  log4\n  pop\n    /* \"@openzeppelin/contracts/access/AccessControl.sol\":6407:6411  true */\n  0x01\n    /* \"@openzeppelin/contracts/access/AccessControl.sol\":6400:6411  return true */\n  jump(tag_20)\n    /* \"@openzeppelin/contracts/access/AccessControl.sol\":6248:6465  if (!hasRole(role, account)) {... */\ntag_17:\n  pop\n    /* \"@openzeppelin/contracts/access/AccessControl.sol\":6449:6454  false */\n  0x00\n    /* \"@openzeppelin/contracts/access/AccessControl.sol\":6248:6465  if (!hasRole(role, account)) {... */\ntag_20:\n    /* \"@openzeppelin/contracts/access/AccessControl.sol\":6155:6471  function _grantRole(bytes32 role, address account) internal virtual returns (bool) {... */\n  swap3\n  swap2\n  pop\n  pop\n  jump\t// out\n    /* \"#utility.yul\":14:304   */\ntag_3:\n    /* \"#utility.yul\":84:90   */\n  0x00\n    /* \"#utility.yul\":137:139   */\n  0x20\n    /* \"#utility.yul\":125:134   */\n  dup3\n    /* \"#utility.yul\":116:123   */\n  dup5\n    /* \"#utility.yul\":112:135   */\n  sub\n    /* \"#utility.yul\":108:140   */\n  slt\n    /* \"#utility.yul\":105:157   */\n  iszero\n  tag_25\n  jumpi\n    /* \"#utility.yul\":153:154   */\n  0x00\n    /* \"#utility.yul\":150:151   */\n  dup1\n    /* \"#utility.yul\":143:155   */\n  revert\n    /* \"#utility.yul\":105:157   */\ntag_25:\n    /* \"#utility.yul\":179:195   */\n  dup2\n  mload\n  sub(shl(0xa0, 0x01), 0x01)\n    /* \"#utility.yul\":224:255   */\n  dup2\n  and\n    /* \"#utility.yul\":214:256   */\n  dup2\n  eq\n    /* \"#utility.yul\":204:274   */\n  tag_26\n  jumpi\n    /* \"#utility.yul\":270:271   */\n  0x00\n    /* \"#utility.yul\":267:268   */\n  dup1\n    /* \"#utility.yul\":260:272   */\n  revert\n    /* \"#utility.yul\":204:274   */\ntag_26:\n    /* \"#utility.yul\":293:298   */\n  swap4\n    /* \"#utility.yul\":14:304   */\n  swap3\n  pop\n  pop\n  pop\n  jump\t// out\n    /* \"#utility.yul\":309:655   */\ntag_23:\n    /* \"LibertyFinancialChain/LiberttFinancial/exchange.sol\":380:9388  contract SecureHybridExchange is AccessControl, ReentrancyGuard {... */\n  dataSize(sub_0)\n  dup1\n  dataOffset(sub_0)\n  0x00\n  codecopy\n  0x00\n  return\nstop\n\nsub_0: assembly {\n        /* \"LibertyFinancialChain/LiberttFinancial/exchange.sol\":380:9388  contract SecureHybridExchange is AccessControl, ReentrancyGuard {... */\n      mstore(0x40, 0x80)\n      callvalue\n      dup1\n      iszero\n      tag_1\n      jumpi\n      0x00\n      dup1\n      revert\n    tag_1:\n      pop\n      jumpi(tag_2, lt(calldatasize, 0x04))\n      shr(0xe0, calldataload(0x00))\n      dup1\n      0x8aaa2284\n      gt\n      tag_29\n      jumpi\n      dup1\n      0xb7ba16f6\n      gt\n      tag_30\n      jumpi\n      dup1\n      0xd4248bbe\n      gt\n      tag_31\n      jumpi\n      dup1\n      0xd4248bbe\n      eq\n      tag_25\n      jumpi\n      dup1\n      0xd547741f\n      eq\n      tag_26\n      jumpi\n      dup1\n      0xe744092e\n      eq\n      tag_27\n      jumpi\n      dup1\n      0xe74b981b\n      eq\n      tag_28\n      jumpi\n      0x00\n      dup1\n      revert\n    tag_31:\n      dup1\n      0xb7ba16f6\n      eq\n      tag_22\n      jumpi\n      dup1\n      0xba87a7c9\n      eq\n      tag_23\n      jumpi\n      dup1\n      0xcf54aaa0\n      eq\n      tag_24\n      jumpi\n      0x00\n      dup1\n      revert\n    tag_30:\n      dup1\n      0x8aaa2284\n      eq\n      tag_16\n      jumpi\n      dup1\n      0x91d14854\n      eq\n      tag_17\n      jumpi\n      dup1\n      0x9e2afebe\n      eq\n      tag_18\n      jumpi\n      dup1\n      0xa217fddf\n      eq\n      tag_19\n      jumpi\n      dup1\n      0xa85c38ef\n      eq\n      tag_20\n      jumpi\n      dup1\n      0xb38e0fc4\n      eq\n      tag_21\n      jumpi\n      0x00\n      dup1\n      revert\n    tag_29:\n      dup1\n      0x46904840\n      gt\n      tag_32\n      jumpi\n      dup1\n      0x518e62db\n      gt\n      tag_33\n      jumpi\n      dup1\n      0x518e62db\n      eq\n      tag_12\n      jumpi\n      dup1\n      0x679fb287\n      eq\n      tag_13\n      jumpi\n      dup1\n      0x69fe0e2d\n      eq\n      tag_14\n      jumpi\n      dup1\n      0x6ff1c9bc\n      eq\n      tag_15\n      jumpi\n      0x00\n      dup1\n      revert\n    tag_33:\n      dup1\n      0x46904840\n      eq\n      tag_9\n      jumpi\n      dup1\n      0x4d910929\n      eq\n      tag_10\n      jumpi\n      dup1\n      0x514fcac7\n      eq\n      tag_11\n      jumpi\n      0x00\n      dup1\n      revert\n    tag_32:\n      dup1\n      0x01ffc9a7\n      eq\n      tag_3\n      jumpi\n      dup1\n      0x248a9ca3\n      eq\n      tag_4\n      jumpi\n      dup1\n      0x2f2ff15d\n      eq\n      tag_5\n      jumpi\n      dup1\n      0x2ffdaf89\n      eq\n      tag_6\n      jumpi\n      dup1\n      0x3070e98d\n      eq\n      tag_7\n      jumpi\n      dup1\n      0x36568abe\n      eq\n      tag_8\n      jumpi\n    tag_2:\n      0x00\n      dup1\n      revert\n        /* \"@openzeppelin/contracts/access/AccessControl.sol\":2541:2743  function supportsInterface(bytes4 interfaceId) public view virtual override returns (bool) {... */\n    tag_3:\n      tag_34\n      tag_35\n      calldatasize\n      0x04\n      tag_36\n      jump\t// in\n    tag_35:\n      tag_37\n      jump\t// in\n    tag_34:\n      mload(0x40)\n        /* \"#utility.yul\":470:484   */\n      swap1\n      iszero\n        /* \"#utility.yul\":463:485   */\n      iszero\n        /* \"#utility.yul\":445:486   */\n      dup2\n      mstore\n        /* \"#utility.yul\":433:435   */\n      0x20\n        /* \"#utility.yul\":418:436   */\n      add\n        /* \"@openzeppelin/contracts/access/AccessControl.sol\":2541:2743  function supportsInterface(bytes4 interfaceId) public view virtual override returns (bool) {... */\n    tag_38:\n      mload(0x40)\n      dup1\n      swap2\n      sub\n      swap1\n      return\n        /* \"@openzeppelin/contracts/access/AccessControl.sol\":3786:3906  function getRoleAdmin(bytes32 role) public view virtual returns (bytes32) {... */\n    tag_4:\n      tag_40\n      tag_41\n      calldatasize\n      0x04\n      tag_42\n      jump\t// in\n    tag_41:\n        /* \"@openzeppelin/contracts/access/AccessControl.sol\":3851:3858  bytes32 */\n      0x00\n        /* \"@openzeppelin/contracts/access/AccessControl.sol\":3877:3889  _roles[role] */\n      swap1\n      dup2\n      mstore\n      0x20\n      dup2\n      swap1\n      mstore\n      0x40\n      swap1\n      keccak256\n        /* \"@openzeppelin/contracts/access/AccessControl.sol\":3877:3899  _roles[role].adminRole */\n      0x01\n      add\n      sload\n      swap1\n        /* \"@openzeppelin/contracts/access/AccessControl.sol\":3786:3906  function getRoleAdmin(bytes32 role) public view virtual returns (bytes32) {... */\n      jump\n    tag_40:\n      mload(0x40)\n        /* \"#utility.yul\":828:853   */\n      swap1\n      dup2\n      mstore\n        /* \"#utility.yul\":816:818   */\n      0x20\n        /* \"#utility.yul\":801:819   */\n      add\n        /* \"@openzeppelin/contracts/access/AccessControl.sol\":3786:3906  function getRoleAdmin(bytes32 role) public view virtual returns (bytes32) {... */\n      tag_38\n        /* \"#utility.yul\":682:859   */\n      jump\n        /* \"@openzeppelin/contracts/access/AccessControl.sol\":4202:4338  function grantRole(bytes32 role, address account) public virtual onlyRole(getRoleAdmin(role)) {... */\n    tag_5:\n      tag_46\n      tag_47\n      calldatasize\n      0x04\n      tag_48\n      jump\t// in\n    tag_47:\n      tag_49\n      jump\t// in\n    tag_46:\n      stop\n        /* \"LibertyFinancialChain/LiberttFinancial/exchange.sol\":622:652  uint256 public swapFeeBps = 50 */\n    tag_6:\n      tag_40\n      sload(0x02)\n      dup2\n      jump\n        /* \"LibertyFinancialChain/LiberttFinancial/exchange.sol\":883:949  mapping(address => mapping(address => uint256)) public globalRates */\n    tag_7:\n      tag_40\n      tag_55\n      calldatasize\n      0x04\n      tag_56\n      jump\t// in\n    tag_55:\n      0x05\n      0x20\n      swap1\n      dup2\n      mstore\n      0x00\n      swap3\n      dup4\n      mstore\n      0x40\n      dup1\n      dup5\n      keccak256\n      swap1\n      swap2\n      mstore\n      swap1\n      dup3\n      mstore\n      swap1\n      keccak256\n      sload\n      dup2\n      jump\n        /* \"@openzeppelin/contracts/access/AccessControl.sol\":5304:5549  function renounceRole(bytes32 role, address callerConfirmation) public virtual {... */\n    tag_8:\n      tag_46\n      tag_60\n      calldatasize\n      0x04\n      tag_48\n      jump\t// in\n    tag_60:\n      tag_61\n      jump\t// in\n        /* \"LibertyFinancialChain/LiberttFinancial/exchange.sol\":674:701  address public feeRecipient */\n    tag_9:\n      sload(0x03)\n      tag_62\n      swap1\n      sub(shl(0xa0, 0x01), 0x01)\n      and\n      dup2\n      jump\n    tag_62:\n      mload(0x40)\n      sub(shl(0xa0, 0x01), 0x01)\n        /* \"#utility.yul\":1912:1944   */\n      swap1\n      swap2\n      and\n        /* \"#utility.yul\":1894:1945   */\n      dup2\n      mstore\n        /* \"#utility.yul\":1882:1884   */\n      0x20\n        /* \"#utility.yul\":1867:1885   */\n      add\n        /* \"LibertyFinancialChain/LiberttFinancial/exchange.sol\":674:701  address public feeRecipient */\n      tag_38\n        /* \"#utility.yul\":1748:1951   */\n      jump\n        /* \"LibertyFinancialChain/LiberttFinancial/exchange.sol\":3398:3526  function grantSubAdmin(address account) external onlyRole(DEFAULT_ADMIN_ROLE) {... */\n    tag_10:\n      tag_46\n      tag_67\n      calldatasize\n      0x04\n      tag_68\n      jump\t// in\n    tag_67:\n      tag_69\n      jump\t// in\n        /* \"LibertyFinancialChain/LiberttFinancial/exchange.sol\":7029:7574  function cancelOrder(uint256 orderId) external nonReentrant {... */\n    tag_11:\n      tag_46\n      tag_71\n      calldatasize\n      0x04\n      tag_42\n      jump\t// in\n    tag_71:\n      tag_73\n      jump\t// in\n        /* \"LibertyFinancialChain/LiberttFinancial/exchange.sol\":5953:6976  function createOrder(... */\n    tag_12:\n      tag_46\n      tag_75\n      calldatasize\n      0x04\n      tag_76\n      jump\t// in\n    tag_75:\n      tag_77\n      jump\t// in\n        /* \"LibertyFinancialChain/LiberttFinancial/exchange.sol\":4164:4411  function normalize(address token, uint256 amount) public view returns (uint256) {... */\n    tag_13:\n      tag_40\n      tag_79\n      calldatasize\n      0x04\n      tag_80\n      jump\t// in\n    tag_79:\n      tag_81\n      jump\t// in\n        /* \"LibertyFinancialChain/LiberttFinancial/exchange.sol\":2953:3160  function setFee(uint256 newFeeBps) external onlyAdminOrSub {... */\n    tag_14:\n      tag_46\n      tag_84\n      calldatasize\n      0x04\n      tag_42\n      jump\t// in\n    tag_84:\n      tag_85\n      jump\t// in\n        /* \"LibertyFinancialChain/LiberttFinancial/exchange.sol\":3581:3818  function emergencyWithdraw(address token) external onlyAdminOrSub {... */\n    tag_15:\n      tag_46\n      tag_87\n      calldatasize\n      0x04\n      tag_68\n      jump\t// in\n    tag_87:\n      tag_88\n      jump\t// in\n        /* \"LibertyFinancialChain/LiberttFinancial/exchange.sol\":2373:2550  function setAllowedToken(address token, bool allowed) external onlyAdminOrSub {... */\n    tag_16:\n      tag_46\n      tag_90\n      calldatasize\n      0x04\n      tag_91\n      jump\t// in\n    tag_90:\n      tag_92\n      jump\t// in\n        /* \"@openzeppelin/contracts/access/AccessControl.sol\":2830:2966  function hasRole(bytes32 role, address account) public view virtual returns (bool) {... */\n    tag_17:\n      tag_34\n      tag_94\n      calldatasize\n      0x04\n      tag_48\n      jump\t// in\n    tag_94:\n      tag_95\n      jump\t// in\n        /* \"LibertyFinancialChain/LiberttFinancial/exchange.sol\":4800:5827  function swapGlobal(address tokenIn, address tokenOut, uint256 amountIn, uint256 minAmountOut) external nonReentrant {... */\n    tag_18:\n      tag_46\n      tag_98\n      calldatasize\n      0x04\n      tag_99\n      jump\t// in\n    tag_98:\n      tag_100\n      jump\t// in\n        /* \"@openzeppelin/contracts/access/AccessControl.sol\":2196:2245  bytes32 public constant DEFAULT_ADMIN_ROLE = 0x00 */\n    tag_19:\n      tag_40\n        /* \"@openzeppelin/contracts/access/AccessControl.sol\":2241:2245  0x00 */\n      0x00\n        /* \"@openzeppelin/contracts/access/AccessControl.sol\":2196:2245  bytes32 public constant DEFAULT_ADMIN_ROLE = 0x00 */\n      dup2\n      jump\n        /* \"LibertyFinancialChain/LiberttFinancial/exchange.sol\":1254:1275  Order[] public orders */\n    tag_20:\n      tag_104\n      tag_105\n      calldatasize\n      0x04\n      tag_42\n      jump\t// in\n    tag_105:\n      tag_106\n      jump\t// in\n    tag_104:\n      0x40\n      dup1\n      mload\n      sub(shl(0xa0, 0x01), 0x01)\n        /* \"#utility.yul\":4209:4224   */\n      swap10\n      dup11\n      and\n        /* \"#utility.yul\":4191:4225   */\n      dup2\n      mstore\n        /* \"#utility.yul\":4261:4276   */\n      swap8\n      dup10\n      and\n        /* \"#utility.yul\":4256:4258   */\n      0x20\n        /* \"#utility.yul\":4241:4259   */\n      dup10\n      add\n        /* \"#utility.yul\":4234:4277   */\n      mstore\n        /* \"#utility.yul\":4313:4328   */\n      swap6\n      swap1\n      swap8\n      and\n        /* \"#utility.yul\":4293:4311   */\n      swap5\n      dup7\n      add\n        /* \"#utility.yul\":4286:4329   */\n      swap5\n      swap1\n      swap5\n      mstore\n        /* \"#utility.yul\":4360:4362   */\n      0x60\n        /* \"#utility.yul\":4345:4363   */\n      dup6\n      add\n        /* \"#utility.yul\":4338:4372   */\n      swap3\n      swap1\n      swap3\n      mstore\n        /* \"#utility.yul\":4403:4406   */\n      0x80\n        /* \"#utility.yul\":4388:4407   */\n      dup5\n      add\n        /* \"#utility.yul\":4381:4416   */\n      mstore\n        /* \"#utility.yul\":4171:4174   */\n      0xa0\n        /* \"#utility.yul\":4432:4451   */\n      dup4\n      add\n        /* \"#utility.yul\":4425:4460   */\n      mstore\n        /* \"#utility.yul\":4491:4494   */\n      0xc0\n        /* \"#utility.yul\":4476:4495   */\n      dup3\n      add\n        /* \"#utility.yul\":4469:4504   */\n      mstore\n        /* \"#utility.yul\":4548:4562   */\n      swap1\n      iszero\n        /* \"#utility.yul\":4541:4563   */\n      iszero\n        /* \"#utility.yul\":4535:4538   */\n      0xe0\n        /* \"#utility.yul\":4520:4539   */\n      dup3\n      add\n        /* \"#utility.yul\":4513:4564   */\n      mstore\n        /* \"#utility.yul\":4140:4143   */\n      0x0100\n        /* \"#utility.yul\":4125:4144   */\n      add\n        /* \"LibertyFinancialChain/LiberttFinancial/exchange.sol\":1254:1275  Order[] public orders */\n      tag_38\n        /* \"#utility.yul\":3816:4570   */\n      jump\n        /* \"LibertyFinancialChain/LiberttFinancial/exchange.sol\":4417:4682  function denormalize(address token, uint256 nAmount) public view returns (uint256) {... */\n    tag_21:\n      tag_40\n      tag_110\n      calldatasize\n      0x04\n      tag_80\n      jump\t// in\n    tag_110:\n      tag_111\n      jump\t// in\n        /* \"LibertyFinancialChain/LiberttFinancial/exchange.sol\":7625:9180  function matchOrder(uint256 orderId, uint256 fillAmount, uint256 minAmountOut) external nonReentrant {... */\n    tag_22:\n      tag_46\n      tag_114\n      calldatasize\n      0x04\n      tag_115\n      jump\t// in\n    tag_114:\n      tag_116\n      jump\t// in\n        /* \"LibertyFinancialChain/LiberttFinancial/exchange.sol\":503:569  bytes32 public constant SUBADMIN_ROLE = keccak256(\"SUBADMIN_ROLE\") */\n    tag_23:\n      tag_40\n      0x00\n      dup1\n      mload\n      0x20\n      data_c3f76b99666f6818ff0e702cf1728f8564932dfce2026f5d7d90bf00e9ab2863\n      dup4\n      codecopy\n      dup2\n      mload\n      swap2\n      mstore\n      dup2\n      jump\n        /* \"LibertyFinancialChain/LiberttFinancial/exchange.sol\":4038:4158  function getDecimals(address token) public view returns (uint8) {... */\n    tag_24:\n      tag_120\n      tag_121\n      calldatasize\n      0x04\n      tag_68\n      jump\t// in\n    tag_121:\n      tag_122\n      jump\t// in\n    tag_120:\n      mload(0x40)\n        /* \"#utility.yul\":5068:5072   */\n      0xff\n        /* \"#utility.yul\":5056:5073   */\n      swap1\n      swap2\n      and\n        /* \"#utility.yul\":5038:5074   */\n      dup2\n      mstore\n        /* \"#utility.yul\":5026:5028   */\n      0x20\n        /* \"#utility.yul\":5011:5029   */\n      add\n        /* \"LibertyFinancialChain/LiberttFinancial/exchange.sol\":4038:4158  function getDecimals(address token) public view returns (uint8) {... */\n      tag_38\n        /* \"#utility.yul\":4896:5080   */\n      jump\n        /* \"LibertyFinancialChain/LiberttFinancial/exchange.sol\":2556:2947  function setGlobalRate(address tokenIn, address tokenOut, uint256 rate) external onlyAdminOrSub {... */\n    tag_25:\n      tag_46\n      tag_126\n      calldatasize\n      0x04\n      tag_127\n      jump\t// in\n    tag_126:\n      tag_128\n      jump\t// in\n        /* \"@openzeppelin/contracts/access/AccessControl.sol\":4618:4756  function revokeRole(bytes32 role, address account) public virtual onlyRole(getRoleAdmin(role)) {... */\n    tag_26:\n      tag_46\n      tag_130\n      calldatasize\n      0x04\n      tag_48\n      jump\t// in\n    tag_130:\n      tag_131\n      jump\t// in\n        /* \"LibertyFinancialChain/LiberttFinancial/exchange.sol\":756:801  mapping(address => bool) public allowedTokens */\n    tag_27:\n      tag_34\n      tag_133\n      calldatasize\n      0x04\n      tag_68\n      jump\t// in\n    tag_133:\n      mstore(0x20, 0x04)\n      0x00\n      swap1\n      dup2\n      mstore\n      0x40\n      swap1\n      keccak256\n      sload\n      0xff\n      and\n      dup2\n      jump\n        /* \"LibertyFinancialChain/LiberttFinancial/exchange.sol\":3166:3392  function setFeeRecipient(address recipient) external onlyAdminOrSub {... */\n    tag_28:\n      tag_46\n      tag_137\n      calldatasize\n      0x04\n      tag_68\n      jump\t// in\n    tag_137:\n      tag_138\n      jump\t// in\n        /* \"@openzeppelin/contracts/access/AccessControl.sol\":2541:2743  function supportsInterface(bytes4 interfaceId) public view virtual override returns (bool) {... */\n    tag_37:\n        /* \"@openzeppelin/contracts/access/AccessControl.sol\":2626:2630  bool */\n      0x00\n      not(sub(shl(0xe0, 0x01), 0x01))\n        /* \"@openzeppelin/contracts/access/AccessControl.sol\":2649:2696  interfaceId == type(IAccessControl).interfaceId */\n      dup3\n      and\n      shl(0xe0, 0x7965db0b)\n      eq\n      dup1\n        /* \"@openzeppelin/contracts/access/AccessControl.sol\":2649:2736  interfaceId == type(IAccessControl).interfaceId || super.supportsInterface(interfaceId) */\n      tag_141\n      jumpi\n      pop\n      shl(0xe0, 0x01ffc9a7)\n      not(sub(shl(0xe0, 0x01), 0x01))\n        /* \"@openzeppelin/contracts/utils/introspection/ERC165.sol\":829:869  interfaceId == type(IERC165).interfaceId */\n      dup4\n      and\n      eq\n        /* \"@openzeppelin/contracts/access/AccessControl.sol\":2700:2736  super.supportsInterface(interfaceId) */\n    tag_141:\n        /* \"@openzeppelin/contracts/access/AccessControl.sol\":2642:2736  return interfaceId == type(IAccessControl).interfaceId || super.supportsInterface(interfaceId) */\n      swap3\n        /* \"@openzeppelin/contracts/access/AccessControl.sol\":2541:2743  function supportsInterface(bytes4 interfaceId) public view virtual override returns (bool) {... */\n      swap2\n      pop\n      pop\n      jump\t// out\n        /* \"@openzeppelin/contracts/access/AccessControl.sol\":4202:4338  function grantRole(bytes32 role, address account) public virtual onlyRole(getRoleAdmin(role)) {... */\n    tag_49:\n        /* \"@openzeppelin/contracts/access/AccessControl.sol\":3851:3858  bytes32 */\n      0x00\n        /* \"@openzeppelin/contracts/access/AccessControl.sol\":3877:3889  _roles[role] */\n      dup3\n      dup2\n      mstore\n      0x20\n      dup2\n      swap1\n      mstore\n      0x40\n      swap1\n      keccak256\n        /* \"@openzeppelin/contracts/access/AccessControl.sol\":3877:3899  _roles[role].adminRole */\n      0x01\n      add\n      sload\n        /* \"@openzeppelin/contracts/access/AccessControl.sol\":2473:2489  _checkRole(role) */\n      tag_146\n        /* \"@openzeppelin/contracts/access/AccessControl.sol\":2484:2488  role */\n      dup2\n        /* \"@openzeppelin/contracts/access/AccessControl.sol\":2473:2483  _checkRole */\n      tag_147\n        /* \"@openzeppelin/contracts/access/AccessControl.sol\":2473:2489  _checkRole(role) */\n      jump\t// in\n    tag_146:\n        /* \"@openzeppelin/contracts/access/AccessControl.sol\":4306:4331  _grantRole(role, account) */\n      tag_149\n        /* \"@openzeppelin/contracts/access/AccessControl.sol\":4317:4321  role */\n      dup4\n        /* \"@openzeppelin/contracts/access/AccessControl.sol\":4323:4330  account */\n      dup4\n        /* \"@openzeppelin/contracts/access/AccessControl.sol\":4306:4316  _grantRole */\n      tag_150\n        /* \"@openzeppelin/contracts/access/AccessControl.sol\":4306:4331  _grantRole(role, account) */\n      jump\t// in\n    tag_149:\n      pop\n        /* \"@openzeppelin/contracts/access/AccessControl.sol\":4202:4338  function grantRole(bytes32 role, address account) public virtual onlyRole(getRoleAdmin(role)) {... */\n      pop\n      pop\n      pop\n      jump\t// out\n        /* \"@openzeppelin/contracts/access/AccessControl.sol\":5304:5549  function renounceRole(bytes32 role, address callerConfirmation) public virtual {... */\n    tag_61:\n      sub(shl(0xa0, 0x01), 0x01)\n        /* \"@openzeppelin/contracts/access/AccessControl.sol\":5397:5431  callerConfirmation != _msgSender() */\n      dup2\n      and\n        /* \"@openzeppelin/contracts/utils/Context.sol\":735:745  msg.sender */\n      caller\n        /* \"@openzeppelin/contracts/access/AccessControl.sol\":5397:5431  callerConfirmation != _msgSender() */\n      eq\n        /* \"@openzeppelin/contracts/access/AccessControl.sol\":5393:5495  if (callerConfirmation != _msgSender()) {... */\n      tag_154\n      jumpi\n        /* \"@openzeppelin/contracts/access/AccessControl.sol\":5454:5484  AccessControlBadConfirmation() */\n      mload(0x40)\n      shl(0xe1, 0x334bd919)\n      dup2\n      mstore\n      0x04\n      add\n      mload(0x40)\n      dup1\n      swap2\n      sub\n      swap1\n      revert\n        /* \"@openzeppelin/contracts/access/AccessControl.sol\":5393:5495  if (callerConfirmation != _msgSender()) {... */\n    tag_154:\n        /* \"@openzeppelin/contracts/access/AccessControl.sol\":5505:5542  _revokeRole(role, callerConfirmation) */\n      tag_155\n        /* \"@openzeppelin/contracts/access/AccessControl.sol\":5517:5521  role */\n      dup3\n        /* \"@openzeppelin/contracts/access/AccessControl.sol\":5523:5541  callerConfirmation */\n      dup3\n        /* \"@openzeppelin/contracts/access/AccessControl.sol\":5505:5516  _revokeRole */\n      tag_156\n        /* \"@openzeppelin/contracts/access/AccessControl.sol\":5505:5542  _revokeRole(role, callerConfirmation) */\n      jump\t// in\n    tag_155:\n      pop\n        /* \"@openzeppelin/contracts/access/AccessControl.sol\":5304:5549  function renounceRole(bytes32 role, address callerConfirmation) public virtual {... */\n      pop\n      pop\n      jump\t// out\n        /* \"LibertyFinancialChain/LiberttFinancial/exchange.sol\":3398:3526  function grantSubAdmin(address account) external onlyRole(DEFAULT_ADMIN_ROLE) {... */\n    tag_69:\n        /* \"@openzeppelin/contracts/access/AccessControl.sol\":2241:2245  0x00 */\n      0x00\n        /* \"@openzeppelin/contracts/access/AccessControl.sol\":2473:2489  _checkRole(role) */\n      tag_158\n        /* \"@openzeppelin/contracts/access/AccessControl.sol\":2241:2245  0x00 */\n      dup2\n        /* \"@openzeppelin/contracts/access/AccessControl.sol\":2473:2483  _checkRole */\n      tag_147\n        /* \"@openzeppelin/contracts/access/AccessControl.sol\":2473:2489  _checkRole(role) */\n      jump\t// in\n    tag_158:\n        /* \"LibertyFinancialChain/LiberttFinancial/exchange.sol\":3486:3519  grantRole(SUBADMIN_ROLE, account) */\n      tag_160\n      0x00\n      dup1\n      mload\n      0x20\n      data_c3f76b99666f6818ff0e702cf1728f8564932dfce2026f5d7d90bf00e9ab2863\n      dup4\n      codecopy\n      dup2\n      mload\n      swap2\n      mstore\n        /* \"LibertyFinancialChain/LiberttFinancial/exchange.sol\":3511:3518  account */\n      dup4\n        /* \"LibertyFinancialChain/LiberttFinancial/exchange.sol\":3486:3495  grantRole */\n      tag_49\n        /* \"LibertyFinancialChain/LiberttFinancial/exchange.sol\":3486:3519  grantRole(SUBADMIN_ROLE, account) */\n      jump\t// in\n    tag_160:\n        /* \"LibertyFinancialChain/LiberttFinancial/exchange.sol\":3398:3526  function grantSubAdmin(address account) external onlyRole(DEFAULT_ADMIN_ROLE) {... */\n      pop\n      pop\n      jump\t// out\n        /* \"LibertyFinancialChain/LiberttFinancial/exchange.sol\":7029:7574  function cancelOrder(uint256 orderId) external nonReentrant {... */\n    tag_73:\n        /* \"@openzeppelin/contracts/security/ReentrancyGuard.sol\":2261:2282  _nonReentrantBefore() */\n      tag_162\n        /* \"@openzeppelin/contracts/security/ReentrancyGuard.sol\":2261:2280  _nonReentrantBefore */\n      tag_163\n        /* \"@openzeppelin/contracts/security/ReentrancyGuard.sol\":2261:2282  _nonReentrantBefore() */\n      jump\t// in\n    tag_162:\n        /* \"LibertyFinancialChain/LiberttFinancial/exchange.sol\":7117:7123  orders */\n      0x06\n        /* \"LibertyFinancialChain/LiberttFinancial/exchange.sol\":7117:7130  orders.length */\n      sload\n        /* \"LibertyFinancialChain/LiberttFinancial/exchange.sol\":7107:7130  orderId < orders.length */\n      dup2\n      lt\n        /* \"LibertyFinancialChain/LiberttFinancial/exchange.sol\":7099:7142  require(orderId < orders.length, \"Invalid\") */\n      tag_165\n      jumpi\n      mload(0x40)\n      shl(0xe5, 0x461bcd)\n      dup2\n      mstore\n        /* \"#utility.yul\":5620:5622   */\n      0x20\n        /* \"LibertyFinancialChain/LiberttFinancial/exchange.sol\":7099:7142  require(orderId < orders.length, \"Invalid\") */\n      0x04\n      dup3\n      add\n        /* \"#utility.yul\":5602:5623   */\n      mstore\n        /* \"#utility.yul\":5659:5660   */\n      0x07\n        /* \"#utility.yul\":5639:5657   */\n      0x24\n      dup3\n      add\n        /* \"#utility.yul\":5632:5661   */\n      mstore\n      shl(0xca, 0x125b9d985b1a59)\n        /* \"#utility.yul\":5677:5695   */\n      0x44\n      dup3\n      add\n        /* \"#utility.yul\":5670:5707   */\n      mstore\n        /* \"#utility.yul\":5724:5742   */\n      0x64\n      add\n        /* \"LibertyFinancialChain/LiberttFinancial/exchange.sol\":7099:7142  require(orderId < orders.length, \"Invalid\") */\n    tag_166:\n      mload(0x40)\n      dup1\n      swap2\n      sub\n      swap1\n      revert\n    tag_165:\n        /* \"LibertyFinancialChain/LiberttFinancial/exchange.sol\":7152:7169  Order storage ord */\n      0x00\n        /* \"LibertyFinancialChain/LiberttFinancial/exchange.sol\":7172:7178  orders */\n      0x06\n        /* \"LibertyFinancialChain/LiberttFinancial/exchange.sol\":7179:7186  orderId */\n      dup3\n        /* \"LibertyFinancialChain/LiberttFinancial/exchange.sol\":7172:7187  orders[orderId] */\n      dup2\n      sload\n      dup2\n      lt\n      tag_169\n      jumpi\n      tag_169\n      tag_170\n      jump\t// in\n    tag_169:\n      0x00\n      swap2\n      dup3\n      mstore\n      0x20\n      swap1\n      swap2\n      keccak256\n      0x08\n      swap1\n      swap2\n      mul\n      add\n        /* \"LibertyFinancialChain/LiberttFinancial/exchange.sol\":7205:7215  ord.active */\n      0x07\n      dup2\n      add\n      sload\n        /* \"LibertyFinancialChain/LiberttFinancial/exchange.sol\":7172:7187  orders[orderId] */\n      swap1\n      swap2\n      pop\n        /* \"LibertyFinancialChain/LiberttFinancial/exchange.sol\":7205:7215  ord.active */\n      0xff\n      and\n        /* \"LibertyFinancialChain/LiberttFinancial/exchange.sol\":7197:7228  require(ord.active, \"Inactive\") */\n      tag_172\n      jumpi\n      mload(0x40)\n      shl(0xe5, 0x461bcd)\n      dup2\n      mstore\n        /* \"#utility.yul\":6087:6089   */\n      0x20\n        /* \"LibertyFinancialChain/LiberttFinancial/exchange.sol\":7197:7228  require(ord.active, \"Inactive\") */\n      0x04\n      dup3\n      add\n        /* \"#utility.yul\":6069:6090   */\n      mstore\n        /* \"#utility.yul\":6126:6127   */\n      0x08\n        /* \"#utility.yul\":6106:6124   */\n      0x24\n      dup3\n      add\n        /* \"#utility.yul\":6099:6128   */\n      mstore\n      shl(0xc0, 0x496e616374697665)\n        /* \"#utility.yul\":6144:6162   */\n      0x44\n      dup3\n      add\n        /* \"#utility.yul\":6137:6175   */\n      mstore\n        /* \"#utility.yul\":6192:6210   */\n      0x64\n      add\n        /* \"LibertyFinancialChain/LiberttFinancial/exchange.sol\":7197:7228  require(ord.active, \"Inactive\") */\n      tag_166\n        /* \"#utility.yul\":5885:6216   */\n      jump\n        /* \"LibertyFinancialChain/LiberttFinancial/exchange.sol\":7197:7228  require(ord.active, \"Inactive\") */\n    tag_172:\n        /* \"LibertyFinancialChain/LiberttFinancial/exchange.sol\":7246:7255  ord.maker */\n      dup1\n      sload\n      sub(shl(0xa0, 0x01), 0x01)\n      and\n        /* \"LibertyFinancialChain/LiberttFinancial/exchange.sol\":7259:7269  msg.sender */\n      caller\n        /* \"LibertyFinancialChain/LiberttFinancial/exchange.sol\":7246:7269  ord.maker == msg.sender */\n      eq\n        /* \"LibertyFinancialChain/LiberttFinancial/exchange.sol\":7238:7284  require(ord.maker == msg.sender, \"Only maker\") */\n      tag_175\n      jumpi\n      mload(0x40)\n      shl(0xe5, 0x461bcd)\n      dup2\n      mstore\n        /* \"#utility.yul\":6423:6425   */\n      0x20\n        /* \"LibertyFinancialChain/LiberttFinancial/exchange.sol\":7238:7284  require(ord.maker == msg.sender, \"Only maker\") */\n      0x04\n      dup3\n      add\n        /* \"#utility.yul\":6405:6426   */\n      mstore\n        /* \"#utility.yul\":6462:6464   */\n      0x0a\n        /* \"#utility.yul\":6442:6460   */\n      0x24\n      dup3\n      add\n        /* \"#utility.yul\":6435:6465   */\n      mstore\n      shl(0xb1, 0x27b7363c9036b0b5b2b9)\n        /* \"#utility.yul\":6481:6499   */\n      0x44\n      dup3\n      add\n        /* \"#utility.yul\":6474:6514   */\n      mstore\n        /* \"#utility.yul\":6531:6549   */\n      0x64\n      add\n        /* \"LibertyFinancialChain/LiberttFinancial/exchange.sol\":7238:7284  require(ord.maker == msg.sender, \"Only maker\") */\n      tag_166\n        /* \"#utility.yul\":6221:6555   */\n      jump\n        /* \"LibertyFinancialChain/LiberttFinancial/exchange.sol\":7238:7284  require(ord.maker == msg.sender, \"Only maker\") */\n    tag_175:\n        /* \"LibertyFinancialChain/LiberttFinancial/exchange.sol\":7294:7304  ord.active */\n      0x07\n      dup2\n      add\n        /* \"LibertyFinancialChain/LiberttFinancial/exchange.sol\":7294:7312  ord.active = false */\n      dup1\n      sload\n      not(0xff)\n      and\n      swap1\n      sstore\n        /* \"LibertyFinancialChain/LiberttFinancial/exchange.sol\":7345:7364  ord.amountRemaining */\n      0x04\n      dup2\n      add\n      dup1\n      sload\n        /* \"LibertyFinancialChain/LiberttFinancial/exchange.sol\":7307:7312  false */\n      0x00\n        /* \"LibertyFinancialChain/LiberttFinancial/exchange.sol\":7374:7397  ord.amountRemaining = 0 */\n      swap1\n      swap2\n      sstore\n        /* \"LibertyFinancialChain/LiberttFinancial/exchange.sol\":7411:7427  refundAmount > 0 */\n      dup1\n      iszero\n        /* \"LibertyFinancialChain/LiberttFinancial/exchange.sol\":7407:7568  if (refundAmount > 0) {... */\n      tag_178\n      jumpi\n        /* \"LibertyFinancialChain/LiberttFinancial/exchange.sol\":7450:7461  ord.tokenIn */\n      0x01\n      dup3\n      add\n      sload\n        /* \"LibertyFinancialChain/LiberttFinancial/exchange.sol\":7443:7501  IERC20(ord.tokenIn).safeTransfer(msg.sender, refundAmount) */\n      tag_179\n      swap1\n      sub(shl(0xa0, 0x01), 0x01)\n        /* \"LibertyFinancialChain/LiberttFinancial/exchange.sol\":7450:7461  ord.tokenIn */\n      and\n        /* \"LibertyFinancialChain/LiberttFinancial/exchange.sol\":7476:7486  msg.sender */\n      caller\n        /* \"LibertyFinancialChain/LiberttFinancial/exchange.sol\":7488:7500  refundAmount */\n      dup4\n        /* \"LibertyFinancialChain/LiberttFinancial/exchange.sol\":7443:7475  IERC20(ord.tokenIn).safeTransfer */\n      tag_180\n        /* \"LibertyFinancialChain/LiberttFinancial/exchange.sol\":7443:7501  IERC20(ord.tokenIn).safeTransfer(msg.sender, refundAmount) */\n      jump\t// in\n    tag_179:\n        /* \"LibertyFinancialChain/LiberttFinancial/exchange.sol\":7535:7542  orderId */\n      dup3\n        /* \"LibertyFinancialChain/LiberttFinancial/exchange.sol\":7520:7557  OrderCancelled(orderId, refundAmount) */\n      0xaa2a006d186dc89a3d6851834c85d16226329ac40bcad6531a5756a38ed1c90f\n        /* \"LibertyFinancialChain/LiberttFinancial/exchange.sol\":7544:7556  refundAmount */\n      dup3\n        /* \"LibertyFinancialChain/LiberttFinancial/exchange.sol\":7520:7557  OrderCancelled(orderId, refundAmount) */\n      mload(0x40)\n      tag_181\n      swap2\n        /* \"#utility.yul\":828:853   */\n      dup2\n      mstore\n        /* \"#utility.yul\":816:818   */\n      0x20\n        /* \"#utility.yul\":801:819   */\n      add\n      swap1\n        /* \"#utility.yul\":682:859   */\n      jump\n        /* \"LibertyFinancialChain/LiberttFinancial/exchange.sol\":7520:7557  OrderCancelled(orderId, refundAmount) */\n    tag_181:\n      mload(0x40)\n      dup1\n      swap2\n      sub\n      swap1\n      log2\n        /* \"LibertyFinancialChain/LiberttFinancial/exchange.sol\":7407:7568  if (refundAmount > 0) {... */\n    tag_178:\n        /* \"LibertyFinancialChain/LiberttFinancial/exchange.sol\":7089:7574  {... */\n      pop\n      pop\n        /* \"@openzeppelin/contracts/security/ReentrancyGuard.sol\":2303:2323  _nonReentrantAfter() */\n      tag_182\n        /* \"@openzeppelin/contracts/security/ReentrancyGuard.sol\":1716:1717  1 */\n      0x01\n        /* \"@openzeppelin/contracts/security/ReentrancyGuard.sol\":2809:2831  _status = _NOT_ENTERED */\n      dup1\n      sstore\n        /* \"@openzeppelin/contracts/security/ReentrancyGuard.sol\":2629:2838  function _nonReentrantAfter() private {... */\n      jump\n        /* \"@openzeppelin/contracts/security/ReentrancyGuard.sol\":2303:2323  _nonReentrantAfter() */\n    tag_182:\n        /* \"LibertyFinancialChain/LiberttFinancial/exchange.sol\":7029:7574  function cancelOrder(uint256 orderId) external nonReentrant {... */\n      pop\n      jump\t// out\n        /* \"LibertyFinancialChain/LiberttFinancial/exchange.sol\":5953:6976  function createOrder(... */\n    tag_77:\n        /* \"@openzeppelin/contracts/security/ReentrancyGuard.sol\":2261:2282  _nonReentrantBefore() */\n      tag_185\n        /* \"@openzeppelin/contracts/security/ReentrancyGuard.sol\":2261:2280  _nonReentrantBefore */\n      tag_163\n        /* \"@openzeppelin/contracts/security/ReentrancyGuard.sol\":2261:2282  _nonReentrantBefore() */\n      jump\t// in\n    tag_185:\n        /* \"LibertyFinancialChain/LiberttFinancial/exchange.sol\":6164:6172  tokenOut */\n      dup4\n      sub(shl(0xa0, 0x01), 0x01)\n        /* \"LibertyFinancialChain/LiberttFinancial/exchange.sol\":6153:6172  tokenIn != tokenOut */\n      and\n        /* \"LibertyFinancialChain/LiberttFinancial/exchange.sol\":6153:6160  tokenIn */\n      dup6\n      sub(shl(0xa0, 0x01), 0x01)\n        /* \"LibertyFinancialChain/LiberttFinancial/exchange.sol\":6153:6172  tokenIn != tokenOut */\n      and\n      sub\n        /* \"LibertyFinancialChain/LiberttFinancial/exchange.sol\":6145:6193  require(tokenIn != tokenOut, \"Identical tokens\") */\n      tag_187\n      jumpi\n      mload(0x40)\n      shl(0xe5, 0x461bcd)\n      dup2\n      mstore\n      0x04\n      add\n      tag_166\n      swap1\n      tag_189\n      jump\t// in\n    tag_187:\n      sub(shl(0xa0, 0x01), 0x01)\n        /* \"LibertyFinancialChain/LiberttFinancial/exchange.sol\":6211:6233  allowedTokens[tokenIn] */\n      dup6\n      and\n      0x00\n      swap1\n      dup2\n      mstore\n        /* \"LibertyFinancialChain/LiberttFinancial/exchange.sol\":6211:6224  allowedTokens */\n      0x04\n        /* \"LibertyFinancialChain/LiberttFinancial/exchange.sol\":6211:6233  allowedTokens[tokenIn] */\n      0x20\n      mstore\n      0x40\n      swap1\n      keccak256\n      sload\n      0xff\n      and\n        /* \"LibertyFinancialChain/LiberttFinancial/exchange.sol\":6211:6260  allowedTokens[tokenIn] && allowedTokens[tokenOut] */\n      dup1\n      iszero\n      tag_190\n      jumpi\n      pop\n      sub(shl(0xa0, 0x01), 0x01)\n        /* \"LibertyFinancialChain/LiberttFinancial/exchange.sol\":6237:6260  allowedTokens[tokenOut] */\n      dup5\n      and\n      0x00\n      swap1\n      dup2\n      mstore\n        /* \"LibertyFinancialChain/LiberttFinancial/exchange.sol\":6237:6250  allowedTokens */\n      0x04\n        /* \"LibertyFinancialChain/LiberttFinancial/exchange.sol\":6237:6260  allowedTokens[tokenOut] */\n      0x20\n      mstore\n      0x40\n      swap1\n      keccak256\n      sload\n      0xff\n      and\n        /* \"LibertyFinancialChain/LiberttFinancial/exchange.sol\":6211:6260  allowedTokens[tokenIn] && allowedTokens[tokenOut] */\n    tag_190:\n        /* \"LibertyFinancialChain/LiberttFinancial/exchange.sol\":6203:6283  require(allowedTokens[tokenIn] && allowedTokens[tokenOut], \"Tokens not allowed\") */\n      tag_191\n      jumpi\n      mload(0x40)\n      shl(0xe5, 0x461bcd)\n      dup2\n      mstore\n      0x04\n      add\n      tag_166\n      swap1\n      tag_193\n      jump\t// in\n    tag_191:\n        /* \"LibertyFinancialChain/LiberttFinancial/exchange.sol\":6308:6309  0 */\n      0x00\n        /* \"LibertyFinancialChain/LiberttFinancial/exchange.sol\":6301:6305  rate */\n      dup3\n        /* \"LibertyFinancialChain/LiberttFinancial/exchange.sol\":6301:6309  rate > 0 */\n      gt\n        /* \"LibertyFinancialChain/LiberttFinancial/exchange.sol\":6293:6323  require(rate > 0, \"Rate zero\") */\n      tag_194\n      jumpi\n      mload(0x40)\n      shl(0xe5, 0x461bcd)\n      dup2\n      mstore\n        /* \"#utility.yul\":7454:7456   */\n      0x20\n        /* \"LibertyFinancialChain/LiberttFinancial/exchange.sol\":6293:6323  require(rate > 0, \"Rate zero\") */\n      0x04\n      dup3\n      add\n        /* \"#utility.yul\":7436:7457   */\n      mstore\n        /* \"#utility.yul\":7493:7494   */\n      0x09\n        /* \"#utility.yul\":7473:7491   */\n      0x24\n      dup3\n      add\n        /* \"#utility.yul\":7466:7495   */\n      mstore\n      shl(0xb8, 0x52617465207a65726f)\n        /* \"#utility.yul\":7511:7529   */\n      0x44\n      dup3\n      add\n        /* \"#utility.yul\":7504:7543   */\n      mstore\n        /* \"#utility.yul\":7560:7578   */\n      0x64\n      add\n        /* \"LibertyFinancialChain/LiberttFinancial/exchange.sol\":6293:6323  require(rate > 0, \"Rate zero\") */\n      tag_166\n        /* \"#utility.yul\":7252:7584   */\n      jump\n        /* \"LibertyFinancialChain/LiberttFinancial/exchange.sol\":6293:6323  require(rate > 0, \"Rate zero\") */\n    tag_194:\n        /* \"LibertyFinancialChain/LiberttFinancial/exchange.sol\":6333:6350  uint256 expiresAt */\n      0x00\n        /* \"LibertyFinancialChain/LiberttFinancial/exchange.sol\":6353:6387  block.timestamp + expiresInSeconds */\n      tag_197\n        /* \"LibertyFinancialChain/LiberttFinancial/exchange.sol\":6371:6387  expiresInSeconds */\n      dup3\n        /* \"LibertyFinancialChain/LiberttFinancial/exchange.sol\":6353:6368  block.timestamp */\n      timestamp\n        /* \"LibertyFinancialChain/LiberttFinancial/exchange.sol\":6353:6387  block.timestamp + expiresInSeconds */\n      tag_198\n      jump\t// in\n    tag_197:\n        /* \"LibertyFinancialChain/LiberttFinancial/exchange.sol\":6333:6387  uint256 expiresAt = block.timestamp + expiresInSeconds */\n      swap1\n      pop\n        /* \"LibertyFinancialChain/LiberttFinancial/exchange.sol\":6397:6414  uint256 nAmountIn */\n      0x00\n        /* \"LibertyFinancialChain/LiberttFinancial/exchange.sol\":6417:6445  normalize(tokenIn, amountIn) */\n      tag_199\n        /* \"LibertyFinancialChain/LiberttFinancial/exchange.sol\":6427:6434  tokenIn */\n      dup8\n        /* \"LibertyFinancialChain/LiberttFinancial/exchange.sol\":6436:6444  amountIn */\n      dup7\n        /* \"LibertyFinancialChain/LiberttFinancial/exchange.sol\":6417:6426  normalize */\n      tag_81\n        /* \"LibertyFinancialChain/LiberttFinancial/exchange.sol\":6417:6445  normalize(tokenIn, amountIn) */\n      jump\t// in\n    tag_199:\n        /* \"LibertyFinancialChain/LiberttFinancial/exchange.sol\":6397:6445  uint256 nAmountIn = normalize(tokenIn, amountIn) */\n      swap1\n      pop\n        /* \"LibertyFinancialChain/LiberttFinancial/exchange.sol\":6475:6476  0 */\n      0x00\n        /* \"LibertyFinancialChain/LiberttFinancial/exchange.sol\":6463:6472  nAmountIn */\n      dup2\n        /* \"LibertyFinancialChain/LiberttFinancial/exchange.sol\":6463:6476  nAmountIn > 0 */\n      gt\n        /* \"LibertyFinancialChain/LiberttFinancial/exchange.sol\":6455:6490  require(nAmountIn > 0, \"Too small\") */\n      tag_200\n      jumpi\n      mload(0x40)\n      shl(0xe5, 0x461bcd)\n      dup2\n      mstore\n        /* \"#utility.yul\":8053:8055   */\n      0x20\n        /* \"LibertyFinancialChain/LiberttFinancial/exchange.sol\":6455:6490  require(nAmountIn > 0, \"Too small\") */\n      0x04\n      dup3\n      add\n        /* \"#utility.yul\":8035:8056   */\n      mstore\n        /* \"#utility.yul\":8092:8093   */\n      0x09\n        /* \"#utility.yul\":8072:8090   */\n      0x24\n      dup3\n      add\n        /* \"#utility.yul\":8065:8094   */\n      mstore\n      shl(0xba, 0x151bdbc81cdb585b1b)\n        /* \"#utility.yul\":8110:8128   */\n      0x44\n      dup3\n      add\n        /* \"#utility.yul\":8103:8142   */\n      mstore\n        /* \"#utility.yul\":8159:8177   */\n      0x64\n      add\n        /* \"LibertyFinancialChain/LiberttFinancial/exchange.sol\":6455:6490  require(nAmountIn > 0, \"Too small\") */\n      tag_166\n        /* \"#utility.yul\":7851:8183   */\n      jump\n        /* \"LibertyFinancialChain/LiberttFinancial/exchange.sol\":6455:6490  require(nAmountIn > 0, \"Too small\") */\n    tag_200:\n        /* \"LibertyFinancialChain/LiberttFinancial/exchange.sol\":6501:6570  IERC20(tokenIn).safeTransferFrom(msg.sender, address(this), amountIn) */\n      tag_203\n      sub(shl(0xa0, 0x01), 0x01)\n        /* \"LibertyFinancialChain/LiberttFinancial/exchange.sol\":6501:6533  IERC20(tokenIn).safeTransferFrom */\n      dup9\n      and\n        /* \"LibertyFinancialChain/LiberttFinancial/exchange.sol\":6534:6544  msg.sender */\n      caller\n        /* \"LibertyFinancialChain/LiberttFinancial/exchange.sol\":6554:6558  this */\n      address\n        /* \"LibertyFinancialChain/LiberttFinancial/exchange.sol\":6561:6569  amountIn */\n      dup9\n        /* \"LibertyFinancialChain/LiberttFinancial/exchange.sol\":6501:6533  IERC20(tokenIn).safeTransferFrom */\n      tag_204\n        /* \"LibertyFinancialChain/LiberttFinancial/exchange.sol\":6501:6570  IERC20(tokenIn).safeTransferFrom(msg.sender, address(this), amountIn) */\n      jump\t// in\n    tag_203:\n        /* \"LibertyFinancialChain/LiberttFinancial/exchange.sol\":6593:6863  Order({... */\n      0x40\n      dup1\n      mload\n      0x0100\n      dup2\n      add\n      dup3\n      mstore\n        /* \"LibertyFinancialChain/LiberttFinancial/exchange.sol\":6620:6630  msg.sender */\n      caller\n        /* \"LibertyFinancialChain/LiberttFinancial/exchange.sol\":6593:6863  Order({... */\n      dup1\n      dup3\n      mstore\n      sub(shl(0xa0, 0x01), 0x01)\n      dup11\n      dup2\n      and\n      0x20\n      dup5\n      add\n      swap1\n      dup2\n      mstore\n      dup11\n      dup3\n      and\n      swap5\n      dup5\n      add\n      swap5\n      dup6\n      mstore\n      0x60\n      dup5\n      add\n      dup11\n      dup2\n      mstore\n      0x80\n      dup6\n      add\n      dup12\n      dup2\n      mstore\n      0xa0\n      dup7\n      add\n      dup12\n      dup2\n      mstore\n      0xc0\n      dup8\n      add\n      dup11\n      dup2\n      mstore\n        /* \"LibertyFinancialChain/LiberttFinancial/exchange.sol\":6848:6852  true */\n      0x01\n        /* \"LibertyFinancialChain/LiberttFinancial/exchange.sol\":6593:6863  Order({... */\n      0xe0\n      dup10\n      add\n      dup2\n      dup2\n      mstore\n        /* \"LibertyFinancialChain/LiberttFinancial/exchange.sol\":6581:6587  orders */\n      0x06\n        /* \"LibertyFinancialChain/LiberttFinancial/exchange.sol\":6581:6864  orders.push(Order({... */\n      dup1\n      sload\n      dup1\n      dup5\n      add\n      dup3\n      sstore\n      0x00\n      dup3\n      swap1\n      mstore\n      swap11\n      mload\n      0x08\n      swap1\n      swap12\n      mul\n      0xf652222313e28459528d920b65115c16c04f3efc82aaedc97be59f3f377c0d3f\n      dup2\n      add\n      dup1\n      sload\n      swap13\n      dup12\n      and\n      not(sub(shl(0xa0, 0x01), 0x01))\n      swap14\n      dup15\n      and\n      or\n      swap1\n      sstore\n      swap8\n      mload\n      0xf652222313e28459528d920b65115c16c04f3efc82aaedc97be59f3f377c0d40\n      dup10\n      add\n      dup1\n      sload\n      swap2\n      dup12\n      and\n      swap2\n      dup14\n      and\n      swap2\n      swap1\n      swap2\n      or\n      swap1\n      sstore\n      swap11\n      mload\n      0xf652222313e28459528d920b65115c16c04f3efc82aaedc97be59f3f377c0d41\n      dup9\n      add\n      dup1\n      sload\n      swap2\n      swap1\n      swap10\n      and\n      swap11\n      and\n      swap10\n      swap1\n      swap10\n      or\n      swap1\n      swap7\n      sstore\n      swap3\n      mload\n      0xf652222313e28459528d920b65115c16c04f3efc82aaedc97be59f3f377c0d42\n      dup6\n      add\n      sstore\n      swap1\n      mload\n      0xf652222313e28459528d920b65115c16c04f3efc82aaedc97be59f3f377c0d43\n      dup5\n      add\n      sstore\n      mload\n      0xf652222313e28459528d920b65115c16c04f3efc82aaedc97be59f3f377c0d44\n      dup4\n      add\n      sstore\n      mload\n      0xf652222313e28459528d920b65115c16c04f3efc82aaedc97be59f3f377c0d45\n      dup3\n      add\n      sstore\n      swap3\n      mload\n      0xf652222313e28459528d920b65115c16c04f3efc82aaedc97be59f3f377c0d46\n      swap1\n      swap4\n      add\n      dup1\n      sload\n      swap4\n      iszero\n      iszero\n      not(0xff)\n      swap1\n      swap5\n      and\n      swap4\n      swap1\n      swap4\n      or\n      swap1\n      swap3\n      sstore\n        /* \"LibertyFinancialChain/LiberttFinancial/exchange.sol\":6893:6906  orders.length */\n      swap2\n      sload\n        /* \"LibertyFinancialChain/LiberttFinancial/exchange.sol\":6893:6910  orders.length - 1 */\n      tag_206\n      swap2\n        /* \"LibertyFinancialChain/LiberttFinancial/exchange.sol\":6848:6852  true */\n      swap1\n        /* \"LibertyFinancialChain/LiberttFinancial/exchange.sol\":6893:6910  orders.length - 1 */\n      tag_207\n      jump\t// in\n    tag_206:\n        /* \"LibertyFinancialChain/LiberttFinancial/exchange.sol\":6880:6969  OrderCreated(orders.length - 1, msg.sender, tokenIn, tokenOut, amountIn, rate, expiresAt) */\n      0x40\n      dup1\n      mload\n      sub(shl(0xa0, 0x01), 0x01)\n        /* \"#utility.yul\":8636:8651   */\n      dup1\n      dup13\n      and\n        /* \"#utility.yul\":8618:8652   */\n      dup3\n      mstore\n        /* \"#utility.yul\":8688:8703   */\n      dup11\n      and\n        /* \"#utility.yul\":8683:8685   */\n      0x20\n        /* \"#utility.yul\":8668:8686   */\n      dup3\n      add\n        /* \"#utility.yul\":8661:8704   */\n      mstore\n        /* \"#utility.yul\":8720:8738   */\n      swap1\n      dup2\n      add\n        /* \"#utility.yul\":8713:8747   */\n      dup9\n      swap1\n      mstore\n        /* \"#utility.yul\":8778:8780   */\n      0x60\n        /* \"#utility.yul\":8763:8781   */\n      dup2\n      add\n        /* \"#utility.yul\":8756:8790   */\n      dup8\n      swap1\n      mstore\n        /* \"#utility.yul\":8821:8824   */\n      0x80\n        /* \"#utility.yul\":8806:8825   */\n      dup2\n      add\n        /* \"#utility.yul\":8799:8834   */\n      dup6\n      swap1\n      mstore\n        /* \"LibertyFinancialChain/LiberttFinancial/exchange.sol\":6880:6969  OrderCreated(orders.length - 1, msg.sender, tokenIn, tokenOut, amountIn, rate, expiresAt) */\n      0xdb932a34c9c681f70d4d797e099a8752999c25f9c9ffa2009c5f39c8f8dee4b4\n      swap1\n        /* \"#utility.yul\":8567:8570   */\n      0xa0\n        /* \"#utility.yul\":8552:8571   */\n      add\n        /* \"LibertyFinancialChain/LiberttFinancial/exchange.sol\":6880:6969  OrderCreated(orders.length - 1, msg.sender, tokenIn, tokenOut, amountIn, rate, expiresAt) */\n      mload(0x40)\n      dup1\n      swap2\n      sub\n      swap1\n      log3\n        /* \"LibertyFinancialChain/LiberttFinancial/exchange.sol\":6135:6976  {... */\n      pop\n      pop\n        /* \"@openzeppelin/contracts/security/ReentrancyGuard.sol\":2303:2323  _nonReentrantAfter() */\n      tag_210\n        /* \"@openzeppelin/contracts/security/ReentrancyGuard.sol\":1716:1717  1 */\n      0x01\n        /* \"@openzeppelin/contracts/security/ReentrancyGuard.sol\":2809:2831  _status = _NOT_ENTERED */\n      dup1\n      sstore\n        /* \"@openzeppelin/contracts/security/ReentrancyGuard.sol\":2629:2838  function _nonReentrantAfter() private {... */\n      jump\n        /* \"@openzeppelin/contracts/security/ReentrancyGuard.sol\":2303:2323  _nonReentrantAfter() */\n    tag_210:\n        /* \"LibertyFinancialChain/LiberttFinancial/exchange.sol\":5953:6976  function createOrder(... */\n      pop\n      pop\n      pop\n      pop\n      pop\n      jump\t// out\n        /* \"LibertyFinancialChain/LiberttFinancial/exchange.sol\":4164:4411  function normalize(address token, uint256 amount) public view returns (uint256) {... */\n    tag_81:\n        /* \"LibertyFinancialChain/LiberttFinancial/exchange.sol\":4235:4242  uint256 */\n      0x00\n        /* \"LibertyFinancialChain/LiberttFinancial/exchange.sol\":4254:4268  uint8 decimals */\n      dup1\n        /* \"LibertyFinancialChain/LiberttFinancial/exchange.sol\":4271:4289  getDecimals(token) */\n      tag_212\n        /* \"LibertyFinancialChain/LiberttFinancial/exchange.sol\":4283:4288  token */\n      dup5\n        /* \"LibertyFinancialChain/LiberttFinancial/exchange.sol\":4271:4282  getDecimals */\n      tag_122\n        /* \"LibertyFinancialChain/LiberttFinancial/exchange.sol\":4271:4289  getDecimals(token) */\n      jump\t// in\n    tag_212:\n        /* \"LibertyFinancialChain/LiberttFinancial/exchange.sol\":4254:4289  uint8 decimals = getDecimals(token) */\n      swap1\n      pop\n        /* \"LibertyFinancialChain/LiberttFinancial/exchange.sol\":4319:4321  18 */\n      0x12\n        /* \"LibertyFinancialChain/LiberttFinancial/exchange.sol\":4307:4315  decimals */\n      dup2\n        /* \"LibertyFinancialChain/LiberttFinancial/exchange.sol\":4307:4321  decimals <= 18 */\n      0xff\n      and\n      gt\n      iszero\n        /* \"LibertyFinancialChain/LiberttFinancial/exchange.sol\":4299:4343  require(decimals <= 18, \"Too many decimals\") */\n      tag_213\n      jumpi\n      mload(0x40)\n      shl(0xe5, 0x461bcd)\n      dup2\n      mstore\n        /* \"#utility.yul\":9047:9049   */\n      0x20\n        /* \"LibertyFinancialChain/LiberttFinancial/exchange.sol\":4299:4343  require(decimals <= 18, \"Too many decimals\") */\n      0x04\n      dup3\n      add\n        /* \"#utility.yul\":9029:9050   */\n      mstore\n        /* \"#utility.yul\":9086:9088   */\n      0x11\n        /* \"#utility.yul\":9066:9084   */\n      0x24\n      dup3\n      add\n        /* \"#utility.yul\":9059:9089   */\n      mstore\n      shl(0x78, 0x546f6f206d616e7920646563696d616c73)\n        /* \"#utility.yul\":9105:9123   */\n      0x44\n      dup3\n      add\n        /* \"#utility.yul\":9098:9145   */\n      mstore\n        /* \"#utility.yul\":9162:9180   */\n      0x64\n      add\n        /* \"LibertyFinancialChain/LiberttFinancial/exchange.sol\":4299:4343  require(decimals <= 18, \"Too many decimals\") */\n      tag_166\n        /* \"#utility.yul\":8845:9186   */\n      jump\n        /* \"LibertyFinancialChain/LiberttFinancial/exchange.sol\":4299:4343  require(decimals <= 18, \"Too many decimals\") */\n    tag_213:\n        /* \"LibertyFinancialChain/LiberttFinancial/exchange.sol\":4377:4390  18 - decimals */\n      tag_216\n        /* \"LibertyFinancialChain/LiberttFinancial/exchange.sol\":4382:4390  decimals */\n      dup2\n        /* \"LibertyFinancialChain/LiberttFinancial/exchange.sol\":4377:4379  18 */\n      0x12\n        /* \"LibertyFinancialChain/LiberttFinancial/exchange.sol\":4377:4390  18 - decimals */\n      tag_217\n      jump\t// in\n    tag_216:\n        /* \"LibertyFinancialChain/LiberttFinancial/exchange.sol\":4370:4391  10 ** (18 - decimals) */\n      tag_218\n      swap1\n        /* \"LibertyFinancialChain/LiberttFinancial/exchange.sol\":4370:4372  10 */\n      0x0a\n        /* \"LibertyFinancialChain/LiberttFinancial/exchange.sol\":4370:4391  10 ** (18 - decimals) */\n      tag_219\n      jump\t// in\n    tag_218:\n        /* \"LibertyFinancialChain/LiberttFinancial/exchange.sol\":4360:4392  amount * (10 ** (18 - decimals)) */\n      tag_220\n      swap1\n        /* \"LibertyFinancialChain/LiberttFinancial/exchange.sol\":4360:4366  amount */\n      dup5\n        /* \"LibertyFinancialChain/LiberttFinancial/exchange.sol\":4360:4392  amount * (10 ** (18 - decimals)) */\n      tag_221\n      jump\t// in\n    tag_220:\n        /* \"LibertyFinancialChain/LiberttFinancial/exchange.sol\":4353:4392  return amount * (10 ** (18 - decimals)) */\n      swap5\n        /* \"LibertyFinancialChain/LiberttFinancial/exchange.sol\":4164:4411  function normalize(address token, uint256 amount) public view returns (uint256) {... */\n      swap4\n      pop\n      pop\n      pop\n      pop\n      jump\t// out\n        /* \"LibertyFinancialChain/LiberttFinancial/exchange.sol\":2953:3160  function setFee(uint256 newFeeBps) external onlyAdminOrSub {... */\n    tag_85:\n        /* \"LibertyFinancialChain/LiberttFinancial/exchange.sol\":3868:3907  hasRole(DEFAULT_ADMIN_ROLE, msg.sender) */\n      tag_223\n        /* \"@openzeppelin/contracts/access/AccessControl.sol\":2241:2245  0x00 */\n      0x00\n        /* \"LibertyFinancialChain/LiberttFinancial/exchange.sol\":3896:3906  msg.sender */\n      caller\n        /* \"LibertyFinancialChain/LiberttFinancial/exchange.sol\":3868:3875  hasRole */\n      tag_95\n        /* \"LibertyFinancialChain/LiberttFinancial/exchange.sol\":3868:3907  hasRole(DEFAULT_ADMIN_ROLE, msg.sender) */\n      jump\t// in\n    tag_223:\n        /* \"LibertyFinancialChain/LiberttFinancial/exchange.sol\":3868:3945  hasRole(DEFAULT_ADMIN_ROLE, msg.sender) || hasRole(SUBADMIN_ROLE, msg.sender) */\n      dup1\n      tag_225\n      jumpi\n      pop\n        /* \"LibertyFinancialChain/LiberttFinancial/exchange.sol\":3911:3945  hasRole(SUBADMIN_ROLE, msg.sender) */\n      tag_225\n      0x00\n      dup1\n      mload\n      0x20\n      data_c3f76b99666f6818ff0e702cf1728f8564932dfce2026f5d7d90bf00e9ab2863\n      dup4\n      codecopy\n      dup2\n      mload\n      swap2\n      mstore\n        /* \"LibertyFinancialChain/LiberttFinancial/exchange.sol\":3934:3944  msg.sender */\n      caller\n        /* \"LibertyFinancialChain/LiberttFinancial/exchange.sol\":3911:3918  hasRole */\n      tag_95\n        /* \"LibertyFinancialChain/LiberttFinancial/exchange.sol\":3911:3945  hasRole(SUBADMIN_ROLE, msg.sender) */\n      jump\t// in\n    tag_225:\n        /* \"LibertyFinancialChain/LiberttFinancial/exchange.sol\":3860:3968  require(hasRole(DEFAULT_ADMIN_ROLE, msg.sender) || hasRole(SUBADMIN_ROLE, msg.sender), \"Not admin/subadmin\") */\n      tag_226\n      jumpi\n      mload(0x40)\n      shl(0xe5, 0x461bcd)\n      dup2\n      mstore\n      0x04\n      add\n      tag_166\n      swap1\n      tag_228\n      jump\t// in\n    tag_226:\n        /* \"LibertyFinancialChain/LiberttFinancial/exchange.sol\":3043:3047  1000 */\n      0x03e8\n        /* \"LibertyFinancialChain/LiberttFinancial/exchange.sol\":3030:3039  newFeeBps */\n      dup2\n        /* \"LibertyFinancialChain/LiberttFinancial/exchange.sol\":3030:3047  newFeeBps <= 1000 */\n      gt\n      iszero\n        /* \"LibertyFinancialChain/LiberttFinancial/exchange.sol\":3022:3064  require(newFeeBps <= 1000, \"Fee too high\") */\n      tag_230\n      jumpi\n      mload(0x40)\n      shl(0xe5, 0x461bcd)\n      dup2\n      mstore\n        /* \"#utility.yul\":11452:11454   */\n      0x20\n        /* \"LibertyFinancialChain/LiberttFinancial/exchange.sol\":3022:3064  require(newFeeBps <= 1000, \"Fee too high\") */\n      0x04\n      dup3\n      add\n        /* \"#utility.yul\":11434:11455   */\n      mstore\n        /* \"#utility.yul\":11491:11493   */\n      0x0c\n        /* \"#utility.yul\":11471:11489   */\n      0x24\n      dup3\n      add\n        /* \"#utility.yul\":11464:11494   */\n      mstore\n      shl(0xa3, 0x08ccaca40e8dede40d0d2ced)\n        /* \"#utility.yul\":11510:11528   */\n      0x44\n      dup3\n      add\n        /* \"#utility.yul\":11503:11545   */\n      mstore\n        /* \"#utility.yul\":11562:11580   */\n      0x64\n      add\n        /* \"LibertyFinancialChain/LiberttFinancial/exchange.sol\":3022:3064  require(newFeeBps <= 1000, \"Fee too high\") */\n      tag_166\n        /* \"#utility.yul\":11250:11586   */\n      jump\n        /* \"LibertyFinancialChain/LiberttFinancial/exchange.sol\":3022:3064  require(newFeeBps <= 1000, \"Fee too high\") */\n    tag_230:\n        /* \"LibertyFinancialChain/LiberttFinancial/exchange.sol\":3099:3109  swapFeeBps */\n      sload(0x02)\n        /* \"LibertyFinancialChain/LiberttFinancial/exchange.sol\":3088:3121  FeeUpdated(swapFeeBps, newFeeBps) */\n      0x40\n      dup1\n      mload\n        /* \"#utility.yul\":11765:11790   */\n      swap2\n      dup3\n      mstore\n        /* \"#utility.yul\":11821:11823   */\n      0x20\n        /* \"#utility.yul\":11806:11824   */\n      dup3\n      add\n        /* \"#utility.yul\":11799:11833   */\n      dup4\n      swap1\n      mstore\n        /* \"LibertyFinancialChain/LiberttFinancial/exchange.sol\":3088:3121  FeeUpdated(swapFeeBps, newFeeBps) */\n      0x528d9479e9f9889a87a3c30c7f7ba537e5e59c4c85a37733b16e57c62df61302\n      swap2\n        /* \"#utility.yul\":11738:11756   */\n      add\n        /* \"LibertyFinancialChain/LiberttFinancial/exchange.sol\":3088:3121  FeeUpdated(swapFeeBps, newFeeBps) */\n      mload(0x40)\n      dup1\n      swap2\n      sub\n      swap1\n      log1\n        /* \"LibertyFinancialChain/LiberttFinancial/exchange.sol\":3131:3141  swapFeeBps */\n      0x02\n        /* \"LibertyFinancialChain/LiberttFinancial/exchange.sol\":3131:3153  swapFeeBps = newFeeBps */\n      sstore\n        /* \"LibertyFinancialChain/LiberttFinancial/exchange.sol\":2953:3160  function setFee(uint256 newFeeBps) external onlyAdminOrSub {... */\n      jump\t// out\n        /* \"LibertyFinancialChain/LiberttFinancial/exchange.sol\":3581:3818  function emergencyWithdraw(address token) external onlyAdminOrSub {... */\n    tag_88:\n        /* \"LibertyFinancialChain/LiberttFinancial/exchange.sol\":3868:3907  hasRole(DEFAULT_ADMIN_ROLE, msg.sender) */\n      tag_236\n        /* \"@openzeppelin/contracts/access/AccessControl.sol\":2241:2245  0x00 */\n      0x00\n        /* \"LibertyFinancialChain/LiberttFinancial/exchange.sol\":3896:3906  msg.sender */\n      caller\n        /* \"LibertyFinancialChain/LiberttFinancial/exchange.sol\":3868:3875  hasRole */\n      tag_95\n        /* \"LibertyFinancialChain/LiberttFinancial/exchange.sol\":3868:3907  hasRole(DEFAULT_ADMIN_ROLE, msg.sender) */\n      jump\t// in\n    tag_236:\n        /* \"LibertyFinancialChain/LiberttFinancial/exchange.sol\":3868:3945  hasRole(DEFAULT_ADMIN_ROLE, msg.sender) || hasRole(SUBADMIN_ROLE, msg.sender) */\n      dup1\n      tag_238\n      jumpi\n      pop\n        /* \"LibertyFinancialChain/LiberttFinancial/exchange.sol\":3911:3945  hasRole(SUBADMIN_ROLE, msg.sender) */\n      tag_238\n      0x00\n      dup1\n      mload\n      0x20\n      data_c3f76b99666f6818ff0e702cf1728f8564932dfce2026f5d7d90bf00e9ab2863\n      dup4\n      codecopy\n      dup2\n      mload\n      swap2\n      mstore\n        /* \"LibertyFinancialChain/LiberttFinancial/exchange.sol\":3934:3944  msg.sender */\n      caller\n        /* \"LibertyFinancialChain/LiberttFinancial/exchange.sol\":3911:3918  hasRole */\n      tag_95\n        /* \"LibertyFinancialChain/LiberttFinancial/exchange.sol\":3911:3945  hasRole(SUBADMIN_ROLE, msg.sender) */\n      jump\t// in\n    tag_238:\n        /* \"LibertyFinancialChain/LiberttFinancial/exchange.sol\":3860:3968  require(hasRole(DEFAULT_ADMIN_ROLE, msg.sender) || hasRole(SUBADMIN_ROLE, msg.sender), \"Not admin/subadmin\") */\n      tag_239\n      jumpi\n      mload(0x40)\n      shl(0xe5, 0x461bcd)\n      dup2\n      mstore\n      0x04\n      add\n      tag_166\n      swap1\n      tag_228\n      jump\t// in\n    tag_239:\n        /* \"LibertyFinancialChain/LiberttFinancial/exchange.sol\":3671:3709  IERC20(token).balanceOf(address(this)) */\n      mload(0x40)\n      shl(0xe0, 0x70a08231)\n      dup2\n      mstore\n        /* \"LibertyFinancialChain/LiberttFinancial/exchange.sol\":3703:3707  this */\n      address\n        /* \"LibertyFinancialChain/LiberttFinancial/exchange.sol\":3671:3709  IERC20(token).balanceOf(address(this)) */\n      0x04\n      dup3\n      add\n        /* \"#utility.yul\":1894:1945   */\n      mstore\n        /* \"LibertyFinancialChain/LiberttFinancial/exchange.sol\":3657:3668  uint256 bal */\n      0x00\n      swap1\n      sub(shl(0xa0, 0x01), 0x01)\n        /* \"LibertyFinancialChain/LiberttFinancial/exchange.sol\":3671:3694  IERC20(token).balanceOf */\n      dup4\n      and\n      swap1\n      0x70a08231\n      swap1\n        /* \"#utility.yul\":1867:1885   */\n      0x24\n      add\n        /* \"LibertyFinancialChain/LiberttFinancial/exchange.sol\":3671:3709  IERC20(token).balanceOf(address(this)) */\n      0x20\n      mload(0x40)\n      dup1\n      dup4\n      sub\n      dup2\n      dup7\n      gas\n      staticcall\n      iszero\n      dup1\n      iszero\n      tag_244\n      jumpi\n      returndatasize\n      0x00\n      dup1\n      returndatacopy\n      revert(0x00, returndatasize)\n    tag_244:\n      pop\n      pop\n      pop\n      pop\n      mload(0x40)\n      returndatasize\n      not(0x1f)\n      0x1f\n      dup3\n      add\n      and\n      dup3\n      add\n      dup1\n      0x40\n      mstore\n      pop\n      dup2\n      add\n      swap1\n      tag_245\n      swap2\n      swap1\n      tag_246\n      jump\t// in\n    tag_245:\n        /* \"LibertyFinancialChain/LiberttFinancial/exchange.sol\":3657:3709  uint256 bal = IERC20(token).balanceOf(address(this)) */\n      swap1\n      pop\n        /* \"LibertyFinancialChain/LiberttFinancial/exchange.sol\":3733:3734  0 */\n      0x00\n        /* \"LibertyFinancialChain/LiberttFinancial/exchange.sol\":3727:3730  bal */\n      dup2\n        /* \"LibertyFinancialChain/LiberttFinancial/exchange.sol\":3727:3734  bal > 0 */\n      gt\n        /* \"LibertyFinancialChain/LiberttFinancial/exchange.sol\":3719:3758  require(bal > 0, \"Nothing to withdraw\") */\n      tag_247\n      jumpi\n      mload(0x40)\n      shl(0xe5, 0x461bcd)\n      dup2\n      mstore\n        /* \"#utility.yul\":12235:12237   */\n      0x20\n        /* \"LibertyFinancialChain/LiberttFinancial/exchange.sol\":3719:3758  require(bal > 0, \"Nothing to withdraw\") */\n      0x04\n      dup3\n      add\n        /* \"#utility.yul\":12217:12238   */\n      mstore\n        /* \"#utility.yul\":12274:12276   */\n      0x13\n        /* \"#utility.yul\":12254:12272   */\n      0x24\n      dup3\n      add\n        /* \"#utility.yul\":12247:12277   */\n      mstore\n      shl(0x68, 0x4e6f7468696e6720746f207769746864726177)\n        /* \"#utility.yul\":12293:12311   */\n      0x44\n      dup3\n      add\n        /* \"#utility.yul\":12286:12335   */\n      mstore\n        /* \"#utility.yul\":12352:12370   */\n      0x64\n      add\n        /* \"LibertyFinancialChain/LiberttFinancial/exchange.sol\":3719:3758  require(bal > 0, \"Nothing to withdraw\") */\n      tag_166\n        /* \"#utility.yul\":12033:12376   */\n      jump\n        /* \"LibertyFinancialChain/LiberttFinancial/exchange.sol\":3719:3758  require(bal > 0, \"Nothing to withdraw\") */\n    tag_247:\n        /* \"LibertyFinancialChain/LiberttFinancial/exchange.sol\":3768:3811  IERC20(token).safeTransfer(msg.sender, bal) */\n      tag_160\n      sub(shl(0xa0, 0x01), 0x01)\n        /* \"LibertyFinancialChain/LiberttFinancial/exchange.sol\":3768:3794  IERC20(token).safeTransfer */\n      dup4\n      and\n        /* \"LibertyFinancialChain/LiberttFinancial/exchange.sol\":3795:3805  msg.sender */\n      caller\n        /* \"LibertyFinancialChain/LiberttFinancial/exchange.sol\":3807:3810  bal */\n      dup4\n        /* \"LibertyFinancialChain/LiberttFinancial/exchange.sol\":3768:3794  IERC20(token).safeTransfer */\n      tag_180\n        /* \"LibertyFinancialChain/LiberttFinancial/exchange.sol\":3768:3811  IERC20(token).safeTransfer(msg.sender, bal) */\n      jump\t// in\n        /* \"LibertyFinancialChain/LiberttFinancial/exchange.sol\":2373:2550  function setAllowedToken(address token, bool allowed) external onlyAdminOrSub {... */\n    tag_92:\n        /* \"LibertyFinancialChain/LiberttFinancial/exchange.sol\":3868:3907  hasRole(DEFAULT_ADMIN_ROLE, msg.sender) */\n      tag_252\n        /* \"@openzeppelin/contracts/access/AccessControl.sol\":2241:2245  0x00 */\n      0x00\n        /* \"LibertyFinancialChain/LiberttFinancial/exchange.sol\":3896:3906  msg.sender */\n      caller\n        /* \"LibertyFinancialChain/LiberttFinancial/exchange.sol\":3868:3875  hasRole */\n      tag_95\n        /* \"LibertyFinancialChain/LiberttFinancial/exchange.sol\":3868:3907  hasRole(DEFAULT_ADMIN_ROLE, msg.sender) */\n      jump\t// in\n    tag_252:\n        /* \"LibertyFinancialChain/LiberttFinancial/exchange.sol\":3868:3945  hasRole(DEFAULT_ADMIN_ROLE, msg.sender) || hasRole(SUBADMIN_ROLE, msg.sender) */\n      dup1\n      tag_254\n      jumpi\n      pop\n        /* \"LibertyFinancialChain/LiberttFinancial/exchange.sol\":3911:3945  hasRole(SUBADMIN_ROLE, msg.sender) */\n      tag_254\n      0x00\n      dup1\n      mload\n      0x20\n      data_c3f76b99666f6818ff0e702cf1728f8564932dfce2026f5d7d90bf00e9ab2863\n      dup4\n      codecopy\n      dup2\n      mload\n      swap2\n      mstore\n        /* \"LibertyFinancialChain/LiberttFinancial/exchange.sol\":3934:3944  msg.sender */\n      caller\n        /* \"LibertyFinancialChain/LiberttFinancial/exchange.sol\":3911:3918  hasRole */\n      tag_95\n        /* \"LibertyFinancialChain/LiberttFinancial/exchange.sol\":3911:3945  hasRole(SUBADMIN_ROLE, msg.sender) */\n      jump\t// in\n    tag_254:\n        /* \"LibertyFinancialChain/LiberttFinancial/exchange.sol\":3860:3968  require(hasRole(DEFAULT_ADMIN_ROLE, msg.sender) || hasRole(SUBADMIN_ROLE, msg.sender), \"Not admin/subadmin\") */\n      tag_255\n      jumpi\n      mload(0x40)\n      shl(0xe5, 0x461bcd)\n      dup2\n      mstore\n      0x04\n      add\n      tag_166\n      swap1\n      tag_228\n      jump\t// in\n    tag_255:\n      sub(shl(0xa0, 0x01), 0x01)\n        /* \"LibertyFinancialChain/LiberttFinancial/exchange.sol\":2461:2481  allowedTokens[token] */\n      dup3\n      and\n      0x00\n      dup2\n      dup2\n      mstore\n        /* \"LibertyFinancialChain/LiberttFinancial/exchange.sol\":2461:2474  allowedTokens */\n      0x04\n        /* \"LibertyFinancialChain/LiberttFinancial/exchange.sol\":2461:2481  allowedTokens[token] */\n      0x20\n      swap1\n      dup2\n      mstore\n      0x40\n      swap2\n      dup3\n      swap1\n      keccak256\n        /* \"LibertyFinancialChain/LiberttFinancial/exchange.sol\":2461:2491  allowedTokens[token] = allowed */\n      dup1\n      sload\n      not(0xff)\n      and\n      dup6\n      iszero\n      iszero\n      swap1\n      dup2\n      or\n      swap1\n      swap2\n      sstore\n        /* \"LibertyFinancialChain/LiberttFinancial/exchange.sol\":2506:2543  TokenWhitelistUpdated(token, allowed) */\n      swap2\n      mload\n        /* \"#utility.yul\":445:486   */\n      swap2\n      dup3\n      mstore\n        /* \"LibertyFinancialChain/LiberttFinancial/exchange.sol\":2506:2543  TokenWhitelistUpdated(token, allowed) */\n      0x67821d5384bb02aab1ba91a477f89c9966cd30f475b02618bdc58712bca51275\n      swap2\n        /* \"#utility.yul\":418:436   */\n      add\n        /* \"LibertyFinancialChain/LiberttFinancial/exchange.sol\":2506:2543  TokenWhitelistUpdated(token, allowed) */\n      mload(0x40)\n      dup1\n      swap2\n      sub\n      swap1\n      log2\n        /* \"LibertyFinancialChain/LiberttFinancial/exchange.sol\":2373:2550  function setAllowedToken(address token, bool allowed) external onlyAdminOrSub {... */\n      pop\n      pop\n      jump\t// out\n        /* \"@openzeppelin/contracts/access/AccessControl.sol\":2830:2966  function hasRole(bytes32 role, address account) public view virtual returns (bool) {... */\n    tag_95:\n        /* \"@openzeppelin/contracts/access/AccessControl.sol\":2907:2911  bool */\n      0x00\n        /* \"@openzeppelin/contracts/access/AccessControl.sol\":2930:2942  _roles[role] */\n      swap2\n      dup3\n      mstore\n      0x20\n      dup3\n      dup2\n      mstore\n      0x40\n      dup1\n      dup5\n      keccak256\n      sub(shl(0xa0, 0x01), 0x01)\n        /* \"@openzeppelin/contracts/access/AccessControl.sol\":2930:2959  _roles[role].hasRole[account] */\n      swap4\n      swap1\n      swap4\n      and\n      dup5\n      mstore\n      swap2\n      swap1\n      mstore\n      swap1\n      keccak256\n      sload\n      0xff\n      and\n      swap1\n        /* \"@openzeppelin/contracts/access/AccessControl.sol\":2830:2966  function hasRole(bytes32 role, address account) public view virtual returns (bool) {... */\n      jump\t// out\n        /* \"LibertyFinancialChain/LiberttFinancial/exchange.sol\":4800:5827  function swapGlobal(address tokenIn, address tokenOut, uint256 amountIn, uint256 minAmountOut) external nonReentrant {... */\n    tag_100:\n        /* \"@openzeppelin/contracts/security/ReentrancyGuard.sol\":2261:2282  _nonReentrantBefore() */\n      tag_261\n        /* \"@openzeppelin/contracts/security/ReentrancyGuard.sol\":2261:2280  _nonReentrantBefore */\n      tag_163\n        /* \"@openzeppelin/contracts/security/ReentrancyGuard.sol\":2261:2282  _nonReentrantBefore() */\n      jump\t// in\n    tag_261:\n        /* \"LibertyFinancialChain/LiberttFinancial/exchange.sol\":4946:4954  tokenOut */\n      dup3\n      sub(shl(0xa0, 0x01), 0x01)\n        /* \"LibertyFinancialChain/LiberttFinancial/exchange.sol\":4935:4954  tokenIn != tokenOut */\n      and\n        /* \"LibertyFinancialChain/LiberttFinancial/exchange.sol\":4935:4942  tokenIn */\n      dup5\n      sub(shl(0xa0, 0x01), 0x01)\n        /* \"LibertyFinancialChain/LiberttFinancial/exchange.sol\":4935:4954  tokenIn != tokenOut */\n      and\n      sub\n        /* \"LibertyFinancialChain/LiberttFinancial/exchange.sol\":4927:4975  require(tokenIn != tokenOut, \"Identical tokens\") */\n      tag_263\n      jumpi\n      mload(0x40)\n      shl(0xe5, 0x461bcd)\n      dup2\n      mstore\n      0x04\n      add\n      tag_166\n      swap1\n      tag_189\n      jump\t// in\n    tag_263:\n      sub(shl(0xa0, 0x01), 0x01)\n        /* \"LibertyFinancialChain/LiberttFinancial/exchange.sol\":4993:5015  allowedTokens[tokenIn] */\n      dup5\n      and\n      0x00\n      swap1\n      dup2\n      mstore\n        /* \"LibertyFinancialChain/LiberttFinancial/exchange.sol\":4993:5006  allowedTokens */\n      0x04\n        /* \"LibertyFinancialChain/LiberttFinancial/exchange.sol\":4993:5015  allowedTokens[tokenIn] */\n      0x20\n      mstore\n      0x40\n      swap1\n      keccak256\n      sload\n      0xff\n      and\n        /* \"LibertyFinancialChain/LiberttFinancial/exchange.sol\":4993:5042  allowedTokens[tokenIn] && allowedTokens[tokenOut] */\n      dup1\n      iszero\n      tag_265\n      jumpi\n      pop\n      sub(shl(0xa0, 0x01), 0x01)\n        /* \"LibertyFinancialChain/LiberttFinancial/exchange.sol\":5019:5042  allowedTokens[tokenOut] */\n      dup4\n      and\n      0x00\n      swap1\n      dup2\n      mstore\n        /* \"LibertyFinancialChain/LiberttFinancial/exchange.sol\":5019:5032  allowedTokens */\n      0x04\n        /* \"LibertyFinancialChain/LiberttFinancial/exchange.sol\":5019:5042  allowedTokens[tokenOut] */\n      0x20\n      mstore\n      0x40\n      swap1\n      keccak256\n      sload\n      0xff\n      and\n        /* \"LibertyFinancialChain/LiberttFinancial/exchange.sol\":4993:5042  allowedTokens[tokenIn] && allowedTokens[tokenOut] */\n    tag_265:\n        /* \"LibertyFinancialChain/LiberttFinancial/exchange.sol\":4985:5065  require(allowedTokens[tokenIn] && allowedTokens[tokenOut], \"Tokens not allowed\") */\n      tag_266\n      jumpi\n      mload(0x40)\n      shl(0xe5, 0x461bcd)\n      dup2\n      mstore\n      0x04\n      add\n      tag_166\n      swap1\n      tag_193\n      jump\t// in\n    tag_266:\n      sub(shl(0xa0, 0x01), 0x01)\n        /* \"LibertyFinancialChain/LiberttFinancial/exchange.sol\":5090:5110  globalRates[tokenIn] */\n      dup1\n      dup6\n      and\n        /* \"LibertyFinancialChain/LiberttFinancial/exchange.sol\":5075:5087  uint256 rate */\n      0x00\n        /* \"LibertyFinancialChain/LiberttFinancial/exchange.sol\":5090:5110  globalRates[tokenIn] */\n      swap1\n      dup2\n      mstore\n        /* \"LibertyFinancialChain/LiberttFinancial/exchange.sol\":5090:5101  globalRates */\n      0x05\n        /* \"LibertyFinancialChain/LiberttFinancial/exchange.sol\":5090:5110  globalRates[tokenIn] */\n      0x20\n      swap1\n      dup2\n      mstore\n      0x40\n      dup1\n      dup4\n      keccak256\n        /* \"LibertyFinancialChain/LiberttFinancial/exchange.sol\":5090:5120  globalRates[tokenIn][tokenOut] */\n      swap4\n      dup8\n      and\n      dup4\n      mstore\n      swap3\n      swap1\n      mstore\n      keccak256\n      sload\n        /* \"LibertyFinancialChain/LiberttFinancial/exchange.sol\":5138:5146  rate > 0 */\n      dup1\n        /* \"LibertyFinancialChain/LiberttFinancial/exchange.sol\":5130:5165  require(rate > 0, \"No global rate\") */\n      tag_268\n      jumpi\n      mload(0x40)\n      shl(0xe5, 0x461bcd)\n      dup2\n      mstore\n        /* \"#utility.yul\":12583:12585   */\n      0x20\n        /* \"LibertyFinancialChain/LiberttFinancial/exchange.sol\":5130:5165  require(rate > 0, \"No global rate\") */\n      0x04\n      dup3\n      add\n        /* \"#utility.yul\":12565:12586   */\n      mstore\n        /* \"#utility.yul\":12622:12624   */\n      0x0e\n        /* \"#utility.yul\":12602:12620   */\n      0x24\n      dup3\n      add\n        /* \"#utility.yul\":12595:12625   */\n      mstore\n      shl(0x90, 0x4e6f20676c6f62616c2072617465)\n        /* \"#utility.yul\":12641:12659   */\n      0x44\n      dup3\n      add\n        /* \"#utility.yul\":12634:12678   */\n      mstore\n        /* \"#utility.yul\":12695:12713   */\n      0x64\n      add\n        /* \"LibertyFinancialChain/LiberttFinancial/exchange.sol\":5130:5165  require(rate > 0, \"No global rate\") */\n      tag_166\n        /* \"#utility.yul\":12381:12719   */\n      jump\n        /* \"LibertyFinancialChain/LiberttFinancial/exchange.sol\":5130:5165  require(rate > 0, \"No global rate\") */\n    tag_268:\n        /* \"LibertyFinancialChain/LiberttFinancial/exchange.sol\":5175:5192  uint256 nAmountIn */\n      0x00\n        /* \"LibertyFinancialChain/LiberttFinancial/exchange.sol\":5195:5223  normalize(tokenIn, amountIn) */\n      tag_271\n        /* \"LibertyFinancialChain/LiberttFinancial/exchange.sol\":5205:5212  tokenIn */\n      dup7\n        /* \"LibertyFinancialChain/LiberttFinancial/exchange.sol\":5214:5222  amountIn */\n      dup6\n        /* \"LibertyFinancialChain/LiberttFinancial/exchange.sol\":5195:5204  normalize */\n      tag_81\n        /* \"LibertyFinancialChain/LiberttFinancial/exchange.sol\":5195:5223  normalize(tokenIn, amountIn) */\n      jump\t// in\n    tag_271:\n        /* \"LibertyFinancialChain/LiberttFinancial/exchange.sol\":5175:5223  uint256 nAmountIn = normalize(tokenIn, amountIn) */\n      swap1\n      pop\n        /* \"LibertyFinancialChain/LiberttFinancial/exchange.sol\":5233:5251  uint256 nAmountOut */\n      0x00\n        /* \"LibertyFinancialChain/LiberttFinancial/exchange.sol\":5273:5277  1e18 */\n      0x0de0b6b3a7640000\n        /* \"LibertyFinancialChain/LiberttFinancial/exchange.sol\":5254:5270  nAmountIn * rate */\n      tag_272\n        /* \"LibertyFinancialChain/LiberttFinancial/exchange.sol\":5266:5270  rate */\n      dup5\n        /* \"LibertyFinancialChain/LiberttFinancial/exchange.sol\":5175:5223  uint256 nAmountIn = normalize(tokenIn, amountIn) */\n      dup5\n        /* \"LibertyFinancialChain/LiberttFinancial/exchange.sol\":5254:5270  nAmountIn * rate */\n      tag_221\n      jump\t// in\n    tag_272:\n        /* \"LibertyFinancialChain/LiberttFinancial/exchange.sol\":5254:5277  nAmountIn * rate / 1e18 */\n      tag_273\n      swap2\n      swap1\n      tag_274\n      jump\t// in\n    tag_273:\n        /* \"LibertyFinancialChain/LiberttFinancial/exchange.sol\":5233:5277  uint256 nAmountOut = nAmountIn * rate / 1e18 */\n      swap1\n      pop\n        /* \"LibertyFinancialChain/LiberttFinancial/exchange.sol\":5287:5304  uint256 amountOut */\n      0x00\n        /* \"LibertyFinancialChain/LiberttFinancial/exchange.sol\":5307:5340  denormalize(tokenOut, nAmountOut) */\n      tag_275\n        /* \"LibertyFinancialChain/LiberttFinancial/exchange.sol\":5319:5327  tokenOut */\n      dup8\n        /* \"LibertyFinancialChain/LiberttFinancial/exchange.sol\":5329:5339  nAmountOut */\n      dup4\n        /* \"LibertyFinancialChain/LiberttFinancial/exchange.sol\":5307:5318  denormalize */\n      tag_111\n        /* \"LibertyFinancialChain/LiberttFinancial/exchange.sol\":5307:5340  denormalize(tokenOut, nAmountOut) */\n      jump\t// in\n    tag_275:\n        /* \"LibertyFinancialChain/LiberttFinancial/exchange.sol\":5287:5340  uint256 amountOut = denormalize(tokenOut, nAmountOut) */\n      swap1\n      pop\n        /* \"LibertyFinancialChain/LiberttFinancial/exchange.sol\":5351:5362  uint256 fee */\n      0x00\n        /* \"LibertyFinancialChain/LiberttFinancial/exchange.sol\":5390:5395  10000 */\n      0x2710\n        /* \"LibertyFinancialChain/LiberttFinancial/exchange.sol\":5377:5387  swapFeeBps */\n      sload(0x02)\n        /* \"LibertyFinancialChain/LiberttFinancial/exchange.sol\":5365:5374  amountOut */\n      dup4\n        /* \"LibertyFinancialChain/LiberttFinancial/exchange.sol\":5365:5387  amountOut * swapFeeBps */\n      tag_276\n      swap2\n      swap1\n      tag_221\n      jump\t// in\n    tag_276:\n        /* \"LibertyFinancialChain/LiberttFinancial/exchange.sol\":5365:5395  amountOut * swapFeeBps / 10000 */\n      tag_277\n      swap2\n      swap1\n      tag_274\n      jump\t// in\n    tag_277:\n        /* \"LibertyFinancialChain/LiberttFinancial/exchange.sol\":5351:5395  uint256 fee = amountOut * swapFeeBps / 10000 */\n      swap1\n      pop\n        /* \"LibertyFinancialChain/LiberttFinancial/exchange.sol\":5405:5425  uint256 receiverGets */\n      0x00\n        /* \"LibertyFinancialChain/LiberttFinancial/exchange.sol\":5428:5443  amountOut - fee */\n      tag_278\n        /* \"LibertyFinancialChain/LiberttFinancial/exchange.sol\":5351:5395  uint256 fee = amountOut * swapFeeBps / 10000 */\n      dup3\n        /* \"LibertyFinancialChain/LiberttFinancial/exchange.sol\":5428:5437  amountOut */\n      dup5\n        /* \"LibertyFinancialChain/LiberttFinancial/exchange.sol\":5428:5443  amountOut - fee */\n      tag_207\n      jump\t// in\n    tag_278:\n        /* \"LibertyFinancialChain/LiberttFinancial/exchange.sol\":5405:5443  uint256 receiverGets = amountOut - fee */\n      swap1\n      pop\n        /* \"LibertyFinancialChain/LiberttFinancial/exchange.sol\":5477:5489  minAmountOut */\n      dup7\n        /* \"LibertyFinancialChain/LiberttFinancial/exchange.sol\":5461:5473  receiverGets */\n      dup2\n        /* \"LibertyFinancialChain/LiberttFinancial/exchange.sol\":5461:5489  receiverGets >= minAmountOut */\n      lt\n      iszero\n        /* \"LibertyFinancialChain/LiberttFinancial/exchange.sol\":5453:5518  require(receiverGets >= minAmountOut, \"Slippage: output too low\") */\n      tag_279\n      jumpi\n      mload(0x40)\n      shl(0xe5, 0x461bcd)\n      dup2\n      mstore\n        /* \"#utility.yul\":13148:13150   */\n      0x20\n        /* \"LibertyFinancialChain/LiberttFinancial/exchange.sol\":5453:5518  require(receiverGets >= minAmountOut, \"Slippage: output too low\") */\n      0x04\n      dup3\n      add\n        /* \"#utility.yul\":13130:13151   */\n      mstore\n        /* \"#utility.yul\":13187:13189   */\n      0x18\n        /* \"#utility.yul\":13167:13185   */\n      0x24\n      dup3\n      add\n        /* \"#utility.yul\":13160:13190   */\n      mstore\n      shl(0x40, 0x536c6970706167653a206f757470757420746f6f206c6f77)\n        /* \"#utility.yul\":13206:13224   */\n      0x44\n      dup3\n      add\n        /* \"#utility.yul\":13199:13253   */\n      mstore\n        /* \"#utility.yul\":13270:13288   */\n      0x64\n      add\n        /* \"LibertyFinancialChain/LiberttFinancial/exchange.sol\":5453:5518  require(receiverGets >= minAmountOut, \"Slippage: output too low\") */\n      tag_166\n        /* \"#utility.yul\":12946:13294   */\n      jump\n        /* \"LibertyFinancialChain/LiberttFinancial/exchange.sol\":5453:5518  require(receiverGets >= minAmountOut, \"Slippage: output too low\") */\n    tag_279:\n        /* \"LibertyFinancialChain/LiberttFinancial/exchange.sol\":5529:5598  IERC20(tokenIn).safeTransferFrom(msg.sender, address(this), amountIn) */\n      tag_282\n      sub(shl(0xa0, 0x01), 0x01)\n        /* \"LibertyFinancialChain/LiberttFinancial/exchange.sol\":5529:5561  IERC20(tokenIn).safeTransferFrom */\n      dup12\n      and\n        /* \"LibertyFinancialChain/LiberttFinancial/exchange.sol\":5562:5572  msg.sender */\n      caller\n        /* \"LibertyFinancialChain/LiberttFinancial/exchange.sol\":5582:5586  this */\n      address\n        /* \"LibertyFinancialChain/LiberttFinancial/exchange.sol\":5589:5597  amountIn */\n      dup12\n        /* \"LibertyFinancialChain/LiberttFinancial/exchange.sol\":5529:5561  IERC20(tokenIn).safeTransferFrom */\n      tag_204\n        /* \"LibertyFinancialChain/LiberttFinancial/exchange.sol\":5529:5598  IERC20(tokenIn).safeTransferFrom(msg.sender, address(this), amountIn) */\n      jump\t// in\n    tag_282:\n        /* \"LibertyFinancialChain/LiberttFinancial/exchange.sol\":5608:5663  IERC20(tokenOut).safeTransfer(msg.sender, receiverGets) */\n      tag_283\n      sub(shl(0xa0, 0x01), 0x01)\n        /* \"LibertyFinancialChain/LiberttFinancial/exchange.sol\":5608:5637  IERC20(tokenOut).safeTransfer */\n      dup11\n      and\n        /* \"LibertyFinancialChain/LiberttFinancial/exchange.sol\":5638:5648  msg.sender */\n      caller\n        /* \"LibertyFinancialChain/LiberttFinancial/exchange.sol\":5650:5662  receiverGets */\n      dup4\n        /* \"LibertyFinancialChain/LiberttFinancial/exchange.sol\":5608:5637  IERC20(tokenOut).safeTransfer */\n      tag_180\n        /* \"LibertyFinancialChain/LiberttFinancial/exchange.sol\":5608:5663  IERC20(tokenOut).safeTransfer(msg.sender, receiverGets) */\n      jump\t// in\n    tag_283:\n        /* \"LibertyFinancialChain/LiberttFinancial/exchange.sol\":5677:5684  fee > 0 */\n      dup2\n      iszero\n        /* \"LibertyFinancialChain/LiberttFinancial/exchange.sol\":5673:5734  if (fee > 0) IERC20(tokenOut).safeTransfer(feeRecipient, fee) */\n      tag_285\n      jumpi\n        /* \"LibertyFinancialChain/LiberttFinancial/exchange.sol\":5716:5728  feeRecipient */\n      sload(0x03)\n        /* \"LibertyFinancialChain/LiberttFinancial/exchange.sol\":5686:5734  IERC20(tokenOut).safeTransfer(feeRecipient, fee) */\n      tag_285\n      swap1\n      sub(shl(0xa0, 0x01), 0x01)\n        /* \"LibertyFinancialChain/LiberttFinancial/exchange.sol\":5686:5715  IERC20(tokenOut).safeTransfer */\n      dup12\n      dup2\n      and\n      swap2\n        /* \"LibertyFinancialChain/LiberttFinancial/exchange.sol\":5716:5728  feeRecipient */\n      and\n        /* \"LibertyFinancialChain/LiberttFinancial/exchange.sol\":5730:5733  fee */\n      dup5\n        /* \"LibertyFinancialChain/LiberttFinancial/exchange.sol\":5686:5715  IERC20(tokenOut).safeTransfer */\n      tag_180\n        /* \"LibertyFinancialChain/LiberttFinancial/exchange.sol\":5686:5734  IERC20(tokenOut).safeTransfer(feeRecipient, fee) */\n      jump\t// in\n    tag_285:\n        /* \"LibertyFinancialChain/LiberttFinancial/exchange.sol\":5750:5820  SwapGlobal(msg.sender, tokenIn, tokenOut, amountIn, receiverGets, fee) */\n      0x40\n      dup1\n      mload\n        /* \"#utility.yul\":13501:13526   */\n      dup10\n      dup2\n      mstore\n        /* \"#utility.yul\":13557:13559   */\n      0x20\n        /* \"#utility.yul\":13542:13560   */\n      dup2\n      add\n        /* \"#utility.yul\":13535:13569   */\n      dup4\n      swap1\n      mstore\n        /* \"#utility.yul\":13585:13603   */\n      swap1\n      dup2\n      add\n        /* \"#utility.yul\":13578:13612   */\n      dup4\n      swap1\n      mstore\n      sub(shl(0xa0, 0x01), 0x01)\n        /* \"LibertyFinancialChain/LiberttFinancial/exchange.sol\":5750:5820  SwapGlobal(msg.sender, tokenIn, tokenOut, amountIn, receiverGets, fee) */\n      dup1\n      dup12\n      and\n      swap2\n      swap1\n      dup13\n      and\n      swap1\n        /* \"LibertyFinancialChain/LiberttFinancial/exchange.sol\":5761:5771  msg.sender */\n      caller\n      swap1\n        /* \"LibertyFinancialChain/LiberttFinancial/exchange.sol\":5750:5820  SwapGlobal(msg.sender, tokenIn, tokenOut, amountIn, receiverGets, fee) */\n      0xec5098f8c6ad93ee0051f440ec18dcdf5d28b504e6bc4613c0d3adf4695c00c3\n      swap1\n        /* \"#utility.yul\":13489:13491   */\n      0x60\n        /* \"#utility.yul\":13474:13492   */\n      add\n        /* \"LibertyFinancialChain/LiberttFinancial/exchange.sol\":5750:5820  SwapGlobal(msg.sender, tokenIn, tokenOut, amountIn, receiverGets, fee) */\n      mload(0x40)\n      dup1\n      swap2\n      sub\n      swap1\n      log4\n        /* \"LibertyFinancialChain/LiberttFinancial/exchange.sol\":4917:5827  {... */\n      pop\n      pop\n      pop\n      pop\n      pop\n      pop\n        /* \"@openzeppelin/contracts/security/ReentrancyGuard.sol\":2303:2323  _nonReentrantAfter() */\n      tag_149\n        /* \"@openzeppelin/contracts/security/ReentrancyGuard.sol\":1716:1717  1 */\n      0x01\n        /* \"@openzeppelin/contracts/security/ReentrancyGuard.sol\":2809:2831  _status = _NOT_ENTERED */\n      dup1\n      sstore\n        /* \"@openzeppelin/contracts/security/ReentrancyGuard.sol\":2629:2838  function _nonReentrantAfter() private {... */\n      jump\n        /* \"LibertyFinancialChain/LiberttFinancial/exchange.sol\":1254:1275  Order[] public orders */\n    tag_106:\n      0x06\n      dup2\n      dup2\n      sload\n      dup2\n      lt\n      tag_289\n      jumpi\n      0x00\n      dup1\n      revert\n    tag_289:\n      0x00\n      swap2\n      dup3\n      mstore\n      0x20\n      swap1\n      swap2\n      keccak256\n      0x08\n      swap1\n      swap2\n      mul\n      add\n      dup1\n      sload\n      0x01\n      dup3\n      add\n      sload\n      0x02\n      dup4\n      add\n      sload\n      0x03\n      dup5\n      add\n      sload\n      0x04\n      dup6\n      add\n      sload\n      0x05\n      dup7\n      add\n      sload\n      0x06\n      dup8\n      add\n      sload\n      0x07\n      swap1\n      swap8\n      add\n      sload\n      sub(shl(0xa0, 0x01), 0x01)\n      swap7\n      dup8\n      and\n      swap9\n      pop\n      swap5\n      dup7\n      and\n      swap7\n      swap4\n      swap1\n      swap6\n      and\n      swap5\n      swap2\n      swap4\n      swap1\n      swap3\n      swap1\n      0xff\n      and\n      dup9\n      jump\t// out\n        /* \"LibertyFinancialChain/LiberttFinancial/exchange.sol\":4417:4682  function denormalize(address token, uint256 nAmount) public view returns (uint256) {... */\n    tag_111:\n        /* \"LibertyFinancialChain/LiberttFinancial/exchange.sol\":4491:4498  uint256 */\n      0x00\n        /* \"LibertyFinancialChain/LiberttFinancial/exchange.sol\":4510:4524  uint8 decimals */\n      dup1\n        /* \"LibertyFinancialChain/LiberttFinancial/exchange.sol\":4527:4545  getDecimals(token) */\n      tag_292\n        /* \"LibertyFinancialChain/LiberttFinancial/exchange.sol\":4539:4544  token */\n      dup5\n        /* \"LibertyFinancialChain/LiberttFinancial/exchange.sol\":4527:4538  getDecimals */\n      tag_122\n        /* \"LibertyFinancialChain/LiberttFinancial/exchange.sol\":4527:4545  getDecimals(token) */\n      jump\t// in\n    tag_292:\n        /* \"LibertyFinancialChain/LiberttFinancial/exchange.sol\":4510:4545  uint8 decimals = getDecimals(token) */\n      swap1\n      pop\n        /* \"LibertyFinancialChain/LiberttFinancial/exchange.sol\":4575:4577  18 */\n      0x12\n        /* \"LibertyFinancialChain/LiberttFinancial/exchange.sol\":4563:4571  decimals */\n      dup2\n        /* \"LibertyFinancialChain/LiberttFinancial/exchange.sol\":4563:4577  decimals <= 18 */\n      0xff\n      and\n      gt\n      iszero\n        /* \"LibertyFinancialChain/LiberttFinancial/exchange.sol\":4555:4599  require(decimals <= 18, \"Too many decimals\") */\n      tag_293\n      jumpi\n      mload(0x40)\n      shl(0xe5, 0x461bcd)\n      dup2\n      mstore\n        /* \"#utility.yul\":9047:9049   */\n      0x20\n        /* \"LibertyFinancialChain/LiberttFinancial/exchange.sol\":4555:4599  require(decimals <= 18, \"Too many decimals\") */\n      0x04\n      dup3\n      add\n        /* \"#utility.yul\":9029:9050   */\n      mstore\n        /* \"#utility.yul\":9086:9088   */\n      0x11\n        /* \"#utility.yul\":9066:9084   */\n      0x24\n      dup3\n      add\n        /* \"#utility.yul\":9059:9089   */\n      mstore\n      shl(0x78, 0x546f6f206d616e7920646563696d616c73)\n        /* \"#utility.yul\":9105:9123   */\n      0x44\n      dup3\n      add\n        /* \"#utility.yul\":9098:9145   */\n      mstore\n        /* \"#utility.yul\":9162:9180   */\n      0x64\n      add\n        /* \"LibertyFinancialChain/LiberttFinancial/exchange.sol\":4555:4599  require(decimals <= 18, \"Too many decimals\") */\n      tag_166\n        /* \"#utility.yul\":8845:9186   */\n      jump\n        /* \"LibertyFinancialChain/LiberttFinancial/exchange.sol\":4555:4599  require(decimals <= 18, \"Too many decimals\") */\n    tag_293:\n        /* \"LibertyFinancialChain/LiberttFinancial/exchange.sol\":4634:4647  18 - decimals */\n      tag_295\n        /* \"LibertyFinancialChain/LiberttFinancial/exchange.sol\":4639:4647  decimals */\n      dup2\n        /* \"LibertyFinancialChain/LiberttFinancial/exchange.sol\":4634:4636  18 */\n      0x12\n        /* \"LibertyFinancialChain/LiberttFinancial/exchange.sol\":4634:4647  18 - decimals */\n      tag_217\n      jump\t// in\n    tag_295:\n        /* \"LibertyFinancialChain/LiberttFinancial/exchange.sol\":4627:4648  10 ** (18 - decimals) */\n      tag_296\n      swap1\n        /* \"LibertyFinancialChain/LiberttFinancial/exchange.sol\":4627:4629  10 */\n      0x0a\n        /* \"LibertyFinancialChain/LiberttFinancial/exchange.sol\":4627:4648  10 ** (18 - decimals) */\n      tag_219\n      jump\t// in\n    tag_296:\n        /* \"LibertyFinancialChain/LiberttFinancial/exchange.sol\":4616:4649  nAmount / (10 ** (18 - decimals)) */\n      tag_220\n      swap1\n        /* \"LibertyFinancialChain/LiberttFinancial/exchange.sol\":4616:4623  nAmount */\n      dup5\n        /* \"LibertyFinancialChain/LiberttFinancial/exchange.sol\":4616:4649  nAmount / (10 ** (18 - decimals)) */\n      tag_274\n      jump\t// in\n        /* \"LibertyFinancialChain/LiberttFinancial/exchange.sol\":7625:9180  function matchOrder(uint256 orderId, uint256 fillAmount, uint256 minAmountOut) external nonReentrant {... */\n    tag_116:\n        /* \"@openzeppelin/contracts/security/ReentrancyGuard.sol\":2261:2282  _nonReentrantBefore() */\n      tag_299\n        /* \"@openzeppelin/contracts/security/ReentrancyGuard.sol\":2261:2280  _nonReentrantBefore */\n      tag_163\n        /* \"@openzeppelin/contracts/security/ReentrancyGuard.sol\":2261:2282  _nonReentrantBefore() */\n      jump\t// in\n    tag_299:\n        /* \"LibertyFinancialChain/LiberttFinancial/exchange.sol\":7754:7760  orders */\n      0x06\n        /* \"LibertyFinancialChain/LiberttFinancial/exchange.sol\":7754:7767  orders.length */\n      sload\n        /* \"LibertyFinancialChain/LiberttFinancial/exchange.sol\":7744:7767  orderId < orders.length */\n      dup4\n      lt\n        /* \"LibertyFinancialChain/LiberttFinancial/exchange.sol\":7736:7779  require(orderId < orders.length, \"Invalid\") */\n      tag_301\n      jumpi\n      mload(0x40)\n      shl(0xe5, 0x461bcd)\n      dup2\n      mstore\n        /* \"#utility.yul\":5620:5622   */\n      0x20\n        /* \"LibertyFinancialChain/LiberttFinancial/exchange.sol\":7736:7779  require(orderId < orders.length, \"Invalid\") */\n      0x04\n      dup3\n      add\n        /* \"#utility.yul\":5602:5623   */\n      mstore\n        /* \"#utility.yul\":5659:5660   */\n      0x07\n        /* \"#utility.yul\":5639:5657   */\n      0x24\n      dup3\n      add\n        /* \"#utility.yul\":5632:5661   */\n      mstore\n      shl(0xca, 0x125b9d985b1a59)\n        /* \"#utility.yul\":5677:5695   */\n      0x44\n      dup3\n      add\n        /* \"#utility.yul\":5670:5707   */\n      mstore\n        /* \"#utility.yul\":5724:5742   */\n      0x64\n      add\n        /* \"LibertyFinancialChain/LiberttFinancial/exchange.sol\":7736:7779  require(orderId < orders.length, \"Invalid\") */\n      tag_166\n        /* \"#utility.yul\":5418:5748   */\n      jump\n        /* \"LibertyFinancialChain/LiberttFinancial/exchange.sol\":7736:7779  require(orderId < orders.length, \"Invalid\") */\n    tag_301:\n        /* \"LibertyFinancialChain/LiberttFinancial/exchange.sol\":7789:7806  Order storage ord */\n      0x00\n        /* \"LibertyFinancialChain/LiberttFinancial/exchange.sol\":7809:7815  orders */\n      0x06\n        /* \"LibertyFinancialChain/LiberttFinancial/exchange.sol\":7816:7823  orderId */\n      dup5\n        /* \"LibertyFinancialChain/LiberttFinancial/exchange.sol\":7809:7824  orders[orderId] */\n      dup2\n      sload\n      dup2\n      lt\n      tag_304\n      jumpi\n      tag_304\n      tag_170\n      jump\t// in\n    tag_304:\n      0x00\n      swap2\n      dup3\n      mstore\n      0x20\n      swap1\n      swap2\n      keccak256\n      0x08\n      swap1\n      swap2\n      mul\n      add\n        /* \"LibertyFinancialChain/LiberttFinancial/exchange.sol\":7842:7852  ord.active */\n      0x07\n      dup2\n      add\n      sload\n        /* \"LibertyFinancialChain/LiberttFinancial/exchange.sol\":7809:7824  orders[orderId] */\n      swap1\n      swap2\n      pop\n        /* \"LibertyFinancialChain/LiberttFinancial/exchange.sol\":7842:7852  ord.active */\n      0xff\n      and\n        /* \"LibertyFinancialChain/LiberttFinancial/exchange.sol\":7834:7865  require(ord.active, \"Inactive\") */\n      tag_306\n      jumpi\n      mload(0x40)\n      shl(0xe5, 0x461bcd)\n      dup2\n      mstore\n        /* \"#utility.yul\":6087:6089   */\n      0x20\n        /* \"LibertyFinancialChain/LiberttFinancial/exchange.sol\":7834:7865  require(ord.active, \"Inactive\") */\n      0x04\n      dup3\n      add\n        /* \"#utility.yul\":6069:6090   */\n      mstore\n        /* \"#utility.yul\":6126:6127   */\n      0x08\n        /* \"#utility.yul\":6106:6124   */\n      0x24\n      dup3\n      add\n        /* \"#utility.yul\":6099:6128   */\n      mstore\n      shl(0xc0, 0x496e616374697665)\n        /* \"#utility.yul\":6144:6162   */\n      0x44\n      dup3\n      add\n        /* \"#utility.yul\":6137:6175   */\n      mstore\n        /* \"#utility.yul\":6192:6210   */\n      0x64\n      add\n        /* \"LibertyFinancialChain/LiberttFinancial/exchange.sol\":7834:7865  require(ord.active, \"Inactive\") */\n      tag_166\n        /* \"#utility.yul\":5885:6216   */\n      jump\n        /* \"LibertyFinancialChain/LiberttFinancial/exchange.sol\":7834:7865  require(ord.active, \"Inactive\") */\n    tag_306:\n        /* \"LibertyFinancialChain/LiberttFinancial/exchange.sol\":7901:7912  ord.tokenIn */\n      0x01\n      dup2\n      add\n      sload\n        /* \"LibertyFinancialChain/LiberttFinancial/exchange.sol\":7914:7926  ord.tokenOut */\n      0x02\n      dup3\n      add\n      sload\n        /* \"LibertyFinancialChain/LiberttFinancial/exchange.sol\":7883:7927  tokenInOutAllowed(ord.tokenIn, ord.tokenOut) */\n      tag_308\n      swap2\n      sub(shl(0xa0, 0x01), 0x01)\n        /* \"LibertyFinancialChain/LiberttFinancial/exchange.sol\":7901:7912  ord.tokenIn */\n      swap1\n      dup2\n      and\n      swap2\n        /* \"LibertyFinancialChain/LiberttFinancial/exchange.sol\":7914:7926  ord.tokenOut */\n      and\n        /* \"LibertyFinancialChain/LiberttFinancial/exchange.sol\":7883:7900  tokenInOutAllowed */\n      tag_309\n        /* \"LibertyFinancialChain/LiberttFinancial/exchange.sol\":7883:7927  tokenInOutAllowed(ord.tokenIn, ord.tokenOut) */\n      jump\t// in\n    tag_308:\n        /* \"LibertyFinancialChain/LiberttFinancial/exchange.sol\":7875:7950  require(tokenInOutAllowed(ord.tokenIn, ord.tokenOut), \"Tokens not allowed\") */\n      tag_310\n      jumpi\n      mload(0x40)\n      shl(0xe5, 0x461bcd)\n      dup2\n      mstore\n      0x04\n      add\n      tag_166\n      swap1\n      tag_193\n      jump\t// in\n    tag_310:\n        /* \"LibertyFinancialChain/LiberttFinancial/exchange.sol\":7986:7989  ord */\n      dup1\n        /* \"LibertyFinancialChain/LiberttFinancial/exchange.sol\":7986:7999  ord.expiresAt */\n      0x06\n      add\n      sload\n        /* \"LibertyFinancialChain/LiberttFinancial/exchange.sol\":7968:7983  block.timestamp */\n      timestamp\n        /* \"LibertyFinancialChain/LiberttFinancial/exchange.sol\":7968:7999  block.timestamp < ord.expiresAt */\n      lt\n        /* \"LibertyFinancialChain/LiberttFinancial/exchange.sol\":7960:8011  require(block.timestamp < ord.expiresAt, \"Expired\") */\n      tag_312\n      jumpi\n      mload(0x40)\n      shl(0xe5, 0x461bcd)\n      dup2\n      mstore\n        /* \"#utility.yul\":13825:13827   */\n      0x20\n        /* \"LibertyFinancialChain/LiberttFinancial/exchange.sol\":7960:8011  require(block.timestamp < ord.expiresAt, \"Expired\") */\n      0x04\n      dup3\n      add\n        /* \"#utility.yul\":13807:13828   */\n      mstore\n        /* \"#utility.yul\":13864:13865   */\n      0x07\n        /* \"#utility.yul\":13844:13862   */\n      0x24\n      dup3\n      add\n        /* \"#utility.yul\":13837:13866   */\n      mstore\n      shl(0xca, 0x115e1c1a5c9959)\n        /* \"#utility.yul\":13882:13900   */\n      0x44\n      dup3\n      add\n        /* \"#utility.yul\":13875:13912   */\n      mstore\n        /* \"#utility.yul\":13929:13947   */\n      0x64\n      add\n        /* \"LibertyFinancialChain/LiberttFinancial/exchange.sol\":7960:8011  require(block.timestamp < ord.expiresAt, \"Expired\") */\n      tag_166\n        /* \"#utility.yul\":13623:13953   */\n      jump\n        /* \"LibertyFinancialChain/LiberttFinancial/exchange.sol\":7960:8011  require(block.timestamp < ord.expiresAt, \"Expired\") */\n    tag_312:\n        /* \"LibertyFinancialChain/LiberttFinancial/exchange.sol\":8042:8043  0 */\n      0x00\n        /* \"LibertyFinancialChain/LiberttFinancial/exchange.sol\":8029:8039  fillAmount */\n      dup4\n        /* \"LibertyFinancialChain/LiberttFinancial/exchange.sol\":8029:8043  fillAmount > 0 */\n      gt\n        /* \"LibertyFinancialChain/LiberttFinancial/exchange.sol\":8029:8080  fillAmount > 0 && fillAmount <= ord.amountRemaining */\n      dup1\n      iszero\n      tag_315\n      jumpi\n      pop\n        /* \"LibertyFinancialChain/LiberttFinancial/exchange.sol\":8061:8064  ord */\n      dup1\n        /* \"LibertyFinancialChain/LiberttFinancial/exchange.sol\":8061:8080  ord.amountRemaining */\n      0x04\n      add\n      sload\n        /* \"LibertyFinancialChain/LiberttFinancial/exchange.sol\":8047:8057  fillAmount */\n      dup4\n        /* \"LibertyFinancialChain/LiberttFinancial/exchange.sol\":8047:8080  fillAmount <= ord.amountRemaining */\n      gt\n      iszero\n        /* \"LibertyFinancialChain/LiberttFinancial/exchange.sol\":8029:8080  fillAmount > 0 && fillAmount <= ord.amountRemaining */\n    tag_315:\n        /* \"LibertyFinancialChain/LiberttFinancial/exchange.sol\":8021:8097  require(fillAmount > 0 && fillAmount <= ord.amountRemaining, \"Invalid fill\") */\n      tag_316\n      jumpi\n      mload(0x40)\n      shl(0xe5, 0x461bcd)\n      dup2\n      mstore\n        /* \"#utility.yul\":14160:14162   */\n      0x20\n        /* \"LibertyFinancialChain/LiberttFinancial/exchange.sol\":8021:8097  require(fillAmount > 0 && fillAmount <= ord.amountRemaining, \"Invalid fill\") */\n      0x04\n      dup3\n      add\n        /* \"#utility.yul\":14142:14163   */\n      mstore\n        /* \"#utility.yul\":14199:14201   */\n      0x0c\n        /* \"#utility.yul\":14179:14197   */\n      0x24\n      dup3\n      add\n        /* \"#utility.yul\":14172:14202   */\n      mstore\n      shl(0xa2, 0x125b9d985b1a5908199a5b1b)\n        /* \"#utility.yul\":14218:14236   */\n      0x44\n      dup3\n      add\n        /* \"#utility.yul\":14211:14253   */\n      mstore\n        /* \"#utility.yul\":14270:14288   */\n      0x64\n      add\n        /* \"LibertyFinancialChain/LiberttFinancial/exchange.sol\":8021:8097  require(fillAmount > 0 && fillAmount <= ord.amountRemaining, \"Invalid fill\") */\n      tag_166\n        /* \"#utility.yul\":13958:14294   */\n      jump\n        /* \"LibertyFinancialChain/LiberttFinancial/exchange.sol\":8021:8097  require(fillAmount > 0 && fillAmount <= ord.amountRemaining, \"Invalid fill\") */\n    tag_316:\n        /* \"LibertyFinancialChain/LiberttFinancial/exchange.sol\":8202:8213  ord.tokenIn */\n      0x01\n      dup2\n      add\n      sload\n        /* \"LibertyFinancialChain/LiberttFinancial/exchange.sol\":8170:8189  uint256 nFillAmount */\n      0x00\n      swap1\n        /* \"LibertyFinancialChain/LiberttFinancial/exchange.sol\":8192:8226  normalize(ord.tokenIn, fillAmount) */\n      tag_319\n      swap1\n      sub(shl(0xa0, 0x01), 0x01)\n        /* \"LibertyFinancialChain/LiberttFinancial/exchange.sol\":8202:8213  ord.tokenIn */\n      and\n        /* \"LibertyFinancialChain/LiberttFinancial/exchange.sol\":8215:8225  fillAmount */\n      dup6\n        /* \"LibertyFinancialChain/LiberttFinancial/exchange.sol\":8192:8201  normalize */\n      tag_81\n        /* \"LibertyFinancialChain/LiberttFinancial/exchange.sol\":8192:8226  normalize(ord.tokenIn, fillAmount) */\n      jump\t// in\n    tag_319:\n        /* \"LibertyFinancialChain/LiberttFinancial/exchange.sol\":8170:8226  uint256 nFillAmount = normalize(ord.tokenIn, fillAmount) */\n      swap1\n      pop\n        /* \"LibertyFinancialChain/LiberttFinancial/exchange.sol\":8236:8253  uint256 nTokenOut */\n      0x00\n        /* \"LibertyFinancialChain/LiberttFinancial/exchange.sol\":8281:8285  1e18 */\n      0x0de0b6b3a7640000\n        /* \"LibertyFinancialChain/LiberttFinancial/exchange.sol\":8270:8273  ord */\n      dup4\n        /* \"LibertyFinancialChain/LiberttFinancial/exchange.sol\":8270:8278  ord.rate */\n      0x05\n      add\n      sload\n        /* \"LibertyFinancialChain/LiberttFinancial/exchange.sol\":8256:8267  nFillAmount */\n      dup4\n        /* \"LibertyFinancialChain/LiberttFinancial/exchange.sol\":8256:8278  nFillAmount * ord.rate */\n      tag_320\n      swap2\n      swap1\n      tag_221\n      jump\t// in\n    tag_320:\n        /* \"LibertyFinancialChain/LiberttFinancial/exchange.sol\":8256:8285  nFillAmount * ord.rate / 1e18 */\n      tag_321\n      swap2\n      swap1\n      tag_274\n      jump\t// in\n    tag_321:\n        /* \"LibertyFinancialChain/LiberttFinancial/exchange.sol\":8332:8344  ord.tokenOut */\n      0x02\n      dup5\n      add\n      sload\n        /* \"LibertyFinancialChain/LiberttFinancial/exchange.sol\":8236:8285  uint256 nTokenOut = nFillAmount * ord.rate / 1e18 */\n      swap1\n      swap2\n      pop\n        /* \"LibertyFinancialChain/LiberttFinancial/exchange.sol\":8295:8317  uint256 tokenOutAmount */\n      0x00\n      swap1\n        /* \"LibertyFinancialChain/LiberttFinancial/exchange.sol\":8320:8356  denormalize(ord.tokenOut, nTokenOut) */\n      tag_322\n      swap1\n      sub(shl(0xa0, 0x01), 0x01)\n        /* \"LibertyFinancialChain/LiberttFinancial/exchange.sol\":8332:8344  ord.tokenOut */\n      and\n        /* \"LibertyFinancialChain/LiberttFinancial/exchange.sol\":8236:8285  uint256 nTokenOut = nFillAmount * ord.rate / 1e18 */\n      dup4\n        /* \"LibertyFinancialChain/LiberttFinancial/exchange.sol\":8320:8331  denormalize */\n      tag_111\n        /* \"LibertyFinancialChain/LiberttFinancial/exchange.sol\":8320:8356  denormalize(ord.tokenOut, nTokenOut) */\n      jump\t// in\n    tag_322:\n        /* \"LibertyFinancialChain/LiberttFinancial/exchange.sol\":8295:8356  uint256 tokenOutAmount = denormalize(ord.tokenOut, nTokenOut) */\n      swap1\n      pop\n        /* \"LibertyFinancialChain/LiberttFinancial/exchange.sol\":8367:8378  uint256 fee */\n      0x00\n        /* \"LibertyFinancialChain/LiberttFinancial/exchange.sol\":8411:8416  10000 */\n      0x2710\n        /* \"LibertyFinancialChain/LiberttFinancial/exchange.sol\":8398:8408  swapFeeBps */\n      sload(0x02)\n        /* \"LibertyFinancialChain/LiberttFinancial/exchange.sol\":8381:8395  tokenOutAmount */\n      dup4\n        /* \"LibertyFinancialChain/LiberttFinancial/exchange.sol\":8381:8408  tokenOutAmount * swapFeeBps */\n      tag_323\n      swap2\n      swap1\n      tag_221\n      jump\t// in\n    tag_323:\n        /* \"LibertyFinancialChain/LiberttFinancial/exchange.sol\":8381:8416  tokenOutAmount * swapFeeBps / 10000 */\n      tag_324\n      swap2\n      swap1\n      tag_274\n      jump\t// in\n    tag_324:\n        /* \"LibertyFinancialChain/LiberttFinancial/exchange.sol\":8367:8416  uint256 fee = tokenOutAmount * swapFeeBps / 10000 */\n      swap1\n      pop\n        /* \"LibertyFinancialChain/LiberttFinancial/exchange.sol\":8426:8443  uint256 takerGets */\n      0x00\n        /* \"LibertyFinancialChain/LiberttFinancial/exchange.sol\":8446:8466  tokenOutAmount - fee */\n      tag_325\n        /* \"LibertyFinancialChain/LiberttFinancial/exchange.sol\":8367:8416  uint256 fee = tokenOutAmount * swapFeeBps / 10000 */\n      dup3\n        /* \"LibertyFinancialChain/LiberttFinancial/exchange.sol\":8446:8460  tokenOutAmount */\n      dup5\n        /* \"LibertyFinancialChain/LiberttFinancial/exchange.sol\":8446:8466  tokenOutAmount - fee */\n      tag_207\n      jump\t// in\n    tag_325:\n        /* \"LibertyFinancialChain/LiberttFinancial/exchange.sol\":8426:8466  uint256 takerGets = tokenOutAmount - fee */\n      swap1\n      pop\n        /* \"LibertyFinancialChain/LiberttFinancial/exchange.sol\":8498:8510  minAmountOut */\n      dup7\n        /* \"LibertyFinancialChain/LiberttFinancial/exchange.sol\":8485:8494  takerGets */\n      dup2\n        /* \"LibertyFinancialChain/LiberttFinancial/exchange.sol\":8485:8510  takerGets >= minAmountOut */\n      lt\n      iszero\n        /* \"LibertyFinancialChain/LiberttFinancial/exchange.sol\":8477:8539  require(takerGets >= minAmountOut, \"Slippage: output too low\") */\n      tag_326\n      jumpi\n      mload(0x40)\n      shl(0xe5, 0x461bcd)\n      dup2\n      mstore\n        /* \"#utility.yul\":13148:13150   */\n      0x20\n        /* \"LibertyFinancialChain/LiberttFinancial/exchange.sol\":8477:8539  require(takerGets >= minAmountOut, \"Slippage: output too low\") */\n      0x04\n      dup3\n      add\n        /* \"#utility.yul\":13130:13151   */\n      mstore\n        /* \"#utility.yul\":13187:13189   */\n      0x18\n        /* \"#utility.yul\":13167:13185   */\n      0x24\n      dup3\n      add\n        /* \"#utility.yul\":13160:13190   */\n      mstore\n      shl(0x40, 0x536c6970706167653a206f757470757420746f6f206c6f77)\n        /* \"#utility.yul\":13206:13224   */\n      0x44\n      dup3\n      add\n        /* \"#utility.yul\":13199:13253   */\n      mstore\n        /* \"#utility.yul\":13270:13288   */\n      0x64\n      add\n        /* \"LibertyFinancialChain/LiberttFinancial/exchange.sol\":8477:8539  require(takerGets >= minAmountOut, \"Slippage: output too low\") */\n      tag_166\n        /* \"#utility.yul\":12946:13294   */\n      jump\n        /* \"LibertyFinancialChain/LiberttFinancial/exchange.sol\":8477:8539  require(takerGets >= minAmountOut, \"Slippage: output too low\") */\n    tag_326:\n        /* \"LibertyFinancialChain/LiberttFinancial/exchange.sol\":8569:8570  0 */\n      0x00\n        /* \"LibertyFinancialChain/LiberttFinancial/exchange.sol\":8557:8566  takerGets */\n      dup2\n        /* \"LibertyFinancialChain/LiberttFinancial/exchange.sol\":8557:8570  takerGets > 0 */\n      gt\n        /* \"LibertyFinancialChain/LiberttFinancial/exchange.sol\":8549:8584  require(takerGets > 0, \"Too small\") */\n      tag_328\n      jumpi\n      mload(0x40)\n      shl(0xe5, 0x461bcd)\n      dup2\n      mstore\n        /* \"#utility.yul\":8053:8055   */\n      0x20\n        /* \"LibertyFinancialChain/LiberttFinancial/exchange.sol\":8549:8584  require(takerGets > 0, \"Too small\") */\n      0x04\n      dup3\n      add\n        /* \"#utility.yul\":8035:8056   */\n      mstore\n        /* \"#utility.yul\":8092:8093   */\n      0x09\n        /* \"#utility.yul\":8072:8090   */\n      0x24\n      dup3\n      add\n        /* \"#utility.yul\":8065:8094   */\n      mstore\n      shl(0xba, 0x151bdbc81cdb585b1b)\n        /* \"#utility.yul\":8110:8128   */\n      0x44\n      dup3\n      add\n        /* \"#utility.yul\":8103:8142   */\n      mstore\n        /* \"#utility.yul\":8159:8177   */\n      0x64\n      add\n        /* \"LibertyFinancialChain/LiberttFinancial/exchange.sol\":8549:8584  require(takerGets > 0, \"Too small\") */\n      tag_166\n        /* \"#utility.yul\":7851:8183   */\n      jump\n        /* \"LibertyFinancialChain/LiberttFinancial/exchange.sol\":8549:8584  require(takerGets > 0, \"Too small\") */\n    tag_328:\n        /* \"LibertyFinancialChain/LiberttFinancial/exchange.sol\":8652:8664  ord.tokenOut */\n      0x02\n      dup7\n      add\n      sload\n        /* \"LibertyFinancialChain/LiberttFinancial/exchange.sol\":8645:8725  IERC20(ord.tokenOut).safeTransferFrom(msg.sender, address(this), tokenOutAmount) */\n      tag_330\n      swap1\n      sub(shl(0xa0, 0x01), 0x01)\n        /* \"LibertyFinancialChain/LiberttFinancial/exchange.sol\":8652:8664  ord.tokenOut */\n      and\n        /* \"LibertyFinancialChain/LiberttFinancial/exchange.sol\":8683:8693  msg.sender */\n      caller\n        /* \"LibertyFinancialChain/LiberttFinancial/exchange.sol\":8703:8707  this */\n      address\n        /* \"LibertyFinancialChain/LiberttFinancial/exchange.sol\":8710:8724  tokenOutAmount */\n      dup7\n        /* \"LibertyFinancialChain/LiberttFinancial/exchange.sol\":8645:8682  IERC20(ord.tokenOut).safeTransferFrom */\n      tag_204\n        /* \"LibertyFinancialChain/LiberttFinancial/exchange.sol\":8645:8725  IERC20(ord.tokenOut).safeTransferFrom(msg.sender, address(this), tokenOutAmount) */\n      jump\t// in\n    tag_330:\n        /* \"LibertyFinancialChain/LiberttFinancial/exchange.sol\":8769:8778  ord.maker */\n      dup6\n      sload\n        /* \"LibertyFinancialChain/LiberttFinancial/exchange.sol\":8742:8754  ord.tokenOut */\n      0x02\n      dup8\n      add\n      sload\n        /* \"LibertyFinancialChain/LiberttFinancial/exchange.sol\":8735:8790  IERC20(ord.tokenOut).safeTransfer(ord.maker, takerGets) */\n      tag_331\n      swap2\n      sub(shl(0xa0, 0x01), 0x01)\n        /* \"LibertyFinancialChain/LiberttFinancial/exchange.sol\":8742:8754  ord.tokenOut */\n      swap2\n      dup3\n      and\n      swap2\n        /* \"LibertyFinancialChain/LiberttFinancial/exchange.sol\":8769:8778  ord.maker */\n      and\n        /* \"LibertyFinancialChain/LiberttFinancial/exchange.sol\":8780:8789  takerGets */\n      dup4\n        /* \"LibertyFinancialChain/LiberttFinancial/exchange.sol\":8735:8768  IERC20(ord.tokenOut).safeTransfer */\n      tag_180\n        /* \"LibertyFinancialChain/LiberttFinancial/exchange.sol\":8735:8790  IERC20(ord.tokenOut).safeTransfer(ord.maker, takerGets) */\n      jump\t// in\n    tag_331:\n        /* \"LibertyFinancialChain/LiberttFinancial/exchange.sol\":8804:8811  fee > 0 */\n      dup2\n      iszero\n        /* \"LibertyFinancialChain/LiberttFinancial/exchange.sol\":8800:8865  if (fee > 0) IERC20(ord.tokenOut).safeTransfer(feeRecipient, fee) */\n      tag_333\n      jumpi\n        /* \"LibertyFinancialChain/LiberttFinancial/exchange.sol\":8847:8859  feeRecipient */\n      sload(0x03)\n        /* \"LibertyFinancialChain/LiberttFinancial/exchange.sol\":8820:8832  ord.tokenOut */\n      0x02\n      dup8\n      add\n      sload\n        /* \"LibertyFinancialChain/LiberttFinancial/exchange.sol\":8813:8865  IERC20(ord.tokenOut).safeTransfer(feeRecipient, fee) */\n      tag_333\n      swap2\n      sub(shl(0xa0, 0x01), 0x01)\n        /* \"LibertyFinancialChain/LiberttFinancial/exchange.sol\":8820:8832  ord.tokenOut */\n      swap2\n      dup3\n      and\n      swap2\n        /* \"LibertyFinancialChain/LiberttFinancial/exchange.sol\":8847:8859  feeRecipient */\n      and\n        /* \"LibertyFinancialChain/LiberttFinancial/exchange.sol\":8861:8864  fee */\n      dup5\n        /* \"LibertyFinancialChain/LiberttFinancial/exchange.sol\":8813:8846  IERC20(ord.tokenOut).safeTransfer */\n      tag_180\n        /* \"LibertyFinancialChain/LiberttFinancial/exchange.sol\":8813:8865  IERC20(ord.tokenOut).safeTransfer(feeRecipient, fee) */\n      jump\t// in\n    tag_333:\n        /* \"LibertyFinancialChain/LiberttFinancial/exchange.sol\":8916:8927  ord.tokenIn */\n      0x01\n      dup7\n      add\n      sload\n        /* \"LibertyFinancialChain/LiberttFinancial/exchange.sol\":8909:8965  IERC20(ord.tokenIn).safeTransfer(msg.sender, fillAmount) */\n      tag_334\n      swap1\n      sub(shl(0xa0, 0x01), 0x01)\n        /* \"LibertyFinancialChain/LiberttFinancial/exchange.sol\":8916:8927  ord.tokenIn */\n      and\n        /* \"LibertyFinancialChain/LiberttFinancial/exchange.sol\":8942:8952  msg.sender */\n      caller\n        /* \"LibertyFinancialChain/LiberttFinancial/exchange.sol\":8954:8964  fillAmount */\n      dup11\n        /* \"LibertyFinancialChain/LiberttFinancial/exchange.sol\":8909:8941  IERC20(ord.tokenIn).safeTransfer */\n      tag_180\n        /* \"LibertyFinancialChain/LiberttFinancial/exchange.sol\":8909:8965  IERC20(ord.tokenIn).safeTransfer(msg.sender, fillAmount) */\n      jump\t// in\n    tag_334:\n        /* \"LibertyFinancialChain/LiberttFinancial/exchange.sol\":9023:9033  fillAmount */\n      dup8\n        /* \"LibertyFinancialChain/LiberttFinancial/exchange.sol\":9000:9003  ord */\n      dup7\n        /* \"LibertyFinancialChain/LiberttFinancial/exchange.sol\":9000:9019  ord.amountRemaining */\n      0x04\n      add\n      0x00\n        /* \"LibertyFinancialChain/LiberttFinancial/exchange.sol\":9000:9033  ord.amountRemaining -= fillAmount */\n      dup3\n      dup3\n      sload\n      tag_335\n      swap2\n      swap1\n      tag_207\n      jump\t// in\n    tag_335:\n      swap1\n      swap2\n      sstore\n      pop\n      pop\n        /* \"LibertyFinancialChain/LiberttFinancial/exchange.sol\":9047:9066  ord.amountRemaining */\n      0x04\n      dup7\n      add\n      sload\n        /* \"LibertyFinancialChain/LiberttFinancial/exchange.sol\":9070:9071  0 */\n      0x00\n        /* \"LibertyFinancialChain/LiberttFinancial/exchange.sol\":9047:9071  ord.amountRemaining == 0 */\n      sub\n        /* \"LibertyFinancialChain/LiberttFinancial/exchange.sol\":9043:9091  if (ord.amountRemaining == 0) ord.active = false */\n      tag_336\n      jumpi\n        /* \"LibertyFinancialChain/LiberttFinancial/exchange.sol\":9073:9083  ord.active */\n      0x07\n      dup7\n      add\n        /* \"LibertyFinancialChain/LiberttFinancial/exchange.sol\":9073:9091  ord.active = false */\n      dup1\n      sload\n      not(0xff)\n      and\n      swap1\n      sstore\n        /* \"LibertyFinancialChain/LiberttFinancial/exchange.sol\":9043:9091  if (ord.amountRemaining == 0) ord.active = false */\n    tag_336:\n        /* \"LibertyFinancialChain/LiberttFinancial/exchange.sol\":9107:9173  OrderMatched(orderId, msg.sender, fillAmount, tokenOutAmount, fee) */\n      0x40\n      dup1\n      mload\n        /* \"#utility.yul\":13501:13526   */\n      dup10\n      dup2\n      mstore\n        /* \"#utility.yul\":13557:13559   */\n      0x20\n        /* \"#utility.yul\":13542:13560   */\n      dup2\n      add\n        /* \"#utility.yul\":13535:13569   */\n      dup6\n      swap1\n      mstore\n        /* \"#utility.yul\":13585:13603   */\n      swap1\n      dup2\n      add\n        /* \"#utility.yul\":13578:13612   */\n      dup4\n      swap1\n      mstore\n        /* \"LibertyFinancialChain/LiberttFinancial/exchange.sol\":9129:9139  msg.sender */\n      caller\n      swap1\n        /* \"LibertyFinancialChain/LiberttFinancial/exchange.sol\":9120:9127  orderId */\n      dup11\n      swap1\n        /* \"LibertyFinancialChain/LiberttFinancial/exchange.sol\":9107:9173  OrderMatched(orderId, msg.sender, fillAmount, tokenOutAmount, fee) */\n      0x3fc859a6e9309b7067994110940aa58b5cdb00ef7a86e864022b436f8ba46480\n      swap1\n        /* \"#utility.yul\":13489:13491   */\n      0x60\n        /* \"#utility.yul\":13474:13492   */\n      add\n        /* \"LibertyFinancialChain/LiberttFinancial/exchange.sol\":9107:9173  OrderMatched(orderId, msg.sender, fillAmount, tokenOutAmount, fee) */\n      mload(0x40)\n      dup1\n      swap2\n      sub\n      swap1\n      log3\n        /* \"LibertyFinancialChain/LiberttFinancial/exchange.sol\":7726:9180  {... */\n      pop\n      pop\n      pop\n      pop\n      pop\n      pop\n        /* \"@openzeppelin/contracts/security/ReentrancyGuard.sol\":2303:2323  _nonReentrantAfter() */\n      tag_155\n        /* \"@openzeppelin/contracts/security/ReentrancyGuard.sol\":1716:1717  1 */\n      0x01\n        /* \"@openzeppelin/contracts/security/ReentrancyGuard.sol\":2809:2831  _status = _NOT_ENTERED */\n      dup1\n      sstore\n        /* \"@openzeppelin/contracts/security/ReentrancyGuard.sol\":2629:2838  function _nonReentrantAfter() private {... */\n      jump\n        /* \"LibertyFinancialChain/LiberttFinancial/exchange.sol\":4038:4158  function getDecimals(address token) public view returns (uint8) {... */\n    tag_122:\n        /* \"LibertyFinancialChain/LiberttFinancial/exchange.sol\":4095:4100  uint8 */\n      0x00\n        /* \"LibertyFinancialChain/LiberttFinancial/exchange.sol\":4134:4139  token */\n      dup2\n      sub(shl(0xa0, 0x01), 0x01)\n        /* \"LibertyFinancialChain/LiberttFinancial/exchange.sol\":4119:4149  IERC20Metadata(token).decimals */\n      and\n      0x313ce567\n        /* \"LibertyFinancialChain/LiberttFinancial/exchange.sol\":4119:4151  IERC20Metadata(token).decimals() */\n      mload(0x40)\n      dup2\n      0xffffffff\n      and\n      0xe0\n      shl\n      dup2\n      mstore\n      0x04\n      add\n      0x20\n      mload(0x40)\n      dup1\n      dup4\n      sub\n      dup2\n      dup7\n      gas\n      staticcall\n      iszero\n      dup1\n      iszero\n      tag_341\n      jumpi\n      returndatasize\n      0x00\n      dup1\n      returndatacopy\n      revert(0x00, returndatasize)\n    tag_341:\n      pop\n      pop\n      pop\n      pop\n      mload(0x40)\n      returndatasize\n      not(0x1f)\n      0x1f\n      dup3\n      add\n      and\n      dup3\n      add\n      dup1\n      0x40\n      mstore\n      pop\n      dup2\n      add\n      swap1\n      tag_141\n      swap2\n      swap1\n      tag_343\n      jump\t// in\n        /* \"LibertyFinancialChain/LiberttFinancial/exchange.sol\":2556:2947  function setGlobalRate(address tokenIn, address tokenOut, uint256 rate) external onlyAdminOrSub {... */\n    tag_128:\n        /* \"LibertyFinancialChain/LiberttFinancial/exchange.sol\":3868:3907  hasRole(DEFAULT_ADMIN_ROLE, msg.sender) */\n      tag_345\n        /* \"@openzeppelin/contracts/access/AccessControl.sol\":2241:2245  0x00 */\n      0x00\n        /* \"LibertyFinancialChain/LiberttFinancial/exchange.sol\":3896:3906  msg.sender */\n      caller\n        /* \"LibertyFinancialChain/LiberttFinancial/exchange.sol\":3868:3875  hasRole */\n      tag_95\n        /* \"LibertyFinancialChain/LiberttFinancial/exchange.sol\":3868:3907  hasRole(DEFAULT_ADMIN_ROLE, msg.sender) */\n      jump\t// in\n    tag_345:\n        /* \"LibertyFinancialChain/LiberttFinancial/exchange.sol\":3868:3945  hasRole(DEFAULT_ADMIN_ROLE, msg.sender) || hasRole(SUBADMIN_ROLE, msg.sender) */\n      dup1\n      tag_347\n      jumpi\n      pop\n        /* \"LibertyFinancialChain/LiberttFinancial/exchange.sol\":3911:3945  hasRole(SUBADMIN_ROLE, msg.sender) */\n      tag_347\n      0x00\n      dup1\n      mload\n      0x20\n      data_c3f76b99666f6818ff0e702cf1728f8564932dfce2026f5d7d90bf00e9ab2863\n      dup4\n      codecopy\n      dup2\n      mload\n      swap2\n      mstore\n        /* \"LibertyFinancialChain/LiberttFinancial/exchange.sol\":3934:3944  msg.sender */\n      caller\n        /* \"LibertyFinancialChain/LiberttFinancial/exchange.sol\":3911:3918  hasRole */\n      tag_95\n        /* \"LibertyFinancialChain/LiberttFinancial/exchange.sol\":3911:3945  hasRole(SUBADMIN_ROLE, msg.sender) */\n      jump\t// in\n    tag_347:\n        /* \"LibertyFinancialChain/LiberttFinancial/exchange.sol\":3860:3968  require(hasRole(DEFAULT_ADMIN_ROLE, msg.sender) || hasRole(SUBADMIN_ROLE, msg.sender), \"Not admin/subadmin\") */\n      tag_348\n      jumpi\n      mload(0x40)\n      shl(0xe5, 0x461bcd)\n      dup2\n      mstore\n      0x04\n      add\n      tag_166\n      swap1\n      tag_228\n      jump\t// in\n    tag_348:\n        /* \"LibertyFinancialChain/LiberttFinancial/exchange.sol\":2681:2689  tokenOut */\n      dup2\n      sub(shl(0xa0, 0x01), 0x01)\n        /* \"LibertyFinancialChain/LiberttFinancial/exchange.sol\":2670:2689  tokenIn != tokenOut */\n      and\n        /* \"LibertyFinancialChain/LiberttFinancial/exchange.sol\":2670:2677  tokenIn */\n      dup4\n      sub(shl(0xa0, 0x01), 0x01)\n        /* \"LibertyFinancialChain/LiberttFinancial/exchange.sol\":2670:2689  tokenIn != tokenOut */\n      and\n      sub\n        /* \"LibertyFinancialChain/LiberttFinancial/exchange.sol\":2662:2710  require(tokenIn != tokenOut, \"Identical tokens\") */\n      tag_351\n      jumpi\n      mload(0x40)\n      shl(0xe5, 0x461bcd)\n      dup2\n      mstore\n      0x04\n      add\n      tag_166\n      swap1\n      tag_189\n      jump\t// in\n    tag_351:\n        /* \"LibertyFinancialChain/LiberttFinancial/exchange.sol\":2735:2736  0 */\n      0x00\n        /* \"LibertyFinancialChain/LiberttFinancial/exchange.sol\":2728:2732  rate */\n      dup2\n        /* \"LibertyFinancialChain/LiberttFinancial/exchange.sol\":2728:2736  rate > 0 */\n      gt\n        /* \"LibertyFinancialChain/LiberttFinancial/exchange.sol\":2720:2750  require(rate > 0, \"Zero rate\") */\n      tag_353\n      jumpi\n      mload(0x40)\n      shl(0xe5, 0x461bcd)\n      dup2\n      mstore\n        /* \"#utility.yul\":14779:14781   */\n      0x20\n        /* \"LibertyFinancialChain/LiberttFinancial/exchange.sol\":2720:2750  require(rate > 0, \"Zero rate\") */\n      0x04\n      dup3\n      add\n        /* \"#utility.yul\":14761:14782   */\n      mstore\n        /* \"#utility.yul\":14818:14819   */\n      0x09\n        /* \"#utility.yul\":14798:14816   */\n      0x24\n      dup3\n      add\n        /* \"#utility.yul\":14791:14820   */\n      mstore\n      shl(0xb8, 0x5a65726f2072617465)\n        /* \"#utility.yul\":14836:14854   */\n      0x44\n      dup3\n      add\n        /* \"#utility.yul\":14829:14868   */\n      mstore\n        /* \"#utility.yul\":14885:14903   */\n      0x64\n      add\n        /* \"LibertyFinancialChain/LiberttFinancial/exchange.sol\":2720:2750  require(rate > 0, \"Zero rate\") */\n      tag_166\n        /* \"#utility.yul\":14577:14909   */\n      jump\n        /* \"LibertyFinancialChain/LiberttFinancial/exchange.sol\":2720:2750  require(rate > 0, \"Zero rate\") */\n    tag_353:\n      sub(shl(0xa0, 0x01), 0x01)\n        /* \"LibertyFinancialChain/LiberttFinancial/exchange.sol\":2768:2790  allowedTokens[tokenIn] */\n      dup4\n      and\n      0x00\n      swap1\n      dup2\n      mstore\n        /* \"LibertyFinancialChain/LiberttFinancial/exchange.sol\":2768:2781  allowedTokens */\n      0x04\n        /* \"LibertyFinancialChain/LiberttFinancial/exchange.sol\":2768:2790  allowedTokens[tokenIn] */\n      0x20\n      mstore\n      0x40\n      swap1\n      keccak256\n      sload\n      0xff\n      and\n        /* \"LibertyFinancialChain/LiberttFinancial/exchange.sol\":2768:2817  allowedTokens[tokenIn] && allowedTokens[tokenOut] */\n      dup1\n      iszero\n      tag_356\n      jumpi\n      pop\n      sub(shl(0xa0, 0x01), 0x01)\n        /* \"LibertyFinancialChain/LiberttFinancial/exchange.sol\":2794:2817  allowedTokens[tokenOut] */\n      dup3\n      and\n      0x00\n      swap1\n      dup2\n      mstore\n        /* \"LibertyFinancialChain/LiberttFinancial/exchange.sol\":2794:2807  allowedTokens */\n      0x04\n        /* \"LibertyFinancialChain/LiberttFinancial/exchange.sol\":2794:2817  allowedTokens[tokenOut] */\n      0x20\n      mstore\n      0x40\n      swap1\n      keccak256\n      sload\n      0xff\n      and\n        /* \"LibertyFinancialChain/LiberttFinancial/exchange.sol\":2768:2817  allowedTokens[tokenIn] && allowedTokens[tokenOut] */\n    tag_356:\n        /* \"LibertyFinancialChain/LiberttFinancial/exchange.sol\":2760:2840  require(allowedTokens[tokenIn] && allowedTokens[tokenOut], \"Tokens not allowed\") */\n      tag_357\n      jumpi\n      mload(0x40)\n      shl(0xe5, 0x461bcd)\n      dup2\n      mstore\n      0x04\n      add\n      tag_166\n      swap1\n      tag_193\n      jump\t// in\n    tag_357:\n      sub(shl(0xa0, 0x01), 0x01)\n        /* \"LibertyFinancialChain/LiberttFinancial/exchange.sol\":2850:2870  globalRates[tokenIn] */\n      dup4\n      dup2\n      and\n      0x00\n      dup2\n      dup2\n      mstore\n        /* \"LibertyFinancialChain/LiberttFinancial/exchange.sol\":2850:2861  globalRates */\n      0x05\n        /* \"LibertyFinancialChain/LiberttFinancial/exchange.sol\":2850:2870  globalRates[tokenIn] */\n      0x20\n      swap1\n      dup2\n      mstore\n      0x40\n      dup1\n      dup4\n      keccak256\n        /* \"LibertyFinancialChain/LiberttFinancial/exchange.sol\":2850:2880  globalRates[tokenIn][tokenOut] */\n      swap5\n      dup8\n      and\n      dup1\n      dup5\n      mstore\n      swap5\n      dup3\n      mstore\n      swap2\n      dup3\n      swap1\n      keccak256\n        /* \"LibertyFinancialChain/LiberttFinancial/exchange.sol\":2850:2887  globalRates[tokenIn][tokenOut] = rate */\n      dup6\n      swap1\n      sstore\n        /* \"LibertyFinancialChain/LiberttFinancial/exchange.sol\":2902:2940  GlobalRateSet(tokenIn, tokenOut, rate) */\n      swap1\n      mload\n        /* \"#utility.yul\":828:853   */\n      dup5\n      dup2\n      mstore\n        /* \"LibertyFinancialChain/LiberttFinancial/exchange.sol\":2902:2940  GlobalRateSet(tokenIn, tokenOut, rate) */\n      0xbc337c774e3d398e3abf682de55e83814a46b4ab164a3d8b50740668193e1df5\n      swap2\n        /* \"#utility.yul\":801:819   */\n      add\n        /* \"LibertyFinancialChain/LiberttFinancial/exchange.sol\":2902:2940  GlobalRateSet(tokenIn, tokenOut, rate) */\n      mload(0x40)\n      dup1\n      swap2\n      sub\n      swap1\n      log3\n        /* \"LibertyFinancialChain/LiberttFinancial/exchange.sol\":2556:2947  function setGlobalRate(address tokenIn, address tokenOut, uint256 rate) external onlyAdminOrSub {... */\n      pop\n      pop\n      pop\n      jump\t// out\n        /* \"@openzeppelin/contracts/access/AccessControl.sol\":4618:4756  function revokeRole(bytes32 role, address account) public virtual onlyRole(getRoleAdmin(role)) {... */\n    tag_131:\n        /* \"@openzeppelin/contracts/access/AccessControl.sol\":3851:3858  bytes32 */\n      0x00\n        /* \"@openzeppelin/contracts/access/AccessControl.sol\":3877:3889  _roles[role] */\n      dup3\n      dup2\n      mstore\n      0x20\n      dup2\n      swap1\n      mstore\n      0x40\n      swap1\n      keccak256\n        /* \"@openzeppelin/contracts/access/AccessControl.sol\":3877:3899  _roles[role].adminRole */\n      0x01\n      add\n      sload\n        /* \"@openzeppelin/contracts/access/AccessControl.sol\":2473:2489  _checkRole(role) */\n      tag_362\n        /* \"@openzeppelin/contracts/access/AccessControl.sol\":2484:2488  role */\n      dup2\n        /* \"@openzeppelin/contracts/access/AccessControl.sol\":2473:2483  _checkRole */\n      tag_147\n        /* \"@openzeppelin/contracts/access/AccessControl.sol\":2473:2489  _checkRole(role) */\n      jump\t// in\n    tag_362:\n        /* \"@openzeppelin/contracts/access/AccessControl.sol\":4723:4749  _revokeRole(role, account) */\n      tag_149\n        /* \"@openzeppelin/contracts/access/AccessControl.sol\":4735:4739  role */\n      dup4\n        /* \"@openzeppelin/contracts/access/AccessControl.sol\":4741:4748  account */\n      dup4\n        /* \"@openzeppelin/contracts/access/AccessControl.sol\":4723:4734  _revokeRole */\n      tag_156\n        /* \"@openzeppelin/contracts/access/AccessControl.sol\":4723:4749  _revokeRole(role, account) */\n      jump\t// in\n        /* \"LibertyFinancialChain/LiberttFinancial/exchange.sol\":3166:3392  function setFeeRecipient(address recipient) external onlyAdminOrSub {... */\n    tag_138:\n        /* \"LibertyFinancialChain/LiberttFinancial/exchange.sol\":3868:3907  hasRole(DEFAULT_ADMIN_ROLE, msg.sender) */\n      tag_366\n        /* \"@openzeppelin/contracts/access/AccessControl.sol\":2241:2245  0x00 */\n      0x00\n        /* \"LibertyFinancialChain/LiberttFinancial/exchange.sol\":3896:3906  msg.sender */\n      caller\n        /* \"LibertyFinancialChain/LiberttFinancial/exchange.sol\":3868:3875  hasRole */\n      tag_95\n        /* \"LibertyFinancialChain/LiberttFinancial/exchange.sol\":3868:3907  hasRole(DEFAULT_ADMIN_ROLE, msg.sender) */\n      jump\t// in\n    tag_366:\n        /* \"LibertyFinancialChain/LiberttFinancial/exchange.sol\":3868:3945  hasRole(DEFAULT_ADMIN_ROLE, msg.sender) || hasRole(SUBADMIN_ROLE, msg.sender) */\n      dup1\n      tag_368\n      jumpi\n      pop\n        /* \"LibertyFinancialChain/LiberttFinancial/exchange.sol\":3911:3945  hasRole(SUBADMIN_ROLE, msg.sender) */\n      tag_368\n      0x00\n      dup1\n      mload\n      0x20\n      data_c3f76b99666f6818ff0e702cf1728f8564932dfce2026f5d7d90bf00e9ab2863\n      dup4\n      codecopy\n      dup2\n      mload\n      swap2\n      mstore\n        /* \"LibertyFinancialChain/LiberttFinancial/exchange.sol\":3934:3944  msg.sender */\n      caller\n        /* \"LibertyFinancialChain/LiberttFinancial/exchange.sol\":3911:3918  hasRole */\n      tag_95\n        /* \"LibertyFinancialChain/LiberttFinancial/exchange.sol\":3911:3945  hasRole(SUBADMIN_ROLE, msg.sender) */\n      jump\t// in\n    tag_368:\n        /* \"LibertyFinancialChain/LiberttFinancial/exchange.sol\":3860:3968  require(hasRole(DEFAULT_ADMIN_ROLE, msg.sender) || hasRole(SUBADMIN_ROLE, msg.sender), \"Not admin/subadmin\") */\n      tag_369\n      jumpi\n      mload(0x40)\n      shl(0xe5, 0x461bcd)\n      dup2\n      mstore\n      0x04\n      add\n      tag_166\n      swap1\n      tag_228\n      jump\t// in\n    tag_369:\n      sub(shl(0xa0, 0x01), 0x01)\n        /* \"LibertyFinancialChain/LiberttFinancial/exchange.sol\":3252:3275  recipient != address(0) */\n      dup2\n      and\n        /* \"LibertyFinancialChain/LiberttFinancial/exchange.sol\":3244:3292  require(recipient != address(0), \"Zero address\") */\n      tag_372\n      jumpi\n      mload(0x40)\n      shl(0xe5, 0x461bcd)\n      dup2\n      mstore\n        /* \"#utility.yul\":15116:15118   */\n      0x20\n        /* \"LibertyFinancialChain/LiberttFinancial/exchange.sol\":3244:3292  require(recipient != address(0), \"Zero address\") */\n      0x04\n      dup3\n      add\n        /* \"#utility.yul\":15098:15119   */\n      mstore\n        /* \"#utility.yul\":15155:15157   */\n      0x0c\n        /* \"#utility.yul\":15135:15153   */\n      0x24\n      dup3\n      add\n        /* \"#utility.yul\":15128:15158   */\n      mstore\n      shl(0xa0, 0x5a65726f2061646472657373)\n        /* \"#utility.yul\":15174:15192   */\n      0x44\n      dup3\n      add\n        /* \"#utility.yul\":15167:15209   */\n      mstore\n        /* \"#utility.yul\":15226:15244   */\n      0x64\n      add\n        /* \"LibertyFinancialChain/LiberttFinancial/exchange.sol\":3244:3292  require(recipient != address(0), \"Zero address\") */\n      tag_166\n        /* \"#utility.yul\":14914:15250   */\n      jump\n        /* \"LibertyFinancialChain/LiberttFinancial/exchange.sol\":3244:3292  require(recipient != address(0), \"Zero address\") */\n    tag_372:\n        /* \"LibertyFinancialChain/LiberttFinancial/exchange.sol\":3327:3339  feeRecipient */\n      sload(0x03)\n        /* \"LibertyFinancialChain/LiberttFinancial/exchange.sol\":3307:3351  FeeRecipientUpdated(feeRecipient, recipient) */\n      0x40\n      dup1\n      mload\n      sub(shl(0xa0, 0x01), 0x01)\n        /* \"LibertyFinancialChain/LiberttFinancial/exchange.sol\":3327:3339  feeRecipient */\n      swap3\n      dup4\n      and\n        /* \"#utility.yul\":15467:15501   */\n      dup2\n      mstore\n        /* \"#utility.yul\":15537:15552   */\n      swap2\n      dup4\n      and\n        /* \"#utility.yul\":15532:15534   */\n      0x20\n        /* \"#utility.yul\":15517:15535   */\n      dup4\n      add\n        /* \"#utility.yul\":15510:15553   */\n      mstore\n        /* \"LibertyFinancialChain/LiberttFinancial/exchange.sol\":3307:3351  FeeRecipientUpdated(feeRecipient, recipient) */\n      0xaaebcf1bfa00580e41d966056b48521fa9f202645c86d4ddf28113e617c1b1d3\n      swap2\n        /* \"#utility.yul\":15402:15420   */\n      add\n        /* \"LibertyFinancialChain/LiberttFinancial/exchange.sol\":3307:3351  FeeRecipientUpdated(feeRecipient, recipient) */\n      mload(0x40)\n      dup1\n      swap2\n      sub\n      swap1\n      log1\n        /* \"LibertyFinancialChain/LiberttFinancial/exchange.sol\":3361:3373  feeRecipient */\n      0x03\n        /* \"LibertyFinancialChain/LiberttFinancial/exchange.sol\":3361:3385  feeRecipient = recipient */\n      dup1\n      sload\n      not(sub(shl(0xa0, 0x01), 0x01))\n      and\n      sub(shl(0xa0, 0x01), 0x01)\n      swap3\n      swap1\n      swap3\n      and\n      swap2\n      swap1\n      swap2\n      or\n      swap1\n      sstore\n        /* \"LibertyFinancialChain/LiberttFinancial/exchange.sol\":3166:3392  function setFeeRecipient(address recipient) external onlyAdminOrSub {... */\n      jump\t// out\n        /* \"@openzeppelin/contracts/access/AccessControl.sol\":3175:3278  function _checkRole(bytes32 role) internal view virtual {... */\n    tag_147:\n        /* \"@openzeppelin/contracts/access/AccessControl.sol\":3241:3271  _checkRole(role, _msgSender()) */\n      tag_182\n        /* \"@openzeppelin/contracts/access/AccessControl.sol\":3252:3256  role */\n      dup2\n        /* \"@openzeppelin/contracts/utils/Context.sol\":735:745  msg.sender */\n      caller\n        /* \"@openzeppelin/contracts/access/AccessControl.sol\":3241:3251  _checkRole */\n      tag_381\n        /* \"@openzeppelin/contracts/access/AccessControl.sol\":3241:3271  _checkRole(role, _msgSender()) */\n      jump\t// in\n        /* \"@openzeppelin/contracts/access/AccessControl.sol\":6155:6471  function _grantRole(bytes32 role, address account) internal virtual returns (bool) {... */\n    tag_150:\n        /* \"@openzeppelin/contracts/access/AccessControl.sol\":6232:6236  bool */\n      0x00\n        /* \"@openzeppelin/contracts/access/AccessControl.sol\":6253:6275  hasRole(role, account) */\n      tag_383\n        /* \"@openzeppelin/contracts/access/AccessControl.sol\":6261:6265  role */\n      dup4\n        /* \"@openzeppelin/contracts/access/AccessControl.sol\":6267:6274  account */\n      dup4\n        /* \"@openzeppelin/contracts/access/AccessControl.sol\":6253:6260  hasRole */\n      tag_95\n        /* \"@openzeppelin/contracts/access/AccessControl.sol\":6253:6275  hasRole(role, account) */\n      jump\t// in\n    tag_383:\n        /* \"@openzeppelin/contracts/access/AccessControl.sol\":6248:6465  if (!hasRole(role, account)) {... */\n      tag_384\n      jumpi\n        /* \"@openzeppelin/contracts/access/AccessControl.sol\":6291:6297  _roles */\n      0x00\n        /* \"@openzeppelin/contracts/access/AccessControl.sol\":6291:6303  _roles[role] */\n      dup4\n      dup2\n      mstore\n      0x20\n      dup2\n      dup2\n      mstore\n      0x40\n      dup1\n      dup4\n      keccak256\n      sub(shl(0xa0, 0x01), 0x01)\n        /* \"@openzeppelin/contracts/access/AccessControl.sol\":6291:6320  _roles[role].hasRole[account] */\n      dup7\n      and\n      dup5\n      mstore\n      swap1\n      swap2\n      mstore\n      swap1\n      keccak256\n        /* \"@openzeppelin/contracts/access/AccessControl.sol\":6291:6327  _roles[role].hasRole[account] = true */\n      dup1\n      sload\n      not(0xff)\n      and\n        /* \"@openzeppelin/contracts/access/AccessControl.sol\":6323:6327  true */\n      0x01\n        /* \"@openzeppelin/contracts/access/AccessControl.sol\":6291:6327  _roles[role].hasRole[account] = true */\n      or\n      swap1\n      sstore\n        /* \"@openzeppelin/contracts/access/AccessControl.sol\":6373:6385  _msgSender() */\n      tag_385\n        /* \"@openzeppelin/contracts/utils/Context.sol\":735:745  msg.sender */\n      caller\n      swap1\n        /* \"@openzeppelin/contracts/utils/Context.sol\":656:752  function _msgSender() internal view virtual returns (address) {... */\n      jump\n        /* \"@openzeppelin/contracts/access/AccessControl.sol\":6373:6385  _msgSender() */\n    tag_385:\n      sub(shl(0xa0, 0x01), 0x01)\n        /* \"@openzeppelin/contracts/access/AccessControl.sol\":6346:6386  RoleGranted(role, account, _msgSender()) */\n      and\n        /* \"@openzeppelin/contracts/access/AccessControl.sol\":6364:6371  account */\n      dup3\n      sub(shl(0xa0, 0x01), 0x01)\n        /* \"@openzeppelin/contracts/access/AccessControl.sol\":6346:6386  RoleGranted(role, account, _msgSender()) */\n      and\n        /* \"@openzeppelin/contracts/access/AccessControl.sol\":6358:6362  role */\n      dup5\n        /* \"@openzeppelin/contracts/access/AccessControl.sol\":6346:6386  RoleGranted(role, account, _msgSender()) */\n      0x2f8788117e7eff1d82e926ec794901d17c78024a50270940304540a733656f0d\n      mload(0x40)\n      mload(0x40)\n      dup1\n      swap2\n      sub\n      swap1\n      log4\n      pop\n        /* \"@openzeppelin/contracts/access/AccessControl.sol\":6407:6411  true */\n      0x01\n        /* \"@openzeppelin/contracts/access/AccessControl.sol\":6400:6411  return true */\n      jump(tag_141)\n        /* \"@openzeppelin/contracts/access/AccessControl.sol\":6248:6465  if (!hasRole(role, account)) {... */\n    tag_384:\n      pop\n        /* \"@openzeppelin/contracts/access/AccessControl.sol\":6449:6454  false */\n      0x00\n        /* \"@openzeppelin/contracts/access/AccessControl.sol\":6442:6454  return false */\n      jump(tag_141)\n        /* \"@openzeppelin/contracts/access/AccessControl.sol\":6708:7025  function _revokeRole(bytes32 role, address account) internal virtual returns (bool) {... */\n    tag_156:\n        /* \"@openzeppelin/contracts/access/AccessControl.sol\":6786:6790  bool */\n      0x00\n        /* \"@openzeppelin/contracts/access/AccessControl.sol\":6806:6828  hasRole(role, account) */\n      tag_389\n        /* \"@openzeppelin/contracts/access/AccessControl.sol\":6814:6818  role */\n      dup4\n        /* \"@openzeppelin/contracts/access/AccessControl.sol\":6820:6827  account */\n      dup4\n        /* \"@openzeppelin/contracts/access/AccessControl.sol\":6806:6813  hasRole */\n      tag_95\n        /* \"@openzeppelin/contracts/access/AccessControl.sol\":6806:6828  hasRole(role, account) */\n      jump\t// in\n    tag_389:\n        /* \"@openzeppelin/contracts/access/AccessControl.sol\":6802:7019  if (hasRole(role, account)) {... */\n      iszero\n      tag_384\n      jumpi\n        /* \"@openzeppelin/contracts/access/AccessControl.sol\":6876:6881  false */\n      0x00\n        /* \"@openzeppelin/contracts/access/AccessControl.sol\":6844:6856  _roles[role] */\n      dup4\n      dup2\n      mstore\n      0x20\n      dup2\n      dup2\n      mstore\n      0x40\n      dup1\n      dup4\n      keccak256\n      sub(shl(0xa0, 0x01), 0x01)\n        /* \"@openzeppelin/contracts/access/AccessControl.sol\":6844:6873  _roles[role].hasRole[account] */\n      dup7\n      and\n      dup1\n      dup6\n      mstore\n      swap3\n      mstore\n      dup1\n      dup4\n      keccak256\n        /* \"@openzeppelin/contracts/access/AccessControl.sol\":6844:6881  _roles[role].hasRole[account] = false */\n      dup1\n      sload\n      not(0xff)\n      and\n      swap1\n      sstore\n        /* \"@openzeppelin/contracts/access/AccessControl.sol\":6900:6940  RoleRevoked(role, account, _msgSender()) */\n      mload\n        /* \"@openzeppelin/contracts/utils/Context.sol\":735:745  msg.sender */\n      caller\n      swap3\n        /* \"@openzeppelin/contracts/access/AccessControl.sol\":6844:6856  _roles[role] */\n      dup7\n      swap2\n        /* \"@openzeppelin/contracts/access/AccessControl.sol\":6900:6940  RoleRevoked(role, account, _msgSender()) */\n      0xf6391f5c32d9c69d2a47ea670b442974b53935d1edc7fd64eb21e047a839171b\n      swap2\n        /* \"@openzeppelin/contracts/access/AccessControl.sol\":6876:6881  false */\n      swap1\n        /* \"@openzeppelin/contracts/access/AccessControl.sol\":6900:6940  RoleRevoked(role, account, _msgSender()) */\n      log4\n      pop\n        /* \"@openzeppelin/contracts/access/AccessControl.sol\":6961:6965  true */\n      0x01\n        /* \"@openzeppelin/contracts/access/AccessControl.sol\":6954:6965  return true */\n      jump(tag_141)\n        /* \"@openzeppelin/contracts/security/ReentrancyGuard.sol\":2336:2623  function _nonReentrantBefore() private {... */\n    tag_163:\n        /* \"@openzeppelin/contracts/security/ReentrancyGuard.sol\":1759:1760  2 */\n      0x02\n        /* \"@openzeppelin/contracts/security/ReentrancyGuard.sol\":2468:2475  _status */\n      sload(0x01)\n        /* \"@openzeppelin/contracts/security/ReentrancyGuard.sol\":2468:2487  _status != _ENTERED */\n      sub\n        /* \"@openzeppelin/contracts/security/ReentrancyGuard.sol\":2460:2523  require(_status != _ENTERED, \"ReentrancyGuard: reentrant call\") */\n      tag_394\n      jumpi\n      mload(0x40)\n      shl(0xe5, 0x461bcd)\n      dup2\n      mstore\n        /* \"#utility.yul\":15766:15768   */\n      0x20\n        /* \"@openzeppelin/contracts/security/ReentrancyGuard.sol\":2460:2523  require(_status != _ENTERED, \"ReentrancyGuard: reentrant call\") */\n      0x04\n      dup3\n      add\n        /* \"#utility.yul\":15748:15769   */\n      mstore\n        /* \"#utility.yul\":15805:15807   */\n      0x1f\n        /* \"#utility.yul\":15785:15803   */\n      0x24\n      dup3\n      add\n        /* \"#utility.yul\":15778:15808   */\n      mstore\n        /* \"#utility.yul\":15844:15877   */\n      0x5265656e7472616e637947756172643a207265656e7472616e742063616c6c00\n        /* \"#utility.yul\":15824:15842   */\n      0x44\n      dup3\n      add\n        /* \"#utility.yul\":15817:15878   */\n      mstore\n        /* \"#utility.yul\":15895:15913   */\n      0x64\n      add\n        /* \"@openzeppelin/contracts/security/ReentrancyGuard.sol\":2460:2523  require(_status != _ENTERED, \"ReentrancyGuard: reentrant call\") */\n      tag_166\n        /* \"#utility.yul\":15564:15919   */\n      jump\n        /* \"@openzeppelin/contracts/security/ReentrancyGuard.sol\":2460:2523  require(_status != _ENTERED, \"ReentrancyGuard: reentrant call\") */\n    tag_394:\n        /* \"@openzeppelin/contracts/security/ReentrancyGuard.sol\":1759:1760  2 */\n      0x02\n        /* \"@openzeppelin/contracts/security/ReentrancyGuard.sol\":2598:2605  _status */\n      0x01\n        /* \"@openzeppelin/contracts/security/ReentrancyGuard.sol\":2598:2616  _status = _ENTERED */\n      sstore\n        /* \"@openzeppelin/contracts/security/ReentrancyGuard.sol\":2336:2623  function _nonReentrantBefore() private {... */\n      jump\t// out\n        /* \"@openzeppelin/contracts/token/ERC20/utils/SafeERC20.sol\":1219:1379  function safeTransfer(IERC20 token, address to, uint256 value) internal {... */\n    tag_180:\n        /* \"@openzeppelin/contracts/token/ERC20/utils/SafeERC20.sol\":1328:1371  abi.encodeCall(token.transfer, (to, value)) */\n      mload(0x40)\n      sub(shl(0xa0, 0x01), 0x01)\n        /* \"#utility.yul\":16116:16148   */\n      dup4\n      dup2\n      and\n        /* \"@openzeppelin/contracts/token/ERC20/utils/SafeERC20.sol\":1328:1371  abi.encodeCall(token.transfer, (to, value)) */\n      0x24\n      dup4\n      add\n        /* \"#utility.yul\":16098:16149   */\n      mstore\n        /* \"#utility.yul\":16165:16183   */\n      0x44\n      dup3\n      add\n        /* \"#utility.yul\":16158:16192   */\n      dup4\n      swap1\n      mstore\n        /* \"@openzeppelin/contracts/token/ERC20/utils/SafeERC20.sol\":1301:1372  _callOptionalReturn(token, abi.encodeCall(token.transfer, (to, value))) */\n      tag_155\n      swap2\n        /* \"@openzeppelin/contracts/token/ERC20/utils/SafeERC20.sol\":1321:1326  token */\n      dup6\n      swap2\n        /* \"@openzeppelin/contracts/token/ERC20/utils/SafeERC20.sol\":1343:1357  token.transfer */\n      dup3\n      and\n      swap1\n      0xa9059cbb\n      swap1\n        /* \"#utility.yul\":16071:16089   */\n      0x64\n      add\n        /* \"@openzeppelin/contracts/token/ERC20/utils/SafeERC20.sol\":1328:1371  abi.encodeCall(token.transfer, (to, value)) */\n    tag_399:\n      mload(0x40)\n      0x20\n      dup2\n      dup4\n      sub\n      sub\n      dup2\n      mstore\n      swap1\n      0x40\n      mstore\n      swap2\n      pop\n      0xe0\n      shl\n      0x20\n      dup3\n      add\n      dup1\n      mload\n      sub(shl(0xe0, 0x01), 0x01)\n      dup4\n      dup2\n      dup4\n      and\n      or\n      dup4\n      mstore\n      pop\n      pop\n      pop\n      pop\n        /* \"@openzeppelin/contracts/token/ERC20/utils/SafeERC20.sol\":1301:1320  _callOptionalReturn */\n      tag_401\n        /* \"@openzeppelin/contracts/token/ERC20/utils/SafeERC20.sol\":1301:1372  _callOptionalReturn(token, abi.encodeCall(token.transfer, (to, value))) */\n      jump\t// in\n        /* \"@openzeppelin/contracts/token/ERC20/utils/SafeERC20.sol\":1618:1806  function safeTransferFrom(IERC20 token, address from, address to, uint256 value) internal {... */\n    tag_204:\n        /* \"@openzeppelin/contracts/token/ERC20/utils/SafeERC20.sol\":1745:1798  abi.encodeCall(token.transferFrom, (from, to, value)) */\n      mload(0x40)\n      sub(shl(0xa0, 0x01), 0x01)\n        /* \"#utility.yul\":16461:16476   */\n      dup5\n      dup2\n      and\n        /* \"@openzeppelin/contracts/token/ERC20/utils/SafeERC20.sol\":1745:1798  abi.encodeCall(token.transferFrom, (from, to, value)) */\n      0x24\n      dup4\n      add\n        /* \"#utility.yul\":16443:16477   */\n      mstore\n        /* \"#utility.yul\":16513:16528   */\n      dup4\n      dup2\n      and\n        /* \"#utility.yul\":16493:16511   */\n      0x44\n      dup4\n      add\n        /* \"#utility.yul\":16486:16529   */\n      mstore\n        /* \"#utility.yul\":16545:16563   */\n      0x64\n      dup3\n      add\n        /* \"#utility.yul\":16538:16572   */\n      dup4\n      swap1\n      mstore\n        /* \"@openzeppelin/contracts/token/ERC20/utils/SafeERC20.sol\":1718:1799  _callOptionalReturn(token, abi.encodeCall(token.transferFrom, (from, to, value))) */\n      tag_149\n      swap2\n        /* \"@openzeppelin/contracts/token/ERC20/utils/SafeERC20.sol\":1738:1743  token */\n      dup7\n      swap2\n        /* \"@openzeppelin/contracts/token/ERC20/utils/SafeERC20.sol\":1760:1778  token.transferFrom */\n      dup3\n      and\n      swap1\n      0x23b872dd\n      swap1\n        /* \"#utility.yul\":16378:16396   */\n      0x84\n      add\n        /* \"@openzeppelin/contracts/token/ERC20/utils/SafeERC20.sol\":1745:1798  abi.encodeCall(token.transferFrom, (from, to, value)) */\n      tag_399\n        /* \"#utility.yul\":16203:16578   */\n      jump\n        /* \"LibertyFinancialChain/LiberttFinancial/exchange.sol\":9200:9386  function tokenInOutAllowed(address tokenIn, address tokenOut) internal view returns(bool) {... */\n    tag_309:\n        /* \"LibertyFinancialChain/LiberttFinancial/exchange.sol\":9284:9288  bool */\n      0x00\n        /* \"LibertyFinancialChain/LiberttFinancial/exchange.sol\":9318:9326  tokenOut */\n      dup2\n      sub(shl(0xa0, 0x01), 0x01)\n        /* \"LibertyFinancialChain/LiberttFinancial/exchange.sol\":9307:9326  tokenIn != tokenOut */\n      and\n        /* \"LibertyFinancialChain/LiberttFinancial/exchange.sol\":9307:9314  tokenIn */\n      dup4\n      sub(shl(0xa0, 0x01), 0x01)\n        /* \"LibertyFinancialChain/LiberttFinancial/exchange.sol\":9307:9326  tokenIn != tokenOut */\n      and\n      eq\n      iszero\n        /* \"LibertyFinancialChain/LiberttFinancial/exchange.sol\":9307:9352  tokenIn != tokenOut && allowedTokens[tokenIn] */\n      dup1\n      iszero\n      tag_408\n      jumpi\n      pop\n      sub(shl(0xa0, 0x01), 0x01)\n        /* \"LibertyFinancialChain/LiberttFinancial/exchange.sol\":9330:9352  allowedTokens[tokenIn] */\n      dup4\n      and\n      0x00\n      swap1\n      dup2\n      mstore\n        /* \"LibertyFinancialChain/LiberttFinancial/exchange.sol\":9330:9343  allowedTokens */\n      0x04\n        /* \"LibertyFinancialChain/LiberttFinancial/exchange.sol\":9330:9352  allowedTokens[tokenIn] */\n      0x20\n      mstore\n      0x40\n      swap1\n      keccak256\n      sload\n      0xff\n      and\n        /* \"LibertyFinancialChain/LiberttFinancial/exchange.sol\":9307:9352  tokenIn != tokenOut && allowedTokens[tokenIn] */\n    tag_408:\n        /* \"LibertyFinancialChain/LiberttFinancial/exchange.sol\":9307:9379  tokenIn != tokenOut && allowedTokens[tokenIn] && allowedTokens[tokenOut] */\n      dup1\n      iszero\n      tag_409\n      jumpi\n      pop\n      sub(shl(0xa0, 0x01), 0x01)\n        /* \"LibertyFinancialChain/LiberttFinancial/exchange.sol\":9356:9379  allowedTokens[tokenOut] */\n      dup3\n      and\n      0x00\n      swap1\n      dup2\n      mstore\n        /* \"LibertyFinancialChain/LiberttFinancial/exchange.sol\":9356:9369  allowedTokens */\n      0x04\n        /* \"LibertyFinancialChain/LiberttFinancial/exchange.sol\":9356:9379  allowedTokens[tokenOut] */\n      0x20\n      mstore\n      0x40\n      swap1\n      keccak256\n      sload\n      0xff\n      and\n        /* \"LibertyFinancialChain/LiberttFinancial/exchange.sol\":9307:9379  tokenIn != tokenOut && allowedTokens[tokenIn] && allowedTokens[tokenOut] */\n    tag_409:\n        /* \"LibertyFinancialChain/LiberttFinancial/exchange.sol\":9300:9379  return tokenIn != tokenOut && allowedTokens[tokenIn] && allowedTokens[tokenOut] */\n      swap4\n        /* \"LibertyFinancialChain/LiberttFinancial/exchange.sol\":9200:9386  function tokenInOutAllowed(address tokenIn, address tokenOut) internal view returns(bool) {... */\n      swap3\n      pop\n      pop\n      pop\n      jump\t// out\n        /* \"@openzeppelin/contracts/access/AccessControl.sol\":3408:3605  function _checkRole(bytes32 role, address account) internal view virtual {... */\n    tag_381:\n        /* \"@openzeppelin/contracts/access/AccessControl.sol\":3496:3518  hasRole(role, account) */\n      tag_411\n        /* \"@openzeppelin/contracts/access/AccessControl.sol\":3504:3508  role */\n      dup3\n        /* \"@openzeppelin/contracts/access/AccessControl.sol\":3510:3517  account */\n      dup3\n        /* \"@openzeppelin/contracts/access/AccessControl.sol\":3496:3503  hasRole */\n      tag_95\n        /* \"@openzeppelin/contracts/access/AccessControl.sol\":3496:3518  hasRole(role, account) */\n      jump\t// in\n    tag_411:\n        /* \"@openzeppelin/contracts/access/AccessControl.sol\":3491:3599  if (!hasRole(role, account)) {... */\n      tag_160\n      jumpi\n        /* \"@openzeppelin/contracts/access/AccessControl.sol\":3541:3588  AccessControlUnauthorizedAccount(account, role) */\n      mload(0x40)\n      shl(0xe0, 0xe2517d3f)\n      dup2\n      mstore\n      sub(shl(0xa0, 0x01), 0x01)\n        /* \"#utility.yul\":16116:16148   */\n      dup3\n      and\n        /* \"@openzeppelin/contracts/access/AccessControl.sol\":3541:3588  AccessControlUnauthorizedAccount(account, role) */\n      0x04\n      dup3\n      add\n        /* \"#utility.yul\":16098:16149   */\n      mstore\n        /* \"#utility.yul\":16165:16183   */\n      0x24\n      dup2\n      add\n        /* \"#utility.yul\":16158:16192   */\n      dup4\n      swap1\n      mstore\n        /* \"#utility.yul\":16071:16089   */\n      0x44\n      add\n        /* \"@openzeppelin/contracts/access/AccessControl.sol\":3541:3588  AccessControlUnauthorizedAccount(account, role) */\n      tag_166\n        /* \"#utility.yul\":15924:16198   */\n      jump\n        /* \"@openzeppelin/contracts/token/ERC20/utils/SafeERC20.sol\":8370:9090  function _callOptionalReturn(IERC20 token, bytes memory data) private {... */\n    tag_401:\n        /* \"@openzeppelin/contracts/token/ERC20/utils/SafeERC20.sol\":8450:8468  uint256 returnSize */\n      0x00\n        /* \"@openzeppelin/contracts/token/ERC20/utils/SafeERC20.sol\":8478:8497  uint256 returnValue */\n      dup1\n        /* \"@openzeppelin/contracts/token/ERC20/utils/SafeERC20.sol\":8616:8620  0x20 */\n      0x20\n        /* \"@openzeppelin/contracts/token/ERC20/utils/SafeERC20.sol\":8613:8614  0 */\n      0x00\n        /* \"@openzeppelin/contracts/token/ERC20/utils/SafeERC20.sol\":8606:8610  data */\n      dup5\n        /* \"@openzeppelin/contracts/token/ERC20/utils/SafeERC20.sol\":8600:8611  mload(data) */\n      mload\n        /* \"@openzeppelin/contracts/token/ERC20/utils/SafeERC20.sol\":8593:8597  0x20 */\n      0x20\n        /* \"@openzeppelin/contracts/token/ERC20/utils/SafeERC20.sol\":8587:8591  data */\n      dup7\n        /* \"@openzeppelin/contracts/token/ERC20/utils/SafeERC20.sol\":8583:8598  add(data, 0x20) */\n      add\n        /* \"@openzeppelin/contracts/token/ERC20/utils/SafeERC20.sol\":8580:8581  0 */\n      0x00\n        /* \"@openzeppelin/contracts/token/ERC20/utils/SafeERC20.sol\":8573:8578  token */\n      dup9\n        /* \"@openzeppelin/contracts/token/ERC20/utils/SafeERC20.sol\":8566:8571  gas() */\n      gas\n        /* \"@openzeppelin/contracts/token/ERC20/utils/SafeERC20.sol\":8561:8621  call(gas(), token, 0, add(data, 0x20), mload(data), 0, 0x20) */\n      call\n        /* \"@openzeppelin/contracts/token/ERC20/utils/SafeERC20.sol\":8673:8680  success */\n      dup1\n        /* \"@openzeppelin/contracts/token/ERC20/utils/SafeERC20.sol\":8663:8839  if iszero(success) {... */\n      tag_416\n      jumpi\n        /* \"@openzeppelin/contracts/token/ERC20/utils/SafeERC20.sol\":8717:8721  0x40 */\n      0x40\n        /* \"@openzeppelin/contracts/token/ERC20/utils/SafeERC20.sol\":8711:8722  mload(0x40) */\n      mload\n        /* \"@openzeppelin/contracts/token/ERC20/utils/SafeERC20.sol\":8762:8778  returndatasize() */\n      returndatasize\n        /* \"@openzeppelin/contracts/token/ERC20/utils/SafeERC20.sol\":8759:8760  0 */\n      0x00\n        /* \"@openzeppelin/contracts/token/ERC20/utils/SafeERC20.sol\":8754:8757  ptr */\n      dup3\n        /* \"@openzeppelin/contracts/token/ERC20/utils/SafeERC20.sol\":8739:8779  returndatacopy(ptr, 0, returndatasize()) */\n      returndatacopy\n        /* \"@openzeppelin/contracts/token/ERC20/utils/SafeERC20.sol\":8808:8824  returndatasize() */\n      returndatasize\n        /* \"@openzeppelin/contracts/token/ERC20/utils/SafeERC20.sol\":8803:8806  ptr */\n      dup2\n        /* \"@openzeppelin/contracts/token/ERC20/utils/SafeERC20.sol\":8796:8825  revert(ptr, returndatasize()) */\n      revert\n        /* \"@openzeppelin/contracts/token/ERC20/utils/SafeERC20.sol\":8663:8839  if iszero(success) {... */\n    tag_416:\n      pop\n      pop\n        /* \"@openzeppelin/contracts/token/ERC20/utils/SafeERC20.sol\":8916:8917  0 */\n      0x00\n        /* \"@openzeppelin/contracts/token/ERC20/utils/SafeERC20.sol\":8910:8918  mload(0) */\n      mload\n        /* \"@openzeppelin/contracts/token/ERC20/utils/SafeERC20.sol\":8866:8882  returndatasize() */\n      returndatasize\n      swap2\n      pop\n        /* \"@openzeppelin/contracts/token/ERC20/utils/SafeERC20.sol\":8942:8957  returnSize == 0 */\n      dup2\n      iszero\n        /* \"@openzeppelin/contracts/token/ERC20/utils/SafeERC20.sol\":8942:9010  returnSize == 0 ? address(token).code.length == 0 : returnValue != 1 */\n      tag_417\n      jumpi\n        /* \"@openzeppelin/contracts/token/ERC20/utils/SafeERC20.sol\":8994:9005  returnValue */\n      dup1\n        /* \"@openzeppelin/contracts/token/ERC20/utils/SafeERC20.sol\":9009:9010  1 */\n      0x01\n        /* \"@openzeppelin/contracts/token/ERC20/utils/SafeERC20.sol\":8994:9010  returnValue != 1 */\n      eq\n      iszero\n        /* \"@openzeppelin/contracts/token/ERC20/utils/SafeERC20.sol\":8942:9010  returnSize == 0 ? address(token).code.length == 0 : returnValue != 1 */\n      jump(tag_418)\n    tag_417:\n      sub(shl(0xa0, 0x01), 0x01)\n        /* \"@openzeppelin/contracts/token/ERC20/utils/SafeERC20.sol\":8960:8986  address(token).code.length */\n      dup5\n      and\n      extcodesize\n        /* \"@openzeppelin/contracts/token/ERC20/utils/SafeERC20.sol\":8960:8991  address(token).code.length == 0 */\n      iszero\n        /* \"@openzeppelin/contracts/token/ERC20/utils/SafeERC20.sol\":8942:9010  returnSize == 0 ? address(token).code.length == 0 : returnValue != 1 */\n    tag_418:\n        /* \"@openzeppelin/contracts/token/ERC20/utils/SafeERC20.sol\":8938:9084  if (returnSize == 0 ? address(token).code.length == 0 : returnValue != 1) {... */\n      iszero\n      tag_149\n      jumpi\n        /* \"@openzeppelin/contracts/token/ERC20/utils/SafeERC20.sol\":9033:9073  SafeERC20FailedOperation(address(token)) */\n      mload(0x40)\n      shl(0xe0, 0x5274afe7)\n      dup2\n      mstore\n      sub(shl(0xa0, 0x01), 0x01)\n        /* \"#utility.yul\":1912:1944   */\n      dup6\n      and\n        /* \"@openzeppelin/contracts/token/ERC20/utils/SafeERC20.sol\":9033:9073  SafeERC20FailedOperation(address(token)) */\n      0x04\n      dup3\n      add\n        /* \"#utility.yul\":1894:1945   */\n      mstore\n        /* \"#utility.yul\":1867:1885   */\n      0x24\n      add\n        /* \"@openzeppelin/contracts/token/ERC20/utils/SafeERC20.sol\":9033:9073  SafeERC20FailedOperation(address(token)) */\n      tag_166\n        /* \"#utility.yul\":1748:1951   */\n      jump\n        /* \"#utility.yul\":14:300   */\n    tag_36:\n        /* \"#utility.yul\":72:78   */\n      0x00\n        /* \"#utility.yul\":125:127   */\n      0x20\n        /* \"#utility.yul\":113:122   */\n      dup3\n        /* \"#utility.yul\":104:111   */\n      dup5\n        /* \"#utility.yul\":100:123   */\n      sub\n        /* \"#utility.yul\":96:128   */\n      slt\n        /* \"#utility.yul\":93:145   */\n      iszero\n      tag_427\n      jumpi\n        /* \"#utility.yul\":141:142   */\n      0x00\n        /* \"#utility.yul\":138:139   */\n      dup1\n        /* \"#utility.yul\":131:143   */\n      revert\n        /* \"#utility.yul\":93:145   */\n    tag_427:\n        /* \"#utility.yul\":167:190   */\n      dup2\n      calldataload\n      not(sub(shl(0xe0, 0x01), 0x01))\n        /* \"#utility.yul\":219:251   */\n      dup2\n      and\n        /* \"#utility.yul\":209:252   */\n      dup2\n      eq\n        /* \"#utility.yul\":199:270   */\n      tag_409\n      jumpi\n        /* \"#utility.yul\":266:267   */\n      0x00\n        /* \"#utility.yul\":263:264   */\n      dup1\n        /* \"#utility.yul\":256:268   */\n      revert\n        /* \"#utility.yul\":497:677   */\n    tag_42:\n        /* \"#utility.yul\":556:562   */\n      0x00\n        /* \"#utility.yul\":609:611   */\n      0x20\n        /* \"#utility.yul\":597:606   */\n      dup3\n        /* \"#utility.yul\":588:595   */\n      dup5\n        /* \"#utility.yul\":584:607   */\n      sub\n        /* \"#utility.yul\":580:612   */\n      slt\n        /* \"#utility.yul\":577:629   */\n      iszero\n      tag_431\n      jumpi\n        /* \"#utility.yul\":625:626   */\n      0x00\n        /* \"#utility.yul\":622:623   */\n      dup1\n        /* \"#utility.yul\":615:627   */\n      revert\n        /* \"#utility.yul\":577:629   */\n    tag_431:\n      pop\n        /* \"#utility.yul\":648:671   */\n      calldataload\n      swap2\n        /* \"#utility.yul\":497:677   */\n      swap1\n      pop\n      jump\t// out\n        /* \"#utility.yul\":864:1037   */\n    tag_421:\n        /* \"#utility.yul\":932:952   */\n      dup1\n      calldataload\n      sub(shl(0xa0, 0x01), 0x01)\n        /* \"#utility.yul\":981:1012   */\n      dup2\n      and\n        /* \"#utility.yul\":971:1013   */\n      dup2\n      eq\n        /* \"#utility.yul\":961:1031   */\n      tag_434\n      jumpi\n        /* \"#utility.yul\":1027:1028   */\n      0x00\n        /* \"#utility.yul\":1024:1025   */\n      dup1\n        /* \"#utility.yul\":1017:1029   */\n      revert\n        /* \"#utility.yul\":961:1031   */\n    tag_434:\n        /* \"#utility.yul\":864:1037   */\n      swap2\n      swap1\n      pop\n      jump\t// out\n        /* \"#utility.yul\":1042:1296   */\n    tag_48:\n        /* \"#utility.yul\":1110:1116   */\n      0x00\n        /* \"#utility.yul\":1118:1124   */\n      dup1\n        /* \"#utility.yul\":1171:1173   */\n      0x40\n        /* \"#utility.yul\":1159:1168   */\n      dup4\n        /* \"#utility.yul\":1150:1157   */\n      dup6\n        /* \"#utility.yul\":1146:1169   */\n      sub\n        /* \"#utility.yul\":1142:1174   */\n      slt\n        /* \"#utility.yul\":1139:1191   */\n      iszero\n      tag_436\n      jumpi\n        /* \"#utility.yul\":1187:1188   */\n      0x00\n        /* \"#utility.yul\":1184:1185   */\n      dup1\n        /* \"#utility.yul\":1177:1189   */\n      revert\n        /* \"#utility.yul\":1139:1191   */\n    tag_436:\n        /* \"#utility.yul\":1223:1232   */\n      dup3\n        /* \"#utility.yul\":1210:1233   */\n      calldataload\n        /* \"#utility.yul\":1200:1233   */\n      swap2\n      pop\n        /* \"#utility.yul\":1252:1290   */\n      tag_437\n        /* \"#utility.yul\":1286:1288   */\n      0x20\n        /* \"#utility.yul\":1275:1284   */\n      dup5\n        /* \"#utility.yul\":1271:1289   */\n      add\n        /* \"#utility.yul\":1252:1290   */\n      tag_421\n      jump\t// in\n    tag_437:\n        /* \"#utility.yul\":1242:1290   */\n      swap1\n      pop\n        /* \"#utility.yul\":1042:1296   */\n      swap3\n      pop\n      swap3\n      swap1\n      pop\n      jump\t// out\n        /* \"#utility.yul\":1483:1743   */\n    tag_56:\n        /* \"#utility.yul\":1551:1557   */\n      0x00\n        /* \"#utility.yul\":1559:1565   */\n      dup1\n        /* \"#utility.yul\":1612:1614   */\n      0x40\n        /* \"#utility.yul\":1600:1609   */\n      dup4\n        /* \"#utility.yul\":1591:1598   */\n      dup6\n        /* \"#utility.yul\":1587:1610   */\n      sub\n        /* \"#utility.yul\":1583:1615   */\n      slt\n        /* \"#utility.yul\":1580:1632   */\n      iszero\n      tag_440\n      jumpi\n        /* \"#utility.yul\":1628:1629   */\n      0x00\n        /* \"#utility.yul\":1625:1626   */\n      dup1\n        /* \"#utility.yul\":1618:1630   */\n      revert\n        /* \"#utility.yul\":1580:1632   */\n    tag_440:\n        /* \"#utility.yul\":1651:1680   */\n      tag_441\n        /* \"#utility.yul\":1670:1679   */\n      dup4\n        /* \"#utility.yul\":1651:1680   */\n      tag_421\n      jump\t// in\n    tag_441:\n        /* \"#utility.yul\":1641:1680   */\n      swap2\n      pop\n        /* \"#utility.yul\":1699:1737   */\n      tag_437\n        /* \"#utility.yul\":1733:1735   */\n      0x20\n        /* \"#utility.yul\":1722:1731   */\n      dup5\n        /* \"#utility.yul\":1718:1736   */\n      add\n        /* \"#utility.yul\":1699:1737   */\n      tag_421\n      jump\t// in\n        /* \"#utility.yul\":1956:2142   */\n    tag_68:\n        /* \"#utility.yul\":2015:2021   */\n      0x00\n        /* \"#utility.yul\":2068:2070   */\n      0x20\n        /* \"#utility.yul\":2056:2065   */\n      dup3\n        /* \"#utility.yul\":2047:2054   */\n      dup5\n        /* \"#utility.yul\":2043:2066   */\n      sub\n        /* \"#utility.yul\":2039:2071   */\n      slt\n        /* \"#utility.yul\":2036:2088   */\n      iszero\n      tag_445\n      jumpi\n        /* \"#utility.yul\":2084:2085   */\n      0x00\n        /* \"#utility.yul\":2081:2082   */\n      dup1\n        /* \"#utility.yul\":2074:2086   */\n      revert\n        /* \"#utility.yul\":2036:2088   */\n    tag_445:\n        /* \"#utility.yul\":2107:2136   */\n      tag_409\n        /* \"#utility.yul\":2126:2135   */\n      dup3\n        /* \"#utility.yul\":2107:2136   */\n      tag_421\n      jump\t// in\n        /* \"#utility.yul\":2332:2798   */\n    tag_76:\n        /* \"#utility.yul\":2427:2433   */\n      0x00\n        /* \"#utility.yul\":2435:2441   */\n      dup1\n        /* \"#utility.yul\":2443:2449   */\n      0x00\n        /* \"#utility.yul\":2451:2457   */\n      dup1\n        /* \"#utility.yul\":2459:2465   */\n      0x00\n        /* \"#utility.yul\":2512:2515   */\n      0xa0\n        /* \"#utility.yul\":2500:2509   */\n      dup7\n        /* \"#utility.yul\":2491:2498   */\n      dup9\n        /* \"#utility.yul\":2487:2510   */\n      sub\n        /* \"#utility.yul\":2483:2516   */\n      slt\n        /* \"#utility.yul\":2480:2533   */\n      iszero\n      tag_450\n      jumpi\n        /* \"#utility.yul\":2529:2530   */\n      0x00\n        /* \"#utility.yul\":2526:2527   */\n      dup1\n        /* \"#utility.yul\":2519:2531   */\n      revert\n        /* \"#utility.yul\":2480:2533   */\n    tag_450:\n        /* \"#utility.yul\":2552:2581   */\n      tag_451\n        /* \"#utility.yul\":2571:2580   */\n      dup7\n        /* \"#utility.yul\":2552:2581   */\n      tag_421\n      jump\t// in\n    tag_451:\n        /* \"#utility.yul\":2542:2581   */\n      swap5\n      pop\n        /* \"#utility.yul\":2600:2638   */\n      tag_452\n        /* \"#utility.yul\":2634:2636   */\n      0x20\n        /* \"#utility.yul\":2623:2632   */\n      dup8\n        /* \"#utility.yul\":2619:2637   */\n      add\n        /* \"#utility.yul\":2600:2638   */\n      tag_421\n      jump\t// in\n    tag_452:\n        /* \"#utility.yul\":2332:2798   */\n      swap5\n      swap8\n        /* \"#utility.yul\":2590:2638   */\n      swap5\n      swap7\n      pop\n      pop\n      pop\n      pop\n        /* \"#utility.yul\":2685:2687   */\n      0x40\n        /* \"#utility.yul\":2670:2688   */\n      dup4\n      add\n        /* \"#utility.yul\":2657:2689   */\n      calldataload\n      swap3\n        /* \"#utility.yul\":2736:2738   */\n      0x60\n        /* \"#utility.yul\":2721:2739   */\n      dup2\n      add\n        /* \"#utility.yul\":2708:2740   */\n      calldataload\n      swap3\n        /* \"#utility.yul\":2787:2790   */\n      0x80\n        /* \"#utility.yul\":2772:2791   */\n      swap1\n      swap2\n      add\n        /* \"#utility.yul\":2759:2792   */\n      calldataload\n      swap2\n      pop\n        /* \"#utility.yul\":2332:2798   */\n      jump\t// out\n        /* \"#utility.yul\":2803:3057   */\n    tag_80:\n        /* \"#utility.yul\":2871:2877   */\n      0x00\n        /* \"#utility.yul\":2879:2885   */\n      dup1\n        /* \"#utility.yul\":2932:2934   */\n      0x40\n        /* \"#utility.yul\":2920:2929   */\n      dup4\n        /* \"#utility.yul\":2911:2918   */\n      dup6\n        /* \"#utility.yul\":2907:2930   */\n      sub\n        /* \"#utility.yul\":2903:2935   */\n      slt\n        /* \"#utility.yul\":2900:2952   */\n      iszero\n      tag_454\n      jumpi\n        /* \"#utility.yul\":2948:2949   */\n      0x00\n        /* \"#utility.yul\":2945:2946   */\n      dup1\n        /* \"#utility.yul\":2938:2950   */\n      revert\n        /* \"#utility.yul\":2900:2952   */\n    tag_454:\n        /* \"#utility.yul\":2971:3000   */\n      tag_455\n        /* \"#utility.yul\":2990:2999   */\n      dup4\n        /* \"#utility.yul\":2971:3000   */\n      tag_421\n      jump\t// in\n    tag_455:\n        /* \"#utility.yul\":2961:3000   */\n      swap5\n        /* \"#utility.yul\":3047:3049   */\n      0x20\n        /* \"#utility.yul\":3032:3050   */\n      swap4\n      swap1\n      swap4\n      add\n        /* \"#utility.yul\":3019:3051   */\n      calldataload\n      swap4\n      pop\n      pop\n      pop\n        /* \"#utility.yul\":2803:3057   */\n      jump\t// out\n        /* \"#utility.yul\":3062:3409   */\n    tag_91:\n        /* \"#utility.yul\":3127:3133   */\n      0x00\n        /* \"#utility.yul\":3135:3141   */\n      dup1\n        /* \"#utility.yul\":3188:3190   */\n      0x40\n        /* \"#utility.yul\":3176:3185   */\n      dup4\n        /* \"#utility.yul\":3167:3174   */\n      dup6\n        /* \"#utility.yul\":3163:3186   */\n      sub\n        /* \"#utility.yul\":3159:3191   */\n      slt\n        /* \"#utility.yul\":3156:3208   */\n      iszero\n      tag_457\n      jumpi\n        /* \"#utility.yul\":3204:3205   */\n      0x00\n        /* \"#utility.yul\":3201:3202   */\n      dup1\n        /* \"#utility.yul\":3194:3206   */\n      revert\n        /* \"#utility.yul\":3156:3208   */\n    tag_457:\n        /* \"#utility.yul\":3227:3256   */\n      tag_458\n        /* \"#utility.yul\":3246:3255   */\n      dup4\n        /* \"#utility.yul\":3227:3256   */\n      tag_421\n      jump\t// in\n    tag_458:\n        /* \"#utility.yul\":3217:3256   */\n      swap2\n      pop\n        /* \"#utility.yul\":3306:3308   */\n      0x20\n        /* \"#utility.yul\":3295:3304   */\n      dup4\n        /* \"#utility.yul\":3291:3309   */\n      add\n        /* \"#utility.yul\":3278:3310   */\n      calldataload\n        /* \"#utility.yul\":3353:3358   */\n      dup1\n        /* \"#utility.yul\":3346:3359   */\n      iszero\n        /* \"#utility.yul\":3339:3360   */\n      iszero\n        /* \"#utility.yul\":3332:3337   */\n      dup2\n        /* \"#utility.yul\":3329:3361   */\n      eq\n        /* \"#utility.yul\":3319:3379   */\n      tag_459\n      jumpi\n        /* \"#utility.yul\":3375:3376   */\n      0x00\n        /* \"#utility.yul\":3372:3373   */\n      dup1\n        /* \"#utility.yul\":3365:3377   */\n      revert\n        /* \"#utility.yul\":3319:3379   */\n    tag_459:\n        /* \"#utility.yul\":3398:3403   */\n      dup1\n        /* \"#utility.yul\":3388:3403   */\n      swap2\n      pop\n      pop\n        /* \"#utility.yul\":3062:3409   */\n      swap3\n      pop\n      swap3\n      swap1\n      pop\n      jump\t// out\n        /* \"#utility.yul\":3414:3811   */\n    tag_99:\n        /* \"#utility.yul\":3500:3506   */\n      0x00\n        /* \"#utility.yul\":3508:3514   */\n      dup1\n        /* \"#utility.yul\":3516:3522   */\n      0x00\n        /* \"#utility.yul\":3524:3530   */\n      dup1\n        /* \"#utility.yul\":3577:3580   */\n      0x80\n        /* \"#utility.yul\":3565:3574   */\n      dup6\n        /* \"#utility.yul\":3556:3563   */\n      dup8\n        /* \"#utility.yul\":3552:3575   */\n      sub\n        /* \"#utility.yul\":3548:3581   */\n      slt\n        /* \"#utility.yul\":3545:3598   */\n      iszero\n      tag_461\n      jumpi\n        /* \"#utility.yul\":3594:3595   */\n      0x00\n        /* \"#utility.yul\":3591:3592   */\n      dup1\n        /* \"#utility.yul\":3584:3596   */\n      revert\n        /* \"#utility.yul\":3545:3598   */\n    tag_461:\n        /* \"#utility.yul\":3617:3646   */\n      tag_462\n        /* \"#utility.yul\":3636:3645   */\n      dup6\n        /* \"#utility.yul\":3617:3646   */\n      tag_421\n      jump\t// in\n    tag_462:\n        /* \"#utility.yul\":3607:3646   */\n      swap4\n      pop\n        /* \"#utility.yul\":3665:3703   */\n      tag_463\n        /* \"#utility.yul\":3699:3701   */\n      0x20\n        /* \"#utility.yul\":3688:3697   */\n      dup7\n        /* \"#utility.yul\":3684:3702   */\n      add\n        /* \"#utility.yul\":3665:3703   */\n      tag_421\n      jump\t// in\n    tag_463:\n        /* \"#utility.yul\":3414:3811   */\n      swap4\n      swap7\n        /* \"#utility.yul\":3655:3703   */\n      swap4\n      swap6\n      pop\n      pop\n      pop\n      pop\n        /* \"#utility.yul\":3750:3752   */\n      0x40\n        /* \"#utility.yul\":3735:3753   */\n      dup3\n      add\n        /* \"#utility.yul\":3722:3754   */\n      calldataload\n      swap2\n        /* \"#utility.yul\":3801:3803   */\n      0x60\n        /* \"#utility.yul\":3786:3804   */\n      add\n        /* \"#utility.yul\":3773:3805   */\n      calldataload\n      swap1\n        /* \"#utility.yul\":3414:3811   */\n      jump\t// out\n        /* \"#utility.yul\":4575:4891   */\n    tag_115:\n        /* \"#utility.yul\":4652:4658   */\n      0x00\n        /* \"#utility.yul\":4660:4666   */\n      dup1\n        /* \"#utility.yul\":4668:4674   */\n      0x00\n        /* \"#utility.yul\":4721:4723   */\n      0x60\n        /* \"#utility.yul\":4709:4718   */\n      dup5\n        /* \"#utility.yul\":4700:4707   */\n      dup7\n        /* \"#utility.yul\":4696:4719   */\n      sub\n        /* \"#utility.yul\":4692:4724   */\n      slt\n        /* \"#utility.yul\":4689:4741   */\n      iszero\n      tag_466\n      jumpi\n        /* \"#utility.yul\":4737:4738   */\n      0x00\n        /* \"#utility.yul\":4734:4735   */\n      dup1\n        /* \"#utility.yul\":4727:4739   */\n      revert\n        /* \"#utility.yul\":4689:4741   */\n    tag_466:\n      pop\n      pop\n        /* \"#utility.yul\":4760:4783   */\n      dup2\n      calldataload\n      swap4\n        /* \"#utility.yul\":4830:4832   */\n      0x20\n        /* \"#utility.yul\":4815:4833   */\n      dup4\n      add\n        /* \"#utility.yul\":4802:4834   */\n      calldataload\n      swap4\n      pop\n        /* \"#utility.yul\":4881:4883   */\n      0x40\n        /* \"#utility.yul\":4866:4884   */\n      swap1\n      swap3\n      add\n        /* \"#utility.yul\":4853:4885   */\n      calldataload\n      swap2\n        /* \"#utility.yul\":4575:4891   */\n      swap1\n      pop\n      jump\t// out\n        /* \"#utility.yul\":5085:5413   */\n    tag_127:\n        /* \"#utility.yul\":5162:5168   */\n      0x00\n        /* \"#utility.yul\":5170:5176   */\n      dup1\n        /* \"#utility.yul\":5178:5184   */\n      0x00\n        /* \"#utility.yul\":5231:5233   */\n      0x60\n        /* \"#utility.yul\":5219:5228   */\n      dup5\n        /* \"#utility.yul\":5210:5217   */\n      dup7\n        /* \"#utility.yul\":5206:5229   */\n      sub\n        /* \"#utility.yul\":5202:5234   */\n      slt\n        /* \"#utility.yul\":5199:5251   */\n      iszero\n      tag_469\n      jumpi\n        /* \"#utility.yul\":5247:5248   */\n      0x00\n        /* \"#utility.yul\":5244:5245   */\n      dup1\n        /* \"#utility.yul\":5237:5249   */\n      revert\n        /* \"#utility.yul\":5199:5251   */\n    tag_469:\n        /* \"#utility.yul\":5270:5299   */\n      tag_470\n        /* \"#utility.yul\":5289:5298   */\n      dup5\n        /* \"#utility.yul\":5270:5299   */\n      tag_421\n      jump\t// in\n    tag_470:\n        /* \"#utility.yul\":5260:5299   */\n      swap3\n      pop\n        /* \"#utility.yul\":5318:5356   */\n      tag_471\n        /* \"#utility.yul\":5352:5354   */\n      0x20\n        /* \"#utility.yul\":5341:5350   */\n      dup6\n        /* \"#utility.yul\":5337:5355   */\n      add\n        /* \"#utility.yul\":5318:5356   */\n      tag_421\n      jump\t// in\n    tag_471:\n        /* \"#utility.yul\":5308:5356   */\n      swap2\n      pop\n        /* \"#utility.yul\":5403:5405   */\n      0x40\n        /* \"#utility.yul\":5392:5401   */\n      dup5\n        /* \"#utility.yul\":5388:5406   */\n      add\n        /* \"#utility.yul\":5375:5407   */\n      calldataload\n        /* \"#utility.yul\":5365:5407   */\n      swap1\n      pop\n        /* \"#utility.yul\":5085:5413   */\n      swap3\n      pop\n      swap3\n      pop\n      swap3\n      jump\t// out\n        /* \"#utility.yul\":5753:5880   */\n    tag_170:\n        /* \"#utility.yul\":5814:5824   */\n      0x4e487b71\n        /* \"#utility.yul\":5809:5812   */\n      0xe0\n        /* \"#utility.yul\":5805:5825   */\n      shl\n        /* \"#utility.yul\":5802:5803   */\n      0x00\n        /* \"#utility.yul\":5795:5826   */\n      mstore\n        /* \"#utility.yul\":5845:5849   */\n      0x32\n        /* \"#utility.yul\":5842:5843   */\n      0x04\n        /* \"#utility.yul\":5835:5850   */\n      mstore\n        /* \"#utility.yul\":5869:5873   */\n      0x24\n        /* \"#utility.yul\":5866:5867   */\n      0x00\n        /* \"#utility.yul\":5859:5874   */\n      revert\n        /* \"#utility.yul\":6560:6900   */\n    tag_189:\n        /* \"#utility.yul\":6762:6764   */\n      0x20\n        /* \"#utility.yul\":6744:6765   */\n      dup1\n      dup3\n      mstore\n        /* \"#utility.yul\":6801:6803   */\n      0x10\n        /* \"#utility.yul\":6781:6799   */\n      swap1\n      dup3\n      add\n        /* \"#utility.yul\":6774:6804   */\n      mstore\n      shl(0x80, 0x4964656e746963616c20746f6b656e73)\n        /* \"#utility.yul\":6835:6837   */\n      0x40\n        /* \"#utility.yul\":6820:6838   */\n      dup3\n      add\n        /* \"#utility.yul\":6813:6859   */\n      mstore\n        /* \"#utility.yul\":6891:6893   */\n      0x60\n        /* \"#utility.yul\":6876:6894   */\n      add\n      swap1\n        /* \"#utility.yul\":6560:6900   */\n      jump\t// out\n        /* \"#utility.yul\":6905:7247   */\n    tag_193:\n        /* \"#utility.yul\":7107:7109   */\n      0x20\n        /* \"#utility.yul\":7089:7110   */\n      dup1\n      dup3\n      mstore\n        /* \"#utility.yul\":7146:7148   */\n      0x12\n        /* \"#utility.yul\":7126:7144   */\n      swap1\n      dup3\n      add\n        /* \"#utility.yul\":7119:7149   */\n      mstore\n      shl(0x72, 0x151bdad95b9cc81b9bdd08185b1b1bddd959)\n        /* \"#utility.yul\":7180:7182   */\n      0x40\n        /* \"#utility.yul\":7165:7183   */\n      dup3\n      add\n        /* \"#utility.yul\":7158:7206   */\n      mstore\n        /* \"#utility.yul\":7238:7240   */\n      0x60\n        /* \"#utility.yul\":7223:7241   */\n      add\n      swap1\n        /* \"#utility.yul\":6905:7247   */\n      jump\t// out\n        /* \"#utility.yul\":7589:7716   */\n    tag_422:\n        /* \"#utility.yul\":7650:7660   */\n      0x4e487b71\n        /* \"#utility.yul\":7645:7648   */\n      0xe0\n        /* \"#utility.yul\":7641:7661   */\n      shl\n        /* \"#utility.yul\":7638:7639   */\n      0x00\n        /* \"#utility.yul\":7631:7662   */\n      mstore\n        /* \"#utility.yul\":7681:7685   */\n      0x11\n        /* \"#utility.yul\":7678:7679   */\n      0x04\n        /* \"#utility.yul\":7671:7686   */\n      mstore\n        /* \"#utility.yul\":7705:7709   */\n      0x24\n        /* \"#utility.yul\":7702:7703   */\n      0x00\n        /* \"#utility.yul\":7695:7710   */\n      revert\n        /* \"#utility.yul\":7721:7846   */\n    tag_198:\n        /* \"#utility.yul\":7786:7795   */\n      dup1\n      dup3\n      add\n        /* \"#utility.yul\":7807:7817   */\n      dup1\n      dup3\n      gt\n        /* \"#utility.yul\":7804:7840   */\n      iszero\n      tag_141\n      jumpi\n        /* \"#utility.yul\":7820:7838   */\n      tag_141\n      tag_422\n      jump\t// in\n        /* \"#utility.yul\":8188:8316   */\n    tag_207:\n        /* \"#utility.yul\":8255:8264   */\n      dup2\n      dup2\n      sub\n        /* \"#utility.yul\":8276:8287   */\n      dup2\n      dup2\n      gt\n        /* \"#utility.yul\":8273:8310   */\n      iszero\n      tag_141\n      jumpi\n        /* \"#utility.yul\":8290:8308   */\n      tag_141\n      tag_422\n      jump\t// in\n        /* \"#utility.yul\":9191:9342   */\n    tag_217:\n        /* \"#utility.yul\":9281:9285   */\n      0xff\n        /* \"#utility.yul\":9274:9286   */\n      dup3\n      dup2\n      and\n        /* \"#utility.yul\":9260:9272   */\n      dup3\n      dup3\n      and\n        /* \"#utility.yul\":9256:9287   */\n      sub\n      swap1\n        /* \"#utility.yul\":9299:9313   */\n      dup2\n      gt\n        /* \"#utility.yul\":9296:9336   */\n      iszero\n      tag_141\n      jumpi\n        /* \"#utility.yul\":9316:9334   */\n      tag_141\n      tag_422\n      jump\t// in\n        /* \"#utility.yul\":9347:9769   */\n    tag_423:\n        /* \"#utility.yul\":9436:9437   */\n      0x01\n        /* \"#utility.yul\":9479:9484   */\n      dup2\n        /* \"#utility.yul\":9436:9437   */\n      dup2\n        /* \"#utility.yul\":9493:9763   */\n    tag_493:\n        /* \"#utility.yul\":9514:9521   */\n      dup1\n        /* \"#utility.yul\":9504:9512   */\n      dup6\n        /* \"#utility.yul\":9501:9522   */\n      gt\n        /* \"#utility.yul\":9493:9763   */\n      iszero\n      tag_495\n      jumpi\n        /* \"#utility.yul\":9573:9577   */\n      dup2\n        /* \"#utility.yul\":9569:9570   */\n      0x00\n        /* \"#utility.yul\":9565:9571   */\n      not\n        /* \"#utility.yul\":9561:9578   */\n      div\n        /* \"#utility.yul\":9555:9559   */\n      dup3\n        /* \"#utility.yul\":9552:9579   */\n      gt\n        /* \"#utility.yul\":9549:9602   */\n      iszero\n      tag_497\n      jumpi\n        /* \"#utility.yul\":9582:9600   */\n      tag_497\n      tag_422\n      jump\t// in\n    tag_497:\n        /* \"#utility.yul\":9632:9639   */\n      dup1\n        /* \"#utility.yul\":9622:9630   */\n      dup6\n        /* \"#utility.yul\":9618:9640   */\n      and\n        /* \"#utility.yul\":9615:9670   */\n      iszero\n      tag_498\n      jumpi\n        /* \"#utility.yul\":9652:9668   */\n      swap2\n      dup2\n      mul\n      swap2\n        /* \"#utility.yul\":9615:9670   */\n    tag_498:\n        /* \"#utility.yul\":9731:9753   */\n      swap4\n      dup5\n      shr\n      swap4\n        /* \"#utility.yul\":9691:9706   */\n      swap1\n      dup1\n      mul\n      swap1\n        /* \"#utility.yul\":9493:9763   */\n      jump(tag_493)\n    tag_495:\n        /* \"#utility.yul\":9497:9500   */\n      pop\n        /* \"#utility.yul\":9347:9769   */\n      swap3\n      pop\n      swap3\n      swap1\n      pop\n      jump\t// out\n        /* \"#utility.yul\":9774:10580   */\n    tag_424:\n        /* \"#utility.yul\":9823:9828   */\n      0x00\n        /* \"#utility.yul\":9853:9861   */\n      dup3\n        /* \"#utility.yul\":9843:9923   */\n      tag_500\n      jumpi\n      pop\n        /* \"#utility.yul\":9894:9895   */\n      0x01\n        /* \"#utility.yul\":9908:9913   */\n      jump(tag_141)\n        /* \"#utility.yul\":9843:9923   */\n    tag_500:\n        /* \"#utility.yul\":9942:9946   */\n      dup2\n        /* \"#utility.yul\":9932:10008   */\n      tag_501\n      jumpi\n      pop\n        /* \"#utility.yul\":9979:9980   */\n      0x00\n        /* \"#utility.yul\":9993:9998   */\n      jump(tag_141)\n        /* \"#utility.yul\":9932:10008   */\n    tag_501:\n        /* \"#utility.yul\":10024:10028   */\n      dup2\n        /* \"#utility.yul\":10042:10043   */\n      0x01\n        /* \"#utility.yul\":10037:10096   */\n      dup2\n      eq\n      tag_503\n      jumpi\n        /* \"#utility.yul\":10110:10111   */\n      0x02\n        /* \"#utility.yul\":10105:10235   */\n      dup2\n      eq\n      tag_504\n      jumpi\n        /* \"#utility.yul\":10017:10235   */\n      jump(tag_502)\n        /* \"#utility.yul\":10037:10096   */\n    tag_503:\n        /* \"#utility.yul\":10067:10068   */\n      0x01\n        /* \"#utility.yul\":10058:10068   */\n      swap2\n      pop\n        /* \"#utility.yul\":10081:10086   */\n      pop\n      jump(tag_141)\n        /* \"#utility.yul\":10105:10235   */\n    tag_504:\n        /* \"#utility.yul\":10142:10145   */\n      0xff\n        /* \"#utility.yul\":10132:10140   */\n      dup5\n        /* \"#utility.yul\":10129:10146   */\n      gt\n        /* \"#utility.yul\":10126:10169   */\n      iszero\n      tag_506\n      jumpi\n        /* \"#utility.yul\":10149:10167   */\n      tag_506\n      tag_422\n      jump\t// in\n    tag_506:\n      pop\n      pop\n        /* \"#utility.yul\":10205:10206   */\n      0x01\n        /* \"#utility.yul\":10191:10207   */\n      dup3\n      shl\n        /* \"#utility.yul\":10220:10225   */\n      jump(tag_141)\n        /* \"#utility.yul\":10017:10235   */\n    tag_502:\n      pop\n        /* \"#utility.yul\":10319:10321   */\n      0x20\n        /* \"#utility.yul\":10309:10317   */\n      dup4\n        /* \"#utility.yul\":10306:10322   */\n      lt\n        /* \"#utility.yul\":10300:10303   */\n      0x0133\n        /* \"#utility.yul\":10294:10298   */\n      dup4\n        /* \"#utility.yul\":10291:10304   */\n      lt\n        /* \"#utility.yul\":10287:10323   */\n      and\n        /* \"#utility.yul\":10281:10283   */\n      0x4e\n        /* \"#utility.yul\":10271:10279   */\n      dup5\n        /* \"#utility.yul\":10268:10284   */\n      lt\n        /* \"#utility.yul\":10263:10265   */\n      0x0b\n        /* \"#utility.yul\":10257:10261   */\n      dup5\n        /* \"#utility.yul\":10254:10266   */\n      lt\n        /* \"#utility.yul\":10250:10285   */\n      and\n        /* \"#utility.yul\":10247:10324   */\n      or\n        /* \"#utility.yul\":10244:10403   */\n      iszero\n      tag_507\n      jumpi\n      pop\n        /* \"#utility.yul\":10356:10375   */\n      dup2\n      dup2\n      exp\n        /* \"#utility.yul\":10388:10393   */\n      jump(tag_141)\n        /* \"#utility.yul\":10244:10403   */\n    tag_507:\n        /* \"#utility.yul\":10435:10469   */\n      tag_508\n        /* \"#utility.yul\":10460:10468   */\n      dup4\n        /* \"#utility.yul\":10454:10458   */\n      dup4\n        /* \"#utility.yul\":10435:10469   */\n      tag_423\n      jump\t// in\n    tag_508:\n        /* \"#utility.yul\":10505:10511   */\n      dup1\n        /* \"#utility.yul\":10501:10502   */\n      0x00\n        /* \"#utility.yul\":10497:10503   */\n      not\n        /* \"#utility.yul\":10493:10512   */\n      div\n        /* \"#utility.yul\":10484:10491   */\n      dup3\n        /* \"#utility.yul\":10481:10513   */\n      gt\n        /* \"#utility.yul\":10478:10536   */\n      iszero\n      tag_510\n      jumpi\n        /* \"#utility.yul\":10516:10534   */\n      tag_510\n      tag_422\n      jump\t// in\n    tag_510:\n        /* \"#utility.yul\":10554:10574   */\n      mul\n      swap4\n        /* \"#utility.yul\":9774:10580   */\n      swap3\n      pop\n      pop\n      pop\n      jump\t// out\n        /* \"#utility.yul\":10585:10725   */\n    tag_219:\n        /* \"#utility.yul\":10643:10648   */\n      0x00\n        /* \"#utility.yul\":10672:10719   */\n      tag_409\n        /* \"#utility.yul\":10713:10717   */\n      0xff\n        /* \"#utility.yul\":10703:10711   */\n      dup5\n        /* \"#utility.yul\":10699:10718   */\n      and\n        /* \"#utility.yul\":10693:10697   */\n      dup4\n        /* \"#utility.yul\":10672:10719   */\n      tag_424\n      jump\t// in\n        /* \"#utility.yul\":10730:10898   */\n    tag_221:\n        /* \"#utility.yul\":10803:10812   */\n      dup1\n      dup3\n      mul\n        /* \"#utility.yul\":10834:10843   */\n      dup2\n      iszero\n        /* \"#utility.yul\":10851:10866   */\n      dup3\n      dup3\n      div\n        /* \"#utility.yul\":10845:10867   */\n      dup5\n      eq\n        /* \"#utility.yul\":10831:10868   */\n      or\n        /* \"#utility.yul\":10821:10892   */\n      tag_141\n      jumpi\n        /* \"#utility.yul\":10872:10890   */\n      tag_141\n      tag_422\n      jump\t// in\n        /* \"#utility.yul\":10903:11245   */\n    tag_228:\n        /* \"#utility.yul\":11105:11107   */\n      0x20\n        /* \"#utility.yul\":11087:11108   */\n      dup1\n      dup3\n      mstore\n        /* \"#utility.yul\":11144:11146   */\n      0x12\n        /* \"#utility.yul\":11124:11142   */\n      swap1\n      dup3\n      add\n        /* \"#utility.yul\":11117:11147   */\n      mstore\n      shl(0x71, 0x2737ba1030b236b4b717b9bab130b236b4b7)\n        /* \"#utility.yul\":11178:11180   */\n      0x40\n        /* \"#utility.yul\":11163:11181   */\n      dup3\n      add\n        /* \"#utility.yul\":11156:11204   */\n      mstore\n        /* \"#utility.yul\":11236:11238   */\n      0x60\n        /* \"#utility.yul\":11221:11239   */\n      add\n      swap1\n        /* \"#utility.yul\":10903:11245   */\n      jump\t// out\n        /* \"#utility.yul\":11844:12028   */\n    tag_246:\n        /* \"#utility.yul\":11914:11920   */\n      0x00\n        /* \"#utility.yul\":11967:11969   */\n      0x20\n        /* \"#utility.yul\":11955:11964   */\n      dup3\n        /* \"#utility.yul\":11946:11953   */\n      dup5\n        /* \"#utility.yul\":11942:11965   */\n      sub\n        /* \"#utility.yul\":11938:11970   */\n      slt\n        /* \"#utility.yul\":11935:11987   */\n      iszero\n      tag_520\n      jumpi\n        /* \"#utility.yul\":11983:11984   */\n      0x00\n        /* \"#utility.yul\":11980:11981   */\n      dup1\n        /* \"#utility.yul\":11973:11985   */\n      revert\n        /* \"#utility.yul\":11935:11987   */\n    tag_520:\n      pop\n        /* \"#utility.yul\":12006:12022   */\n      mload\n      swap2\n        /* \"#utility.yul\":11844:12028   */\n      swap1\n      pop\n      jump\t// out\n        /* \"#utility.yul\":12724:12941   */\n    tag_274:\n        /* \"#utility.yul\":12764:12765   */\n      0x00\n        /* \"#utility.yul\":12790:12791   */\n      dup3\n        /* \"#utility.yul\":12780:12912   */\n      tag_524\n      jumpi\n        /* \"#utility.yul\":12834:12844   */\n      0x4e487b71\n        /* \"#utility.yul\":12829:12832   */\n      0xe0\n        /* \"#utility.yul\":12825:12845   */\n      shl\n        /* \"#utility.yul\":12822:12823   */\n      0x00\n        /* \"#utility.yul\":12815:12846   */\n      mstore\n        /* \"#utility.yul\":12869:12873   */\n      0x12\n        /* \"#utility.yul\":12866:12867   */\n      0x04\n        /* \"#utility.yul\":12859:12874   */\n      mstore\n        /* \"#utility.yul\":12897:12901   */\n      0x24\n        /* \"#utility.yul\":12894:12895   */\n      0x00\n        /* \"#utility.yul\":12887:12902   */\n      revert\n        /* \"#utility.yul\":12780:12912   */\n    tag_524:\n      pop\n        /* \"#utility.yul\":12926:12935   */\n      div\n      swap1\n        /* \"#utility.yul\":12724:12941   */\n      jump\t// out\n        /* \"#utility.yul\":14299:14572   */\n    tag_343:\n        /* \"#utility.yul\":14367:14373   */\n      0x00\n        /* \"#utility.yul\":14420:14422   */\n      0x20\n        /* \"#utility.yul\":14408:14417   */\n      dup3\n        /* \"#utility.yul\":14399:14406   */\n      dup5\n        /* \"#utility.yul\":14395:14418   */\n      sub\n        /* \"#utility.yul\":14391:14423   */\n      slt\n        /* \"#utility.yul\":14388:14440   */\n      iszero\n      tag_530\n      jumpi\n        /* \"#utility.yul\":14436:14437   */\n      0x00\n        /* \"#utility.yul\":14433:14434   */\n      dup1\n        /* \"#utility.yul\":14426:14438   */\n      revert\n        /* \"#utility.yul\":14388:14440   */\n    tag_530:\n        /* \"#utility.yul\":14468:14477   */\n      dup2\n        /* \"#utility.yul\":14462:14478   */\n      mload\n        /* \"#utility.yul\":14518:14522   */\n      0xff\n        /* \"#utility.yul\":14511:14516   */\n      dup2\n        /* \"#utility.yul\":14507:14523   */\n      and\n        /* \"#utility.yul\":14500:14505   */\n      dup2\n        /* \"#utility.yul\":14497:14524   */\n      eq\n        /* \"#utility.yul\":14487:14542   */\n      tag_409\n      jumpi\n        /* \"#utility.yul\":14538:14539   */\n      0x00\n        /* \"#utility.yul\":14535:14536   */\n      dup1\n        /* \"#utility.yul\":14528:14540   */\n      revert\n    stop\n    data_c3f76b99666f6818ff0e702cf1728f8564932dfce2026f5d7d90bf00e9ab2863 2ccf90dd7c30b80a460e25097b3c5ef613343f69ad6b2cfd3cfb644af593ca0b\n\n    auxdata: 0xa2646970667358221220c3f8e45ea766f08d2c095491a109005126fee74d0c4fe0b1810deb714bd3f4a164736f6c63430008140033\n}\n",
				"bytecode": {
					"linkReferences": {},
					"object": "6080604052603260025534801562000015575f80fd5b5060405162001fcc38038062001fcc833981016040819052620000389162000176565b600180556001600160a01b038116620000975760405162461bcd60e51b815260206004820152601660248201527f46656520726563697069656e7420726571756972656400000000000000000000604482015260640160405180910390fd5b620000a35f33620000ca565b50600380546001600160a01b0319166001600160a01b0392909216919091179055620001a5565b5f828152602081815260408083206001600160a01b038516845290915281205460ff166200016d575f838152602081815260408083206001600160a01b03861684529091529020805460ff19166001179055620001243390565b6001600160a01b0316826001600160a01b0316847f2f8788117e7eff1d82e926ec794901d17c78024a50270940304540a733656f0d60405160405180910390a450600162000170565b505f5b92915050565b5f6020828403121562000187575f80fd5b81516001600160a01b03811681146200019e575f80fd5b9392505050565b611e1980620001b35f395ff3fe608060405234801561000f575f80fd5b5060043610610187575f3560e01c80638aaa2284116100d9578063b7ba16f611610093578063d4248bbe1161006e578063d4248bbe146103d9578063d547741f146103ec578063e744092e146103ff578063e74b981b14610421575f80fd5b8063b7ba16f61461038d578063ba87a7c9146103a0578063cf54aaa0146103b4575f80fd5b80638aaa2284146102db57806391d14854146102ee5780639e2afebe14610301578063a217fddf14610314578063a85c38ef1461031b578063b38e0fc41461037a575f80fd5b80634690484011610144578063518e62db1161011f578063518e62db1461028f578063679fb287146102a257806369fe0e2d146102b55780636ff1c9bc146102c8575f80fd5b8063469048401461023e5780634d91092914610269578063514fcac71461027c575f80fd5b806301ffc9a71461018b578063248a9ca3146101b35780632f2ff15d146101e35780632ffdaf89146101f85780633070e98d1461020157806336568abe1461022b575b5f80fd5b61019e610199366004611970565b610434565b60405190151581526020015b60405180910390f35b6101d56101c1366004611997565b5f9081526020819052604090206001015490565b6040519081526020016101aa565b6101f66101f13660046119c9565b61046a565b005b6101d560025481565b6101d561020f3660046119f3565b600560209081525f928352604080842090915290825290205481565b6101f66102393660046119c9565b610494565b600354610251906001600160a01b031681565b6040516001600160a01b0390911681526020016101aa565b6101f6610277366004611a1b565b6104cc565b6101f661028a366004611997565b6104f1565b6101f661029d366004611a34565b610662565b6101d56102b0366004611a7d565b6109e0565b6101f66102c3366004611997565b610a5d565b6101f66102d6366004611a1b565b610b22565b6101f66102e9366004611aa5565b610c28565b61019e6102fc3660046119c9565b610cc9565b6101f661030f366004611ade565b610cf1565b6101d55f81565b61032e610329366004611997565b610f42565b604080516001600160a01b03998a168152978916602089015295909716948601949094526060850192909252608084015260a083015260c082015290151560e0820152610100016101aa565b6101d5610388366004611a7d565b610fa7565b6101f661039b366004611b1d565b61101c565b6101d55f80516020611dc483398151915281565b6103c76103c2366004611a1b565b611395565b60405160ff90911681526020016101aa565b6101f66103e7366004611b46565b6113f6565b6101f66103fa3660046119c9565b61155f565b61019e61040d366004611a1b565b60046020525f908152604090205460ff1681565b6101f661042f366004611a1b565b611583565b5f6001600160e01b03198216637965db0b60e01b148061046457506301ffc9a760e01b6001600160e01b03198316145b92915050565b5f8281526020819052604090206001015461048481611674565b61048e838361167e565b50505050565b6001600160a01b03811633146104bd5760405163334bd91960e11b815260040160405180910390fd5b6104c7828261170d565b505050565b5f6104d681611674565b6104ed5f80516020611dc48339815191528361046a565b5050565b6104f9611776565b60065481106105395760405162461bcd60e51b8152602060048201526007602482015266125b9d985b1a5960ca1b60448201526064015b60405180910390fd5b5f6006828154811061054d5761054d611b7f565b5f9182526020909120600890910201600781015490915060ff1661059e5760405162461bcd60e51b8152602060048201526008602482015267496e61637469766560c01b6044820152606401610530565b80546001600160a01b031633146105e45760405162461bcd60e51b815260206004820152600a60248201526927b7363c9036b0b5b2b960b11b6044820152606401610530565b60078101805460ff191690556004810180545f9091558015610654576001820154610619906001600160a01b031633836117cf565b827faa2a006d186dc89a3d6851834c85d16226329ac40bcad6531a5756a38ed1c90f8260405161064b91815260200190565b60405180910390a25b505061065f60018055565b50565b61066a611776565b836001600160a01b0316856001600160a01b03160361069b5760405162461bcd60e51b815260040161053090611b93565b6001600160a01b0385165f9081526004602052604090205460ff1680156106d957506001600160a01b0384165f9081526004602052604090205460ff165b6106f55760405162461bcd60e51b815260040161053090611bbd565b5f82116107305760405162461bcd60e51b815260206004820152600960248201526852617465207a65726f60b81b6044820152606401610530565b5f61073b8242611bfd565b90505f61074887866109e0565b90505f81116107855760405162461bcd60e51b8152602060048201526009602482015268151bdbc81cdb585b1b60ba1b6044820152606401610530565b61079a6001600160a01b03881633308861182e565b6040805161010081018252338082526001600160a01b038a8116602084019081528a8216948401948552606084018a8152608085018b815260a086018b815260c087018a8152600160e089018181526006805480840182555f8290529a516008909b027ff652222313e28459528d920b65115c16c04f3efc82aaedc97be59f3f377c0d3f810180549c8b166001600160a01b03199d8e1617905597517ff652222313e28459528d920b65115c16c04f3efc82aaedc97be59f3f377c0d4089018054918b16918d169190911790559a517ff652222313e28459528d920b65115c16c04f3efc82aaedc97be59f3f377c0d4188018054919099169a169990991790965592517ff652222313e28459528d920b65115c16c04f3efc82aaedc97be59f3f377c0d4285015590517ff652222313e28459528d920b65115c16c04f3efc82aaedc97be59f3f377c0d43840155517ff652222313e28459528d920b65115c16c04f3efc82aaedc97be59f3f377c0d44830155517ff652222313e28459528d920b65115c16c04f3efc82aaedc97be59f3f377c0d4582015592517ff652222313e28459528d920b65115c16c04f3efc82aaedc97be59f3f377c0d46909301805493151560ff199094169390931790925591546109759190611c10565b604080516001600160a01b03808c1682528a16602082015290810188905260608101879052608081018590527fdb932a34c9c681f70d4d797e099a8752999c25f9c9ffa2009c5f39c8f8dee4b49060a00160405180910390a350506109d960018055565b5050505050565b5f806109eb84611395565b905060128160ff161115610a355760405162461bcd60e51b8152602060048201526011602482015270546f6f206d616e7920646563696d616c7360781b6044820152606401610530565b610a40816012611c23565b610a4b90600a611d1c565b610a559084611d2a565b949350505050565b610a675f33610cc9565b80610a845750610a845f80516020611dc483398151915233610cc9565b610aa05760405162461bcd60e51b815260040161053090611d41565b6103e8811115610ae15760405162461bcd60e51b815260206004820152600c60248201526b08ccaca40e8dede40d0d2ced60a31b6044820152606401610530565b60025460408051918252602082018390527f528d9479e9f9889a87a3c30c7f7ba537e5e59c4c85a37733b16e57c62df61302910160405180910390a1600255565b610b2c5f33610cc9565b80610b495750610b495f80516020611dc483398151915233610cc9565b610b655760405162461bcd60e51b815260040161053090611d41565b6040516370a0823160e01b81523060048201525f906001600160a01b038316906370a0823190602401602060405180830381865afa158015610ba9573d5f803e3d5ffd5b505050506040513d601f19601f82011682018060405250810190610bcd9190611d6d565b90505f8111610c145760405162461bcd60e51b81526020600482015260136024820152724e6f7468696e6720746f20776974686472617760681b6044820152606401610530565b6104ed6001600160a01b03831633836117cf565b610c325f33610cc9565b80610c4f5750610c4f5f80516020611dc483398151915233610cc9565b610c6b5760405162461bcd60e51b815260040161053090611d41565b6001600160a01b0382165f81815260046020908152604091829020805460ff191685151590811790915591519182527f67821d5384bb02aab1ba91a477f89c9966cd30f475b02618bdc58712bca51275910160405180910390a25050565b5f918252602082815260408084206001600160a01b0393909316845291905290205460ff1690565b610cf9611776565b826001600160a01b0316846001600160a01b031603610d2a5760405162461bcd60e51b815260040161053090611b93565b6001600160a01b0384165f9081526004602052604090205460ff168015610d6857506001600160a01b0383165f9081526004602052604090205460ff165b610d845760405162461bcd60e51b815260040161053090611bbd565b6001600160a01b038085165f9081526005602090815260408083209387168352929052205480610de75760405162461bcd60e51b815260206004820152600e60248201526d4e6f20676c6f62616c207261746560901b6044820152606401610530565b5f610df286856109e0565b90505f670de0b6b3a7640000610e088484611d2a565b610e129190611d84565b90505f610e1f8783610fa7565b90505f61271060025483610e339190611d2a565b610e3d9190611d84565b90505f610e4a8284611c10565b905086811015610e975760405162461bcd60e51b8152602060048201526018602482015277536c6970706167653a206f757470757420746f6f206c6f7760401b6044820152606401610530565b610eac6001600160a01b038b1633308b61182e565b610ec06001600160a01b038a1633836117cf565b8115610ee057600354610ee0906001600160a01b038b81169116846117cf565b60408051898152602081018390529081018390526001600160a01b03808b1691908c169033907fec5098f8c6ad93ee0051f440ec18dcdf5d28b504e6bc4613c0d3adf4695c00c39060600160405180910390a450505050505061048e60018055565b60068181548110610f51575f80fd5b5f918252602090912060089091020180546001820154600283015460038401546004850154600586015460068701546007909701546001600160a01b039687169850948616969390951694919390929060ff1688565b5f80610fb284611395565b905060128160ff161115610ffc5760405162461bcd60e51b8152602060048201526011602482015270546f6f206d616e7920646563696d616c7360781b6044820152606401610530565b611007816012611c23565b61101290600a611d1c565b610a559084611d84565b611024611776565b600654831061105f5760405162461bcd60e51b8152602060048201526007602482015266125b9d985b1a5960ca1b6044820152606401610530565b5f6006848154811061107357611073611b7f565b5f9182526020909120600890910201600781015490915060ff166110c45760405162461bcd60e51b8152602060048201526008602482015267496e61637469766560c01b6044820152606401610530565b600181015460028201546110e4916001600160a01b039081169116611867565b6111005760405162461bcd60e51b815260040161053090611bbd565b8060060154421061113d5760405162461bcd60e51b8152602060048201526007602482015266115e1c1a5c995960ca1b6044820152606401610530565b5f83118015611150575080600401548311155b61118b5760405162461bcd60e51b815260206004820152600c60248201526b125b9d985b1a5908199a5b1b60a21b6044820152606401610530565b60018101545f906111a5906001600160a01b0316856109e0565b90505f670de0b6b3a76400008360050154836111c19190611d2a565b6111cb9190611d84565b60028401549091505f906111e8906001600160a01b031683610fa7565b90505f612710600254836111fc9190611d2a565b6112069190611d84565b90505f6112138284611c10565b9050868110156112605760405162461bcd60e51b8152602060048201526018602482015277536c6970706167653a206f757470757420746f6f206c6f7760401b6044820152606401610530565b5f811161129b5760405162461bcd60e51b8152602060048201526009602482015268151bdbc81cdb585b1b60ba1b6044820152606401610530565b60028601546112b5906001600160a01b031633308661182e565b855460028701546112d3916001600160a01b039182169116836117cf565b81156112f85760035460028701546112f8916001600160a01b039182169116846117cf565b6001860154611311906001600160a01b0316338a6117cf565b87866004015f8282546113249190611c10565b909155505060048601545f036113415760078601805460ff191690555b604080518981526020810185905290810183905233908a907f3fc859a6e9309b7067994110940aa58b5cdb00ef7a86e864022b436f8ba464809060600160405180910390a35050505050506104c760018055565b5f816001600160a01b031663313ce5676040518163ffffffff1660e01b8152600401602060405180830381865afa1580156113d2573d5f803e3d5ffd5b505050506040513d601f19601f820116820180604052508101906104649190611da3565b6114005f33610cc9565b8061141d575061141d5f80516020611dc483398151915233610cc9565b6114395760405162461bcd60e51b815260040161053090611d41565b816001600160a01b0316836001600160a01b03160361146a5760405162461bcd60e51b815260040161053090611b93565b5f81116114a55760405162461bcd60e51b81526020600482015260096024820152685a65726f207261746560b81b6044820152606401610530565b6001600160a01b0383165f9081526004602052604090205460ff1680156114e357506001600160a01b0382165f9081526004602052604090205460ff165b6114ff5760405162461bcd60e51b815260040161053090611bbd565b6001600160a01b038381165f8181526005602090815260408083209487168084529482529182902085905590518481527fbc337c774e3d398e3abf682de55e83814a46b4ab164a3d8b50740668193e1df5910160405180910390a3505050565b5f8281526020819052604090206001015461157981611674565b61048e838361170d565b61158d5f33610cc9565b806115aa57506115aa5f80516020611dc483398151915233610cc9565b6115c65760405162461bcd60e51b815260040161053090611d41565b6001600160a01b03811661160b5760405162461bcd60e51b815260206004820152600c60248201526b5a65726f206164647265737360a01b6044820152606401610530565b600354604080516001600160a01b03928316815291831660208301527faaebcf1bfa00580e41d966056b48521fa9f202645c86d4ddf28113e617c1b1d3910160405180910390a1600380546001600160a01b0319166001600160a01b0392909216919091179055565b61065f81336118cb565b5f6116898383610cc9565b611706575f838152602081815260408083206001600160a01b03861684529091529020805460ff191660011790556116be3390565b6001600160a01b0316826001600160a01b0316847f2f8788117e7eff1d82e926ec794901d17c78024a50270940304540a733656f0d60405160405180910390a4506001610464565b505f610464565b5f6117188383610cc9565b15611706575f838152602081815260408083206001600160a01b0386168085529252808320805460ff1916905551339286917ff6391f5c32d9c69d2a47ea670b442974b53935d1edc7fd64eb21e047a839171b9190a4506001610464565b6002600154036117c85760405162461bcd60e51b815260206004820152601f60248201527f5265656e7472616e637947756172643a207265656e7472616e742063616c6c006044820152606401610530565b6002600155565b6040516001600160a01b038381166024830152604482018390526104c791859182169063a9059cbb906064015b604051602081830303815290604052915060e01b6020820180516001600160e01b038381831617835250505050611904565b6040516001600160a01b03848116602483015283811660448301526064820183905261048e9186918216906323b872dd906084016117fc565b5f816001600160a01b0316836001600160a01b0316141580156118a157506001600160a01b0383165f9081526004602052604090205460ff165b80156118c457506001600160a01b0382165f9081526004602052604090205460ff165b9392505050565b6118d58282610cc9565b6104ed5760405163e2517d3f60e01b81526001600160a01b038216600482015260248101839052604401610530565b5f8060205f8451602086015f885af180611923576040513d5f823e3d81fd5b50505f513d9150811561193a578060011415611947565b6001600160a01b0384163b155b1561048e57604051635274afe760e01b81526001600160a01b0385166004820152602401610530565b5f60208284031215611980575f80fd5b81356001600160e01b0319811681146118c4575f80fd5b5f602082840312156119a7575f80fd5b5035919050565b80356001600160a01b03811681146119c4575f80fd5b919050565b5f80604083850312156119da575f80fd5b823591506119ea602084016119ae565b90509250929050565b5f8060408385031215611a04575f80fd5b611a0d836119ae565b91506119ea602084016119ae565b5f60208284031215611a2b575f80fd5b6118c4826119ae565b5f805f805f60a08688031215611a48575f80fd5b611a51866119ae565b9450611a5f602087016119ae565b94979496505050506040830135926060810135926080909101359150565b5f8060408385031215611a8e575f80fd5b611a97836119ae565b946020939093013593505050565b5f8060408385031215611ab6575f80fd5b611abf836119ae565b915060208301358015158114611ad3575f80fd5b809150509250929050565b5f805f8060808587031215611af1575f80fd5b611afa856119ae565b9350611b08602086016119ae565b93969395505050506040820135916060013590565b5f805f60608486031215611b2f575f80fd5b505081359360208301359350604090920135919050565b5f805f60608486031215611b58575f80fd5b611b61846119ae565b9250611b6f602085016119ae565b9150604084013590509250925092565b634e487b7160e01b5f52603260045260245ffd5b60208082526010908201526f4964656e746963616c20746f6b656e7360801b604082015260600190565b602080825260129082015271151bdad95b9cc81b9bdd08185b1b1bddd95960721b604082015260600190565b634e487b7160e01b5f52601160045260245ffd5b8082018082111561046457610464611be9565b8181038181111561046457610464611be9565b60ff828116828216039081111561046457610464611be9565b600181815b80851115611c7657815f1904821115611c5c57611c5c611be9565b80851615611c6957918102915b93841c9390800290611c41565b509250929050565b5f82611c8c57506001610464565b81611c9857505f610464565b8160018114611cae5760028114611cb857611cd4565b6001915050610464565b60ff841115611cc957611cc9611be9565b50506001821b610464565b5060208310610133831016604e8410600b8410161715611cf7575081810a610464565b611d018383611c3c565b805f1904821115611d1457611d14611be9565b029392505050565b5f6118c460ff841683611c7e565b808202811582820484141761046457610464611be9565b6020808252601290820152712737ba1030b236b4b717b9bab130b236b4b760711b604082015260600190565b5f60208284031215611d7d575f80fd5b5051919050565b5f82611d9e57634e487b7160e01b5f52601260045260245ffd5b500490565b5f60208284031215611db3575f80fd5b815160ff811681146118c4575f80fdfe2ccf90dd7c30b80a460e25097b3c5ef613343f69ad6b2cfd3cfb644af593ca0ba2646970667358221220c3f8e45ea766f08d2c095491a109005126fee74d0c4fe0b1810deb714bd3f4a164736f6c63430008140033",
					"opcodes": "PUSH1 0x80 PUSH1 0x40 MSTORE PUSH1 0x32 PUSH1 0x2 SSTORE CALLVALUE DUP1 ISZERO PUSH3 0x15 JUMPI PUSH0 DUP1 REVERT JUMPDEST POP PUSH1 0x40 MLOAD PUSH3 0x1FCC CODESIZE SUB DUP1 PUSH3 0x1FCC DUP4 CODECOPY DUP2 ADD PUSH1 0x40 DUP2 SWAP1 MSTORE PUSH3 0x38 SWAP2 PUSH3 0x176 JUMP JUMPDEST PUSH1 0x1 DUP1 SSTORE PUSH1 0x1 PUSH1 0x1 PUSH1 0xA0 SHL SUB DUP2 AND PUSH3 0x97 JUMPI PUSH1 0x40 MLOAD PUSH3 0x461BCD PUSH1 0xE5 SHL DUP2 MSTORE PUSH1 0x20 PUSH1 0x4 DUP3 ADD MSTORE PUSH1 0x16 PUSH1 0x24 DUP3 ADD MSTORE PUSH32 0x46656520726563697069656E7420726571756972656400000000000000000000 PUSH1 0x44 DUP3 ADD MSTORE PUSH1 0x64 ADD PUSH1 0x40 MLOAD DUP1 SWAP2 SUB SWAP1 REVERT JUMPDEST PUSH3 0xA3 PUSH0 CALLER PUSH3 0xCA JUMP JUMPDEST POP PUSH1 0x3 DUP1 SLOAD PUSH1 0x1 PUSH1 0x1 PUSH1 0xA0 SHL SUB NOT AND PUSH1 0x1 PUSH1 0x1 PUSH1 0xA0 SHL SUB SWAP3 SWAP1 SWAP3 AND SWAP2 SWAP1 SWAP2 OR SWAP1 SSTORE PUSH3 0x1A5 JUMP JUMPDEST PUSH0 DUP3 DUP2 MSTORE PUSH1 0x20 DUP2 DUP2 MSTORE PUSH1 0x40 DUP1 DUP4 KECCAK256 PUSH1 0x1 PUSH1 0x1 PUSH1 0xA0 SHL SUB DUP6 AND DUP5 MSTORE SWAP1 SWAP2 MSTORE DUP2 KECCAK256 SLOAD PUSH1 0xFF AND PUSH3 0x16D JUMPI PUSH0 DUP4 DUP2 MSTORE PUSH1 0x20 DUP2 DUP2 MSTORE PUSH1 0x40 DUP1 DUP4 KECCAK256 PUSH1 0x1 PUSH1 0x1 PUSH1 0xA0 SHL SUB DUP7 AND DUP5 MSTORE SWAP1 SWAP2 MSTORE SWAP1 KECCAK256 DUP1 SLOAD PUSH1 0xFF NOT AND PUSH1 0x1 OR SWAP1 SSTORE PUSH3 0x124 CALLER SWAP1 JUMP JUMPDEST PUSH1 0x1 PUSH1 0x1 PUSH1 0xA0 SHL SUB AND DUP3 PUSH1 0x1 PUSH1 0x1 PUSH1 0xA0 SHL SUB AND DUP5 PUSH32 0x2F8788117E7EFF1D82E926EC794901D17C78024A50270940304540A733656F0D PUSH1 0x40 MLOAD PUSH1 0x40 MLOAD DUP1 SWAP2 SUB SWAP1 LOG4 POP PUSH1 0x1 PUSH3 0x170 JUMP JUMPDEST POP PUSH0 JUMPDEST SWAP3 SWAP2 POP POP JUMP JUMPDEST PUSH0 PUSH1 0x20 DUP3 DUP5 SUB SLT ISZERO PUSH3 0x187 JUMPI PUSH0 DUP1 REVERT JUMPDEST DUP2 MLOAD PUSH1 0x1 PUSH1 0x1 PUSH1 0xA0 SHL SUB DUP2 AND DUP2 EQ PUSH3 0x19E JUMPI PUSH0 DUP1 REVERT JUMPDEST SWAP4 SWAP3 POP POP POP JUMP JUMPDEST PUSH2 0x1E19 DUP1 PUSH3 0x1B3 PUSH0 CODECOPY PUSH0 RETURN INVALID PUSH1 0x80 PUSH1 0x40 MSTORE CALLVALUE DUP1 ISZERO PUSH2 0xF JUMPI PUSH0 DUP1 REVERT JUMPDEST POP PUSH1 0x4 CALLDATASIZE LT PUSH2 0x187 JUMPI PUSH0 CALLDATALOAD PUSH1 0xE0 SHR DUP1 PUSH4 0x8AAA2284 GT PUSH2 0xD9 JUMPI DUP1 PUSH4 0xB7BA16F6 GT PUSH2 0x93 JUMPI DUP1 PUSH4 0xD4248BBE GT PUSH2 0x6E JUMPI DUP1 PUSH4 0xD4248BBE EQ PUSH2 0x3D9 JUMPI DUP1 PUSH4 0xD547741F EQ PUSH2 0x3EC JUMPI DUP1 PUSH4 0xE744092E EQ PUSH2 0x3FF JUMPI DUP1 PUSH4 0xE74B981B EQ PUSH2 0x421 JUMPI PUSH0 DUP1 REVERT JUMPDEST DUP1 PUSH4 0xB7BA16F6 EQ PUSH2 0x38D JUMPI DUP1 PUSH4 0xBA87A7C9 EQ PUSH2 0x3A0 JUMPI DUP1 PUSH4 0xCF54AAA0 EQ PUSH2 0x3B4 JUMPI PUSH0 DUP1 REVERT JUMPDEST DUP1 PUSH4 0x8AAA2284 EQ PUSH2 0x2DB JUMPI DUP1 PUSH4 0x91D14854 EQ PUSH2 0x2EE JUMPI DUP1 PUSH4 0x9E2AFEBE EQ PUSH2 0x301 JUMPI DUP1 PUSH4 0xA217FDDF EQ PUSH2 0x314 JUMPI DUP1 PUSH4 0xA85C38EF EQ PUSH2 0x31B JUMPI DUP1 PUSH4 0xB38E0FC4 EQ PUSH2 0x37A JUMPI PUSH0 DUP1 REVERT JUMPDEST DUP1 PUSH4 0x46904840 GT PUSH2 0x144 JUMPI DUP1 PUSH4 0x518E62DB GT PUSH2 0x11F JUMPI DUP1 PUSH4 0x518E62DB EQ PUSH2 0x28F JUMPI DUP1 PUSH4 0x679FB287 EQ PUSH2 0x2A2 JUMPI DUP1 PUSH4 0x69FE0E2D EQ PUSH2 0x2B5 JUMPI DUP1 PUSH4 0x6FF1C9BC EQ PUSH2 0x2C8 JUMPI PUSH0 DUP1 REVERT JUMPDEST DUP1 PUSH4 0x46904840 EQ PUSH2 0x23E JUMPI DUP1 PUSH4 0x4D910929 EQ PUSH2 0x269 JUMPI DUP1 PUSH4 0x514FCAC7 EQ PUSH2 0x27C JUMPI PUSH0 DUP1 REVERT JUMPDEST DUP1 PUSH4 0x1FFC9A7 EQ PUSH2 0x18B JUMPI DUP1 PUSH4 0x248A9CA3 EQ PUSH2 0x1B3 JUMPI DUP1 PUSH4 0x2F2FF15D EQ PUSH2 0x1E3 JUMPI DUP1 PUSH4 0x2FFDAF89 EQ PUSH2 0x1F8 JUMPI DUP1 PUSH4 0x3070E98D EQ PUSH2 0x201 JUMPI DUP1 PUSH4 0x36568ABE EQ PUSH2 0x22B JUMPI JUMPDEST PUSH0 DUP1 REVERT JUMPDEST PUSH2 0x19E PUSH2 0x199 CALLDATASIZE PUSH1 0x4 PUSH2 0x1970 JUMP JUMPDEST PUSH2 0x434 JUMP JUMPDEST PUSH1 0x40 MLOAD SWAP1 ISZERO ISZERO DUP2 MSTORE PUSH1 0x20 ADD JUMPDEST PUSH1 0x40 MLOAD DUP1 SWAP2 SUB SWAP1 RETURN JUMPDEST PUSH2 0x1D5 PUSH2 0x1C1 CALLDATASIZE PUSH1 0x4 PUSH2 0x1997 JUMP JUMPDEST PUSH0 SWAP1 DUP2 MSTORE PUSH1 0x20 DUP2 SWAP1 MSTORE PUSH1 0x40 SWAP1 KECCAK256 PUSH1 0x1 ADD SLOAD SWAP1 JUMP JUMPDEST PUSH1 0x40 MLOAD SWAP1 DUP2 MSTORE PUSH1 0x20 ADD PUSH2 0x1AA JUMP JUMPDEST PUSH2 0x1F6 PUSH2 0x1F1 CALLDATASIZE PUSH1 0x4 PUSH2 0x19C9 JUMP JUMPDEST PUSH2 0x46A JUMP JUMPDEST STOP JUMPDEST PUSH2 0x1D5 PUSH1 0x2 SLOAD DUP2 JUMP JUMPDEST PUSH2 0x1D5 PUSH2 0x20F CALLDATASIZE PUSH1 0x4 PUSH2 0x19F3 JUMP JUMPDEST PUSH1 0x5 PUSH1 0x20 SWAP1 DUP2 MSTORE PUSH0 SWAP3 DUP4 MSTORE PUSH1 0x40 DUP1 DUP5 KECCAK256 SWAP1 SWAP2 MSTORE SWAP1 DUP3 MSTORE SWAP1 KECCAK256 SLOAD DUP2 JUMP JUMPDEST PUSH2 0x1F6 PUSH2 0x239 CALLDATASIZE PUSH1 0x4 PUSH2 0x19C9 JUMP JUMPDEST PUSH2 0x494 JUMP JUMPDEST PUSH1 0x3 SLOAD PUSH2 0x251 SWAP1 PUSH1 0x1 PUSH1 0x1 PUSH1 0xA0 SHL SUB AND DUP2 JUMP JUMPDEST PUSH1 0x40 MLOAD PUSH1 0x1 PUSH1 0x1 PUSH1 0xA0 SHL SUB SWAP1 SWAP2 AND DUP2 MSTORE PUSH1 0x20 ADD PUSH2 0x1AA JUMP JUMPDEST PUSH2 0x1F6 PUSH2 0x277 CALLDATASIZE PUSH1 0x4 PUSH2 0x1A1B JUMP JUMPDEST PUSH2 0x4CC JUMP JUMPDEST PUSH2 0x1F6 PUSH2 0x28A CALLDATASIZE PUSH1 0x4 PUSH2 0x1997 JUMP JUMPDEST PUSH2 0x4F1 JUMP JUMPDEST PUSH2 0x1F6 PUSH2 0x29D CALLDATASIZE PUSH1 0x4 PUSH2 0x1A34 JUMP JUMPDEST PUSH2 0x662 JUMP JUMPDEST PUSH2 0x1D5 PUSH2 0x2B0 CALLDATASIZE PUSH1 0x4 PUSH2 0x1A7D JUMP JUMPDEST PUSH2 0x9E0 JUMP JUMPDEST PUSH2 0x1F6 PUSH2 0x2C3 CALLDATASIZE PUSH1 0x4 PUSH2 0x1997 JUMP JUMPDEST PUSH2 0xA5D JUMP JUMPDEST PUSH2 0x1F6 PUSH2 0x2D6 CALLDATASIZE PUSH1 0x4 PUSH2 0x1A1B JUMP JUMPDEST PUSH2 0xB22 JUMP JUMPDEST PUSH2 0x1F6 PUSH2 0x2E9 CALLDATASIZE PUSH1 0x4 PUSH2 0x1AA5 JUMP JUMPDEST PUSH2 0xC28 JUMP JUMPDEST PUSH2 0x19E PUSH2 0x2FC CALLDATASIZE PUSH1 0x4 PUSH2 0x19C9 JUMP JUMPDEST PUSH2 0xCC9 JUMP JUMPDEST PUSH2 0x1F6 PUSH2 0x30F CALLDATASIZE PUSH1 0x4 PUSH2 0x1ADE JUMP JUMPDEST PUSH2 0xCF1 JUMP JUMPDEST PUSH2 0x1D5 PUSH0 DUP2 JUMP JUMPDEST PUSH2 0x32E PUSH2 0x329 CALLDATASIZE PUSH1 0x4 PUSH2 0x1997 JUMP JUMPDEST PUSH2 0xF42 JUMP JUMPDEST PUSH1 0x40 DUP1 MLOAD PUSH1 0x1 PUSH1 0x1 PUSH1 0xA0 SHL SUB SWAP10 DUP11 AND DUP2 MSTORE SWAP8 DUP10 AND PUSH1 0x20 DUP10 ADD MSTORE SWAP6 SWAP1 SWAP8 AND SWAP5 DUP7 ADD SWAP5 SWAP1 SWAP5 MSTORE PUSH1 0x60 DUP6 ADD SWAP3 SWAP1 SWAP3 MSTORE PUSH1 0x80 DUP5 ADD MSTORE PUSH1 0xA0 DUP4 ADD MSTORE PUSH1 0xC0 DUP3 ADD MSTORE SWAP1 ISZERO ISZERO PUSH1 0xE0 DUP3 ADD MSTORE PUSH2 0x100 ADD PUSH2 0x1AA JUMP JUMPDEST PUSH2 0x1D5 PUSH2 0x388 CALLDATASIZE PUSH1 0x4 PUSH2 0x1A7D JUMP JUMPDEST PUSH2 0xFA7 JUMP JUMPDEST PUSH2 0x1F6 PUSH2 0x39B CALLDATASIZE PUSH1 0x4 PUSH2 0x1B1D JUMP JUMPDEST PUSH2 0x101C JUMP JUMPDEST PUSH2 0x1D5 PUSH0 DUP1 MLOAD PUSH1 0x20 PUSH2 0x1DC4 DUP4 CODECOPY DUP2 MLOAD SWAP2 MSTORE DUP2 JUMP JUMPDEST PUSH2 0x3C7 PUSH2 0x3C2 CALLDATASIZE PUSH1 0x4 PUSH2 0x1A1B JUMP JUMPDEST PUSH2 0x1395 JUMP JUMPDEST PUSH1 0x40 MLOAD PUSH1 0xFF SWAP1 SWAP2 AND DUP2 MSTORE PUSH1 0x20 ADD PUSH2 0x1AA JUMP JUMPDEST PUSH2 0x1F6 PUSH2 0x3E7 CALLDATASIZE PUSH1 0x4 PUSH2 0x1B46 JUMP JUMPDEST PUSH2 0x13F6 JUMP JUMPDEST PUSH2 0x1F6 PUSH2 0x3FA CALLDATASIZE PUSH1 0x4 PUSH2 0x19C9 JUMP JUMPDEST PUSH2 0x155F JUMP JUMPDEST PUSH2 0x19E PUSH2 0x40D CALLDATASIZE PUSH1 0x4 PUSH2 0x1A1B JUMP JUMPDEST PUSH1 0x4 PUSH1 0x20 MSTORE PUSH0 SWAP1 DUP2 MSTORE PUSH1 0x40 SWAP1 KECCAK256 SLOAD PUSH1 0xFF AND DUP2 JUMP JUMPDEST PUSH2 0x1F6 PUSH2 0x42F CALLDATASIZE PUSH1 0x4 PUSH2 0x1A1B JUMP JUMPDEST PUSH2 0x1583 JUMP JUMPDEST PUSH0 PUSH1 0x1 PUSH1 0x1 PUSH1 0xE0 SHL SUB NOT DUP3 AND PUSH4 0x7965DB0B PUSH1 0xE0 SHL EQ DUP1 PUSH2 0x464 JUMPI POP PUSH4 0x1FFC9A7 PUSH1 0xE0 SHL PUSH1 0x1 PUSH1 0x1 PUSH1 0xE0 SHL SUB NOT DUP4 AND EQ JUMPDEST SWAP3 SWAP2 POP POP JUMP JUMPDEST PUSH0 DUP3 DUP2 MSTORE PUSH1 0x20 DUP2 SWAP1 MSTORE PUSH1 0x40 SWAP1 KECCAK256 PUSH1 0x1 ADD SLOAD PUSH2 0x484 DUP2 PUSH2 0x1674 JUMP JUMPDEST PUSH2 0x48E DUP4 DUP4 PUSH2 0x167E JUMP JUMPDEST POP POP POP POP JUMP JUMPDEST PUSH1 0x1 PUSH1 0x1 PUSH1 0xA0 SHL SUB DUP2 AND CALLER EQ PUSH2 0x4BD JUMPI PUSH1 0x40 MLOAD PUSH4 0x334BD919 PUSH1 0xE1 SHL DUP2 MSTORE PUSH1 0x4 ADD PUSH1 0x40 MLOAD DUP1 SWAP2 SUB SWAP1 REVERT JUMPDEST PUSH2 0x4C7 DUP3 DUP3 PUSH2 0x170D JUMP JUMPDEST POP POP POP JUMP JUMPDEST PUSH0 PUSH2 0x4D6 DUP2 PUSH2 0x1674 JUMP JUMPDEST PUSH2 0x4ED PUSH0 DUP1 MLOAD PUSH1 0x20 PUSH2 0x1DC4 DUP4 CODECOPY DUP2 MLOAD SWAP2 MSTORE DUP4 PUSH2 0x46A JUMP JUMPDEST POP POP JUMP JUMPDEST PUSH2 0x4F9 PUSH2 0x1776 JUMP JUMPDEST PUSH1 0x6 SLOAD DUP2 LT PUSH2 0x539 JUMPI PUSH1 0x40 MLOAD PUSH3 0x461BCD PUSH1 0xE5 SHL DUP2 MSTORE PUSH1 0x20 PUSH1 0x4 DUP3 ADD MSTORE PUSH1 0x7 PUSH1 0x24 DUP3 ADD MSTORE PUSH7 0x125B9D985B1A59 PUSH1 0xCA SHL PUSH1 0x44 DUP3 ADD MSTORE PUSH1 0x64 ADD JUMPDEST PUSH1 0x40 MLOAD DUP1 SWAP2 SUB SWAP1 REVERT JUMPDEST PUSH0 PUSH1 0x6 DUP3 DUP2 SLOAD DUP2 LT PUSH2 0x54D JUMPI PUSH2 0x54D PUSH2 0x1B7F JUMP JUMPDEST PUSH0 SWAP2 DUP3 MSTORE PUSH1 0x20 SWAP1 SWAP2 KECCAK256 PUSH1 0x8 SWAP1 SWAP2 MUL ADD PUSH1 0x7 DUP2 ADD SLOAD SWAP1 SWAP2 POP PUSH1 0xFF AND PUSH2 0x59E JUMPI PUSH1 0x40 MLOAD PUSH3 0x461BCD PUSH1 0xE5 SHL DUP2 MSTORE PUSH1 0x20 PUSH1 0x4 DUP3 ADD MSTORE PUSH1 0x8 PUSH1 0x24 DUP3 ADD MSTORE PUSH8 0x496E616374697665 PUSH1 0xC0 SHL PUSH1 0x44 DUP3 ADD MSTORE PUSH1 0x64 ADD PUSH2 0x530 JUMP JUMPDEST DUP1 SLOAD PUSH1 0x1 PUSH1 0x1 PUSH1 0xA0 SHL SUB AND CALLER EQ PUSH2 0x5E4 JUMPI PUSH1 0x40 MLOAD PUSH3 0x461BCD PUSH1 0xE5 SHL DUP2 MSTORE PUSH1 0x20 PUSH1 0x4 DUP3 ADD MSTORE PUSH1 0xA PUSH1 0x24 DUP3 ADD MSTORE PUSH10 0x27B7363C9036B0B5B2B9 PUSH1 0xB1 SHL PUSH1 0x44 DUP3 ADD MSTORE PUSH1 0x64 ADD PUSH2 0x530 JUMP JUMPDEST PUSH1 0x7 DUP2 ADD DUP1 SLOAD PUSH1 0xFF NOT AND SWAP1 SSTORE PUSH1 0x4 DUP2 ADD DUP1 SLOAD PUSH0 SWAP1 SWAP2 SSTORE DUP1 ISZERO PUSH2 0x654 JUMPI PUSH1 0x1 DUP3 ADD SLOAD PUSH2 0x619 SWAP1 PUSH1 0x1 PUSH1 0x1 PUSH1 0xA0 SHL SUB AND CALLER DUP4 PUSH2 0x17CF JUMP JUMPDEST DUP3 PUSH32 0xAA2A006D186DC89A3D6851834C85D16226329AC40BCAD6531A5756A38ED1C90F DUP3 PUSH1 0x40 MLOAD PUSH2 0x64B SWAP2 DUP2 MSTORE PUSH1 0x20 ADD SWAP1 JUMP JUMPDEST PUSH1 0x40 MLOAD DUP1 SWAP2 SUB SWAP1 LOG2 JUMPDEST POP POP PUSH2 0x65F PUSH1 0x1 DUP1 SSTORE JUMP JUMPDEST POP JUMP JUMPDEST PUSH2 0x66A PUSH2 0x1776 JUMP JUMPDEST DUP4 PUSH1 0x1 PUSH1 0x1 PUSH1 0xA0 SHL SUB AND DUP6 PUSH1 0x1 PUSH1 0x1 PUSH1 0xA0 SHL SUB AND SUB PUSH2 0x69B JUMPI PUSH1 0x40 MLOAD PUSH3 0x461BCD PUSH1 0xE5 SHL DUP2 MSTORE PUSH1 0x4 ADD PUSH2 0x530 SWAP1 PUSH2 0x1B93 JUMP JUMPDEST PUSH1 0x1 PUSH1 0x1 PUSH1 0xA0 SHL SUB DUP6 AND PUSH0 SWAP1 DUP2 MSTORE PUSH1 0x4 PUSH1 0x20 MSTORE PUSH1 0x40 SWAP1 KECCAK256 SLOAD PUSH1 0xFF AND DUP1 ISZERO PUSH2 0x6D9 JUMPI POP PUSH1 0x1 PUSH1 0x1 PUSH1 0xA0 SHL SUB DUP5 AND PUSH0 SWAP1 DUP2 MSTORE PUSH1 0x4 PUSH1 0x20 MSTORE PUSH1 0x40 SWAP1 KECCAK256 SLOAD PUSH1 0xFF AND JUMPDEST PUSH2 0x6F5 JUMPI PUSH1 0x40 MLOAD PUSH3 0x461BCD PUSH1 0xE5 SHL DUP2 MSTORE PUSH1 0x4 ADD PUSH2 0x530 SWAP1 PUSH2 0x1BBD JUMP JUMPDEST PUSH0 DUP3 GT PUSH2 0x730 JUMPI PUSH1 0x40 MLOAD PUSH3 0x461BCD PUSH1 0xE5 SHL DUP2 MSTORE PUSH1 0x20 PUSH1 0x4 DUP3 ADD MSTORE PUSH1 0x9 PUSH1 0x24 DUP3 ADD MSTORE PUSH9 0x52617465207A65726F PUSH1 0xB8 SHL PUSH1 0x44 DUP3 ADD MSTORE PUSH1 0x64 ADD PUSH2 0x530 JUMP JUMPDEST PUSH0 PUSH2 0x73B DUP3 TIMESTAMP PUSH2 0x1BFD JUMP JUMPDEST SWAP1 POP PUSH0 PUSH2 0x748 DUP8 DUP7 PUSH2 0x9E0 JUMP JUMPDEST SWAP1 POP PUSH0 DUP2 GT PUSH2 0x785 JUMPI PUSH1 0x40 MLOAD PUSH3 0x461BCD PUSH1 0xE5 SHL DUP2 MSTORE PUSH1 0x20 PUSH1 0x4 DUP3 ADD MSTORE PUSH1 0x9 PUSH1 0x24 DUP3 ADD MSTORE PUSH9 0x151BDBC81CDB585B1B PUSH1 0xBA SHL PUSH1 0x44 DUP3 ADD MSTORE PUSH1 0x64 ADD PUSH2 0x530 JUMP JUMPDEST PUSH2 0x79A PUSH1 0x1 PUSH1 0x1 PUSH1 0xA0 SHL SUB DUP9 AND CALLER ADDRESS DUP9 PUSH2 0x182E JUMP JUMPDEST PUSH1 0x40 DUP1 MLOAD PUSH2 0x100 DUP2 ADD DUP3 MSTORE CALLER DUP1 DUP3 MSTORE PUSH1 0x1 PUSH1 0x1 PUSH1 0xA0 SHL SUB DUP11 DUP2 AND PUSH1 0x20 DUP5 ADD SWAP1 DUP2 MSTORE DUP11 DUP3 AND SWAP5 DUP5 ADD SWAP5 DUP6 MSTORE PUSH1 0x60 DUP5 ADD DUP11 DUP2 MSTORE PUSH1 0x80 DUP6 ADD DUP12 DUP2 MSTORE PUSH1 0xA0 DUP7 ADD DUP12 DUP2 MSTORE PUSH1 0xC0 DUP8 ADD DUP11 DUP2 MSTORE PUSH1 0x1 PUSH1 0xE0 DUP10 ADD DUP2 DUP2 MSTORE PUSH1 0x6 DUP1 SLOAD DUP1 DUP5 ADD DUP3 SSTORE PUSH0 DUP3 SWAP1 MSTORE SWAP11 MLOAD PUSH1 0x8 SWAP1 SWAP12 MUL PUSH32 0xF652222313E28459528D920B65115C16C04F3EFC82AAEDC97BE59F3F377C0D3F DUP2 ADD DUP1 SLOAD SWAP13 DUP12 AND PUSH1 0x1 PUSH1 0x1 PUSH1 0xA0 SHL SUB NOT SWAP14 DUP15 AND OR SWAP1 SSTORE SWAP8 MLOAD PUSH32 0xF652222313E28459528D920B65115C16C04F3EFC82AAEDC97BE59F3F377C0D40 DUP10 ADD DUP1 SLOAD SWAP2 DUP12 AND SWAP2 DUP14 AND SWAP2 SWAP1 SWAP2 OR SWAP1 SSTORE SWAP11 MLOAD PUSH32 0xF652222313E28459528D920B65115C16C04F3EFC82AAEDC97BE59F3F377C0D41 DUP9 ADD DUP1 SLOAD SWAP2 SWAP1 SWAP10 AND SWAP11 AND SWAP10 SWAP1 SWAP10 OR SWAP1 SWAP7 SSTORE SWAP3 MLOAD PUSH32 0xF652222313E28459528D920B65115C16C04F3EFC82AAEDC97BE59F3F377C0D42 DUP6 ADD SSTORE SWAP1 MLOAD PUSH32 0xF652222313E28459528D920B65115C16C04F3EFC82AAEDC97BE59F3F377C0D43 DUP5 ADD SSTORE MLOAD PUSH32 0xF652222313E28459528D920B65115C16C04F3EFC82AAEDC97BE59F3F377C0D44 DUP4 ADD SSTORE MLOAD PUSH32 0xF652222313E28459528D920B65115C16C04F3EFC82AAEDC97BE59F3F377C0D45 DUP3 ADD SSTORE SWAP3 MLOAD PUSH32 0xF652222313E28459528D920B65115C16C04F3EFC82AAEDC97BE59F3F377C0D46 SWAP1 SWAP4 ADD DUP1 SLOAD SWAP4 ISZERO ISZERO PUSH1 0xFF NOT SWAP1 SWAP5 AND SWAP4 SWAP1 SWAP4 OR SWAP1 SWAP3 SSTORE SWAP2 SLOAD PUSH2 0x975 SWAP2 SWAP1 PUSH2 0x1C10 JUMP JUMPDEST PUSH1 0x40 DUP1 MLOAD PUSH1 0x1 PUSH1 0x1 PUSH1 0xA0 SHL SUB DUP1 DUP13 AND DUP3 MSTORE DUP11 AND PUSH1 0x20 DUP3 ADD MSTORE SWAP1 DUP2 ADD DUP9 SWAP1 MSTORE PUSH1 0x60 DUP2 ADD DUP8 SWAP1 MSTORE PUSH1 0x80 DUP2 ADD DUP6 SWAP1 MSTORE PUSH32 0xDB932A34C9C681F70D4D797E099A8752999C25F9C9FFA2009C5F39C8F8DEE4B4 SWAP1 PUSH1 0xA0 ADD PUSH1 0x40 MLOAD DUP1 SWAP2 SUB SWAP1 LOG3 POP POP PUSH2 0x9D9 PUSH1 0x1 DUP1 SSTORE JUMP JUMPDEST POP POP POP POP POP JUMP JUMPDEST PUSH0 DUP1 PUSH2 0x9EB DUP5 PUSH2 0x1395 JUMP JUMPDEST SWAP1 POP PUSH1 0x12 DUP2 PUSH1 0xFF AND GT ISZERO PUSH2 0xA35 JUMPI PUSH1 0x40 MLOAD PUSH3 0x461BCD PUSH1 0xE5 SHL DUP2 MSTORE PUSH1 0x20 PUSH1 0x4 DUP3 ADD MSTORE PUSH1 0x11 PUSH1 0x24 DUP3 ADD MSTORE PUSH17 0x546F6F206D616E7920646563696D616C73 PUSH1 0x78 SHL PUSH1 0x44 DUP3 ADD MSTORE PUSH1 0x64 ADD PUSH2 0x530 JUMP JUMPDEST PUSH2 0xA40 DUP2 PUSH1 0x12 PUSH2 0x1C23 JUMP JUMPDEST PUSH2 0xA4B SWAP1 PUSH1 0xA PUSH2 0x1D1C JUMP JUMPDEST PUSH2 0xA55 SWAP1 DUP5 PUSH2 0x1D2A JUMP JUMPDEST SWAP5 SWAP4 POP POP POP POP JUMP JUMPDEST PUSH2 0xA67 PUSH0 CALLER PUSH2 0xCC9 JUMP JUMPDEST DUP1 PUSH2 0xA84 JUMPI POP PUSH2 0xA84 PUSH0 DUP1 MLOAD PUSH1 0x20 PUSH2 0x1DC4 DUP4 CODECOPY DUP2 MLOAD SWAP2 MSTORE CALLER PUSH2 0xCC9 JUMP JUMPDEST PUSH2 0xAA0 JUMPI PUSH1 0x40 MLOAD PUSH3 0x461BCD PUSH1 0xE5 SHL DUP2 MSTORE PUSH1 0x4 ADD PUSH2 0x530 SWAP1 PUSH2 0x1D41 JUMP JUMPDEST PUSH2 0x3E8 DUP2 GT ISZERO PUSH2 0xAE1 JUMPI PUSH1 0x40 MLOAD PUSH3 0x461BCD PUSH1 0xE5 SHL DUP2 MSTORE PUSH1 0x20 PUSH1 0x4 DUP3 ADD MSTORE PUSH1 0xC PUSH1 0x24 DUP3 ADD MSTORE PUSH12 0x8CCACA40E8DEDE40D0D2CED PUSH1 0xA3 SHL PUSH1 0x44 DUP3 ADD MSTORE PUSH1 0x64 ADD PUSH2 0x530 JUMP JUMPDEST PUSH1 0x2 SLOAD PUSH1 0x40 DUP1 MLOAD SWAP2 DUP3 MSTORE PUSH1 0x20 DUP3 ADD DUP4 SWAP1 MSTORE PUSH32 0x528D9479E9F9889A87A3C30C7F7BA537E5E59C4C85A37733B16E57C62DF61302 SWAP2 ADD PUSH1 0x40 MLOAD DUP1 SWAP2 SUB SWAP1 LOG1 PUSH1 0x2 SSTORE JUMP JUMPDEST PUSH2 0xB2C PUSH0 CALLER PUSH2 0xCC9 JUMP JUMPDEST DUP1 PUSH2 0xB49 JUMPI POP PUSH2 0xB49 PUSH0 DUP1 MLOAD PUSH1 0x20 PUSH2 0x1DC4 DUP4 CODECOPY DUP2 MLOAD SWAP2 MSTORE CALLER PUSH2 0xCC9 JUMP JUMPDEST PUSH2 0xB65 JUMPI PUSH1 0x40 MLOAD PUSH3 0x461BCD PUSH1 0xE5 SHL DUP2 MSTORE PUSH1 0x4 ADD PUSH2 0x530 SWAP1 PUSH2 0x1D41 JUMP JUMPDEST PUSH1 0x40 MLOAD PUSH4 0x70A08231 PUSH1 0xE0 SHL DUP2 MSTORE ADDRESS PUSH1 0x4 DUP3 ADD MSTORE PUSH0 SWAP1 PUSH1 0x1 PUSH1 0x1 PUSH1 0xA0 SHL SUB DUP4 AND SWAP1 PUSH4 0x70A08231 SWAP1 PUSH1 0x24 ADD PUSH1 0x20 PUSH1 0x40 MLOAD DUP1 DUP4 SUB DUP2 DUP7 GAS STATICCALL ISZERO DUP1 ISZERO PUSH2 0xBA9 JUMPI RETURNDATASIZE PUSH0 DUP1 RETURNDATACOPY RETURNDATASIZE PUSH0 REVERT JUMPDEST POP POP POP POP PUSH1 0x40 MLOAD RETURNDATASIZE PUSH1 0x1F NOT PUSH1 0x1F DUP3 ADD AND DUP3 ADD DUP1 PUSH1 0x40 MSTORE POP DUP2 ADD SWAP1 PUSH2 0xBCD SWAP2 SWAP1 PUSH2 0x1D6D JUMP JUMPDEST SWAP1 POP PUSH0 DUP2 GT PUSH2 0xC14 JUMPI PUSH1 0x40 MLOAD PUSH3 0x461BCD PUSH1 0xE5 SHL DUP2 MSTORE PUSH1 0x20 PUSH1 0x4 DUP3 ADD MSTORE PUSH1 0x13 PUSH1 0x24 DUP3 ADD MSTORE PUSH19 0x4E6F7468696E6720746F207769746864726177 PUSH1 0x68 SHL PUSH1 0x44 DUP3 ADD MSTORE PUSH1 0x64 ADD PUSH2 0x530 JUMP JUMPDEST PUSH2 0x4ED PUSH1 0x1 PUSH1 0x1 PUSH1 0xA0 SHL SUB DUP4 AND CALLER DUP4 PUSH2 0x17CF JUMP JUMPDEST PUSH2 0xC32 PUSH0 CALLER PUSH2 0xCC9 JUMP JUMPDEST DUP1 PUSH2 0xC4F JUMPI POP PUSH2 0xC4F PUSH0 DUP1 MLOAD PUSH1 0x20 PUSH2 0x1DC4 DUP4 CODECOPY DUP2 MLOAD SWAP2 MSTORE CALLER PUSH2 0xCC9 JUMP JUMPDEST PUSH2 0xC6B JUMPI PUSH1 0x40 MLOAD PUSH3 0x461BCD PUSH1 0xE5 SHL DUP2 MSTORE PUSH1 0x4 ADD PUSH2 0x530 SWAP1 PUSH2 0x1D41 JUMP JUMPDEST PUSH1 0x1 PUSH1 0x1 PUSH1 0xA0 SHL SUB DUP3 AND PUSH0 DUP2 DUP2 MSTORE PUSH1 0x4 PUSH1 0x20 SWAP1 DUP2 MSTORE PUSH1 0x40 SWAP2 DUP3 SWAP1 KECCAK256 DUP1 SLOAD PUSH1 0xFF NOT AND DUP6 ISZERO ISZERO SWAP1 DUP2 OR SWAP1 SWAP2 SSTORE SWAP2 MLOAD SWAP2 DUP3 MSTORE PUSH32 0x67821D5384BB02AAB1BA91A477F89C9966CD30F475B02618BDC58712BCA51275 SWAP2 ADD PUSH1 0x40 MLOAD DUP1 SWAP2 SUB SWAP1 LOG2 POP POP JUMP JUMPDEST PUSH0 SWAP2 DUP3 MSTORE PUSH1 0x20 DUP3 DUP2 MSTORE PUSH1 0x40 DUP1 DUP5 KECCAK256 PUSH1 0x1 PUSH1 0x1 PUSH1 0xA0 SHL SUB SWAP4 SWAP1 SWAP4 AND DUP5 MSTORE SWAP2 SWAP1 MSTORE SWAP1 KECCAK256 SLOAD PUSH1 0xFF AND SWAP1 JUMP JUMPDEST PUSH2 0xCF9 PUSH2 0x1776 JUMP JUMPDEST DUP3 PUSH1 0x1 PUSH1 0x1 PUSH1 0xA0 SHL SUB AND DUP5 PUSH1 0x1 PUSH1 0x1 PUSH1 0xA0 SHL SUB AND SUB PUSH2 0xD2A JUMPI PUSH1 0x40 MLOAD PUSH3 0x461BCD PUSH1 0xE5 SHL DUP2 MSTORE PUSH1 0x4 ADD PUSH2 0x530 SWAP1 PUSH2 0x1B93 JUMP JUMPDEST PUSH1 0x1 PUSH1 0x1 PUSH1 0xA0 SHL SUB DUP5 AND PUSH0 SWAP1 DUP2 MSTORE PUSH1 0x4 PUSH1 0x20 MSTORE PUSH1 0x40 SWAP1 KECCAK256 SLOAD PUSH1 0xFF AND DUP1 ISZERO PUSH2 0xD68 JUMPI POP PUSH1 0x1 PUSH1 0x1 PUSH1 0xA0 SHL SUB DUP4 AND PUSH0 SWAP1 DUP2 MSTORE PUSH1 0x4 PUSH1 0x20 MSTORE PUSH1 0x40 SWAP1 KECCAK256 SLOAD PUSH1 0xFF AND JUMPDEST PUSH2 0xD84 JUMPI PUSH1 0x40 MLOAD PUSH3 0x461BCD PUSH1 0xE5 SHL DUP2 MSTORE PUSH1 0x4 ADD PUSH2 0x530 SWAP1 PUSH2 0x1BBD JUMP JUMPDEST PUSH1 0x1 PUSH1 0x1 PUSH1 0xA0 SHL SUB DUP1 DUP6 AND PUSH0 SWAP1 DUP2 MSTORE PUSH1 0x5 PUSH1 0x20 SWAP1 DUP2 MSTORE PUSH1 0x40 DUP1 DUP4 KECCAK256 SWAP4 DUP8 AND DUP4 MSTORE SWAP3 SWAP1 MSTORE KECCAK256 SLOAD DUP1 PUSH2 0xDE7 JUMPI PUSH1 0x40 MLOAD PUSH3 0x461BCD PUSH1 0xE5 SHL DUP2 MSTORE PUSH1 0x20 PUSH1 0x4 DUP3 ADD MSTORE PUSH1 0xE PUSH1 0x24 DUP3 ADD MSTORE PUSH14 0x4E6F20676C6F62616C2072617465 PUSH1 0x90 SHL PUSH1 0x44 DUP3 ADD MSTORE PUSH1 0x64 ADD PUSH2 0x530 JUMP JUMPDEST PUSH0 PUSH2 0xDF2 DUP7 DUP6 PUSH2 0x9E0 JUMP JUMPDEST SWAP1 POP PUSH0 PUSH8 0xDE0B6B3A7640000 PUSH2 0xE08 DUP5 DUP5 PUSH2 0x1D2A JUMP JUMPDEST PUSH2 0xE12 SWAP2 SWAP1 PUSH2 0x1D84 JUMP JUMPDEST SWAP1 POP PUSH0 PUSH2 0xE1F DUP8 DUP4 PUSH2 0xFA7 JUMP JUMPDEST SWAP1 POP PUSH0 PUSH2 0x2710 PUSH1 0x2 SLOAD DUP4 PUSH2 0xE33 SWAP2 SWAP1 PUSH2 0x1D2A JUMP JUMPDEST PUSH2 0xE3D SWAP2 SWAP1 PUSH2 0x1D84 JUMP JUMPDEST SWAP1 POP PUSH0 PUSH2 0xE4A DUP3 DUP5 PUSH2 0x1C10 JUMP JUMPDEST SWAP1 POP DUP7 DUP2 LT ISZERO PUSH2 0xE97 JUMPI PUSH1 0x40 MLOAD PUSH3 0x461BCD PUSH1 0xE5 SHL DUP2 MSTORE PUSH1 0x20 PUSH1 0x4 DUP3 ADD MSTORE PUSH1 0x18 PUSH1 0x24 DUP3 ADD MSTORE PUSH24 0x536C6970706167653A206F757470757420746F6F206C6F77 PUSH1 0x40 SHL PUSH1 0x44 DUP3 ADD MSTORE PUSH1 0x64 ADD PUSH2 0x530 JUMP JUMPDEST PUSH2 0xEAC PUSH1 0x1 PUSH1 0x1 PUSH1 0xA0 SHL SUB DUP12 AND CALLER ADDRESS DUP12 PUSH2 0x182E JUMP JUMPDEST PUSH2 0xEC0 PUSH1 0x1 PUSH1 0x1 PUSH1 0xA0 SHL SUB DUP11 AND CALLER DUP4 PUSH2 0x17CF JUMP JUMPDEST DUP2 ISZERO PUSH2 0xEE0 JUMPI PUSH1 0x3 SLOAD PUSH2 0xEE0 SWAP1 PUSH1 0x1 PUSH1 0x1 PUSH1 0xA0 SHL SUB DUP12 DUP2 AND SWAP2 AND DUP5 PUSH2 0x17CF JUMP JUMPDEST PUSH1 0x40 DUP1 MLOAD DUP10 DUP2 MSTORE PUSH1 0x20 DUP2 ADD DUP4 SWAP1 MSTORE SWAP1 DUP2 ADD DUP4 SWAP1 MSTORE PUSH1 0x1 PUSH1 0x1 PUSH1 0xA0 SHL SUB DUP1 DUP12 AND SWAP2 SWAP1 DUP13 AND SWAP1 CALLER SWAP1 PUSH32 0xEC5098F8C6AD93EE0051F440EC18DCDF5D28B504E6BC4613C0D3ADF4695C00C3 SWAP1 PUSH1 0x60 ADD PUSH1 0x40 MLOAD DUP1 SWAP2 SUB SWAP1 LOG4 POP POP POP POP POP POP PUSH2 0x48E PUSH1 0x1 DUP1 SSTORE JUMP JUMPDEST PUSH1 0x6 DUP2 DUP2 SLOAD DUP2 LT PUSH2 0xF51 JUMPI PUSH0 DUP1 REVERT JUMPDEST PUSH0 SWAP2 DUP3 MSTORE PUSH1 0x20 SWAP1 SWAP2 KECCAK256 PUSH1 0x8 SWAP1 SWAP2 MUL ADD DUP1 SLOAD PUSH1 0x1 DUP3 ADD SLOAD PUSH1 0x2 DUP4 ADD SLOAD PUSH1 0x3 DUP5 ADD SLOAD PUSH1 0x4 DUP6 ADD SLOAD PUSH1 0x5 DUP7 ADD SLOAD PUSH1 0x6 DUP8 ADD SLOAD PUSH1 0x7 SWAP1 SWAP8 ADD SLOAD PUSH1 0x1 PUSH1 0x1 PUSH1 0xA0 SHL SUB SWAP7 DUP8 AND SWAP9 POP SWAP5 DUP7 AND SWAP7 SWAP4 SWAP1 SWAP6 AND SWAP5 SWAP2 SWAP4 SWAP1 SWAP3 SWAP1 PUSH1 0xFF AND DUP9 JUMP JUMPDEST PUSH0 DUP1 PUSH2 0xFB2 DUP5 PUSH2 0x1395 JUMP JUMPDEST SWAP1 POP PUSH1 0x12 DUP2 PUSH1 0xFF AND GT ISZERO PUSH2 0xFFC JUMPI PUSH1 0x40 MLOAD PUSH3 0x461BCD PUSH1 0xE5 SHL DUP2 MSTORE PUSH1 0x20 PUSH1 0x4 DUP3 ADD MSTORE PUSH1 0x11 PUSH1 0x24 DUP3 ADD MSTORE PUSH17 0x546F6F206D616E7920646563696D616C73 PUSH1 0x78 SHL PUSH1 0x44 DUP3 ADD MSTORE PUSH1 0x64 ADD PUSH2 0x530 JUMP JUMPDEST PUSH2 0x1007 DUP2 PUSH1 0x12 PUSH2 0x1C23 JUMP JUMPDEST PUSH2 0x1012 SWAP1 PUSH1 0xA PUSH2 0x1D1C JUMP JUMPDEST PUSH2 0xA55 SWAP1 DUP5 PUSH2 0x1D84 JUMP JUMPDEST PUSH2 0x1024 PUSH2 0x1776 JUMP JUMPDEST PUSH1 0x6 SLOAD DUP4 LT PUSH2 0x105F JUMPI PUSH1 0x40 MLOAD PUSH3 0x461BCD PUSH1 0xE5 SHL DUP2 MSTORE PUSH1 0x20 PUSH1 0x4 DUP3 ADD MSTORE PUSH1 0x7 PUSH1 0x24 DUP3 ADD MSTORE PUSH7 0x125B9D985B1A59 PUSH1 0xCA SHL PUSH1 0x44 DUP3 ADD MSTORE PUSH1 0x64 ADD PUSH2 0x530 JUMP JUMPDEST PUSH0 PUSH1 0x6 DUP5 DUP2 SLOAD DUP2 LT PUSH2 0x1073 JUMPI PUSH2 0x1073 PUSH2 0x1B7F JUMP JUMPDEST PUSH0 SWAP2 DUP3 MSTORE PUSH1 0x20 SWAP1 SWAP2 KECCAK256 PUSH1 0x8 SWAP1 SWAP2 MUL ADD PUSH1 0x7 DUP2 ADD SLOAD SWAP1 SWAP2 POP PUSH1 0xFF AND PUSH2 0x10C4 JUMPI PUSH1 0x40 MLOAD PUSH3 0x461BCD PUSH1 0xE5 SHL DUP2 MSTORE PUSH1 0x20 PUSH1 0x4 DUP3 ADD MSTORE PUSH1 0x8 PUSH1 0x24 DUP3 ADD MSTORE PUSH8 0x496E616374697665 PUSH1 0xC0 SHL PUSH1 0x44 DUP3 ADD MSTORE PUSH1 0x64 ADD PUSH2 0x530 JUMP JUMPDEST PUSH1 0x1 DUP2 ADD SLOAD PUSH1 0x2 DUP3 ADD SLOAD PUSH2 0x10E4 SWAP2 PUSH1 0x1 PUSH1 0x1 PUSH1 0xA0 SHL SUB SWAP1 DUP2 AND SWAP2 AND PUSH2 0x1867 JUMP JUMPDEST PUSH2 0x1100 JUMPI PUSH1 0x40 MLOAD PUSH3 0x461BCD PUSH1 0xE5 SHL DUP2 MSTORE PUSH1 0x4 ADD PUSH2 0x530 SWAP1 PUSH2 0x1BBD JUMP JUMPDEST DUP1 PUSH1 0x6 ADD SLOAD TIMESTAMP LT PUSH2 0x113D JUMPI PUSH1 0x40 MLOAD PUSH3 0x461BCD PUSH1 0xE5 SHL DUP2 MSTORE PUSH1 0x20 PUSH1 0x4 DUP3 ADD MSTORE PUSH1 0x7 PUSH1 0x24 DUP3 ADD MSTORE PUSH7 0x115E1C1A5C9959 PUSH1 0xCA SHL PUSH1 0x44 DUP3 ADD MSTORE PUSH1 0x64 ADD PUSH2 0x530 JUMP JUMPDEST PUSH0 DUP4 GT DUP1 ISZERO PUSH2 0x1150 JUMPI POP DUP1 PUSH1 0x4 ADD SLOAD DUP4 GT ISZERO JUMPDEST PUSH2 0x118B JUMPI PUSH1 0x40 MLOAD PUSH3 0x461BCD PUSH1 0xE5 SHL DUP2 MSTORE PUSH1 0x20 PUSH1 0x4 DUP3 ADD MSTORE PUSH1 0xC PUSH1 0x24 DUP3 ADD MSTORE PUSH12 0x125B9D985B1A5908199A5B1B PUSH1 0xA2 SHL PUSH1 0x44 DUP3 ADD MSTORE PUSH1 0x64 ADD PUSH2 0x530 JUMP JUMPDEST PUSH1 0x1 DUP2 ADD SLOAD PUSH0 SWAP1 PUSH2 0x11A5 SWAP1 PUSH1 0x1 PUSH1 0x1 PUSH1 0xA0 SHL SUB AND DUP6 PUSH2 0x9E0 JUMP JUMPDEST SWAP1 POP PUSH0 PUSH8 0xDE0B6B3A7640000 DUP4 PUSH1 0x5 ADD SLOAD DUP4 PUSH2 0x11C1 SWAP2 SWAP1 PUSH2 0x1D2A JUMP JUMPDEST PUSH2 0x11CB SWAP2 SWAP1 PUSH2 0x1D84 JUMP JUMPDEST PUSH1 0x2 DUP5 ADD SLOAD SWAP1 SWAP2 POP PUSH0 SWAP1 PUSH2 0x11E8 SWAP1 PUSH1 0x1 PUSH1 0x1 PUSH1 0xA0 SHL SUB AND DUP4 PUSH2 0xFA7 JUMP JUMPDEST SWAP1 POP PUSH0 PUSH2 0x2710 PUSH1 0x2 SLOAD DUP4 PUSH2 0x11FC SWAP2 SWAP1 PUSH2 0x1D2A JUMP JUMPDEST PUSH2 0x1206 SWAP2 SWAP1 PUSH2 0x1D84 JUMP JUMPDEST SWAP1 POP PUSH0 PUSH2 0x1213 DUP3 DUP5 PUSH2 0x1C10 JUMP JUMPDEST SWAP1 POP DUP7 DUP2 LT ISZERO PUSH2 0x1260 JUMPI PUSH1 0x40 MLOAD PUSH3 0x461BCD PUSH1 0xE5 SHL DUP2 MSTORE PUSH1 0x20 PUSH1 0x4 DUP3 ADD MSTORE PUSH1 0x18 PUSH1 0x24 DUP3 ADD MSTORE PUSH24 0x536C6970706167653A206F757470757420746F6F206C6F77 PUSH1 0x40 SHL PUSH1 0x44 DUP3 ADD MSTORE PUSH1 0x64 ADD PUSH2 0x530 JUMP JUMPDEST PUSH0 DUP2 GT PUSH2 0x129B JUMPI PUSH1 0x40 MLOAD PUSH3 0x461BCD PUSH1 0xE5 SHL DUP2 MSTORE PUSH1 0x20 PUSH1 0x4 DUP3 ADD MSTORE PUSH1 0x9 PUSH1 0x24 DUP3 ADD MSTORE PUSH9 0x151BDBC81CDB585B1B PUSH1 0xBA SHL PUSH1 0x44 DUP3 ADD MSTORE PUSH1 0x64 ADD PUSH2 0x530 JUMP JUMPDEST PUSH1 0x2 DUP7 ADD SLOAD PUSH2 0x12B5 SWAP1 PUSH1 0x1 PUSH1 0x1 PUSH1 0xA0 SHL SUB AND CALLER ADDRESS DUP7 PUSH2 0x182E JUMP JUMPDEST DUP6 SLOAD PUSH1 0x2 DUP8 ADD SLOAD PUSH2 0x12D3 SWAP2 PUSH1 0x1 PUSH1 0x1 PUSH1 0xA0 SHL SUB SWAP2 DUP3 AND SWAP2 AND DUP4 PUSH2 0x17CF JUMP JUMPDEST DUP2 ISZERO PUSH2 0x12F8 JUMPI PUSH1 0x3 SLOAD PUSH1 0x2 DUP8 ADD SLOAD PUSH2 0x12F8 SWAP2 PUSH1 0x1 PUSH1 0x1 PUSH1 0xA0 SHL SUB SWAP2 DUP3 AND SWAP2 AND DUP5 PUSH2 0x17CF JUMP JUMPDEST PUSH1 0x1 DUP7 ADD SLOAD PUSH2 0x1311 SWAP1 PUSH1 0x1 PUSH1 0x1 PUSH1 0xA0 SHL SUB AND CALLER DUP11 PUSH2 0x17CF JUMP JUMPDEST DUP8 DUP7 PUSH1 0x4 ADD PUSH0 DUP3 DUP3 SLOAD PUSH2 0x1324 SWAP2 SWAP1 PUSH2 0x1C10 JUMP JUMPDEST SWAP1 SWAP2 SSTORE POP POP PUSH1 0x4 DUP7 ADD SLOAD PUSH0 SUB PUSH2 0x1341 JUMPI PUSH1 0x7 DUP7 ADD DUP1 SLOAD PUSH1 0xFF NOT AND SWAP1 SSTORE JUMPDEST PUSH1 0x40 DUP1 MLOAD DUP10 DUP2 MSTORE PUSH1 0x20 DUP2 ADD DUP6 SWAP1 MSTORE SWAP1 DUP2 ADD DUP4 SWAP1 MSTORE CALLER SWAP1 DUP11 SWAP1 PUSH32 0x3FC859A6E9309B7067994110940AA58B5CDB00EF7A86E864022B436F8BA46480 SWAP1 PUSH1 0x60 ADD PUSH1 0x40 MLOAD DUP1 SWAP2 SUB SWAP1 LOG3 POP POP POP POP POP POP PUSH2 0x4C7 PUSH1 0x1 DUP1 SSTORE JUMP JUMPDEST PUSH0 DUP2 PUSH1 0x1 PUSH1 0x1 PUSH1 0xA0 SHL SUB AND PUSH4 0x313CE567 PUSH1 0x40 MLOAD DUP2 PUSH4 0xFFFFFFFF AND PUSH1 0xE0 SHL DUP2 MSTORE PUSH1 0x4 ADD PUSH1 0x20 PUSH1 0x40 MLOAD DUP1 DUP4 SUB DUP2 DUP7 GAS STATICCALL ISZERO DUP1 ISZERO PUSH2 0x13D2 JUMPI RETURNDATASIZE PUSH0 DUP1 RETURNDATACOPY RETURNDATASIZE PUSH0 REVERT JUMPDEST POP POP POP POP PUSH1 0x40 MLOAD RETURNDATASIZE PUSH1 0x1F NOT PUSH1 0x1F DUP3 ADD AND DUP3 ADD DUP1 PUSH1 0x40 MSTORE POP DUP2 ADD SWAP1 PUSH2 0x464 SWAP2 SWAP1 PUSH2 0x1DA3 JUMP JUMPDEST PUSH2 0x1400 PUSH0 CALLER PUSH2 0xCC9 JUMP JUMPDEST DUP1 PUSH2 0x141D JUMPI POP PUSH2 0x141D PUSH0 DUP1 MLOAD PUSH1 0x20 PUSH2 0x1DC4 DUP4 CODECOPY DUP2 MLOAD SWAP2 MSTORE CALLER PUSH2 0xCC9 JUMP JUMPDEST PUSH2 0x1439 JUMPI PUSH1 0x40 MLOAD PUSH3 0x461BCD PUSH1 0xE5 SHL DUP2 MSTORE PUSH1 0x4 ADD PUSH2 0x530 SWAP1 PUSH2 0x1D41 JUMP JUMPDEST DUP2 PUSH1 0x1 PUSH1 0x1 PUSH1 0xA0 SHL SUB AND DUP4 PUSH1 0x1 PUSH1 0x1 PUSH1 0xA0 SHL SUB AND SUB PUSH2 0x146A JUMPI PUSH1 0x40 MLOAD PUSH3 0x461BCD PUSH1 0xE5 SHL DUP2 MSTORE PUSH1 0x4 ADD PUSH2 0x530 SWAP1 PUSH2 0x1B93 JUMP JUMPDEST PUSH0 DUP2 GT PUSH2 0x14A5 JUMPI PUSH1 0x40 MLOAD PUSH3 0x461BCD PUSH1 0xE5 SHL DUP2 MSTORE PUSH1 0x20 PUSH1 0x4 DUP3 ADD MSTORE PUSH1 0x9 PUSH1 0x24 DUP3 ADD MSTORE PUSH9 0x5A65726F2072617465 PUSH1 0xB8 SHL PUSH1 0x44 DUP3 ADD MSTORE PUSH1 0x64 ADD PUSH2 0x530 JUMP JUMPDEST PUSH1 0x1 PUSH1 0x1 PUSH1 0xA0 SHL SUB DUP4 AND PUSH0 SWAP1 DUP2 MSTORE PUSH1 0x4 PUSH1 0x20 MSTORE PUSH1 0x40 SWAP1 KECCAK256 SLOAD PUSH1 0xFF AND DUP1 ISZERO PUSH2 0x14E3 JUMPI POP PUSH1 0x1 PUSH1 0x1 PUSH1 0xA0 SHL SUB DUP3 AND PUSH0 SWAP1 DUP2 MSTORE PUSH1 0x4 PUSH1 0x20 MSTORE PUSH1 0x40 SWAP1 KECCAK256 SLOAD PUSH1 0xFF AND JUMPDEST PUSH2 0x14FF JUMPI PUSH1 0x40 MLOAD PUSH3 0x461BCD PUSH1 0xE5 SHL DUP2 MSTORE PUSH1 0x4 ADD PUSH2 0x530 SWAP1 PUSH2 0x1BBD JUMP JUMPDEST PUSH1 0x1 PUSH1 0x1 PUSH1 0xA0 SHL SUB DUP4 DUP2 AND PUSH0 DUP2 DUP2 MSTORE PUSH1 0x5 PUSH1 0x20 SWAP1 DUP2 MSTORE PUSH1 0x40 DUP1 DUP4 KECCAK256 SWAP5 DUP8 AND DUP1 DUP5 MSTORE SWAP5 DUP3 MSTORE SWAP2 DUP3 SWAP1 KECCAK256 DUP6 SWAP1 SSTORE SWAP1 MLOAD DUP5 DUP2 MSTORE PUSH32 0xBC337C774E3D398E3ABF682DE55E83814A46B4AB164A3D8B50740668193E1DF5 SWAP2 ADD PUSH1 0x40 MLOAD DUP1 SWAP2 SUB SWAP1 LOG3 POP POP POP JUMP JUMPDEST PUSH0 DUP3 DUP2 MSTORE PUSH1 0x20 DUP2 SWAP1 MSTORE PUSH1 0x40 SWAP1 KECCAK256 PUSH1 0x1 ADD SLOAD PUSH2 0x1579 DUP2 PUSH2 0x1674 JUMP JUMPDEST PUSH2 0x48E DUP4 DUP4 PUSH2 0x170D JUMP JUMPDEST PUSH2 0x158D PUSH0 CALLER PUSH2 0xCC9 JUMP JUMPDEST DUP1 PUSH2 0x15AA JUMPI POP PUSH2 0x15AA PUSH0 DUP1 MLOAD PUSH1 0x20 PUSH2 0x1DC4 DUP4 CODECOPY DUP2 MLOAD SWAP2 MSTORE CALLER PUSH2 0xCC9 JUMP JUMPDEST PUSH2 0x15C6 JUMPI PUSH1 0x40 MLOAD PUSH3 0x461BCD PUSH1 0xE5 SHL DUP2 MSTORE PUSH1 0x4 ADD PUSH2 0x530 SWAP1 PUSH2 0x1D41 JUMP JUMPDEST PUSH1 0x1 PUSH1 0x1 PUSH1 0xA0 SHL SUB DUP2 AND PUSH2 0x160B JUMPI PUSH1 0x40 MLOAD PUSH3 0x461BCD PUSH1 0xE5 SHL DUP2 MSTORE PUSH1 0x20 PUSH1 0x4 DUP3 ADD MSTORE PUSH1 0xC PUSH1 0x24 DUP3 ADD MSTORE PUSH12 0x5A65726F2061646472657373 PUSH1 0xA0 SHL PUSH1 0x44 DUP3 ADD MSTORE PUSH1 0x64 ADD PUSH2 0x530 JUMP JUMPDEST PUSH1 0x3 SLOAD PUSH1 0x40 DUP1 MLOAD PUSH1 0x1 PUSH1 0x1 PUSH1 0xA0 SHL SUB SWAP3 DUP4 AND DUP2 MSTORE SWAP2 DUP4 AND PUSH1 0x20 DUP4 ADD MSTORE PUSH32 0xAAEBCF1BFA00580E41D966056B48521FA9F202645C86D4DDF28113E617C1B1D3 SWAP2 ADD PUSH1 0x40 MLOAD DUP1 SWAP2 SUB SWAP1 LOG1 PUSH1 0x3 DUP1 SLOAD PUSH1 0x1 PUSH1 0x1 PUSH1 0xA0 SHL SUB NOT AND PUSH1 0x1 PUSH1 0x1 PUSH1 0xA0 SHL SUB SWAP3 SWAP1 SWAP3 AND SWAP2 SWAP1 SWAP2 OR SWAP1 SSTORE JUMP JUMPDEST PUSH2 0x65F DUP2 CALLER PUSH2 0x18CB JUMP JUMPDEST PUSH0 PUSH2 0x1689 DUP4 DUP4 PUSH2 0xCC9 JUMP JUMPDEST PUSH2 0x1706 JUMPI PUSH0 DUP4 DUP2 MSTORE PUSH1 0x20 DUP2 DUP2 MSTORE PUSH1 0x40 DUP1 DUP4 KECCAK256 PUSH1 0x1 PUSH1 0x1 PUSH1 0xA0 SHL SUB DUP7 AND DUP5 MSTORE SWAP1 SWAP2 MSTORE SWAP1 KECCAK256 DUP1 SLOAD PUSH1 0xFF NOT AND PUSH1 0x1 OR SWAP1 SSTORE PUSH2 0x16BE CALLER SWAP1 JUMP JUMPDEST PUSH1 0x1 PUSH1 0x1 PUSH1 0xA0 SHL SUB AND DUP3 PUSH1 0x1 PUSH1 0x1 PUSH1 0xA0 SHL SUB AND DUP5 PUSH32 0x2F8788117E7EFF1D82E926EC794901D17C78024A50270940304540A733656F0D PUSH1 0x40 MLOAD PUSH1 0x40 MLOAD DUP1 SWAP2 SUB SWAP1 LOG4 POP PUSH1 0x1 PUSH2 0x464 JUMP JUMPDEST POP PUSH0 PUSH2 0x464 JUMP JUMPDEST PUSH0 PUSH2 0x1718 DUP4 DUP4 PUSH2 0xCC9 JUMP JUMPDEST ISZERO PUSH2 0x1706 JUMPI PUSH0 DUP4 DUP2 MSTORE PUSH1 0x20 DUP2 DUP2 MSTORE PUSH1 0x40 DUP1 DUP4 KECCAK256 PUSH1 0x1 PUSH1 0x1 PUSH1 0xA0 SHL SUB DUP7 AND DUP1 DUP6 MSTORE SWAP3 MSTORE DUP1 DUP4 KECCAK256 DUP1 SLOAD PUSH1 0xFF NOT AND SWAP1 SSTORE MLOAD CALLER SWAP3 DUP7 SWAP2 PUSH32 0xF6391F5C32D9C69D2A47EA670B442974B53935D1EDC7FD64EB21E047A839171B SWAP2 SWAP1 LOG4 POP PUSH1 0x1 PUSH2 0x464 JUMP JUMPDEST PUSH1 0x2 PUSH1 0x1 SLOAD SUB PUSH2 0x17C8 JUMPI PUSH1 0x40 MLOAD PUSH3 0x461BCD PUSH1 0xE5 SHL DUP2 MSTORE PUSH1 0x20 PUSH1 0x4 DUP3 ADD MSTORE PUSH1 0x1F PUSH1 0x24 DUP3 ADD MSTORE PUSH32 0x5265656E7472616E637947756172643A207265656E7472616E742063616C6C00 PUSH1 0x44 DUP3 ADD MSTORE PUSH1 0x64 ADD PUSH2 0x530 JUMP JUMPDEST PUSH1 0x2 PUSH1 0x1 SSTORE JUMP JUMPDEST PUSH1 0x40 MLOAD PUSH1 0x1 PUSH1 0x1 PUSH1 0xA0 SHL SUB DUP4 DUP2 AND PUSH1 0x24 DUP4 ADD MSTORE PUSH1 0x44 DUP3 ADD DUP4 SWAP1 MSTORE PUSH2 0x4C7 SWAP2 DUP6 SWAP2 DUP3 AND SWAP1 PUSH4 0xA9059CBB SWAP1 PUSH1 0x64 ADD JUMPDEST PUSH1 0x40 MLOAD PUSH1 0x20 DUP2 DUP4 SUB SUB DUP2 MSTORE SWAP1 PUSH1 0x40 MSTORE SWAP2 POP PUSH1 0xE0 SHL PUSH1 0x20 DUP3 ADD DUP1 MLOAD PUSH1 0x1 PUSH1 0x1 PUSH1 0xE0 SHL SUB DUP4 DUP2 DUP4 AND OR DUP4 MSTORE POP POP POP POP PUSH2 0x1904 JUMP JUMPDEST PUSH1 0x40 MLOAD PUSH1 0x1 PUSH1 0x1 PUSH1 0xA0 SHL SUB DUP5 DUP2 AND PUSH1 0x24 DUP4 ADD MSTORE DUP4 DUP2 AND PUSH1 0x44 DUP4 ADD MSTORE PUSH1 0x64 DUP3 ADD DUP4 SWAP1 MSTORE PUSH2 0x48E SWAP2 DUP7 SWAP2 DUP3 AND SWAP1 PUSH4 0x23B872DD SWAP1 PUSH1 0x84 ADD PUSH2 0x17FC JUMP JUMPDEST PUSH0 DUP2 PUSH1 0x1 PUSH1 0x1 PUSH1 0xA0 SHL SUB AND DUP4 PUSH1 0x1 PUSH1 0x1 PUSH1 0xA0 SHL SUB AND EQ ISZERO DUP1 ISZERO PUSH2 0x18A1 JUMPI POP PUSH1 0x1 PUSH1 0x1 PUSH1 0xA0 SHL SUB DUP4 AND PUSH0 SWAP1 DUP2 MSTORE PUSH1 0x4 PUSH1 0x20 MSTORE PUSH1 0x40 SWAP1 KECCAK256 SLOAD PUSH1 0xFF AND JUMPDEST DUP1 ISZERO PUSH2 0x18C4 JUMPI POP PUSH1 0x1 PUSH1 0x1 PUSH1 0xA0 SHL SUB DUP3 AND PUSH0 SWAP1 DUP2 MSTORE PUSH1 0x4 PUSH1 0x20 MSTORE PUSH1 0x40 SWAP1 KECCAK256 SLOAD PUSH1 0xFF AND JUMPDEST SWAP4 SWAP3 POP POP POP JUMP JUMPDEST PUSH2 0x18D5 DUP3 DUP3 PUSH2 0xCC9 JUMP JUMPDEST PUSH2 0x4ED JUMPI PUSH1 0x40 MLOAD PUSH4 0xE2517D3F PUSH1 0xE0 SHL DUP2 MSTORE PUSH1 0x1 PUSH1 0x1 PUSH1 0xA0 SHL SUB DUP3 AND PUSH1 0x4 DUP3 ADD MSTORE PUSH1 0x24 DUP2 ADD DUP4 SWAP1 MSTORE PUSH1 0x44 ADD PUSH2 0x530 JUMP JUMPDEST PUSH0 DUP1 PUSH1 0x20 PUSH0 DUP5 MLOAD PUSH1 0x20 DUP7 ADD PUSH0 DUP9 GAS CALL DUP1 PUSH2 0x1923 JUMPI PUSH1 0x40 MLOAD RETURNDATASIZE PUSH0 DUP3 RETURNDATACOPY RETURNDATASIZE DUP2 REVERT JUMPDEST POP POP PUSH0 MLOAD RETURNDATASIZE SWAP2 POP DUP2 ISZERO PUSH2 0x193A JUMPI DUP1 PUSH1 0x1 EQ ISZERO PUSH2 0x1947 JUMP JUMPDEST PUSH1 0x1 PUSH1 0x1 PUSH1 0xA0 SHL SUB DUP5 AND EXTCODESIZE ISZERO JUMPDEST ISZERO PUSH2 0x48E JUMPI PUSH1 0x40 MLOAD PUSH4 0x5274AFE7 PUSH1 0xE0 SHL DUP2 MSTORE PUSH1 0x1 PUSH1 0x1 PUSH1 0xA0 SHL SUB DUP6 AND PUSH1 0x4 DUP3 ADD MSTORE PUSH1 0x24 ADD PUSH2 0x530 JUMP JUMPDEST PUSH0 PUSH1 0x20 DUP3 DUP5 SUB SLT ISZERO PUSH2 0x1980 JUMPI PUSH0 DUP1 REVERT JUMPDEST DUP2 CALLDATALOAD PUSH1 0x1 PUSH1 0x1 PUSH1 0xE0 SHL SUB NOT DUP2 AND DUP2 EQ PUSH2 0x18C4 JUMPI PUSH0 DUP1 REVERT JUMPDEST PUSH0 PUSH1 0x20 DUP3 DUP5 SUB SLT ISZERO PUSH2 0x19A7 JUMPI PUSH0 DUP1 REVERT JUMPDEST POP CALLDATALOAD SWAP2 SWAP1 POP JUMP JUMPDEST DUP1 CALLDATALOAD PUSH1 0x1 PUSH1 0x1 PUSH1 0xA0 SHL SUB DUP2 AND DUP2 EQ PUSH2 0x19C4 JUMPI PUSH0 DUP1 REVERT JUMPDEST SWAP2 SWAP1 POP JUMP JUMPDEST PUSH0 DUP1 PUSH1 0x40 DUP4 DUP6 SUB SLT ISZERO PUSH2 0x19DA JUMPI PUSH0 DUP1 REVERT JUMPDEST DUP3 CALLDATALOAD SWAP2 POP PUSH2 0x19EA PUSH1 0x20 DUP5 ADD PUSH2 0x19AE JUMP JUMPDEST SWAP1 POP SWAP3 POP SWAP3 SWAP1 POP JUMP JUMPDEST PUSH0 DUP1 PUSH1 0x40 DUP4 DUP6 SUB SLT ISZERO PUSH2 0x1A04 JUMPI PUSH0 DUP1 REVERT JUMPDEST PUSH2 0x1A0D DUP4 PUSH2 0x19AE JUMP JUMPDEST SWAP2 POP PUSH2 0x19EA PUSH1 0x20 DUP5 ADD PUSH2 0x19AE JUMP JUMPDEST PUSH0 PUSH1 0x20 DUP3 DUP5 SUB SLT ISZERO PUSH2 0x1A2B JUMPI PUSH0 DUP1 REVERT JUMPDEST PUSH2 0x18C4 DUP3 PUSH2 0x19AE JUMP JUMPDEST PUSH0 DUP1 PUSH0 DUP1 PUSH0 PUSH1 0xA0 DUP7 DUP9 SUB SLT ISZERO PUSH2 0x1A48 JUMPI PUSH0 DUP1 REVERT JUMPDEST PUSH2 0x1A51 DUP7 PUSH2 0x19AE JUMP JUMPDEST SWAP5 POP PUSH2 0x1A5F PUSH1 0x20 DUP8 ADD PUSH2 0x19AE JUMP JUMPDEST SWAP5 SWAP8 SWAP5 SWAP7 POP POP POP POP PUSH1 0x40 DUP4 ADD CALLDATALOAD SWAP3 PUSH1 0x60 DUP2 ADD CALLDATALOAD SWAP3 PUSH1 0x80 SWAP1 SWAP2 ADD CALLDATALOAD SWAP2 POP JUMP JUMPDEST PUSH0 DUP1 PUSH1 0x40 DUP4 DUP6 SUB SLT ISZERO PUSH2 0x1A8E JUMPI PUSH0 DUP1 REVERT JUMPDEST PUSH2 0x1A97 DUP4 PUSH2 0x19AE JUMP JUMPDEST SWAP5 PUSH1 0x20 SWAP4 SWAP1 SWAP4 ADD CALLDATALOAD SWAP4 POP POP POP JUMP JUMPDEST PUSH0 DUP1 PUSH1 0x40 DUP4 DUP6 SUB SLT ISZERO PUSH2 0x1AB6 JUMPI PUSH0 DUP1 REVERT JUMPDEST PUSH2 0x1ABF DUP4 PUSH2 0x19AE JUMP JUMPDEST SWAP2 POP PUSH1 0x20 DUP4 ADD CALLDATALOAD DUP1 ISZERO ISZERO DUP2 EQ PUSH2 0x1AD3 JUMPI PUSH0 DUP1 REVERT JUMPDEST DUP1 SWAP2 POP POP SWAP3 POP SWAP3 SWAP1 POP JUMP JUMPDEST PUSH0 DUP1 PUSH0 DUP1 PUSH1 0x80 DUP6 DUP8 SUB SLT ISZERO PUSH2 0x1AF1 JUMPI PUSH0 DUP1 REVERT JUMPDEST PUSH2 0x1AFA DUP6 PUSH2 0x19AE JUMP JUMPDEST SWAP4 POP PUSH2 0x1B08 PUSH1 0x20 DUP7 ADD PUSH2 0x19AE JUMP JUMPDEST SWAP4 SWAP7 SWAP4 SWAP6 POP POP POP POP PUSH1 0x40 DUP3 ADD CALLDATALOAD SWAP2 PUSH1 0x60 ADD CALLDATALOAD SWAP1 JUMP JUMPDEST PUSH0 DUP1 PUSH0 PUSH1 0x60 DUP5 DUP7 SUB SLT ISZERO PUSH2 0x1B2F JUMPI PUSH0 DUP1 REVERT JUMPDEST POP POP DUP2 CALLDATALOAD SWAP4 PUSH1 0x20 DUP4 ADD CALLDATALOAD SWAP4 POP PUSH1 0x40 SWAP1 SWAP3 ADD CALLDATALOAD SWAP2 SWAP1 POP JUMP JUMPDEST PUSH0 DUP1 PUSH0 PUSH1 0x60 DUP5 DUP7 SUB SLT ISZERO PUSH2 0x1B58 JUMPI PUSH0 DUP1 REVERT JUMPDEST PUSH2 0x1B61 DUP5 PUSH2 0x19AE JUMP JUMPDEST SWAP3 POP PUSH2 0x1B6F PUSH1 0x20 DUP6 ADD PUSH2 0x19AE JUMP JUMPDEST SWAP2 POP PUSH1 0x40 DUP5 ADD CALLDATALOAD SWAP1 POP SWAP3 POP SWAP3 POP SWAP3 JUMP JUMPDEST PUSH4 0x4E487B71 PUSH1 0xE0 SHL PUSH0 MSTORE PUSH1 0x32 PUSH1 0x4 MSTORE PUSH1 0x24 PUSH0 REVERT JUMPDEST PUSH1 0x20 DUP1 DUP3 MSTORE PUSH1 0x10 SWAP1 DUP3 ADD MSTORE PUSH16 0x4964656E746963616C20746F6B656E73 PUSH1 0x80 SHL PUSH1 0x40 DUP3 ADD MSTORE PUSH1 0x60 ADD SWAP1 JUMP JUMPDEST PUSH1 0x20 DUP1 DUP3 MSTORE PUSH1 0x12 SWAP1 DUP3 ADD MSTORE PUSH18 0x151BDAD95B9CC81B9BDD08185B1B1BDDD959 PUSH1 0x72 SHL PUSH1 0x40 DUP3 ADD MSTORE PUSH1 0x60 ADD SWAP1 JUMP JUMPDEST PUSH4 0x4E487B71 PUSH1 0xE0 SHL PUSH0 MSTORE PUSH1 0x11 PUSH1 0x4 MSTORE PUSH1 0x24 PUSH0 REVERT JUMPDEST DUP1 DUP3 ADD DUP1 DUP3 GT ISZERO PUSH2 0x464 JUMPI PUSH2 0x464 PUSH2 0x1BE9 JUMP JUMPDEST DUP2 DUP2 SUB DUP2 DUP2 GT ISZERO PUSH2 0x464 JUMPI PUSH2 0x464 PUSH2 0x1BE9 JUMP JUMPDEST PUSH1 0xFF DUP3 DUP2 AND DUP3 DUP3 AND SUB SWAP1 DUP2 GT ISZERO PUSH2 0x464 JUMPI PUSH2 0x464 PUSH2 0x1BE9 JUMP JUMPDEST PUSH1 0x1 DUP2 DUP2 JUMPDEST DUP1 DUP6 GT ISZERO PUSH2 0x1C76 JUMPI DUP2 PUSH0 NOT DIV DUP3 GT ISZERO PUSH2 0x1C5C JUMPI PUSH2 0x1C5C PUSH2 0x1BE9 JUMP JUMPDEST DUP1 DUP6 AND ISZERO PUSH2 0x1C69 JUMPI SWAP2 DUP2 MUL SWAP2 JUMPDEST SWAP4 DUP5 SHR SWAP4 SWAP1 DUP1 MUL SWAP1 PUSH2 0x1C41 JUMP JUMPDEST POP SWAP3 POP SWAP3 SWAP1 POP JUMP JUMPDEST PUSH0 DUP3 PUSH2 0x1C8C JUMPI POP PUSH1 0x1 PUSH2 0x464 JUMP JUMPDEST DUP2 PUSH2 0x1C98 JUMPI POP PUSH0 PUSH2 0x464 JUMP JUMPDEST DUP2 PUSH1 0x1 DUP2 EQ PUSH2 0x1CAE JUMPI PUSH1 0x2 DUP2 EQ PUSH2 0x1CB8 JUMPI PUSH2 0x1CD4 JUMP JUMPDEST PUSH1 0x1 SWAP2 POP POP PUSH2 0x464 JUMP JUMPDEST PUSH1 0xFF DUP5 GT ISZERO PUSH2 0x1CC9 JUMPI PUSH2 0x1CC9 PUSH2 0x1BE9 JUMP JUMPDEST POP POP PUSH1 0x1 DUP3 SHL PUSH2 0x464 JUMP JUMPDEST POP PUSH1 0x20 DUP4 LT PUSH2 0x133 DUP4 LT AND PUSH1 0x4E DUP5 LT PUSH1 0xB DUP5 LT AND OR ISZERO PUSH2 0x1CF7 JUMPI POP DUP2 DUP2 EXP PUSH2 0x464 JUMP JUMPDEST PUSH2 0x1D01 DUP4 DUP4 PUSH2 0x1C3C JUMP JUMPDEST DUP1 PUSH0 NOT DIV DUP3 GT ISZERO PUSH2 0x1D14 JUMPI PUSH2 0x1D14 PUSH2 0x1BE9 JUMP JUMPDEST MUL SWAP4 SWAP3 POP POP POP JUMP JUMPDEST PUSH0 PUSH2 0x18C4 PUSH1 0xFF DUP5 AND DUP4 PUSH2 0x1C7E JUMP JUMPDEST DUP1 DUP3 MUL DUP2 ISZERO DUP3 DUP3 DIV DUP5 EQ OR PUSH2 0x464 JUMPI PUSH2 0x464 PUSH2 0x1BE9 JUMP JUMPDEST PUSH1 0x20 DUP1 DUP3 MSTORE PUSH1 0x12 SWAP1 DUP3 ADD MSTORE PUSH18 0x2737BA1030B236B4B717B9BAB130B236B4B7 PUSH1 0x71 SHL PUSH1 0x40 DUP3 ADD MSTORE PUSH1 0x60 ADD SWAP1 JUMP JUMPDEST PUSH0 PUSH1 0x20 DUP3 DUP5 SUB SLT ISZERO PUSH2 0x1D7D JUMPI PUSH0 DUP1 REVERT JUMPDEST POP MLOAD SWAP2 SWAP1 POP JUMP JUMPDEST PUSH0 DUP3 PUSH2 0x1D9E JUMPI PUSH4 0x4E487B71 PUSH1 0xE0 SHL PUSH0 MSTORE PUSH1 0x12 PUSH1 0x4 MSTORE PUSH1 0x24 PUSH0 REVERT JUMPDEST POP DIV SWAP1 JUMP JUMPDEST PUSH0 PUSH1 0x20 DUP3 DUP5 SUB SLT ISZERO PUSH2 0x1DB3 JUMPI PUSH0 DUP1 REVERT JUMPDEST DUP2 MLOAD PUSH1 0xFF DUP2 AND DUP2 EQ PUSH2 0x18C4 JUMPI PUSH0 DUP1 REVERT INVALID 0x2C 0xCF SWAP1 0xDD PUSH29 0x30B80A460E25097B3C5EF613343F69AD6B2CFD3CFB644AF593CA0BA264 PUSH10 0x70667358221220C3F8E4 0x5E 0xA7 PUSH7 0xF08D2C095491A1 MULMOD STOP MLOAD 0x26 INVALID 0xE7 0x4D 0xC 0x4F 0xE0 0xB1 DUP2 0xD 0xEB PUSH18 0x4BD3F4A164736F6C63430008140033000000 "
				},
				"gasEstimates": {
					"creation": {
						"codeDepositCost": "1541000",
						"executionCost": "infinite",
						"totalCost": "infinite"
					},
					"external": {
						"DEFAULT_ADMIN_ROLE()": "282",
						"SUBADMIN_ROLE()": "infinite",
						"allowedTokens(address)": "2605",
						"cancelOrder(uint256)": "infinite",
						"createOrder(address,address,uint256,uint256,uint256)": "infinite",
						"denormalize(address,uint256)": "infinite",
						"emergencyWithdraw(address)": "infinite",
						"feeRecipient()": "2382",
						"getDecimals(address)": "infinite",
						"getRoleAdmin(bytes32)": "2490",
						"globalRates(address,address)": "infinite",
						"grantRole(bytes32,address)": "infinite",
						"grantSubAdmin(address)": "infinite",
						"hasRole(bytes32,address)": "2693",
						"matchOrder(uint256,uint256,uint256)": "infinite",
						"normalize(address,uint256)": "infinite",
						"orders(uint256)": "19715",
						"renounceRole(bytes32,address)": "29152",
						"revokeRole(bytes32,address)": "infinite",
						"setAllowedToken(address,bool)": "infinite",
						"setFee(uint256)": "infinite",
						"setFeeRecipient(address)": "infinite",
						"setGlobalRate(address,address,uint256)": "infinite",
						"supportsInterface(bytes4)": "447",
						"swapFeeBps()": "2384",
						"swapGlobal(address,address,uint256,uint256)": "infinite"
					},
					"internal": {
						"tokenInOutAllowed(address,address)": "4511"
					}
				},
				"methodIdentifiers": {
					"DEFAULT_ADMIN_ROLE()": "a217fddf",
					"SUBADMIN_ROLE()": "ba87a7c9",
					"allowedTokens(address)": "e744092e",
					"cancelOrder(uint256)": "514fcac7",
					"createOrder(address,address,uint256,uint256,uint256)": "518e62db",
					"denormalize(address,uint256)": "b38e0fc4",
					"emergencyWithdraw(address)": "6ff1c9bc",
					"feeRecipient()": "46904840",
					"getDecimals(address)": "cf54aaa0",
					"getRoleAdmin(bytes32)": "248a9ca3",
					"globalRates(address,address)": "3070e98d",
					"grantRole(bytes32,address)": "2f2ff15d",
					"grantSubAdmin(address)": "4d910929",
					"hasRole(bytes32,address)": "91d14854",
					"matchOrder(uint256,uint256,uint256)": "b7ba16f6",
					"normalize(address,uint256)": "679fb287",
					"orders(uint256)": "a85c38ef",
					"renounceRole(bytes32,address)": "36568abe",
					"revokeRole(bytes32,address)": "d547741f",
					"setAllowedToken(address,bool)": "8aaa2284",
					"setFee(uint256)": "69fe0e2d",
					"setFeeRecipient(address)": "e74b981b",
					"setGlobalRate(address,address,uint256)": "d4248bbe",
					"supportsInterface(bytes4)": "01ffc9a7",
					"swapFeeBps()": "2ffdaf89",
					"swapGlobal(address,address,uint256,uint256)": "9e2afebe"
				}
			},
			"storageLayout": {
				"storage": [
					{
						"astId": 27,
						"contract": "LibertyFinancialChain/LiberttFinancial/exchange.sol:SecureHybridExchange",
						"label": "_roles",
						"offset": 0,
						"slot": "0",
						"type": "t_mapping(t_bytes32,t_struct(RoleData)22_storage)"
					},
					{
						"astId": 480,
						"contract": "LibertyFinancialChain/LiberttFinancial/exchange.sol:SecureHybridExchange",
						"label": "_status",
						"offset": 0,
						"slot": "1",
						"type": "t_uint256"
					},
					{
						"astId": 1191,
						"contract": "LibertyFinancialChain/LiberttFinancial/exchange.sol:SecureHybridExchange",
						"label": "swapFeeBps",
						"offset": 0,
						"slot": "2",
						"type": "t_uint256"
					},
					{
						"astId": 1193,
						"contract": "LibertyFinancialChain/LiberttFinancial/exchange.sol:SecureHybridExchange",
						"label": "feeRecipient",
						"offset": 0,
						"slot": "3",
						"type": "t_address"
					},
					{
						"astId": 1197,
						"contract": "LibertyFinancialChain/LiberttFinancial/exchange.sol:SecureHybridExchange",
						"label": "allowedTokens",
						"offset": 0,
						"slot": "4",
						"type": "t_mapping(t_address,t_bool)"
					},
					{
						"astId": 1203,
						"contract": "LibertyFinancialChain/LiberttFinancial/exchange.sol:SecureHybridExchange",
						"label": "globalRates",
						"offset": 0,
						"slot": "5",
						"type": "t_mapping(t_address,t_mapping(t_address,t_uint256))"
					},
					{
						"astId": 1224,
						"contract": "LibertyFinancialChain/LiberttFinancial/exchange.sol:SecureHybridExchange",
						"label": "orders",
						"offset": 0,
						"slot": "6",
						"type": "t_array(t_struct(Order)1220_storage)dyn_storage"
					}
				],
				"types": {
					"t_address": {
						"encoding": "inplace",
						"label": "address",
						"numberOfBytes": "20"
					},
					"t_array(t_struct(Order)1220_storage)dyn_storage": {
						"base": "t_struct(Order)1220_storage",
						"encoding": "dynamic_array",
						"label": "struct SecureHybridExchange.Order[]",
						"numberOfBytes": "32"
					},
					"t_bool": {
						"encoding": "inplace",
						"label": "bool",
						"numberOfBytes": "1"
					},
					"t_bytes32": {
						"encoding": "inplace",
						"label": "bytes32",
						"numberOfBytes": "32"
					},
					"t_mapping(t_address,t_bool)": {
						"encoding": "mapping",
						"key": "t_address",
						"label": "mapping(address => bool)",
						"numberOfBytes": "32",
						"value": "t_bool"
					},
					"t_mapping(t_address,t_mapping(t_address,t_uint256))": {
						"encoding": "mapping",
						"key": "t_address",
						"label": "mapping(address => mapping(address => uint256))",
						"numberOfBytes": "32",
						"value": "t_mapping(t_address,t_uint256)"
					},
					"t_mapping(t_address,t_uint256)": {
						"encoding": "mapping",
						"key": "t_address",
						"label": "mapping(address => uint256)",
						"numberOfBytes": "32",
						"value": "t_uint256"
					},
					"t_mapping(t_bytes32,t_struct(RoleData)22_storage)": {
						"encoding": "mapping",
						"key": "t_bytes32",
						"label": "mapping(bytes32 => struct AccessControl.RoleData)",
						"numberOfBytes": "32",
						"value": "t_struct(RoleData)22_storage"
					},
					"t_struct(Order)1220_storage": {
						"encoding": "inplace",
						"label": "struct SecureHybridExchange.Order",
						"members": [
							{
								"astId": 1205,
								"contract": "LibertyFinancialChain/LiberttFinancial/exchange.sol:SecureHybridExchange",
								"label": "maker",
								"offset": 0,
								"slot": "0",
								"type": "t_address"
							},
							{
								"astId": 1207,
								"contract": "LibertyFinancialChain/LiberttFinancial/exchange.sol:SecureHybridExchange",
								"label": "tokenIn",
								"offset": 0,
								"slot": "1",
								"type": "t_address"
							},
							{
								"astId": 1209,
								"contract": "LibertyFinancialChain/LiberttFinancial/exchange.sol:SecureHybridExchange",
								"label": "tokenOut",
								"offset": 0,
								"slot": "2",
								"type": "t_address"
							},
							{
								"astId": 1211,
								"contract": "LibertyFinancialChain/LiberttFinancial/exchange.sol:SecureHybridExchange",
								"label": "amountInitial",
								"offset": 0,
								"slot": "3",
								"type": "t_uint256"
							},
							{
								"astId": 1213,
								"contract": "LibertyFinancialChain/LiberttFinancial/exchange.sol:SecureHybridExchange",
								"label": "amountRemaining",
								"offset": 0,
								"slot": "4",
								"type": "t_uint256"
							},
							{
								"astId": 1215,
								"contract": "LibertyFinancialChain/LiberttFinancial/exchange.sol:SecureHybridExchange",
								"label": "rate",
								"offset": 0,
								"slot": "5",
								"type": "t_uint256"
							},
							{
								"astId": 1217,
								"contract": "LibertyFinancialChain/LiberttFinancial/exchange.sol:SecureHybridExchange",
								"label": "expiresAt",
								"offset": 0,
								"slot": "6",
								"type": "t_uint256"
							},
							{
								"astId": 1219,
								"contract": "LibertyFinancialChain/LiberttFinancial/exchange.sol:SecureHybridExchange",
								"label": "active",
								"offset": 0,
								"slot": "7",
								"type": "t_bool"
							}
						],
						"numberOfBytes": "256"
					},
					"t_struct(RoleData)22_storage": {
						"encoding": "inplace",
						"label": "struct AccessControl.RoleData",
						"members": [
							{
								"astId": 19,
								"contract": "LibertyFinancialChain/LiberttFinancial/exchange.sol:SecureHybridExchange",
								"label": "hasRole",
								"offset": 0,
								"slot": "0",
								"type": "t_mapping(t_address,t_bool)"
							},
							{
								"astId": 21,
								"contract": "LibertyFinancialChain/LiberttFinancial/exchange.sol:SecureHybridExchange",
								"label": "adminRole",
								"offset": 0,
								"slot": "1",
								"type": "t_bytes32"
							}
						],
						"numberOfBytes": "64"
					},
					"t_uint256": {
						"encoding": "inplace",
						"label": "uint256",
						"numberOfBytes": "32"
					}
				}
			},
			"userdoc": {
				"kind": "user",
				"methods": {},
				"version": 1
			}
		}
	}
}