{
	"LibertyFinancialChain/inr1.sol": {
		"INR1Token": {
			"abi": [
				{
					"inputs": [
						{
							"internalType": "address",
							"name": "admin",
							"type": "address"
						}
					],
					"stateMutability": "nonpayable",
					"type": "constructor"
				},
				{
					"inputs": [],
					"name": "AccessControlBadConfirmation",
					"type": "error"
				},
				{
					"inputs": [
						{
							"internalType": "address",
							"name": "account",
							"type": "address"
						},
						{
							"internalType": "bytes32",
							"name": "neededRole",
							"type": "bytes32"
						}
					],
					"name": "AccessControlUnauthorizedAccount",
					"type": "error"
				},
				{
					"inputs": [
						{
							"internalType": "address",
							"name": "spender",
							"type": "address"
						},
						{
							"internalType": "uint256",
							"name": "allowance",
							"type": "uint256"
						},
						{
							"internalType": "uint256",
							"name": "needed",
							"type": "uint256"
						}
					],
					"name": "ERC20InsufficientAllowance",
					"type": "error"
				},
				{
					"inputs": [
						{
							"internalType": "address",
							"name": "sender",
							"type": "address"
						},
						{
							"internalType": "uint256",
							"name": "balance",
							"type": "uint256"
						},
						{
							"internalType": "uint256",
							"name": "needed",
							"type": "uint256"
						}
					],
					"name": "ERC20InsufficientBalance",
					"type": "error"
				},
				{
					"inputs": [
						{
							"internalType": "address",
							"name": "approver",
							"type": "address"
						}
					],
					"name": "ERC20InvalidApprover",
					"type": "error"
				},
				{
					"inputs": [
						{
							"internalType": "address",
							"name": "receiver",
							"type": "address"
						}
					],
					"name": "ERC20InvalidReceiver",
					"type": "error"
				},
				{
					"inputs": [
						{
							"internalType": "address",
							"name": "sender",
							"type": "address"
						}
					],
					"name": "ERC20InvalidSender",
					"type": "error"
				},
				{
					"inputs": [
						{
							"internalType": "address",
							"name": "spender",
							"type": "address"
						}
					],
					"name": "ERC20InvalidSpender",
					"type": "error"
				},
				{
					"inputs": [],
					"name": "ReentrancyGuardReentrantCall",
					"type": "error"
				},
				{
					"anonymous": false,
					"inputs": [
						{
							"indexed": true,
							"internalType": "address",
							"name": "owner",
							"type": "address"
						},
						{
							"indexed": true,
							"internalType": "address",
							"name": "spender",
							"type": "address"
						},
						{
							"indexed": false,
							"internalType": "uint256",
							"name": "value",
							"type": "uint256"
						}
					],
					"name": "Approval",
					"type": "event"
				},
				{
					"anonymous": false,
					"inputs": [
						{
							"indexed": true,
							"internalType": "address",
							"name": "account",
							"type": "address"
						},
						{
							"indexed": false,
							"internalType": "bool",
							"name": "isBlacklisted",
							"type": "bool"
						}
					],
					"name": "Blacklisted",
					"type": "event"
				},
				{
					"anonymous": false,
					"inputs": [
						{
							"indexed": true,
							"internalType": "address",
							"name": "from",
							"type": "address"
						},
						{
							"indexed": false,
							"internalType": "uint256",
							"name": "amount",
							"type": "uint256"
						}
					],
					"name": "Burned",
					"type": "event"
				},
				{
					"anonymous": false,
					"inputs": [
						{
							"indexed": true,
							"internalType": "address",
							"name": "to",
							"type": "address"
						},
						{
							"indexed": false,
							"internalType": "uint256",
							"name": "amount",
							"type": "uint256"
						}
					],
					"name": "Minted",
					"type": "event"
				},
				{
					"anonymous": false,
					"inputs": [
						{
							"indexed": true,
							"internalType": "bytes32",
							"name": "role",
							"type": "bytes32"
						},
						{
							"indexed": true,
							"internalType": "bytes32",
							"name": "previousAdminRole",
							"type": "bytes32"
						},
						{
							"indexed": true,
							"internalType": "bytes32",
							"name": "newAdminRole",
							"type": "bytes32"
						}
					],
					"name": "RoleAdminChanged",
					"type": "event"
				},
				{
					"anonymous": false,
					"inputs": [
						{
							"indexed": true,
							"internalType": "bytes32",
							"name": "role",
							"type": "bytes32"
						},
						{
							"indexed": true,
							"internalType": "address",
							"name": "account",
							"type": "address"
						},
						{
							"indexed": true,
							"internalType": "address",
							"name": "sender",
							"type": "address"
						}
					],
					"name": "RoleGranted",
					"type": "event"
				},
				{
					"anonymous": false,
					"inputs": [
						{
							"indexed": true,
							"internalType": "bytes32",
							"name": "role",
							"type": "bytes32"
						},
						{
							"indexed": true,
							"internalType": "address",
							"name": "account",
							"type": "address"
						},
						{
							"indexed": true,
							"internalType": "address",
							"name": "sender",
							"type": "address"
						}
					],
					"name": "RoleRevoked",
					"type": "event"
				},
				{
					"anonymous": false,
					"inputs": [
						{
							"indexed": true,
							"internalType": "address",
							"name": "from",
							"type": "address"
						},
						{
							"indexed": true,
							"internalType": "address",
							"name": "to",
							"type": "address"
						},
						{
							"indexed": false,
							"internalType": "uint256",
							"name": "value",
							"type": "uint256"
						}
					],
					"name": "Transfer",
					"type": "event"
				},
				{
					"inputs": [],
					"name": "ADMIN_ROLE",
					"outputs": [
						{
							"internalType": "bytes32",
							"name": "",
							"type": "bytes32"
						}
					],
					"stateMutability": "view",
					"type": "function"
				},
				{
					"inputs": [],
					"name": "BURNER_ROLE",
					"outputs": [
						{
							"internalType": "bytes32",
							"name": "",
							"type": "bytes32"
						}
					],
					"stateMutability": "view",
					"type": "function"
				},
				{
					"inputs": [],
					"name": "DEFAULT_ADMIN_ROLE",
					"outputs": [
						{
							"internalType": "bytes32",
							"name": "",
							"type": "bytes32"
						}
					],
					"stateMutability": "view",
					"type": "function"
				},
				{
					"inputs": [],
					"name": "MINTER_ROLE",
					"outputs": [
						{
							"internalType": "bytes32",
							"name": "",
							"type": "bytes32"
						}
					],
					"stateMutability": "view",
					"type": "function"
				},
				{
					"inputs": [
						{
							"internalType": "address",
							"name": "owner",
							"type": "address"
						},
						{
							"internalType": "address",
							"name": "spender",
							"type": "address"
						}
					],
					"name": "allowance",
					"outputs": [
						{
							"internalType": "uint256",
							"name": "",
							"type": "uint256"
						}
					],
					"stateMutability": "view",
					"type": "function"
				},
				{
					"inputs": [
						{
							"internalType": "address",
							"name": "spender",
							"type": "address"
						},
						{
							"internalType": "uint256",
							"name": "value",
							"type": "uint256"
						}
					],
					"name": "approve",
					"outputs": [
						{
							"internalType": "bool",
							"name": "",
							"type": "bool"
						}
					],
					"stateMutability": "nonpayable",
					"type": "function"
				},
				{
					"inputs": [
						{
							"internalType": "address",
							"name": "account",
							"type": "address"
						}
					],
					"name": "balanceOf",
					"outputs": [
						{
							"internalType": "uint256",
							"name": "",
							"type": "uint256"
						}
					],
					"stateMutability": "view",
					"type": "function"
				},
				{
					"inputs": [
						{
							"internalType": "address",
							"name": "",
							"type": "address"
						}
					],
					"name": "blacklisted",
					"outputs": [
						{
							"internalType": "bool",
							"name": "",
							"type": "bool"
						}
					],
					"stateMutability": "view",
					"type": "function"
				},
				{
					"inputs": [
						{
							"internalType": "address",
							"name": "from",
							"type": "address"
						},
						{
							"internalType": "uint256",
							"name": "amount",
							"type": "uint256"
						}
					],
					"name": "burn",
					"outputs": [],
					"stateMutability": "nonpayable",
					"type": "function"
				},
				{
					"inputs": [],
					"name": "decimals",
					"outputs": [
						{
							"internalType": "uint8",
							"name": "",
							"type": "uint8"
						}
					],
					"stateMutability": "view",
					"type": "function"
				},
				{
					"inputs": [
						{
							"internalType": "bytes32",
							"name": "role",
							"type": "bytes32"
						}
					],
					"name": "getRoleAdmin",
					"outputs": [
						{
							"internalType": "bytes32",
							"name": "",
							"type": "bytes32"
						}
					],
					"stateMutability": "view",
					"type": "function"
				},
				{
					"inputs": [
						{
							"internalType": "bytes32",
							"name": "role",
							"type": "bytes32"
						},
						{
							"internalType": "address",
							"name": "account",
							"type": "address"
						}
					],
					"name": "grantRole",
					"outputs": [],
					"stateMutability": "nonpayable",
					"type": "function"
				},
				{
					"inputs": [
						{
							"internalType": "bytes32",
							"name": "role",
							"type": "bytes32"
						},
						{
							"internalType": "address",
							"name": "account",
							"type": "address"
						}
					],
					"name": "hasRole",
					"outputs": [
						{
							"internalType": "bool",
							"name": "",
							"type": "bool"
						}
					],
					"stateMutability": "view",
					"type": "function"
				},
				{
					"inputs": [
						{
							"internalType": "address",
							"name": "to",
							"type": "address"
						},
						{
							"internalType": "uint256",
							"name": "amount",
							"type": "uint256"
						}
					],
					"name": "mint",
					"outputs": [],
					"stateMutability": "nonpayable",
					"type": "function"
				},
				{
					"inputs": [],
					"name": "name",
					"outputs": [
						{
							"internalType": "string",
							"name": "",
							"type": "string"
						}
					],
					"stateMutability": "view",
					"type": "function"
				},
				{
					"inputs": [
						{
							"internalType": "bytes32",
							"name": "role",
							"type": "bytes32"
						},
						{
							"internalType": "address",
							"name": "callerConfirmation",
							"type": "address"
						}
					],
					"name": "renounceRole",
					"outputs": [],
					"stateMutability": "nonpayable",
					"type": "function"
				},
				{
					"inputs": [
						{
							"internalType": "address",
							"name": "token",
							"type": "address"
						},
						{
							"internalType": "address",
							"name": "to",
							"type": "address"
						},
						{
							"internalType": "uint256",
							"name": "amount",
							"type": "uint256"
						}
					],
					"name": "rescueERC20",
					"outputs": [],
					"stateMutability": "nonpayable",
					"type": "function"
				},
				{
					"inputs": [
						{
							"internalType": "bytes32",
							"name": "role",
							"type": "bytes32"
						},
						{
							"internalType": "address",
							"name": "account",
							"type": "address"
						}
					],
					"name": "revokeRole",
					"outputs": [],
					"stateMutability": "nonpayable",
					"type": "function"
				},
				{
					"inputs": [
						{
							"internalType": "address",
							"name": "account",
							"type": "address"
						},
						{
							"internalType": "bool",
							"name": "value",
							"type": "bool"
						}
					],
					"name": "setBlacklisted",
					"outputs": [],
					"stateMutability": "nonpayable",
					"type": "function"
				},
				{
					"inputs": [
						{
							"internalType": "bytes4",
							"name": "interfaceId",
							"type": "bytes4"
						}
					],
					"name": "supportsInterface",
					"outputs": [
						{
							"internalType": "bool",
							"name": "",
							"type": "bool"
						}
					],
					"stateMutability": "view",
					"type": "function"
				},
				{
					"inputs": [],
					"name": "symbol",
					"outputs": [
						{
							"internalType": "string",
							"name": "",
							"type": "string"
						}
					],
					"stateMutability": "view",
					"type": "function"
				},
				{
					"inputs": [],
					"name": "totalSupply",
					"outputs": [
						{
							"internalType": "uint256",
							"name": "",
							"type": "uint256"
						}
					],
					"stateMutability": "view",
					"type": "function"
				},
				{
					"inputs": [
						{
							"internalType": "address",
							"name": "to",
							"type": "address"
						},
						{
							"internalType": "uint256",
							"name": "value",
							"type": "uint256"
						}
					],
					"name": "transfer",
					"outputs": [
						{
							"internalType": "bool",
							"name": "",
							"type": "bool"
						}
					],
					"stateMutability": "nonpayable",
					"type": "function"
				},
				{
					"inputs": [
						{
							"internalType": "address",
							"name": "from",
							"type": "address"
						},
						{
							"internalType": "address",
							"name": "to",
							"type": "address"
						},
						{
							"internalType": "uint256",
							"name": "value",
							"type": "uint256"
						}
					],
					"name": "transferFrom",
					"outputs": [
						{
							"internalType": "bool",
							"name": "",
							"type": "bool"
						}
					],
					"stateMutability": "nonpayable",
					"type": "function"
				}
			],
			"devdoc": {
				"errors": {
					"AccessControlBadConfirmation()": [
						{
							"details": "The caller of a function is not the expected one. NOTE: Don't confuse with {AccessControlUnauthorizedAccount}."
						}
					],
					"AccessControlUnauthorizedAccount(address,bytes32)": [
						{
							"details": "The `account` is missing a role."
						}
					],
					"ERC20InsufficientAllowance(address,uint256,uint256)": [
						{
							"details": "Indicates a failure with the `spender`’s `allowance`. Used in transfers.",
							"params": {
								"allowance": "Amount of tokens a `spender` is allowed to operate with.",
								"needed": "Minimum amount required to perform a transfer.",
								"spender": "Address that may be allowed to operate on tokens without being their owner."
							}
						}
					],
					"ERC20InsufficientBalance(address,uint256,uint256)": [
						{
							"details": "Indicates an error related to the current `balance` of a `sender`. Used in transfers.",
							"params": {
								"balance": "Current balance for the interacting account.",
								"needed": "Minimum amount required to perform a transfer.",
								"sender": "Address whose tokens are being transferred."
							}
						}
					],
					"ERC20InvalidApprover(address)": [
						{
							"details": "Indicates a failure with the `approver` of a token to be approved. Used in approvals.",
							"params": {
								"approver": "Address initiating an approval operation."
							}
						}
					],
					"ERC20InvalidReceiver(address)": [
						{
							"details": "Indicates a failure with the token `receiver`. Used in transfers.",
							"params": {
								"receiver": "Address to which tokens are being transferred."
							}
						}
					],
					"ERC20InvalidSender(address)": [
						{
							"details": "Indicates a failure with the token `sender`. Used in transfers.",
							"params": {
								"sender": "Address whose tokens are being transferred."
							}
						}
					],
					"ERC20InvalidSpender(address)": [
						{
							"details": "Indicates a failure with the `spender` to be approved. Used in approvals.",
							"params": {
								"spender": "Address that may be allowed to operate on tokens without being their owner."
							}
						}
					],
					"ReentrancyGuardReentrantCall()": [
						{
							"details": "Unauthorized reentrant call."
						}
					]
				},
				"events": {
					"Approval(address,address,uint256)": {
						"details": "Emitted when the allowance of a `spender` for an `owner` is set by a call to {approve}. `value` is the new allowance."
					},
					"RoleAdminChanged(bytes32,bytes32,bytes32)": {
						"details": "Emitted when `newAdminRole` is set as ``role``'s admin role, replacing `previousAdminRole` `DEFAULT_ADMIN_ROLE` is the starting admin for all roles, despite {RoleAdminChanged} not being emitted to signal this."
					},
					"RoleGranted(bytes32,address,address)": {
						"details": "Emitted when `account` is granted `role`. `sender` is the account that originated the contract call. This account bears the admin role (for the granted role). Expected in cases where the role was granted using the internal {AccessControl-_grantRole}."
					},
					"RoleRevoked(bytes32,address,address)": {
						"details": "Emitted when `account` is revoked `role`. `sender` is the account that originated the contract call:   - if using `revokeRole`, it is the admin role bearer   - if using `renounceRole`, it is the role bearer (i.e. `account`)"
					},
					"Transfer(address,address,uint256)": {
						"details": "Emitted when `value` tokens are moved from one account (`from`) to another (`to`). Note that `value` may be zero."
					}
				},
				"kind": "dev",
				"methods": {
					"allowance(address,address)": {
						"details": "Returns the remaining number of tokens that `spender` will be allowed to spend on behalf of `owner` through {transferFrom}. This is zero by default. This value changes when {approve} or {transferFrom} are called."
					},
					"approve(address,uint256)": {
						"details": "See {IERC20-approve}. NOTE: If `value` is the maximum `uint256`, the allowance is not updated on `transferFrom`. This is semantically equivalent to an infinite approval. Requirements: - `spender` cannot be the zero address."
					},
					"balanceOf(address)": {
						"details": "Returns the value of tokens owned by `account`."
					},
					"decimals()": {
						"details": "Returns the number of decimals used to get its user representation. For example, if `decimals` equals `2`, a balance of `505` tokens should be displayed to a user as `5.05` (`505 / 10 ** 2`). Tokens usually opt for a value of 18, imitating the relationship between Ether and Wei. This is the default value returned by this function, unless it's overridden. NOTE: This information is only used for _display_ purposes: it in no way affects any of the arithmetic of the contract, including {IERC20-balanceOf} and {IERC20-transfer}."
					},
					"getRoleAdmin(bytes32)": {
						"details": "Returns the admin role that controls `role`. See {grantRole} and {revokeRole}. To change a role's admin, use {_setRoleAdmin}."
					},
					"grantRole(bytes32,address)": {
						"details": "Grants `role` to `account`. If `account` had not been already granted `role`, emits a {RoleGranted} event. Requirements: - the caller must have ``role``'s admin role. May emit a {RoleGranted} event."
					},
					"hasRole(bytes32,address)": {
						"details": "Returns `true` if `account` has been granted `role`."
					},
					"name()": {
						"details": "Returns the name of the token."
					},
					"renounceRole(bytes32,address)": {
						"details": "Revokes `role` from the calling account. Roles are often managed via {grantRole} and {revokeRole}: this function's purpose is to provide a mechanism for accounts to lose their privileges if they are compromised (such as when a trusted device is misplaced). If the calling account had been revoked `role`, emits a {RoleRevoked} event. Requirements: - the caller must be `callerConfirmation`. May emit a {RoleRevoked} event."
					},
					"revokeRole(bytes32,address)": {
						"details": "Revokes `role` from `account`. If `account` had been granted `role`, emits a {RoleRevoked} event. Requirements: - the caller must have ``role``'s admin role. May emit a {RoleRevoked} event."
					},
					"supportsInterface(bytes4)": {
						"details": "Returns true if this contract implements the interface defined by `interfaceId`. See the corresponding https://eips.ethereum.org/EIPS/eip-165#how-interfaces-are-identified[ERC section] to learn more about how these ids are created. This function call must use less than 30 000 gas."
					},
					"symbol()": {
						"details": "Returns the symbol of the token, usually a shorter version of the name."
					},
					"totalSupply()": {
						"details": "Returns the value of tokens in existence."
					},
					"transfer(address,uint256)": {
						"details": "See {IERC20-transfer}. Requirements: - `to` cannot be the zero address. - the caller must have a balance of at least `value`."
					},
					"transferFrom(address,address,uint256)": {
						"details": "See {IERC20-transferFrom}. Skips emitting an {Approval} event indicating an allowance update. This is not required by the ERC. See {xref-ERC20-_approve-address-address-uint256-bool-}[_approve]. NOTE: Does not update the allowance if the current allowance is the maximum `uint256`. Requirements: - `from` and `to` cannot be the zero address. - `from` must have a balance of at least `value`. - the caller must have allowance for ``from``'s tokens of at least `value`."
					}
				},
				"version": 1
			},
			"evm": {
				"assembly": "    /* \"LibertyFinancialChain/inr1.sol\":308:3139  contract INR1Token is ERC20, AccessControl, ReentrancyGuard {... */\n  mstore(0x40, 0x80)\n    /* \"LibertyFinancialChain/inr1.sol\":853:1306  constructor(address admin) ERC20(\"INR1 Stable\", \"INR1\") {... */\n  callvalue\n  dup1\n  iszero\n  tag_1\n  jumpi\n  0x00\n  dup1\n  revert\ntag_1:\n  pop\n  mload(0x40)\n  sub(codesize, bytecodeSize)\n  dup1\n  bytecodeSize\n  dup4\n  codecopy\n  dup2\n  add\n  0x40\n  dup2\n  swap1\n  mstore\n  tag_2\n  swap2\n  tag_3\n  jump\t// in\ntag_2:\n    /* \"@openzeppelin/contracts/token/ERC20/ERC20.sol\":1582:1695  constructor(string memory name_, string memory symbol_) {... */\n  mload(0x40)\n  dup1\n  0x40\n  add\n  0x40\n  mstore\n  dup1\n  0x0b\n  dup2\n  mstore\n  0x20\n  add\n  shl(0xa8, 0x494e523120537461626c65)\n  dup2\n  mstore\n  pop\n  mload(0x40)\n  dup1\n  0x40\n  add\n  0x40\n  mstore\n  dup1\n  0x04\n  dup2\n  mstore\n  0x20\n  add\n  shl(0xe0, 0x494e5231)\n  dup2\n  mstore\n  pop\n    /* \"@openzeppelin/contracts/token/ERC20/ERC20.sol\":1656:1661  name_ */\n  dup2\n    /* \"@openzeppelin/contracts/token/ERC20/ERC20.sol\":1648:1653  _name */\n  0x03\n    /* \"@openzeppelin/contracts/token/ERC20/ERC20.sol\":1648:1661  _name = name_ */\n  swap1\n  dup2\n  tag_8\n  swap2\n  swap1\n  tag_9\n  jump\t// in\ntag_8:\n  pop\n    /* \"@openzeppelin/contracts/token/ERC20/ERC20.sol\":1671:1678  _symbol */\n  0x04\n    /* \"@openzeppelin/contracts/token/ERC20/ERC20.sol\":1671:1688  _symbol = symbol_ */\n  tag_10\n    /* \"@openzeppelin/contracts/token/ERC20/ERC20.sol\":1681:1688  symbol_ */\n  dup3\n    /* \"@openzeppelin/contracts/token/ERC20/ERC20.sol\":1671:1678  _symbol */\n  dup3\n    /* \"@openzeppelin/contracts/token/ERC20/ERC20.sol\":1671:1688  _symbol = symbol_ */\n  tag_9\n  jump\t// in\ntag_10:\n  pop\n  pop\n    /* \"@openzeppelin/contracts/utils/ReentrancyGuard.sol\":1857:1858  1 */\n  0x01\n    /* \"@openzeppelin/contracts/utils/ReentrancyGuard.sol\":2061:2068  _status */\n  0x06\n    /* \"@openzeppelin/contracts/utils/ReentrancyGuard.sol\":2061:2082  _status = NOT_ENTERED */\n  sstore\n  pop\n  sub(shl(0xa0, 0x01), 0x01)\n    /* \"LibertyFinancialChain/inr1.sol\":927:946  admin != address(0) */\n  dup2\n  and\n    /* \"LibertyFinancialChain/inr1.sol\":919:961  require(admin != address(0), \"Zero admin\") */\n  tag_13\n  jumpi\n  mload(0x40)\n  shl(0xe5, 0x461bcd)\n  dup2\n  mstore\n    /* \"#utility.yul\":3232:3234   */\n  0x20\n    /* \"LibertyFinancialChain/inr1.sol\":919:961  require(admin != address(0), \"Zero admin\") */\n  0x04\n  dup3\n  add\n    /* \"#utility.yul\":3214:3235   */\n  mstore\n    /* \"#utility.yul\":3271:3273   */\n  0x0a\n    /* \"#utility.yul\":3251:3269   */\n  0x24\n  dup3\n  add\n    /* \"#utility.yul\":3244:3274   */\n  mstore\n  shl(0xb1, 0x2d32b9379030b236b4b7)\n    /* \"#utility.yul\":3290:3308   */\n  0x44\n  dup3\n  add\n    /* \"#utility.yul\":3283:3323   */\n  mstore\n    /* \"#utility.yul\":3340:3358   */\n  0x64\n  add\n    /* \"LibertyFinancialChain/inr1.sol\":919:961  require(admin != address(0), \"Zero admin\") */\ntag_14:\n  mload(0x40)\n  dup1\n  swap2\n  sub\n  swap1\n  revert\ntag_13:\n    /* \"LibertyFinancialChain/inr1.sol\":971:1000  _grantRole(ADMIN_ROLE, admin) */\n  tag_16\n    /* \"@openzeppelin/contracts/access/AccessControl.sol\":2241:2245  0x00 */\n  0x00\n    /* \"LibertyFinancialChain/inr1.sol\":994:999  admin */\n  dup3\n    /* \"LibertyFinancialChain/inr1.sol\":971:981  _grantRole */\n  tag_17\n    /* \"LibertyFinancialChain/inr1.sol\":971:1000  _grantRole(ADMIN_ROLE, admin) */\n  jump\t// in\ntag_16:\n  pop\n    /* \"LibertyFinancialChain/inr1.sol\":1092:1122  _grantRole(MINTER_ROLE, admin) */\n  tag_18\n    /* \"LibertyFinancialChain/inr1.sol\":486:510  keccak256(\"MINTER_ROLE\") */\n  0x9f2df0fed2c77648de5860a4cc508cd0818c85b8b8a1ab4ceeef8d981c8956a6\n    /* \"LibertyFinancialChain/inr1.sol\":1116:1121  admin */\n  dup3\n    /* \"LibertyFinancialChain/inr1.sol\":1092:1102  _grantRole */\n  tag_17\n    /* \"LibertyFinancialChain/inr1.sol\":1092:1122  _grantRole(MINTER_ROLE, admin) */\n  jump\t// in\ntag_18:\n  pop\n    /* \"LibertyFinancialChain/inr1.sol\":1132:1162  _grantRole(BURNER_ROLE, admin) */\n  tag_19\n    /* \"LibertyFinancialChain/inr1.sol\":554:578  keccak256(\"BURNER_ROLE\") */\n  0x3c11d16cbaffd01df69ce1c404f6340ee057498f5f00246190ea54220576a848\n    /* \"LibertyFinancialChain/inr1.sol\":1156:1161  admin */\n  dup3\n    /* \"LibertyFinancialChain/inr1.sol\":1132:1142  _grantRole */\n  tag_17\n    /* \"LibertyFinancialChain/inr1.sol\":1132:1162  _grantRole(BURNER_ROLE, admin) */\n  jump\t// in\ntag_19:\n  pop\n    /* \"LibertyFinancialChain/inr1.sol\":1216:1249  _mint(admin, 6_000_000_000 ether) */\n  tag_20\n    /* \"LibertyFinancialChain/inr1.sol\":1222:1227  admin */\n  dup2\n    /* \"LibertyFinancialChain/inr1.sol\":1229:1248  6_000_000_000 ether */\n  0x1363156bbee3016d70000000\n    /* \"LibertyFinancialChain/inr1.sol\":1216:1221  _mint */\n  tag_21\n    /* \"LibertyFinancialChain/inr1.sol\":1216:1249  _mint(admin, 6_000_000_000 ether) */\n  jump\t// in\ntag_20:\n    /* \"LibertyFinancialChain/inr1.sol\":1272:1277  admin */\n  dup1\n  sub(shl(0xa0, 0x01), 0x01)\n    /* \"LibertyFinancialChain/inr1.sol\":1265:1299  Minted(admin, 6_000_000_000 ether) */\n  and\n  0x30385c845b448a36257a6a1716e6ad2e1bc2cbe333cde1e69fe849ad6511adfe\n    /* \"LibertyFinancialChain/inr1.sol\":1279:1298  6_000_000_000 ether */\n  0x1363156bbee3016d70000000\n    /* \"LibertyFinancialChain/inr1.sol\":1265:1299  Minted(admin, 6_000_000_000 ether) */\n  mload(0x40)\n  tag_22\n  swap2\n    /* \"#utility.yul\":3550:3575   */\n  dup2\n  mstore\n    /* \"#utility.yul\":3538:3540   */\n  0x20\n    /* \"#utility.yul\":3523:3541   */\n  add\n  swap1\n    /* \"#utility.yul\":3369:3581   */\n  jump\n    /* \"LibertyFinancialChain/inr1.sol\":1265:1299  Minted(admin, 6_000_000_000 ether) */\ntag_22:\n  mload(0x40)\n  dup1\n  swap2\n  sub\n  swap1\n  log2\n    /* \"LibertyFinancialChain/inr1.sol\":853:1306  constructor(address admin) ERC20(\"INR1 Stable\", \"INR1\") {... */\n  pop\n    /* \"LibertyFinancialChain/inr1.sol\":308:3139  contract INR1Token is ERC20, AccessControl, ReentrancyGuard {... */\n  jump(tag_68)\n    /* \"@openzeppelin/contracts/access/AccessControl.sol\":6155:6471  function _grantRole(bytes32 role, address account) internal virtual returns (bool) {... */\ntag_17:\n    /* \"@openzeppelin/contracts/access/AccessControl.sol\":6232:6236  bool */\n  0x00\n    /* \"@openzeppelin/contracts/access/AccessControl.sol\":2930:2942  _roles[role] */\n  dup3\n  dup2\n  mstore\n    /* \"@openzeppelin/contracts/access/AccessControl.sol\":2930:2936  _roles */\n  0x05\n    /* \"@openzeppelin/contracts/access/AccessControl.sol\":2930:2942  _roles[role] */\n  0x20\n  swap1\n  dup2\n  mstore\n  0x40\n  dup1\n  dup4\n  keccak256\n  sub(shl(0xa0, 0x01), 0x01)\n    /* \"@openzeppelin/contracts/access/AccessControl.sol\":2930:2959  _roles[role].hasRole[account] */\n  dup6\n  and\n  dup5\n  mstore\n  swap1\n  swap2\n  mstore\n  dup2\n  keccak256\n  sload\n  0xff\n  and\n    /* \"@openzeppelin/contracts/access/AccessControl.sol\":6248:6465  if (!hasRole(role, account)) {... */\n  tag_28\n  jumpi\n    /* \"@openzeppelin/contracts/access/AccessControl.sol\":6291:6303  _roles[role] */\n  0x00\n  dup4\n  dup2\n  mstore\n    /* \"@openzeppelin/contracts/access/AccessControl.sol\":6291:6297  _roles */\n  0x05\n    /* \"@openzeppelin/contracts/access/AccessControl.sol\":6291:6303  _roles[role] */\n  0x20\n  swap1\n  dup2\n  mstore\n  0x40\n  dup1\n  dup4\n  keccak256\n  sub(shl(0xa0, 0x01), 0x01)\n    /* \"@openzeppelin/contracts/access/AccessControl.sol\":6291:6320  _roles[role].hasRole[account] */\n  dup7\n  and\n  dup5\n  mstore\n  swap1\n  swap2\n  mstore\n  swap1\n  keccak256\n    /* \"@openzeppelin/contracts/access/AccessControl.sol\":6291:6327  _roles[role].hasRole[account] = true */\n  dup1\n  sload\n  not(0xff)\n  and\n    /* \"@openzeppelin/contracts/access/AccessControl.sol\":6323:6327  true */\n  0x01\n    /* \"@openzeppelin/contracts/access/AccessControl.sol\":6291:6327  _roles[role].hasRole[account] = true */\n  or\n  swap1\n  sstore\n    /* \"@openzeppelin/contracts/access/AccessControl.sol\":6373:6385  _msgSender() */\n  tag_29\n    /* \"@openzeppelin/contracts/utils/Context.sol\":735:745  msg.sender */\n  caller\n  swap1\n    /* \"@openzeppelin/contracts/utils/Context.sol\":656:752  function _msgSender() internal view virtual returns (address) {... */\n  jump\n    /* \"@openzeppelin/contracts/access/AccessControl.sol\":6373:6385  _msgSender() */\ntag_29:\n  sub(shl(0xa0, 0x01), 0x01)\n    /* \"@openzeppelin/contracts/access/AccessControl.sol\":6346:6386  RoleGranted(role, account, _msgSender()) */\n  and\n    /* \"@openzeppelin/contracts/access/AccessControl.sol\":6364:6371  account */\n  dup3\n  sub(shl(0xa0, 0x01), 0x01)\n    /* \"@openzeppelin/contracts/access/AccessControl.sol\":6346:6386  RoleGranted(role, account, _msgSender()) */\n  and\n    /* \"@openzeppelin/contracts/access/AccessControl.sol\":6358:6362  role */\n  dup5\n    /* \"@openzeppelin/contracts/access/AccessControl.sol\":6346:6386  RoleGranted(role, account, _msgSender()) */\n  0x2f8788117e7eff1d82e926ec794901d17c78024a50270940304540a733656f0d\n  mload(0x40)\n  mload(0x40)\n  dup1\n  swap2\n  sub\n  swap1\n  log4\n  pop\n    /* \"@openzeppelin/contracts/access/AccessControl.sol\":6407:6411  true */\n  0x01\n    /* \"@openzeppelin/contracts/access/AccessControl.sol\":6400:6411  return true */\n  jump(tag_31)\n    /* \"@openzeppelin/contracts/access/AccessControl.sol\":6248:6465  if (!hasRole(role, account)) {... */\ntag_28:\n  pop\n    /* \"@openzeppelin/contracts/access/AccessControl.sol\":6449:6454  false */\n  0x00\n    /* \"@openzeppelin/contracts/access/AccessControl.sol\":6248:6465  if (!hasRole(role, account)) {... */\ntag_31:\n    /* \"@openzeppelin/contracts/access/AccessControl.sol\":6155:6471  function _grantRole(bytes32 role, address account) internal virtual returns (bool) {... */\n  swap3\n  swap2\n  pop\n  pop\n  jump\t// out\n    /* \"@openzeppelin/contracts/token/ERC20/ERC20.sol\":7362:7570  function _mint(address account, uint256 value) internal {... */\ntag_21:\n  sub(shl(0xa0, 0x01), 0x01)\n    /* \"@openzeppelin/contracts/token/ERC20/ERC20.sol\":7432:7453  account == address(0) */\n  dup3\n  and\n    /* \"@openzeppelin/contracts/token/ERC20/ERC20.sol\":7428:7519  if (account == address(0)) {... */\n  tag_33\n  jumpi\n    /* \"@openzeppelin/contracts/token/ERC20/ERC20.sol\":7476:7508  ERC20InvalidReceiver(address(0)) */\n  mload(0x40)\n  shl(0xe0, 0xec442f05)\n  dup2\n  mstore\n    /* \"@openzeppelin/contracts/token/ERC20/ERC20.sol\":7505:7506  0 */\n  0x00\n    /* \"@openzeppelin/contracts/token/ERC20/ERC20.sol\":7476:7508  ERC20InvalidReceiver(address(0)) */\n  0x04\n  dup3\n  add\n    /* \"#utility.yul\":3732:3783   */\n  mstore\n    /* \"#utility.yul\":3705:3723   */\n  0x24\n  add\n    /* \"@openzeppelin/contracts/token/ERC20/ERC20.sol\":7476:7508  ERC20InvalidReceiver(address(0)) */\n  tag_14\n    /* \"#utility.yul\":3586:3789   */\n  jump\n    /* \"@openzeppelin/contracts/token/ERC20/ERC20.sol\":7428:7519  if (account == address(0)) {... */\ntag_33:\n    /* \"@openzeppelin/contracts/token/ERC20/ERC20.sol\":7528:7563  _update(address(0), account, value) */\n  tag_36\n    /* \"@openzeppelin/contracts/token/ERC20/ERC20.sol\":7544:7545  0 */\n  0x00\n    /* \"@openzeppelin/contracts/token/ERC20/ERC20.sol\":7548:7555  account */\n  dup4\n    /* \"@openzeppelin/contracts/token/ERC20/ERC20.sol\":7557:7562  value */\n  dup4\n    /* \"@openzeppelin/contracts/token/ERC20/ERC20.sol\":7528:7535  _update */\n  tag_37\n    /* \"@openzeppelin/contracts/token/ERC20/ERC20.sol\":7528:7563  _update(address(0), account, value) */\n  jump\t// in\ntag_36:\n    /* \"@openzeppelin/contracts/token/ERC20/ERC20.sol\":7362:7570  function _mint(address account, uint256 value) internal {... */\n  pop\n  pop\n  jump\t// out\n    /* \"LibertyFinancialChain/inr1.sol\":2368:2803  function _update(address from, address to, uint256 value) internal override {... */\ntag_37:\n  sub(shl(0xa0, 0x01), 0x01)\n    /* \"LibertyFinancialChain/inr1.sol\":2502:2520  from != address(0) */\n  dup4\n  and\n  iszero\n    /* \"LibertyFinancialChain/inr1.sol\":2498:2596  if (from != address(0)) {... */\n  tag_42\n  jumpi\n  sub(shl(0xa0, 0x01), 0x01)\n    /* \"LibertyFinancialChain/inr1.sol\":2545:2562  blacklisted[from] */\n  dup4\n  and\n  0x00\n  swap1\n  dup2\n  mstore\n    /* \"LibertyFinancialChain/inr1.sol\":2545:2556  blacklisted */\n  0x07\n    /* \"LibertyFinancialChain/inr1.sol\":2545:2562  blacklisted[from] */\n  0x20\n  mstore\n  0x40\n  swap1\n  keccak256\n  sload\n  0xff\n  and\n    /* \"LibertyFinancialChain/inr1.sol\":2544:2562  !blacklisted[from] */\n  iszero\n    /* \"LibertyFinancialChain/inr1.sol\":2536:2585  require(!blacklisted[from], \"Sender blacklisted\") */\n  tag_42\n  jumpi\n  mload(0x40)\n  shl(0xe5, 0x461bcd)\n  dup2\n  mstore\n    /* \"#utility.yul\":3996:3998   */\n  0x20\n    /* \"LibertyFinancialChain/inr1.sol\":2536:2585  require(!blacklisted[from], \"Sender blacklisted\") */\n  0x04\n  dup3\n  add\n    /* \"#utility.yul\":3978:3999   */\n  mstore\n    /* \"#utility.yul\":4035:4037   */\n  0x12\n    /* \"#utility.yul\":4015:4033   */\n  0x24\n  dup3\n  add\n    /* \"#utility.yul\":4008:4038   */\n  mstore\n  shl(0x72, 0x14d95b99195c88189b1858dadb1a5cdd1959)\n    /* \"#utility.yul\":4054:4072   */\n  0x44\n  dup3\n  add\n    /* \"#utility.yul\":4047:4095   */\n  mstore\n    /* \"#utility.yul\":4112:4130   */\n  0x64\n  add\n    /* \"LibertyFinancialChain/inr1.sol\":2536:2585  require(!blacklisted[from], \"Sender blacklisted\") */\n  tag_14\n    /* \"#utility.yul\":3794:4136   */\n  jump\n    /* \"LibertyFinancialChain/inr1.sol\":2536:2585  require(!blacklisted[from], \"Sender blacklisted\") */\ntag_42:\n  sub(shl(0xa0, 0x01), 0x01)\n    /* \"LibertyFinancialChain/inr1.sol\":2664:2680  to != address(0) */\n  dup3\n  and\n  iszero\n    /* \"LibertyFinancialChain/inr1.sol\":2660:2756  if (to != address(0)) {... */\n  tag_46\n  jumpi\n  sub(shl(0xa0, 0x01), 0x01)\n    /* \"LibertyFinancialChain/inr1.sol\":2705:2720  blacklisted[to] */\n  dup3\n  and\n  0x00\n  swap1\n  dup2\n  mstore\n    /* \"LibertyFinancialChain/inr1.sol\":2705:2716  blacklisted */\n  0x07\n    /* \"LibertyFinancialChain/inr1.sol\":2705:2720  blacklisted[to] */\n  0x20\n  mstore\n  0x40\n  swap1\n  keccak256\n  sload\n  0xff\n  and\n    /* \"LibertyFinancialChain/inr1.sol\":2704:2720  !blacklisted[to] */\n  iszero\n    /* \"LibertyFinancialChain/inr1.sol\":2696:2745  require(!blacklisted[to], \"Receiver blacklisted\") */\n  tag_46\n  jumpi\n  mload(0x40)\n  shl(0xe5, 0x461bcd)\n  dup2\n  mstore\n    /* \"#utility.yul\":4343:4345   */\n  0x20\n    /* \"LibertyFinancialChain/inr1.sol\":2696:2745  require(!blacklisted[to], \"Receiver blacklisted\") */\n  0x04\n  dup3\n  add\n    /* \"#utility.yul\":4325:4346   */\n  mstore\n    /* \"#utility.yul\":4382:4384   */\n  0x14\n    /* \"#utility.yul\":4362:4380   */\n  0x24\n  dup3\n  add\n    /* \"#utility.yul\":4355:4385   */\n  mstore\n    /* \"#utility.yul\":4421:4443   */\n  0x526563656976657220626c61636b6c6973746564000000000000000000000000\n    /* \"#utility.yul\":4401:4419   */\n  0x44\n  dup3\n  add\n    /* \"#utility.yul\":4394:4444   */\n  mstore\n    /* \"#utility.yul\":4461:4479   */\n  0x64\n  add\n    /* \"LibertyFinancialChain/inr1.sol\":2696:2745  require(!blacklisted[to], \"Receiver blacklisted\") */\n  tag_14\n    /* \"#utility.yul\":4141:4485   */\n  jump\n    /* \"LibertyFinancialChain/inr1.sol\":2696:2745  require(!blacklisted[to], \"Receiver blacklisted\") */\ntag_46:\n    /* \"LibertyFinancialChain/inr1.sol\":2766:2796  super._update(from, to, value) */\n  tag_49\n    /* \"LibertyFinancialChain/inr1.sol\":2780:2784  from */\n  dup4\n    /* \"LibertyFinancialChain/inr1.sol\":2786:2788  to */\n  dup4\n    /* \"LibertyFinancialChain/inr1.sol\":2790:2795  value */\n  dup4\n    /* \"LibertyFinancialChain/inr1.sol\":2766:2779  super._update */\n  tag_50\n    /* \"LibertyFinancialChain/inr1.sol\":2766:2796  super._update(from, to, value) */\n  jump\t// in\ntag_49:\n    /* \"LibertyFinancialChain/inr1.sol\":2368:2803  function _update(address from, address to, uint256 value) internal override {... */\n  pop\n  pop\n  pop\n  jump\t// out\n    /* \"@openzeppelin/contracts/token/ERC20/ERC20.sol\":5912:7019  function _update(address from, address to, uint256 value) internal virtual {... */\ntag_50:\n  sub(shl(0xa0, 0x01), 0x01)\n    /* \"@openzeppelin/contracts/token/ERC20/ERC20.sol\":6001:6019  from == address(0) */\n  dup4\n  and\n    /* \"@openzeppelin/contracts/token/ERC20/ERC20.sol\":5997:6537  if (from == address(0)) {... */\n  tag_52\n  jumpi\n    /* \"@openzeppelin/contracts/token/ERC20/ERC20.sol\":6153:6158  value */\n  dup1\n    /* \"@openzeppelin/contracts/token/ERC20/ERC20.sol\":6137:6149  _totalSupply */\n  0x02\n  0x00\n    /* \"@openzeppelin/contracts/token/ERC20/ERC20.sol\":6137:6158  _totalSupply += value */\n  dup3\n  dup3\n  sload\n  tag_53\n  swap2\n  swap1\n  tag_54\n  jump\t// in\ntag_53:\n  swap1\n  swap2\n  sstore\n  pop\n    /* \"@openzeppelin/contracts/token/ERC20/ERC20.sol\":5997:6537  if (from == address(0)) {... */\n  tag_55\n  swap1\n  pop\n  jump\ntag_52:\n  sub(shl(0xa0, 0x01), 0x01)\n    /* \"@openzeppelin/contracts/token/ERC20/ERC20.sol\":6211:6226  _balances[from] */\n  dup4\n  and\n    /* \"@openzeppelin/contracts/token/ERC20/ERC20.sol\":6189:6208  uint256 fromBalance */\n  0x00\n    /* \"@openzeppelin/contracts/token/ERC20/ERC20.sol\":6211:6226  _balances[from] */\n  swap1\n  dup2\n  mstore\n  0x20\n  dup2\n  swap1\n  mstore\n  0x40\n  swap1\n  keccak256\n  sload\n    /* \"@openzeppelin/contracts/token/ERC20/ERC20.sol\":6244:6263  fromBalance < value */\n  dup2\n  dup2\n  lt\n    /* \"@openzeppelin/contracts/token/ERC20/ERC20.sol\":6240:6355  if (fromBalance < value) {... */\n  iszero\n  tag_56\n  jumpi\n    /* \"@openzeppelin/contracts/token/ERC20/ERC20.sol\":6290:6340  ERC20InsufficientBalance(from, fromBalance, value) */\n  mload(0x40)\n  shl(0xe2, 0x391434e3)\n  dup2\n  mstore\n  sub(shl(0xa0, 0x01), 0x01)\n    /* \"#utility.yul\":4937:4969   */\n  dup6\n  and\n    /* \"@openzeppelin/contracts/token/ERC20/ERC20.sol\":6290:6340  ERC20InsufficientBalance(from, fromBalance, value) */\n  0x04\n  dup3\n  add\n    /* \"#utility.yul\":4919:4970   */\n  mstore\n    /* \"#utility.yul\":4986:5004   */\n  0x24\n  dup2\n  add\n    /* \"#utility.yul\":4979:5013   */\n  dup3\n  swap1\n  mstore\n    /* \"#utility.yul\":5029:5047   */\n  0x44\n  dup2\n  add\n    /* \"#utility.yul\":5022:5056   */\n  dup4\n  swap1\n  mstore\n    /* \"#utility.yul\":4892:4910   */\n  0x64\n  add\n    /* \"@openzeppelin/contracts/token/ERC20/ERC20.sol\":6290:6340  ERC20InsufficientBalance(from, fromBalance, value) */\n  tag_14\n    /* \"#utility.yul\":4717:5062   */\n  jump\n    /* \"@openzeppelin/contracts/token/ERC20/ERC20.sol\":6240:6355  if (fromBalance < value) {... */\ntag_56:\n  sub(shl(0xa0, 0x01), 0x01)\n    /* \"@openzeppelin/contracts/token/ERC20/ERC20.sol\":6475:6490  _balances[from] */\n  dup5\n  and\n    /* \"@openzeppelin/contracts/token/ERC20/ERC20.sol\":6475:6484  _balances */\n  0x00\n    /* \"@openzeppelin/contracts/token/ERC20/ERC20.sol\":6475:6490  _balances[from] */\n  swap1\n  dup2\n  mstore\n  0x20\n  dup2\n  swap1\n  mstore\n  0x40\n  swap1\n  keccak256\n    /* \"@openzeppelin/contracts/token/ERC20/ERC20.sol\":6493:6512  fromBalance - value */\n  swap1\n  dup3\n  swap1\n  sub\n    /* \"@openzeppelin/contracts/token/ERC20/ERC20.sol\":6475:6512  _balances[from] = fromBalance - value */\n  swap1\n  sstore\n    /* \"@openzeppelin/contracts/token/ERC20/ERC20.sol\":5997:6537  if (from == address(0)) {... */\ntag_55:\n  sub(shl(0xa0, 0x01), 0x01)\n    /* \"@openzeppelin/contracts/token/ERC20/ERC20.sol\":6551:6567  to == address(0) */\n  dup3\n  and\n    /* \"@openzeppelin/contracts/token/ERC20/ERC20.sol\":6547:6972  if (to == address(0)) {... */\n  tag_59\n  jumpi\n    /* \"@openzeppelin/contracts/token/ERC20/ERC20.sol\":6714:6726  _totalSupply */\n  0x02\n    /* \"@openzeppelin/contracts/token/ERC20/ERC20.sol\":6714:6735  _totalSupply -= value */\n  dup1\n  sload\n  dup3\n  swap1\n  sub\n  swap1\n  sstore\n    /* \"@openzeppelin/contracts/token/ERC20/ERC20.sol\":6547:6972  if (to == address(0)) {... */\n  jump(tag_60)\ntag_59:\n  sub(shl(0xa0, 0x01), 0x01)\n    /* \"@openzeppelin/contracts/token/ERC20/ERC20.sol\":6925:6938  _balances[to] */\n  dup3\n  and\n    /* \"@openzeppelin/contracts/token/ERC20/ERC20.sol\":6925:6934  _balances */\n  0x00\n    /* \"@openzeppelin/contracts/token/ERC20/ERC20.sol\":6925:6938  _balances[to] */\n  swap1\n  dup2\n  mstore\n  0x20\n  dup2\n  swap1\n  mstore\n  0x40\n  swap1\n  keccak256\n    /* \"@openzeppelin/contracts/token/ERC20/ERC20.sol\":6925:6947  _balances[to] += value */\n  dup1\n  sload\n  dup3\n  add\n  swap1\n  sstore\n    /* \"@openzeppelin/contracts/token/ERC20/ERC20.sol\":6547:6972  if (to == address(0)) {... */\ntag_60:\n    /* \"@openzeppelin/contracts/token/ERC20/ERC20.sol\":7002:7004  to */\n  dup2\n  sub(shl(0xa0, 0x01), 0x01)\n    /* \"@openzeppelin/contracts/token/ERC20/ERC20.sol\":6987:7012  Transfer(from, to, value) */\n  and\n    /* \"@openzeppelin/contracts/token/ERC20/ERC20.sol\":6996:7000  from */\n  dup4\n  sub(shl(0xa0, 0x01), 0x01)\n    /* \"@openzeppelin/contracts/token/ERC20/ERC20.sol\":6987:7012  Transfer(from, to, value) */\n  and\n  0xddf252ad1be2c89b69c2b068fc378daa952ba7f163c4a11628f55a4df523b3ef\n    /* \"@openzeppelin/contracts/token/ERC20/ERC20.sol\":7006:7011  value */\n  dup4\n    /* \"@openzeppelin/contracts/token/ERC20/ERC20.sol\":6987:7012  Transfer(from, to, value) */\n  mload(0x40)\n  tag_61\n  swap2\n    /* \"#utility.yul\":3550:3575   */\n  dup2\n  mstore\n    /* \"#utility.yul\":3538:3540   */\n  0x20\n    /* \"#utility.yul\":3523:3541   */\n  add\n  swap1\n    /* \"#utility.yul\":3369:3581   */\n  jump\n    /* \"@openzeppelin/contracts/token/ERC20/ERC20.sol\":6987:7012  Transfer(from, to, value) */\ntag_61:\n  mload(0x40)\n  dup1\n  swap2\n  sub\n  swap1\n  log3\n    /* \"@openzeppelin/contracts/token/ERC20/ERC20.sol\":5912:7019  function _update(address from, address to, uint256 value) internal virtual {... */\n  pop\n  pop\n  pop\n  jump\t// out\n    /* \"#utility.yul\":14:304   */\ntag_3:\n    /* \"#utility.yul\":84:90   */\n  0x00\n    /* \"#utility.yul\":137:139   */\n  0x20\n    /* \"#utility.yul\":125:134   */\n  dup3\n    /* \"#utility.yul\":116:123   */\n  dup5\n    /* \"#utility.yul\":112:135   */\n  sub\n    /* \"#utility.yul\":108:140   */\n  slt\n    /* \"#utility.yul\":105:157   */\n  iszero\n  tag_70\n  jumpi\n    /* \"#utility.yul\":153:154   */\n  0x00\n    /* \"#utility.yul\":150:151   */\n  dup1\n    /* \"#utility.yul\":143:155   */\n  revert\n    /* \"#utility.yul\":105:157   */\ntag_70:\n    /* \"#utility.yul\":179:195   */\n  dup2\n  mload\n  sub(shl(0xa0, 0x01), 0x01)\n    /* \"#utility.yul\":224:255   */\n  dup2\n  and\n    /* \"#utility.yul\":214:256   */\n  dup2\n  eq\n    /* \"#utility.yul\":204:274   */\n  tag_71\n  jumpi\n    /* \"#utility.yul\":270:271   */\n  0x00\n    /* \"#utility.yul\":267:268   */\n  dup1\n    /* \"#utility.yul\":260:272   */\n  revert\n    /* \"#utility.yul\":204:274   */\ntag_71:\n    /* \"#utility.yul\":293:298   */\n  swap4\n    /* \"#utility.yul\":14:304   */\n  swap3\n  pop\n  pop\n  pop\n  jump\t// out\n    /* \"#utility.yul\":309:436   */\ntag_63:\n    /* \"#utility.yul\":370:380   */\n  0x4e487b71\n    /* \"#utility.yul\":365:368   */\n  0xe0\n    /* \"#utility.yul\":361:381   */\n  shl\n    /* \"#utility.yul\":358:359   */\n  0x00\n    /* \"#utility.yul\":351:382   */\n  mstore\n    /* \"#utility.yul\":401:405   */\n  0x41\n    /* \"#utility.yul\":398:399   */\n  0x04\n    /* \"#utility.yul\":391:406   */\n  mstore\n    /* \"#utility.yul\":425:429   */\n  0x24\n    /* \"#utility.yul\":422:423   */\n  0x00\n    /* \"#utility.yul\":415:430   */\n  revert\n    /* \"#utility.yul\":441:821   */\ntag_64:\n    /* \"#utility.yul\":520:521   */\n  0x01\n    /* \"#utility.yul\":516:528   */\n  dup2\n  dup2\n  shr\n  swap1\n    /* \"#utility.yul\":563:575   */\n  dup3\n  and\n  dup1\n    /* \"#utility.yul\":584:645   */\n  tag_74\n  jumpi\n    /* \"#utility.yul\":638:642   */\n  0x7f\n    /* \"#utility.yul\":630:636   */\n  dup3\n    /* \"#utility.yul\":626:643   */\n  and\n    /* \"#utility.yul\":616:643   */\n  swap2\n  pop\n    /* \"#utility.yul\":584:645   */\ntag_74:\n    /* \"#utility.yul\":691:693   */\n  0x20\n    /* \"#utility.yul\":683:689   */\n  dup3\n    /* \"#utility.yul\":680:694   */\n  lt\n    /* \"#utility.yul\":660:678   */\n  dup2\n    /* \"#utility.yul\":657:695   */\n  sub\n    /* \"#utility.yul\":654:815   */\n  tag_75\n  jumpi\n    /* \"#utility.yul\":737:747   */\n  0x4e487b71\n    /* \"#utility.yul\":732:735   */\n  0xe0\n    /* \"#utility.yul\":728:748   */\n  shl\n    /* \"#utility.yul\":725:726   */\n  0x00\n    /* \"#utility.yul\":718:749   */\n  mstore\n    /* \"#utility.yul\":772:776   */\n  0x22\n    /* \"#utility.yul\":769:770   */\n  0x04\n    /* \"#utility.yul\":762:777   */\n  mstore\n    /* \"#utility.yul\":800:804   */\n  0x24\n    /* \"#utility.yul\":797:798   */\n  0x00\n    /* \"#utility.yul\":790:805   */\n  revert\n    /* \"#utility.yul\":654:815   */\ntag_75:\n  pop\n    /* \"#utility.yul\":441:821   */\n  swap2\n  swap1\n  pop\n  jump\t// out\n    /* \"#utility.yul\":952:1497   */\ntag_66:\n    /* \"#utility.yul\":1054:1056   */\n  0x1f\n    /* \"#utility.yul\":1049:1052   */\n  dup3\n    /* \"#utility.yul\":1046:1057   */\n  gt\n    /* \"#utility.yul\":1043:1491   */\n  iszero\n  tag_49\n  jumpi\n    /* \"#utility.yul\":1090:1091   */\n  0x00\n    /* \"#utility.yul\":1115:1120   */\n  dup2\n    /* \"#utility.yul\":1111:1113   */\n  dup2\n    /* \"#utility.yul\":1104:1121   */\n  mstore\n    /* \"#utility.yul\":1160:1164   */\n  0x20\n    /* \"#utility.yul\":1156:1158   */\n  dup2\n    /* \"#utility.yul\":1146:1165   */\n  keccak256\n    /* \"#utility.yul\":1230:1232   */\n  0x1f\n    /* \"#utility.yul\":1218:1228   */\n  dup6\n    /* \"#utility.yul\":1214:1233   */\n  add\n    /* \"#utility.yul\":1211:1212   */\n  0x05\n    /* \"#utility.yul\":1207:1234   */\n  shr\n    /* \"#utility.yul\":1201:1205   */\n  dup2\n    /* \"#utility.yul\":1197:1235   */\n  add\n    /* \"#utility.yul\":1266:1270   */\n  0x20\n    /* \"#utility.yul\":1254:1264   */\n  dup7\n    /* \"#utility.yul\":1251:1271   */\n  lt\n    /* \"#utility.yul\":1248:1295   */\n  iszero\n  tag_79\n  jumpi\n  pop\n    /* \"#utility.yul\":1289:1293   */\n  dup1\n    /* \"#utility.yul\":1248:1295   */\ntag_79:\n    /* \"#utility.yul\":1344:1346   */\n  0x1f\n    /* \"#utility.yul\":1339:1342   */\n  dup6\n    /* \"#utility.yul\":1335:1347   */\n  add\n    /* \"#utility.yul\":1332:1333   */\n  0x05\n    /* \"#utility.yul\":1328:1348   */\n  shr\n    /* \"#utility.yul\":1322:1326   */\n  dup3\n    /* \"#utility.yul\":1318:1349   */\n  add\n    /* \"#utility.yul\":1308:1349   */\n  swap2\n  pop\n    /* \"#utility.yul\":1399:1481   */\ntag_80:\n    /* \"#utility.yul\":1417:1419   */\n  dup2\n    /* \"#utility.yul\":1410:1415   */\n  dup2\n    /* \"#utility.yul\":1407:1420   */\n  lt\n    /* \"#utility.yul\":1399:1481   */\n  iszero\n  tag_82\n  jumpi\n    /* \"#utility.yul\":1462:1479   */\n  dup3\n  dup2\n  sstore\n    /* \"#utility.yul\":1443:1444   */\n  0x01\n    /* \"#utility.yul\":1432:1445   */\n  add\n    /* \"#utility.yul\":1399:1481   */\n  jump(tag_80)\ntag_82:\n    /* \"#utility.yul\":1403:1406   */\n  pop\n  pop\n  pop\n    /* \"#utility.yul\":952:1497   */\n  pop\n  pop\n  pop\n  jump\t// out\n    /* \"#utility.yul\":1673:3025   */\ntag_9:\n    /* \"#utility.yul\":1793:1803   */\n  dup2\n  mload\n  sub(shl(0x40, 0x01), 0x01)\n    /* \"#utility.yul\":1815:1845   */\n  dup2\n  gt\n    /* \"#utility.yul\":1812:1868   */\n  iszero\n  tag_86\n  jumpi\n    /* \"#utility.yul\":1848:1866   */\n  tag_86\n  tag_63\n  jump\t// in\ntag_86:\n    /* \"#utility.yul\":1877:1974   */\n  tag_87\n    /* \"#utility.yul\":1967:1973   */\n  dup2\n    /* \"#utility.yul\":1927:1965   */\n  tag_88\n    /* \"#utility.yul\":1959:1963   */\n  dup5\n    /* \"#utility.yul\":1953:1964   */\n  sload\n    /* \"#utility.yul\":1927:1965   */\n  tag_64\n  jump\t// in\ntag_88:\n    /* \"#utility.yul\":1921:1925   */\n  dup5\n    /* \"#utility.yul\":1877:1974   */\n  tag_66\n  jump\t// in\ntag_87:\n    /* \"#utility.yul\":2029:2033   */\n  0x20\n  dup1\n    /* \"#utility.yul\":2093:2095   */\n  0x1f\n    /* \"#utility.yul\":2082:2096   */\n  dup4\n  gt\n    /* \"#utility.yul\":2110:2111   */\n  0x01\n    /* \"#utility.yul\":2105:2768   */\n  dup2\n  eq\n  tag_90\n  jumpi\n    /* \"#utility.yul\":2812:2813   */\n  0x00\n    /* \"#utility.yul\":2829:2835   */\n  dup5\n    /* \"#utility.yul\":2826:2915   */\n  iszero\n  tag_91\n  jumpi\n  pop\n    /* \"#utility.yul\":2881:2900   */\n  dup6\n  dup4\n  add\n    /* \"#utility.yul\":2875:2901   */\n  mload\n    /* \"#utility.yul\":2826:2915   */\ntag_91:\n  not(0x00)\n    /* \"#utility.yul\":1630:1631   */\n  0x03\n    /* \"#utility.yul\":1626:1637   */\n  dup7\n  swap1\n  shl\n    /* \"#utility.yul\":1622:1646   */\n  shr\n    /* \"#utility.yul\":1618:1647   */\n  not\n    /* \"#utility.yul\":1608:1648   */\n  and\n    /* \"#utility.yul\":1654:1655   */\n  0x01\n    /* \"#utility.yul\":1650:1661   */\n  dup6\n  swap1\n  shl\n    /* \"#utility.yul\":1605:1662   */\n  or\n    /* \"#utility.yul\":2928:3009   */\n  dup6\n  sstore\n    /* \"#utility.yul\":2075:3019   */\n  jump(tag_82)\n    /* \"#utility.yul\":2105:2768   */\ntag_90:\n    /* \"#utility.yul\":899:900   */\n  0x00\n    /* \"#utility.yul\":892:906   */\n  dup6\n  dup2\n  mstore\n    /* \"#utility.yul\":936:940   */\n  0x20\n    /* \"#utility.yul\":923:941   */\n  dup2\n  keccak256\n  not(0x1f)\n    /* \"#utility.yul\":2141:2161   */\n  dup7\n  and\n  swap2\n    /* \"#utility.yul\":2259:2495   */\ntag_94:\n    /* \"#utility.yul\":2273:2280   */\n  dup3\n    /* \"#utility.yul\":2270:2271   */\n  dup2\n    /* \"#utility.yul\":2267:2281   */\n  lt\n    /* \"#utility.yul\":2259:2495   */\n  iszero\n  tag_96\n  jumpi\n    /* \"#utility.yul\":2362:2381   */\n  dup9\n  dup7\n  add\n    /* \"#utility.yul\":2356:2382   */\n  mload\n    /* \"#utility.yul\":2341:2383   */\n  dup3\n  sstore\n    /* \"#utility.yul\":2454:2481   */\n  swap5\n  dup5\n  add\n  swap5\n    /* \"#utility.yul\":2422:2423   */\n  0x01\n    /* \"#utility.yul\":2410:2424   */\n  swap1\n  swap2\n  add\n  swap1\n    /* \"#utility.yul\":2289:2308   */\n  dup5\n  add\n    /* \"#utility.yul\":2259:2495   */\n  jump(tag_94)\ntag_96:\n    /* \"#utility.yul\":2263:2266   */\n  pop\n    /* \"#utility.yul\":2523:2529   */\n  dup6\n    /* \"#utility.yul\":2514:2521   */\n  dup3\n    /* \"#utility.yul\":2511:2530   */\n  lt\n    /* \"#utility.yul\":2508:2709   */\n  iszero\n  tag_97\n  jumpi\n    /* \"#utility.yul\":2584:2603   */\n  dup8\n  dup6\n  add\n    /* \"#utility.yul\":2578:2604   */\n  mload\n  not(0x00)\n    /* \"#utility.yul\":2667:2668   */\n  0x03\n    /* \"#utility.yul\":2663:2677   */\n  dup9\n  swap1\n  shl\n    /* \"#utility.yul\":2679:2682   */\n  0xf8\n    /* \"#utility.yul\":2659:2683   */\n  and\n    /* \"#utility.yul\":2655:2692   */\n  shr\n    /* \"#utility.yul\":2651:2693   */\n  not\n    /* \"#utility.yul\":2636:2694   */\n  and\n    /* \"#utility.yul\":2621:2695   */\n  dup2\n  sstore\n    /* \"#utility.yul\":2508:2709   */\ntag_97:\n  pop\n  pop\n  pop\n  pop\n  pop\n    /* \"#utility.yul\":2755:2756   */\n  0x01\n    /* \"#utility.yul\":2739:2753   */\n  swap1\n  dup2\n  shl\n    /* \"#utility.yul\":2735:2757   */\n  add\n    /* \"#utility.yul\":2722:2758   */\n  swap1\n  sstore\n  pop\n    /* \"#utility.yul\":1673:3025   */\n  jump\t// out\n    /* \"#utility.yul\":4490:4712   */\ntag_54:\n    /* \"#utility.yul\":4555:4564   */\n  dup1\n  dup3\n  add\n    /* \"#utility.yul\":4576:4586   */\n  dup1\n  dup3\n  gt\n    /* \"#utility.yul\":4573:4706   */\n  iszero\n  tag_31\n  jumpi\n    /* \"#utility.yul\":4628:4638   */\n  0x4e487b71\n    /* \"#utility.yul\":4623:4626   */\n  0xe0\n    /* \"#utility.yul\":4619:4639   */\n  shl\n    /* \"#utility.yul\":4616:4617   */\n  0x00\n    /* \"#utility.yul\":4609:4640   */\n  mstore\n    /* \"#utility.yul\":4663:4667   */\n  0x11\n    /* \"#utility.yul\":4660:4661   */\n  0x04\n    /* \"#utility.yul\":4653:4668   */\n  mstore\n    /* \"#utility.yul\":4691:4695   */\n  0x24\n    /* \"#utility.yul\":4688:4689   */\n  0x00\n    /* \"#utility.yul\":4681:4696   */\n  revert\n    /* \"#utility.yul\":5067:5244   */\ntag_68:\n    /* \"LibertyFinancialChain/inr1.sol\":308:3139  contract INR1Token is ERC20, AccessControl, ReentrancyGuard {... */\n  dataSize(sub_0)\n  dup1\n  dataOffset(sub_0)\n  0x00\n  codecopy\n  0x00\n  return\nstop\n\nsub_0: assembly {\n        /* \"LibertyFinancialChain/inr1.sol\":308:3139  contract INR1Token is ERC20, AccessControl, ReentrancyGuard {... */\n      mstore(0x40, 0x80)\n      callvalue\n      dup1\n      iszero\n      tag_1\n      jumpi\n      0x00\n      dup1\n      revert\n    tag_1:\n      pop\n      jumpi(tag_2, lt(calldatasize, 0x04))\n      shr(0xe0, calldataload(0x00))\n      dup1\n      0x75b238fc\n      gt\n      tag_27\n      jumpi\n      dup1\n      0xb2118a8d\n      gt\n      tag_28\n      jumpi\n      dup1\n      0xb2118a8d\n      eq\n      tag_21\n      jumpi\n      dup1\n      0xd01dd6d2\n      eq\n      tag_22\n      jumpi\n      dup1\n      0xd5391393\n      eq\n      tag_23\n      jumpi\n      dup1\n      0xd547741f\n      eq\n      tag_24\n      jumpi\n      dup1\n      0xdbac26e9\n      eq\n      tag_25\n      jumpi\n      dup1\n      0xdd62ed3e\n      eq\n      tag_26\n      jumpi\n      0x00\n      dup1\n      revert\n    tag_28:\n      dup1\n      0x75b238fc\n      eq\n      tag_15\n      jumpi\n      dup1\n      0x91d14854\n      eq\n      tag_16\n      jumpi\n      dup1\n      0x95d89b41\n      eq\n      tag_17\n      jumpi\n      dup1\n      0x9dc29fac\n      eq\n      tag_18\n      jumpi\n      dup1\n      0xa217fddf\n      eq\n      tag_15\n      jumpi\n      dup1\n      0xa9059cbb\n      eq\n      tag_20\n      jumpi\n      0x00\n      dup1\n      revert\n    tag_27:\n      dup1\n      0x282c51f3\n      gt\n      tag_29\n      jumpi\n      dup1\n      0x282c51f3\n      eq\n      tag_9\n      jumpi\n      dup1\n      0x2f2ff15d\n      eq\n      tag_10\n      jumpi\n      dup1\n      0x313ce567\n      eq\n      tag_11\n      jumpi\n      dup1\n      0x36568abe\n      eq\n      tag_12\n      jumpi\n      dup1\n      0x40c10f19\n      eq\n      tag_13\n      jumpi\n      dup1\n      0x70a08231\n      eq\n      tag_14\n      jumpi\n      0x00\n      dup1\n      revert\n    tag_29:\n      dup1\n      0x01ffc9a7\n      eq\n      tag_3\n      jumpi\n      dup1\n      0x06fdde03\n      eq\n      tag_4\n      jumpi\n      dup1\n      0x095ea7b3\n      eq\n      tag_5\n      jumpi\n      dup1\n      0x18160ddd\n      eq\n      tag_6\n      jumpi\n      dup1\n      0x23b872dd\n      eq\n      tag_7\n      jumpi\n      dup1\n      0x248a9ca3\n      eq\n      tag_8\n      jumpi\n    tag_2:\n      0x00\n      dup1\n      revert\n        /* \"@openzeppelin/contracts/access/AccessControl.sol\":2541:2743  function supportsInterface(bytes4 interfaceId) public view virtual override returns (bool) {... */\n    tag_3:\n      tag_30\n      tag_31\n      calldatasize\n      0x04\n      tag_32\n      jump\t// in\n    tag_31:\n      tag_33\n      jump\t// in\n    tag_30:\n      mload(0x40)\n        /* \"#utility.yul\":470:484   */\n      swap1\n      iszero\n        /* \"#utility.yul\":463:485   */\n      iszero\n        /* \"#utility.yul\":445:486   */\n      dup2\n      mstore\n        /* \"#utility.yul\":433:435   */\n      0x20\n        /* \"#utility.yul\":418:436   */\n      add\n        /* \"@openzeppelin/contracts/access/AccessControl.sol\":2541:2743  function supportsInterface(bytes4 interfaceId) public view virtual override returns (bool) {... */\n    tag_34:\n      mload(0x40)\n      dup1\n      swap2\n      sub\n      swap1\n      return\n        /* \"@openzeppelin/contracts/token/ERC20/ERC20.sol\":1760:1849  function name() public view virtual returns (string memory) {... */\n    tag_4:\n      tag_36\n      tag_37\n      jump\t// in\n    tag_36:\n      mload(0x40)\n      tag_34\n      swap2\n      swap1\n      tag_39\n      jump\t// in\n        /* \"@openzeppelin/contracts/token/ERC20/ERC20.sol\":3902:4088  function approve(address spender, uint256 value) public virtual returns (bool) {... */\n    tag_5:\n      tag_30\n      tag_41\n      calldatasize\n      0x04\n      tag_42\n      jump\t// in\n    tag_41:\n      tag_43\n      jump\t// in\n        /* \"@openzeppelin/contracts/token/ERC20/ERC20.sol\":2803:2900  function totalSupply() public view virtual returns (uint256) {... */\n    tag_6:\n        /* \"@openzeppelin/contracts/token/ERC20/ERC20.sol\":2881:2893  _totalSupply */\n      sload(0x02)\n        /* \"@openzeppelin/contracts/token/ERC20/ERC20.sol\":2803:2900  function totalSupply() public view virtual returns (uint256) {... */\n    tag_45:\n      mload(0x40)\n        /* \"#utility.yul\":1633:1658   */\n      swap1\n      dup2\n      mstore\n        /* \"#utility.yul\":1621:1623   */\n      0x20\n        /* \"#utility.yul\":1606:1624   */\n      add\n        /* \"@openzeppelin/contracts/token/ERC20/ERC20.sol\":2803:2900  function totalSupply() public view virtual returns (uint256) {... */\n      tag_34\n        /* \"#utility.yul\":1487:1664   */\n      jump\n        /* \"@openzeppelin/contracts/token/ERC20/ERC20.sol\":4680:4924  function transferFrom(address from, address to, uint256 value) public virtual returns (bool) {... */\n    tag_7:\n      tag_30\n      tag_50\n      calldatasize\n      0x04\n      tag_51\n      jump\t// in\n    tag_50:\n      tag_52\n      jump\t// in\n        /* \"@openzeppelin/contracts/access/AccessControl.sol\":3786:3906  function getRoleAdmin(bytes32 role) public view virtual returns (bytes32) {... */\n    tag_8:\n      tag_45\n      tag_55\n      calldatasize\n      0x04\n      tag_56\n      jump\t// in\n    tag_55:\n        /* \"@openzeppelin/contracts/access/AccessControl.sol\":3851:3858  bytes32 */\n      0x00\n        /* \"@openzeppelin/contracts/access/AccessControl.sol\":3877:3889  _roles[role] */\n      swap1\n      dup2\n      mstore\n        /* \"@openzeppelin/contracts/access/AccessControl.sol\":3877:3883  _roles */\n      0x05\n        /* \"@openzeppelin/contracts/access/AccessControl.sol\":3877:3889  _roles[role] */\n      0x20\n      mstore\n      0x40\n      swap1\n      keccak256\n        /* \"@openzeppelin/contracts/access/AccessControl.sol\":3877:3899  _roles[role].adminRole */\n      0x01\n      add\n      sload\n      swap1\n        /* \"@openzeppelin/contracts/access/AccessControl.sol\":3786:3906  function getRoleAdmin(bytes32 role) public view virtual returns (bytes32) {... */\n      jump\n        /* \"LibertyFinancialChain/inr1.sol\":516:578  bytes32 public constant BURNER_ROLE = keccak256(\"BURNER_ROLE\") */\n    tag_9:\n      tag_45\n        /* \"LibertyFinancialChain/inr1.sol\":554:578  keccak256(\"BURNER_ROLE\") */\n      0x3c11d16cbaffd01df69ce1c404f6340ee057498f5f00246190ea54220576a848\n        /* \"LibertyFinancialChain/inr1.sol\":516:578  bytes32 public constant BURNER_ROLE = keccak256(\"BURNER_ROLE\") */\n      dup2\n      jump\n        /* \"@openzeppelin/contracts/access/AccessControl.sol\":4202:4338  function grantRole(bytes32 role, address account) public virtual onlyRole(getRoleAdmin(role)) {... */\n    tag_10:\n      tag_63\n      tag_64\n      calldatasize\n      0x04\n      tag_65\n      jump\t// in\n    tag_64:\n      tag_66\n      jump\t// in\n    tag_63:\n      stop\n        /* \"@openzeppelin/contracts/token/ERC20/ERC20.sol\":2688:2770  function decimals() public view virtual returns (uint8) {... */\n    tag_11:\n      mload(0x40)\n        /* \"@openzeppelin/contracts/token/ERC20/ERC20.sol\":2761:2763  18 */\n      0x12\n        /* \"#utility.yul\":2770:2806   */\n      dup2\n      mstore\n        /* \"#utility.yul\":2758:2760   */\n      0x20\n        /* \"#utility.yul\":2743:2761   */\n      add\n        /* \"@openzeppelin/contracts/token/ERC20/ERC20.sol\":2688:2770  function decimals() public view virtual returns (uint8) {... */\n      tag_34\n        /* \"#utility.yul\":2628:2812   */\n      jump\n        /* \"@openzeppelin/contracts/access/AccessControl.sol\":5304:5549  function renounceRole(bytes32 role, address callerConfirmation) public virtual {... */\n    tag_12:\n      tag_63\n      tag_72\n      calldatasize\n      0x04\n      tag_65\n      jump\t// in\n    tag_72:\n      tag_73\n      jump\t// in\n        /* \"LibertyFinancialChain/inr1.sol\":1726:1934  function mint(address to, uint256 amount)... */\n    tag_13:\n      tag_63\n      tag_75\n      calldatasize\n      0x04\n      tag_42\n      jump\t// in\n    tag_75:\n      tag_76\n      jump\t// in\n        /* \"@openzeppelin/contracts/token/ERC20/ERC20.sol\":2933:3049  function balanceOf(address account) public view virtual returns (uint256) {... */\n    tag_14:\n      tag_45\n      tag_78\n      calldatasize\n      0x04\n      tag_79\n      jump\t// in\n    tag_78:\n      sub(shl(0xa0, 0x01), 0x01)\n        /* \"@openzeppelin/contracts/token/ERC20/ERC20.sol\":3024:3042  _balances[account] */\n      and\n        /* \"@openzeppelin/contracts/token/ERC20/ERC20.sol\":2998:3005  uint256 */\n      0x00\n        /* \"@openzeppelin/contracts/token/ERC20/ERC20.sol\":3024:3042  _balances[account] */\n      swap1\n      dup2\n      mstore\n      0x20\n      dup2\n      swap1\n      mstore\n      0x40\n      swap1\n      keccak256\n      sload\n      swap1\n        /* \"@openzeppelin/contracts/token/ERC20/ERC20.sol\":2933:3049  function balanceOf(address account) public view virtual returns (uint256) {... */\n      jump\n        /* \"LibertyFinancialChain/inr1.sol\":387:442  bytes32 public constant ADMIN_ROLE = DEFAULT_ADMIN_ROLE */\n    tag_15:\n      tag_45\n        /* \"@openzeppelin/contracts/access/AccessControl.sol\":2241:2245  0x00 */\n      0x00\n        /* \"LibertyFinancialChain/inr1.sol\":387:442  bytes32 public constant ADMIN_ROLE = DEFAULT_ADMIN_ROLE */\n      dup2\n      jump\n        /* \"@openzeppelin/contracts/access/AccessControl.sol\":2830:2966  function hasRole(bytes32 role, address account) public view virtual returns (bool) {... */\n    tag_16:\n      tag_30\n      tag_86\n      calldatasize\n      0x04\n      tag_65\n      jump\t// in\n    tag_86:\n      tag_87\n      jump\t// in\n        /* \"@openzeppelin/contracts/token/ERC20/ERC20.sol\":1962:2055  function symbol() public view virtual returns (string memory) {... */\n    tag_17:\n      tag_36\n      tag_90\n      jump\t// in\n        /* \"LibertyFinancialChain/inr1.sol\":2112:2299  function burn(address from, uint256 amount)... */\n    tag_18:\n      tag_63\n      tag_93\n      calldatasize\n      0x04\n      tag_42\n      jump\t// in\n    tag_93:\n      tag_94\n      jump\t// in\n        /* \"@openzeppelin/contracts/token/ERC20/ERC20.sol\":3244:3422  function transfer(address to, uint256 value) public virtual returns (bool) {... */\n    tag_20:\n      tag_30\n      tag_99\n      calldatasize\n      0x04\n      tag_42\n      jump\t// in\n    tag_99:\n      tag_100\n      jump\t// in\n        /* \"LibertyFinancialChain/inr1.sol\":2841:3137  function rescueERC20(address token, address to, uint256 amount)... */\n    tag_21:\n      tag_63\n      tag_103\n      calldatasize\n      0x04\n      tag_51\n      jump\t// in\n    tag_103:\n      tag_104\n      jump\t// in\n        /* \"LibertyFinancialChain/inr1.sol\":1507:1697  function setBlacklisted(address account, bool value)... */\n    tag_22:\n      tag_63\n      tag_106\n      calldatasize\n      0x04\n      tag_107\n      jump\t// in\n    tag_106:\n      tag_108\n      jump\t// in\n        /* \"LibertyFinancialChain/inr1.sol\":448:510  bytes32 public constant MINTER_ROLE = keccak256(\"MINTER_ROLE\") */\n    tag_23:\n      tag_45\n        /* \"LibertyFinancialChain/inr1.sol\":486:510  keccak256(\"MINTER_ROLE\") */\n      0x9f2df0fed2c77648de5860a4cc508cd0818c85b8b8a1ab4ceeef8d981c8956a6\n        /* \"LibertyFinancialChain/inr1.sol\":448:510  bytes32 public constant MINTER_ROLE = keccak256(\"MINTER_ROLE\") */\n      dup2\n      jump\n        /* \"@openzeppelin/contracts/access/AccessControl.sol\":4618:4756  function revokeRole(bytes32 role, address account) public virtual onlyRole(getRoleAdmin(role)) {... */\n    tag_24:\n      tag_63\n      tag_113\n      calldatasize\n      0x04\n      tag_65\n      jump\t// in\n    tag_113:\n      tag_114\n      jump\t// in\n        /* \"LibertyFinancialChain/inr1.sol\":610:653  mapping(address => bool) public blacklisted */\n    tag_25:\n      tag_30\n      tag_116\n      calldatasize\n      0x04\n      tag_79\n      jump\t// in\n    tag_116:\n      mstore(0x20, 0x07)\n      0x00\n      swap1\n      dup2\n      mstore\n      0x40\n      swap1\n      keccak256\n      sload\n      0xff\n      and\n      dup2\n      jump\n        /* \"@openzeppelin/contracts/token/ERC20/ERC20.sol\":3455:3595  function allowance(address owner, address spender) public view virtual returns (uint256) {... */\n    tag_26:\n      tag_45\n      tag_120\n      calldatasize\n      0x04\n      tag_121\n      jump\t// in\n    tag_120:\n      sub(shl(0xa0, 0x01), 0x01)\n        /* \"@openzeppelin/contracts/token/ERC20/ERC20.sol\":3561:3579  _allowances[owner] */\n      swap2\n      dup3\n      and\n        /* \"@openzeppelin/contracts/token/ERC20/ERC20.sol\":3535:3542  uint256 */\n      0x00\n        /* \"@openzeppelin/contracts/token/ERC20/ERC20.sol\":3561:3579  _allowances[owner] */\n      swap1\n      dup2\n      mstore\n        /* \"@openzeppelin/contracts/token/ERC20/ERC20.sol\":3561:3572  _allowances */\n      0x01\n        /* \"@openzeppelin/contracts/token/ERC20/ERC20.sol\":3561:3579  _allowances[owner] */\n      0x20\n      swap1\n      dup2\n      mstore\n      0x40\n      dup1\n      dup4\n      keccak256\n        /* \"@openzeppelin/contracts/token/ERC20/ERC20.sol\":3561:3588  _allowances[owner][spender] */\n      swap4\n      swap1\n      swap5\n      and\n      dup3\n      mstore\n      swap2\n      swap1\n      swap2\n      mstore\n      keccak256\n      sload\n      swap1\n        /* \"@openzeppelin/contracts/token/ERC20/ERC20.sol\":3455:3595  function allowance(address owner, address spender) public view virtual returns (uint256) {... */\n      jump\n        /* \"@openzeppelin/contracts/access/AccessControl.sol\":2541:2743  function supportsInterface(bytes4 interfaceId) public view virtual override returns (bool) {... */\n    tag_33:\n        /* \"@openzeppelin/contracts/access/AccessControl.sol\":2626:2630  bool */\n      0x00\n      not(sub(shl(0xe0, 0x01), 0x01))\n        /* \"@openzeppelin/contracts/access/AccessControl.sol\":2649:2696  interfaceId == type(IAccessControl).interfaceId */\n      dup3\n      and\n      shl(0xe0, 0x7965db0b)\n      eq\n      dup1\n        /* \"@openzeppelin/contracts/access/AccessControl.sol\":2649:2736  interfaceId == type(IAccessControl).interfaceId || super.supportsInterface(interfaceId) */\n      tag_126\n      jumpi\n      pop\n      shl(0xe0, 0x01ffc9a7)\n      not(sub(shl(0xe0, 0x01), 0x01))\n        /* \"@openzeppelin/contracts/utils/introspection/ERC165.sol\":829:869  interfaceId == type(IERC165).interfaceId */\n      dup4\n      and\n      eq\n        /* \"@openzeppelin/contracts/access/AccessControl.sol\":2700:2736  super.supportsInterface(interfaceId) */\n    tag_126:\n        /* \"@openzeppelin/contracts/access/AccessControl.sol\":2642:2736  return interfaceId == type(IAccessControl).interfaceId || super.supportsInterface(interfaceId) */\n      swap3\n        /* \"@openzeppelin/contracts/access/AccessControl.sol\":2541:2743  function supportsInterface(bytes4 interfaceId) public view virtual override returns (bool) {... */\n      swap2\n      pop\n      pop\n      jump\t// out\n        /* \"@openzeppelin/contracts/token/ERC20/ERC20.sol\":1760:1849  function name() public view virtual returns (string memory) {... */\n    tag_37:\n        /* \"@openzeppelin/contracts/token/ERC20/ERC20.sol\":1805:1818  string memory */\n      0x60\n        /* \"@openzeppelin/contracts/token/ERC20/ERC20.sol\":1837:1842  _name */\n      0x03\n        /* \"@openzeppelin/contracts/token/ERC20/ERC20.sol\":1830:1842  return _name */\n      dup1\n      sload\n      tag_129\n      swap1\n      tag_130\n      jump\t// in\n    tag_129:\n      dup1\n      0x1f\n      add\n      0x20\n      dup1\n      swap2\n      div\n      mul\n      0x20\n      add\n      mload(0x40)\n      swap1\n      dup2\n      add\n      0x40\n      mstore\n      dup1\n      swap3\n      swap2\n      swap1\n      dup2\n      dup2\n      mstore\n      0x20\n      add\n      dup3\n      dup1\n      sload\n      tag_131\n      swap1\n      tag_130\n      jump\t// in\n    tag_131:\n      dup1\n      iszero\n      tag_132\n      jumpi\n      dup1\n      0x1f\n      lt\n      tag_133\n      jumpi\n      0x0100\n      dup1\n      dup4\n      sload\n      div\n      mul\n      dup4\n      mstore\n      swap2\n      0x20\n      add\n      swap2\n      jump(tag_132)\n    tag_133:\n      dup3\n      add\n      swap2\n      swap1\n      0x00\n      mstore\n      keccak256(0x00, 0x20)\n      swap1\n    tag_134:\n      dup2\n      sload\n      dup2\n      mstore\n      swap1\n      0x01\n      add\n      swap1\n      0x20\n      add\n      dup1\n      dup4\n      gt\n      tag_134\n      jumpi\n      dup3\n      swap1\n      sub\n      0x1f\n      and\n      dup3\n      add\n      swap2\n    tag_132:\n      pop\n      pop\n      pop\n      pop\n      pop\n      swap1\n      pop\n        /* \"@openzeppelin/contracts/token/ERC20/ERC20.sol\":1760:1849  function name() public view virtual returns (string memory) {... */\n      swap1\n      jump\t// out\n        /* \"@openzeppelin/contracts/token/ERC20/ERC20.sol\":3902:4088  function approve(address spender, uint256 value) public virtual returns (bool) {... */\n    tag_43:\n        /* \"@openzeppelin/contracts/token/ERC20/ERC20.sol\":3975:3979  bool */\n      0x00\n        /* \"@openzeppelin/contracts/utils/Context.sol\":735:745  msg.sender */\n      caller\n        /* \"@openzeppelin/contracts/token/ERC20/ERC20.sol\":4029:4060  _approve(owner, spender, value) */\n      tag_138\n        /* \"@openzeppelin/contracts/utils/Context.sol\":735:745  msg.sender */\n      dup2\n        /* \"@openzeppelin/contracts/token/ERC20/ERC20.sol\":4045:4052  spender */\n      dup6\n        /* \"@openzeppelin/contracts/token/ERC20/ERC20.sol\":4054:4059  value */\n      dup6\n        /* \"@openzeppelin/contracts/token/ERC20/ERC20.sol\":4029:4037  _approve */\n      tag_139\n        /* \"@openzeppelin/contracts/token/ERC20/ERC20.sol\":4029:4060  _approve(owner, spender, value) */\n      jump\t// in\n    tag_138:\n      pop\n        /* \"@openzeppelin/contracts/token/ERC20/ERC20.sol\":4077:4081  true */\n      0x01\n      swap4\n        /* \"@openzeppelin/contracts/token/ERC20/ERC20.sol\":3902:4088  function approve(address spender, uint256 value) public virtual returns (bool) {... */\n      swap3\n      pop\n      pop\n      pop\n      jump\t// out\n        /* \"@openzeppelin/contracts/token/ERC20/ERC20.sol\":4680:4924  function transferFrom(address from, address to, uint256 value) public virtual returns (bool) {... */\n    tag_52:\n        /* \"@openzeppelin/contracts/token/ERC20/ERC20.sol\":4767:4771  bool */\n      0x00\n        /* \"@openzeppelin/contracts/utils/Context.sol\":735:745  msg.sender */\n      caller\n        /* \"@openzeppelin/contracts/token/ERC20/ERC20.sol\":4823:4860  _spendAllowance(from, spender, value) */\n      tag_143\n        /* \"@openzeppelin/contracts/token/ERC20/ERC20.sol\":4839:4843  from */\n      dup6\n        /* \"@openzeppelin/contracts/utils/Context.sol\":735:745  msg.sender */\n      dup3\n        /* \"@openzeppelin/contracts/token/ERC20/ERC20.sol\":4854:4859  value */\n      dup6\n        /* \"@openzeppelin/contracts/token/ERC20/ERC20.sol\":4823:4838  _spendAllowance */\n      tag_144\n        /* \"@openzeppelin/contracts/token/ERC20/ERC20.sol\":4823:4860  _spendAllowance(from, spender, value) */\n      jump\t// in\n    tag_143:\n        /* \"@openzeppelin/contracts/token/ERC20/ERC20.sol\":4870:4896  _transfer(from, to, value) */\n      tag_145\n        /* \"@openzeppelin/contracts/token/ERC20/ERC20.sol\":4880:4884  from */\n      dup6\n        /* \"@openzeppelin/contracts/token/ERC20/ERC20.sol\":4886:4888  to */\n      dup6\n        /* \"@openzeppelin/contracts/token/ERC20/ERC20.sol\":4890:4895  value */\n      dup6\n        /* \"@openzeppelin/contracts/token/ERC20/ERC20.sol\":4870:4879  _transfer */\n      tag_146\n        /* \"@openzeppelin/contracts/token/ERC20/ERC20.sol\":4870:4896  _transfer(from, to, value) */\n      jump\t// in\n    tag_145:\n      pop\n        /* \"@openzeppelin/contracts/token/ERC20/ERC20.sol\":4913:4917  true */\n      0x01\n      swap5\n        /* \"@openzeppelin/contracts/token/ERC20/ERC20.sol\":4680:4924  function transferFrom(address from, address to, uint256 value) public virtual returns (bool) {... */\n      swap4\n      pop\n      pop\n      pop\n      pop\n      jump\t// out\n        /* \"@openzeppelin/contracts/access/AccessControl.sol\":4202:4338  function grantRole(bytes32 role, address account) public virtual onlyRole(getRoleAdmin(role)) {... */\n    tag_66:\n        /* \"@openzeppelin/contracts/access/AccessControl.sol\":3851:3858  bytes32 */\n      0x00\n        /* \"@openzeppelin/contracts/access/AccessControl.sol\":3877:3889  _roles[role] */\n      dup3\n      dup2\n      mstore\n        /* \"@openzeppelin/contracts/access/AccessControl.sol\":3877:3883  _roles */\n      0x05\n        /* \"@openzeppelin/contracts/access/AccessControl.sol\":3877:3889  _roles[role] */\n      0x20\n      mstore\n      0x40\n      swap1\n      keccak256\n        /* \"@openzeppelin/contracts/access/AccessControl.sol\":3877:3899  _roles[role].adminRole */\n      0x01\n      add\n      sload\n        /* \"@openzeppelin/contracts/access/AccessControl.sol\":2473:2489  _checkRole(role) */\n      tag_150\n        /* \"@openzeppelin/contracts/access/AccessControl.sol\":2484:2488  role */\n      dup2\n        /* \"@openzeppelin/contracts/access/AccessControl.sol\":2473:2483  _checkRole */\n      tag_151\n        /* \"@openzeppelin/contracts/access/AccessControl.sol\":2473:2489  _checkRole(role) */\n      jump\t// in\n    tag_150:\n        /* \"@openzeppelin/contracts/access/AccessControl.sol\":4306:4331  _grantRole(role, account) */\n      tag_153\n        /* \"@openzeppelin/contracts/access/AccessControl.sol\":4317:4321  role */\n      dup4\n        /* \"@openzeppelin/contracts/access/AccessControl.sol\":4323:4330  account */\n      dup4\n        /* \"@openzeppelin/contracts/access/AccessControl.sol\":4306:4316  _grantRole */\n      tag_154\n        /* \"@openzeppelin/contracts/access/AccessControl.sol\":4306:4331  _grantRole(role, account) */\n      jump\t// in\n    tag_153:\n      pop\n        /* \"@openzeppelin/contracts/access/AccessControl.sol\":4202:4338  function grantRole(bytes32 role, address account) public virtual onlyRole(getRoleAdmin(role)) {... */\n      pop\n      pop\n      pop\n      jump\t// out\n        /* \"@openzeppelin/contracts/access/AccessControl.sol\":5304:5549  function renounceRole(bytes32 role, address callerConfirmation) public virtual {... */\n    tag_73:\n      sub(shl(0xa0, 0x01), 0x01)\n        /* \"@openzeppelin/contracts/access/AccessControl.sol\":5397:5431  callerConfirmation != _msgSender() */\n      dup2\n      and\n        /* \"@openzeppelin/contracts/utils/Context.sol\":735:745  msg.sender */\n      caller\n        /* \"@openzeppelin/contracts/access/AccessControl.sol\":5397:5431  callerConfirmation != _msgSender() */\n      eq\n        /* \"@openzeppelin/contracts/access/AccessControl.sol\":5393:5495  if (callerConfirmation != _msgSender()) {... */\n      tag_158\n      jumpi\n        /* \"@openzeppelin/contracts/access/AccessControl.sol\":5454:5484  AccessControlBadConfirmation() */\n      mload(0x40)\n      shl(0xe1, 0x334bd919)\n      dup2\n      mstore\n      0x04\n      add\n      mload(0x40)\n      dup1\n      swap2\n      sub\n      swap1\n      revert\n        /* \"@openzeppelin/contracts/access/AccessControl.sol\":5393:5495  if (callerConfirmation != _msgSender()) {... */\n    tag_158:\n        /* \"@openzeppelin/contracts/access/AccessControl.sol\":5505:5542  _revokeRole(role, callerConfirmation) */\n      tag_159\n        /* \"@openzeppelin/contracts/access/AccessControl.sol\":5517:5521  role */\n      dup3\n        /* \"@openzeppelin/contracts/access/AccessControl.sol\":5523:5541  callerConfirmation */\n      dup3\n        /* \"@openzeppelin/contracts/access/AccessControl.sol\":5505:5516  _revokeRole */\n      tag_160\n        /* \"@openzeppelin/contracts/access/AccessControl.sol\":5505:5542  _revokeRole(role, callerConfirmation) */\n      jump\t// in\n    tag_159:\n      pop\n        /* \"@openzeppelin/contracts/access/AccessControl.sol\":5304:5549  function renounceRole(bytes32 role, address callerConfirmation) public virtual {... */\n      pop\n      pop\n      jump\t// out\n        /* \"LibertyFinancialChain/inr1.sol\":1726:1934  function mint(address to, uint256 amount)... */\n    tag_76:\n        /* \"LibertyFinancialChain/inr1.sol\":486:510  keccak256(\"MINTER_ROLE\") */\n      0x9f2df0fed2c77648de5860a4cc508cd0818c85b8b8a1ab4ceeef8d981c8956a6\n        /* \"@openzeppelin/contracts/access/AccessControl.sol\":2473:2489  _checkRole(role) */\n      tag_162\n        /* \"@openzeppelin/contracts/access/AccessControl.sol\":2484:2488  role */\n      dup2\n        /* \"@openzeppelin/contracts/access/AccessControl.sol\":2473:2483  _checkRole */\n      tag_151\n        /* \"@openzeppelin/contracts/access/AccessControl.sol\":2473:2489  _checkRole(role) */\n      jump\t// in\n    tag_162:\n      sub(shl(0xa0, 0x01), 0x01)\n        /* \"LibertyFinancialChain/inr1.sol\":1405:1425  blacklisted[account] */\n      dup4\n      and\n      0x00\n      swap1\n      dup2\n      mstore\n        /* \"LibertyFinancialChain/inr1.sol\":1405:1416  blacklisted */\n      0x07\n        /* \"LibertyFinancialChain/inr1.sol\":1405:1425  blacklisted[account] */\n      0x20\n      mstore\n      0x40\n      swap1\n      keccak256\n      sload\n        /* \"LibertyFinancialChain/inr1.sol\":1838:1840  to */\n      dup4\n      swap1\n        /* \"LibertyFinancialChain/inr1.sol\":1405:1425  blacklisted[account] */\n      0xff\n      and\n        /* \"LibertyFinancialChain/inr1.sol\":1404:1425  !blacklisted[account] */\n      iszero\n        /* \"LibertyFinancialChain/inr1.sol\":1396:1452  require(!blacklisted[account], \"Account is blacklisted\") */\n      tag_164\n      jumpi\n      mload(0x40)\n      shl(0xe5, 0x461bcd)\n      dup2\n      mstore\n        /* \"#utility.yul\":4303:4305   */\n      0x20\n        /* \"LibertyFinancialChain/inr1.sol\":1396:1452  require(!blacklisted[account], \"Account is blacklisted\") */\n      0x04\n      dup3\n      add\n        /* \"#utility.yul\":4285:4306   */\n      mstore\n        /* \"#utility.yul\":4342:4344   */\n      0x16\n        /* \"#utility.yul\":4322:4340   */\n      0x24\n      dup3\n      add\n        /* \"#utility.yul\":4315:4345   */\n      mstore\n      shl(0x52, 0x1058d8dbdd5b9d081a5cc8189b1858dadb1a5cdd1959)\n        /* \"#utility.yul\":4361:4379   */\n      0x44\n      dup3\n      add\n        /* \"#utility.yul\":4354:4406   */\n      mstore\n        /* \"#utility.yul\":4423:4441   */\n      0x64\n      add\n        /* \"LibertyFinancialChain/inr1.sol\":1396:1452  require(!blacklisted[account], \"Account is blacklisted\") */\n    tag_165:\n      mload(0x40)\n      dup1\n      swap2\n      sub\n      swap1\n      revert\n    tag_164:\n        /* \"@openzeppelin/contracts/utils/ReentrancyGuard.sol\":2500:2521  _nonReentrantBefore() */\n      tag_168\n        /* \"@openzeppelin/contracts/utils/ReentrancyGuard.sol\":2500:2519  _nonReentrantBefore */\n      tag_169\n        /* \"@openzeppelin/contracts/utils/ReentrancyGuard.sol\":2500:2521  _nonReentrantBefore() */\n      jump\t// in\n    tag_168:\n        /* \"LibertyFinancialChain/inr1.sol\":1877:1894  _mint(to, amount) */\n      tag_171\n        /* \"LibertyFinancialChain/inr1.sol\":1883:1885  to */\n      dup5\n        /* \"LibertyFinancialChain/inr1.sol\":1887:1893  amount */\n      dup5\n        /* \"LibertyFinancialChain/inr1.sol\":1877:1882  _mint */\n      tag_172\n        /* \"LibertyFinancialChain/inr1.sol\":1877:1894  _mint(to, amount) */\n      jump\t// in\n    tag_171:\n        /* \"LibertyFinancialChain/inr1.sol\":1916:1918  to */\n      dup4\n      sub(shl(0xa0, 0x01), 0x01)\n        /* \"LibertyFinancialChain/inr1.sol\":1909:1927  Minted(to, amount) */\n      and\n      0x30385c845b448a36257a6a1716e6ad2e1bc2cbe333cde1e69fe849ad6511adfe\n        /* \"LibertyFinancialChain/inr1.sol\":1920:1926  amount */\n      dup5\n        /* \"LibertyFinancialChain/inr1.sol\":1909:1927  Minted(to, amount) */\n      mload(0x40)\n      tag_173\n      swap2\n        /* \"#utility.yul\":1633:1658   */\n      dup2\n      mstore\n        /* \"#utility.yul\":1621:1623   */\n      0x20\n        /* \"#utility.yul\":1606:1624   */\n      add\n      swap1\n        /* \"#utility.yul\":1487:1664   */\n      jump\n        /* \"LibertyFinancialChain/inr1.sol\":1909:1927  Minted(to, amount) */\n    tag_173:\n      mload(0x40)\n      dup1\n      swap2\n      sub\n      swap1\n      log2\n        /* \"@openzeppelin/contracts/utils/ReentrancyGuard.sol\":2542:2562  _nonReentrantAfter() */\n      tag_153\n        /* \"@openzeppelin/contracts/utils/ReentrancyGuard.sol\":1857:1858  1 */\n      0x01\n        /* \"@openzeppelin/contracts/utils/ReentrancyGuard.sol\":3068:3075  _status */\n      0x06\n        /* \"@openzeppelin/contracts/utils/ReentrancyGuard.sol\":3068:3089  _status = NOT_ENTERED */\n      sstore\n        /* \"@openzeppelin/contracts/utils/ReentrancyGuard.sol\":2888:3096  function _nonReentrantAfter() private {... */\n      jump\n        /* \"@openzeppelin/contracts/access/AccessControl.sol\":2830:2966  function hasRole(bytes32 role, address account) public view virtual returns (bool) {... */\n    tag_87:\n        /* \"@openzeppelin/contracts/access/AccessControl.sol\":2907:2911  bool */\n      0x00\n        /* \"@openzeppelin/contracts/access/AccessControl.sol\":2930:2942  _roles[role] */\n      swap2\n      dup3\n      mstore\n        /* \"@openzeppelin/contracts/access/AccessControl.sol\":2930:2936  _roles */\n      0x05\n        /* \"@openzeppelin/contracts/access/AccessControl.sol\":2930:2942  _roles[role] */\n      0x20\n      swap1\n      dup2\n      mstore\n      0x40\n      dup1\n      dup5\n      keccak256\n      sub(shl(0xa0, 0x01), 0x01)\n        /* \"@openzeppelin/contracts/access/AccessControl.sol\":2930:2959  _roles[role].hasRole[account] */\n      swap4\n      swap1\n      swap4\n      and\n      dup5\n      mstore\n      swap2\n      swap1\n      mstore\n      swap1\n      keccak256\n      sload\n      0xff\n      and\n      swap1\n        /* \"@openzeppelin/contracts/access/AccessControl.sol\":2830:2966  function hasRole(bytes32 role, address account) public view virtual returns (bool) {... */\n      jump\t// out\n        /* \"@openzeppelin/contracts/token/ERC20/ERC20.sol\":1962:2055  function symbol() public view virtual returns (string memory) {... */\n    tag_90:\n        /* \"@openzeppelin/contracts/token/ERC20/ERC20.sol\":2009:2022  string memory */\n      0x60\n        /* \"@openzeppelin/contracts/token/ERC20/ERC20.sol\":2041:2048  _symbol */\n      0x04\n        /* \"@openzeppelin/contracts/token/ERC20/ERC20.sol\":2034:2048  return _symbol */\n      dup1\n      sload\n      tag_129\n      swap1\n      tag_130\n      jump\t// in\n        /* \"LibertyFinancialChain/inr1.sol\":2112:2299  function burn(address from, uint256 amount)... */\n    tag_94:\n        /* \"LibertyFinancialChain/inr1.sol\":554:578  keccak256(\"BURNER_ROLE\") */\n      0x3c11d16cbaffd01df69ce1c404f6340ee057498f5f00246190ea54220576a848\n        /* \"@openzeppelin/contracts/access/AccessControl.sol\":2473:2489  _checkRole(role) */\n      tag_185\n        /* \"@openzeppelin/contracts/access/AccessControl.sol\":2484:2488  role */\n      dup2\n        /* \"@openzeppelin/contracts/access/AccessControl.sol\":2473:2483  _checkRole */\n      tag_151\n        /* \"@openzeppelin/contracts/access/AccessControl.sol\":2473:2489  _checkRole(role) */\n      jump\t// in\n    tag_185:\n        /* \"@openzeppelin/contracts/utils/ReentrancyGuard.sol\":2500:2521  _nonReentrantBefore() */\n      tag_187\n        /* \"@openzeppelin/contracts/utils/ReentrancyGuard.sol\":2500:2519  _nonReentrantBefore */\n      tag_169\n        /* \"@openzeppelin/contracts/utils/ReentrancyGuard.sol\":2500:2521  _nonReentrantBefore() */\n      jump\t// in\n    tag_187:\n        /* \"LibertyFinancialChain/inr1.sol\":2238:2257  _burn(from, amount) */\n      tag_189\n        /* \"LibertyFinancialChain/inr1.sol\":2244:2248  from */\n      dup4\n        /* \"LibertyFinancialChain/inr1.sol\":2250:2256  amount */\n      dup4\n        /* \"LibertyFinancialChain/inr1.sol\":2238:2243  _burn */\n      tag_190\n        /* \"LibertyFinancialChain/inr1.sol\":2238:2257  _burn(from, amount) */\n      jump\t// in\n    tag_189:\n        /* \"LibertyFinancialChain/inr1.sol\":2279:2283  from */\n      dup3\n      sub(shl(0xa0, 0x01), 0x01)\n        /* \"LibertyFinancialChain/inr1.sol\":2272:2292  Burned(from, amount) */\n      and\n      0x696de425f79f4a40bc6d2122ca50507f0efbeabbff86a84871b7196ab8ea8df7\n        /* \"LibertyFinancialChain/inr1.sol\":2285:2291  amount */\n      dup4\n        /* \"LibertyFinancialChain/inr1.sol\":2272:2292  Burned(from, amount) */\n      mload(0x40)\n      tag_191\n      swap2\n        /* \"#utility.yul\":1633:1658   */\n      dup2\n      mstore\n        /* \"#utility.yul\":1621:1623   */\n      0x20\n        /* \"#utility.yul\":1606:1624   */\n      add\n      swap1\n        /* \"#utility.yul\":1487:1664   */\n      jump\n        /* \"LibertyFinancialChain/inr1.sol\":2272:2292  Burned(from, amount) */\n    tag_191:\n      mload(0x40)\n      dup1\n      swap2\n      sub\n      swap1\n      log2\n        /* \"@openzeppelin/contracts/utils/ReentrancyGuard.sol\":2542:2562  _nonReentrantAfter() */\n      tag_159\n        /* \"@openzeppelin/contracts/utils/ReentrancyGuard.sol\":1857:1858  1 */\n      0x01\n        /* \"@openzeppelin/contracts/utils/ReentrancyGuard.sol\":3068:3075  _status */\n      0x06\n        /* \"@openzeppelin/contracts/utils/ReentrancyGuard.sol\":3068:3089  _status = NOT_ENTERED */\n      sstore\n        /* \"@openzeppelin/contracts/utils/ReentrancyGuard.sol\":2888:3096  function _nonReentrantAfter() private {... */\n      jump\n        /* \"@openzeppelin/contracts/token/ERC20/ERC20.sol\":3244:3422  function transfer(address to, uint256 value) public virtual returns (bool) {... */\n    tag_100:\n        /* \"@openzeppelin/contracts/token/ERC20/ERC20.sol\":3313:3317  bool */\n      0x00\n        /* \"@openzeppelin/contracts/utils/Context.sol\":735:745  msg.sender */\n      caller\n        /* \"@openzeppelin/contracts/token/ERC20/ERC20.sol\":3367:3394  _transfer(owner, to, value) */\n      tag_138\n        /* \"@openzeppelin/contracts/utils/Context.sol\":735:745  msg.sender */\n      dup2\n        /* \"@openzeppelin/contracts/token/ERC20/ERC20.sol\":3384:3386  to */\n      dup6\n        /* \"@openzeppelin/contracts/token/ERC20/ERC20.sol\":3388:3393  value */\n      dup6\n        /* \"@openzeppelin/contracts/token/ERC20/ERC20.sol\":3367:3376  _transfer */\n      tag_146\n        /* \"@openzeppelin/contracts/token/ERC20/ERC20.sol\":3367:3394  _transfer(owner, to, value) */\n      jump\t// in\n        /* \"LibertyFinancialChain/inr1.sol\":2841:3137  function rescueERC20(address token, address to, uint256 amount)... */\n    tag_104:\n        /* \"@openzeppelin/contracts/access/AccessControl.sol\":2241:2245  0x00 */\n      0x00\n        /* \"@openzeppelin/contracts/access/AccessControl.sol\":2473:2489  _checkRole(role) */\n      tag_197\n        /* \"@openzeppelin/contracts/access/AccessControl.sol\":2241:2245  0x00 */\n      dup2\n        /* \"@openzeppelin/contracts/access/AccessControl.sol\":2473:2483  _checkRole */\n      tag_151\n        /* \"@openzeppelin/contracts/access/AccessControl.sol\":2473:2489  _checkRole(role) */\n      jump\t// in\n    tag_197:\n        /* \"@openzeppelin/contracts/utils/ReentrancyGuard.sol\":2500:2521  _nonReentrantBefore() */\n      tag_199\n        /* \"@openzeppelin/contracts/utils/ReentrancyGuard.sol\":2500:2519  _nonReentrantBefore */\n      tag_169\n        /* \"@openzeppelin/contracts/utils/ReentrancyGuard.sol\":2500:2521  _nonReentrantBefore() */\n      jump\t// in\n    tag_199:\n        /* \"LibertyFinancialChain/inr1.sol\":3011:3015  this */\n      address\n      sub(shl(0xa0, 0x01), 0x01)\n        /* \"LibertyFinancialChain/inr1.sol\":2994:3016  token != address(this) */\n      dup6\n      and\n      sub\n        /* \"LibertyFinancialChain/inr1.sol\":2986:3039  require(token != address(this), \"Cannot rescue INR1\") */\n      tag_201\n      jumpi\n      mload(0x40)\n      shl(0xe5, 0x461bcd)\n      dup2\n      mstore\n        /* \"#utility.yul\":4654:4656   */\n      0x20\n        /* \"LibertyFinancialChain/inr1.sol\":2986:3039  require(token != address(this), \"Cannot rescue INR1\") */\n      0x04\n      dup3\n      add\n        /* \"#utility.yul\":4636:4657   */\n      mstore\n        /* \"#utility.yul\":4693:4695   */\n      0x12\n        /* \"#utility.yul\":4673:4691   */\n      0x24\n      dup3\n      add\n        /* \"#utility.yul\":4666:4696   */\n      mstore\n      shl(0x70, 0x43616e6e6f742072657363756520494e5231)\n        /* \"#utility.yul\":4712:4730   */\n      0x44\n      dup3\n      add\n        /* \"#utility.yul\":4705:4753   */\n      mstore\n        /* \"#utility.yul\":4770:4788   */\n      0x64\n      add\n        /* \"LibertyFinancialChain/inr1.sol\":2986:3039  require(token != address(this), \"Cannot rescue INR1\") */\n      tag_165\n        /* \"#utility.yul\":4452:4794   */\n      jump\n        /* \"LibertyFinancialChain/inr1.sol\":2986:3039  require(token != address(this), \"Cannot rescue INR1\") */\n    tag_201:\n      sub(shl(0xa0, 0x01), 0x01)\n        /* \"LibertyFinancialChain/inr1.sol\":3058:3074  to != address(0) */\n      dup4\n      and\n        /* \"LibertyFinancialChain/inr1.sol\":3050:3086  require(to != address(0), \"Zero to\") */\n      tag_204\n      jumpi\n      mload(0x40)\n      shl(0xe5, 0x461bcd)\n      dup2\n      mstore\n        /* \"#utility.yul\":5001:5003   */\n      0x20\n        /* \"LibertyFinancialChain/inr1.sol\":3050:3086  require(to != address(0), \"Zero to\") */\n      0x04\n      dup3\n      add\n        /* \"#utility.yul\":4983:5004   */\n      mstore\n        /* \"#utility.yul\":5040:5041   */\n      0x07\n        /* \"#utility.yul\":5020:5038   */\n      0x24\n      dup3\n      add\n        /* \"#utility.yul\":5013:5042   */\n      mstore\n      shl(0xc8, 0x5a65726f20746f)\n        /* \"#utility.yul\":5058:5076   */\n      0x44\n      dup3\n      add\n        /* \"#utility.yul\":5051:5088   */\n      mstore\n        /* \"#utility.yul\":5105:5123   */\n      0x64\n      add\n        /* \"LibertyFinancialChain/inr1.sol\":3050:3086  require(to != address(0), \"Zero to\") */\n      tag_165\n        /* \"#utility.yul\":4799:5129   */\n      jump\n        /* \"LibertyFinancialChain/inr1.sol\":3050:3086  require(to != address(0), \"Zero to\") */\n    tag_204:\n        /* \"LibertyFinancialChain/inr1.sol\":3096:3130  IERC20(token).transfer(to, amount) */\n      mload(0x40)\n      shl(0xe0, 0xa9059cbb)\n      dup2\n      mstore\n      sub(shl(0xa0, 0x01), 0x01)\n        /* \"#utility.yul\":5326:5358   */\n      dup5\n      dup2\n      and\n        /* \"LibertyFinancialChain/inr1.sol\":3096:3130  IERC20(token).transfer(to, amount) */\n      0x04\n      dup4\n      add\n        /* \"#utility.yul\":5308:5359   */\n      mstore\n        /* \"#utility.yul\":5375:5393   */\n      0x24\n      dup3\n      add\n        /* \"#utility.yul\":5368:5402   */\n      dup5\n      swap1\n      mstore\n        /* \"LibertyFinancialChain/inr1.sol\":3096:3118  IERC20(token).transfer */\n      dup6\n      and\n      swap1\n      0xa9059cbb\n      swap1\n        /* \"#utility.yul\":5281:5299   */\n      0x44\n      add\n        /* \"LibertyFinancialChain/inr1.sol\":3096:3130  IERC20(token).transfer(to, amount) */\n      0x20\n      mload(0x40)\n      dup1\n      dup4\n      sub\n      dup2\n      0x00\n      dup8\n      gas\n      call\n      iszero\n      dup1\n      iszero\n      tag_210\n      jumpi\n      returndatasize\n      0x00\n      dup1\n      returndatacopy\n      revert(0x00, returndatasize)\n    tag_210:\n      pop\n      pop\n      pop\n      pop\n      mload(0x40)\n      returndatasize\n      not(0x1f)\n      0x1f\n      dup3\n      add\n      and\n      dup3\n      add\n      dup1\n      0x40\n      mstore\n      pop\n      dup2\n      add\n      swap1\n      tag_211\n      swap2\n      swap1\n      tag_212\n      jump\t// in\n    tag_211:\n      pop\n        /* \"@openzeppelin/contracts/utils/ReentrancyGuard.sol\":2542:2562  _nonReentrantAfter() */\n      tag_153\n        /* \"@openzeppelin/contracts/utils/ReentrancyGuard.sol\":1857:1858  1 */\n      0x01\n        /* \"@openzeppelin/contracts/utils/ReentrancyGuard.sol\":3068:3075  _status */\n      0x06\n        /* \"@openzeppelin/contracts/utils/ReentrancyGuard.sol\":3068:3089  _status = NOT_ENTERED */\n      sstore\n        /* \"@openzeppelin/contracts/utils/ReentrancyGuard.sol\":2888:3096  function _nonReentrantAfter() private {... */\n      jump\n        /* \"LibertyFinancialChain/inr1.sol\":1507:1697  function setBlacklisted(address account, bool value)... */\n    tag_108:\n        /* \"@openzeppelin/contracts/access/AccessControl.sol\":2241:2245  0x00 */\n      0x00\n        /* \"@openzeppelin/contracts/access/AccessControl.sol\":2473:2489  _checkRole(role) */\n      tag_215\n        /* \"@openzeppelin/contracts/access/AccessControl.sol\":2241:2245  0x00 */\n      dup2\n        /* \"@openzeppelin/contracts/access/AccessControl.sol\":2473:2483  _checkRole */\n      tag_151\n        /* \"@openzeppelin/contracts/access/AccessControl.sol\":2473:2489  _checkRole(role) */\n      jump\t// in\n    tag_215:\n      sub(shl(0xa0, 0x01), 0x01)\n        /* \"LibertyFinancialChain/inr1.sol\":1620:1640  blacklisted[account] */\n      dup4\n      and\n      0x00\n      dup2\n      dup2\n      mstore\n        /* \"LibertyFinancialChain/inr1.sol\":1620:1631  blacklisted */\n      0x07\n        /* \"LibertyFinancialChain/inr1.sol\":1620:1640  blacklisted[account] */\n      0x20\n      swap1\n      dup2\n      mstore\n      0x40\n      swap2\n      dup3\n      swap1\n      keccak256\n        /* \"LibertyFinancialChain/inr1.sol\":1620:1648  blacklisted[account] = value */\n      dup1\n      sload\n      not(0xff)\n      and\n      dup7\n      iszero\n      iszero\n      swap1\n      dup2\n      or\n      swap1\n      swap2\n      sstore\n        /* \"LibertyFinancialChain/inr1.sol\":1663:1690  Blacklisted(account, value) */\n      swap2\n      mload\n        /* \"#utility.yul\":445:486   */\n      swap2\n      dup3\n      mstore\n        /* \"LibertyFinancialChain/inr1.sol\":1663:1690  Blacklisted(account, value) */\n      0xcf3473b85df1594d47b6958f29a32bea0abff9dd68296f7bf33443646793cfd8\n      swap2\n        /* \"#utility.yul\":418:436   */\n      add\n        /* \"LibertyFinancialChain/inr1.sol\":1663:1690  Blacklisted(account, value) */\n      mload(0x40)\n      dup1\n      swap2\n      sub\n      swap1\n      log2\n        /* \"LibertyFinancialChain/inr1.sol\":1507:1697  function setBlacklisted(address account, bool value)... */\n      pop\n      pop\n      pop\n      jump\t// out\n        /* \"@openzeppelin/contracts/access/AccessControl.sol\":4618:4756  function revokeRole(bytes32 role, address account) public virtual onlyRole(getRoleAdmin(role)) {... */\n    tag_114:\n        /* \"@openzeppelin/contracts/access/AccessControl.sol\":3851:3858  bytes32 */\n      0x00\n        /* \"@openzeppelin/contracts/access/AccessControl.sol\":3877:3889  _roles[role] */\n      dup3\n      dup2\n      mstore\n        /* \"@openzeppelin/contracts/access/AccessControl.sol\":3877:3883  _roles */\n      0x05\n        /* \"@openzeppelin/contracts/access/AccessControl.sol\":3877:3889  _roles[role] */\n      0x20\n      mstore\n      0x40\n      swap1\n      keccak256\n        /* \"@openzeppelin/contracts/access/AccessControl.sol\":3877:3899  _roles[role].adminRole */\n      0x01\n      add\n      sload\n        /* \"@openzeppelin/contracts/access/AccessControl.sol\":2473:2489  _checkRole(role) */\n      tag_220\n        /* \"@openzeppelin/contracts/access/AccessControl.sol\":2484:2488  role */\n      dup2\n        /* \"@openzeppelin/contracts/access/AccessControl.sol\":2473:2483  _checkRole */\n      tag_151\n        /* \"@openzeppelin/contracts/access/AccessControl.sol\":2473:2489  _checkRole(role) */\n      jump\t// in\n    tag_220:\n        /* \"@openzeppelin/contracts/access/AccessControl.sol\":4723:4749  _revokeRole(role, account) */\n      tag_153\n        /* \"@openzeppelin/contracts/access/AccessControl.sol\":4735:4739  role */\n      dup4\n        /* \"@openzeppelin/contracts/access/AccessControl.sol\":4741:4748  account */\n      dup4\n        /* \"@openzeppelin/contracts/access/AccessControl.sol\":4723:4734  _revokeRole */\n      tag_160\n        /* \"@openzeppelin/contracts/access/AccessControl.sol\":4723:4749  _revokeRole(role, account) */\n      jump\t// in\n        /* \"@openzeppelin/contracts/token/ERC20/ERC20.sol\":8630:8758  function _approve(address owner, address spender, uint256 value) internal {... */\n    tag_139:\n        /* \"@openzeppelin/contracts/token/ERC20/ERC20.sol\":8714:8751  _approve(owner, spender, value, true) */\n      tag_159\n        /* \"@openzeppelin/contracts/token/ERC20/ERC20.sol\":8723:8728  owner */\n      dup4\n        /* \"@openzeppelin/contracts/token/ERC20/ERC20.sol\":8730:8737  spender */\n      dup4\n        /* \"@openzeppelin/contracts/token/ERC20/ERC20.sol\":8739:8744  value */\n      dup4\n        /* \"@openzeppelin/contracts/token/ERC20/ERC20.sol\":8746:8750  true */\n      0x01\n        /* \"@openzeppelin/contracts/token/ERC20/ERC20.sol\":8714:8722  _approve */\n      tag_228\n        /* \"@openzeppelin/contracts/token/ERC20/ERC20.sol\":8714:8751  _approve(owner, spender, value, true) */\n      jump\t// in\n        /* \"@openzeppelin/contracts/token/ERC20/ERC20.sol\":10319:10795  function _spendAllowance(address owner, address spender, uint256 value) internal virtual {... */\n    tag_144:\n      sub(shl(0xa0, 0x01), 0x01)\n        /* \"@openzeppelin/contracts/token/ERC20/ERC20.sol\":3561:3579  _allowances[owner] */\n      dup4\n      dup2\n      and\n        /* \"@openzeppelin/contracts/token/ERC20/ERC20.sol\":10418:10442  uint256 currentAllowance */\n      0x00\n        /* \"@openzeppelin/contracts/token/ERC20/ERC20.sol\":3561:3579  _allowances[owner] */\n      swap1\n      dup2\n      mstore\n        /* \"@openzeppelin/contracts/token/ERC20/ERC20.sol\":3561:3572  _allowances */\n      0x01\n        /* \"@openzeppelin/contracts/token/ERC20/ERC20.sol\":3561:3579  _allowances[owner] */\n      0x20\n      swap1\n      dup2\n      mstore\n      0x40\n      dup1\n      dup4\n      keccak256\n        /* \"@openzeppelin/contracts/token/ERC20/ERC20.sol\":3561:3588  _allowances[owner][spender] */\n      swap4\n      dup7\n      and\n      dup4\n      mstore\n      swap3\n      swap1\n      mstore\n      keccak256\n      sload\n      not(0x00)\n        /* \"@openzeppelin/contracts/token/ERC20/ERC20.sol\":10484:10520  currentAllowance < type(uint256).max */\n      dup2\n      lt\n        /* \"@openzeppelin/contracts/token/ERC20/ERC20.sol\":10480:10789  if (currentAllowance < type(uint256).max) {... */\n      iszero\n      tag_153\n      jumpi\n        /* \"@openzeppelin/contracts/token/ERC20/ERC20.sol\":10559:10564  value */\n      dup2\n        /* \"@openzeppelin/contracts/token/ERC20/ERC20.sol\":10540:10556  currentAllowance */\n      dup2\n        /* \"@openzeppelin/contracts/token/ERC20/ERC20.sol\":10540:10564  currentAllowance < value */\n      lt\n        /* \"@openzeppelin/contracts/token/ERC20/ERC20.sol\":10536:10666  if (currentAllowance < value) {... */\n      iszero\n      tag_232\n      jumpi\n        /* \"@openzeppelin/contracts/token/ERC20/ERC20.sol\":10591:10651  ERC20InsufficientAllowance(spender, currentAllowance, value) */\n      mload(0x40)\n      shl(0xe1, 0x7dc7a0d9)\n      dup2\n      mstore\n      sub(shl(0xa0, 0x01), 0x01)\n        /* \"#utility.yul\":5883:5915   */\n      dup5\n      and\n        /* \"@openzeppelin/contracts/token/ERC20/ERC20.sol\":10591:10651  ERC20InsufficientAllowance(spender, currentAllowance, value) */\n      0x04\n      dup3\n      add\n        /* \"#utility.yul\":5865:5916   */\n      mstore\n        /* \"#utility.yul\":5932:5950   */\n      0x24\n      dup2\n      add\n        /* \"#utility.yul\":5925:5959   */\n      dup3\n      swap1\n      mstore\n        /* \"#utility.yul\":5975:5993   */\n      0x44\n      dup2\n      add\n        /* \"#utility.yul\":5968:6002   */\n      dup4\n      swap1\n      mstore\n        /* \"#utility.yul\":5838:5856   */\n      0x64\n      add\n        /* \"@openzeppelin/contracts/token/ERC20/ERC20.sol\":10591:10651  ERC20InsufficientAllowance(spender, currentAllowance, value) */\n      tag_165\n        /* \"#utility.yul\":5663:6008   */\n      jump\n        /* \"@openzeppelin/contracts/token/ERC20/ERC20.sol\":10536:10666  if (currentAllowance < value) {... */\n    tag_232:\n        /* \"@openzeppelin/contracts/token/ERC20/ERC20.sol\":10707:10764  _approve(owner, spender, currentAllowance - value, false) */\n      tag_153\n        /* \"@openzeppelin/contracts/token/ERC20/ERC20.sol\":10716:10721  owner */\n      dup5\n        /* \"@openzeppelin/contracts/token/ERC20/ERC20.sol\":10723:10730  spender */\n      dup5\n        /* \"@openzeppelin/contracts/token/ERC20/ERC20.sol\":10751:10756  value */\n      dup5\n        /* \"@openzeppelin/contracts/token/ERC20/ERC20.sol\":10732:10748  currentAllowance */\n      dup5\n        /* \"@openzeppelin/contracts/token/ERC20/ERC20.sol\":10732:10756  currentAllowance - value */\n      sub\n        /* \"@openzeppelin/contracts/token/ERC20/ERC20.sol\":10758:10763  false */\n      0x00\n        /* \"@openzeppelin/contracts/token/ERC20/ERC20.sol\":10707:10715  _approve */\n      tag_228\n        /* \"@openzeppelin/contracts/token/ERC20/ERC20.sol\":10707:10764  _approve(owner, spender, currentAllowance - value, false) */\n      jump\t// in\n        /* \"@openzeppelin/contracts/token/ERC20/ERC20.sol\":5297:5597  function _transfer(address from, address to, uint256 value) internal {... */\n    tag_146:\n      sub(shl(0xa0, 0x01), 0x01)\n        /* \"@openzeppelin/contracts/token/ERC20/ERC20.sol\":5380:5398  from == address(0) */\n      dup4\n      and\n        /* \"@openzeppelin/contracts/token/ERC20/ERC20.sol\":5376:5462  if (from == address(0)) {... */\n      tag_237\n      jumpi\n        /* \"@openzeppelin/contracts/token/ERC20/ERC20.sol\":5421:5451  ERC20InvalidSender(address(0)) */\n      mload(0x40)\n      shl(0xe1, 0x4b637e8f)\n      dup2\n      mstore\n        /* \"@openzeppelin/contracts/token/ERC20/ERC20.sol\":5448:5449  0 */\n      0x00\n        /* \"@openzeppelin/contracts/token/ERC20/ERC20.sol\":5421:5451  ERC20InvalidSender(address(0)) */\n      0x04\n      dup3\n      add\n        /* \"#utility.yul\":6159:6210   */\n      mstore\n        /* \"#utility.yul\":6132:6150   */\n      0x24\n      add\n        /* \"@openzeppelin/contracts/token/ERC20/ERC20.sol\":5421:5451  ERC20InvalidSender(address(0)) */\n      tag_165\n        /* \"#utility.yul\":6013:6216   */\n      jump\n        /* \"@openzeppelin/contracts/token/ERC20/ERC20.sol\":5376:5462  if (from == address(0)) {... */\n    tag_237:\n      sub(shl(0xa0, 0x01), 0x01)\n        /* \"@openzeppelin/contracts/token/ERC20/ERC20.sol\":5475:5491  to == address(0) */\n      dup3\n      and\n        /* \"@openzeppelin/contracts/token/ERC20/ERC20.sol\":5471:5557  if (to == address(0)) {... */\n      tag_240\n      jumpi\n        /* \"@openzeppelin/contracts/token/ERC20/ERC20.sol\":5514:5546  ERC20InvalidReceiver(address(0)) */\n      mload(0x40)\n      shl(0xe0, 0xec442f05)\n      dup2\n      mstore\n        /* \"@openzeppelin/contracts/token/ERC20/ERC20.sol\":5543:5544  0 */\n      0x00\n        /* \"@openzeppelin/contracts/token/ERC20/ERC20.sol\":5514:5546  ERC20InvalidReceiver(address(0)) */\n      0x04\n      dup3\n      add\n        /* \"#utility.yul\":6159:6210   */\n      mstore\n        /* \"#utility.yul\":6132:6150   */\n      0x24\n      add\n        /* \"@openzeppelin/contracts/token/ERC20/ERC20.sol\":5514:5546  ERC20InvalidReceiver(address(0)) */\n      tag_165\n        /* \"#utility.yul\":6013:6216   */\n      jump\n        /* \"@openzeppelin/contracts/token/ERC20/ERC20.sol\":5471:5557  if (to == address(0)) {... */\n    tag_240:\n        /* \"@openzeppelin/contracts/token/ERC20/ERC20.sol\":5566:5590  _update(from, to, value) */\n      tag_159\n        /* \"@openzeppelin/contracts/token/ERC20/ERC20.sol\":5574:5578  from */\n      dup4\n        /* \"@openzeppelin/contracts/token/ERC20/ERC20.sol\":5580:5582  to */\n      dup4\n        /* \"@openzeppelin/contracts/token/ERC20/ERC20.sol\":5584:5589  value */\n      dup4\n        /* \"@openzeppelin/contracts/token/ERC20/ERC20.sol\":5566:5573  _update */\n      tag_243\n        /* \"@openzeppelin/contracts/token/ERC20/ERC20.sol\":5566:5590  _update(from, to, value) */\n      jump\t// in\n        /* \"@openzeppelin/contracts/access/AccessControl.sol\":3175:3278  function _checkRole(bytes32 role) internal view virtual {... */\n    tag_151:\n        /* \"@openzeppelin/contracts/access/AccessControl.sol\":3241:3271  _checkRole(role, _msgSender()) */\n      tag_245\n        /* \"@openzeppelin/contracts/access/AccessControl.sol\":3252:3256  role */\n      dup2\n        /* \"@openzeppelin/contracts/utils/Context.sol\":735:745  msg.sender */\n      caller\n        /* \"@openzeppelin/contracts/access/AccessControl.sol\":3241:3251  _checkRole */\n      tag_247\n        /* \"@openzeppelin/contracts/access/AccessControl.sol\":3241:3271  _checkRole(role, _msgSender()) */\n      jump\t// in\n    tag_245:\n        /* \"@openzeppelin/contracts/access/AccessControl.sol\":3175:3278  function _checkRole(bytes32 role) internal view virtual {... */\n      pop\n      jump\t// out\n        /* \"@openzeppelin/contracts/access/AccessControl.sol\":6155:6471  function _grantRole(bytes32 role, address account) internal virtual returns (bool) {... */\n    tag_154:\n        /* \"@openzeppelin/contracts/access/AccessControl.sol\":6232:6236  bool */\n      0x00\n        /* \"@openzeppelin/contracts/access/AccessControl.sol\":6253:6275  hasRole(role, account) */\n      tag_249\n        /* \"@openzeppelin/contracts/access/AccessControl.sol\":6261:6265  role */\n      dup4\n        /* \"@openzeppelin/contracts/access/AccessControl.sol\":6267:6274  account */\n      dup4\n        /* \"@openzeppelin/contracts/access/AccessControl.sol\":6253:6260  hasRole */\n      tag_87\n        /* \"@openzeppelin/contracts/access/AccessControl.sol\":6253:6275  hasRole(role, account) */\n      jump\t// in\n    tag_249:\n        /* \"@openzeppelin/contracts/access/AccessControl.sol\":6248:6465  if (!hasRole(role, account)) {... */\n      tag_250\n      jumpi\n        /* \"@openzeppelin/contracts/access/AccessControl.sol\":6291:6303  _roles[role] */\n      0x00\n      dup4\n      dup2\n      mstore\n        /* \"@openzeppelin/contracts/access/AccessControl.sol\":6291:6297  _roles */\n      0x05\n        /* \"@openzeppelin/contracts/access/AccessControl.sol\":6291:6303  _roles[role] */\n      0x20\n      swap1\n      dup2\n      mstore\n      0x40\n      dup1\n      dup4\n      keccak256\n      sub(shl(0xa0, 0x01), 0x01)\n        /* \"@openzeppelin/contracts/access/AccessControl.sol\":6291:6320  _roles[role].hasRole[account] */\n      dup7\n      and\n      dup5\n      mstore\n      swap1\n      swap2\n      mstore\n      swap1\n      keccak256\n        /* \"@openzeppelin/contracts/access/AccessControl.sol\":6291:6327  _roles[role].hasRole[account] = true */\n      dup1\n      sload\n      not(0xff)\n      and\n        /* \"@openzeppelin/contracts/access/AccessControl.sol\":6323:6327  true */\n      0x01\n        /* \"@openzeppelin/contracts/access/AccessControl.sol\":6291:6327  _roles[role].hasRole[account] = true */\n      or\n      swap1\n      sstore\n        /* \"@openzeppelin/contracts/access/AccessControl.sol\":6373:6385  _msgSender() */\n      tag_251\n        /* \"@openzeppelin/contracts/utils/Context.sol\":735:745  msg.sender */\n      caller\n      swap1\n        /* \"@openzeppelin/contracts/utils/Context.sol\":656:752  function _msgSender() internal view virtual returns (address) {... */\n      jump\n        /* \"@openzeppelin/contracts/access/AccessControl.sol\":6373:6385  _msgSender() */\n    tag_251:\n      sub(shl(0xa0, 0x01), 0x01)\n        /* \"@openzeppelin/contracts/access/AccessControl.sol\":6346:6386  RoleGranted(role, account, _msgSender()) */\n      and\n        /* \"@openzeppelin/contracts/access/AccessControl.sol\":6364:6371  account */\n      dup3\n      sub(shl(0xa0, 0x01), 0x01)\n        /* \"@openzeppelin/contracts/access/AccessControl.sol\":6346:6386  RoleGranted(role, account, _msgSender()) */\n      and\n        /* \"@openzeppelin/contracts/access/AccessControl.sol\":6358:6362  role */\n      dup5\n        /* \"@openzeppelin/contracts/access/AccessControl.sol\":6346:6386  RoleGranted(role, account, _msgSender()) */\n      0x2f8788117e7eff1d82e926ec794901d17c78024a50270940304540a733656f0d\n      mload(0x40)\n      mload(0x40)\n      dup1\n      swap2\n      sub\n      swap1\n      log4\n      pop\n        /* \"@openzeppelin/contracts/access/AccessControl.sol\":6407:6411  true */\n      0x01\n        /* \"@openzeppelin/contracts/access/AccessControl.sol\":6400:6411  return true */\n      jump(tag_126)\n        /* \"@openzeppelin/contracts/access/AccessControl.sol\":6248:6465  if (!hasRole(role, account)) {... */\n    tag_250:\n      pop\n        /* \"@openzeppelin/contracts/access/AccessControl.sol\":6449:6454  false */\n      0x00\n        /* \"@openzeppelin/contracts/access/AccessControl.sol\":6442:6454  return false */\n      jump(tag_126)\n        /* \"@openzeppelin/contracts/access/AccessControl.sol\":6708:7025  function _revokeRole(bytes32 role, address account) internal virtual returns (bool) {... */\n    tag_160:\n        /* \"@openzeppelin/contracts/access/AccessControl.sol\":6786:6790  bool */\n      0x00\n        /* \"@openzeppelin/contracts/access/AccessControl.sol\":6806:6828  hasRole(role, account) */\n      tag_254\n        /* \"@openzeppelin/contracts/access/AccessControl.sol\":6814:6818  role */\n      dup4\n        /* \"@openzeppelin/contracts/access/AccessControl.sol\":6820:6827  account */\n      dup4\n        /* \"@openzeppelin/contracts/access/AccessControl.sol\":6806:6813  hasRole */\n      tag_87\n        /* \"@openzeppelin/contracts/access/AccessControl.sol\":6806:6828  hasRole(role, account) */\n      jump\t// in\n    tag_254:\n        /* \"@openzeppelin/contracts/access/AccessControl.sol\":6802:7019  if (hasRole(role, account)) {... */\n      iszero\n      tag_250\n      jumpi\n        /* \"@openzeppelin/contracts/access/AccessControl.sol\":6876:6881  false */\n      0x00\n        /* \"@openzeppelin/contracts/access/AccessControl.sol\":6844:6856  _roles[role] */\n      dup4\n      dup2\n      mstore\n        /* \"@openzeppelin/contracts/access/AccessControl.sol\":6844:6850  _roles */\n      0x05\n        /* \"@openzeppelin/contracts/access/AccessControl.sol\":6844:6856  _roles[role] */\n      0x20\n      swap1\n      dup2\n      mstore\n      0x40\n      dup1\n      dup4\n      keccak256\n      sub(shl(0xa0, 0x01), 0x01)\n        /* \"@openzeppelin/contracts/access/AccessControl.sol\":6844:6873  _roles[role].hasRole[account] */\n      dup7\n      and\n      dup1\n      dup6\n      mstore\n      swap3\n      mstore\n      dup1\n      dup4\n      keccak256\n        /* \"@openzeppelin/contracts/access/AccessControl.sol\":6844:6881  _roles[role].hasRole[account] = false */\n      dup1\n      sload\n      not(0xff)\n      and\n      swap1\n      sstore\n        /* \"@openzeppelin/contracts/access/AccessControl.sol\":6900:6940  RoleRevoked(role, account, _msgSender()) */\n      mload\n        /* \"@openzeppelin/contracts/utils/Context.sol\":735:745  msg.sender */\n      caller\n      swap3\n        /* \"@openzeppelin/contracts/access/AccessControl.sol\":6844:6856  _roles[role] */\n      dup7\n      swap2\n        /* \"@openzeppelin/contracts/access/AccessControl.sol\":6900:6940  RoleRevoked(role, account, _msgSender()) */\n      0xf6391f5c32d9c69d2a47ea670b442974b53935d1edc7fd64eb21e047a839171b\n      swap2\n        /* \"@openzeppelin/contracts/access/AccessControl.sol\":6876:6881  false */\n      swap1\n        /* \"@openzeppelin/contracts/access/AccessControl.sol\":6900:6940  RoleRevoked(role, account, _msgSender()) */\n      log4\n      pop\n        /* \"@openzeppelin/contracts/access/AccessControl.sol\":6961:6965  true */\n      0x01\n        /* \"@openzeppelin/contracts/access/AccessControl.sol\":6954:6965  return true */\n      jump(tag_126)\n        /* \"@openzeppelin/contracts/utils/ReentrancyGuard.sol\":2575:2882  function _nonReentrantBefore() private {... */\n    tag_169:\n        /* \"@openzeppelin/contracts/utils/ReentrancyGuard.sol\":1899:1900  2 */\n      0x02\n        /* \"@openzeppelin/contracts/utils/ReentrancyGuard.sol\":2702:2709  _status */\n      sload(0x06)\n        /* \"@openzeppelin/contracts/utils/ReentrancyGuard.sol\":2702:2720  _status == ENTERED */\n      sub\n        /* \"@openzeppelin/contracts/utils/ReentrancyGuard.sol\":2698:2784  if (_status == ENTERED) {... */\n      tag_259\n      jumpi\n        /* \"@openzeppelin/contracts/utils/ReentrancyGuard.sol\":2743:2773  ReentrancyGuardReentrantCall() */\n      mload(0x40)\n      shl(0xe0, 0x3ee5aeb5)\n      dup2\n      mstore\n      0x04\n      add\n      mload(0x40)\n      dup1\n      swap2\n      sub\n      swap1\n      revert\n        /* \"@openzeppelin/contracts/utils/ReentrancyGuard.sol\":2698:2784  if (_status == ENTERED) {... */\n    tag_259:\n        /* \"@openzeppelin/contracts/utils/ReentrancyGuard.sol\":1899:1900  2 */\n      0x02\n        /* \"@openzeppelin/contracts/utils/ReentrancyGuard.sol\":2858:2865  _status */\n      0x06\n        /* \"@openzeppelin/contracts/utils/ReentrancyGuard.sol\":2858:2875  _status = ENTERED */\n      sstore\n        /* \"@openzeppelin/contracts/utils/ReentrancyGuard.sol\":2575:2882  function _nonReentrantBefore() private {... */\n      jump\t// out\n        /* \"@openzeppelin/contracts/token/ERC20/ERC20.sol\":7362:7570  function _mint(address account, uint256 value) internal {... */\n    tag_172:\n      sub(shl(0xa0, 0x01), 0x01)\n        /* \"@openzeppelin/contracts/token/ERC20/ERC20.sol\":7432:7453  account == address(0) */\n      dup3\n      and\n        /* \"@openzeppelin/contracts/token/ERC20/ERC20.sol\":7428:7519  if (account == address(0)) {... */\n      tag_261\n      jumpi\n        /* \"@openzeppelin/contracts/token/ERC20/ERC20.sol\":7476:7508  ERC20InvalidReceiver(address(0)) */\n      mload(0x40)\n      shl(0xe0, 0xec442f05)\n      dup2\n      mstore\n        /* \"@openzeppelin/contracts/token/ERC20/ERC20.sol\":7505:7506  0 */\n      0x00\n        /* \"@openzeppelin/contracts/token/ERC20/ERC20.sol\":7476:7508  ERC20InvalidReceiver(address(0)) */\n      0x04\n      dup3\n      add\n        /* \"#utility.yul\":6159:6210   */\n      mstore\n        /* \"#utility.yul\":6132:6150   */\n      0x24\n      add\n        /* \"@openzeppelin/contracts/token/ERC20/ERC20.sol\":7476:7508  ERC20InvalidReceiver(address(0)) */\n      tag_165\n        /* \"#utility.yul\":6013:6216   */\n      jump\n        /* \"@openzeppelin/contracts/token/ERC20/ERC20.sol\":7428:7519  if (account == address(0)) {... */\n    tag_261:\n        /* \"@openzeppelin/contracts/token/ERC20/ERC20.sol\":7528:7563  _update(address(0), account, value) */\n      tag_263\n        /* \"@openzeppelin/contracts/token/ERC20/ERC20.sol\":7544:7545  0 */\n      0x00\n        /* \"@openzeppelin/contracts/token/ERC20/ERC20.sol\":7548:7555  account */\n      dup4\n        /* \"@openzeppelin/contracts/token/ERC20/ERC20.sol\":7557:7562  value */\n      dup4\n        /* \"@openzeppelin/contracts/token/ERC20/ERC20.sol\":7528:7535  _update */\n      tag_243\n        /* \"@openzeppelin/contracts/token/ERC20/ERC20.sol\":7528:7563  _update(address(0), account, value) */\n      jump\t// in\n    tag_263:\n        /* \"@openzeppelin/contracts/token/ERC20/ERC20.sol\":7362:7570  function _mint(address account, uint256 value) internal {... */\n      pop\n      pop\n      jump\t// out\n        /* \"@openzeppelin/contracts/token/ERC20/ERC20.sol\":7888:8094  function _burn(address account, uint256 value) internal {... */\n    tag_190:\n      sub(shl(0xa0, 0x01), 0x01)\n        /* \"@openzeppelin/contracts/token/ERC20/ERC20.sol\":7958:7979  account == address(0) */\n      dup3\n      and\n        /* \"@openzeppelin/contracts/token/ERC20/ERC20.sol\":7954:8043  if (account == address(0)) {... */\n      tag_266\n      jumpi\n        /* \"@openzeppelin/contracts/token/ERC20/ERC20.sol\":8002:8032  ERC20InvalidSender(address(0)) */\n      mload(0x40)\n      shl(0xe1, 0x4b637e8f)\n      dup2\n      mstore\n        /* \"@openzeppelin/contracts/token/ERC20/ERC20.sol\":8029:8030  0 */\n      0x00\n        /* \"@openzeppelin/contracts/token/ERC20/ERC20.sol\":8002:8032  ERC20InvalidSender(address(0)) */\n      0x04\n      dup3\n      add\n        /* \"#utility.yul\":6159:6210   */\n      mstore\n        /* \"#utility.yul\":6132:6150   */\n      0x24\n      add\n        /* \"@openzeppelin/contracts/token/ERC20/ERC20.sol\":8002:8032  ERC20InvalidSender(address(0)) */\n      tag_165\n        /* \"#utility.yul\":6013:6216   */\n      jump\n        /* \"@openzeppelin/contracts/token/ERC20/ERC20.sol\":7954:8043  if (account == address(0)) {... */\n    tag_266:\n        /* \"@openzeppelin/contracts/token/ERC20/ERC20.sol\":8052:8087  _update(account, address(0), value) */\n      tag_263\n        /* \"@openzeppelin/contracts/token/ERC20/ERC20.sol\":8060:8067  account */\n      dup3\n        /* \"@openzeppelin/contracts/token/ERC20/ERC20.sol\":8077:8078  0 */\n      0x00\n        /* \"@openzeppelin/contracts/token/ERC20/ERC20.sol\":8081:8086  value */\n      dup4\n        /* \"@openzeppelin/contracts/token/ERC20/ERC20.sol\":8052:8059  _update */\n      tag_243\n        /* \"@openzeppelin/contracts/token/ERC20/ERC20.sol\":8052:8087  _update(account, address(0), value) */\n      jump\t// in\n        /* \"@openzeppelin/contracts/token/ERC20/ERC20.sol\":9605:10037  function _approve(address owner, address spender, uint256 value, bool emitEvent) internal virtual {... */\n    tag_228:\n      sub(shl(0xa0, 0x01), 0x01)\n        /* \"@openzeppelin/contracts/token/ERC20/ERC20.sol\":9717:9736  owner == address(0) */\n      dup5\n      and\n        /* \"@openzeppelin/contracts/token/ERC20/ERC20.sol\":9713:9802  if (owner == address(0)) {... */\n      tag_270\n      jumpi\n        /* \"@openzeppelin/contracts/token/ERC20/ERC20.sol\":9759:9791  ERC20InvalidApprover(address(0)) */\n      mload(0x40)\n      shl(0xe0, 0xe602df05)\n      dup2\n      mstore\n        /* \"@openzeppelin/contracts/token/ERC20/ERC20.sol\":9788:9789  0 */\n      0x00\n        /* \"@openzeppelin/contracts/token/ERC20/ERC20.sol\":9759:9791  ERC20InvalidApprover(address(0)) */\n      0x04\n      dup3\n      add\n        /* \"#utility.yul\":6159:6210   */\n      mstore\n        /* \"#utility.yul\":6132:6150   */\n      0x24\n      add\n        /* \"@openzeppelin/contracts/token/ERC20/ERC20.sol\":9759:9791  ERC20InvalidApprover(address(0)) */\n      tag_165\n        /* \"#utility.yul\":6013:6216   */\n      jump\n        /* \"@openzeppelin/contracts/token/ERC20/ERC20.sol\":9713:9802  if (owner == address(0)) {... */\n    tag_270:\n      sub(shl(0xa0, 0x01), 0x01)\n        /* \"@openzeppelin/contracts/token/ERC20/ERC20.sol\":9815:9836  spender == address(0) */\n      dup4\n      and\n        /* \"@openzeppelin/contracts/token/ERC20/ERC20.sol\":9811:9901  if (spender == address(0)) {... */\n      tag_272\n      jumpi\n        /* \"@openzeppelin/contracts/token/ERC20/ERC20.sol\":9859:9890  ERC20InvalidSpender(address(0)) */\n      mload(0x40)\n      shl(0xe1, 0x4a1406b1)\n      dup2\n      mstore\n        /* \"@openzeppelin/contracts/token/ERC20/ERC20.sol\":9887:9888  0 */\n      0x00\n        /* \"@openzeppelin/contracts/token/ERC20/ERC20.sol\":9859:9890  ERC20InvalidSpender(address(0)) */\n      0x04\n      dup3\n      add\n        /* \"#utility.yul\":6159:6210   */\n      mstore\n        /* \"#utility.yul\":6132:6150   */\n      0x24\n      add\n        /* \"@openzeppelin/contracts/token/ERC20/ERC20.sol\":9859:9890  ERC20InvalidSpender(address(0)) */\n      tag_165\n        /* \"#utility.yul\":6013:6216   */\n      jump\n        /* \"@openzeppelin/contracts/token/ERC20/ERC20.sol\":9811:9901  if (spender == address(0)) {... */\n    tag_272:\n      sub(shl(0xa0, 0x01), 0x01)\n        /* \"@openzeppelin/contracts/token/ERC20/ERC20.sol\":9910:9928  _allowances[owner] */\n      dup1\n      dup6\n      and\n      0x00\n      swap1\n      dup2\n      mstore\n        /* \"@openzeppelin/contracts/token/ERC20/ERC20.sol\":9910:9921  _allowances */\n      0x01\n        /* \"@openzeppelin/contracts/token/ERC20/ERC20.sol\":9910:9928  _allowances[owner] */\n      0x20\n      swap1\n      dup2\n      mstore\n      0x40\n      dup1\n      dup4\n      keccak256\n        /* \"@openzeppelin/contracts/token/ERC20/ERC20.sol\":9910:9937  _allowances[owner][spender] */\n      swap4\n      dup8\n      and\n      dup4\n      mstore\n      swap3\n      swap1\n      mstore\n      keccak256\n        /* \"@openzeppelin/contracts/token/ERC20/ERC20.sol\":9910:9945  _allowances[owner][spender] = value */\n      dup3\n      swap1\n      sstore\n        /* \"@openzeppelin/contracts/token/ERC20/ERC20.sol\":9955:10031  if (emitEvent) {... */\n      dup1\n      iszero\n      tag_153\n      jumpi\n        /* \"@openzeppelin/contracts/token/ERC20/ERC20.sol\":10005:10012  spender */\n      dup3\n      sub(shl(0xa0, 0x01), 0x01)\n        /* \"@openzeppelin/contracts/token/ERC20/ERC20.sol\":9989:10020  Approval(owner, spender, value) */\n      and\n        /* \"@openzeppelin/contracts/token/ERC20/ERC20.sol\":9998:10003  owner */\n      dup5\n      sub(shl(0xa0, 0x01), 0x01)\n        /* \"@openzeppelin/contracts/token/ERC20/ERC20.sol\":9989:10020  Approval(owner, spender, value) */\n      and\n      0x8c5be1e5ebec7d5bd14f71427d1e84f3dd0314c0f7b2291e5b200ac8c7c3b925\n        /* \"@openzeppelin/contracts/token/ERC20/ERC20.sol\":10014:10019  value */\n      dup5\n        /* \"@openzeppelin/contracts/token/ERC20/ERC20.sol\":9989:10020  Approval(owner, spender, value) */\n      mload(0x40)\n      tag_275\n      swap2\n        /* \"#utility.yul\":1633:1658   */\n      dup2\n      mstore\n        /* \"#utility.yul\":1621:1623   */\n      0x20\n        /* \"#utility.yul\":1606:1624   */\n      add\n      swap1\n        /* \"#utility.yul\":1487:1664   */\n      jump\n        /* \"@openzeppelin/contracts/token/ERC20/ERC20.sol\":9989:10020  Approval(owner, spender, value) */\n    tag_275:\n      mload(0x40)\n      dup1\n      swap2\n      sub\n      swap1\n      log3\n        /* \"@openzeppelin/contracts/token/ERC20/ERC20.sol\":9605:10037  function _approve(address owner, address spender, uint256 value, bool emitEvent) internal virtual {... */\n      pop\n      pop\n      pop\n      pop\n      jump\t// out\n        /* \"LibertyFinancialChain/inr1.sol\":2368:2803  function _update(address from, address to, uint256 value) internal override {... */\n    tag_243:\n      sub(shl(0xa0, 0x01), 0x01)\n        /* \"LibertyFinancialChain/inr1.sol\":2502:2520  from != address(0) */\n      dup4\n      and\n      iszero\n        /* \"LibertyFinancialChain/inr1.sol\":2498:2596  if (from != address(0)) {... */\n      tag_278\n      jumpi\n      sub(shl(0xa0, 0x01), 0x01)\n        /* \"LibertyFinancialChain/inr1.sol\":2545:2562  blacklisted[from] */\n      dup4\n      and\n      0x00\n      swap1\n      dup2\n      mstore\n        /* \"LibertyFinancialChain/inr1.sol\":2545:2556  blacklisted */\n      0x07\n        /* \"LibertyFinancialChain/inr1.sol\":2545:2562  blacklisted[from] */\n      0x20\n      mstore\n      0x40\n      swap1\n      keccak256\n      sload\n      0xff\n      and\n        /* \"LibertyFinancialChain/inr1.sol\":2544:2562  !blacklisted[from] */\n      iszero\n        /* \"LibertyFinancialChain/inr1.sol\":2536:2585  require(!blacklisted[from], \"Sender blacklisted\") */\n      tag_278\n      jumpi\n      mload(0x40)\n      shl(0xe5, 0x461bcd)\n      dup2\n      mstore\n        /* \"#utility.yul\":6423:6425   */\n      0x20\n        /* \"LibertyFinancialChain/inr1.sol\":2536:2585  require(!blacklisted[from], \"Sender blacklisted\") */\n      0x04\n      dup3\n      add\n        /* \"#utility.yul\":6405:6426   */\n      mstore\n        /* \"#utility.yul\":6462:6464   */\n      0x12\n        /* \"#utility.yul\":6442:6460   */\n      0x24\n      dup3\n      add\n        /* \"#utility.yul\":6435:6465   */\n      mstore\n      shl(0x72, 0x14d95b99195c88189b1858dadb1a5cdd1959)\n        /* \"#utility.yul\":6481:6499   */\n      0x44\n      dup3\n      add\n        /* \"#utility.yul\":6474:6522   */\n      mstore\n        /* \"#utility.yul\":6539:6557   */\n      0x64\n      add\n        /* \"LibertyFinancialChain/inr1.sol\":2536:2585  require(!blacklisted[from], \"Sender blacklisted\") */\n      tag_165\n        /* \"#utility.yul\":6221:6563   */\n      jump\n        /* \"LibertyFinancialChain/inr1.sol\":2536:2585  require(!blacklisted[from], \"Sender blacklisted\") */\n    tag_278:\n      sub(shl(0xa0, 0x01), 0x01)\n        /* \"LibertyFinancialChain/inr1.sol\":2664:2680  to != address(0) */\n      dup3\n      and\n      iszero\n        /* \"LibertyFinancialChain/inr1.sol\":2660:2756  if (to != address(0)) {... */\n      tag_282\n      jumpi\n      sub(shl(0xa0, 0x01), 0x01)\n        /* \"LibertyFinancialChain/inr1.sol\":2705:2720  blacklisted[to] */\n      dup3\n      and\n      0x00\n      swap1\n      dup2\n      mstore\n        /* \"LibertyFinancialChain/inr1.sol\":2705:2716  blacklisted */\n      0x07\n        /* \"LibertyFinancialChain/inr1.sol\":2705:2720  blacklisted[to] */\n      0x20\n      mstore\n      0x40\n      swap1\n      keccak256\n      sload\n      0xff\n      and\n        /* \"LibertyFinancialChain/inr1.sol\":2704:2720  !blacklisted[to] */\n      iszero\n        /* \"LibertyFinancialChain/inr1.sol\":2696:2745  require(!blacklisted[to], \"Receiver blacklisted\") */\n      tag_282\n      jumpi\n      mload(0x40)\n      shl(0xe5, 0x461bcd)\n      dup2\n      mstore\n        /* \"#utility.yul\":6770:6772   */\n      0x20\n        /* \"LibertyFinancialChain/inr1.sol\":2696:2745  require(!blacklisted[to], \"Receiver blacklisted\") */\n      0x04\n      dup3\n      add\n        /* \"#utility.yul\":6752:6773   */\n      mstore\n        /* \"#utility.yul\":6809:6811   */\n      0x14\n        /* \"#utility.yul\":6789:6807   */\n      0x24\n      dup3\n      add\n        /* \"#utility.yul\":6782:6812   */\n      mstore\n      shl(0x62, 0x149958d95a5d995c88189b1858dadb1a5cdd1959)\n        /* \"#utility.yul\":6828:6846   */\n      0x44\n      dup3\n      add\n        /* \"#utility.yul\":6821:6871   */\n      mstore\n        /* \"#utility.yul\":6888:6906   */\n      0x64\n      add\n        /* \"LibertyFinancialChain/inr1.sol\":2696:2745  require(!blacklisted[to], \"Receiver blacklisted\") */\n      tag_165\n        /* \"#utility.yul\":6568:6912   */\n      jump\n        /* \"LibertyFinancialChain/inr1.sol\":2696:2745  require(!blacklisted[to], \"Receiver blacklisted\") */\n    tag_282:\n        /* \"LibertyFinancialChain/inr1.sol\":2766:2796  super._update(from, to, value) */\n      tag_159\n        /* \"LibertyFinancialChain/inr1.sol\":2780:2784  from */\n      dup4\n        /* \"LibertyFinancialChain/inr1.sol\":2786:2788  to */\n      dup4\n        /* \"LibertyFinancialChain/inr1.sol\":2790:2795  value */\n      dup4\n        /* \"LibertyFinancialChain/inr1.sol\":2766:2779  super._update */\n      tag_286\n        /* \"LibertyFinancialChain/inr1.sol\":2766:2796  super._update(from, to, value) */\n      jump\t// in\n        /* \"@openzeppelin/contracts/access/AccessControl.sol\":3408:3605  function _checkRole(bytes32 role, address account) internal view virtual {... */\n    tag_247:\n        /* \"@openzeppelin/contracts/access/AccessControl.sol\":3496:3518  hasRole(role, account) */\n      tag_288\n        /* \"@openzeppelin/contracts/access/AccessControl.sol\":3504:3508  role */\n      dup3\n        /* \"@openzeppelin/contracts/access/AccessControl.sol\":3510:3517  account */\n      dup3\n        /* \"@openzeppelin/contracts/access/AccessControl.sol\":3496:3503  hasRole */\n      tag_87\n        /* \"@openzeppelin/contracts/access/AccessControl.sol\":3496:3518  hasRole(role, account) */\n      jump\t// in\n    tag_288:\n        /* \"@openzeppelin/contracts/access/AccessControl.sol\":3491:3599  if (!hasRole(role, account)) {... */\n      tag_263\n      jumpi\n        /* \"@openzeppelin/contracts/access/AccessControl.sol\":3541:3588  AccessControlUnauthorizedAccount(account, role) */\n      mload(0x40)\n      shl(0xe0, 0xe2517d3f)\n      dup2\n      mstore\n      sub(shl(0xa0, 0x01), 0x01)\n        /* \"#utility.yul\":5326:5358   */\n      dup3\n      and\n        /* \"@openzeppelin/contracts/access/AccessControl.sol\":3541:3588  AccessControlUnauthorizedAccount(account, role) */\n      0x04\n      dup3\n      add\n        /* \"#utility.yul\":5308:5359   */\n      mstore\n        /* \"#utility.yul\":5375:5393   */\n      0x24\n      dup2\n      add\n        /* \"#utility.yul\":5368:5402   */\n      dup4\n      swap1\n      mstore\n        /* \"#utility.yul\":5281:5299   */\n      0x44\n      add\n        /* \"@openzeppelin/contracts/access/AccessControl.sol\":3541:3588  AccessControlUnauthorizedAccount(account, role) */\n      tag_165\n        /* \"#utility.yul\":5134:5408   */\n      jump\n        /* \"@openzeppelin/contracts/token/ERC20/ERC20.sol\":5912:7019  function _update(address from, address to, uint256 value) internal virtual {... */\n    tag_286:\n      sub(shl(0xa0, 0x01), 0x01)\n        /* \"@openzeppelin/contracts/token/ERC20/ERC20.sol\":6001:6019  from == address(0) */\n      dup4\n      and\n        /* \"@openzeppelin/contracts/token/ERC20/ERC20.sol\":5997:6537  if (from == address(0)) {... */\n      tag_293\n      jumpi\n        /* \"@openzeppelin/contracts/token/ERC20/ERC20.sol\":6153:6158  value */\n      dup1\n        /* \"@openzeppelin/contracts/token/ERC20/ERC20.sol\":6137:6149  _totalSupply */\n      0x02\n      0x00\n        /* \"@openzeppelin/contracts/token/ERC20/ERC20.sol\":6137:6158  _totalSupply += value */\n      dup3\n      dup3\n      sload\n      tag_294\n      swap2\n      swap1\n      tag_295\n      jump\t// in\n    tag_294:\n      swap1\n      swap2\n      sstore\n      pop\n        /* \"@openzeppelin/contracts/token/ERC20/ERC20.sol\":5997:6537  if (from == address(0)) {... */\n      tag_296\n      swap1\n      pop\n      jump\n    tag_293:\n      sub(shl(0xa0, 0x01), 0x01)\n        /* \"@openzeppelin/contracts/token/ERC20/ERC20.sol\":6211:6226  _balances[from] */\n      dup4\n      and\n        /* \"@openzeppelin/contracts/token/ERC20/ERC20.sol\":6189:6208  uint256 fromBalance */\n      0x00\n        /* \"@openzeppelin/contracts/token/ERC20/ERC20.sol\":6211:6226  _balances[from] */\n      swap1\n      dup2\n      mstore\n      0x20\n      dup2\n      swap1\n      mstore\n      0x40\n      swap1\n      keccak256\n      sload\n        /* \"@openzeppelin/contracts/token/ERC20/ERC20.sol\":6244:6263  fromBalance < value */\n      dup2\n      dup2\n      lt\n        /* \"@openzeppelin/contracts/token/ERC20/ERC20.sol\":6240:6355  if (fromBalance < value) {... */\n      iszero\n      tag_297\n      jumpi\n        /* \"@openzeppelin/contracts/token/ERC20/ERC20.sol\":6290:6340  ERC20InsufficientBalance(from, fromBalance, value) */\n      mload(0x40)\n      shl(0xe2, 0x391434e3)\n      dup2\n      mstore\n      sub(shl(0xa0, 0x01), 0x01)\n        /* \"#utility.yul\":5883:5915   */\n      dup6\n      and\n        /* \"@openzeppelin/contracts/token/ERC20/ERC20.sol\":6290:6340  ERC20InsufficientBalance(from, fromBalance, value) */\n      0x04\n      dup3\n      add\n        /* \"#utility.yul\":5865:5916   */\n      mstore\n        /* \"#utility.yul\":5932:5950   */\n      0x24\n      dup2\n      add\n        /* \"#utility.yul\":5925:5959   */\n      dup3\n      swap1\n      mstore\n        /* \"#utility.yul\":5975:5993   */\n      0x44\n      dup2\n      add\n        /* \"#utility.yul\":5968:6002   */\n      dup4\n      swap1\n      mstore\n        /* \"#utility.yul\":5838:5856   */\n      0x64\n      add\n        /* \"@openzeppelin/contracts/token/ERC20/ERC20.sol\":6290:6340  ERC20InsufficientBalance(from, fromBalance, value) */\n      tag_165\n        /* \"#utility.yul\":5663:6008   */\n      jump\n        /* \"@openzeppelin/contracts/token/ERC20/ERC20.sol\":6240:6355  if (fromBalance < value) {... */\n    tag_297:\n      sub(shl(0xa0, 0x01), 0x01)\n        /* \"@openzeppelin/contracts/token/ERC20/ERC20.sol\":6475:6490  _balances[from] */\n      dup5\n      and\n        /* \"@openzeppelin/contracts/token/ERC20/ERC20.sol\":6475:6484  _balances */\n      0x00\n        /* \"@openzeppelin/contracts/token/ERC20/ERC20.sol\":6475:6490  _balances[from] */\n      swap1\n      dup2\n      mstore\n      0x20\n      dup2\n      swap1\n      mstore\n      0x40\n      swap1\n      keccak256\n        /* \"@openzeppelin/contracts/token/ERC20/ERC20.sol\":6493:6512  fromBalance - value */\n      swap1\n      dup3\n      swap1\n      sub\n        /* \"@openzeppelin/contracts/token/ERC20/ERC20.sol\":6475:6512  _balances[from] = fromBalance - value */\n      swap1\n      sstore\n        /* \"@openzeppelin/contracts/token/ERC20/ERC20.sol\":5997:6537  if (from == address(0)) {... */\n    tag_296:\n      sub(shl(0xa0, 0x01), 0x01)\n        /* \"@openzeppelin/contracts/token/ERC20/ERC20.sol\":6551:6567  to == address(0) */\n      dup3\n      and\n        /* \"@openzeppelin/contracts/token/ERC20/ERC20.sol\":6547:6972  if (to == address(0)) {... */\n      tag_299\n      jumpi\n        /* \"@openzeppelin/contracts/token/ERC20/ERC20.sol\":6714:6726  _totalSupply */\n      0x02\n        /* \"@openzeppelin/contracts/token/ERC20/ERC20.sol\":6714:6735  _totalSupply -= value */\n      dup1\n      sload\n      dup3\n      swap1\n      sub\n      swap1\n      sstore\n        /* \"@openzeppelin/contracts/token/ERC20/ERC20.sol\":6547:6972  if (to == address(0)) {... */\n      jump(tag_300)\n    tag_299:\n      sub(shl(0xa0, 0x01), 0x01)\n        /* \"@openzeppelin/contracts/token/ERC20/ERC20.sol\":6925:6938  _balances[to] */\n      dup3\n      and\n        /* \"@openzeppelin/contracts/token/ERC20/ERC20.sol\":6925:6934  _balances */\n      0x00\n        /* \"@openzeppelin/contracts/token/ERC20/ERC20.sol\":6925:6938  _balances[to] */\n      swap1\n      dup2\n      mstore\n      0x20\n      dup2\n      swap1\n      mstore\n      0x40\n      swap1\n      keccak256\n        /* \"@openzeppelin/contracts/token/ERC20/ERC20.sol\":6925:6947  _balances[to] += value */\n      dup1\n      sload\n      dup3\n      add\n      swap1\n      sstore\n        /* \"@openzeppelin/contracts/token/ERC20/ERC20.sol\":6547:6972  if (to == address(0)) {... */\n    tag_300:\n        /* \"@openzeppelin/contracts/token/ERC20/ERC20.sol\":7002:7004  to */\n      dup2\n      sub(shl(0xa0, 0x01), 0x01)\n        /* \"@openzeppelin/contracts/token/ERC20/ERC20.sol\":6987:7012  Transfer(from, to, value) */\n      and\n        /* \"@openzeppelin/contracts/token/ERC20/ERC20.sol\":6996:7000  from */\n      dup4\n      sub(shl(0xa0, 0x01), 0x01)\n        /* \"@openzeppelin/contracts/token/ERC20/ERC20.sol\":6987:7012  Transfer(from, to, value) */\n      and\n      0xddf252ad1be2c89b69c2b068fc378daa952ba7f163c4a11628f55a4df523b3ef\n        /* \"@openzeppelin/contracts/token/ERC20/ERC20.sol\":7006:7011  value */\n      dup4\n        /* \"@openzeppelin/contracts/token/ERC20/ERC20.sol\":6987:7012  Transfer(from, to, value) */\n      mload(0x40)\n      tag_301\n      swap2\n        /* \"#utility.yul\":1633:1658   */\n      dup2\n      mstore\n        /* \"#utility.yul\":1621:1623   */\n      0x20\n        /* \"#utility.yul\":1606:1624   */\n      add\n      swap1\n        /* \"#utility.yul\":1487:1664   */\n      jump\n        /* \"@openzeppelin/contracts/token/ERC20/ERC20.sol\":6987:7012  Transfer(from, to, value) */\n    tag_301:\n      mload(0x40)\n      dup1\n      swap2\n      sub\n      swap1\n      log3\n        /* \"@openzeppelin/contracts/token/ERC20/ERC20.sol\":5912:7019  function _update(address from, address to, uint256 value) internal virtual {... */\n      pop\n      pop\n      pop\n      jump\t// out\n        /* \"#utility.yul\":14:300   */\n    tag_32:\n        /* \"#utility.yul\":72:78   */\n      0x00\n        /* \"#utility.yul\":125:127   */\n      0x20\n        /* \"#utility.yul\":113:122   */\n      dup3\n        /* \"#utility.yul\":104:111   */\n      dup5\n        /* \"#utility.yul\":100:123   */\n      sub\n        /* \"#utility.yul\":96:128   */\n      slt\n        /* \"#utility.yul\":93:145   */\n      iszero\n      tag_306\n      jumpi\n        /* \"#utility.yul\":141:142   */\n      0x00\n        /* \"#utility.yul\":138:139   */\n      dup1\n        /* \"#utility.yul\":131:143   */\n      revert\n        /* \"#utility.yul\":93:145   */\n    tag_306:\n        /* \"#utility.yul\":167:190   */\n      dup2\n      calldataload\n      not(sub(shl(0xe0, 0x01), 0x01))\n        /* \"#utility.yul\":219:251   */\n      dup2\n      and\n        /* \"#utility.yul\":209:252   */\n      dup2\n      eq\n        /* \"#utility.yul\":199:270   */\n      tag_307\n      jumpi\n        /* \"#utility.yul\":266:267   */\n      0x00\n        /* \"#utility.yul\":263:264   */\n      dup1\n        /* \"#utility.yul\":256:268   */\n      revert\n        /* \"#utility.yul\":199:270   */\n    tag_307:\n        /* \"#utility.yul\":289:294   */\n      swap4\n        /* \"#utility.yul\":14:300   */\n      swap3\n      pop\n      pop\n      pop\n      jump\t// out\n        /* \"#utility.yul\":497:1045   */\n    tag_39:\n        /* \"#utility.yul\":609:613   */\n      0x00\n        /* \"#utility.yul\":638:640   */\n      0x20\n        /* \"#utility.yul\":667:669   */\n      dup1\n        /* \"#utility.yul\":656:665   */\n      dup4\n        /* \"#utility.yul\":649:670   */\n      mstore\n        /* \"#utility.yul\":699:705   */\n      dup4\n        /* \"#utility.yul\":693:706   */\n      mload\n        /* \"#utility.yul\":742:748   */\n      dup1\n        /* \"#utility.yul\":737:739   */\n      dup3\n        /* \"#utility.yul\":726:735   */\n      dup6\n        /* \"#utility.yul\":722:740   */\n      add\n        /* \"#utility.yul\":715:749   */\n      mstore\n        /* \"#utility.yul\":767:768   */\n      0x00\n        /* \"#utility.yul\":777:917   */\n    tag_310:\n        /* \"#utility.yul\":791:797   */\n      dup2\n        /* \"#utility.yul\":788:789   */\n      dup2\n        /* \"#utility.yul\":785:798   */\n      lt\n        /* \"#utility.yul\":777:917   */\n      iszero\n      tag_312\n      jumpi\n        /* \"#utility.yul\":886:900   */\n      dup6\n      dup2\n      add\n        /* \"#utility.yul\":882:905   */\n      dup4\n      add\n        /* \"#utility.yul\":876:906   */\n      mload\n        /* \"#utility.yul\":852:869   */\n      dup6\n      dup3\n      add\n        /* \"#utility.yul\":871:873   */\n      0x40\n        /* \"#utility.yul\":848:874   */\n      add\n        /* \"#utility.yul\":841:907   */\n      mstore\n        /* \"#utility.yul\":806:816   */\n      dup3\n      add\n        /* \"#utility.yul\":777:917   */\n      jump(tag_310)\n    tag_312:\n        /* \"#utility.yul\":781:784   */\n      pop\n        /* \"#utility.yul\":966:967   */\n      0x00\n        /* \"#utility.yul\":961:963   */\n      0x40\n        /* \"#utility.yul\":952:958   */\n      dup3\n        /* \"#utility.yul\":941:950   */\n      dup7\n        /* \"#utility.yul\":937:959   */\n      add\n        /* \"#utility.yul\":933:964   */\n      add\n        /* \"#utility.yul\":926:968   */\n      mstore\n        /* \"#utility.yul\":1036:1038   */\n      0x40\n        /* \"#utility.yul\":1029:1031   */\n      0x1f\n        /* \"#utility.yul\":1025:1032   */\n      not\n        /* \"#utility.yul\":1020:1022   */\n      0x1f\n        /* \"#utility.yul\":1012:1018   */\n      dup4\n        /* \"#utility.yul\":1008:1023   */\n      add\n        /* \"#utility.yul\":1004:1033   */\n      and\n        /* \"#utility.yul\":993:1002   */\n      dup6\n        /* \"#utility.yul\":989:1034   */\n      add\n        /* \"#utility.yul\":985:1039   */\n      add\n        /* \"#utility.yul\":977:1039   */\n      swap3\n      pop\n      pop\n      pop\n        /* \"#utility.yul\":497:1045   */\n      swap3\n      swap2\n      pop\n      pop\n      jump\t// out\n        /* \"#utility.yul\":1050:1223   */\n    tag_302:\n        /* \"#utility.yul\":1118:1138   */\n      dup1\n      calldataload\n      sub(shl(0xa0, 0x01), 0x01)\n        /* \"#utility.yul\":1167:1198   */\n      dup2\n      and\n        /* \"#utility.yul\":1157:1199   */\n      dup2\n      eq\n        /* \"#utility.yul\":1147:1217   */\n      tag_314\n      jumpi\n        /* \"#utility.yul\":1213:1214   */\n      0x00\n        /* \"#utility.yul\":1210:1211   */\n      dup1\n        /* \"#utility.yul\":1203:1215   */\n      revert\n        /* \"#utility.yul\":1147:1217   */\n    tag_314:\n        /* \"#utility.yul\":1050:1223   */\n      swap2\n      swap1\n      pop\n      jump\t// out\n        /* \"#utility.yul\":1228:1482   */\n    tag_42:\n        /* \"#utility.yul\":1296:1302   */\n      0x00\n        /* \"#utility.yul\":1304:1310   */\n      dup1\n        /* \"#utility.yul\":1357:1359   */\n      0x40\n        /* \"#utility.yul\":1345:1354   */\n      dup4\n        /* \"#utility.yul\":1336:1343   */\n      dup6\n        /* \"#utility.yul\":1332:1355   */\n      sub\n        /* \"#utility.yul\":1328:1360   */\n      slt\n        /* \"#utility.yul\":1325:1377   */\n      iszero\n      tag_316\n      jumpi\n        /* \"#utility.yul\":1373:1374   */\n      0x00\n        /* \"#utility.yul\":1370:1371   */\n      dup1\n        /* \"#utility.yul\":1363:1375   */\n      revert\n        /* \"#utility.yul\":1325:1377   */\n    tag_316:\n        /* \"#utility.yul\":1396:1425   */\n      tag_317\n        /* \"#utility.yul\":1415:1424   */\n      dup4\n        /* \"#utility.yul\":1396:1425   */\n      tag_302\n      jump\t// in\n    tag_317:\n        /* \"#utility.yul\":1386:1425   */\n      swap5\n        /* \"#utility.yul\":1472:1474   */\n      0x20\n        /* \"#utility.yul\":1457:1475   */\n      swap4\n      swap1\n      swap4\n      add\n        /* \"#utility.yul\":1444:1476   */\n      calldataload\n      swap4\n      pop\n      pop\n      pop\n        /* \"#utility.yul\":1228:1482   */\n      jump\t// out\n        /* \"#utility.yul\":1669:1997   */\n    tag_51:\n        /* \"#utility.yul\":1746:1752   */\n      0x00\n        /* \"#utility.yul\":1754:1760   */\n      dup1\n        /* \"#utility.yul\":1762:1768   */\n      0x00\n        /* \"#utility.yul\":1815:1817   */\n      0x60\n        /* \"#utility.yul\":1803:1812   */\n      dup5\n        /* \"#utility.yul\":1794:1801   */\n      dup7\n        /* \"#utility.yul\":1790:1813   */\n      sub\n        /* \"#utility.yul\":1786:1818   */\n      slt\n        /* \"#utility.yul\":1783:1835   */\n      iszero\n      tag_320\n      jumpi\n        /* \"#utility.yul\":1831:1832   */\n      0x00\n        /* \"#utility.yul\":1828:1829   */\n      dup1\n        /* \"#utility.yul\":1821:1833   */\n      revert\n        /* \"#utility.yul\":1783:1835   */\n    tag_320:\n        /* \"#utility.yul\":1854:1883   */\n      tag_321\n        /* \"#utility.yul\":1873:1882   */\n      dup5\n        /* \"#utility.yul\":1854:1883   */\n      tag_302\n      jump\t// in\n    tag_321:\n        /* \"#utility.yul\":1844:1883   */\n      swap3\n      pop\n        /* \"#utility.yul\":1902:1940   */\n      tag_322\n        /* \"#utility.yul\":1936:1938   */\n      0x20\n        /* \"#utility.yul\":1925:1934   */\n      dup6\n        /* \"#utility.yul\":1921:1939   */\n      add\n        /* \"#utility.yul\":1902:1940   */\n      tag_302\n      jump\t// in\n    tag_322:\n        /* \"#utility.yul\":1892:1940   */\n      swap2\n      pop\n        /* \"#utility.yul\":1987:1989   */\n      0x40\n        /* \"#utility.yul\":1976:1985   */\n      dup5\n        /* \"#utility.yul\":1972:1990   */\n      add\n        /* \"#utility.yul\":1959:1991   */\n      calldataload\n        /* \"#utility.yul\":1949:1991   */\n      swap1\n      pop\n        /* \"#utility.yul\":1669:1997   */\n      swap3\n      pop\n      swap3\n      pop\n      swap3\n      jump\t// out\n        /* \"#utility.yul\":2002:2182   */\n    tag_56:\n        /* \"#utility.yul\":2061:2067   */\n      0x00\n        /* \"#utility.yul\":2114:2116   */\n      0x20\n        /* \"#utility.yul\":2102:2111   */\n      dup3\n        /* \"#utility.yul\":2093:2100   */\n      dup5\n        /* \"#utility.yul\":2089:2112   */\n      sub\n        /* \"#utility.yul\":2085:2117   */\n      slt\n        /* \"#utility.yul\":2082:2134   */\n      iszero\n      tag_324\n      jumpi\n        /* \"#utility.yul\":2130:2131   */\n      0x00\n        /* \"#utility.yul\":2127:2128   */\n      dup1\n        /* \"#utility.yul\":2120:2132   */\n      revert\n        /* \"#utility.yul\":2082:2134   */\n    tag_324:\n      pop\n        /* \"#utility.yul\":2153:2176   */\n      calldataload\n      swap2\n        /* \"#utility.yul\":2002:2182   */\n      swap1\n      pop\n      jump\t// out\n        /* \"#utility.yul\":2369:2623   */\n    tag_65:\n        /* \"#utility.yul\":2437:2443   */\n      0x00\n        /* \"#utility.yul\":2445:2451   */\n      dup1\n        /* \"#utility.yul\":2498:2500   */\n      0x40\n        /* \"#utility.yul\":2486:2495   */\n      dup4\n        /* \"#utility.yul\":2477:2484   */\n      dup6\n        /* \"#utility.yul\":2473:2496   */\n      sub\n        /* \"#utility.yul\":2469:2501   */\n      slt\n        /* \"#utility.yul\":2466:2518   */\n      iszero\n      tag_327\n      jumpi\n        /* \"#utility.yul\":2514:2515   */\n      0x00\n        /* \"#utility.yul\":2511:2512   */\n      dup1\n        /* \"#utility.yul\":2504:2516   */\n      revert\n        /* \"#utility.yul\":2466:2518   */\n    tag_327:\n        /* \"#utility.yul\":2550:2559   */\n      dup3\n        /* \"#utility.yul\":2537:2560   */\n      calldataload\n        /* \"#utility.yul\":2527:2560   */\n      swap2\n      pop\n        /* \"#utility.yul\":2579:2617   */\n      tag_328\n        /* \"#utility.yul\":2613:2615   */\n      0x20\n        /* \"#utility.yul\":2602:2611   */\n      dup5\n        /* \"#utility.yul\":2598:2616   */\n      add\n        /* \"#utility.yul\":2579:2617   */\n      tag_302\n      jump\t// in\n    tag_328:\n        /* \"#utility.yul\":2569:2617   */\n      swap1\n      pop\n        /* \"#utility.yul\":2369:2623   */\n      swap3\n      pop\n      swap3\n      swap1\n      pop\n      jump\t// out\n        /* \"#utility.yul\":2817:3003   */\n    tag_79:\n        /* \"#utility.yul\":2876:2882   */\n      0x00\n        /* \"#utility.yul\":2929:2931   */\n      0x20\n        /* \"#utility.yul\":2917:2926   */\n      dup3\n        /* \"#utility.yul\":2908:2915   */\n      dup5\n        /* \"#utility.yul\":2904:2927   */\n      sub\n        /* \"#utility.yul\":2900:2932   */\n      slt\n        /* \"#utility.yul\":2897:2949   */\n      iszero\n      tag_331\n      jumpi\n        /* \"#utility.yul\":2945:2946   */\n      0x00\n        /* \"#utility.yul\":2942:2943   */\n      dup1\n        /* \"#utility.yul\":2935:2947   */\n      revert\n        /* \"#utility.yul\":2897:2949   */\n    tag_331:\n        /* \"#utility.yul\":2968:2997   */\n      tag_307\n        /* \"#utility.yul\":2987:2996   */\n      dup3\n        /* \"#utility.yul\":2968:2997   */\n      tag_302\n      jump\t// in\n        /* \"#utility.yul\":3008:3126   */\n    tag_303:\n        /* \"#utility.yul\":3094:3099   */\n      dup1\n        /* \"#utility.yul\":3087:3100   */\n      iszero\n        /* \"#utility.yul\":3080:3101   */\n      iszero\n        /* \"#utility.yul\":3073:3078   */\n      dup2\n        /* \"#utility.yul\":3070:3102   */\n      eq\n        /* \"#utility.yul\":3060:3120   */\n      tag_245\n      jumpi\n        /* \"#utility.yul\":3116:3117   */\n      0x00\n        /* \"#utility.yul\":3113:3114   */\n      dup1\n        /* \"#utility.yul\":3106:3118   */\n      revert\n        /* \"#utility.yul\":3131:3446   */\n    tag_107:\n        /* \"#utility.yul\":3196:3202   */\n      0x00\n        /* \"#utility.yul\":3204:3210   */\n      dup1\n        /* \"#utility.yul\":3257:3259   */\n      0x40\n        /* \"#utility.yul\":3245:3254   */\n      dup4\n        /* \"#utility.yul\":3236:3243   */\n      dup6\n        /* \"#utility.yul\":3232:3255   */\n      sub\n        /* \"#utility.yul\":3228:3260   */\n      slt\n        /* \"#utility.yul\":3225:3277   */\n      iszero\n      tag_336\n      jumpi\n        /* \"#utility.yul\":3273:3274   */\n      0x00\n        /* \"#utility.yul\":3270:3271   */\n      dup1\n        /* \"#utility.yul\":3263:3275   */\n      revert\n        /* \"#utility.yul\":3225:3277   */\n    tag_336:\n        /* \"#utility.yul\":3296:3325   */\n      tag_337\n        /* \"#utility.yul\":3315:3324   */\n      dup4\n        /* \"#utility.yul\":3296:3325   */\n      tag_302\n      jump\t// in\n    tag_337:\n        /* \"#utility.yul\":3286:3325   */\n      swap2\n      pop\n        /* \"#utility.yul\":3375:3377   */\n      0x20\n        /* \"#utility.yul\":3364:3373   */\n      dup4\n        /* \"#utility.yul\":3360:3378   */\n      add\n        /* \"#utility.yul\":3347:3379   */\n      calldataload\n        /* \"#utility.yul\":3388:3416   */\n      tag_338\n        /* \"#utility.yul\":3410:3415   */\n      dup2\n        /* \"#utility.yul\":3388:3416   */\n      tag_303\n      jump\t// in\n    tag_338:\n        /* \"#utility.yul\":3435:3440   */\n      dup1\n        /* \"#utility.yul\":3425:3440   */\n      swap2\n      pop\n      pop\n        /* \"#utility.yul\":3131:3446   */\n      swap3\n      pop\n      swap3\n      swap1\n      pop\n      jump\t// out\n        /* \"#utility.yul\":3451:3711   */\n    tag_121:\n        /* \"#utility.yul\":3519:3525   */\n      0x00\n        /* \"#utility.yul\":3527:3533   */\n      dup1\n        /* \"#utility.yul\":3580:3582   */\n      0x40\n        /* \"#utility.yul\":3568:3577   */\n      dup4\n        /* \"#utility.yul\":3559:3566   */\n      dup6\n        /* \"#utility.yul\":3555:3578   */\n      sub\n        /* \"#utility.yul\":3551:3583   */\n      slt\n        /* \"#utility.yul\":3548:3600   */\n      iszero\n      tag_340\n      jumpi\n        /* \"#utility.yul\":3596:3597   */\n      0x00\n        /* \"#utility.yul\":3593:3594   */\n      dup1\n        /* \"#utility.yul\":3586:3598   */\n      revert\n        /* \"#utility.yul\":3548:3600   */\n    tag_340:\n        /* \"#utility.yul\":3619:3648   */\n      tag_341\n        /* \"#utility.yul\":3638:3647   */\n      dup4\n        /* \"#utility.yul\":3619:3648   */\n      tag_302\n      jump\t// in\n    tag_341:\n        /* \"#utility.yul\":3609:3648   */\n      swap2\n      pop\n        /* \"#utility.yul\":3667:3705   */\n      tag_328\n        /* \"#utility.yul\":3701:3703   */\n      0x20\n        /* \"#utility.yul\":3690:3699   */\n      dup5\n        /* \"#utility.yul\":3686:3704   */\n      add\n        /* \"#utility.yul\":3667:3705   */\n      tag_302\n      jump\t// in\n        /* \"#utility.yul\":3716:4096   */\n    tag_130:\n        /* \"#utility.yul\":3795:3796   */\n      0x01\n        /* \"#utility.yul\":3791:3803   */\n      dup2\n      dup2\n      shr\n      swap1\n        /* \"#utility.yul\":3838:3850   */\n      dup3\n      and\n      dup1\n        /* \"#utility.yul\":3859:3920   */\n      tag_344\n      jumpi\n        /* \"#utility.yul\":3913:3917   */\n      0x7f\n        /* \"#utility.yul\":3905:3911   */\n      dup3\n        /* \"#utility.yul\":3901:3918   */\n      and\n        /* \"#utility.yul\":3891:3918   */\n      swap2\n      pop\n        /* \"#utility.yul\":3859:3920   */\n    tag_344:\n        /* \"#utility.yul\":3966:3968   */\n      0x20\n        /* \"#utility.yul\":3958:3964   */\n      dup3\n        /* \"#utility.yul\":3955:3969   */\n      lt\n        /* \"#utility.yul\":3935:3953   */\n      dup2\n        /* \"#utility.yul\":3932:3970   */\n      sub\n        /* \"#utility.yul\":3929:4090   */\n      tag_345\n      jumpi\n        /* \"#utility.yul\":4012:4022   */\n      0x4e487b71\n        /* \"#utility.yul\":4007:4010   */\n      0xe0\n        /* \"#utility.yul\":4003:4023   */\n      shl\n        /* \"#utility.yul\":4000:4001   */\n      0x00\n        /* \"#utility.yul\":3993:4024   */\n      mstore\n        /* \"#utility.yul\":4047:4051   */\n      0x22\n        /* \"#utility.yul\":4044:4045   */\n      0x04\n        /* \"#utility.yul\":4037:4052   */\n      mstore\n        /* \"#utility.yul\":4075:4079   */\n      0x24\n        /* \"#utility.yul\":4072:4073   */\n      0x00\n        /* \"#utility.yul\":4065:4080   */\n      revert\n        /* \"#utility.yul\":3929:4090   */\n    tag_345:\n      pop\n        /* \"#utility.yul\":3716:4096   */\n      swap2\n      swap1\n      pop\n      jump\t// out\n        /* \"#utility.yul\":5413:5658   */\n    tag_212:\n        /* \"#utility.yul\":5480:5486   */\n      0x00\n        /* \"#utility.yul\":5533:5535   */\n      0x20\n        /* \"#utility.yul\":5521:5530   */\n      dup3\n        /* \"#utility.yul\":5512:5519   */\n      dup5\n        /* \"#utility.yul\":5508:5531   */\n      sub\n        /* \"#utility.yul\":5504:5536   */\n      slt\n        /* \"#utility.yul\":5501:5553   */\n      iszero\n      tag_351\n      jumpi\n        /* \"#utility.yul\":5549:5550   */\n      0x00\n        /* \"#utility.yul\":5546:5547   */\n      dup1\n        /* \"#utility.yul\":5539:5551   */\n      revert\n        /* \"#utility.yul\":5501:5553   */\n    tag_351:\n        /* \"#utility.yul\":5581:5590   */\n      dup2\n        /* \"#utility.yul\":5575:5591   */\n      mload\n        /* \"#utility.yul\":5600:5628   */\n      tag_307\n        /* \"#utility.yul\":5622:5627   */\n      dup2\n        /* \"#utility.yul\":5600:5628   */\n      tag_303\n      jump\t// in\n        /* \"#utility.yul\":7196:7418   */\n    tag_295:\n        /* \"#utility.yul\":7261:7270   */\n      dup1\n      dup3\n      add\n        /* \"#utility.yul\":7282:7292   */\n      dup1\n      dup3\n      gt\n        /* \"#utility.yul\":7279:7412   */\n      iszero\n      tag_126\n      jumpi\n        /* \"#utility.yul\":7334:7344   */\n      0x4e487b71\n        /* \"#utility.yul\":7329:7332   */\n      0xe0\n        /* \"#utility.yul\":7325:7345   */\n      shl\n        /* \"#utility.yul\":7322:7323   */\n      0x00\n        /* \"#utility.yul\":7315:7346   */\n      mstore\n        /* \"#utility.yul\":7369:7373   */\n      0x11\n        /* \"#utility.yul\":7366:7367   */\n      0x04\n        /* \"#utility.yul\":7359:7374   */\n      mstore\n        /* \"#utility.yul\":7397:7401   */\n      0x24\n        /* \"#utility.yul\":7394:7395   */\n      0x00\n        /* \"#utility.yul\":7387:7402   */\n      revert\n\n    auxdata: 0xa2646970667358221220186e7dcb9596dff7908a8d295bd6c0c2acbb99b372c523cf464d38559a226c7664736f6c63430008140033\n}\n",
				"bytecode": {
					"linkReferences": {},
					"object": "608060405234801562000010575f80fd5b50604051620016dd380380620016dd8339810160408190526200003391620004d1565b6040518060400160405280600b81526020016a494e523120537461626c6560a81b81525060405180604001604052806004815260200163494e523160e01b81525081600390816200008591906200059f565b5060046200009482826200059f565b50506001600655506001600160a01b038116620000e55760405162461bcd60e51b815260206004820152600a6024820152692d32b9379030b236b4b760b11b60448201526064015b60405180910390fd5b620000f15f82620001bb565b506200011e7f9f2df0fed2c77648de5860a4cc508cd0818c85b8b8a1ab4ceeef8d981c8956a682620001bb565b506200014b7f3c11d16cbaffd01df69ce1c404f6340ee057498f5f00246190ea54220576a84882620001bb565b5062000164816b1363156bbee3016d700000006200026b565b806001600160a01b03167f30385c845b448a36257a6a1716e6ad2e1bc2cbe333cde1e69fe849ad6511adfe6b1363156bbee3016d70000000604051620001ac91815260200190565b60405180910390a25062000687565b5f8281526005602090815260408083206001600160a01b038516845290915281205460ff1662000262575f8381526005602090815260408083206001600160a01b03861684529091529020805460ff19166001179055620002193390565b6001600160a01b0316826001600160a01b0316847f2f8788117e7eff1d82e926ec794901d17c78024a50270940304540a733656f0d60405160405180910390a450600162000265565b505f5b92915050565b6001600160a01b038216620002965760405163ec442f0560e01b81525f6004820152602401620000dc565b620002a35f8383620002a7565b5050565b6001600160a01b0383161562000316576001600160a01b0383165f9081526007602052604090205460ff1615620003165760405162461bcd60e51b815260206004820152601260248201527114d95b99195c88189b1858dadb1a5cdd195960721b6044820152606401620000dc565b6001600160a01b0382161562000390576001600160a01b0382165f9081526007602052604090205460ff1615620003905760405162461bcd60e51b815260206004820152601460248201527f526563656976657220626c61636b6c69737465640000000000000000000000006044820152606401620000dc565b6200039d838383620003a2565b505050565b6001600160a01b038316620003d0578060025f828254620003c4919062000667565b90915550620004429050565b6001600160a01b0383165f9081526020819052604090205481811015620004245760405163391434e360e21b81526001600160a01b03851660048201526024810182905260448101839052606401620000dc565b6001600160a01b0384165f9081526020819052604090209082900390555b6001600160a01b03821662000460576002805482900390556200047e565b6001600160a01b0382165f9081526020819052604090208054820190555b816001600160a01b0316836001600160a01b03167fddf252ad1be2c89b69c2b068fc378daa952ba7f163c4a11628f55a4df523b3ef83604051620004c491815260200190565b60405180910390a3505050565b5f60208284031215620004e2575f80fd5b81516001600160a01b0381168114620004f9575f80fd5b9392505050565b634e487b7160e01b5f52604160045260245ffd5b600181811c908216806200052957607f821691505b6020821081036200054857634e487b7160e01b5f52602260045260245ffd5b50919050565b601f8211156200039d575f81815260208120601f850160051c81016020861015620005765750805b601f850160051c820191505b81811015620005975782815560010162000582565b505050505050565b81516001600160401b03811115620005bb57620005bb62000500565b620005d381620005cc845462000514565b846200054e565b602080601f83116001811462000609575f8415620005f15750858301515b5f19600386901b1c1916600185901b17855562000597565b5f85815260208120601f198616915b82811015620006395788860151825594840194600190910190840162000618565b50858210156200065757878501515f19600388901b60f8161c191681555b5050505050600190811b01905550565b808201808211156200026557634e487b7160e01b5f52601160045260245ffd5b61104880620006955f395ff3fe608060405234801561000f575f80fd5b5060043610610153575f3560e01c806375b238fc116100bf578063b2118a8d11610079578063b2118a8d146102cf578063d01dd6d2146102e2578063d5391393146102f5578063d547741f1461031c578063dbac26e91461032f578063dd62ed3e14610351575f80fd5b806375b238fc1461028757806391d148541461028e57806395d89b41146102a15780639dc29fac146102a9578063a217fddf14610287578063a9059cbb146102bc575f80fd5b8063282c51f311610110578063282c51f3146101ee5780632f2ff15d14610215578063313ce5671461022a57806336568abe1461023957806340c10f191461024c57806370a082311461025f575f80fd5b806301ffc9a71461015757806306fdde031461017f578063095ea7b31461019457806318160ddd146101a757806323b872dd146101b9578063248a9ca3146101cc575b5f80fd5b61016a610165366004610de7565b610389565b60405190151581526020015b60405180910390f35b6101876103bf565b6040516101769190610e15565b61016a6101a2366004610e7b565b61044f565b6002545b604051908152602001610176565b61016a6101c7366004610ea3565b610466565b6101ab6101da366004610edc565b5f9081526005602052604090206001015490565b6101ab7f3c11d16cbaffd01df69ce1c404f6340ee057498f5f00246190ea54220576a84881565b610228610223366004610ef3565b610489565b005b60405160128152602001610176565b610228610247366004610ef3565b6104b3565b61022861025a366004610e7b565b6104eb565b6101ab61026d366004610f1d565b6001600160a01b03165f9081526020819052604090205490565b6101ab5f81565b61016a61029c366004610ef3565b6105dc565b610187610606565b6102286102b7366004610e7b565b610615565b61016a6102ca366004610e7b565b61069e565b6102286102dd366004610ea3565b6106ab565b6102286102f0366004610f43565b6107c5565b6101ab7f9f2df0fed2c77648de5860a4cc508cd0818c85b8b8a1ab4ceeef8d981c8956a681565b61022861032a366004610ef3565b61082e565b61016a61033d366004610f1d565b60076020525f908152604090205460ff1681565b6101ab61035f366004610f78565b6001600160a01b039182165f90815260016020908152604080832093909416825291909152205490565b5f6001600160e01b03198216637965db0b60e01b14806103b957506301ffc9a760e01b6001600160e01b03198316145b92915050565b6060600380546103ce90610fa0565b80601f01602080910402602001604051908101604052809291908181526020018280546103fa90610fa0565b80156104455780601f1061041c57610100808354040283529160200191610445565b820191905f5260205f20905b81548152906001019060200180831161042857829003601f168201915b5050505050905090565b5f3361045c818585610852565b5060019392505050565b5f3361047385828561085f565b61047e8585856108d5565b506001949350505050565b5f828152600560205260409020600101546104a381610932565b6104ad838361093f565b50505050565b6001600160a01b03811633146104dc5760405163334bd91960e11b815260040160405180910390fd5b6104e682826109d0565b505050565b7f9f2df0fed2c77648de5860a4cc508cd0818c85b8b8a1ab4ceeef8d981c8956a661051581610932565b6001600160a01b0383165f90815260076020526040902054839060ff161561057d5760405162461bcd60e51b81526020600482015260166024820152751058d8dbdd5b9d081a5cc8189b1858dadb1a5cdd195960521b60448201526064015b60405180910390fd5b610585610a3b565b61058f8484610a65565b836001600160a01b03167f30385c845b448a36257a6a1716e6ad2e1bc2cbe333cde1e69fe849ad6511adfe846040516105ca91815260200190565b60405180910390a26104ad6001600655565b5f9182526005602090815260408084206001600160a01b0393909316845291905290205460ff1690565b6060600480546103ce90610fa0565b7f3c11d16cbaffd01df69ce1c404f6340ee057498f5f00246190ea54220576a84861063f81610932565b610647610a3b565b6106518383610a9d565b826001600160a01b03167f696de425f79f4a40bc6d2122ca50507f0efbeabbff86a84871b7196ab8ea8df78360405161068c91815260200190565b60405180910390a26104e66001600655565b5f3361045c8185856108d5565b5f6106b581610932565b6106bd610a3b565b306001600160a01b0385160361070a5760405162461bcd60e51b815260206004820152601260248201527143616e6e6f742072657363756520494e523160701b6044820152606401610574565b6001600160a01b03831661074a5760405162461bcd60e51b81526020600482015260076024820152665a65726f20746f60c81b6044820152606401610574565b60405163a9059cbb60e01b81526001600160a01b0384811660048301526024820184905285169063a9059cbb906044016020604051808303815f875af1158015610796573d5f803e3d5ffd5b505050506040513d601f19601f820116820180604052508101906107ba9190610fd8565b506104ad6001600655565b5f6107cf81610932565b6001600160a01b0383165f81815260076020908152604091829020805460ff191686151590811790915591519182527fcf3473b85df1594d47b6958f29a32bea0abff9dd68296f7bf33443646793cfd8910160405180910390a2505050565b5f8281526005602052604090206001015461084881610932565b6104ad83836109d0565b6104e68383836001610ad1565b6001600160a01b038381165f908152600160209081526040808320938616835292905220545f198110156104ad57818110156108c757604051637dc7a0d960e11b81526001600160a01b03841660048201526024810182905260448101839052606401610574565b6104ad84848484035f610ad1565b6001600160a01b0383166108fe57604051634b637e8f60e11b81525f6004820152602401610574565b6001600160a01b0382166109275760405163ec442f0560e01b81525f6004820152602401610574565b6104e6838383610ba3565b61093c8133610c88565b50565b5f61094a83836105dc565b6109c9575f8381526005602090815260408083206001600160a01b03861684529091529020805460ff191660011790556109813390565b6001600160a01b0316826001600160a01b0316847f2f8788117e7eff1d82e926ec794901d17c78024a50270940304540a733656f0d60405160405180910390a45060016103b9565b505f6103b9565b5f6109db83836105dc565b156109c9575f8381526005602090815260408083206001600160a01b0386168085529252808320805460ff1916905551339286917ff6391f5c32d9c69d2a47ea670b442974b53935d1edc7fd64eb21e047a839171b9190a45060016103b9565b600260065403610a5e57604051633ee5aeb560e01b815260040160405180910390fd5b6002600655565b6001600160a01b038216610a8e5760405163ec442f0560e01b81525f6004820152602401610574565b610a995f8383610ba3565b5050565b6001600160a01b038216610ac657604051634b637e8f60e11b81525f6004820152602401610574565b610a99825f83610ba3565b6001600160a01b038416610afa5760405163e602df0560e01b81525f6004820152602401610574565b6001600160a01b038316610b2357604051634a1406b160e11b81525f6004820152602401610574565b6001600160a01b038085165f90815260016020908152604080832093871683529290522082905580156104ad57826001600160a01b0316846001600160a01b03167f8c5be1e5ebec7d5bd14f71427d1e84f3dd0314c0f7b2291e5b200ac8c7c3b92584604051610b9591815260200190565b60405180910390a350505050565b6001600160a01b03831615610c0f576001600160a01b0383165f9081526007602052604090205460ff1615610c0f5760405162461bcd60e51b815260206004820152601260248201527114d95b99195c88189b1858dadb1a5cdd195960721b6044820152606401610574565b6001600160a01b03821615610c7d576001600160a01b0382165f9081526007602052604090205460ff1615610c7d5760405162461bcd60e51b8152602060048201526014602482015273149958d95a5d995c88189b1858dadb1a5cdd195960621b6044820152606401610574565b6104e6838383610cc1565b610c9282826105dc565b610a995760405163e2517d3f60e01b81526001600160a01b038216600482015260248101839052604401610574565b6001600160a01b038316610ceb578060025f828254610ce09190610ff3565b90915550610d5b9050565b6001600160a01b0383165f9081526020819052604090205481811015610d3d5760405163391434e360e21b81526001600160a01b03851660048201526024810182905260448101839052606401610574565b6001600160a01b0384165f9081526020819052604090209082900390555b6001600160a01b038216610d7757600280548290039055610d95565b6001600160a01b0382165f9081526020819052604090208054820190555b816001600160a01b0316836001600160a01b03167fddf252ad1be2c89b69c2b068fc378daa952ba7f163c4a11628f55a4df523b3ef83604051610dda91815260200190565b60405180910390a3505050565b5f60208284031215610df7575f80fd5b81356001600160e01b031981168114610e0e575f80fd5b9392505050565b5f6020808352835180828501525f5b81811015610e4057858101830151858201604001528201610e24565b505f604082860101526040601f19601f8301168501019250505092915050565b80356001600160a01b0381168114610e76575f80fd5b919050565b5f8060408385031215610e8c575f80fd5b610e9583610e60565b946020939093013593505050565b5f805f60608486031215610eb5575f80fd5b610ebe84610e60565b9250610ecc60208501610e60565b9150604084013590509250925092565b5f60208284031215610eec575f80fd5b5035919050565b5f8060408385031215610f04575f80fd5b82359150610f1460208401610e60565b90509250929050565b5f60208284031215610f2d575f80fd5b610e0e82610e60565b801515811461093c575f80fd5b5f8060408385031215610f54575f80fd5b610f5d83610e60565b91506020830135610f6d81610f36565b809150509250929050565b5f8060408385031215610f89575f80fd5b610f9283610e60565b9150610f1460208401610e60565b600181811c90821680610fb457607f821691505b602082108103610fd257634e487b7160e01b5f52602260045260245ffd5b50919050565b5f60208284031215610fe8575f80fd5b8151610e0e81610f36565b808201808211156103b957634e487b7160e01b5f52601160045260245ffdfea2646970667358221220186e7dcb9596dff7908a8d295bd6c0c2acbb99b372c523cf464d38559a226c7664736f6c63430008140033",
					"opcodes": "PUSH1 0x80 PUSH1 0x40 MSTORE CALLVALUE DUP1 ISZERO PUSH3 0x10 JUMPI PUSH0 DUP1 REVERT JUMPDEST POP PUSH1 0x40 MLOAD PUSH3 0x16DD CODESIZE SUB DUP1 PUSH3 0x16DD DUP4 CODECOPY DUP2 ADD PUSH1 0x40 DUP2 SWAP1 MSTORE PUSH3 0x33 SWAP2 PUSH3 0x4D1 JUMP JUMPDEST PUSH1 0x40 MLOAD DUP1 PUSH1 0x40 ADD PUSH1 0x40 MSTORE DUP1 PUSH1 0xB DUP2 MSTORE PUSH1 0x20 ADD PUSH11 0x494E523120537461626C65 PUSH1 0xA8 SHL DUP2 MSTORE POP PUSH1 0x40 MLOAD DUP1 PUSH1 0x40 ADD PUSH1 0x40 MSTORE DUP1 PUSH1 0x4 DUP2 MSTORE PUSH1 0x20 ADD PUSH4 0x494E5231 PUSH1 0xE0 SHL DUP2 MSTORE POP DUP2 PUSH1 0x3 SWAP1 DUP2 PUSH3 0x85 SWAP2 SWAP1 PUSH3 0x59F JUMP JUMPDEST POP PUSH1 0x4 PUSH3 0x94 DUP3 DUP3 PUSH3 0x59F JUMP JUMPDEST POP POP PUSH1 0x1 PUSH1 0x6 SSTORE POP PUSH1 0x1 PUSH1 0x1 PUSH1 0xA0 SHL SUB DUP2 AND PUSH3 0xE5 JUMPI PUSH1 0x40 MLOAD PUSH3 0x461BCD PUSH1 0xE5 SHL DUP2 MSTORE PUSH1 0x20 PUSH1 0x4 DUP3 ADD MSTORE PUSH1 0xA PUSH1 0x24 DUP3 ADD MSTORE PUSH10 0x2D32B9379030B236B4B7 PUSH1 0xB1 SHL PUSH1 0x44 DUP3 ADD MSTORE PUSH1 0x64 ADD JUMPDEST PUSH1 0x40 MLOAD DUP1 SWAP2 SUB SWAP1 REVERT JUMPDEST PUSH3 0xF1 PUSH0 DUP3 PUSH3 0x1BB JUMP JUMPDEST POP PUSH3 0x11E PUSH32 0x9F2DF0FED2C77648DE5860A4CC508CD0818C85B8B8A1AB4CEEEF8D981C8956A6 DUP3 PUSH3 0x1BB JUMP JUMPDEST POP PUSH3 0x14B PUSH32 0x3C11D16CBAFFD01DF69CE1C404F6340EE057498F5F00246190EA54220576A848 DUP3 PUSH3 0x1BB JUMP JUMPDEST POP PUSH3 0x164 DUP2 PUSH12 0x1363156BBEE3016D70000000 PUSH3 0x26B JUMP JUMPDEST DUP1 PUSH1 0x1 PUSH1 0x1 PUSH1 0xA0 SHL SUB AND PUSH32 0x30385C845B448A36257A6A1716E6AD2E1BC2CBE333CDE1E69FE849AD6511ADFE PUSH12 0x1363156BBEE3016D70000000 PUSH1 0x40 MLOAD PUSH3 0x1AC SWAP2 DUP2 MSTORE PUSH1 0x20 ADD SWAP1 JUMP JUMPDEST PUSH1 0x40 MLOAD DUP1 SWAP2 SUB SWAP1 LOG2 POP PUSH3 0x687 JUMP JUMPDEST PUSH0 DUP3 DUP2 MSTORE PUSH1 0x5 PUSH1 0x20 SWAP1 DUP2 MSTORE PUSH1 0x40 DUP1 DUP4 KECCAK256 PUSH1 0x1 PUSH1 0x1 PUSH1 0xA0 SHL SUB DUP6 AND DUP5 MSTORE SWAP1 SWAP2 MSTORE DUP2 KECCAK256 SLOAD PUSH1 0xFF AND PUSH3 0x262 JUMPI PUSH0 DUP4 DUP2 MSTORE PUSH1 0x5 PUSH1 0x20 SWAP1 DUP2 MSTORE PUSH1 0x40 DUP1 DUP4 KECCAK256 PUSH1 0x1 PUSH1 0x1 PUSH1 0xA0 SHL SUB DUP7 AND DUP5 MSTORE SWAP1 SWAP2 MSTORE SWAP1 KECCAK256 DUP1 SLOAD PUSH1 0xFF NOT AND PUSH1 0x1 OR SWAP1 SSTORE PUSH3 0x219 CALLER SWAP1 JUMP JUMPDEST PUSH1 0x1 PUSH1 0x1 PUSH1 0xA0 SHL SUB AND DUP3 PUSH1 0x1 PUSH1 0x1 PUSH1 0xA0 SHL SUB AND DUP5 PUSH32 0x2F8788117E7EFF1D82E926EC794901D17C78024A50270940304540A733656F0D PUSH1 0x40 MLOAD PUSH1 0x40 MLOAD DUP1 SWAP2 SUB SWAP1 LOG4 POP PUSH1 0x1 PUSH3 0x265 JUMP JUMPDEST POP PUSH0 JUMPDEST SWAP3 SWAP2 POP POP JUMP JUMPDEST PUSH1 0x1 PUSH1 0x1 PUSH1 0xA0 SHL SUB DUP3 AND PUSH3 0x296 JUMPI PUSH1 0x40 MLOAD PUSH4 0xEC442F05 PUSH1 0xE0 SHL DUP2 MSTORE PUSH0 PUSH1 0x4 DUP3 ADD MSTORE PUSH1 0x24 ADD PUSH3 0xDC JUMP JUMPDEST PUSH3 0x2A3 PUSH0 DUP4 DUP4 PUSH3 0x2A7 JUMP JUMPDEST POP POP JUMP JUMPDEST PUSH1 0x1 PUSH1 0x1 PUSH1 0xA0 SHL SUB DUP4 AND ISZERO PUSH3 0x316 JUMPI PUSH1 0x1 PUSH1 0x1 PUSH1 0xA0 SHL SUB DUP4 AND PUSH0 SWAP1 DUP2 MSTORE PUSH1 0x7 PUSH1 0x20 MSTORE PUSH1 0x40 SWAP1 KECCAK256 SLOAD PUSH1 0xFF AND ISZERO PUSH3 0x316 JUMPI PUSH1 0x40 MLOAD PUSH3 0x461BCD PUSH1 0xE5 SHL DUP2 MSTORE PUSH1 0x20 PUSH1 0x4 DUP3 ADD MSTORE PUSH1 0x12 PUSH1 0x24 DUP3 ADD MSTORE PUSH18 0x14D95B99195C88189B1858DADB1A5CDD1959 PUSH1 0x72 SHL PUSH1 0x44 DUP3 ADD MSTORE PUSH1 0x64 ADD PUSH3 0xDC JUMP JUMPDEST PUSH1 0x1 PUSH1 0x1 PUSH1 0xA0 SHL SUB DUP3 AND ISZERO PUSH3 0x390 JUMPI PUSH1 0x1 PUSH1 0x1 PUSH1 0xA0 SHL SUB DUP3 AND PUSH0 SWAP1 DUP2 MSTORE PUSH1 0x7 PUSH1 0x20 MSTORE PUSH1 0x40 SWAP1 KECCAK256 SLOAD PUSH1 0xFF AND ISZERO PUSH3 0x390 JUMPI PUSH1 0x40 MLOAD PUSH3 0x461BCD PUSH1 0xE5 SHL DUP2 MSTORE PUSH1 0x20 PUSH1 0x4 DUP3 ADD MSTORE PUSH1 0x14 PUSH1 0x24 DUP3 ADD MSTORE PUSH32 0x526563656976657220626C61636B6C6973746564000000000000000000000000 PUSH1 0x44 DUP3 ADD MSTORE PUSH1 0x64 ADD PUSH3 0xDC JUMP JUMPDEST PUSH3 0x39D DUP4 DUP4 DUP4 PUSH3 0x3A2 JUMP JUMPDEST POP POP POP JUMP JUMPDEST PUSH1 0x1 PUSH1 0x1 PUSH1 0xA0 SHL SUB DUP4 AND PUSH3 0x3D0 JUMPI DUP1 PUSH1 0x2 PUSH0 DUP3 DUP3 SLOAD PUSH3 0x3C4 SWAP2 SWAP1 PUSH3 0x667 JUMP JUMPDEST SWAP1 SWAP2 SSTORE POP PUSH3 0x442 SWAP1 POP JUMP JUMPDEST PUSH1 0x1 PUSH1 0x1 PUSH1 0xA0 SHL SUB DUP4 AND PUSH0 SWAP1 DUP2 MSTORE PUSH1 0x20 DUP2 SWAP1 MSTORE PUSH1 0x40 SWAP1 KECCAK256 SLOAD DUP2 DUP2 LT ISZERO PUSH3 0x424 JUMPI PUSH1 0x40 MLOAD PUSH4 0x391434E3 PUSH1 0xE2 SHL DUP2 MSTORE PUSH1 0x1 PUSH1 0x1 PUSH1 0xA0 SHL SUB DUP6 AND PUSH1 0x4 DUP3 ADD MSTORE PUSH1 0x24 DUP2 ADD DUP3 SWAP1 MSTORE PUSH1 0x44 DUP2 ADD DUP4 SWAP1 MSTORE PUSH1 0x64 ADD PUSH3 0xDC JUMP JUMPDEST PUSH1 0x1 PUSH1 0x1 PUSH1 0xA0 SHL SUB DUP5 AND PUSH0 SWAP1 DUP2 MSTORE PUSH1 0x20 DUP2 SWAP1 MSTORE PUSH1 0x40 SWAP1 KECCAK256 SWAP1 DUP3 SWAP1 SUB SWAP1 SSTORE JUMPDEST PUSH1 0x1 PUSH1 0x1 PUSH1 0xA0 SHL SUB DUP3 AND PUSH3 0x460 JUMPI PUSH1 0x2 DUP1 SLOAD DUP3 SWAP1 SUB SWAP1 SSTORE PUSH3 0x47E JUMP JUMPDEST PUSH1 0x1 PUSH1 0x1 PUSH1 0xA0 SHL SUB DUP3 AND PUSH0 SWAP1 DUP2 MSTORE PUSH1 0x20 DUP2 SWAP1 MSTORE PUSH1 0x40 SWAP1 KECCAK256 DUP1 SLOAD DUP3 ADD SWAP1 SSTORE JUMPDEST DUP2 PUSH1 0x1 PUSH1 0x1 PUSH1 0xA0 SHL SUB AND DUP4 PUSH1 0x1 PUSH1 0x1 PUSH1 0xA0 SHL SUB AND PUSH32 0xDDF252AD1BE2C89B69C2B068FC378DAA952BA7F163C4A11628F55A4DF523B3EF DUP4 PUSH1 0x40 MLOAD PUSH3 0x4C4 SWAP2 DUP2 MSTORE PUSH1 0x20 ADD SWAP1 JUMP JUMPDEST PUSH1 0x40 MLOAD DUP1 SWAP2 SUB SWAP1 LOG3 POP POP POP JUMP JUMPDEST PUSH0 PUSH1 0x20 DUP3 DUP5 SUB SLT ISZERO PUSH3 0x4E2 JUMPI PUSH0 DUP1 REVERT JUMPDEST DUP2 MLOAD PUSH1 0x1 PUSH1 0x1 PUSH1 0xA0 SHL SUB DUP2 AND DUP2 EQ PUSH3 0x4F9 JUMPI PUSH0 DUP1 REVERT JUMPDEST SWAP4 SWAP3 POP POP POP JUMP JUMPDEST PUSH4 0x4E487B71 PUSH1 0xE0 SHL PUSH0 MSTORE PUSH1 0x41 PUSH1 0x4 MSTORE PUSH1 0x24 PUSH0 REVERT JUMPDEST PUSH1 0x1 DUP2 DUP2 SHR SWAP1 DUP3 AND DUP1 PUSH3 0x529 JUMPI PUSH1 0x7F DUP3 AND SWAP2 POP JUMPDEST PUSH1 0x20 DUP3 LT DUP2 SUB PUSH3 0x548 JUMPI PUSH4 0x4E487B71 PUSH1 0xE0 SHL PUSH0 MSTORE PUSH1 0x22 PUSH1 0x4 MSTORE PUSH1 0x24 PUSH0 REVERT JUMPDEST POP SWAP2 SWAP1 POP JUMP JUMPDEST PUSH1 0x1F DUP3 GT ISZERO PUSH3 0x39D JUMPI PUSH0 DUP2 DUP2 MSTORE PUSH1 0x20 DUP2 KECCAK256 PUSH1 0x1F DUP6 ADD PUSH1 0x5 SHR DUP2 ADD PUSH1 0x20 DUP7 LT ISZERO PUSH3 0x576 JUMPI POP DUP1 JUMPDEST PUSH1 0x1F DUP6 ADD PUSH1 0x5 SHR DUP3 ADD SWAP2 POP JUMPDEST DUP2 DUP2 LT ISZERO PUSH3 0x597 JUMPI DUP3 DUP2 SSTORE PUSH1 0x1 ADD PUSH3 0x582 JUMP JUMPDEST POP POP POP POP POP POP JUMP JUMPDEST DUP2 MLOAD PUSH1 0x1 PUSH1 0x1 PUSH1 0x40 SHL SUB DUP2 GT ISZERO PUSH3 0x5BB JUMPI PUSH3 0x5BB PUSH3 0x500 JUMP JUMPDEST PUSH3 0x5D3 DUP2 PUSH3 0x5CC DUP5 SLOAD PUSH3 0x514 JUMP JUMPDEST DUP5 PUSH3 0x54E JUMP JUMPDEST PUSH1 0x20 DUP1 PUSH1 0x1F DUP4 GT PUSH1 0x1 DUP2 EQ PUSH3 0x609 JUMPI PUSH0 DUP5 ISZERO PUSH3 0x5F1 JUMPI POP DUP6 DUP4 ADD MLOAD JUMPDEST PUSH0 NOT PUSH1 0x3 DUP7 SWAP1 SHL SHR NOT AND PUSH1 0x1 DUP6 SWAP1 SHL OR DUP6 SSTORE PUSH3 0x597 JUMP JUMPDEST PUSH0 DUP6 DUP2 MSTORE PUSH1 0x20 DUP2 KECCAK256 PUSH1 0x1F NOT DUP7 AND SWAP2 JUMPDEST DUP3 DUP2 LT ISZERO PUSH3 0x639 JUMPI DUP9 DUP7 ADD MLOAD DUP3 SSTORE SWAP5 DUP5 ADD SWAP5 PUSH1 0x1 SWAP1 SWAP2 ADD SWAP1 DUP5 ADD PUSH3 0x618 JUMP JUMPDEST POP DUP6 DUP3 LT ISZERO PUSH3 0x657 JUMPI DUP8 DUP6 ADD MLOAD PUSH0 NOT PUSH1 0x3 DUP9 SWAP1 SHL PUSH1 0xF8 AND SHR NOT AND DUP2 SSTORE JUMPDEST POP POP POP POP POP PUSH1 0x1 SWAP1 DUP2 SHL ADD SWAP1 SSTORE POP JUMP JUMPDEST DUP1 DUP3 ADD DUP1 DUP3 GT ISZERO PUSH3 0x265 JUMPI PUSH4 0x4E487B71 PUSH1 0xE0 SHL PUSH0 MSTORE PUSH1 0x11 PUSH1 0x4 MSTORE PUSH1 0x24 PUSH0 REVERT JUMPDEST PUSH2 0x1048 DUP1 PUSH3 0x695 PUSH0 CODECOPY PUSH0 RETURN INVALID PUSH1 0x80 PUSH1 0x40 MSTORE CALLVALUE DUP1 ISZERO PUSH2 0xF JUMPI PUSH0 DUP1 REVERT JUMPDEST POP PUSH1 0x4 CALLDATASIZE LT PUSH2 0x153 JUMPI PUSH0 CALLDATALOAD PUSH1 0xE0 SHR DUP1 PUSH4 0x75B238FC GT PUSH2 0xBF JUMPI DUP1 PUSH4 0xB2118A8D GT PUSH2 0x79 JUMPI DUP1 PUSH4 0xB2118A8D EQ PUSH2 0x2CF JUMPI DUP1 PUSH4 0xD01DD6D2 EQ PUSH2 0x2E2 JUMPI DUP1 PUSH4 0xD5391393 EQ PUSH2 0x2F5 JUMPI DUP1 PUSH4 0xD547741F EQ PUSH2 0x31C JUMPI DUP1 PUSH4 0xDBAC26E9 EQ PUSH2 0x32F JUMPI DUP1 PUSH4 0xDD62ED3E EQ PUSH2 0x351 JUMPI PUSH0 DUP1 REVERT JUMPDEST DUP1 PUSH4 0x75B238FC EQ PUSH2 0x287 JUMPI DUP1 PUSH4 0x91D14854 EQ PUSH2 0x28E JUMPI DUP1 PUSH4 0x95D89B41 EQ PUSH2 0x2A1 JUMPI DUP1 PUSH4 0x9DC29FAC EQ PUSH2 0x2A9 JUMPI DUP1 PUSH4 0xA217FDDF EQ PUSH2 0x287 JUMPI DUP1 PUSH4 0xA9059CBB EQ PUSH2 0x2BC JUMPI PUSH0 DUP1 REVERT JUMPDEST DUP1 PUSH4 0x282C51F3 GT PUSH2 0x110 JUMPI DUP1 PUSH4 0x282C51F3 EQ PUSH2 0x1EE JUMPI DUP1 PUSH4 0x2F2FF15D EQ PUSH2 0x215 JUMPI DUP1 PUSH4 0x313CE567 EQ PUSH2 0x22A JUMPI DUP1 PUSH4 0x36568ABE EQ PUSH2 0x239 JUMPI DUP1 PUSH4 0x40C10F19 EQ PUSH2 0x24C JUMPI DUP1 PUSH4 0x70A08231 EQ PUSH2 0x25F JUMPI PUSH0 DUP1 REVERT JUMPDEST DUP1 PUSH4 0x1FFC9A7 EQ PUSH2 0x157 JUMPI DUP1 PUSH4 0x6FDDE03 EQ PUSH2 0x17F JUMPI DUP1 PUSH4 0x95EA7B3 EQ PUSH2 0x194 JUMPI DUP1 PUSH4 0x18160DDD EQ PUSH2 0x1A7 JUMPI DUP1 PUSH4 0x23B872DD EQ PUSH2 0x1B9 JUMPI DUP1 PUSH4 0x248A9CA3 EQ PUSH2 0x1CC JUMPI JUMPDEST PUSH0 DUP1 REVERT JUMPDEST PUSH2 0x16A PUSH2 0x165 CALLDATASIZE PUSH1 0x4 PUSH2 0xDE7 JUMP JUMPDEST PUSH2 0x389 JUMP JUMPDEST PUSH1 0x40 MLOAD SWAP1 ISZERO ISZERO DUP2 MSTORE PUSH1 0x20 ADD JUMPDEST PUSH1 0x40 MLOAD DUP1 SWAP2 SUB SWAP1 RETURN JUMPDEST PUSH2 0x187 PUSH2 0x3BF JUMP JUMPDEST PUSH1 0x40 MLOAD PUSH2 0x176 SWAP2 SWAP1 PUSH2 0xE15 JUMP JUMPDEST PUSH2 0x16A PUSH2 0x1A2 CALLDATASIZE PUSH1 0x4 PUSH2 0xE7B JUMP JUMPDEST PUSH2 0x44F JUMP JUMPDEST PUSH1 0x2 SLOAD JUMPDEST PUSH1 0x40 MLOAD SWAP1 DUP2 MSTORE PUSH1 0x20 ADD PUSH2 0x176 JUMP JUMPDEST PUSH2 0x16A PUSH2 0x1C7 CALLDATASIZE PUSH1 0x4 PUSH2 0xEA3 JUMP JUMPDEST PUSH2 0x466 JUMP JUMPDEST PUSH2 0x1AB PUSH2 0x1DA CALLDATASIZE PUSH1 0x4 PUSH2 0xEDC JUMP JUMPDEST PUSH0 SWAP1 DUP2 MSTORE PUSH1 0x5 PUSH1 0x20 MSTORE PUSH1 0x40 SWAP1 KECCAK256 PUSH1 0x1 ADD SLOAD SWAP1 JUMP JUMPDEST PUSH2 0x1AB PUSH32 0x3C11D16CBAFFD01DF69CE1C404F6340EE057498F5F00246190EA54220576A848 DUP2 JUMP JUMPDEST PUSH2 0x228 PUSH2 0x223 CALLDATASIZE PUSH1 0x4 PUSH2 0xEF3 JUMP JUMPDEST PUSH2 0x489 JUMP JUMPDEST STOP JUMPDEST PUSH1 0x40 MLOAD PUSH1 0x12 DUP2 MSTORE PUSH1 0x20 ADD PUSH2 0x176 JUMP JUMPDEST PUSH2 0x228 PUSH2 0x247 CALLDATASIZE PUSH1 0x4 PUSH2 0xEF3 JUMP JUMPDEST PUSH2 0x4B3 JUMP JUMPDEST PUSH2 0x228 PUSH2 0x25A CALLDATASIZE PUSH1 0x4 PUSH2 0xE7B JUMP JUMPDEST PUSH2 0x4EB JUMP JUMPDEST PUSH2 0x1AB PUSH2 0x26D CALLDATASIZE PUSH1 0x4 PUSH2 0xF1D JUMP JUMPDEST PUSH1 0x1 PUSH1 0x1 PUSH1 0xA0 SHL SUB AND PUSH0 SWAP1 DUP2 MSTORE PUSH1 0x20 DUP2 SWAP1 MSTORE PUSH1 0x40 SWAP1 KECCAK256 SLOAD SWAP1 JUMP JUMPDEST PUSH2 0x1AB PUSH0 DUP2 JUMP JUMPDEST PUSH2 0x16A PUSH2 0x29C CALLDATASIZE PUSH1 0x4 PUSH2 0xEF3 JUMP JUMPDEST PUSH2 0x5DC JUMP JUMPDEST PUSH2 0x187 PUSH2 0x606 JUMP JUMPDEST PUSH2 0x228 PUSH2 0x2B7 CALLDATASIZE PUSH1 0x4 PUSH2 0xE7B JUMP JUMPDEST PUSH2 0x615 JUMP JUMPDEST PUSH2 0x16A PUSH2 0x2CA CALLDATASIZE PUSH1 0x4 PUSH2 0xE7B JUMP JUMPDEST PUSH2 0x69E JUMP JUMPDEST PUSH2 0x228 PUSH2 0x2DD CALLDATASIZE PUSH1 0x4 PUSH2 0xEA3 JUMP JUMPDEST PUSH2 0x6AB JUMP JUMPDEST PUSH2 0x228 PUSH2 0x2F0 CALLDATASIZE PUSH1 0x4 PUSH2 0xF43 JUMP JUMPDEST PUSH2 0x7C5 JUMP JUMPDEST PUSH2 0x1AB PUSH32 0x9F2DF0FED2C77648DE5860A4CC508CD0818C85B8B8A1AB4CEEEF8D981C8956A6 DUP2 JUMP JUMPDEST PUSH2 0x228 PUSH2 0x32A CALLDATASIZE PUSH1 0x4 PUSH2 0xEF3 JUMP JUMPDEST PUSH2 0x82E JUMP JUMPDEST PUSH2 0x16A PUSH2 0x33D CALLDATASIZE PUSH1 0x4 PUSH2 0xF1D JUMP JUMPDEST PUSH1 0x7 PUSH1 0x20 MSTORE PUSH0 SWAP1 DUP2 MSTORE PUSH1 0x40 SWAP1 KECCAK256 SLOAD PUSH1 0xFF AND DUP2 JUMP JUMPDEST PUSH2 0x1AB PUSH2 0x35F CALLDATASIZE PUSH1 0x4 PUSH2 0xF78 JUMP JUMPDEST PUSH1 0x1 PUSH1 0x1 PUSH1 0xA0 SHL SUB SWAP2 DUP3 AND PUSH0 SWAP1 DUP2 MSTORE PUSH1 0x1 PUSH1 0x20 SWAP1 DUP2 MSTORE PUSH1 0x40 DUP1 DUP4 KECCAK256 SWAP4 SWAP1 SWAP5 AND DUP3 MSTORE SWAP2 SWAP1 SWAP2 MSTORE KECCAK256 SLOAD SWAP1 JUMP JUMPDEST PUSH0 PUSH1 0x1 PUSH1 0x1 PUSH1 0xE0 SHL SUB NOT DUP3 AND PUSH4 0x7965DB0B PUSH1 0xE0 SHL EQ DUP1 PUSH2 0x3B9 JUMPI POP PUSH4 0x1FFC9A7 PUSH1 0xE0 SHL PUSH1 0x1 PUSH1 0x1 PUSH1 0xE0 SHL SUB NOT DUP4 AND EQ JUMPDEST SWAP3 SWAP2 POP POP JUMP JUMPDEST PUSH1 0x60 PUSH1 0x3 DUP1 SLOAD PUSH2 0x3CE SWAP1 PUSH2 0xFA0 JUMP JUMPDEST DUP1 PUSH1 0x1F ADD PUSH1 0x20 DUP1 SWAP2 DIV MUL PUSH1 0x20 ADD PUSH1 0x40 MLOAD SWAP1 DUP2 ADD PUSH1 0x40 MSTORE DUP1 SWAP3 SWAP2 SWAP1 DUP2 DUP2 MSTORE PUSH1 0x20 ADD DUP3 DUP1 SLOAD PUSH2 0x3FA SWAP1 PUSH2 0xFA0 JUMP JUMPDEST DUP1 ISZERO PUSH2 0x445 JUMPI DUP1 PUSH1 0x1F LT PUSH2 0x41C JUMPI PUSH2 0x100 DUP1 DUP4 SLOAD DIV MUL DUP4 MSTORE SWAP2 PUSH1 0x20 ADD SWAP2 PUSH2 0x445 JUMP JUMPDEST DUP3 ADD SWAP2 SWAP1 PUSH0 MSTORE PUSH1 0x20 PUSH0 KECCAK256 SWAP1 JUMPDEST DUP2 SLOAD DUP2 MSTORE SWAP1 PUSH1 0x1 ADD SWAP1 PUSH1 0x20 ADD DUP1 DUP4 GT PUSH2 0x428 JUMPI DUP3 SWAP1 SUB PUSH1 0x1F AND DUP3 ADD SWAP2 JUMPDEST POP POP POP POP POP SWAP1 POP SWAP1 JUMP JUMPDEST PUSH0 CALLER PUSH2 0x45C DUP2 DUP6 DUP6 PUSH2 0x852 JUMP JUMPDEST POP PUSH1 0x1 SWAP4 SWAP3 POP POP POP JUMP JUMPDEST PUSH0 CALLER PUSH2 0x473 DUP6 DUP3 DUP6 PUSH2 0x85F JUMP JUMPDEST PUSH2 0x47E DUP6 DUP6 DUP6 PUSH2 0x8D5 JUMP JUMPDEST POP PUSH1 0x1 SWAP5 SWAP4 POP POP POP POP JUMP JUMPDEST PUSH0 DUP3 DUP2 MSTORE PUSH1 0x5 PUSH1 0x20 MSTORE PUSH1 0x40 SWAP1 KECCAK256 PUSH1 0x1 ADD SLOAD PUSH2 0x4A3 DUP2 PUSH2 0x932 JUMP JUMPDEST PUSH2 0x4AD DUP4 DUP4 PUSH2 0x93F JUMP JUMPDEST POP POP POP POP JUMP JUMPDEST PUSH1 0x1 PUSH1 0x1 PUSH1 0xA0 SHL SUB DUP2 AND CALLER EQ PUSH2 0x4DC JUMPI PUSH1 0x40 MLOAD PUSH4 0x334BD919 PUSH1 0xE1 SHL DUP2 MSTORE PUSH1 0x4 ADD PUSH1 0x40 MLOAD DUP1 SWAP2 SUB SWAP1 REVERT JUMPDEST PUSH2 0x4E6 DUP3 DUP3 PUSH2 0x9D0 JUMP JUMPDEST POP POP POP JUMP JUMPDEST PUSH32 0x9F2DF0FED2C77648DE5860A4CC508CD0818C85B8B8A1AB4CEEEF8D981C8956A6 PUSH2 0x515 DUP2 PUSH2 0x932 JUMP JUMPDEST PUSH1 0x1 PUSH1 0x1 PUSH1 0xA0 SHL SUB DUP4 AND PUSH0 SWAP1 DUP2 MSTORE PUSH1 0x7 PUSH1 0x20 MSTORE PUSH1 0x40 SWAP1 KECCAK256 SLOAD DUP4 SWAP1 PUSH1 0xFF AND ISZERO PUSH2 0x57D JUMPI PUSH1 0x40 MLOAD PUSH3 0x461BCD PUSH1 0xE5 SHL DUP2 MSTORE PUSH1 0x20 PUSH1 0x4 DUP3 ADD MSTORE PUSH1 0x16 PUSH1 0x24 DUP3 ADD MSTORE PUSH22 0x1058D8DBDD5B9D081A5CC8189B1858DADB1A5CDD1959 PUSH1 0x52 SHL PUSH1 0x44 DUP3 ADD MSTORE PUSH1 0x64 ADD JUMPDEST PUSH1 0x40 MLOAD DUP1 SWAP2 SUB SWAP1 REVERT JUMPDEST PUSH2 0x585 PUSH2 0xA3B JUMP JUMPDEST PUSH2 0x58F DUP5 DUP5 PUSH2 0xA65 JUMP JUMPDEST DUP4 PUSH1 0x1 PUSH1 0x1 PUSH1 0xA0 SHL SUB AND PUSH32 0x30385C845B448A36257A6A1716E6AD2E1BC2CBE333CDE1E69FE849AD6511ADFE DUP5 PUSH1 0x40 MLOAD PUSH2 0x5CA SWAP2 DUP2 MSTORE PUSH1 0x20 ADD SWAP1 JUMP JUMPDEST PUSH1 0x40 MLOAD DUP1 SWAP2 SUB SWAP1 LOG2 PUSH2 0x4AD PUSH1 0x1 PUSH1 0x6 SSTORE JUMP JUMPDEST PUSH0 SWAP2 DUP3 MSTORE PUSH1 0x5 PUSH1 0x20 SWAP1 DUP2 MSTORE PUSH1 0x40 DUP1 DUP5 KECCAK256 PUSH1 0x1 PUSH1 0x1 PUSH1 0xA0 SHL SUB SWAP4 SWAP1 SWAP4 AND DUP5 MSTORE SWAP2 SWAP1 MSTORE SWAP1 KECCAK256 SLOAD PUSH1 0xFF AND SWAP1 JUMP JUMPDEST PUSH1 0x60 PUSH1 0x4 DUP1 SLOAD PUSH2 0x3CE SWAP1 PUSH2 0xFA0 JUMP JUMPDEST PUSH32 0x3C11D16CBAFFD01DF69CE1C404F6340EE057498F5F00246190EA54220576A848 PUSH2 0x63F DUP2 PUSH2 0x932 JUMP JUMPDEST PUSH2 0x647 PUSH2 0xA3B JUMP JUMPDEST PUSH2 0x651 DUP4 DUP4 PUSH2 0xA9D JUMP JUMPDEST DUP3 PUSH1 0x1 PUSH1 0x1 PUSH1 0xA0 SHL SUB AND PUSH32 0x696DE425F79F4A40BC6D2122CA50507F0EFBEABBFF86A84871B7196AB8EA8DF7 DUP4 PUSH1 0x40 MLOAD PUSH2 0x68C SWAP2 DUP2 MSTORE PUSH1 0x20 ADD SWAP1 JUMP JUMPDEST PUSH1 0x40 MLOAD DUP1 SWAP2 SUB SWAP1 LOG2 PUSH2 0x4E6 PUSH1 0x1 PUSH1 0x6 SSTORE JUMP JUMPDEST PUSH0 CALLER PUSH2 0x45C DUP2 DUP6 DUP6 PUSH2 0x8D5 JUMP JUMPDEST PUSH0 PUSH2 0x6B5 DUP2 PUSH2 0x932 JUMP JUMPDEST PUSH2 0x6BD PUSH2 0xA3B JUMP JUMPDEST ADDRESS PUSH1 0x1 PUSH1 0x1 PUSH1 0xA0 SHL SUB DUP6 AND SUB PUSH2 0x70A JUMPI PUSH1 0x40 MLOAD PUSH3 0x461BCD PUSH1 0xE5 SHL DUP2 MSTORE PUSH1 0x20 PUSH1 0x4 DUP3 ADD MSTORE PUSH1 0x12 PUSH1 0x24 DUP3 ADD MSTORE PUSH18 0x43616E6E6F742072657363756520494E5231 PUSH1 0x70 SHL PUSH1 0x44 DUP3 ADD MSTORE PUSH1 0x64 ADD PUSH2 0x574 JUMP JUMPDEST PUSH1 0x1 PUSH1 0x1 PUSH1 0xA0 SHL SUB DUP4 AND PUSH2 0x74A JUMPI PUSH1 0x40 MLOAD PUSH3 0x461BCD PUSH1 0xE5 SHL DUP2 MSTORE PUSH1 0x20 PUSH1 0x4 DUP3 ADD MSTORE PUSH1 0x7 PUSH1 0x24 DUP3 ADD MSTORE PUSH7 0x5A65726F20746F PUSH1 0xC8 SHL PUSH1 0x44 DUP3 ADD MSTORE PUSH1 0x64 ADD PUSH2 0x574 JUMP JUMPDEST PUSH1 0x40 MLOAD PUSH4 0xA9059CBB PUSH1 0xE0 SHL DUP2 MSTORE PUSH1 0x1 PUSH1 0x1 PUSH1 0xA0 SHL SUB DUP5 DUP2 AND PUSH1 0x4 DUP4 ADD MSTORE PUSH1 0x24 DUP3 ADD DUP5 SWAP1 MSTORE DUP6 AND SWAP1 PUSH4 0xA9059CBB SWAP1 PUSH1 0x44 ADD PUSH1 0x20 PUSH1 0x40 MLOAD DUP1 DUP4 SUB DUP2 PUSH0 DUP8 GAS CALL ISZERO DUP1 ISZERO PUSH2 0x796 JUMPI RETURNDATASIZE PUSH0 DUP1 RETURNDATACOPY RETURNDATASIZE PUSH0 REVERT JUMPDEST POP POP POP POP PUSH1 0x40 MLOAD RETURNDATASIZE PUSH1 0x1F NOT PUSH1 0x1F DUP3 ADD AND DUP3 ADD DUP1 PUSH1 0x40 MSTORE POP DUP2 ADD SWAP1 PUSH2 0x7BA SWAP2 SWAP1 PUSH2 0xFD8 JUMP JUMPDEST POP PUSH2 0x4AD PUSH1 0x1 PUSH1 0x6 SSTORE JUMP JUMPDEST PUSH0 PUSH2 0x7CF DUP2 PUSH2 0x932 JUMP JUMPDEST PUSH1 0x1 PUSH1 0x1 PUSH1 0xA0 SHL SUB DUP4 AND PUSH0 DUP2 DUP2 MSTORE PUSH1 0x7 PUSH1 0x20 SWAP1 DUP2 MSTORE PUSH1 0x40 SWAP2 DUP3 SWAP1 KECCAK256 DUP1 SLOAD PUSH1 0xFF NOT AND DUP7 ISZERO ISZERO SWAP1 DUP2 OR SWAP1 SWAP2 SSTORE SWAP2 MLOAD SWAP2 DUP3 MSTORE PUSH32 0xCF3473B85DF1594D47B6958F29A32BEA0ABFF9DD68296F7BF33443646793CFD8 SWAP2 ADD PUSH1 0x40 MLOAD DUP1 SWAP2 SUB SWAP1 LOG2 POP POP POP JUMP JUMPDEST PUSH0 DUP3 DUP2 MSTORE PUSH1 0x5 PUSH1 0x20 MSTORE PUSH1 0x40 SWAP1 KECCAK256 PUSH1 0x1 ADD SLOAD PUSH2 0x848 DUP2 PUSH2 0x932 JUMP JUMPDEST PUSH2 0x4AD DUP4 DUP4 PUSH2 0x9D0 JUMP JUMPDEST PUSH2 0x4E6 DUP4 DUP4 DUP4 PUSH1 0x1 PUSH2 0xAD1 JUMP JUMPDEST PUSH1 0x1 PUSH1 0x1 PUSH1 0xA0 SHL SUB DUP4 DUP2 AND PUSH0 SWAP1 DUP2 MSTORE PUSH1 0x1 PUSH1 0x20 SWAP1 DUP2 MSTORE PUSH1 0x40 DUP1 DUP4 KECCAK256 SWAP4 DUP7 AND DUP4 MSTORE SWAP3 SWAP1 MSTORE KECCAK256 SLOAD PUSH0 NOT DUP2 LT ISZERO PUSH2 0x4AD JUMPI DUP2 DUP2 LT ISZERO PUSH2 0x8C7 JUMPI PUSH1 0x40 MLOAD PUSH4 0x7DC7A0D9 PUSH1 0xE1 SHL DUP2 MSTORE PUSH1 0x1 PUSH1 0x1 PUSH1 0xA0 SHL SUB DUP5 AND PUSH1 0x4 DUP3 ADD MSTORE PUSH1 0x24 DUP2 ADD DUP3 SWAP1 MSTORE PUSH1 0x44 DUP2 ADD DUP4 SWAP1 MSTORE PUSH1 0x64 ADD PUSH2 0x574 JUMP JUMPDEST PUSH2 0x4AD DUP5 DUP5 DUP5 DUP5 SUB PUSH0 PUSH2 0xAD1 JUMP JUMPDEST PUSH1 0x1 PUSH1 0x1 PUSH1 0xA0 SHL SUB DUP4 AND PUSH2 0x8FE JUMPI PUSH1 0x40 MLOAD PUSH4 0x4B637E8F PUSH1 0xE1 SHL DUP2 MSTORE PUSH0 PUSH1 0x4 DUP3 ADD MSTORE PUSH1 0x24 ADD PUSH2 0x574 JUMP JUMPDEST PUSH1 0x1 PUSH1 0x1 PUSH1 0xA0 SHL SUB DUP3 AND PUSH2 0x927 JUMPI PUSH1 0x40 MLOAD PUSH4 0xEC442F05 PUSH1 0xE0 SHL DUP2 MSTORE PUSH0 PUSH1 0x4 DUP3 ADD MSTORE PUSH1 0x24 ADD PUSH2 0x574 JUMP JUMPDEST PUSH2 0x4E6 DUP4 DUP4 DUP4 PUSH2 0xBA3 JUMP JUMPDEST PUSH2 0x93C DUP2 CALLER PUSH2 0xC88 JUMP JUMPDEST POP JUMP JUMPDEST PUSH0 PUSH2 0x94A DUP4 DUP4 PUSH2 0x5DC JUMP JUMPDEST PUSH2 0x9C9 JUMPI PUSH0 DUP4 DUP2 MSTORE PUSH1 0x5 PUSH1 0x20 SWAP1 DUP2 MSTORE PUSH1 0x40 DUP1 DUP4 KECCAK256 PUSH1 0x1 PUSH1 0x1 PUSH1 0xA0 SHL SUB DUP7 AND DUP5 MSTORE SWAP1 SWAP2 MSTORE SWAP1 KECCAK256 DUP1 SLOAD PUSH1 0xFF NOT AND PUSH1 0x1 OR SWAP1 SSTORE PUSH2 0x981 CALLER SWAP1 JUMP JUMPDEST PUSH1 0x1 PUSH1 0x1 PUSH1 0xA0 SHL SUB AND DUP3 PUSH1 0x1 PUSH1 0x1 PUSH1 0xA0 SHL SUB AND DUP5 PUSH32 0x2F8788117E7EFF1D82E926EC794901D17C78024A50270940304540A733656F0D PUSH1 0x40 MLOAD PUSH1 0x40 MLOAD DUP1 SWAP2 SUB SWAP1 LOG4 POP PUSH1 0x1 PUSH2 0x3B9 JUMP JUMPDEST POP PUSH0 PUSH2 0x3B9 JUMP JUMPDEST PUSH0 PUSH2 0x9DB DUP4 DUP4 PUSH2 0x5DC JUMP JUMPDEST ISZERO PUSH2 0x9C9 JUMPI PUSH0 DUP4 DUP2 MSTORE PUSH1 0x5 PUSH1 0x20 SWAP1 DUP2 MSTORE PUSH1 0x40 DUP1 DUP4 KECCAK256 PUSH1 0x1 PUSH1 0x1 PUSH1 0xA0 SHL SUB DUP7 AND DUP1 DUP6 MSTORE SWAP3 MSTORE DUP1 DUP4 KECCAK256 DUP1 SLOAD PUSH1 0xFF NOT AND SWAP1 SSTORE MLOAD CALLER SWAP3 DUP7 SWAP2 PUSH32 0xF6391F5C32D9C69D2A47EA670B442974B53935D1EDC7FD64EB21E047A839171B SWAP2 SWAP1 LOG4 POP PUSH1 0x1 PUSH2 0x3B9 JUMP JUMPDEST PUSH1 0x2 PUSH1 0x6 SLOAD SUB PUSH2 0xA5E JUMPI PUSH1 0x40 MLOAD PUSH4 0x3EE5AEB5 PUSH1 0xE0 SHL DUP2 MSTORE PUSH1 0x4 ADD PUSH1 0x40 MLOAD DUP1 SWAP2 SUB SWAP1 REVERT JUMPDEST PUSH1 0x2 PUSH1 0x6 SSTORE JUMP JUMPDEST PUSH1 0x1 PUSH1 0x1 PUSH1 0xA0 SHL SUB DUP3 AND PUSH2 0xA8E JUMPI PUSH1 0x40 MLOAD PUSH4 0xEC442F05 PUSH1 0xE0 SHL DUP2 MSTORE PUSH0 PUSH1 0x4 DUP3 ADD MSTORE PUSH1 0x24 ADD PUSH2 0x574 JUMP JUMPDEST PUSH2 0xA99 PUSH0 DUP4 DUP4 PUSH2 0xBA3 JUMP JUMPDEST POP POP JUMP JUMPDEST PUSH1 0x1 PUSH1 0x1 PUSH1 0xA0 SHL SUB DUP3 AND PUSH2 0xAC6 JUMPI PUSH1 0x40 MLOAD PUSH4 0x4B637E8F PUSH1 0xE1 SHL DUP2 MSTORE PUSH0 PUSH1 0x4 DUP3 ADD MSTORE PUSH1 0x24 ADD PUSH2 0x574 JUMP JUMPDEST PUSH2 0xA99 DUP3 PUSH0 DUP4 PUSH2 0xBA3 JUMP JUMPDEST PUSH1 0x1 PUSH1 0x1 PUSH1 0xA0 SHL SUB DUP5 AND PUSH2 0xAFA JUMPI PUSH1 0x40 MLOAD PUSH4 0xE602DF05 PUSH1 0xE0 SHL DUP2 MSTORE PUSH0 PUSH1 0x4 DUP3 ADD MSTORE PUSH1 0x24 ADD PUSH2 0x574 JUMP JUMPDEST PUSH1 0x1 PUSH1 0x1 PUSH1 0xA0 SHL SUB DUP4 AND PUSH2 0xB23 JUMPI PUSH1 0x40 MLOAD PUSH4 0x4A1406B1 PUSH1 0xE1 SHL DUP2 MSTORE PUSH0 PUSH1 0x4 DUP3 ADD MSTORE PUSH1 0x24 ADD PUSH2 0x574 JUMP JUMPDEST PUSH1 0x1 PUSH1 0x1 PUSH1 0xA0 SHL SUB DUP1 DUP6 AND PUSH0 SWAP1 DUP2 MSTORE PUSH1 0x1 PUSH1 0x20 SWAP1 DUP2 MSTORE PUSH1 0x40 DUP1 DUP4 KECCAK256 SWAP4 DUP8 AND DUP4 MSTORE SWAP3 SWAP1 MSTORE KECCAK256 DUP3 SWAP1 SSTORE DUP1 ISZERO PUSH2 0x4AD JUMPI DUP3 PUSH1 0x1 PUSH1 0x1 PUSH1 0xA0 SHL SUB AND DUP5 PUSH1 0x1 PUSH1 0x1 PUSH1 0xA0 SHL SUB AND PUSH32 0x8C5BE1E5EBEC7D5BD14F71427D1E84F3DD0314C0F7B2291E5B200AC8C7C3B925 DUP5 PUSH1 0x40 MLOAD PUSH2 0xB95 SWAP2 DUP2 MSTORE PUSH1 0x20 ADD SWAP1 JUMP JUMPDEST PUSH1 0x40 MLOAD DUP1 SWAP2 SUB SWAP1 LOG3 POP POP POP POP JUMP JUMPDEST PUSH1 0x1 PUSH1 0x1 PUSH1 0xA0 SHL SUB DUP4 AND ISZERO PUSH2 0xC0F JUMPI PUSH1 0x1 PUSH1 0x1 PUSH1 0xA0 SHL SUB DUP4 AND PUSH0 SWAP1 DUP2 MSTORE PUSH1 0x7 PUSH1 0x20 MSTORE PUSH1 0x40 SWAP1 KECCAK256 SLOAD PUSH1 0xFF AND ISZERO PUSH2 0xC0F JUMPI PUSH1 0x40 MLOAD PUSH3 0x461BCD PUSH1 0xE5 SHL DUP2 MSTORE PUSH1 0x20 PUSH1 0x4 DUP3 ADD MSTORE PUSH1 0x12 PUSH1 0x24 DUP3 ADD MSTORE PUSH18 0x14D95B99195C88189B1858DADB1A5CDD1959 PUSH1 0x72 SHL PUSH1 0x44 DUP3 ADD MSTORE PUSH1 0x64 ADD PUSH2 0x574 JUMP JUMPDEST PUSH1 0x1 PUSH1 0x1 PUSH1 0xA0 SHL SUB DUP3 AND ISZERO PUSH2 0xC7D JUMPI PUSH1 0x1 PUSH1 0x1 PUSH1 0xA0 SHL SUB DUP3 AND PUSH0 SWAP1 DUP2 MSTORE PUSH1 0x7 PUSH1 0x20 MSTORE PUSH1 0x40 SWAP1 KECCAK256 SLOAD PUSH1 0xFF AND ISZERO PUSH2 0xC7D JUMPI PUSH1 0x40 MLOAD PUSH3 0x461BCD PUSH1 0xE5 SHL DUP2 MSTORE PUSH1 0x20 PUSH1 0x4 DUP3 ADD MSTORE PUSH1 0x14 PUSH1 0x24 DUP3 ADD MSTORE PUSH20 0x149958D95A5D995C88189B1858DADB1A5CDD1959 PUSH1 0x62 SHL PUSH1 0x44 DUP3 ADD MSTORE PUSH1 0x64 ADD PUSH2 0x574 JUMP JUMPDEST PUSH2 0x4E6 DUP4 DUP4 DUP4 PUSH2 0xCC1 JUMP JUMPDEST PUSH2 0xC92 DUP3 DUP3 PUSH2 0x5DC JUMP JUMPDEST PUSH2 0xA99 JUMPI PUSH1 0x40 MLOAD PUSH4 0xE2517D3F PUSH1 0xE0 SHL DUP2 MSTORE PUSH1 0x1 PUSH1 0x1 PUSH1 0xA0 SHL SUB DUP3 AND PUSH1 0x4 DUP3 ADD MSTORE PUSH1 0x24 DUP2 ADD DUP4 SWAP1 MSTORE PUSH1 0x44 ADD PUSH2 0x574 JUMP JUMPDEST PUSH1 0x1 PUSH1 0x1 PUSH1 0xA0 SHL SUB DUP4 AND PUSH2 0xCEB JUMPI DUP1 PUSH1 0x2 PUSH0 DUP3 DUP3 SLOAD PUSH2 0xCE0 SWAP2 SWAP1 PUSH2 0xFF3 JUMP JUMPDEST SWAP1 SWAP2 SSTORE POP PUSH2 0xD5B SWAP1 POP JUMP JUMPDEST PUSH1 0x1 PUSH1 0x1 PUSH1 0xA0 SHL SUB DUP4 AND PUSH0 SWAP1 DUP2 MSTORE PUSH1 0x20 DUP2 SWAP1 MSTORE PUSH1 0x40 SWAP1 KECCAK256 SLOAD DUP2 DUP2 LT ISZERO PUSH2 0xD3D JUMPI PUSH1 0x40 MLOAD PUSH4 0x391434E3 PUSH1 0xE2 SHL DUP2 MSTORE PUSH1 0x1 PUSH1 0x1 PUSH1 0xA0 SHL SUB DUP6 AND PUSH1 0x4 DUP3 ADD MSTORE PUSH1 0x24 DUP2 ADD DUP3 SWAP1 MSTORE PUSH1 0x44 DUP2 ADD DUP4 SWAP1 MSTORE PUSH1 0x64 ADD PUSH2 0x574 JUMP JUMPDEST PUSH1 0x1 PUSH1 0x1 PUSH1 0xA0 SHL SUB DUP5 AND PUSH0 SWAP1 DUP2 MSTORE PUSH1 0x20 DUP2 SWAP1 MSTORE PUSH1 0x40 SWAP1 KECCAK256 SWAP1 DUP3 SWAP1 SUB SWAP1 SSTORE JUMPDEST PUSH1 0x1 PUSH1 0x1 PUSH1 0xA0 SHL SUB DUP3 AND PUSH2 0xD77 JUMPI PUSH1 0x2 DUP1 SLOAD DUP3 SWAP1 SUB SWAP1 SSTORE PUSH2 0xD95 JUMP JUMPDEST PUSH1 0x1 PUSH1 0x1 PUSH1 0xA0 SHL SUB DUP3 AND PUSH0 SWAP1 DUP2 MSTORE PUSH1 0x20 DUP2 SWAP1 MSTORE PUSH1 0x40 SWAP1 KECCAK256 DUP1 SLOAD DUP3 ADD SWAP1 SSTORE JUMPDEST DUP2 PUSH1 0x1 PUSH1 0x1 PUSH1 0xA0 SHL SUB AND DUP4 PUSH1 0x1 PUSH1 0x1 PUSH1 0xA0 SHL SUB AND PUSH32 0xDDF252AD1BE2C89B69C2B068FC378DAA952BA7F163C4A11628F55A4DF523B3EF DUP4 PUSH1 0x40 MLOAD PUSH2 0xDDA SWAP2 DUP2 MSTORE PUSH1 0x20 ADD SWAP1 JUMP JUMPDEST PUSH1 0x40 MLOAD DUP1 SWAP2 SUB SWAP1 LOG3 POP POP POP JUMP JUMPDEST PUSH0 PUSH1 0x20 DUP3 DUP5 SUB SLT ISZERO PUSH2 0xDF7 JUMPI PUSH0 DUP1 REVERT JUMPDEST DUP2 CALLDATALOAD PUSH1 0x1 PUSH1 0x1 PUSH1 0xE0 SHL SUB NOT DUP2 AND DUP2 EQ PUSH2 0xE0E JUMPI PUSH0 DUP1 REVERT JUMPDEST SWAP4 SWAP3 POP POP POP JUMP JUMPDEST PUSH0 PUSH1 0x20 DUP1 DUP4 MSTORE DUP4 MLOAD DUP1 DUP3 DUP6 ADD MSTORE PUSH0 JUMPDEST DUP2 DUP2 LT ISZERO PUSH2 0xE40 JUMPI DUP6 DUP2 ADD DUP4 ADD MLOAD DUP6 DUP3 ADD PUSH1 0x40 ADD MSTORE DUP3 ADD PUSH2 0xE24 JUMP JUMPDEST POP PUSH0 PUSH1 0x40 DUP3 DUP7 ADD ADD MSTORE PUSH1 0x40 PUSH1 0x1F NOT PUSH1 0x1F DUP4 ADD AND DUP6 ADD ADD SWAP3 POP POP POP SWAP3 SWAP2 POP POP JUMP JUMPDEST DUP1 CALLDATALOAD PUSH1 0x1 PUSH1 0x1 PUSH1 0xA0 SHL SUB DUP2 AND DUP2 EQ PUSH2 0xE76 JUMPI PUSH0 DUP1 REVERT JUMPDEST SWAP2 SWAP1 POP JUMP JUMPDEST PUSH0 DUP1 PUSH1 0x40 DUP4 DUP6 SUB SLT ISZERO PUSH2 0xE8C JUMPI PUSH0 DUP1 REVERT JUMPDEST PUSH2 0xE95 DUP4 PUSH2 0xE60 JUMP JUMPDEST SWAP5 PUSH1 0x20 SWAP4 SWAP1 SWAP4 ADD CALLDATALOAD SWAP4 POP POP POP JUMP JUMPDEST PUSH0 DUP1 PUSH0 PUSH1 0x60 DUP5 DUP7 SUB SLT ISZERO PUSH2 0xEB5 JUMPI PUSH0 DUP1 REVERT JUMPDEST PUSH2 0xEBE DUP5 PUSH2 0xE60 JUMP JUMPDEST SWAP3 POP PUSH2 0xECC PUSH1 0x20 DUP6 ADD PUSH2 0xE60 JUMP JUMPDEST SWAP2 POP PUSH1 0x40 DUP5 ADD CALLDATALOAD SWAP1 POP SWAP3 POP SWAP3 POP SWAP3 JUMP JUMPDEST PUSH0 PUSH1 0x20 DUP3 DUP5 SUB SLT ISZERO PUSH2 0xEEC JUMPI PUSH0 DUP1 REVERT JUMPDEST POP CALLDATALOAD SWAP2 SWAP1 POP JUMP JUMPDEST PUSH0 DUP1 PUSH1 0x40 DUP4 DUP6 SUB SLT ISZERO PUSH2 0xF04 JUMPI PUSH0 DUP1 REVERT JUMPDEST DUP3 CALLDATALOAD SWAP2 POP PUSH2 0xF14 PUSH1 0x20 DUP5 ADD PUSH2 0xE60 JUMP JUMPDEST SWAP1 POP SWAP3 POP SWAP3 SWAP1 POP JUMP JUMPDEST PUSH0 PUSH1 0x20 DUP3 DUP5 SUB SLT ISZERO PUSH2 0xF2D JUMPI PUSH0 DUP1 REVERT JUMPDEST PUSH2 0xE0E DUP3 PUSH2 0xE60 JUMP JUMPDEST DUP1 ISZERO ISZERO DUP2 EQ PUSH2 0x93C JUMPI PUSH0 DUP1 REVERT JUMPDEST PUSH0 DUP1 PUSH1 0x40 DUP4 DUP6 SUB SLT ISZERO PUSH2 0xF54 JUMPI PUSH0 DUP1 REVERT JUMPDEST PUSH2 0xF5D DUP4 PUSH2 0xE60 JUMP JUMPDEST SWAP2 POP PUSH1 0x20 DUP4 ADD CALLDATALOAD PUSH2 0xF6D DUP2 PUSH2 0xF36 JUMP JUMPDEST DUP1 SWAP2 POP POP SWAP3 POP SWAP3 SWAP1 POP JUMP JUMPDEST PUSH0 DUP1 PUSH1 0x40 DUP4 DUP6 SUB SLT ISZERO PUSH2 0xF89 JUMPI PUSH0 DUP1 REVERT JUMPDEST PUSH2 0xF92 DUP4 PUSH2 0xE60 JUMP JUMPDEST SWAP2 POP PUSH2 0xF14 PUSH1 0x20 DUP5 ADD PUSH2 0xE60 JUMP JUMPDEST PUSH1 0x1 DUP2 DUP2 SHR SWAP1 DUP3 AND DUP1 PUSH2 0xFB4 JUMPI PUSH1 0x7F DUP3 AND SWAP2 POP JUMPDEST PUSH1 0x20 DUP3 LT DUP2 SUB PUSH2 0xFD2 JUMPI PUSH4 0x4E487B71 PUSH1 0xE0 SHL PUSH0 MSTORE PUSH1 0x22 PUSH1 0x4 MSTORE PUSH1 0x24 PUSH0 REVERT JUMPDEST POP SWAP2 SWAP1 POP JUMP JUMPDEST PUSH0 PUSH1 0x20 DUP3 DUP5 SUB SLT ISZERO PUSH2 0xFE8 JUMPI PUSH0 DUP1 REVERT JUMPDEST DUP2 MLOAD PUSH2 0xE0E DUP2 PUSH2 0xF36 JUMP JUMPDEST DUP1 DUP3 ADD DUP1 DUP3 GT ISZERO PUSH2 0x3B9 JUMPI PUSH4 0x4E487B71 PUSH1 0xE0 SHL PUSH0 MSTORE PUSH1 0x11 PUSH1 0x4 MSTORE PUSH1 0x24 PUSH0 REVERT INVALID LOG2 PUSH5 0x6970667358 0x22 SLT KECCAK256 XOR PUSH15 0x7DCB9596DFF7908A8D295BD6C0C2AC 0xBB SWAP10 0xB3 PUSH19 0xC523CF464D38559A226C7664736F6C63430008 EQ STOP CALLER "
				},
				"gasEstimates": {
					"creation": {
						"codeDepositCost": "833600",
						"executionCost": "infinite",
						"totalCost": "infinite"
					},
					"external": {
						"ADMIN_ROLE()": "216",
						"BURNER_ROLE()": "217",
						"DEFAULT_ADMIN_ROLE()": "304",
						"MINTER_ROLE()": "260",
						"allowance(address,address)": "infinite",
						"approve(address,uint256)": "24765",
						"balanceOf(address)": "2670",
						"blacklisted(address)": "2627",
						"burn(address,uint256)": "infinite",
						"decimals()": "243",
						"getRoleAdmin(bytes32)": "2575",
						"grantRole(bytes32,address)": "infinite",
						"hasRole(bytes32,address)": "2696",
						"mint(address,uint256)": "infinite",
						"name()": "infinite",
						"renounceRole(bytes32,address)": "29113",
						"rescueERC20(address,address,uint256)": "infinite",
						"revokeRole(bytes32,address)": "infinite",
						"setBlacklisted(address,bool)": "infinite",
						"supportsInterface(bytes4)": "447",
						"symbol()": "infinite",
						"totalSupply()": "2370",
						"transfer(address,uint256)": "infinite",
						"transferFrom(address,address,uint256)": "infinite"
					},
					"internal": {
						"_update(address,address,uint256)": "infinite"
					}
				},
				"methodIdentifiers": {
					"ADMIN_ROLE()": "75b238fc",
					"BURNER_ROLE()": "282c51f3",
					"DEFAULT_ADMIN_ROLE()": "a217fddf",
					"MINTER_ROLE()": "d5391393",
					"allowance(address,address)": "dd62ed3e",
					"approve(address,uint256)": "095ea7b3",
					"balanceOf(address)": "70a08231",
					"blacklisted(address)": "dbac26e9",
					"burn(address,uint256)": "9dc29fac",
					"decimals()": "313ce567",
					"getRoleAdmin(bytes32)": "248a9ca3",
					"grantRole(bytes32,address)": "2f2ff15d",
					"hasRole(bytes32,address)": "91d14854",
					"mint(address,uint256)": "40c10f19",
					"name()": "06fdde03",
					"renounceRole(bytes32,address)": "36568abe",
					"rescueERC20(address,address,uint256)": "b2118a8d",
					"revokeRole(bytes32,address)": "d547741f",
					"setBlacklisted(address,bool)": "d01dd6d2",
					"supportsInterface(bytes4)": "01ffc9a7",
					"symbol()": "95d89b41",
					"totalSupply()": "18160ddd",
					"transfer(address,uint256)": "a9059cbb",
					"transferFrom(address,address,uint256)": "23b872dd"
				}
			},
			"storageLayout": {
				"storage": [
					{
						"astId": 539,
						"contract": "LibertyFinancialChain/inr1.sol:INR1Token",
						"label": "_balances",
						"offset": 0,
						"slot": "0",
						"type": "t_mapping(t_address,t_uint256)"
					},
					{
						"astId": 545,
						"contract": "LibertyFinancialChain/inr1.sol:INR1Token",
						"label": "_allowances",
						"offset": 0,
						"slot": "1",
						"type": "t_mapping(t_address,t_mapping(t_address,t_uint256))"
					},
					{
						"astId": 547,
						"contract": "LibertyFinancialChain/inr1.sol:INR1Token",
						"label": "_totalSupply",
						"offset": 0,
						"slot": "2",
						"type": "t_uint256"
					},
					{
						"astId": 549,
						"contract": "LibertyFinancialChain/inr1.sol:INR1Token",
						"label": "_name",
						"offset": 0,
						"slot": "3",
						"type": "t_string_storage"
					},
					{
						"astId": 551,
						"contract": "LibertyFinancialChain/inr1.sol:INR1Token",
						"label": "_symbol",
						"offset": 0,
						"slot": "4",
						"type": "t_string_storage"
					},
					{
						"astId": 27,
						"contract": "LibertyFinancialChain/inr1.sol:INR1Token",
						"label": "_roles",
						"offset": 0,
						"slot": "5",
						"type": "t_mapping(t_bytes32,t_struct(RoleData)22_storage)"
					},
					{
						"astId": 1176,
						"contract": "LibertyFinancialChain/inr1.sol:INR1Token",
						"label": "_status",
						"offset": 0,
						"slot": "6",
						"type": "t_uint256"
					},
					{
						"astId": 1298,
						"contract": "LibertyFinancialChain/inr1.sol:INR1Token",
						"label": "blacklisted",
						"offset": 0,
						"slot": "7",
						"type": "t_mapping(t_address,t_bool)"
					}
				],
				"types": {
					"t_address": {
						"encoding": "inplace",
						"label": "address",
						"numberOfBytes": "20"
					},
					"t_bool": {
						"encoding": "inplace",
						"label": "bool",
						"numberOfBytes": "1"
					},
					"t_bytes32": {
						"encoding": "inplace",
						"label": "bytes32",
						"numberOfBytes": "32"
					},
					"t_mapping(t_address,t_bool)": {
						"encoding": "mapping",
						"key": "t_address",
						"label": "mapping(address => bool)",
						"numberOfBytes": "32",
						"value": "t_bool"
					},
					"t_mapping(t_address,t_mapping(t_address,t_uint256))": {
						"encoding": "mapping",
						"key": "t_address",
						"label": "mapping(address => mapping(address => uint256))",
						"numberOfBytes": "32",
						"value": "t_mapping(t_address,t_uint256)"
					},
					"t_mapping(t_address,t_uint256)": {
						"encoding": "mapping",
						"key": "t_address",
						"label": "mapping(address => uint256)",
						"numberOfBytes": "32",
						"value": "t_uint256"
					},
					"t_mapping(t_bytes32,t_struct(RoleData)22_storage)": {
						"encoding": "mapping",
						"key": "t_bytes32",
						"label": "mapping(bytes32 => struct AccessControl.RoleData)",
						"numberOfBytes": "32",
						"value": "t_struct(RoleData)22_storage"
					},
					"t_string_storage": {
						"encoding": "bytes",
						"label": "string",
						"numberOfBytes": "32"
					},
					"t_struct(RoleData)22_storage": {
						"encoding": "inplace",
						"label": "struct AccessControl.RoleData",
						"members": [
							{
								"astId": 19,
								"contract": "LibertyFinancialChain/inr1.sol:INR1Token",
								"label": "hasRole",
								"offset": 0,
								"slot": "0",
								"type": "t_mapping(t_address,t_bool)"
							},
							{
								"astId": 21,
								"contract": "LibertyFinancialChain/inr1.sol:INR1Token",
								"label": "adminRole",
								"offset": 0,
								"slot": "1",
								"type": "t_bytes32"
							}
						],
						"numberOfBytes": "64"
					},
					"t_uint256": {
						"encoding": "inplace",
						"label": "uint256",
						"numberOfBytes": "32"
					}
				}
			},
			"userdoc": {
				"kind": "user",
				"methods": {},
				"version": 1
			}
		}
	}
}