{
	"LibertyFinancialChain/LiberttFinancial/genesispool.sol": {
		"GenesisPool": {
			"abi": [
				{
					"inputs": [
						{
							"internalType": "address",
							"name": "_subadmin",
							"type": "address"
						},
						{
							"internalType": "address",
							"name": "_inr1",
							"type": "address"
						},
						{
							"internalType": "address",
							"name": "_usd1",
							"type": "address"
						}
					],
					"stateMutability": "nonpayable",
					"type": "constructor"
				},
				{
					"inputs": [
						{
							"internalType": "address",
							"name": "owner",
							"type": "address"
						}
					],
					"name": "OwnableInvalidOwner",
					"type": "error"
				},
				{
					"inputs": [
						{
							"internalType": "address",
							"name": "account",
							"type": "address"
						}
					],
					"name": "OwnableUnauthorizedAccount",
					"type": "error"
				},
				{
					"inputs": [
						{
							"internalType": "address",
							"name": "token",
							"type": "address"
						}
					],
					"name": "SafeERC20FailedOperation",
					"type": "error"
				},
				{
					"anonymous": false,
					"inputs": [
						{
							"indexed": false,
							"internalType": "bool",
							"name": "flag",
							"type": "bool"
						}
					],
					"name": "EmergencyActivated",
					"type": "event"
				},
				{
					"anonymous": false,
					"inputs": [
						{
							"indexed": false,
							"internalType": "address",
							"name": "newAddr",
							"type": "address"
						}
					],
					"name": "INRTOKENUpdated",
					"type": "event"
				},
				{
					"anonymous": false,
					"inputs": [
						{
							"indexed": true,
							"internalType": "address",
							"name": "previousOwner",
							"type": "address"
						},
						{
							"indexed": true,
							"internalType": "address",
							"name": "newOwner",
							"type": "address"
						}
					],
					"name": "OwnershipTransferred",
					"type": "event"
				},
				{
					"anonymous": false,
					"inputs": [
						{
							"indexed": true,
							"internalType": "address",
							"name": "user",
							"type": "address"
						},
						{
							"indexed": false,
							"internalType": "uint256",
							"name": "poolId",
							"type": "uint256"
						},
						{
							"indexed": false,
							"internalType": "uint256",
							"name": "orderNo",
							"type": "uint256"
						},
						{
							"indexed": false,
							"internalType": "uint256",
							"name": "reward",
							"type": "uint256"
						}
					],
					"name": "PaidOut",
					"type": "event"
				},
				{
					"anonymous": false,
					"inputs": [
						{
							"indexed": false,
							"internalType": "uint256",
							"name": "newParity",
							"type": "uint256"
						}
					],
					"name": "ParityUpdated",
					"type": "event"
				},
				{
					"anonymous": false,
					"inputs": [
						{
							"indexed": false,
							"internalType": "uint256",
							"name": "poolId",
							"type": "uint256"
						},
						{
							"indexed": false,
							"internalType": "string",
							"name": "poolType",
							"type": "string"
						}
					],
					"name": "PoolActivated",
					"type": "event"
				},
				{
					"anonymous": false,
					"inputs": [
						{
							"indexed": true,
							"internalType": "uint256",
							"name": "poolId",
							"type": "uint256"
						},
						{
							"indexed": false,
							"internalType": "string",
							"name": "poolType",
							"type": "string"
						}
					],
					"name": "PoolAdded",
					"type": "event"
				},
				{
					"anonymous": false,
					"inputs": [
						{
							"indexed": true,
							"internalType": "uint256",
							"name": "poolId",
							"type": "uint256"
						},
						{
							"indexed": false,
							"internalType": "uint256",
							"name": "totalInvested",
							"type": "uint256"
						}
					],
					"name": "PoolClosed",
					"type": "event"
				},
				{
					"anonymous": false,
					"inputs": [
						{
							"indexed": true,
							"internalType": "address",
							"name": "user",
							"type": "address"
						},
						{
							"indexed": false,
							"internalType": "uint256",
							"name": "poolId",
							"type": "uint256"
						},
						{
							"indexed": false,
							"internalType": "uint256",
							"name": "orderNo",
							"type": "uint256"
						},
						{
							"indexed": false,
							"internalType": "uint256",
							"name": "ingots",
							"type": "uint256"
						},
						{
							"indexed": false,
							"internalType": "string",
							"name": "paymentToken",
							"type": "string"
						}
					],
					"name": "PoolJoined",
					"type": "event"
				},
				{
					"anonymous": false,
					"inputs": [
						{
							"indexed": true,
							"internalType": "address",
							"name": "user",
							"type": "address"
						},
						{
							"indexed": false,
							"internalType": "uint256",
							"name": "pendingReward",
							"type": "uint256"
						},
						{
							"indexed": false,
							"internalType": "bool",
							"name": "canWithdraw",
							"type": "bool"
						}
					],
					"name": "PoolStatus",
					"type": "event"
				},
				{
					"anonymous": false,
					"inputs": [
						{
							"indexed": true,
							"internalType": "address",
							"name": "user",
							"type": "address"
						},
						{
							"indexed": false,
							"internalType": "uint256",
							"name": "amount",
							"type": "uint256"
						}
					],
					"name": "ReferralRewardClaimed",
					"type": "event"
				},
				{
					"anonymous": false,
					"inputs": [
						{
							"indexed": true,
							"internalType": "address",
							"name": "user",
							"type": "address"
						},
						{
							"indexed": false,
							"internalType": "uint256",
							"name": "totalEarned",
							"type": "uint256"
						},
						{
							"indexed": false,
							"internalType": "uint256",
							"name": "claimable",
							"type": "uint256"
						},
						{
							"indexed": false,
							"internalType": "uint256",
							"name": "withdrawn",
							"type": "uint256"
						},
						{
							"indexed": false,
							"internalType": "uint256",
							"name": "cap",
							"type": "uint256"
						}
					],
					"name": "ReferralStatus",
					"type": "event"
				},
				{
					"anonymous": false,
					"inputs": [
						{
							"indexed": true,
							"internalType": "address",
							"name": "user",
							"type": "address"
						},
						{
							"indexed": true,
							"internalType": "address",
							"name": "oldReferrer",
							"type": "address"
						},
						{
							"indexed": true,
							"internalType": "address",
							"name": "newReferrer",
							"type": "address"
						}
					],
					"name": "ReferrerChanged",
					"type": "event"
				},
				{
					"anonymous": false,
					"inputs": [
						{
							"indexed": false,
							"internalType": "string",
							"name": "treasury",
							"type": "string"
						},
						{
							"indexed": false,
							"internalType": "uint256",
							"name": "amount",
							"type": "uint256"
						},
						{
							"indexed": false,
							"internalType": "string",
							"name": "token",
							"type": "string"
						}
					],
					"name": "TreasuryFunded",
					"type": "event"
				},
				{
					"anonymous": false,
					"inputs": [
						{
							"indexed": false,
							"internalType": "string",
							"name": "treasury",
							"type": "string"
						},
						{
							"indexed": false,
							"internalType": "uint256",
							"name": "amount",
							"type": "uint256"
						}
					],
					"name": "TreasuryWithdraw",
					"type": "event"
				},
				{
					"anonymous": false,
					"inputs": [
						{
							"indexed": false,
							"internalType": "address",
							"name": "newAddr",
							"type": "address"
						}
					],
					"name": "USDTOKENUpdated",
					"type": "event"
				},
				{
					"inputs": [],
					"name": "INGOTS_POOL_MAX",
					"outputs": [
						{
							"internalType": "uint256",
							"name": "",
							"type": "uint256"
						}
					],
					"stateMutability": "view",
					"type": "function"
				},
				{
					"inputs": [],
					"name": "INR1",
					"outputs": [
						{
							"internalType": "contract IERC20",
							"name": "",
							"type": "address"
						}
					],
					"stateMutability": "view",
					"type": "function"
				},
				{
					"inputs": [],
					"name": "INR1_PER_INGOT",
					"outputs": [
						{
							"internalType": "uint256",
							"name": "",
							"type": "uint256"
						}
					],
					"stateMutability": "view",
					"type": "function"
				},
				{
					"inputs": [],
					"name": "MAX_POOL_ID",
					"outputs": [
						{
							"internalType": "uint256",
							"name": "",
							"type": "uint256"
						}
					],
					"stateMutability": "view",
					"type": "function"
				},
				{
					"inputs": [
						{
							"internalType": "uint256",
							"name": "",
							"type": "uint256"
						}
					],
					"name": "REFERRAL_PERCENTS",
					"outputs": [
						{
							"internalType": "uint256",
							"name": "",
							"type": "uint256"
						}
					],
					"stateMutability": "view",
					"type": "function"
				},
				{
					"inputs": [],
					"name": "USD1",
					"outputs": [
						{
							"internalType": "contract IERC20",
							"name": "",
							"type": "address"
						}
					],
					"stateMutability": "view",
					"type": "function"
				},
				{
					"inputs": [],
					"name": "USD1_PER_INGOT",
					"outputs": [
						{
							"internalType": "uint256",
							"name": "",
							"type": "uint256"
						}
					],
					"stateMutability": "view",
					"type": "function"
				},
				{
					"inputs": [
						{
							"internalType": "address",
							"name": "token",
							"type": "address"
						},
						{
							"internalType": "uint256",
							"name": "amount",
							"type": "uint256"
						},
						{
							"internalType": "address",
							"name": "to",
							"type": "address"
						}
					],
					"name": "adminSweepToken",
					"outputs": [],
					"stateMutability": "nonpayable",
					"type": "function"
				},
				{
					"inputs": [
						{
							"internalType": "uint256",
							"name": "amount",
							"type": "uint256"
						}
					],
					"name": "adminWithdrawOperational",
					"outputs": [],
					"stateMutability": "nonpayable",
					"type": "function"
				},
				{
					"inputs": [
						{
							"internalType": "uint256",
							"name": "amount",
							"type": "uint256"
						}
					],
					"name": "adminWithdrawReserve",
					"outputs": [],
					"stateMutability": "nonpayable",
					"type": "function"
				},
				{
					"inputs": [
						{
							"internalType": "address",
							"name": "user",
							"type": "address"
						},
						{
							"internalType": "address",
							"name": "newReferrer",
							"type": "address"
						}
					],
					"name": "changeReferrer",
					"outputs": [],
					"stateMutability": "nonpayable",
					"type": "function"
				},
				{
					"inputs": [],
					"name": "emergencyActive",
					"outputs": [
						{
							"internalType": "bool",
							"name": "",
							"type": "bool"
						}
					],
					"stateMutability": "view",
					"type": "function"
				},
				{
					"inputs": [
						{
							"internalType": "uint256",
							"name": "poolId",
							"type": "uint256"
						},
						{
							"internalType": "string",
							"name": "poolType",
							"type": "string"
						}
					],
					"name": "forceCreatePool",
					"outputs": [],
					"stateMutability": "nonpayable",
					"type": "function"
				},
				{
					"inputs": [],
					"name": "getActivePoolId",
					"outputs": [
						{
							"internalType": "uint256",
							"name": "",
							"type": "uint256"
						}
					],
					"stateMutability": "view",
					"type": "function"
				},
				{
					"inputs": [
						{
							"internalType": "address",
							"name": "user",
							"type": "address"
						}
					],
					"name": "getClaimablePoolReward",
					"outputs": [
						{
							"internalType": "uint256",
							"name": "",
							"type": "uint256"
						}
					],
					"stateMutability": "view",
					"type": "function"
				},
				{
					"inputs": [
						{
							"internalType": "address",
							"name": "user",
							"type": "address"
						}
					],
					"name": "getClaimableReferral",
					"outputs": [
						{
							"internalType": "uint256",
							"name": "",
							"type": "uint256"
						}
					],
					"stateMutability": "view",
					"type": "function"
				},
				{
					"inputs": [],
					"name": "getNextPoolId",
					"outputs": [
						{
							"internalType": "uint256",
							"name": "",
							"type": "uint256"
						}
					],
					"stateMutability": "view",
					"type": "function"
				},
				{
					"inputs": [],
					"name": "inr1UpdatePending",
					"outputs": [
						{
							"internalType": "bool",
							"name": "",
							"type": "bool"
						}
					],
					"stateMutability": "view",
					"type": "function"
				},
				{
					"inputs": [],
					"name": "inrDecimals",
					"outputs": [
						{
							"internalType": "uint8",
							"name": "",
							"type": "uint8"
						}
					],
					"stateMutability": "view",
					"type": "function"
				},
				{
					"inputs": [
						{
							"internalType": "address",
							"name": "",
							"type": "address"
						}
					],
					"name": "isBlacklisted",
					"outputs": [
						{
							"internalType": "bool",
							"name": "",
							"type": "bool"
						}
					],
					"stateMutability": "view",
					"type": "function"
				},
				{
					"inputs": [
						{
							"internalType": "uint256",
							"name": "poolId",
							"type": "uint256"
						},
						{
							"internalType": "uint256",
							"name": "amount",
							"type": "uint256"
						},
						{
							"internalType": "bool",
							"name": "useUSD",
							"type": "bool"
						}
					],
					"name": "joinPool",
					"outputs": [],
					"stateMutability": "nonpayable",
					"type": "function"
				},
				{
					"inputs": [],
					"name": "lastCreatedPoolId",
					"outputs": [
						{
							"internalType": "uint256",
							"name": "",
							"type": "uint256"
						}
					],
					"stateMutability": "view",
					"type": "function"
				},
				{
					"inputs": [],
					"name": "operationalTreasury",
					"outputs": [
						{
							"internalType": "uint256",
							"name": "",
							"type": "uint256"
						}
					],
					"stateMutability": "view",
					"type": "function"
				},
				{
					"inputs": [],
					"name": "owner",
					"outputs": [
						{
							"internalType": "address",
							"name": "",
							"type": "address"
						}
					],
					"stateMutability": "view",
					"type": "function"
				},
				{
					"inputs": [],
					"name": "pendingINR1",
					"outputs": [
						{
							"internalType": "address",
							"name": "",
							"type": "address"
						}
					],
					"stateMutability": "view",
					"type": "function"
				},
				{
					"inputs": [
						{
							"internalType": "address",
							"name": "",
							"type": "address"
						}
					],
					"name": "pendingINR1Payout",
					"outputs": [
						{
							"internalType": "uint256",
							"name": "",
							"type": "uint256"
						}
					],
					"stateMutability": "view",
					"type": "function"
				},
				{
					"inputs": [],
					"name": "pendingUSD1",
					"outputs": [
						{
							"internalType": "address",
							"name": "",
							"type": "address"
						}
					],
					"stateMutability": "view",
					"type": "function"
				},
				{
					"inputs": [
						{
							"internalType": "uint256",
							"name": "",
							"type": "uint256"
						},
						{
							"internalType": "uint256",
							"name": "",
							"type": "uint256"
						}
					],
					"name": "poolOrders",
					"outputs": [
						{
							"internalType": "uint256",
							"name": "orderNo",
							"type": "uint256"
						},
						{
							"internalType": "address",
							"name": "user",
							"type": "address"
						},
						{
							"internalType": "uint256",
							"name": "investedAmount",
							"type": "uint256"
						},
						{
							"internalType": "uint256",
							"name": "interest",
							"type": "uint256"
						},
						{
							"internalType": "string",
							"name": "paymentToken",
							"type": "string"
						},
						{
							"internalType": "bool",
							"name": "paidOut",
							"type": "bool"
						}
					],
					"stateMutability": "view",
					"type": "function"
				},
				{
					"inputs": [
						{
							"internalType": "uint256",
							"name": "",
							"type": "uint256"
						}
					],
					"name": "pools",
					"outputs": [
						{
							"internalType": "uint256",
							"name": "poolId",
							"type": "uint256"
						},
						{
							"internalType": "string",
							"name": "poolType",
							"type": "string"
						},
						{
							"internalType": "uint256",
							"name": "currentFill",
							"type": "uint256"
						},
						{
							"internalType": "bool",
							"name": "isActive",
							"type": "bool"
						},
						{
							"internalType": "bool",
							"name": "paidOut",
							"type": "bool"
						},
						{
							"internalType": "uint256",
							"name": "totalInvested",
							"type": "uint256"
						}
					],
					"stateMutability": "view",
					"type": "function"
				},
				{
					"inputs": [
						{
							"internalType": "address",
							"name": "referrer",
							"type": "address"
						}
					],
					"name": "register",
					"outputs": [],
					"stateMutability": "nonpayable",
					"type": "function"
				},
				{
					"inputs": [],
					"name": "renounceOwnership",
					"outputs": [],
					"stateMutability": "nonpayable",
					"type": "function"
				},
				{
					"inputs": [],
					"name": "reserveTreasury",
					"outputs": [
						{
							"internalType": "uint256",
							"name": "",
							"type": "uint256"
						}
					],
					"stateMutability": "view",
					"type": "function"
				},
				{
					"inputs": [
						{
							"internalType": "bool",
							"name": "flag",
							"type": "bool"
						}
					],
					"name": "setEmergencyActive",
					"outputs": [],
					"stateMutability": "nonpayable",
					"type": "function"
				},
				{
					"inputs": [
						{
							"internalType": "address",
							"name": "newINR1",
							"type": "address"
						}
					],
					"name": "setINR1",
					"outputs": [],
					"stateMutability": "nonpayable",
					"type": "function"
				},
				{
					"inputs": [
						{
							"internalType": "uint8",
							"name": "_inrDecimals",
							"type": "uint8"
						},
						{
							"internalType": "uint8",
							"name": "_usdDecimals",
							"type": "uint8"
						}
					],
					"name": "setTokenDecimals",
					"outputs": [],
					"stateMutability": "nonpayable",
					"type": "function"
				},
				{
					"inputs": [
						{
							"internalType": "address",
							"name": "newUSD1",
							"type": "address"
						}
					],
					"name": "setUSD1",
					"outputs": [],
					"stateMutability": "nonpayable",
					"type": "function"
				},
				{
					"inputs": [],
					"name": "subadmin",
					"outputs": [
						{
							"internalType": "address",
							"name": "",
							"type": "address"
						}
					],
					"stateMutability": "view",
					"type": "function"
				},
				{
					"inputs": [
						{
							"internalType": "address",
							"name": "",
							"type": "address"
						}
					],
					"name": "tokenWhitelist",
					"outputs": [
						{
							"internalType": "bool",
							"name": "",
							"type": "bool"
						}
					],
					"stateMutability": "view",
					"type": "function"
				},
				{
					"inputs": [],
					"name": "totalInvestedAllPools",
					"outputs": [
						{
							"internalType": "uint256",
							"name": "",
							"type": "uint256"
						}
					],
					"stateMutability": "view",
					"type": "function"
				},
				{
					"inputs": [
						{
							"internalType": "address",
							"name": "newOwner",
							"type": "address"
						}
					],
					"name": "transferOwnership",
					"outputs": [],
					"stateMutability": "nonpayable",
					"type": "function"
				},
				{
					"inputs": [
						{
							"internalType": "uint256",
							"name": "poolId",
							"type": "uint256"
						}
					],
					"name": "triggerPayout",
					"outputs": [],
					"stateMutability": "nonpayable",
					"type": "function"
				},
				{
					"inputs": [],
					"name": "usd1UpdatePending",
					"outputs": [
						{
							"internalType": "bool",
							"name": "",
							"type": "bool"
						}
					],
					"stateMutability": "view",
					"type": "function"
				},
				{
					"inputs": [],
					"name": "usdDecimals",
					"outputs": [
						{
							"internalType": "uint8",
							"name": "",
							"type": "uint8"
						}
					],
					"stateMutability": "view",
					"type": "function"
				},
				{
					"inputs": [],
					"name": "usdInrParity",
					"outputs": [
						{
							"internalType": "uint256",
							"name": "",
							"type": "uint256"
						}
					],
					"stateMutability": "view",
					"type": "function"
				},
				{
					"inputs": [
						{
							"internalType": "address",
							"name": "",
							"type": "address"
						}
					],
					"name": "users",
					"outputs": [
						{
							"internalType": "address",
							"name": "referrer",
							"type": "address"
						},
						{
							"internalType": "uint256",
							"name": "invested",
							"type": "uint256"
						},
						{
							"internalType": "uint256",
							"name": "referralRewardTotal",
							"type": "uint256"
						},
						{
							"internalType": "uint256",
							"name": "referralWithdrawn",
							"type": "uint256"
						},
						{
							"internalType": "bool",
							"name": "registered",
							"type": "bool"
						}
					],
					"stateMutability": "view",
					"type": "function"
				},
				{
					"inputs": [],
					"name": "withdrawReferralReward",
					"outputs": [],
					"stateMutability": "nonpayable",
					"type": "function"
				},
				{
					"inputs": [],
					"name": "withdrawReward",
					"outputs": [],
					"stateMutability": "nonpayable",
					"type": "function"
				}
			],
			"devdoc": {
				"errors": {
					"OwnableInvalidOwner(address)": [
						{
							"details": "The owner is not a valid owner account. (eg. `address(0)`)"
						}
					],
					"OwnableUnauthorizedAccount(address)": [
						{
							"details": "The caller account is not authorized to perform an operation."
						}
					],
					"SafeERC20FailedOperation(address)": [
						{
							"details": "An operation with an ERC-20 token failed."
						}
					]
				},
				"kind": "dev",
				"methods": {
					"owner()": {
						"details": "Returns the address of the current owner."
					},
					"renounceOwnership()": {
						"details": "Leaves the contract without owner. It will not be possible to call `onlyOwner` functions. Can only be called by the current owner. NOTE: Renouncing ownership will leave the contract without an owner, thereby disabling any functionality that is only available to the owner."
					},
					"transferOwnership(address)": {
						"details": "Transfers ownership of the contract to a new account (`newOwner`). Can only be called by the current owner."
					}
				},
				"version": 1
			},
			"evm": {
				"assembly": "    /* \"LibertyFinancialChain/LiberttFinancial/genesispool.sol\":557:656  uint256[REFERRAL_LEVELS] public REFERRAL_PERCENTS = [... */\n  0x0160\n    /* \"LibertyFinancialChain/LiberttFinancial/genesispool.sol\":383:15404  contract GenesisPool is Ownable, ReentrancyGuard {... */\n  0x40\n    /* \"LibertyFinancialChain/LiberttFinancial/genesispool.sol\":557:656  uint256[REFERRAL_LEVELS] public REFERRAL_PERCENTS = [... */\n  mstore\n    /* \"LibertyFinancialChain/LiberttFinancial/genesispool.sol\":619:622  300 */\n  0x012c\n    /* \"LibertyFinancialChain/LiberttFinancial/genesispool.sol\":383:15404  contract GenesisPool is Ownable, ReentrancyGuard {... */\n  0x80\n    /* \"LibertyFinancialChain/LiberttFinancial/genesispool.sol\":557:656  uint256[REFERRAL_LEVELS] public REFERRAL_PERCENTS = [... */\n  swap1\n  dup2\n  mstore\n    /* \"LibertyFinancialChain/LiberttFinancial/genesispool.sol\":624:627  200 */\n  0xc8\n    /* \"LibertyFinancialChain/LiberttFinancial/genesispool.sol\":557:656  uint256[REFERRAL_LEVELS] public REFERRAL_PERCENTS = [... */\n  0xa0\n  mstore\n    /* \"LibertyFinancialChain/LiberttFinancial/genesispool.sol\":629:632  100 */\n  0x64\n    /* \"LibertyFinancialChain/LiberttFinancial/genesispool.sol\":557:656  uint256[REFERRAL_LEVELS] public REFERRAL_PERCENTS = [... */\n  0xc0\n  dup2\n  swap1\n  mstore\n  0xe0\n  dup2\n  swap1\n  mstore\n  0x0100\n  mstore\n    /* \"LibertyFinancialChain/LiberttFinancial/genesispool.sol\":644:646  50 */\n  0x32\n    /* \"LibertyFinancialChain/LiberttFinancial/genesispool.sol\":557:656  uint256[REFERRAL_LEVELS] public REFERRAL_PERCENTS = [... */\n  0x0120\n  mstore\n    /* \"LibertyFinancialChain/LiberttFinancial/genesispool.sol\":648:650  25 */\n  0x19\n    /* \"LibertyFinancialChain/LiberttFinancial/genesispool.sol\":557:656  uint256[REFERRAL_LEVELS] public REFERRAL_PERCENTS = [... */\n  0x0140\n  mstore\n  tag_1\n  swap1\n  0x02\n  swap1\n  0x07\n  tag_2\n  jump\t// in\ntag_1:\n  pop\n    /* \"LibertyFinancialChain/LiberttFinancial/genesispool.sol\":933:935  90 */\n  0x5a\n    /* \"LibertyFinancialChain/LiberttFinancial/genesispool.sol\":903:935  uint256 public usdInrParity = 90 */\n  0x0c\n  sstore\n    /* \"LibertyFinancialChain/LiberttFinancial/genesispool.sol\":3896:4920  constructor(address _subadmin, address _inr1, address _usd1) Ownable(msg.sender) {... */\n  callvalue\n  dup1\n  iszero\n  tag_3\n  jumpi\n  0x00\n  dup1\n  revert\ntag_3:\n  pop\n  mload(0x40)\n  sub(codesize, bytecodeSize)\n  dup1\n  bytecodeSize\n  dup4\n  codecopy\n  dup2\n  add\n  0x40\n  dup2\n  swap1\n  mstore\n  tag_4\n  swap2\n  tag_5\n  jump\t// in\ntag_4:\n    /* \"LibertyFinancialChain/LiberttFinancial/genesispool.sol\":3965:3975  msg.sender */\n  caller\n  dup1\n    /* \"@openzeppelin/contracts/access/Ownable.sol\":1269:1364  if (initialOwner == address(0)) {... */\n  tag_10\n  jumpi\n    /* \"@openzeppelin/contracts/access/Ownable.sol\":1322:1353  OwnableInvalidOwner(address(0)) */\n  mload(0x40)\n  shl(0xe0, 0x1e4fbdf7)\n  dup2\n  mstore\n    /* \"@openzeppelin/contracts/access/Ownable.sol\":1350:1351  0 */\n  0x00\n    /* \"@openzeppelin/contracts/access/Ownable.sol\":1322:1353  OwnableInvalidOwner(address(0)) */\n  0x04\n  dup3\n  add\n    /* \"#utility.yul\":725:776   */\n  mstore\n    /* \"#utility.yul\":698:716   */\n  0x24\n  add\n    /* \"@openzeppelin/contracts/access/Ownable.sol\":1322:1353  OwnableInvalidOwner(address(0)) */\ntag_11:\n  mload(0x40)\n  dup1\n  swap2\n  sub\n  swap1\n  revert\n    /* \"@openzeppelin/contracts/access/Ownable.sol\":1269:1364  if (initialOwner == address(0)) {... */\ntag_10:\n    /* \"@openzeppelin/contracts/access/Ownable.sol\":1373:1405  _transferOwnership(initialOwner) */\n  tag_13\n    /* \"@openzeppelin/contracts/access/Ownable.sol\":1392:1404  initialOwner */\n  dup2\n    /* \"@openzeppelin/contracts/access/Ownable.sol\":1373:1391  _transferOwnership */\n  tag_14\n    /* \"@openzeppelin/contracts/access/Ownable.sol\":1373:1405  _transferOwnership(initialOwner) */\n  jump\t// in\ntag_13:\n  pop\n    /* \"@openzeppelin/contracts/security/ReentrancyGuard.sol\":1716:1717  1 */\n  0x01\n    /* \"@openzeppelin/contracts/security/ReentrancyGuard.sol\":1821:1843  _status = _NOT_ENTERED */\n  dup1\n  sstore\n  sub(shl(0xa0, 0x01), 0x01)\n    /* \"LibertyFinancialChain/LiberttFinancial/genesispool.sol\":3995:4018  _subadmin != address(0) */\n  dup4\n  and\n    /* \"LibertyFinancialChain/LiberttFinancial/genesispool.sol\":3987:4040  require(_subadmin != address(0), \"Subadmin required\") */\n  tag_17\n  jumpi\n  mload(0x40)\n  shl(0xe5, 0x461bcd)\n  dup2\n  mstore\n    /* \"#utility.yul\":989:991   */\n  0x20\n    /* \"LibertyFinancialChain/LiberttFinancial/genesispool.sol\":3987:4040  require(_subadmin != address(0), \"Subadmin required\") */\n  0x04\n  dup3\n  add\n    /* \"#utility.yul\":971:992   */\n  mstore\n    /* \"#utility.yul\":1028:1030   */\n  0x11\n    /* \"#utility.yul\":1008:1026   */\n  0x24\n  dup3\n  add\n    /* \"#utility.yul\":1001:1031   */\n  mstore\n  shl(0x7a, 0x14dd5898591b5a5b881c995c5d5a5c9959)\n    /* \"#utility.yul\":1047:1065   */\n  0x44\n  dup3\n  add\n    /* \"#utility.yul\":1040:1087   */\n  mstore\n    /* \"#utility.yul\":1104:1122   */\n  0x64\n  add\n    /* \"LibertyFinancialChain/LiberttFinancial/genesispool.sol\":3987:4040  require(_subadmin != address(0), \"Subadmin required\") */\n  tag_11\n    /* \"#utility.yul\":787:1128   */\n  jump\n    /* \"LibertyFinancialChain/LiberttFinancial/genesispool.sol\":3987:4040  require(_subadmin != address(0), \"Subadmin required\") */\ntag_17:\n  sub(shl(0xa0, 0x01), 0x01)\n    /* \"LibertyFinancialChain/LiberttFinancial/genesispool.sol\":4058:4077  _inr1 != address(0) */\n  dup3\n  and\n  iszero\n  dup1\n  iszero\n  swap1\n    /* \"LibertyFinancialChain/LiberttFinancial/genesispool.sol\":4058:4100  _inr1 != address(0) && _usd1 != address(0) */\n  tag_20\n  jumpi\n  pop\n  sub(shl(0xa0, 0x01), 0x01)\n    /* \"LibertyFinancialChain/LiberttFinancial/genesispool.sol\":4081:4100  _usd1 != address(0) */\n  dup2\n  and\n  iszero\n  iszero\n    /* \"LibertyFinancialChain/LiberttFinancial/genesispool.sol\":4058:4100  _inr1 != address(0) && _usd1 != address(0) */\ntag_20:\n    /* \"LibertyFinancialChain/LiberttFinancial/genesispool.sol\":4050:4120  require(_inr1 != address(0) && _usd1 != address(0), \"Tokens required\") */\n  tag_21\n  jumpi\n  mload(0x40)\n  shl(0xe5, 0x461bcd)\n  dup2\n  mstore\n    /* \"#utility.yul\":1335:1337   */\n  0x20\n    /* \"LibertyFinancialChain/LiberttFinancial/genesispool.sol\":4050:4120  require(_inr1 != address(0) && _usd1 != address(0), \"Tokens required\") */\n  0x04\n  dup3\n  add\n    /* \"#utility.yul\":1317:1338   */\n  mstore\n    /* \"#utility.yul\":1374:1376   */\n  0x0f\n    /* \"#utility.yul\":1354:1372   */\n  0x24\n  dup3\n  add\n    /* \"#utility.yul\":1347:1377   */\n  mstore\n  shl(0x8a, 0x151bdad95b9cc81c995c5d5a5c9959)\n    /* \"#utility.yul\":1393:1411   */\n  0x44\n  dup3\n  add\n    /* \"#utility.yul\":1386:1431   */\n  mstore\n    /* \"#utility.yul\":1448:1466   */\n  0x64\n  add\n    /* \"LibertyFinancialChain/LiberttFinancial/genesispool.sol\":4050:4120  require(_inr1 != address(0) && _usd1 != address(0), \"Tokens required\") */\n  tag_11\n    /* \"#utility.yul\":1133:1472   */\n  jump\n    /* \"LibertyFinancialChain/LiberttFinancial/genesispool.sol\":4050:4120  require(_inr1 != address(0) && _usd1 != address(0), \"Tokens required\") */\ntag_21:\n    /* \"LibertyFinancialChain/LiberttFinancial/genesispool.sol\":4130:4138  subadmin */\n  0x0b\n    /* \"LibertyFinancialChain/LiberttFinancial/genesispool.sol\":4130:4150  subadmin = _subadmin */\n  dup1\n  sload\n  sub(shl(0xa0, 0x01), 0x01)\n  dup1\n  dup7\n  and\n  not(sub(shl(0xa0, 0x01), 0x01))\n  swap3\n  dup4\n  and\n  or\n  swap1\n  swap3\n  sstore\n    /* \"LibertyFinancialChain/LiberttFinancial/genesispool.sol\":4160:4164  INR1 */\n  0x09\n    /* \"LibertyFinancialChain/LiberttFinancial/genesispool.sol\":4160:4180  INR1 = IERC20(_inr1) */\n  dup1\n  sload\n  dup6\n  dup5\n  and\n  swap1\n  dup4\n  and\n  dup2\n  or\n  swap1\n  swap2\n  sstore\n    /* \"LibertyFinancialChain/LiberttFinancial/genesispool.sol\":4190:4194  USD1 */\n  0x0a\n    /* \"LibertyFinancialChain/LiberttFinancial/genesispool.sol\":4190:4210  USD1 = IERC20(_usd1) */\n  dup1\n  sload\n  swap4\n  dup6\n  and\n  swap4\n  swap1\n  swap3\n  and\n  swap3\n  swap1\n  swap3\n  or\n  swap1\n  sstore\n    /* \"LibertyFinancialChain/LiberttFinancial/genesispool.sol\":4234:4266  IERC20Metadata(_inr1).decimals() */\n  0x40\n  dup1\n  mload\n  shl(0xe0, 0x313ce567)\n  dup2\n  mstore\n  swap1\n  mload\n    /* \"LibertyFinancialChain/LiberttFinancial/genesispool.sol\":4234:4264  IERC20Metadata(_inr1).decimals */\n  0x313ce567\n  swap2\n    /* \"LibertyFinancialChain/LiberttFinancial/genesispool.sol\":4234:4266  IERC20Metadata(_inr1).decimals() */\n  0x04\n  dup1\n  dup3\n  add\n  swap3\n  0x20\n  swap3\n  swap1\n  swap2\n  swap1\n  dup3\n  swap1\n  sub\n  add\n  dup2\n    /* \"LibertyFinancialChain/LiberttFinancial/genesispool.sol\":4160:4180  INR1 = IERC20(_inr1) */\n  dup7\n    /* \"LibertyFinancialChain/LiberttFinancial/genesispool.sol\":4234:4266  IERC20Metadata(_inr1).decimals() */\n  gas\n  staticcall\n  iszero\n  dup1\n  iszero\n  tag_25\n  jumpi\n  returndatasize\n  0x00\n  dup1\n  returndatacopy\n  revert(0x00, returndatasize)\ntag_25:\n  pop\n  pop\n  pop\n  pop\n  mload(0x40)\n  returndatasize\n  not(0x1f)\n  0x1f\n  dup3\n  add\n  and\n  dup3\n  add\n  dup1\n  0x40\n  mstore\n  pop\n  dup2\n  add\n  swap1\n  tag_26\n  swap2\n  swap1\n  tag_27\n  jump\t// in\ntag_26:\n    /* \"LibertyFinancialChain/LiberttFinancial/genesispool.sol\":4220:4231  inrDecimals */\n  0x0b\n  0x14\n    /* \"LibertyFinancialChain/LiberttFinancial/genesispool.sol\":4220:4266  inrDecimals = IERC20Metadata(_inr1).decimals() */\n  0x0100\n  exp\n  dup2\n  sload\n  dup2\n  0xff\n  mul\n  not\n  and\n  swap1\n  dup4\n  0xff\n  and\n  mul\n  or\n  swap1\n  sstore\n  pop\n    /* \"LibertyFinancialChain/LiberttFinancial/genesispool.sol\":4305:4310  _usd1 */\n  dup1\n  sub(shl(0xa0, 0x01), 0x01)\n    /* \"LibertyFinancialChain/LiberttFinancial/genesispool.sol\":4290:4320  IERC20Metadata(_usd1).decimals */\n  and\n  0x313ce567\n    /* \"LibertyFinancialChain/LiberttFinancial/genesispool.sol\":4290:4322  IERC20Metadata(_usd1).decimals() */\n  mload(0x40)\n  dup2\n  0xffffffff\n  and\n  0xe0\n  shl\n  dup2\n  mstore\n  0x04\n  add\n  0x20\n  mload(0x40)\n  dup1\n  dup4\n  sub\n  dup2\n  dup7\n  gas\n  staticcall\n  iszero\n  dup1\n  iszero\n  tag_29\n  jumpi\n  returndatasize\n  0x00\n  dup1\n  returndatacopy\n  revert(0x00, returndatasize)\ntag_29:\n  pop\n  pop\n  pop\n  pop\n  mload(0x40)\n  returndatasize\n  not(0x1f)\n  0x1f\n  dup3\n  add\n  and\n  dup3\n  add\n  dup1\n  0x40\n  mstore\n  pop\n  dup2\n  add\n  swap1\n  tag_30\n  swap2\n  swap1\n  tag_27\n  jump\t// in\ntag_30:\n    /* \"LibertyFinancialChain/LiberttFinancial/genesispool.sol\":4276:4287  usdDecimals */\n  0x0b\n    /* \"LibertyFinancialChain/LiberttFinancial/genesispool.sol\":4276:4322  usdDecimals = IERC20Metadata(_usd1).decimals() */\n  dup1\n  sload\n  0xff\n  swap3\n  swap1\n  swap3\n  and\n  shl(0xa8, 0x01)\n  mul\n  not(shl(0xa8, 0xff))\n  swap1\n  swap3\n  and\n  swap2\n  swap1\n  swap2\n  or\n  swap1\n  sstore\n  sub(shl(0xa0, 0x01), 0x01)\n    /* \"LibertyFinancialChain/LiberttFinancial/genesispool.sol\":4332:4353  tokenWhitelist[_inr1] */\n  dup1\n  dup4\n  and\n  0x00\n  swap1\n  dup2\n  mstore\n    /* \"LibertyFinancialChain/LiberttFinancial/genesispool.sol\":4332:4346  tokenWhitelist */\n  0x0d\n    /* \"LibertyFinancialChain/LiberttFinancial/genesispool.sol\":4332:4353  tokenWhitelist[_inr1] */\n  0x20\n  mstore\n  0x40\n  dup1\n  dup3\n  keccak256\n    /* \"LibertyFinancialChain/LiberttFinancial/genesispool.sol\":4332:4360  tokenWhitelist[_inr1] = true */\n  dup1\n  sload\n  not(0xff)\n  swap1\n  dup2\n  and\n  0x01\n  swap1\n  dup2\n  or\n  swap1\n  swap3\n  sstore\n    /* \"LibertyFinancialChain/LiberttFinancial/genesispool.sol\":4370:4391  tokenWhitelist[_usd1] */\n  swap4\n  dup6\n  and\n  dup4\n  mstore\n  swap2\n  keccak256\n    /* \"LibertyFinancialChain/LiberttFinancial/genesispool.sol\":4370:4398  tokenWhitelist[_usd1] = true */\n  dup1\n  sload\n  swap1\n  swap3\n  and\n  dup2\n  or\n  swap1\n  swap2\n  sstore\n    /* \"LibertyFinancialChain/LiberttFinancial/genesispool.sol\":4487:4674  for (; poolCounter <= 9; ++poolCounter) {... */\ntag_31:\n    /* \"LibertyFinancialChain/LiberttFinancial/genesispool.sol\":4509:4510  9 */\n  0x09\n    /* \"LibertyFinancialChain/LiberttFinancial/genesispool.sol\":4494:4505  poolCounter */\n  dup2\n    /* \"LibertyFinancialChain/LiberttFinancial/genesispool.sol\":4494:4510  poolCounter <= 9 */\n  gt\n    /* \"LibertyFinancialChain/LiberttFinancial/genesispool.sol\":4487:4674  for (; poolCounter <= 9; ++poolCounter) {... */\n  tag_32\n  jumpi\n    /* \"LibertyFinancialChain/LiberttFinancial/genesispool.sol\":4562:4610  Pool(poolCounter, \"Standard\", 0, true, false, 0) */\n  0x40\n  dup1\n  mload\n  0xc0\n  dup2\n  add\n  dup3\n  mstore\n  dup3\n  dup2\n  mstore\n  dup2\n  mload\n  dup1\n  dup4\n  add\n  dup4\n  mstore\n  0x08\n  dup2\n  mstore\n  shl(0xc2, 0x14dd185b99185c99)\n  0x20\n  dup3\n  dup2\n  add\n  swap2\n  swap1\n  swap2\n  mstore\n  dup1\n  dup4\n  add\n  swap2\n  dup3\n  mstore\n  0x00\n  dup4\n  dup6\n  add\n  dup2\n  swap1\n  mstore\n    /* \"LibertyFinancialChain/LiberttFinancial/genesispool.sol\":4595:4599  true */\n  0x01\n    /* \"LibertyFinancialChain/LiberttFinancial/genesispool.sol\":4562:4610  Pool(poolCounter, \"Standard\", 0, true, false, 0) */\n  0x60\n  dup6\n  add\n  dup2\n  swap1\n  mstore\n  0x80\n  dup6\n  add\n  dup3\n  swap1\n  mstore\n  0xa0\n  dup6\n  add\n  dup3\n  swap1\n  mstore\n    /* \"LibertyFinancialChain/LiberttFinancial/genesispool.sol\":4541:4559  pools[poolCounter] */\n  dup7\n  dup3\n  mstore\n    /* \"LibertyFinancialChain/LiberttFinancial/genesispool.sol\":4541:4546  pools */\n  0x10\n    /* \"LibertyFinancialChain/LiberttFinancial/genesispool.sol\":4541:4559  pools[poolCounter] */\n  swap1\n  swap3\n  mstore\n  swap4\n  swap1\n  swap4\n  keccak256\n    /* \"LibertyFinancialChain/LiberttFinancial/genesispool.sol\":4541:4610  pools[poolCounter] = Pool(poolCounter, \"Standard\", 0, true, false, 0) */\n  dup3\n  mload\n  dup2\n  sstore\n  swap1\n  mload\n    /* \"LibertyFinancialChain/LiberttFinancial/genesispool.sol\":4562:4610  Pool(poolCounter, \"Standard\", 0, true, false, 0) */\n  swap2\n  swap3\n    /* \"LibertyFinancialChain/LiberttFinancial/genesispool.sol\":4541:4559  pools[poolCounter] */\n  swap1\n  swap2\n    /* \"LibertyFinancialChain/LiberttFinancial/genesispool.sol\":4541:4610  pools[poolCounter] = Pool(poolCounter, \"Standard\", 0, true, false, 0) */\n  swap1\n  dup3\n  add\n  swap1\n  tag_34\n  swap1\n  dup3\n  tag_35\n  jump\t// in\ntag_34:\n  pop\n  0x40\n  dup3\n  dup2\n  add\n  mload\n  0x02\n  dup4\n  add\n  sstore\n  0x60\n  dup4\n  add\n  mload\n  0x03\n  dup4\n  add\n  dup1\n  sload\n  0x80\n  dup7\n  add\n  mload\n  iszero\n  iszero\n  0x0100\n  mul\n  not(0xff00)\n  swap4\n  iszero\n  iszero\n  swap4\n  swap1\n  swap4\n  and\n  not(0xffff)\n  swap1\n  swap2\n  and\n  or\n  swap2\n  swap1\n  swap2\n  or\n  swap1\n  sstore\n  0xa0\n  swap1\n  swap3\n  add\n  mload\n  0x04\n  swap1\n  swap2\n  add\n  sstore\n    /* \"LibertyFinancialChain/LiberttFinancial/genesispool.sol\":4629:4663  PoolAdded(poolCounter, \"Standard\") */\n  mload\n    /* \"LibertyFinancialChain/LiberttFinancial/genesispool.sol\":4639:4650  poolCounter */\n  dup2\n  swap1\n  0x00\n  dup1\n  mload\n  0x20\n  data_dd7a3a8b928dd909bc624be998f807409b30098ea5130ab2bd535bc7ef7de645\n  dup4\n  codecopy\n  dup2\n  mload\n  swap2\n  mstore\n    /* \"LibertyFinancialChain/LiberttFinancial/genesispool.sol\":4629:4663  PoolAdded(poolCounter, \"Standard\") */\n  swap1\n  tag_36\n  swap1\n    /* \"#utility.yul\":4678:4680   */\n  0x20\n    /* \"#utility.yul\":4660:4681   */\n  dup1\n  dup3\n  mstore\n    /* \"#utility.yul\":4717:4718   */\n  0x08\n    /* \"#utility.yul\":4697:4715   */\n  swap1\n  dup3\n  add\n    /* \"#utility.yul\":4690:4719   */\n  mstore\n  shl(0xc2, 0x14dd185b99185c99)\n    /* \"#utility.yul\":4750:4752   */\n  0x40\n    /* \"#utility.yul\":4735:4753   */\n  dup3\n  add\n    /* \"#utility.yul\":4728:4766   */\n  mstore\n    /* \"#utility.yul\":4798:4800   */\n  0x60\n    /* \"#utility.yul\":4783:4801   */\n  add\n  swap1\n    /* \"#utility.yul\":4476:4807   */\n  jump\n    /* \"LibertyFinancialChain/LiberttFinancial/genesispool.sol\":4629:4663  PoolAdded(poolCounter, \"Standard\") */\ntag_36:\n  mload(0x40)\n  dup1\n  swap2\n  sub\n  swap1\n  log2\n    /* \"LibertyFinancialChain/LiberttFinancial/genesispool.sol\":4512:4525  ++poolCounter */\n  tag_38\n  dup2\n  tag_39\n  jump\t// in\ntag_38:\n  swap1\n  pop\n    /* \"LibertyFinancialChain/LiberttFinancial/genesispool.sol\":4487:4674  for (; poolCounter <= 9; ++poolCounter) {... */\n  jump(tag_31)\ntag_32:\n    /* \"LibertyFinancialChain/LiberttFinancial/genesispool.sol\":4705:4707  12 */\n  0x0c\n    /* \"LibertyFinancialChain/LiberttFinancial/genesispool.sol\":4690:4701  poolCounter */\n  dup2\n    /* \"LibertyFinancialChain/LiberttFinancial/genesispool.sol\":4690:4707  poolCounter <= 12 */\n  gt\n    /* \"LibertyFinancialChain/LiberttFinancial/genesispool.sol\":4683:4869  for (; poolCounter <= 12; ++poolCounter) {... */\n  tag_41\n  jumpi\n    /* \"LibertyFinancialChain/LiberttFinancial/genesispool.sol\":4759:4806  Pool(poolCounter, \"Lottery\", 0, true, false, 0) */\n  0x40\n  dup1\n  mload\n  0xc0\n  dup2\n  add\n  dup3\n  mstore\n  dup3\n  dup2\n  mstore\n  dup2\n  mload\n  dup1\n  dup4\n  add\n  dup4\n  mstore\n  0x07\n  dup2\n  mstore\n  shl(0xc8, 0x4c6f7474657279)\n  0x20\n  dup3\n  dup2\n  add\n  swap2\n  swap1\n  swap2\n  mstore\n  dup1\n  dup4\n  add\n  swap2\n  dup3\n  mstore\n  0x00\n  dup4\n  dup6\n  add\n  dup2\n  swap1\n  mstore\n    /* \"LibertyFinancialChain/LiberttFinancial/genesispool.sol\":4791:4795  true */\n  0x01\n    /* \"LibertyFinancialChain/LiberttFinancial/genesispool.sol\":4759:4806  Pool(poolCounter, \"Lottery\", 0, true, false, 0) */\n  0x60\n  dup6\n  add\n  dup2\n  swap1\n  mstore\n  0x80\n  dup6\n  add\n  dup3\n  swap1\n  mstore\n  0xa0\n  dup6\n  add\n  dup3\n  swap1\n  mstore\n    /* \"LibertyFinancialChain/LiberttFinancial/genesispool.sol\":4738:4756  pools[poolCounter] */\n  dup7\n  dup3\n  mstore\n    /* \"LibertyFinancialChain/LiberttFinancial/genesispool.sol\":4738:4743  pools */\n  0x10\n    /* \"LibertyFinancialChain/LiberttFinancial/genesispool.sol\":4738:4756  pools[poolCounter] */\n  swap1\n  swap3\n  mstore\n  swap4\n  swap1\n  swap4\n  keccak256\n    /* \"LibertyFinancialChain/LiberttFinancial/genesispool.sol\":4738:4806  pools[poolCounter] = Pool(poolCounter, \"Lottery\", 0, true, false, 0) */\n  dup3\n  mload\n  dup2\n  sstore\n  swap1\n  mload\n    /* \"LibertyFinancialChain/LiberttFinancial/genesispool.sol\":4759:4806  Pool(poolCounter, \"Lottery\", 0, true, false, 0) */\n  swap2\n  swap3\n    /* \"LibertyFinancialChain/LiberttFinancial/genesispool.sol\":4738:4756  pools[poolCounter] */\n  swap1\n  swap2\n    /* \"LibertyFinancialChain/LiberttFinancial/genesispool.sol\":4738:4806  pools[poolCounter] = Pool(poolCounter, \"Lottery\", 0, true, false, 0) */\n  swap1\n  dup3\n  add\n  swap1\n  tag_43\n  swap1\n  dup3\n  tag_35\n  jump\t// in\ntag_43:\n  pop\n  0x40\n  dup3\n  dup2\n  add\n  mload\n  0x02\n  dup4\n  add\n  sstore\n  0x60\n  dup4\n  add\n  mload\n  0x03\n  dup4\n  add\n  dup1\n  sload\n  0x80\n  dup7\n  add\n  mload\n  iszero\n  iszero\n  0x0100\n  mul\n  not(0xff00)\n  swap4\n  iszero\n  iszero\n  swap4\n  swap1\n  swap4\n  and\n  not(0xffff)\n  swap1\n  swap2\n  and\n  or\n  swap2\n  swap1\n  swap2\n  or\n  swap1\n  sstore\n  0xa0\n  swap1\n  swap3\n  add\n  mload\n  0x04\n  swap1\n  swap2\n  add\n  sstore\n    /* \"LibertyFinancialChain/LiberttFinancial/genesispool.sol\":4825:4858  PoolAdded(poolCounter, \"Lottery\") */\n  mload\n    /* \"LibertyFinancialChain/LiberttFinancial/genesispool.sol\":4835:4846  poolCounter */\n  dup2\n  swap1\n  0x00\n  dup1\n  mload\n  0x20\n  data_dd7a3a8b928dd909bc624be998f807409b30098ea5130ab2bd535bc7ef7de645\n  dup4\n  codecopy\n  dup2\n  mload\n  swap2\n  mstore\n    /* \"LibertyFinancialChain/LiberttFinancial/genesispool.sol\":4825:4858  PoolAdded(poolCounter, \"Lottery\") */\n  swap1\n  tag_44\n  swap1\n    /* \"#utility.yul\":5286:5288   */\n  0x20\n    /* \"#utility.yul\":5268:5289   */\n  dup1\n  dup3\n  mstore\n    /* \"#utility.yul\":5325:5326   */\n  0x07\n    /* \"#utility.yul\":5305:5323   */\n  swap1\n  dup3\n  add\n    /* \"#utility.yul\":5298:5327   */\n  mstore\n  shl(0xc8, 0x4c6f7474657279)\n    /* \"#utility.yul\":5358:5360   */\n  0x40\n    /* \"#utility.yul\":5343:5361   */\n  dup3\n  add\n    /* \"#utility.yul\":5336:5373   */\n  mstore\n    /* \"#utility.yul\":5405:5407   */\n  0x60\n    /* \"#utility.yul\":5390:5408   */\n  add\n  swap1\n    /* \"#utility.yul\":5084:5414   */\n  jump\n    /* \"LibertyFinancialChain/LiberttFinancial/genesispool.sol\":4825:4858  PoolAdded(poolCounter, \"Lottery\") */\ntag_44:\n  mload(0x40)\n  dup1\n  swap2\n  sub\n  swap1\n  log2\n    /* \"LibertyFinancialChain/LiberttFinancial/genesispool.sol\":4709:4722  ++poolCounter */\n  tag_46\n  dup2\n  tag_39\n  jump\t// in\ntag_46:\n  swap1\n  pop\n    /* \"LibertyFinancialChain/LiberttFinancial/genesispool.sol\":4683:4869  for (; poolCounter <= 12; ++poolCounter) {... */\n  jump(tag_32)\ntag_41:\n    /* \"LibertyFinancialChain/LiberttFinancial/genesispool.sol\":4898:4913  poolCounter - 1 */\n  tag_47\n    /* \"LibertyFinancialChain/LiberttFinancial/genesispool.sol\":4912:4913  1 */\n  0x01\n    /* \"LibertyFinancialChain/LiberttFinancial/genesispool.sol\":4898:4909  poolCounter */\n  dup3\n    /* \"LibertyFinancialChain/LiberttFinancial/genesispool.sol\":4898:4913  poolCounter - 1 */\n  tag_48\n  jump\t// in\ntag_47:\n    /* \"LibertyFinancialChain/LiberttFinancial/genesispool.sol\":4878:4895  lastCreatedPoolId */\n  0x11\n    /* \"LibertyFinancialChain/LiberttFinancial/genesispool.sol\":4878:4913  lastCreatedPoolId = poolCounter - 1 */\n  sstore\n  pop\n    /* \"LibertyFinancialChain/LiberttFinancial/genesispool.sol\":383:15404  contract GenesisPool is Ownable, ReentrancyGuard {... */\n  tag_65\n  swap3\n  pop\n  pop\n  pop\n  jump\n    /* \"@openzeppelin/contracts/access/Ownable.sol\":2912:3099  function _transferOwnership(address newOwner) internal virtual {... */\ntag_14:\n    /* \"@openzeppelin/contracts/access/Ownable.sol\":2985:3001  address oldOwner */\n  0x00\n    /* \"@openzeppelin/contracts/access/Ownable.sol\":3004:3010  _owner */\n  dup1\n  sload\n  sub(shl(0xa0, 0x01), 0x01)\n    /* \"@openzeppelin/contracts/access/Ownable.sol\":3020:3037  _owner = newOwner */\n  dup4\n  dup2\n  and\n  not(sub(shl(0xa0, 0x01), 0x01))\n  dup4\n  and\n  dup2\n  or\n  dup5\n  sstore\n    /* \"@openzeppelin/contracts/access/Ownable.sol\":3052:3092  OwnershipTransferred(oldOwner, newOwner) */\n  mload(0x40)\n    /* \"@openzeppelin/contracts/access/Ownable.sol\":3004:3010  _owner */\n  swap2\n  swap1\n  swap3\n  and\n  swap3\n  dup4\n  swap2\n    /* \"@openzeppelin/contracts/access/Ownable.sol\":3052:3092  OwnershipTransferred(oldOwner, newOwner) */\n  0x8be0079c531659141344cd1fd0a4f28419497f9722a3daafe3b4186f6b6457e0\n  swap2\n    /* \"@openzeppelin/contracts/access/Ownable.sol\":2985:3001  address oldOwner */\n  swap1\n    /* \"@openzeppelin/contracts/access/Ownable.sol\":3052:3092  OwnershipTransferred(oldOwner, newOwner) */\n  log3\n    /* \"@openzeppelin/contracts/access/Ownable.sol\":2975:3099  {... */\n  pop\n    /* \"@openzeppelin/contracts/access/Ownable.sol\":2912:3099  function _transferOwnership(address newOwner) internal virtual {... */\n  pop\n  jump\t// out\n    /* \"LibertyFinancialChain/LiberttFinancial/genesispool.sol\":383:15404  contract GenesisPool is Ownable, ReentrancyGuard {... */\ntag_2:\n  dup3\n  0x07\n  dup2\n  add\n  swap3\n  dup3\n  iszero\n  tag_53\n  jumpi\n  swap2\n  0x20\n  mul\n  dup3\n  add\ntag_52:\n  dup3\n  dup2\n  gt\n  iszero\n  tag_53\n  jumpi\n  dup3\n  mload\n  dup3\n  swap1\n  0xffff\n  and\n  swap1\n  sstore\n  swap2\n  0x20\n  add\n  swap2\n  swap1\n  0x01\n  add\n  swap1\n  jump(tag_52)\ntag_53:\n  pop\n  tag_54\n  swap3\n  swap2\n  pop\n  tag_55\n  jump\t// in\ntag_54:\n  pop\n  swap1\n  jump\t// out\ntag_55:\ntag_56:\n  dup1\n  dup3\n  gt\n  iszero\n  tag_54\n  jumpi\n  0x00\n  dup2\n  sstore\n  0x01\n  add\n  jump(tag_56)\n    /* \"#utility.yul\":14:191   */\ntag_58:\n    /* \"#utility.yul\":93:106   */\n  dup1\n  mload\n  sub(shl(0xa0, 0x01), 0x01)\n    /* \"#utility.yul\":135:166   */\n  dup2\n  and\n    /* \"#utility.yul\":125:167   */\n  dup2\n  eq\n    /* \"#utility.yul\":115:185   */\n  tag_67\n  jumpi\n    /* \"#utility.yul\":181:182   */\n  0x00\n    /* \"#utility.yul\":178:179   */\n  dup1\n    /* \"#utility.yul\":171:183   */\n  revert\n    /* \"#utility.yul\":115:185   */\ntag_67:\n    /* \"#utility.yul\":14:191   */\n  swap2\n  swap1\n  pop\n  jump\t// out\n    /* \"#utility.yul\":196:574   */\ntag_5:\n    /* \"#utility.yul\":284:290   */\n  0x00\n    /* \"#utility.yul\":292:298   */\n  dup1\n    /* \"#utility.yul\":300:306   */\n  0x00\n    /* \"#utility.yul\":353:355   */\n  0x60\n    /* \"#utility.yul\":341:350   */\n  dup5\n    /* \"#utility.yul\":332:339   */\n  dup7\n    /* \"#utility.yul\":328:351   */\n  sub\n    /* \"#utility.yul\":324:356   */\n  slt\n    /* \"#utility.yul\":321:373   */\n  iszero\n  tag_69\n  jumpi\n    /* \"#utility.yul\":369:370   */\n  0x00\n    /* \"#utility.yul\":366:367   */\n  dup1\n    /* \"#utility.yul\":359:371   */\n  revert\n    /* \"#utility.yul\":321:373   */\ntag_69:\n    /* \"#utility.yul\":392:432   */\n  tag_70\n    /* \"#utility.yul\":422:431   */\n  dup5\n    /* \"#utility.yul\":392:432   */\n  tag_58\n  jump\t// in\ntag_70:\n    /* \"#utility.yul\":382:432   */\n  swap3\n  pop\n    /* \"#utility.yul\":451:500   */\n  tag_71\n    /* \"#utility.yul\":496:498   */\n  0x20\n    /* \"#utility.yul\":485:494   */\n  dup6\n    /* \"#utility.yul\":481:499   */\n  add\n    /* \"#utility.yul\":451:500   */\n  tag_58\n  jump\t// in\ntag_71:\n    /* \"#utility.yul\":441:500   */\n  swap2\n  pop\n    /* \"#utility.yul\":519:568   */\n  tag_72\n    /* \"#utility.yul\":564:566   */\n  0x40\n    /* \"#utility.yul\":553:562   */\n  dup6\n    /* \"#utility.yul\":549:567   */\n  add\n    /* \"#utility.yul\":519:568   */\n  tag_58\n  jump\t// in\ntag_72:\n    /* \"#utility.yul\":509:568   */\n  swap1\n  pop\n    /* \"#utility.yul\":196:574   */\n  swap3\n  pop\n  swap3\n  pop\n  swap3\n  jump\t// out\n    /* \"#utility.yul\":1477:1750   */\ntag_27:\n    /* \"#utility.yul\":1545:1551   */\n  0x00\n    /* \"#utility.yul\":1598:1600   */\n  0x20\n    /* \"#utility.yul\":1586:1595   */\n  dup3\n    /* \"#utility.yul\":1577:1584   */\n  dup5\n    /* \"#utility.yul\":1573:1596   */\n  sub\n    /* \"#utility.yul\":1569:1601   */\n  slt\n    /* \"#utility.yul\":1566:1618   */\n  iszero\n  tag_77\n  jumpi\n    /* \"#utility.yul\":1614:1615   */\n  0x00\n    /* \"#utility.yul\":1611:1612   */\n  dup1\n    /* \"#utility.yul\":1604:1616   */\n  revert\n    /* \"#utility.yul\":1566:1618   */\ntag_77:\n    /* \"#utility.yul\":1646:1655   */\n  dup2\n    /* \"#utility.yul\":1640:1656   */\n  mload\n    /* \"#utility.yul\":1696:1700   */\n  0xff\n    /* \"#utility.yul\":1689:1694   */\n  dup2\n    /* \"#utility.yul\":1685:1701   */\n  and\n    /* \"#utility.yul\":1678:1683   */\n  dup2\n    /* \"#utility.yul\":1675:1702   */\n  eq\n    /* \"#utility.yul\":1665:1720   */\n  tag_78\n  jumpi\n    /* \"#utility.yul\":1716:1717   */\n  0x00\n    /* \"#utility.yul\":1713:1714   */\n  dup1\n    /* \"#utility.yul\":1706:1718   */\n  revert\n    /* \"#utility.yul\":1665:1720   */\ntag_78:\n    /* \"#utility.yul\":1739:1744   */\n  swap4\n    /* \"#utility.yul\":1477:1750   */\n  swap3\n  pop\n  pop\n  pop\n  jump\t// out\n    /* \"#utility.yul\":1755:1882   */\ntag_59:\n    /* \"#utility.yul\":1816:1826   */\n  0x4e487b71\n    /* \"#utility.yul\":1811:1814   */\n  0xe0\n    /* \"#utility.yul\":1807:1827   */\n  shl\n    /* \"#utility.yul\":1804:1805   */\n  0x00\n    /* \"#utility.yul\":1797:1828   */\n  mstore\n    /* \"#utility.yul\":1847:1851   */\n  0x41\n    /* \"#utility.yul\":1844:1845   */\n  0x04\n    /* \"#utility.yul\":1837:1852   */\n  mstore\n    /* \"#utility.yul\":1871:1875   */\n  0x24\n    /* \"#utility.yul\":1868:1869   */\n  0x00\n    /* \"#utility.yul\":1861:1876   */\n  revert\n    /* \"#utility.yul\":1887:2267   */\ntag_60:\n    /* \"#utility.yul\":1966:1967   */\n  0x01\n    /* \"#utility.yul\":1962:1974   */\n  dup2\n  dup2\n  shr\n  swap1\n    /* \"#utility.yul\":2009:2021   */\n  dup3\n  and\n  dup1\n    /* \"#utility.yul\":2030:2091   */\n  tag_81\n  jumpi\n    /* \"#utility.yul\":2084:2088   */\n  0x7f\n    /* \"#utility.yul\":2076:2082   */\n  dup3\n    /* \"#utility.yul\":2072:2089   */\n  and\n    /* \"#utility.yul\":2062:2089   */\n  swap2\n  pop\n    /* \"#utility.yul\":2030:2091   */\ntag_81:\n    /* \"#utility.yul\":2137:2139   */\n  0x20\n    /* \"#utility.yul\":2129:2135   */\n  dup3\n    /* \"#utility.yul\":2126:2140   */\n  lt\n    /* \"#utility.yul\":2106:2124   */\n  dup2\n    /* \"#utility.yul\":2103:2141   */\n  sub\n    /* \"#utility.yul\":2100:2261   */\n  tag_82\n  jumpi\n    /* \"#utility.yul\":2183:2193   */\n  0x4e487b71\n    /* \"#utility.yul\":2178:2181   */\n  0xe0\n    /* \"#utility.yul\":2174:2194   */\n  shl\n    /* \"#utility.yul\":2171:2172   */\n  0x00\n    /* \"#utility.yul\":2164:2195   */\n  mstore\n    /* \"#utility.yul\":2218:2222   */\n  0x22\n    /* \"#utility.yul\":2215:2216   */\n  0x04\n    /* \"#utility.yul\":2208:2223   */\n  mstore\n    /* \"#utility.yul\":2246:2250   */\n  0x24\n    /* \"#utility.yul\":2243:2244   */\n  0x00\n    /* \"#utility.yul\":2236:2251   */\n  revert\n    /* \"#utility.yul\":2100:2261   */\ntag_82:\n  pop\n    /* \"#utility.yul\":1887:2267   */\n  swap2\n  swap1\n  pop\n  jump\t// out\n    /* \"#utility.yul\":2398:2943   */\ntag_62:\n    /* \"#utility.yul\":2500:2502   */\n  0x1f\n    /* \"#utility.yul\":2495:2498   */\n  dup3\n    /* \"#utility.yul\":2492:2503   */\n  gt\n    /* \"#utility.yul\":2489:2937   */\n  iszero\n  tag_85\n  jumpi\n    /* \"#utility.yul\":2536:2537   */\n  0x00\n    /* \"#utility.yul\":2561:2566   */\n  dup2\n    /* \"#utility.yul\":2557:2559   */\n  dup2\n    /* \"#utility.yul\":2550:2567   */\n  mstore\n    /* \"#utility.yul\":2606:2610   */\n  0x20\n    /* \"#utility.yul\":2602:2604   */\n  dup2\n    /* \"#utility.yul\":2592:2611   */\n  keccak256\n    /* \"#utility.yul\":2676:2678   */\n  0x1f\n    /* \"#utility.yul\":2664:2674   */\n  dup6\n    /* \"#utility.yul\":2660:2679   */\n  add\n    /* \"#utility.yul\":2657:2658   */\n  0x05\n    /* \"#utility.yul\":2653:2680   */\n  shr\n    /* \"#utility.yul\":2647:2651   */\n  dup2\n    /* \"#utility.yul\":2643:2681   */\n  add\n    /* \"#utility.yul\":2712:2716   */\n  0x20\n    /* \"#utility.yul\":2700:2710   */\n  dup7\n    /* \"#utility.yul\":2697:2717   */\n  lt\n    /* \"#utility.yul\":2694:2741   */\n  iszero\n  tag_86\n  jumpi\n  pop\n    /* \"#utility.yul\":2735:2739   */\n  dup1\n    /* \"#utility.yul\":2694:2741   */\ntag_86:\n    /* \"#utility.yul\":2790:2792   */\n  0x1f\n    /* \"#utility.yul\":2785:2788   */\n  dup6\n    /* \"#utility.yul\":2781:2793   */\n  add\n    /* \"#utility.yul\":2778:2779   */\n  0x05\n    /* \"#utility.yul\":2774:2794   */\n  shr\n    /* \"#utility.yul\":2768:2772   */\n  dup3\n    /* \"#utility.yul\":2764:2795   */\n  add\n    /* \"#utility.yul\":2754:2795   */\n  swap2\n  pop\n    /* \"#utility.yul\":2845:2927   */\ntag_87:\n    /* \"#utility.yul\":2863:2865   */\n  dup2\n    /* \"#utility.yul\":2856:2861   */\n  dup2\n    /* \"#utility.yul\":2853:2866   */\n  lt\n    /* \"#utility.yul\":2845:2927   */\n  iszero\n  tag_89\n  jumpi\n    /* \"#utility.yul\":2908:2925   */\n  dup3\n  dup2\n  sstore\n    /* \"#utility.yul\":2889:2890   */\n  0x01\n    /* \"#utility.yul\":2878:2891   */\n  add\n    /* \"#utility.yul\":2845:2927   */\n  jump(tag_87)\ntag_89:\n    /* \"#utility.yul\":2849:2852   */\n  pop\n  pop\n  pop\n    /* \"#utility.yul\":2489:2937   */\ntag_85:\n    /* \"#utility.yul\":2398:2943   */\n  pop\n  pop\n  pop\n  jump\t// out\n    /* \"#utility.yul\":3119:4471   */\ntag_35:\n    /* \"#utility.yul\":3239:3249   */\n  dup2\n  mload\n  sub(shl(0x40, 0x01), 0x01)\n    /* \"#utility.yul\":3261:3291   */\n  dup2\n  gt\n    /* \"#utility.yul\":3258:3314   */\n  iszero\n  tag_93\n  jumpi\n    /* \"#utility.yul\":3294:3312   */\n  tag_93\n  tag_59\n  jump\t// in\ntag_93:\n    /* \"#utility.yul\":3323:3420   */\n  tag_94\n    /* \"#utility.yul\":3413:3419   */\n  dup2\n    /* \"#utility.yul\":3373:3411   */\n  tag_95\n    /* \"#utility.yul\":3405:3409   */\n  dup5\n    /* \"#utility.yul\":3399:3410   */\n  sload\n    /* \"#utility.yul\":3373:3411   */\n  tag_60\n  jump\t// in\ntag_95:\n    /* \"#utility.yul\":3367:3371   */\n  dup5\n    /* \"#utility.yul\":3323:3420   */\n  tag_62\n  jump\t// in\ntag_94:\n    /* \"#utility.yul\":3475:3479   */\n  0x20\n  dup1\n    /* \"#utility.yul\":3539:3541   */\n  0x1f\n    /* \"#utility.yul\":3528:3542   */\n  dup4\n  gt\n    /* \"#utility.yul\":3556:3557   */\n  0x01\n    /* \"#utility.yul\":3551:4214   */\n  dup2\n  eq\n  tag_97\n  jumpi\n    /* \"#utility.yul\":4258:4259   */\n  0x00\n    /* \"#utility.yul\":4275:4281   */\n  dup5\n    /* \"#utility.yul\":4272:4361   */\n  iszero\n  tag_98\n  jumpi\n  pop\n    /* \"#utility.yul\":4327:4346   */\n  dup6\n  dup4\n  add\n    /* \"#utility.yul\":4321:4347   */\n  mload\n    /* \"#utility.yul\":4272:4361   */\ntag_98:\n  not(0x00)\n    /* \"#utility.yul\":3076:3077   */\n  0x03\n    /* \"#utility.yul\":3072:3083   */\n  dup7\n  swap1\n  shl\n    /* \"#utility.yul\":3068:3092   */\n  shr\n    /* \"#utility.yul\":3064:3093   */\n  not\n    /* \"#utility.yul\":3054:3094   */\n  and\n    /* \"#utility.yul\":3100:3101   */\n  0x01\n    /* \"#utility.yul\":3096:3107   */\n  dup6\n  swap1\n  shl\n    /* \"#utility.yul\":3051:3108   */\n  or\n    /* \"#utility.yul\":4374:4455   */\n  dup6\n  sstore\n    /* \"#utility.yul\":3521:4465   */\n  jump(tag_89)\n    /* \"#utility.yul\":3551:4214   */\ntag_97:\n    /* \"#utility.yul\":2345:2346   */\n  0x00\n    /* \"#utility.yul\":2338:2352   */\n  dup6\n  dup2\n  mstore\n    /* \"#utility.yul\":2382:2386   */\n  0x20\n    /* \"#utility.yul\":2369:2387   */\n  dup2\n  keccak256\n  not(0x1f)\n    /* \"#utility.yul\":3587:3607   */\n  dup7\n  and\n  swap2\n    /* \"#utility.yul\":3705:3941   */\ntag_101:\n    /* \"#utility.yul\":3719:3726   */\n  dup3\n    /* \"#utility.yul\":3716:3717   */\n  dup2\n    /* \"#utility.yul\":3713:3727   */\n  lt\n    /* \"#utility.yul\":3705:3941   */\n  iszero\n  tag_103\n  jumpi\n    /* \"#utility.yul\":3808:3827   */\n  dup9\n  dup7\n  add\n    /* \"#utility.yul\":3802:3828   */\n  mload\n    /* \"#utility.yul\":3787:3829   */\n  dup3\n  sstore\n    /* \"#utility.yul\":3900:3927   */\n  swap5\n  dup5\n  add\n  swap5\n    /* \"#utility.yul\":3868:3869   */\n  0x01\n    /* \"#utility.yul\":3856:3870   */\n  swap1\n  swap2\n  add\n  swap1\n    /* \"#utility.yul\":3735:3754   */\n  dup5\n  add\n    /* \"#utility.yul\":3705:3941   */\n  jump(tag_101)\ntag_103:\n    /* \"#utility.yul\":3709:3712   */\n  pop\n    /* \"#utility.yul\":3969:3975   */\n  dup6\n    /* \"#utility.yul\":3960:3967   */\n  dup3\n    /* \"#utility.yul\":3957:3976   */\n  lt\n    /* \"#utility.yul\":3954:4155   */\n  iszero\n  tag_104\n  jumpi\n    /* \"#utility.yul\":4030:4049   */\n  dup8\n  dup6\n  add\n    /* \"#utility.yul\":4024:4050   */\n  mload\n  not(0x00)\n    /* \"#utility.yul\":4113:4114   */\n  0x03\n    /* \"#utility.yul\":4109:4123   */\n  dup9\n  swap1\n  shl\n    /* \"#utility.yul\":4125:4128   */\n  0xf8\n    /* \"#utility.yul\":4105:4129   */\n  and\n    /* \"#utility.yul\":4101:4138   */\n  shr\n    /* \"#utility.yul\":4097:4139   */\n  not\n    /* \"#utility.yul\":4082:4140   */\n  and\n    /* \"#utility.yul\":4067:4141   */\n  dup2\n  sstore\n    /* \"#utility.yul\":3954:4155   */\ntag_104:\n  pop\n  pop\n  pop\n  pop\n  pop\n    /* \"#utility.yul\":4201:4202   */\n  0x01\n    /* \"#utility.yul\":4185:4199   */\n  swap1\n  dup2\n  shl\n    /* \"#utility.yul\":4181:4203   */\n  add\n    /* \"#utility.yul\":4168:4204   */\n  swap1\n  sstore\n  pop\n    /* \"#utility.yul\":3119:4471   */\n  jump\t// out\n    /* \"#utility.yul\":4812:4939   */\ntag_64:\n    /* \"#utility.yul\":4873:4883   */\n  0x4e487b71\n    /* \"#utility.yul\":4868:4871   */\n  0xe0\n    /* \"#utility.yul\":4864:4884   */\n  shl\n    /* \"#utility.yul\":4861:4862   */\n  0x00\n    /* \"#utility.yul\":4854:4885   */\n  mstore\n    /* \"#utility.yul\":4904:4908   */\n  0x11\n    /* \"#utility.yul\":4901:4902   */\n  0x04\n    /* \"#utility.yul\":4894:4909   */\n  mstore\n    /* \"#utility.yul\":4928:4932   */\n  0x24\n    /* \"#utility.yul\":4925:4926   */\n  0x00\n    /* \"#utility.yul\":4918:4933   */\n  revert\n    /* \"#utility.yul\":4944:5079   */\ntag_39:\n    /* \"#utility.yul\":4983:4986   */\n  0x00\n    /* \"#utility.yul\":5004:5021   */\n  0x01\n  dup3\n  add\n    /* \"#utility.yul\":5001:5044   */\n  tag_109\n  jumpi\n    /* \"#utility.yul\":5024:5042   */\n  tag_109\n  tag_64\n  jump\t// in\ntag_109:\n  pop\n    /* \"#utility.yul\":5071:5072   */\n  0x01\n    /* \"#utility.yul\":5060:5073   */\n  add\n  swap1\n    /* \"#utility.yul\":4944:5079   */\n  jump\t// out\n    /* \"#utility.yul\":5419:5547   */\ntag_48:\n    /* \"#utility.yul\":5486:5495   */\n  dup2\n  dup2\n  sub\n    /* \"#utility.yul\":5507:5518   */\n  dup2\n  dup2\n  gt\n    /* \"#utility.yul\":5504:5541   */\n  iszero\n  tag_113\n  jumpi\n    /* \"#utility.yul\":5521:5539   */\n  tag_113\n  tag_64\n  jump\t// in\ntag_113:\n    /* \"#utility.yul\":5419:5547   */\n  swap3\n  swap2\n  pop\n  pop\n  jump\t// out\ntag_65:\n    /* \"LibertyFinancialChain/LiberttFinancial/genesispool.sol\":383:15404  contract GenesisPool is Ownable, ReentrancyGuard {... */\n  dataSize(sub_0)\n  dup1\n  dataOffset(sub_0)\n  0x00\n  codecopy\n  0x00\n  return\nstop\ndata_dd7a3a8b928dd909bc624be998f807409b30098ea5130ab2bd535bc7ef7de645 150cb369f834b70a4f343956659b1f84cd37d44352b9a76ff77ac59552ef4aa0\n\nsub_0: assembly {\n        /* \"LibertyFinancialChain/LiberttFinancial/genesispool.sol\":383:15404  contract GenesisPool is Ownable, ReentrancyGuard {... */\n      mstore(0x40, 0x80)\n      callvalue\n      dup1\n      iszero\n      tag_1\n      jumpi\n      0x00\n      dup1\n      revert\n    tag_1:\n      pop\n      jumpi(tag_2, lt(calldatasize, 0x04))\n      shr(0xe0, calldataload(0x00))\n      dup1\n      0x76752435\n      gt\n      tag_50\n      jumpi\n      dup1\n      0xbcaf0d95\n      gt\n      tag_51\n      jumpi\n      dup1\n      0xe22d0a82\n      gt\n      tag_52\n      jumpi\n      dup1\n      0xe22d0a82\n      eq\n      tag_44\n      jumpi\n      dup1\n      0xe7780f28\n      eq\n      tag_45\n      jumpi\n      dup1\n      0xeddaa3ab\n      eq\n      tag_46\n      jumpi\n      dup1\n      0xf2fde38b\n      eq\n      tag_47\n      jumpi\n      dup1\n      0xf8b55f4f\n      eq\n      tag_48\n      jumpi\n      dup1\n      0xfe575a87\n      eq\n      tag_49\n      jumpi\n      0x00\n      dup1\n      revert\n    tag_52:\n      dup1\n      0xbcaf0d95\n      eq\n      tag_38\n      jumpi\n      dup1\n      0xc885bc58\n      eq\n      tag_39\n      jumpi\n      dup1\n      0xd66aafa6\n      eq\n      tag_40\n      jumpi\n      dup1\n      0xdc810925\n      eq\n      tag_41\n      jumpi\n      dup1\n      0xddbb48d6\n      eq\n      tag_42\n      jumpi\n      dup1\n      0xe1e55fbf\n      eq\n      tag_43\n      jumpi\n      0x00\n      dup1\n      revert\n    tag_51:\n      dup1\n      0xa87430ba\n      gt\n      tag_53\n      jumpi\n      dup1\n      0xa87430ba\n      eq\n      tag_32\n      jumpi\n      dup1\n      0xac4afa38\n      eq\n      tag_33\n      jumpi\n      dup1\n      0xb1b358d4\n      eq\n      tag_34\n      jumpi\n      dup1\n      0xb1ced5e7\n      eq\n      tag_35\n      jumpi\n      dup1\n      0xb380744d\n      eq\n      tag_36\n      jumpi\n      dup1\n      0xbc0ca177\n      eq\n      tag_37\n      jumpi\n      0x00\n      dup1\n      revert\n    tag_53:\n      dup1\n      0x76752435\n      eq\n      tag_26\n      jumpi\n      dup1\n      0x7bb5ee4b\n      eq\n      tag_27\n      jumpi\n      dup1\n      0x81caedf1\n      eq\n      tag_28\n      jumpi\n      dup1\n      0x8995bc60\n      eq\n      tag_29\n      jumpi\n      dup1\n      0x8da5cb5b\n      eq\n      tag_30\n      jumpi\n      dup1\n      0xa3a83649\n      eq\n      tag_31\n      jumpi\n      0x00\n      dup1\n      revert\n    tag_50:\n      dup1\n      0x3b38bf72\n      gt\n      tag_54\n      jumpi\n      dup1\n      0x600d20ce\n      gt\n      tag_55\n      jumpi\n      dup1\n      0x600d20ce\n      eq\n      tag_20\n      jumpi\n      dup1\n      0x66a4b6c0\n      eq\n      tag_21\n      jumpi\n      dup1\n      0x6afbd415\n      eq\n      tag_22\n      jumpi\n      dup1\n      0x715018a6\n      eq\n      tag_23\n      jumpi\n      dup1\n      0x753d7563\n      eq\n      tag_24\n      jumpi\n      dup1\n      0x755e1fee\n      eq\n      tag_25\n      jumpi\n      0x00\n      dup1\n      revert\n    tag_55:\n      dup1\n      0x3b38bf72\n      eq\n      tag_14\n      jumpi\n      dup1\n      0x4420e486\n      eq\n      tag_15\n      jumpi\n      dup1\n      0x44386321\n      eq\n      tag_16\n      jumpi\n      dup1\n      0x4b67e948\n      eq\n      tag_17\n      jumpi\n      dup1\n      0x4ba05906\n      eq\n      tag_18\n      jumpi\n      dup1\n      0x569a7dfd\n      eq\n      tag_19\n      jumpi\n      0x00\n      dup1\n      revert\n    tag_54:\n      dup1\n      0x166b836f\n      gt\n      tag_56\n      jumpi\n      dup1\n      0x166b836f\n      eq\n      tag_8\n      jumpi\n      dup1\n      0x17b72137\n      eq\n      tag_9\n      jumpi\n      dup1\n      0x18118787\n      eq\n      tag_10\n      jumpi\n      dup1\n      0x239cc1dd\n      eq\n      tag_11\n      jumpi\n      dup1\n      0x254c4326\n      eq\n      tag_12\n      jumpi\n      dup1\n      0x367631d7\n      eq\n      tag_13\n      jumpi\n      0x00\n      dup1\n      revert\n    tag_56:\n      dup1\n      0x7da258\n      eq\n      tag_3\n      jumpi\n      dup1\n      0x0e3a83a4\n      eq\n      tag_4\n      jumpi\n      dup1\n      0x106ca23c\n      eq\n      tag_5\n      jumpi\n      dup1\n      0x11ccdf8c\n      eq\n      tag_6\n      jumpi\n      dup1\n      0x149b6b1f\n      eq\n      tag_7\n      jumpi\n    tag_2:\n      0x00\n      dup1\n      revert\n        /* \"LibertyFinancialChain/LiberttFinancial/genesispool.sol\":15194:15402  function getNextPoolId() public view returns (uint256) {... */\n    tag_3:\n      tag_57\n      tag_58\n      jump\t// in\n    tag_57:\n      mload(0x40)\n        /* \"#utility.yul\":160:185   */\n      swap1\n      dup2\n      mstore\n        /* \"#utility.yul\":148:150   */\n      0x20\n        /* \"#utility.yul\":133:151   */\n      add\n        /* \"LibertyFinancialChain/LiberttFinancial/genesispool.sol\":15194:15402  function getNextPoolId() public view returns (uint256) {... */\n    tag_59:\n      mload(0x40)\n      dup1\n      swap2\n      sub\n      swap1\n      return\n        /* \"LibertyFinancialChain/LiberttFinancial/genesispool.sol\":994:1020  address public pendingINR1 */\n    tag_4:\n      sload(0x0e)\n      tag_61\n      swap1\n      sub(shl(0xa0, 0x01), 0x01)\n      and\n      dup2\n      jump\n    tag_61:\n      mload(0x40)\n      sub(shl(0xa0, 0x01), 0x01)\n        /* \"#utility.yul\":360:392   */\n      swap1\n      swap2\n      and\n        /* \"#utility.yul\":342:393   */\n      dup2\n      mstore\n        /* \"#utility.yul\":330:332   */\n      0x20\n        /* \"#utility.yul\":315:333   */\n      add\n        /* \"LibertyFinancialChain/LiberttFinancial/genesispool.sol\":994:1020  address public pendingINR1 */\n      tag_59\n        /* \"#utility.yul\":196:399   */\n      jump\n        /* \"LibertyFinancialChain/LiberttFinancial/genesispool.sol\":2379:2409  uint256 public reserveTreasury */\n    tag_5:\n      tag_57\n      sload(0x18)\n      dup2\n      jump\n        /* \"LibertyFinancialChain/LiberttFinancial/genesispool.sol\":14951:15189  function getActivePoolId() public view returns (uint256) {... */\n    tag_6:\n      tag_57\n      tag_69\n      jump\t// in\n        /* \"LibertyFinancialChain/LiberttFinancial/genesispool.sol\":11193:11587  function getClaimableReferral(address user) public view returns (uint256) {... */\n    tag_7:\n      tag_57\n      tag_72\n      calldatasize\n      0x04\n      tag_73\n      jump\t// in\n    tag_72:\n      tag_74\n      jump\t// in\n        /* \"LibertyFinancialChain/LiberttFinancial/genesispool.sol\":1272:1322  uint256 public constant USD1_PER_INGOT = 11 * 1e18 */\n    tag_8:\n      tag_57\n        /* \"LibertyFinancialChain/LiberttFinancial/genesispool.sol\":1313:1322  11 * 1e18 */\n      0x98a7d9b8314c0000\n        /* \"LibertyFinancialChain/LiberttFinancial/genesispool.sol\":1272:1322  uint256 public constant USD1_PER_INGOT = 11 * 1e18 */\n      dup2\n      jump\n        /* \"LibertyFinancialChain/LiberttFinancial/genesispool.sol\":1897:1942  mapping(uint256 => Order[]) public poolOrders */\n    tag_9:\n      tag_79\n      tag_80\n      calldatasize\n      0x04\n      tag_81\n      jump\t// in\n    tag_80:\n      tag_82\n      jump\t// in\n    tag_79:\n      mload(0x40)\n      tag_59\n      swap7\n      swap6\n      swap5\n      swap4\n      swap3\n      swap2\n      swap1\n      tag_84\n      jump\t// in\n        /* \"LibertyFinancialChain/LiberttFinancial/genesispool.sol\":11592:12241  function withdrawReferralReward() external nonReentrant {... */\n    tag_10:\n      tag_85\n      tag_86\n      jump\t// in\n    tag_85:\n      stop\n        /* \"LibertyFinancialChain/LiberttFinancial/genesispool.sol\":1093:1122  bool public usd1UpdatePending */\n    tag_11:\n      sload(0x0f)\n      tag_87\n      swap1\n      shl(0xa8, 0x01)\n      swap1\n      div\n      0xff\n      and\n      dup2\n      jump\n    tag_87:\n      mload(0x40)\n        /* \"#utility.yul\":2239:2253   */\n      swap1\n      iszero\n        /* \"#utility.yul\":2232:2254   */\n      iszero\n        /* \"#utility.yul\":2214:2255   */\n      dup2\n      mstore\n        /* \"#utility.yul\":2202:2204   */\n      0x20\n        /* \"#utility.yul\":2187:2205   */\n      add\n        /* \"LibertyFinancialChain/LiberttFinancial/genesispool.sol\":1093:1122  bool public usd1UpdatePending */\n      tag_59\n        /* \"#utility.yul\":2074:2261   */\n      jump\n        /* \"LibertyFinancialChain/LiberttFinancial/genesispool.sol\":1058:1087  bool public inr1UpdatePending */\n    tag_12:\n      sload(0x0f)\n      tag_87\n      swap1\n      shl(0xa0, 0x01)\n      swap1\n      div\n      0xff\n      and\n      dup2\n      jump\n        /* \"LibertyFinancialChain/LiberttFinancial/genesispool.sol\":4971:5232  function setINR1(address newINR1) external onlyOwner {... */\n    tag_13:\n      tag_85\n      tag_95\n      calldatasize\n      0x04\n      tag_73\n      jump\t// in\n    tag_95:\n      tag_96\n      jump\t// in\n        /* \"LibertyFinancialChain/LiberttFinancial/genesispool.sol\":6977:7682  function changeReferrer(address user, address newReferrer) external onlyOwner {... */\n    tag_14:\n      tag_85\n      tag_98\n      calldatasize\n      0x04\n      tag_99\n      jump\t// in\n    tag_98:\n      tag_100\n      jump\t// in\n        /* \"LibertyFinancialChain/LiberttFinancial/genesispool.sol\":5611:6442  function register(address referrer) external {... */\n    tag_15:\n      tag_85\n      tag_102\n      calldatasize\n      0x04\n      tag_73\n      jump\t// in\n    tag_102:\n      tag_103\n      jump\t// in\n        /* \"LibertyFinancialChain/LiberttFinancial/genesispool.sol\":790:808  IERC20 public USD1 */\n    tag_16:\n      sload(0x0a)\n      tag_61\n      swap1\n      sub(shl(0xa0, 0x01), 0x01)\n      and\n      dup2\n      jump\n        /* \"LibertyFinancialChain/LiberttFinancial/genesispool.sol\":14360:14640  function adminSweepToken(address token, uint256 amount, address to) external onlyOwner {... */\n    tag_17:\n      tag_85\n      tag_109\n      calldatasize\n      0x04\n      tag_110\n      jump\t// in\n    tag_109:\n      tag_111\n      jump\t// in\n        /* \"LibertyFinancialChain/LiberttFinancial/genesispool.sol\":1635:1667  uint256 public lastCreatedPoolId */\n    tag_18:\n      tag_57\n      sload(0x11)\n      dup2\n      jump\n        /* \"LibertyFinancialChain/LiberttFinancial/genesispool.sol\":13935:14071  function setEmergencyActive(bool flag) external onlyOwner {... */\n    tag_19:\n      tag_85\n      tag_116\n      calldatasize\n      0x04\n      tag_117\n      jump\t// in\n    tag_116:\n      tag_118\n      jump\t// in\n        /* \"LibertyFinancialChain/LiberttFinancial/genesispool.sol\":557:656  uint256[REFERRAL_LEVELS] public REFERRAL_PERCENTS = [... */\n    tag_20:\n      tag_57\n      tag_120\n      calldatasize\n      0x04\n      tag_121\n      jump\t// in\n    tag_120:\n      tag_122\n      jump\t// in\n        /* \"LibertyFinancialChain/LiberttFinancial/genesispool.sol\":873:897  uint8 public usdDecimals */\n    tag_21:\n      sload(0x0b)\n      tag_124\n      swap1\n      shl(0xa8, 0x01)\n      swap1\n      div\n      0xff\n      and\n      dup2\n      jump\n    tag_124:\n      mload(0x40)\n        /* \"#utility.yul\":3793:3797   */\n      0xff\n        /* \"#utility.yul\":3781:3798   */\n      swap1\n      swap2\n      and\n        /* \"#utility.yul\":3763:3799   */\n      dup2\n      mstore\n        /* \"#utility.yul\":3751:3753   */\n      0x20\n        /* \"#utility.yul\":3736:3754   */\n      add\n        /* \"LibertyFinancialChain/LiberttFinancial/genesispool.sol\":873:897  uint8 public usdDecimals */\n      tag_59\n        /* \"#utility.yul\":3621:3805   */\n      jump\n        /* \"LibertyFinancialChain/LiberttFinancial/genesispool.sol\":814:837  address public subadmin */\n    tag_22:\n      sload(0x0b)\n      tag_61\n      swap1\n      sub(shl(0xa0, 0x01), 0x01)\n      and\n      dup2\n      jump\n        /* \"@openzeppelin/contracts/access/Ownable.sol\":2293:2394  function renounceOwnership() public virtual onlyOwner {... */\n    tag_23:\n      tag_85\n      tag_132\n      jump\t// in\n        /* \"LibertyFinancialChain/LiberttFinancial/genesispool.sol\":942:988  mapping(address => bool) public tokenWhitelist */\n    tag_24:\n      tag_87\n      tag_134\n      calldatasize\n      0x04\n      tag_73\n      jump\t// in\n    tag_134:\n      mstore(0x20, 0x0d)\n      0x00\n      swap1\n      dup2\n      mstore\n      0x40\n      swap1\n      keccak256\n      sload\n      0xff\n      and\n      dup2\n      jump\n        /* \"LibertyFinancialChain/LiberttFinancial/genesispool.sol\":843:867  uint8 public inrDecimals */\n    tag_25:\n      sload(0x0b)\n      tag_124\n      swap1\n      shl(0xa0, 0x01)\n      swap1\n      div\n      0xff\n      and\n      dup2\n      jump\n        /* \"LibertyFinancialChain/LiberttFinancial/genesispool.sol\":5276:5537  function setUSD1(address newUSD1) external onlyOwner {... */\n    tag_26:\n      tag_85\n      tag_141\n      calldatasize\n      0x04\n      tag_73\n      jump\t// in\n    tag_141:\n      tag_142\n      jump\t// in\n        /* \"LibertyFinancialChain/LiberttFinancial/genesispool.sol\":1026:1052  address public pendingUSD1 */\n    tag_27:\n      sload(0x0f)\n      tag_61\n      swap1\n      sub(shl(0xa0, 0x01), 0x01)\n      and\n      dup2\n      jump\n        /* \"LibertyFinancialChain/LiberttFinancial/genesispool.sol\":14076:14355  function adminWithdrawReserve(uint256 amount) external onlyOwner {... */\n    tag_28:\n      tag_85\n      tag_147\n      calldatasize\n      0x04\n      tag_121\n      jump\t// in\n    tag_147:\n      tag_148\n      jump\t// in\n        /* \"LibertyFinancialChain/LiberttFinancial/genesispool.sol\":7691:7843  function setTokenDecimals(uint8 _inrDecimals, uint8 _usdDecimals) external onlyOwner {... */\n    tag_29:\n      tag_85\n      tag_150\n      calldatasize\n      0x04\n      tag_151\n      jump\t// in\n    tag_150:\n      tag_152\n      jump\t// in\n        /* \"@openzeppelin/contracts/access/Ownable.sol\":1638:1723  function owner() public view virtual returns (address) {... */\n    tag_30:\n        /* \"@openzeppelin/contracts/access/Ownable.sol\":1684:1691  address */\n      0x00\n        /* \"@openzeppelin/contracts/access/Ownable.sol\":1710:1716  _owner */\n      sload\n      sub(shl(0xa0, 0x01), 0x01)\n      and\n        /* \"@openzeppelin/contracts/access/Ownable.sol\":1638:1723  function owner() public view virtual returns (address) {... */\n      jump(tag_61)\n        /* \"LibertyFinancialChain/LiberttFinancial/genesispool.sol\":766:784  IERC20 public INR1 */\n    tag_31:\n      sload(0x09)\n      tag_61\n      swap1\n      sub(shl(0xa0, 0x01), 0x01)\n      and\n      dup2\n      jump\n        /* \"LibertyFinancialChain/LiberttFinancial/genesispool.sol\":2193:2230  mapping(address => User) public users */\n    tag_32:\n      tag_159\n      tag_160\n      calldatasize\n      0x04\n      tag_73\n      jump\t// in\n    tag_160:\n      mstore(0x20, 0x14)\n      0x00\n      swap1\n      dup2\n      mstore\n      0x40\n      swap1\n      keccak256\n      dup1\n      sload\n      0x09\n      dup3\n      add\n      sload\n      0x0a\n      dup4\n      add\n      sload\n      0x0b\n      dup5\n      add\n      sload\n      0x0c\n      swap1\n      swap5\n      add\n      sload\n      sub(shl(0xa0, 0x01), 0x01)\n      swap1\n      swap4\n      and\n      swap4\n      swap2\n      swap3\n      swap1\n      swap2\n      swap1\n      0xff\n      and\n      dup6\n      jump\n    tag_159:\n      0x40\n      dup1\n      mload\n      sub(shl(0xa0, 0x01), 0x01)\n        /* \"#utility.yul\":4585:4617   */\n      swap1\n      swap7\n      and\n        /* \"#utility.yul\":4567:4618   */\n      dup7\n      mstore\n        /* \"#utility.yul\":4649:4651   */\n      0x20\n        /* \"#utility.yul\":4634:4652   */\n      dup7\n      add\n        /* \"#utility.yul\":4627:4661   */\n      swap5\n      swap1\n      swap5\n      mstore\n        /* \"#utility.yul\":4677:4695   */\n      swap3\n      dup5\n      add\n        /* \"#utility.yul\":4670:4704   */\n      swap2\n      swap1\n      swap2\n      mstore\n        /* \"#utility.yul\":4735:4737   */\n      0x60\n        /* \"#utility.yul\":4720:4738   */\n      dup4\n      add\n        /* \"#utility.yul\":4713:4747   */\n      mstore\n        /* \"#utility.yul\":4791:4805   */\n      iszero\n        /* \"#utility.yul\":4784:4806   */\n      iszero\n        /* \"#utility.yul\":4778:4781   */\n      0x80\n        /* \"#utility.yul\":4763:4782   */\n      dup3\n      add\n        /* \"#utility.yul\":4756:4807   */\n      mstore\n        /* \"#utility.yul\":4554:4557   */\n      0xa0\n        /* \"#utility.yul\":4539:4558   */\n      add\n        /* \"LibertyFinancialChain/LiberttFinancial/genesispool.sol\":2193:2230  mapping(address => User) public users */\n      tag_59\n        /* \"#utility.yul\":4314:4813   */\n      jump\n        /* \"LibertyFinancialChain/LiberttFinancial/genesispool.sol\":1592:1629  mapping(uint256 => Pool) public pools */\n    tag_33:\n      tag_164\n      tag_165\n      calldatasize\n      0x04\n      tag_121\n      jump\t// in\n    tag_165:\n      tag_166\n      jump\t// in\n    tag_164:\n      mload(0x40)\n      tag_59\n      swap7\n      swap6\n      swap5\n      swap4\n      swap3\n      swap2\n      swap1\n      tag_168\n      jump\t// in\n        /* \"LibertyFinancialChain/LiberttFinancial/genesispool.sol\":12247:13416  function triggerPayout(uint256 poolId) external onlyOwner nonReentrant {... */\n    tag_34:\n      tag_85\n      tag_170\n      calldatasize\n      0x04\n      tag_121\n      jump\t// in\n    tag_170:\n      tag_171\n      jump\t// in\n        /* \"LibertyFinancialChain/LiberttFinancial/genesispool.sol\":2456:2507  uint256 public constant MAX_POOL_ID = 1_000_000_000 */\n    tag_35:\n      tag_57\n        /* \"LibertyFinancialChain/LiberttFinancial/genesispool.sol\":2494:2507  1_000_000_000 */\n      0x3b9aca00\n        /* \"LibertyFinancialChain/LiberttFinancial/genesispool.sol\":2456:2507  uint256 public constant MAX_POOL_ID = 1_000_000_000 */\n      dup2\n      jump\n        /* \"LibertyFinancialChain/LiberttFinancial/genesispool.sol\":7912:10525  function joinPool(uint256 poolId, uint256 amount, bool useUSD)... */\n    tag_36:\n      tag_85\n      tag_176\n      calldatasize\n      0x04\n      tag_177\n      jump\t// in\n    tag_176:\n      tag_178\n      jump\t// in\n        /* \"LibertyFinancialChain/LiberttFinancial/genesispool.sol\":6449:6971  function forceCreatePool(uint256 poolId, string memory poolType) external onlyOwner {... */\n    tag_37:\n      tag_85\n      tag_180\n      calldatasize\n      0x04\n      tag_181\n      jump\t// in\n    tag_180:\n      tag_182\n      jump\t// in\n        /* \"LibertyFinancialChain/LiberttFinancial/genesispool.sol\":903:935  uint256 public usdInrParity = 90 */\n    tag_38:\n      tag_57\n      sload(0x0c)\n      dup2\n      jump\n        /* \"LibertyFinancialChain/LiberttFinancial/genesispool.sol\":13552:13929  function withdrawReward() external nonReentrant {... */\n    tag_39:\n      tag_85\n      tag_187\n      jump\t// in\n        /* \"LibertyFinancialChain/LiberttFinancial/genesispool.sol\":2415:2449  uint256 public operationalTreasury */\n    tag_40:\n      tag_57\n      sload(0x19)\n      dup2\n      jump\n        /* \"LibertyFinancialChain/LiberttFinancial/genesispool.sol\":1673:1709  uint256 public totalInvestedAllPools */\n    tag_41:\n      tag_57\n      sload(0x12)\n      dup2\n      jump\n        /* \"LibertyFinancialChain/LiberttFinancial/genesispool.sol\":14646:14945  function adminWithdrawOperational(uint256 amount) external onlyOwner {... */\n    tag_42:\n      tag_85\n      tag_195\n      calldatasize\n      0x04\n      tag_121\n      jump\t// in\n    tag_195:\n      tag_196\n      jump\t// in\n        /* \"LibertyFinancialChain/LiberttFinancial/genesispool.sol\":1148:1193  uint256 public constant INGOTS_POOL_MAX = 100 */\n    tag_43:\n      tag_57\n        /* \"LibertyFinancialChain/LiberttFinancial/genesispool.sol\":1190:1193  100 */\n      0x64\n        /* \"LibertyFinancialChain/LiberttFinancial/genesispool.sol\":1148:1193  uint256 public constant INGOTS_POOL_MAX = 100 */\n      dup2\n      jump\n        /* \"LibertyFinancialChain/LiberttFinancial/genesispool.sol\":13422:13547  function getClaimablePoolReward(address user) external view returns (uint256) {... */\n    tag_44:\n      tag_57\n      tag_201\n      calldatasize\n      0x04\n      tag_73\n      jump\t// in\n    tag_201:\n      sub(shl(0xa0, 0x01), 0x01)\n        /* \"LibertyFinancialChain/LiberttFinancial/genesispool.sol\":13517:13540  pendingINR1Payout[user] */\n      and\n        /* \"LibertyFinancialChain/LiberttFinancial/genesispool.sol\":13491:13498  uint256 */\n      0x00\n        /* \"LibertyFinancialChain/LiberttFinancial/genesispool.sol\":13517:13540  pendingINR1Payout[user] */\n      swap1\n      dup2\n      mstore\n        /* \"LibertyFinancialChain/LiberttFinancial/genesispool.sol\":13517:13534  pendingINR1Payout */\n      0x15\n        /* \"LibertyFinancialChain/LiberttFinancial/genesispool.sol\":13517:13540  pendingINR1Payout[user] */\n      0x20\n      mstore\n      0x40\n      swap1\n      keccak256\n      sload\n      swap1\n        /* \"LibertyFinancialChain/LiberttFinancial/genesispool.sol\":13422:13547  function getClaimablePoolReward(address user) external view returns (uint256) {... */\n      jump\n        /* \"LibertyFinancialChain/LiberttFinancial/genesispool.sol\":2237:2289  mapping(address => uint256) public pendingINR1Payout */\n    tag_45:\n      tag_57\n      tag_205\n      calldatasize\n      0x04\n      tag_73\n      jump\t// in\n    tag_205:\n      mstore(0x20, 0x15)\n      0x00\n      swap1\n      dup2\n      mstore\n      0x40\n      swap1\n      keccak256\n      sload\n      dup2\n      jump\n        /* \"LibertyFinancialChain/LiberttFinancial/genesispool.sol\":2346:2373  bool public emergencyActive */\n    tag_46:\n      sload(0x17)\n      tag_87\n      swap1\n      0xff\n      and\n      dup2\n      jump\n        /* \"@openzeppelin/contracts/access/Ownable.sol\":2543:2758  function transferOwnership(address newOwner) public virtual onlyOwner {... */\n    tag_47:\n      tag_85\n      tag_212\n      calldatasize\n      0x04\n      tag_73\n      jump\t// in\n    tag_212:\n      tag_213\n      jump\t// in\n        /* \"LibertyFinancialChain/LiberttFinancial/genesispool.sol\":1199:1251  uint256 public constant INR1_PER_INGOT = 1000 * 1e18 */\n    tag_48:\n      tag_57\n        /* \"LibertyFinancialChain/LiberttFinancial/genesispool.sol\":1240:1251  1000 * 1e18 */\n      0x3635c9adc5dea00000\n        /* \"LibertyFinancialChain/LiberttFinancial/genesispool.sol\":1199:1251  uint256 public constant INR1_PER_INGOT = 1000 * 1e18 */\n      dup2\n      jump\n        /* \"LibertyFinancialChain/LiberttFinancial/genesispool.sol\":2295:2340  mapping(address => bool) public isBlacklisted */\n    tag_49:\n      tag_87\n      tag_218\n      calldatasize\n      0x04\n      tag_73\n      jump\t// in\n    tag_218:\n      mstore(0x20, 0x16)\n      0x00\n      swap1\n      dup2\n      mstore\n      0x40\n      swap1\n      keccak256\n      sload\n      0xff\n      and\n      dup2\n      jump\n        /* \"LibertyFinancialChain/LiberttFinancial/genesispool.sol\":15194:15402  function getNextPoolId() public view returns (uint256) {... */\n    tag_58:\n        /* \"LibertyFinancialChain/LiberttFinancial/genesispool.sol\":15240:15247  uint256 */\n      0x00\n        /* \"LibertyFinancialChain/LiberttFinancial/genesispool.sol\":15259:15275  uint256 possible */\n      dup1\n        /* \"LibertyFinancialChain/LiberttFinancial/genesispool.sol\":15278:15295  lastCreatedPoolId */\n      sload(0x11)\n        /* \"LibertyFinancialChain/LiberttFinancial/genesispool.sol\":15298:15299  1 */\n      0x01\n        /* \"LibertyFinancialChain/LiberttFinancial/genesispool.sol\":15278:15299  lastCreatedPoolId + 1 */\n      tag_222\n      swap2\n      swap1\n      tag_223\n      jump\t// in\n    tag_222:\n        /* \"LibertyFinancialChain/LiberttFinancial/genesispool.sol\":15259:15299  uint256 possible = lastCreatedPoolId + 1 */\n      swap1\n      pop\n        /* \"LibertyFinancialChain/LiberttFinancial/genesispool.sol\":2494:2507  1_000_000_000 */\n      0x3b9aca00\n        /* \"LibertyFinancialChain/LiberttFinancial/genesispool.sol\":15313:15321  possible */\n      dup2\n        /* \"LibertyFinancialChain/LiberttFinancial/genesispool.sol\":15313:15336  possible <= MAX_POOL_ID */\n      gt\n        /* \"LibertyFinancialChain/LiberttFinancial/genesispool.sol\":15309:15378  if (possible <= MAX_POOL_ID) {... */\n      tag_224\n      jumpi\n        /* \"LibertyFinancialChain/LiberttFinancial/genesispool.sol\":15359:15367  possible */\n      swap2\n        /* \"LibertyFinancialChain/LiberttFinancial/genesispool.sol\":15194:15402  function getNextPoolId() public view returns (uint256) {... */\n      swap1\n      pop\n      jump\t// out\n        /* \"LibertyFinancialChain/LiberttFinancial/genesispool.sol\":15309:15378  if (possible <= MAX_POOL_ID) {... */\n    tag_224:\n        /* \"LibertyFinancialChain/LiberttFinancial/genesispool.sol\":15394:15395  0 */\n      0x00\n        /* \"LibertyFinancialChain/LiberttFinancial/genesispool.sol\":15387:15395  return 0 */\n      swap2\n      pop\n      pop\n        /* \"LibertyFinancialChain/LiberttFinancial/genesispool.sol\":15194:15402  function getNextPoolId() public view returns (uint256) {... */\n      swap1\n      jump\t// out\n        /* \"LibertyFinancialChain/LiberttFinancial/genesispool.sol\":14951:15189  function getActivePoolId() public view returns (uint256) {... */\n    tag_69:\n        /* \"LibertyFinancialChain/LiberttFinancial/genesispool.sol\":15037:15054  lastCreatedPoolId */\n      sload(0x11)\n        /* \"LibertyFinancialChain/LiberttFinancial/genesispool.sol\":14999:15006  uint256 */\n      0x00\n      swap1\n        /* \"LibertyFinancialChain/LiberttFinancial/genesispool.sol\":15018:15165  for (uint256 pid = lastCreatedPoolId; pid >= 1; pid--) {... */\n    tag_226:\n        /* \"LibertyFinancialChain/LiberttFinancial/genesispool.sol\":15063:15064  1 */\n      0x01\n        /* \"LibertyFinancialChain/LiberttFinancial/genesispool.sol\":15056:15059  pid */\n      dup2\n        /* \"LibertyFinancialChain/LiberttFinancial/genesispool.sol\":15056:15064  pid >= 1 */\n      lt\n        /* \"LibertyFinancialChain/LiberttFinancial/genesispool.sol\":15018:15165  for (uint256 pid = lastCreatedPoolId; pid >= 1; pid--) {... */\n      tag_227\n      jumpi\n        /* \"LibertyFinancialChain/LiberttFinancial/genesispool.sol\":15091:15101  pools[pid] */\n      0x00\n      dup2\n      dup2\n      mstore\n        /* \"LibertyFinancialChain/LiberttFinancial/genesispool.sol\":15091:15096  pools */\n      0x10\n        /* \"LibertyFinancialChain/LiberttFinancial/genesispool.sol\":15091:15101  pools[pid] */\n      0x20\n      mstore\n      0x40\n      swap1\n      keccak256\n        /* \"LibertyFinancialChain/LiberttFinancial/genesispool.sol\":15091:15110  pools[pid].isActive */\n      0x03\n      add\n      sload\n      0xff\n      and\n        /* \"LibertyFinancialChain/LiberttFinancial/genesispool.sol\":15087:15155  if (pools[pid].isActive) {... */\n      iszero\n      tag_229\n      jumpi\n        /* \"LibertyFinancialChain/LiberttFinancial/genesispool.sol\":15137:15140  pid */\n      swap2\n        /* \"LibertyFinancialChain/LiberttFinancial/genesispool.sol\":14951:15189  function getActivePoolId() public view returns (uint256) {... */\n      swap1\n      pop\n      jump\t// out\n        /* \"LibertyFinancialChain/LiberttFinancial/genesispool.sol\":15087:15155  if (pools[pid].isActive) {... */\n    tag_229:\n        /* \"LibertyFinancialChain/LiberttFinancial/genesispool.sol\":15066:15071  pid-- */\n      dup1\n      tag_230\n      dup2\n      tag_231\n      jump\t// in\n    tag_230:\n      swap2\n      pop\n      pop\n        /* \"LibertyFinancialChain/LiberttFinancial/genesispool.sol\":15018:15165  for (uint256 pid = lastCreatedPoolId; pid >= 1; pid--) {... */\n      jump(tag_226)\n    tag_227:\n      pop\n        /* \"LibertyFinancialChain/LiberttFinancial/genesispool.sol\":15181:15182  0 */\n      0x00\n        /* \"LibertyFinancialChain/LiberttFinancial/genesispool.sol\":15174:15182  return 0 */\n      swap1\n      pop\n        /* \"LibertyFinancialChain/LiberttFinancial/genesispool.sol\":14951:15189  function getActivePoolId() public view returns (uint256) {... */\n      swap1\n      jump\t// out\n        /* \"LibertyFinancialChain/LiberttFinancial/genesispool.sol\":11193:11587  function getClaimableReferral(address user) public view returns (uint256) {... */\n    tag_74:\n      sub(shl(0xa0, 0x01), 0x01)\n        /* \"LibertyFinancialChain/LiberttFinancial/genesispool.sol\":11294:11305  users[user] */\n      dup2\n      and\n        /* \"LibertyFinancialChain/LiberttFinancial/genesispool.sol\":11258:11265  uint256 */\n      0x00\n        /* \"LibertyFinancialChain/LiberttFinancial/genesispool.sol\":11294:11305  users[user] */\n      swap1\n      dup2\n      mstore\n        /* \"LibertyFinancialChain/LiberttFinancial/genesispool.sol\":11294:11299  users */\n      0x14\n        /* \"LibertyFinancialChain/LiberttFinancial/genesispool.sol\":11294:11305  users[user] */\n      0x20\n      mstore\n      0x40\n      dup2\n      keccak256\n        /* \"LibertyFinancialChain/LiberttFinancial/genesispool.sol\":11329:11339  u.invested */\n      0x09\n      dup2\n      add\n      sload\n        /* \"LibertyFinancialChain/LiberttFinancial/genesispool.sol\":11258:11265  uint256 */\n      dup3\n      swap1\n        /* \"LibertyFinancialChain/LiberttFinancial/genesispool.sol\":11329:11367  u.invested * WITHDRAWAL_CAP_MULTIPLIER */\n      tag_233\n      swap1\n        /* \"LibertyFinancialChain/LiberttFinancial/genesispool.sol\":707:708  3 */\n      0x03\n      swap1\n        /* \"LibertyFinancialChain/LiberttFinancial/genesispool.sol\":11329:11367  u.invested * WITHDRAWAL_CAP_MULTIPLIER */\n      tag_234\n      jump\t// in\n    tag_233:\n        /* \"LibertyFinancialChain/LiberttFinancial/genesispool.sol\":11315:11367  uint256 cap = u.invested * WITHDRAWAL_CAP_MULTIPLIER */\n      swap1\n      pop\n        /* \"LibertyFinancialChain/LiberttFinancial/genesispool.sol\":11377:11394  uint256 claimable */\n      0x00\n        /* \"LibertyFinancialChain/LiberttFinancial/genesispool.sol\":11421:11422  u */\n      dup3\n        /* \"LibertyFinancialChain/LiberttFinancial/genesispool.sol\":11421:11440  u.referralWithdrawn */\n      0x0b\n      add\n      sload\n        /* \"LibertyFinancialChain/LiberttFinancial/genesispool.sol\":11397:11398  u */\n      dup4\n        /* \"LibertyFinancialChain/LiberttFinancial/genesispool.sol\":11397:11418  u.referralRewardTotal */\n      0x0a\n      add\n      sload\n        /* \"LibertyFinancialChain/LiberttFinancial/genesispool.sol\":11397:11440  u.referralRewardTotal - u.referralWithdrawn */\n      tag_235\n      swap2\n      swap1\n      tag_236\n      jump\t// in\n    tag_235:\n        /* \"LibertyFinancialChain/LiberttFinancial/genesispool.sol\":11377:11440  uint256 claimable = u.referralRewardTotal - u.referralWithdrawn */\n      swap1\n      pop\n        /* \"LibertyFinancialChain/LiberttFinancial/genesispool.sol\":11488:11491  cap */\n      dup2\n        /* \"LibertyFinancialChain/LiberttFinancial/genesispool.sol\":11476:11485  claimable */\n      dup2\n        /* \"LibertyFinancialChain/LiberttFinancial/genesispool.sol\":11454:11455  u */\n      dup5\n        /* \"LibertyFinancialChain/LiberttFinancial/genesispool.sol\":11454:11473  u.referralWithdrawn */\n      0x0b\n      add\n      sload\n        /* \"LibertyFinancialChain/LiberttFinancial/genesispool.sol\":11454:11485  u.referralWithdrawn + claimable */\n      tag_237\n      swap2\n      swap1\n      tag_223\n      jump\t// in\n    tag_237:\n        /* \"LibertyFinancialChain/LiberttFinancial/genesispool.sol\":11454:11491  u.referralWithdrawn + claimable > cap */\n      gt\n        /* \"LibertyFinancialChain/LiberttFinancial/genesispool.sol\":11450:11555  if (u.referralWithdrawn + claimable > cap) {... */\n      iszero\n      tag_238\n      jumpi\n        /* \"LibertyFinancialChain/LiberttFinancial/genesispool.sol\":11525:11544  u.referralWithdrawn */\n      0x0b\n      dup4\n      add\n      sload\n        /* \"LibertyFinancialChain/LiberttFinancial/genesispool.sol\":11519:11544  cap - u.referralWithdrawn */\n      tag_239\n      swap1\n        /* \"LibertyFinancialChain/LiberttFinancial/genesispool.sol\":11519:11522  cap */\n      dup4\n        /* \"LibertyFinancialChain/LiberttFinancial/genesispool.sol\":11519:11544  cap - u.referralWithdrawn */\n      tag_236\n      jump\t// in\n    tag_239:\n        /* \"LibertyFinancialChain/LiberttFinancial/genesispool.sol\":11507:11544  claimable = cap - u.referralWithdrawn */\n      swap1\n      pop\n        /* \"LibertyFinancialChain/LiberttFinancial/genesispool.sol\":11450:11555  if (u.referralWithdrawn + claimable > cap) {... */\n    tag_238:\n        /* \"LibertyFinancialChain/LiberttFinancial/genesispool.sol\":11571:11580  claimable */\n      swap5\n        /* \"LibertyFinancialChain/LiberttFinancial/genesispool.sol\":11193:11587  function getClaimableReferral(address user) public view returns (uint256) {... */\n      swap4\n      pop\n      pop\n      pop\n      pop\n      jump\t// out\n        /* \"LibertyFinancialChain/LiberttFinancial/genesispool.sol\":1897:1942  mapping(uint256 => Order[]) public poolOrders */\n    tag_82:\n      mstore(0x20, 0x13)\n      dup2\n      0x00\n      mstore\n      keccak256(0x00, 0x40)\n      dup2\n      dup2\n      sload\n      dup2\n      lt\n      tag_240\n      jumpi\n      0x00\n      dup1\n      revert\n    tag_240:\n      0x00\n      swap2\n      dup3\n      mstore\n      0x20\n      swap1\n      swap2\n      keccak256\n      0x06\n      swap1\n      swap2\n      mul\n      add\n      dup1\n      sload\n      0x01\n      dup3\n      add\n      sload\n      0x02\n      dup4\n      add\n      sload\n      0x03\n      dup5\n      add\n      sload\n      0x04\n      dup6\n      add\n      dup1\n      sload\n      swap5\n      swap8\n      pop\n      sub(shl(0xa0, 0x01), 0x01)\n      swap1\n      swap4\n      and\n      swap6\n      pop\n      swap1\n      swap4\n      swap1\n      swap3\n      swap1\n      swap2\n      swap1\n      tag_242\n      swap1\n      tag_243\n      jump\t// in\n    tag_242:\n      dup1\n      0x1f\n      add\n      0x20\n      dup1\n      swap2\n      div\n      mul\n      0x20\n      add\n      mload(0x40)\n      swap1\n      dup2\n      add\n      0x40\n      mstore\n      dup1\n      swap3\n      swap2\n      swap1\n      dup2\n      dup2\n      mstore\n      0x20\n      add\n      dup3\n      dup1\n      sload\n      tag_244\n      swap1\n      tag_243\n      jump\t// in\n    tag_244:\n      dup1\n      iszero\n      tag_245\n      jumpi\n      dup1\n      0x1f\n      lt\n      tag_246\n      jumpi\n      0x0100\n      dup1\n      dup4\n      sload\n      div\n      mul\n      dup4\n      mstore\n      swap2\n      0x20\n      add\n      swap2\n      jump(tag_245)\n    tag_246:\n      dup3\n      add\n      swap2\n      swap1\n      0x00\n      mstore\n      keccak256(0x00, 0x20)\n      swap1\n    tag_247:\n      dup2\n      sload\n      dup2\n      mstore\n      swap1\n      0x01\n      add\n      swap1\n      0x20\n      add\n      dup1\n      dup4\n      gt\n      tag_247\n      jumpi\n      dup3\n      swap1\n      sub\n      0x1f\n      and\n      dup3\n      add\n      swap2\n    tag_245:\n      pop\n      pop\n      pop\n      0x05\n      swap1\n      swap4\n      add\n      sload\n      swap2\n      swap3\n      pop\n      pop\n      0xff\n      and\n      dup7\n      jump\t// out\n        /* \"LibertyFinancialChain/LiberttFinancial/genesispool.sol\":11592:12241  function withdrawReferralReward() external nonReentrant {... */\n    tag_86:\n        /* \"@openzeppelin/contracts/security/ReentrancyGuard.sol\":2261:2282  _nonReentrantBefore() */\n      tag_249\n        /* \"@openzeppelin/contracts/security/ReentrancyGuard.sol\":2261:2280  _nonReentrantBefore */\n      tag_250\n        /* \"@openzeppelin/contracts/security/ReentrancyGuard.sol\":2261:2282  _nonReentrantBefore() */\n      jump\t// in\n    tag_249:\n        /* \"LibertyFinancialChain/LiberttFinancial/genesispool.sol\":11684:11694  msg.sender */\n      caller\n        /* \"LibertyFinancialChain/LiberttFinancial/genesispool.sol\":11658:11675  User storage user */\n      0x00\n        /* \"LibertyFinancialChain/LiberttFinancial/genesispool.sol\":11678:11695  users[msg.sender] */\n      dup2\n      dup2\n      mstore\n        /* \"LibertyFinancialChain/LiberttFinancial/genesispool.sol\":11678:11683  users */\n      0x14\n        /* \"LibertyFinancialChain/LiberttFinancial/genesispool.sol\":11678:11695  users[msg.sender] */\n      0x20\n      mstore\n      0x40\n      dup2\n      keccak256\n      swap2\n        /* \"LibertyFinancialChain/LiberttFinancial/genesispool.sol\":11725:11757  getClaimableReferral(msg.sender) */\n      tag_252\n      swap1\n        /* \"LibertyFinancialChain/LiberttFinancial/genesispool.sol\":11725:11745  getClaimableReferral */\n      tag_74\n        /* \"LibertyFinancialChain/LiberttFinancial/genesispool.sol\":11725:11757  getClaimableReferral(msg.sender) */\n      jump\t// in\n    tag_252:\n        /* \"LibertyFinancialChain/LiberttFinancial/genesispool.sol\":11705:11757  uint256 claimable = getClaimableReferral(msg.sender) */\n      swap1\n      pop\n        /* \"LibertyFinancialChain/LiberttFinancial/genesispool.sol\":752:759  1000e18 */\n      0x3635c9adc5dea00000\n        /* \"LibertyFinancialChain/LiberttFinancial/genesispool.sol\":11775:11784  claimable */\n      dup2\n        /* \"LibertyFinancialChain/LiberttFinancial/genesispool.sol\":11775:11806  claimable >= MIN_REFERRAL_CLAIM */\n      lt\n      iszero\n        /* \"LibertyFinancialChain/LiberttFinancial/genesispool.sol\":11767:11830  require(claimable >= MIN_REFERRAL_CLAIM, \"Not enough to claim\") */\n      tag_253\n      jumpi\n      mload(0x40)\n      shl(0xe5, 0x461bcd)\n      dup2\n      mstore\n        /* \"#utility.yul\":8166:8168   */\n      0x20\n        /* \"LibertyFinancialChain/LiberttFinancial/genesispool.sol\":11767:11830  require(claimable >= MIN_REFERRAL_CLAIM, \"Not enough to claim\") */\n      0x04\n      dup3\n      add\n        /* \"#utility.yul\":8148:8169   */\n      mstore\n        /* \"#utility.yul\":8205:8207   */\n      0x13\n        /* \"#utility.yul\":8185:8203   */\n      0x24\n      dup3\n      add\n        /* \"#utility.yul\":8178:8208   */\n      mstore\n      shl(0x68, 0x4e6f7420656e6f75676820746f20636c61696d)\n        /* \"#utility.yul\":8224:8242   */\n      0x44\n      dup3\n      add\n        /* \"#utility.yul\":8217:8266   */\n      mstore\n        /* \"#utility.yul\":8283:8301   */\n      0x64\n      add\n        /* \"LibertyFinancialChain/LiberttFinancial/genesispool.sol\":11767:11830  require(claimable >= MIN_REFERRAL_CLAIM, \"Not enough to claim\") */\n    tag_254:\n      mload(0x40)\n      dup1\n      swap2\n      sub\n      swap1\n      revert\n    tag_253:\n        /* \"LibertyFinancialChain/LiberttFinancial/genesispool.sol\":11866:11875  claimable */\n      dup1\n        /* \"LibertyFinancialChain/LiberttFinancial/genesispool.sol\":11840:11844  user */\n      dup3\n        /* \"LibertyFinancialChain/LiberttFinancial/genesispool.sol\":11840:11862  user.referralWithdrawn */\n      0x0b\n      add\n      0x00\n        /* \"LibertyFinancialChain/LiberttFinancial/genesispool.sol\":11840:11875  user.referralWithdrawn += claimable */\n      dup3\n      dup3\n      sload\n      tag_256\n      swap2\n      swap1\n      tag_223\n      jump\t// in\n    tag_256:\n      swap1\n      swap2\n      sstore\n      pop\n      pop\n        /* \"LibertyFinancialChain/LiberttFinancial/genesispool.sol\":11893:11897  INR1 */\n      sload(0x09)\n        /* \"LibertyFinancialChain/LiberttFinancial/genesispool.sol\":11893:11922  INR1.balanceOf(address(this)) */\n      mload(0x40)\n      shl(0xe0, 0x70a08231)\n      dup2\n      mstore\n        /* \"LibertyFinancialChain/LiberttFinancial/genesispool.sol\":11916:11920  this */\n      address\n        /* \"LibertyFinancialChain/LiberttFinancial/genesispool.sol\":11893:11922  INR1.balanceOf(address(this)) */\n      0x04\n      dup3\n      add\n        /* \"#utility.yul\":342:393   */\n      mstore\n        /* \"LibertyFinancialChain/LiberttFinancial/genesispool.sol\":11926:11935  claimable */\n      dup3\n      swap2\n      sub(shl(0xa0, 0x01), 0x01)\n        /* \"LibertyFinancialChain/LiberttFinancial/genesispool.sol\":11893:11897  INR1 */\n      and\n      swap1\n        /* \"LibertyFinancialChain/LiberttFinancial/genesispool.sol\":11893:11907  INR1.balanceOf */\n      0x70a08231\n      swap1\n        /* \"#utility.yul\":315:333   */\n      0x24\n      add\n        /* \"LibertyFinancialChain/LiberttFinancial/genesispool.sol\":11893:11922  INR1.balanceOf(address(this)) */\n      0x20\n      mload(0x40)\n      dup1\n      dup4\n      sub\n      dup2\n      dup7\n      gas\n      staticcall\n      iszero\n      dup1\n      iszero\n      tag_259\n      jumpi\n      returndatasize\n      0x00\n      dup1\n      returndatacopy\n      revert(0x00, returndatasize)\n    tag_259:\n      pop\n      pop\n      pop\n      pop\n      mload(0x40)\n      returndatasize\n      not(0x1f)\n      0x1f\n      dup3\n      add\n      and\n      dup3\n      add\n      dup1\n      0x40\n      mstore\n      pop\n      dup2\n      add\n      swap1\n      tag_260\n      swap2\n      swap1\n      tag_261\n      jump\t// in\n    tag_260:\n        /* \"LibertyFinancialChain/LiberttFinancial/genesispool.sol\":11893:11935  INR1.balanceOf(address(this)) >= claimable */\n      lt\n      iszero\n        /* \"LibertyFinancialChain/LiberttFinancial/genesispool.sol\":11885:11957  require(INR1.balanceOf(address(this)) >= claimable, \"Insufficient INR1\") */\n      tag_262\n      jumpi\n      mload(0x40)\n      shl(0xe5, 0x461bcd)\n      dup2\n      mstore\n        /* \"#utility.yul\":8703:8705   */\n      0x20\n        /* \"LibertyFinancialChain/LiberttFinancial/genesispool.sol\":11885:11957  require(INR1.balanceOf(address(this)) >= claimable, \"Insufficient INR1\") */\n      0x04\n      dup3\n      add\n        /* \"#utility.yul\":8685:8706   */\n      mstore\n        /* \"#utility.yul\":8742:8744   */\n      0x11\n        /* \"#utility.yul\":8722:8740   */\n      0x24\n      dup3\n      add\n        /* \"#utility.yul\":8715:8745   */\n      mstore\n      shl(0x78, 0x496e73756666696369656e7420494e5231)\n        /* \"#utility.yul\":8761:8779   */\n      0x44\n      dup3\n      add\n        /* \"#utility.yul\":8754:8801   */\n      mstore\n        /* \"#utility.yul\":8818:8836   */\n      0x64\n      add\n        /* \"LibertyFinancialChain/LiberttFinancial/genesispool.sol\":11885:11957  require(INR1.balanceOf(address(this)) >= claimable, \"Insufficient INR1\") */\n      tag_254\n        /* \"#utility.yul\":8501:8842   */\n      jump\n        /* \"LibertyFinancialChain/LiberttFinancial/genesispool.sol\":11885:11957  require(INR1.balanceOf(address(this)) >= claimable, \"Insufficient INR1\") */\n    tag_262:\n        /* \"LibertyFinancialChain/LiberttFinancial/genesispool.sol\":11967:11971  INR1 */\n      sload(0x09)\n        /* \"LibertyFinancialChain/LiberttFinancial/genesispool.sol\":11967:12007  INR1.safeTransfer(msg.sender, claimable) */\n      tag_265\n      swap1\n      sub(shl(0xa0, 0x01), 0x01)\n        /* \"LibertyFinancialChain/LiberttFinancial/genesispool.sol\":11967:11971  INR1 */\n      and\n        /* \"LibertyFinancialChain/LiberttFinancial/genesispool.sol\":11985:11995  msg.sender */\n      caller\n        /* \"LibertyFinancialChain/LiberttFinancial/genesispool.sol\":11997:12006  claimable */\n      dup4\n        /* \"LibertyFinancialChain/LiberttFinancial/genesispool.sol\":11967:11984  INR1.safeTransfer */\n      tag_266\n        /* \"LibertyFinancialChain/LiberttFinancial/genesispool.sol\":11967:12007  INR1.safeTransfer(msg.sender, claimable) */\n      jump\t// in\n    tag_265:\n        /* \"LibertyFinancialChain/LiberttFinancial/genesispool.sol\":12022:12066  ReferralRewardClaimed(msg.sender, claimable) */\n      mload(0x40)\n        /* \"#utility.yul\":160:185   */\n      dup2\n      dup2\n      mstore\n        /* \"LibertyFinancialChain/LiberttFinancial/genesispool.sol\":12044:12054  msg.sender */\n      caller\n      swap1\n        /* \"LibertyFinancialChain/LiberttFinancial/genesispool.sol\":12022:12066  ReferralRewardClaimed(msg.sender, claimable) */\n      0x5be4d22009fea85381595ed91090bc5c0bc92a93fe07ed7472c5888eb1993f83\n      swap1\n        /* \"#utility.yul\":148:150   */\n      0x20\n        /* \"#utility.yul\":133:151   */\n      add\n        /* \"LibertyFinancialChain/LiberttFinancial/genesispool.sol\":12022:12066  ReferralRewardClaimed(msg.sender, claimable) */\n      mload(0x40)\n      dup1\n      swap2\n      sub\n      swap1\n      log2\n        /* \"LibertyFinancialChain/LiberttFinancial/genesispool.sol\":12096:12106  msg.sender */\n      caller\n      sub(shl(0xa0, 0x01), 0x01)\n        /* \"LibertyFinancialChain/LiberttFinancial/genesispool.sol\":12081:12234  ReferralStatus(msg.sender, user.referralRewardTotal, getClaimableReferral(msg.sender), user.referralWithdrawn, user.invested * WITHDRAWAL_CAP_MULTIPLIER) */\n      and\n      0xdd8025b728f6881d55401ec3c5f58bac7e135a199306892b83593f9bf4bfe23a\n        /* \"LibertyFinancialChain/LiberttFinancial/genesispool.sol\":12108:12112  user */\n      dup4\n        /* \"LibertyFinancialChain/LiberttFinancial/genesispool.sol\":12108:12132  user.referralRewardTotal */\n      0x0a\n      add\n      sload\n        /* \"LibertyFinancialChain/LiberttFinancial/genesispool.sol\":12134:12166  getClaimableReferral(msg.sender) */\n      tag_268\n        /* \"LibertyFinancialChain/LiberttFinancial/genesispool.sol\":12155:12165  msg.sender */\n      caller\n        /* \"LibertyFinancialChain/LiberttFinancial/genesispool.sol\":12134:12154  getClaimableReferral */\n      tag_74\n        /* \"LibertyFinancialChain/LiberttFinancial/genesispool.sol\":12134:12166  getClaimableReferral(msg.sender) */\n      jump\t// in\n    tag_268:\n        /* \"LibertyFinancialChain/LiberttFinancial/genesispool.sol\":12168:12172  user */\n      dup6\n        /* \"LibertyFinancialChain/LiberttFinancial/genesispool.sol\":12168:12190  user.referralWithdrawn */\n      0x0b\n      add\n      sload\n        /* \"LibertyFinancialChain/LiberttFinancial/genesispool.sol\":707:708  3 */\n      0x03\n        /* \"LibertyFinancialChain/LiberttFinancial/genesispool.sol\":12192:12196  user */\n      dup8\n        /* \"LibertyFinancialChain/LiberttFinancial/genesispool.sol\":12192:12205  user.invested */\n      0x09\n      add\n      sload\n        /* \"LibertyFinancialChain/LiberttFinancial/genesispool.sol\":12192:12233  user.invested * WITHDRAWAL_CAP_MULTIPLIER */\n      tag_269\n      swap2\n      swap1\n      tag_234\n      jump\t// in\n    tag_269:\n        /* \"LibertyFinancialChain/LiberttFinancial/genesispool.sol\":12081:12234  ReferralStatus(msg.sender, user.referralRewardTotal, getClaimableReferral(msg.sender), user.referralWithdrawn, user.invested * WITHDRAWAL_CAP_MULTIPLIER) */\n      0x40\n      dup1\n      mload\n        /* \"#utility.yul\":9078:9103   */\n      swap5\n      dup6\n      mstore\n        /* \"#utility.yul\":9134:9136   */\n      0x20\n        /* \"#utility.yul\":9119:9137   */\n      dup6\n      add\n        /* \"#utility.yul\":9112:9146   */\n      swap4\n      swap1\n      swap4\n      mstore\n        /* \"#utility.yul\":9162:9180   */\n      swap2\n      dup4\n      add\n        /* \"#utility.yul\":9155:9189   */\n      mstore\n        /* \"#utility.yul\":9220:9222   */\n      0x60\n        /* \"#utility.yul\":9205:9223   */\n      dup3\n      add\n        /* \"#utility.yul\":9198:9232   */\n      mstore\n        /* \"#utility.yul\":9065:9068   */\n      0x80\n        /* \"#utility.yul\":9050:9069   */\n      add\n        /* \"LibertyFinancialChain/LiberttFinancial/genesispool.sol\":12081:12234  ReferralStatus(msg.sender, user.referralRewardTotal, getClaimableReferral(msg.sender), user.referralWithdrawn, user.invested * WITHDRAWAL_CAP_MULTIPLIER) */\n      mload(0x40)\n      dup1\n      swap2\n      sub\n      swap1\n      log2\n        /* \"LibertyFinancialChain/LiberttFinancial/genesispool.sol\":11648:12241  {... */\n      pop\n      pop\n        /* \"@openzeppelin/contracts/security/ReentrancyGuard.sol\":2303:2323  _nonReentrantAfter() */\n      tag_272\n        /* \"@openzeppelin/contracts/security/ReentrancyGuard.sol\":1716:1717  1 */\n      0x01\n        /* \"@openzeppelin/contracts/security/ReentrancyGuard.sol\":2809:2831  _status = _NOT_ENTERED */\n      dup1\n      sstore\n        /* \"@openzeppelin/contracts/security/ReentrancyGuard.sol\":2629:2838  function _nonReentrantAfter() private {... */\n      jump\n        /* \"@openzeppelin/contracts/security/ReentrancyGuard.sol\":2303:2323  _nonReentrantAfter() */\n    tag_272:\n        /* \"LibertyFinancialChain/LiberttFinancial/genesispool.sol\":11592:12241  function withdrawReferralReward() external nonReentrant {... */\n      jump\t// out\n        /* \"LibertyFinancialChain/LiberttFinancial/genesispool.sol\":4971:5232  function setINR1(address newINR1) external onlyOwner {... */\n    tag_96:\n        /* \"@openzeppelin/contracts/access/Ownable.sol\":1531:1544  _checkOwner() */\n      tag_275\n        /* \"@openzeppelin/contracts/access/Ownable.sol\":1531:1542  _checkOwner */\n      tag_276\n        /* \"@openzeppelin/contracts/access/Ownable.sol\":1531:1544  _checkOwner() */\n      jump\t// in\n    tag_275:\n      sub(shl(0xa0, 0x01), 0x01)\n        /* \"LibertyFinancialChain/LiberttFinancial/genesispool.sol\":5038:5059  newINR1 != address(0) */\n      dup2\n      and\n        /* \"LibertyFinancialChain/LiberttFinancial/genesispool.sol\":5030:5076  require(newINR1 != address(0), \"Zero address\") */\n      tag_278\n      jumpi\n      mload(0x40)\n      shl(0xe5, 0x461bcd)\n      dup2\n      mstore\n        /* \"#utility.yul\":9445:9447   */\n      0x20\n        /* \"LibertyFinancialChain/LiberttFinancial/genesispool.sol\":5030:5076  require(newINR1 != address(0), \"Zero address\") */\n      0x04\n      dup3\n      add\n        /* \"#utility.yul\":9427:9448   */\n      mstore\n        /* \"#utility.yul\":9484:9486   */\n      0x0c\n        /* \"#utility.yul\":9464:9482   */\n      0x24\n      dup3\n      add\n        /* \"#utility.yul\":9457:9487   */\n      mstore\n      shl(0xa0, 0x5a65726f2061646472657373)\n        /* \"#utility.yul\":9503:9521   */\n      0x44\n      dup3\n      add\n        /* \"#utility.yul\":9496:9538   */\n      mstore\n        /* \"#utility.yul\":9555:9573   */\n      0x64\n      add\n        /* \"LibertyFinancialChain/LiberttFinancial/genesispool.sol\":5030:5076  require(newINR1 != address(0), \"Zero address\") */\n      tag_254\n        /* \"#utility.yul\":9243:9579   */\n      jump\n        /* \"LibertyFinancialChain/LiberttFinancial/genesispool.sol\":5030:5076  require(newINR1 != address(0), \"Zero address\") */\n    tag_278:\n        /* \"LibertyFinancialChain/LiberttFinancial/genesispool.sol\":5082:5086  INR1 */\n      0x09\n        /* \"LibertyFinancialChain/LiberttFinancial/genesispool.sol\":5082:5104  INR1 = IERC20(newINR1) */\n      dup1\n      sload\n      not(sub(shl(0xa0, 0x01), 0x01))\n      and\n      sub(shl(0xa0, 0x01), 0x01)\n      dup4\n      and\n      swap1\n      dup2\n      or\n      swap1\n      swap2\n      sstore\n        /* \"LibertyFinancialChain/LiberttFinancial/genesispool.sol\":5124:5158  IERC20Metadata(newINR1).decimals() */\n      0x40\n      dup1\n      mload\n      shl(0xe0, 0x313ce567)\n      dup2\n      mstore\n      swap1\n      mload\n        /* \"LibertyFinancialChain/LiberttFinancial/genesispool.sol\":5124:5156  IERC20Metadata(newINR1).decimals */\n      0x313ce567\n      swap2\n        /* \"LibertyFinancialChain/LiberttFinancial/genesispool.sol\":5124:5158  IERC20Metadata(newINR1).decimals() */\n      0x04\n      dup1\n      dup3\n      add\n      swap3\n      0x20\n      swap3\n      swap1\n      swap2\n      swap1\n      dup3\n      swap1\n      sub\n      add\n      dup2\n        /* \"LibertyFinancialChain/LiberttFinancial/genesispool.sol\":5082:5104  INR1 = IERC20(newINR1) */\n      dup7\n        /* \"LibertyFinancialChain/LiberttFinancial/genesispool.sol\":5124:5158  IERC20Metadata(newINR1).decimals() */\n      gas\n      staticcall\n      iszero\n      dup1\n      iszero\n      tag_282\n      jumpi\n      returndatasize\n      0x00\n      dup1\n      returndatacopy\n      revert(0x00, returndatasize)\n    tag_282:\n      pop\n      pop\n      pop\n      pop\n      mload(0x40)\n      returndatasize\n      not(0x1f)\n      0x1f\n      dup3\n      add\n      and\n      dup3\n      add\n      dup1\n      0x40\n      mstore\n      pop\n      dup2\n      add\n      swap1\n      tag_283\n      swap2\n      swap1\n      tag_284\n      jump\t// in\n    tag_283:\n        /* \"LibertyFinancialChain/LiberttFinancial/genesispool.sol\":5110:5121  inrDecimals */\n      0x0b\n        /* \"LibertyFinancialChain/LiberttFinancial/genesispool.sol\":5110:5158  inrDecimals = IERC20Metadata(newINR1).decimals() */\n      dup1\n      sload\n      0xff\n      swap3\n      swap1\n      swap3\n      and\n      shl(0xa0, 0x01)\n      mul\n      not(shl(0xa0, 0xff))\n      swap1\n      swap3\n      and\n      swap2\n      swap1\n      swap2\n      or\n      swap1\n      sstore\n      sub(shl(0xa0, 0x01), 0x01)\n        /* \"LibertyFinancialChain/LiberttFinancial/genesispool.sol\":5164:5187  tokenWhitelist[newINR1] */\n      dup2\n      and\n      0x00\n      dup2\n      dup2\n      mstore\n        /* \"LibertyFinancialChain/LiberttFinancial/genesispool.sol\":5164:5178  tokenWhitelist */\n      0x0d\n        /* \"LibertyFinancialChain/LiberttFinancial/genesispool.sol\":5164:5187  tokenWhitelist[newINR1] */\n      0x20\n      swap1\n      dup2\n      mstore\n      0x40\n      swap2\n      dup3\n      swap1\n      keccak256\n        /* \"LibertyFinancialChain/LiberttFinancial/genesispool.sol\":5164:5194  tokenWhitelist[newINR1] = true */\n      dup1\n      sload\n      not(0xff)\n      and\n      0x01\n      or\n      swap1\n      sstore\n        /* \"LibertyFinancialChain/LiberttFinancial/genesispool.sol\":5205:5229  INRTOKENUpdated(newINR1) */\n      swap1\n      mload\n        /* \"#utility.yul\":342:393   */\n      swap2\n      dup3\n      mstore\n        /* \"LibertyFinancialChain/LiberttFinancial/genesispool.sol\":5205:5229  INRTOKENUpdated(newINR1) */\n      0xeccc870b3d8d88fd5923d96e7a466768a74b6c48460640cf23aa6162aa4f80f0\n      swap2\n        /* \"#utility.yul\":315:333   */\n      add\n        /* \"LibertyFinancialChain/LiberttFinancial/genesispool.sol\":5205:5229  INRTOKENUpdated(newINR1) */\n    tag_285:\n      mload(0x40)\n      dup1\n      swap2\n      sub\n      swap1\n      log1\n        /* \"LibertyFinancialChain/LiberttFinancial/genesispool.sol\":4971:5232  function setINR1(address newINR1) external onlyOwner {... */\n      pop\n      jump\t// out\n        /* \"LibertyFinancialChain/LiberttFinancial/genesispool.sol\":6977:7682  function changeReferrer(address user, address newReferrer) external onlyOwner {... */\n    tag_100:\n        /* \"@openzeppelin/contracts/access/Ownable.sol\":1531:1544  _checkOwner() */\n      tag_287\n        /* \"@openzeppelin/contracts/access/Ownable.sol\":1531:1542  _checkOwner */\n      tag_276\n        /* \"@openzeppelin/contracts/access/Ownable.sol\":1531:1544  _checkOwner() */\n      jump\t// in\n    tag_287:\n        /* \"LibertyFinancialChain/LiberttFinancial/genesispool.sol\":7081:7092  newReferrer */\n      dup1\n      sub(shl(0xa0, 0x01), 0x01)\n        /* \"LibertyFinancialChain/LiberttFinancial/genesispool.sol\":7073:7092  user != newReferrer */\n      and\n        /* \"LibertyFinancialChain/LiberttFinancial/genesispool.sol\":7073:7077  user */\n      dup3\n      sub(shl(0xa0, 0x01), 0x01)\n        /* \"LibertyFinancialChain/LiberttFinancial/genesispool.sol\":7073:7092  user != newReferrer */\n      and\n      sub\n        /* \"LibertyFinancialChain/LiberttFinancial/genesispool.sol\":7065:7114  require(user != newReferrer, \"Cannot refer self\") */\n      tag_289\n      jumpi\n      mload(0x40)\n      shl(0xe5, 0x461bcd)\n      dup2\n      mstore\n        /* \"#utility.yul\":10038:10040   */\n      0x20\n        /* \"LibertyFinancialChain/LiberttFinancial/genesispool.sol\":7065:7114  require(user != newReferrer, \"Cannot refer self\") */\n      0x04\n      dup3\n      add\n        /* \"#utility.yul\":10020:10041   */\n      mstore\n        /* \"#utility.yul\":10077:10079   */\n      0x11\n        /* \"#utility.yul\":10057:10075   */\n      0x24\n      dup3\n      add\n        /* \"#utility.yul\":10050:10080   */\n      mstore\n      shl(0x79, 0x21b0b73737ba103932b332b91039b2b633)\n        /* \"#utility.yul\":10096:10114   */\n      0x44\n      dup3\n      add\n        /* \"#utility.yul\":10089:10136   */\n      mstore\n        /* \"#utility.yul\":10153:10171   */\n      0x64\n      add\n        /* \"LibertyFinancialChain/LiberttFinancial/genesispool.sol\":7065:7114  require(user != newReferrer, \"Cannot refer self\") */\n      tag_254\n        /* \"#utility.yul\":9836:10177   */\n      jump\n        /* \"LibertyFinancialChain/LiberttFinancial/genesispool.sol\":7065:7114  require(user != newReferrer, \"Cannot refer self\") */\n    tag_289:\n      sub(shl(0xa0, 0x01), 0x01)\n        /* \"LibertyFinancialChain/LiberttFinancial/genesispool.sol\":7132:7143  users[user] */\n      dup3\n      and\n      0x00\n      swap1\n      dup2\n      mstore\n        /* \"LibertyFinancialChain/LiberttFinancial/genesispool.sol\":7132:7137  users */\n      0x14\n        /* \"LibertyFinancialChain/LiberttFinancial/genesispool.sol\":7132:7143  users[user] */\n      0x20\n      mstore\n      0x40\n      swap1\n      keccak256\n        /* \"LibertyFinancialChain/LiberttFinancial/genesispool.sol\":7132:7154  users[user].registered */\n      0x0c\n      add\n      sload\n      0xff\n      and\n        /* \"LibertyFinancialChain/LiberttFinancial/genesispool.sol\":7124:7182  require(users[user].registered, \"User must be registered\") */\n      tag_292\n      jumpi\n      mload(0x40)\n      shl(0xe5, 0x461bcd)\n      dup2\n      mstore\n        /* \"#utility.yul\":10384:10386   */\n      0x20\n        /* \"LibertyFinancialChain/LiberttFinancial/genesispool.sol\":7124:7182  require(users[user].registered, \"User must be registered\") */\n      0x04\n      dup3\n      add\n        /* \"#utility.yul\":10366:10387   */\n      mstore\n        /* \"#utility.yul\":10423:10425   */\n      0x17\n        /* \"#utility.yul\":10403:10421   */\n      0x24\n      dup3\n      add\n        /* \"#utility.yul\":10396:10426   */\n      mstore\n        /* \"#utility.yul\":10462:10487   */\n      0x55736572206d7573742062652072656769737465726564000000000000000000\n        /* \"#utility.yul\":10442:10460   */\n      0x44\n      dup3\n      add\n        /* \"#utility.yul\":10435:10488   */\n      mstore\n        /* \"#utility.yul\":10505:10523   */\n      0x64\n      add\n        /* \"LibertyFinancialChain/LiberttFinancial/genesispool.sol\":7124:7182  require(users[user].registered, \"User must be registered\") */\n      tag_254\n        /* \"#utility.yul\":10182:10529   */\n      jump\n        /* \"LibertyFinancialChain/LiberttFinancial/genesispool.sol\":7124:7182  require(users[user].registered, \"User must be registered\") */\n    tag_292:\n      sub(shl(0xa0, 0x01), 0x01)\n        /* \"LibertyFinancialChain/LiberttFinancial/genesispool.sol\":7200:7225  newReferrer == address(0) */\n      dup2\n      and\n      iszero\n      dup1\n        /* \"LibertyFinancialChain/LiberttFinancial/genesispool.sol\":7200:7258  newReferrer == address(0) || users[newReferrer].registered */\n      tag_295\n      jumpi\n      pop\n      sub(shl(0xa0, 0x01), 0x01)\n        /* \"LibertyFinancialChain/LiberttFinancial/genesispool.sol\":7229:7247  users[newReferrer] */\n      dup2\n      and\n      0x00\n      swap1\n      dup2\n      mstore\n        /* \"LibertyFinancialChain/LiberttFinancial/genesispool.sol\":7229:7234  users */\n      0x14\n        /* \"LibertyFinancialChain/LiberttFinancial/genesispool.sol\":7229:7247  users[newReferrer] */\n      0x20\n      mstore\n      0x40\n      swap1\n      keccak256\n        /* \"LibertyFinancialChain/LiberttFinancial/genesispool.sol\":7229:7258  users[newReferrer].registered */\n      0x0c\n      add\n      sload\n      0xff\n      and\n        /* \"LibertyFinancialChain/LiberttFinancial/genesispool.sol\":7200:7258  newReferrer == address(0) || users[newReferrer].registered */\n    tag_295:\n        /* \"LibertyFinancialChain/LiberttFinancial/genesispool.sol\":7192:7290  require(newReferrer == address(0) || users[newReferrer].registered, \"Referrer must be registered\") */\n      tag_296\n      jumpi\n      mload(0x40)\n      shl(0xe5, 0x461bcd)\n      dup2\n      mstore\n        /* \"#utility.yul\":10736:10738   */\n      0x20\n        /* \"LibertyFinancialChain/LiberttFinancial/genesispool.sol\":7192:7290  require(newReferrer == address(0) || users[newReferrer].registered, \"Referrer must be registered\") */\n      0x04\n      dup3\n      add\n        /* \"#utility.yul\":10718:10739   */\n      mstore\n        /* \"#utility.yul\":10775:10777   */\n      0x1b\n        /* \"#utility.yul\":10755:10773   */\n      0x24\n      dup3\n      add\n        /* \"#utility.yul\":10748:10778   */\n      mstore\n        /* \"#utility.yul\":10814:10843   */\n      0x5265666572726572206d75737420626520726567697374657265640000000000\n        /* \"#utility.yul\":10794:10812   */\n      0x44\n      dup3\n      add\n        /* \"#utility.yul\":10787:10844   */\n      mstore\n        /* \"#utility.yul\":10861:10879   */\n      0x64\n      add\n        /* \"LibertyFinancialChain/LiberttFinancial/genesispool.sol\":7192:7290  require(newReferrer == address(0) || users[newReferrer].registered, \"Referrer must be registered\") */\n      tag_254\n        /* \"#utility.yul\":10534:10885   */\n      jump\n        /* \"LibertyFinancialChain/LiberttFinancial/genesispool.sol\":7192:7290  require(newReferrer == address(0) || users[newReferrer].registered, \"Referrer must be registered\") */\n    tag_296:\n      sub(shl(0xa0, 0x01), 0x01)\n        /* \"LibertyFinancialChain/LiberttFinancial/genesispool.sol\":7317:7328  users[user] */\n      dup1\n      dup4\n      and\n        /* \"LibertyFinancialChain/LiberttFinancial/genesispool.sol\":7300:7314  address oldRef */\n      0x00\n        /* \"LibertyFinancialChain/LiberttFinancial/genesispool.sol\":7317:7328  users[user] */\n      swap1\n      dup2\n      mstore\n        /* \"LibertyFinancialChain/LiberttFinancial/genesispool.sol\":7317:7322  users */\n      0x14\n        /* \"LibertyFinancialChain/LiberttFinancial/genesispool.sol\":7317:7328  users[user] */\n      0x20\n      mstore\n      0x40\n      dup2\n      keccak256\n        /* \"LibertyFinancialChain/LiberttFinancial/genesispool.sol\":7317:7337  users[user].referrer */\n      dup1\n      sload\n        /* \"LibertyFinancialChain/LiberttFinancial/genesispool.sol\":7347:7381  users[user].referrer = newReferrer */\n      dup5\n      dup5\n      and\n      not(sub(shl(0xa0, 0x01), 0x01))\n      dup3\n      and\n      or\n      swap1\n      swap2\n      sstore\n        /* \"LibertyFinancialChain/LiberttFinancial/genesispool.sol\":7317:7337  users[user].referrer */\n      swap1\n      swap2\n      and\n      swap1\n        /* \"LibertyFinancialChain/LiberttFinancial/genesispool.sol\":7370:7381  newReferrer */\n      dup3\n      swap1\n        /* \"LibertyFinancialChain/LiberttFinancial/genesispool.sol\":7429:7619  for (uint8 i = 0; i < REFERRAL_LEVELS; i++) {... */\n    tag_299:\n        /* \"LibertyFinancialChain/LiberttFinancial/genesispool.sol\":550:551  7 */\n      0x07\n        /* \"LibertyFinancialChain/LiberttFinancial/genesispool.sol\":7447:7466  i < REFERRAL_LEVELS */\n      0xff\n      dup3\n      and\n      lt\n        /* \"LibertyFinancialChain/LiberttFinancial/genesispool.sol\":7429:7619  for (uint8 i = 0; i < REFERRAL_LEVELS; i++) {... */\n      iszero\n      tag_300\n      jumpi\n      sub(shl(0xa0, 0x01), 0x01)\n        /* \"LibertyFinancialChain/LiberttFinancial/genesispool.sol\":7487:7498  users[user] */\n      dup6\n      and\n      0x00\n      swap1\n      dup2\n      mstore\n        /* \"LibertyFinancialChain/LiberttFinancial/genesispool.sol\":7487:7492  users */\n      0x14\n        /* \"LibertyFinancialChain/LiberttFinancial/genesispool.sol\":7487:7498  users[user] */\n      0x20\n      mstore\n      0x40\n      swap1\n      keccak256\n        /* \"LibertyFinancialChain/LiberttFinancial/genesispool.sol\":7512:7518  upline */\n      dup3\n      swap1\n        /* \"LibertyFinancialChain/LiberttFinancial/genesispool.sol\":7487:7506  users[user].uplines */\n      0x01\n      add\n        /* \"LibertyFinancialChain/LiberttFinancial/genesispool.sol\":7487:7509  users[user].uplines[i] */\n      0xff\n      dup4\n      and\n      0x07\n      dup2\n      lt\n      tag_303\n      jumpi\n      tag_303\n      tag_304\n      jump\t// in\n    tag_303:\n      add\n        /* \"LibertyFinancialChain/LiberttFinancial/genesispool.sol\":7487:7518  users[user].uplines[i] = upline */\n      dup1\n      sload\n      not(sub(shl(0xa0, 0x01), 0x01))\n      and\n      sub(shl(0xa0, 0x01), 0x01)\n      swap3\n      dup4\n      and\n      or\n      swap1\n      sstore\n        /* \"LibertyFinancialChain/LiberttFinancial/genesispool.sol\":7536:7556  upline == address(0) */\n      dup3\n      and\n        /* \"LibertyFinancialChain/LiberttFinancial/genesispool.sol\":7532:7563  if (upline == address(0)) break */\n      iszero\n        /* \"LibertyFinancialChain/LiberttFinancial/genesispool.sol\":7558:7563  break */\n      tag_300\n        /* \"LibertyFinancialChain/LiberttFinancial/genesispool.sol\":7532:7563  if (upline == address(0)) break */\n      jumpi\n      sub(shl(0xa0, 0x01), 0x01)\n        /* \"LibertyFinancialChain/LiberttFinancial/genesispool.sol\":7586:7599  users[upline] */\n      swap2\n      dup3\n      and\n      0x00\n      swap1\n      dup2\n      mstore\n        /* \"LibertyFinancialChain/LiberttFinancial/genesispool.sol\":7586:7591  users */\n      0x14\n        /* \"LibertyFinancialChain/LiberttFinancial/genesispool.sol\":7586:7599  users[upline] */\n      0x20\n      mstore\n      0x40\n      swap1\n      keccak256\n        /* \"LibertyFinancialChain/LiberttFinancial/genesispool.sol\":7586:7608  users[upline].referrer */\n      sload\n      swap1\n      swap2\n      and\n      swap1\n        /* \"LibertyFinancialChain/LiberttFinancial/genesispool.sol\":7468:7471  i++ */\n      dup1\n      tag_307\n      dup2\n      tag_308\n      jump\t// in\n    tag_307:\n      swap2\n      pop\n      pop\n        /* \"LibertyFinancialChain/LiberttFinancial/genesispool.sol\":7429:7619  for (uint8 i = 0; i < REFERRAL_LEVELS; i++) {... */\n      jump(tag_299)\n    tag_300:\n      pop\n        /* \"LibertyFinancialChain/LiberttFinancial/genesispool.sol\":7663:7674  newReferrer */\n      dup3\n      sub(shl(0xa0, 0x01), 0x01)\n        /* \"LibertyFinancialChain/LiberttFinancial/genesispool.sol\":7633:7675  ReferrerChanged(user, oldRef, newReferrer) */\n      and\n        /* \"LibertyFinancialChain/LiberttFinancial/genesispool.sol\":7655:7661  oldRef */\n      dup3\n      sub(shl(0xa0, 0x01), 0x01)\n        /* \"LibertyFinancialChain/LiberttFinancial/genesispool.sol\":7633:7675  ReferrerChanged(user, oldRef, newReferrer) */\n      and\n        /* \"LibertyFinancialChain/LiberttFinancial/genesispool.sol\":7649:7653  user */\n      dup6\n      sub(shl(0xa0, 0x01), 0x01)\n        /* \"LibertyFinancialChain/LiberttFinancial/genesispool.sol\":7633:7675  ReferrerChanged(user, oldRef, newReferrer) */\n      and\n      0xf8b9fe4d008320e6f048c61e41e9cc56ce351354ad0cb9a868bd3c4bd6928fd5\n      mload(0x40)\n      mload(0x40)\n      dup1\n      swap2\n      sub\n      swap1\n      log4\n        /* \"LibertyFinancialChain/LiberttFinancial/genesispool.sol\":7055:7682  {... */\n      pop\n      pop\n        /* \"LibertyFinancialChain/LiberttFinancial/genesispool.sol\":6977:7682  function changeReferrer(address user, address newReferrer) external onlyOwner {... */\n      pop\n      pop\n      jump\t// out\n        /* \"LibertyFinancialChain/LiberttFinancial/genesispool.sol\":5611:6442  function register(address referrer) external {... */\n    tag_103:\n        /* \"LibertyFinancialChain/LiberttFinancial/genesispool.sol\":5681:5691  msg.sender */\n      caller\n        /* \"LibertyFinancialChain/LiberttFinancial/genesispool.sol\":5675:5692  users[msg.sender] */\n      0x00\n      swap1\n      dup2\n      mstore\n        /* \"LibertyFinancialChain/LiberttFinancial/genesispool.sol\":5675:5680  users */\n      0x14\n        /* \"LibertyFinancialChain/LiberttFinancial/genesispool.sol\":5675:5692  users[msg.sender] */\n      0x20\n      mstore\n      0x40\n      swap1\n      keccak256\n        /* \"LibertyFinancialChain/LiberttFinancial/genesispool.sol\":5675:5703  users[msg.sender].registered */\n      0x0c\n      add\n      sload\n      0xff\n      and\n        /* \"LibertyFinancialChain/LiberttFinancial/genesispool.sol\":5674:5703  !users[msg.sender].registered */\n      iszero\n        /* \"LibertyFinancialChain/LiberttFinancial/genesispool.sol\":5666:5726  require(!users[msg.sender].registered, \"Already registered\") */\n      tag_310\n      jumpi\n      mload(0x40)\n      shl(0xe5, 0x461bcd)\n      dup2\n      mstore\n        /* \"#utility.yul\":11404:11406   */\n      0x20\n        /* \"LibertyFinancialChain/LiberttFinancial/genesispool.sol\":5666:5726  require(!users[msg.sender].registered, \"Already registered\") */\n      0x04\n      dup3\n      add\n        /* \"#utility.yul\":11386:11407   */\n      mstore\n        /* \"#utility.yul\":11443:11445   */\n      0x12\n        /* \"#utility.yul\":11423:11441   */\n      0x24\n      dup3\n      add\n        /* \"#utility.yul\":11416:11446   */\n      mstore\n      shl(0x72, 0x105b1c9958591e481c9959da5cdd195c9959)\n        /* \"#utility.yul\":11462:11480   */\n      0x44\n      dup3\n      add\n        /* \"#utility.yul\":11455:11503   */\n      mstore\n        /* \"#utility.yul\":11520:11538   */\n      0x64\n      add\n        /* \"LibertyFinancialChain/LiberttFinancial/genesispool.sol\":5666:5726  require(!users[msg.sender].registered, \"Already registered\") */\n      tag_254\n        /* \"#utility.yul\":11202:11544   */\n      jump\n        /* \"LibertyFinancialChain/LiberttFinancial/genesispool.sol\":5666:5726  require(!users[msg.sender].registered, \"Already registered\") */\n    tag_310:\n      sub(shl(0xa0, 0x01), 0x01)\n        /* \"LibertyFinancialChain/LiberttFinancial/genesispool.sol\":5744:5766  referrer == address(0) */\n      dup2\n      and\n      iszero\n      dup1\n        /* \"LibertyFinancialChain/LiberttFinancial/genesispool.sol\":5744:5796  referrer == address(0) || users[referrer].registered */\n      tag_313\n      jumpi\n      pop\n      sub(shl(0xa0, 0x01), 0x01)\n        /* \"LibertyFinancialChain/LiberttFinancial/genesispool.sol\":5770:5785  users[referrer] */\n      dup2\n      and\n      0x00\n      swap1\n      dup2\n      mstore\n        /* \"LibertyFinancialChain/LiberttFinancial/genesispool.sol\":5770:5775  users */\n      0x14\n        /* \"LibertyFinancialChain/LiberttFinancial/genesispool.sol\":5770:5785  users[referrer] */\n      0x20\n      mstore\n      0x40\n      swap1\n      keccak256\n        /* \"LibertyFinancialChain/LiberttFinancial/genesispool.sol\":5770:5796  users[referrer].registered */\n      0x0c\n      add\n      sload\n      0xff\n      and\n        /* \"LibertyFinancialChain/LiberttFinancial/genesispool.sol\":5744:5796  referrer == address(0) || users[referrer].registered */\n    tag_313:\n        /* \"LibertyFinancialChain/LiberttFinancial/genesispool.sol\":5736:5828  require(referrer == address(0) || users[referrer].registered, \"Referrer must be registered\") */\n      tag_314\n      jumpi\n      mload(0x40)\n      shl(0xe5, 0x461bcd)\n      dup2\n      mstore\n        /* \"#utility.yul\":10736:10738   */\n      0x20\n        /* \"LibertyFinancialChain/LiberttFinancial/genesispool.sol\":5736:5828  require(referrer == address(0) || users[referrer].registered, \"Referrer must be registered\") */\n      0x04\n      dup3\n      add\n        /* \"#utility.yul\":10718:10739   */\n      mstore\n        /* \"#utility.yul\":10775:10777   */\n      0x1b\n        /* \"#utility.yul\":10755:10773   */\n      0x24\n      dup3\n      add\n        /* \"#utility.yul\":10748:10778   */\n      mstore\n        /* \"#utility.yul\":10814:10843   */\n      0x5265666572726572206d75737420626520726567697374657265640000000000\n        /* \"#utility.yul\":10794:10812   */\n      0x44\n      dup3\n      add\n        /* \"#utility.yul\":10787:10844   */\n      mstore\n        /* \"#utility.yul\":10861:10879   */\n      0x64\n      add\n        /* \"LibertyFinancialChain/LiberttFinancial/genesispool.sol\":5736:5828  require(referrer == address(0) || users[referrer].registered, \"Referrer must be registered\") */\n      tag_254\n        /* \"#utility.yul\":10534:10885   */\n      jump\n        /* \"LibertyFinancialChain/LiberttFinancial/genesispool.sol\":5736:5828  require(referrer == address(0) || users[referrer].registered, \"Referrer must be registered\") */\n    tag_314:\n        /* \"LibertyFinancialChain/LiberttFinancial/genesispool.sol\":5858:5868  msg.sender */\n      caller\n      sub(shl(0xa0, 0x01), 0x01)\n        /* \"LibertyFinancialChain/LiberttFinancial/genesispool.sol\":5846:5868  referrer != msg.sender */\n      dup3\n      and\n      sub\n        /* \"LibertyFinancialChain/LiberttFinancial/genesispool.sol\":5838:5890  require(referrer != msg.sender, \"Cannot refer self\") */\n      tag_316\n      jumpi\n      mload(0x40)\n      shl(0xe5, 0x461bcd)\n      dup2\n      mstore\n        /* \"#utility.yul\":10038:10040   */\n      0x20\n        /* \"LibertyFinancialChain/LiberttFinancial/genesispool.sol\":5838:5890  require(referrer != msg.sender, \"Cannot refer self\") */\n      0x04\n      dup3\n      add\n        /* \"#utility.yul\":10020:10041   */\n      mstore\n        /* \"#utility.yul\":10077:10079   */\n      0x11\n        /* \"#utility.yul\":10057:10075   */\n      0x24\n      dup3\n      add\n        /* \"#utility.yul\":10050:10080   */\n      mstore\n      shl(0x79, 0x21b0b73737ba103932b332b91039b2b633)\n        /* \"#utility.yul\":10096:10114   */\n      0x44\n      dup3\n      add\n        /* \"#utility.yul\":10089:10136   */\n      mstore\n        /* \"#utility.yul\":10153:10171   */\n      0x64\n      add\n        /* \"LibertyFinancialChain/LiberttFinancial/genesispool.sol\":5838:5890  require(referrer != msg.sender, \"Cannot refer self\") */\n      tag_254\n        /* \"#utility.yul\":9836:10177   */\n      jump\n        /* \"LibertyFinancialChain/LiberttFinancial/genesispool.sol\":5838:5890  require(referrer != msg.sender, \"Cannot refer self\") */\n    tag_316:\n      sub(shl(0xa0, 0x01), 0x01)\n        /* \"LibertyFinancialChain/LiberttFinancial/genesispool.sol\":5904:5926  referrer != address(0) */\n      dup2\n      and\n      iszero\n        /* \"LibertyFinancialChain/LiberttFinancial/genesispool.sol\":5900:6104  if (referrer != address(0)) {... */\n      tag_318\n      jumpi\n      sub(shl(0xa0, 0x01), 0x01)\n        /* \"LibertyFinancialChain/LiberttFinancial/genesispool.sol\":5950:5965  users[referrer] */\n      dup2\n      and\n      0x00\n      swap1\n      dup2\n      mstore\n        /* \"LibertyFinancialChain/LiberttFinancial/genesispool.sol\":5950:5955  users */\n      0x14\n        /* \"LibertyFinancialChain/LiberttFinancial/genesispool.sol\":5950:5965  users[referrer] */\n      0x20\n      mstore\n      0x40\n      swap1\n      keccak256\n        /* \"LibertyFinancialChain/LiberttFinancial/genesispool.sol\":5950:5975  users[referrer].downlines */\n      0x08\n      add\n        /* \"LibertyFinancialChain/LiberttFinancial/genesispool.sol\":5950:5982  users[referrer].downlines.length */\n      sload\n        /* \"LibertyFinancialChain/LiberttFinancial/genesispool.sol\":509:511  36 */\n      0x24\n      gt\n        /* \"LibertyFinancialChain/LiberttFinancial/genesispool.sol\":5942:6037  require(users[referrer].downlines.length < MAX_DIRECT_REFERRALS, \"Direct referral cap reached\") */\n      tag_319\n      jumpi\n      mload(0x40)\n      shl(0xe5, 0x461bcd)\n      dup2\n      mstore\n        /* \"#utility.yul\":11751:11753   */\n      0x20\n        /* \"LibertyFinancialChain/LiberttFinancial/genesispool.sol\":5942:6037  require(users[referrer].downlines.length < MAX_DIRECT_REFERRALS, \"Direct referral cap reached\") */\n      0x04\n      dup3\n      add\n        /* \"#utility.yul\":11733:11754   */\n      mstore\n        /* \"#utility.yul\":11790:11792   */\n      0x1b\n        /* \"#utility.yul\":11770:11788   */\n      0x24\n      dup3\n      add\n        /* \"#utility.yul\":11763:11793   */\n      mstore\n        /* \"#utility.yul\":11829:11858   */\n      0x44697265637420726566657272616c2063617020726561636865640000000000\n        /* \"#utility.yul\":11809:11827   */\n      0x44\n      dup3\n      add\n        /* \"#utility.yul\":11802:11859   */\n      mstore\n        /* \"#utility.yul\":11876:11894   */\n      0x64\n      add\n        /* \"LibertyFinancialChain/LiberttFinancial/genesispool.sol\":5942:6037  require(users[referrer].downlines.length < MAX_DIRECT_REFERRALS, \"Direct referral cap reached\") */\n      tag_254\n        /* \"#utility.yul\":11549:11900   */\n      jump\n        /* \"LibertyFinancialChain/LiberttFinancial/genesispool.sol\":5942:6037  require(users[referrer].downlines.length < MAX_DIRECT_REFERRALS, \"Direct referral cap reached\") */\n    tag_319:\n      sub(shl(0xa0, 0x01), 0x01)\n        /* \"LibertyFinancialChain/LiberttFinancial/genesispool.sol\":6051:6066  users[referrer] */\n      dup2\n      and\n      0x00\n      swap1\n      dup2\n      mstore\n        /* \"LibertyFinancialChain/LiberttFinancial/genesispool.sol\":6051:6056  users */\n      0x14\n        /* \"LibertyFinancialChain/LiberttFinancial/genesispool.sol\":6051:6066  users[referrer] */\n      0x20\n      swap1\n      dup2\n      mstore\n      0x40\n      dup3\n      keccak256\n        /* \"LibertyFinancialChain/LiberttFinancial/genesispool.sol\":6051:6076  users[referrer].downlines */\n      0x08\n      add\n        /* \"LibertyFinancialChain/LiberttFinancial/genesispool.sol\":6051:6093  users[referrer].downlines.push(msg.sender) */\n      dup1\n      sload\n      0x01\n      dup2\n      add\n      dup3\n      sstore\n      swap1\n      dup4\n      mstore\n      swap2\n      keccak256\n      add\n      dup1\n      sload\n      not(sub(shl(0xa0, 0x01), 0x01))\n      and\n        /* \"LibertyFinancialChain/LiberttFinancial/genesispool.sol\":6082:6092  msg.sender */\n      caller\n        /* \"LibertyFinancialChain/LiberttFinancial/genesispool.sol\":6051:6093  users[referrer].downlines.push(msg.sender) */\n      or\n      swap1\n      sstore\n        /* \"LibertyFinancialChain/LiberttFinancial/genesispool.sol\":5900:6104  if (referrer != address(0)) {... */\n    tag_318:\n        /* \"LibertyFinancialChain/LiberttFinancial/genesispool.sol\":6119:6129  msg.sender */\n      caller\n        /* \"LibertyFinancialChain/LiberttFinancial/genesispool.sol\":6113:6130  users[msg.sender] */\n      0x00\n      swap1\n      dup2\n      mstore\n        /* \"LibertyFinancialChain/LiberttFinancial/genesispool.sol\":6113:6118  users */\n      0x14\n        /* \"LibertyFinancialChain/LiberttFinancial/genesispool.sol\":6113:6130  users[msg.sender] */\n      0x20\n      mstore\n      0x40\n      dup2\n      keccak256\n        /* \"LibertyFinancialChain/LiberttFinancial/genesispool.sol\":6113:6141  users[msg.sender].registered */\n      0x0c\n      dup2\n      add\n        /* \"LibertyFinancialChain/LiberttFinancial/genesispool.sol\":6113:6148  users[msg.sender].registered = true */\n      dup1\n      sload\n      not(0xff)\n      and\n        /* \"LibertyFinancialChain/LiberttFinancial/genesispool.sol\":6144:6148  true */\n      0x01\n        /* \"LibertyFinancialChain/LiberttFinancial/genesispool.sol\":6113:6148  users[msg.sender].registered = true */\n      or\n      swap1\n      sstore\n        /* \"LibertyFinancialChain/LiberttFinancial/genesispool.sol\":6158:6195  users[msg.sender].referrer = referrer */\n      dup1\n      sload\n      sub(shl(0xa0, 0x01), 0x01)\n      dup5\n      and\n      not(sub(shl(0xa0, 0x01), 0x01))\n      swap1\n      swap2\n      and\n      or\n      swap1\n      sstore\n        /* \"LibertyFinancialChain/LiberttFinancial/genesispool.sol\":6187:6195  referrer */\n      dup2\n      swap1\n        /* \"LibertyFinancialChain/LiberttFinancial/genesispool.sol\":6240:6436  for (uint8 i = 0; i < REFERRAL_LEVELS; i++) {... */\n    tag_323:\n        /* \"LibertyFinancialChain/LiberttFinancial/genesispool.sol\":550:551  7 */\n      0x07\n        /* \"LibertyFinancialChain/LiberttFinancial/genesispool.sol\":6258:6277  i < REFERRAL_LEVELS */\n      0xff\n      dup3\n      and\n      lt\n        /* \"LibertyFinancialChain/LiberttFinancial/genesispool.sol\":6240:6436  for (uint8 i = 0; i < REFERRAL_LEVELS; i++) {... */\n      iszero\n      tag_324\n      jumpi\n        /* \"LibertyFinancialChain/LiberttFinancial/genesispool.sol\":6304:6314  msg.sender */\n      caller\n        /* \"LibertyFinancialChain/LiberttFinancial/genesispool.sol\":6298:6315  users[msg.sender] */\n      0x00\n      swap1\n      dup2\n      mstore\n        /* \"LibertyFinancialChain/LiberttFinancial/genesispool.sol\":6298:6303  users */\n      0x14\n        /* \"LibertyFinancialChain/LiberttFinancial/genesispool.sol\":6298:6315  users[msg.sender] */\n      0x20\n      mstore\n      0x40\n      swap1\n      keccak256\n        /* \"LibertyFinancialChain/LiberttFinancial/genesispool.sol\":6329:6335  upline */\n      dup3\n      swap1\n        /* \"LibertyFinancialChain/LiberttFinancial/genesispool.sol\":6298:6323  users[msg.sender].uplines */\n      0x01\n      add\n        /* \"LibertyFinancialChain/LiberttFinancial/genesispool.sol\":6298:6326  users[msg.sender].uplines[i] */\n      0xff\n      dup4\n      and\n      0x07\n      dup2\n      lt\n      tag_327\n      jumpi\n      tag_327\n      tag_304\n      jump\t// in\n    tag_327:\n      add\n        /* \"LibertyFinancialChain/LiberttFinancial/genesispool.sol\":6298:6335  users[msg.sender].uplines[i] = upline */\n      dup1\n      sload\n      not(sub(shl(0xa0, 0x01), 0x01))\n      and\n      sub(shl(0xa0, 0x01), 0x01)\n      swap3\n      dup4\n      and\n      or\n      swap1\n      sstore\n        /* \"LibertyFinancialChain/LiberttFinancial/genesispool.sol\":6353:6373  upline == address(0) */\n      dup3\n      and\n        /* \"LibertyFinancialChain/LiberttFinancial/genesispool.sol\":6349:6380  if (upline == address(0)) break */\n      iszero\n        /* \"LibertyFinancialChain/LiberttFinancial/genesispool.sol\":6375:6380  break */\n      tag_324\n        /* \"LibertyFinancialChain/LiberttFinancial/genesispool.sol\":6349:6380  if (upline == address(0)) break */\n      jumpi\n      sub(shl(0xa0, 0x01), 0x01)\n        /* \"LibertyFinancialChain/LiberttFinancial/genesispool.sol\":6403:6416  users[upline] */\n      swap2\n      dup3\n      and\n      0x00\n      swap1\n      dup2\n      mstore\n        /* \"LibertyFinancialChain/LiberttFinancial/genesispool.sol\":6403:6408  users */\n      0x14\n        /* \"LibertyFinancialChain/LiberttFinancial/genesispool.sol\":6403:6416  users[upline] */\n      0x20\n      mstore\n      0x40\n      swap1\n      keccak256\n        /* \"LibertyFinancialChain/LiberttFinancial/genesispool.sol\":6403:6425  users[upline].referrer */\n      sload\n      swap1\n      swap2\n      and\n      swap1\n        /* \"LibertyFinancialChain/LiberttFinancial/genesispool.sol\":6279:6282  i++ */\n      dup1\n      tag_330\n      dup2\n      tag_308\n      jump\t// in\n    tag_330:\n      swap2\n      pop\n      pop\n        /* \"LibertyFinancialChain/LiberttFinancial/genesispool.sol\":6240:6436  for (uint8 i = 0; i < REFERRAL_LEVELS; i++) {... */\n      jump(tag_323)\n    tag_324:\n      pop\n        /* \"LibertyFinancialChain/LiberttFinancial/genesispool.sol\":5656:6442  {... */\n      pop\n        /* \"LibertyFinancialChain/LiberttFinancial/genesispool.sol\":5611:6442  function register(address referrer) external {... */\n      pop\n      jump\t// out\n        /* \"LibertyFinancialChain/LiberttFinancial/genesispool.sol\":14360:14640  function adminSweepToken(address token, uint256 amount, address to) external onlyOwner {... */\n    tag_111:\n        /* \"@openzeppelin/contracts/access/Ownable.sol\":1531:1544  _checkOwner() */\n      tag_332\n        /* \"@openzeppelin/contracts/access/Ownable.sol\":1531:1542  _checkOwner */\n      tag_276\n        /* \"@openzeppelin/contracts/access/Ownable.sol\":1531:1544  _checkOwner() */\n      jump\t// in\n    tag_332:\n        /* \"LibertyFinancialChain/LiberttFinancial/genesispool.sol\":14461:14499  IERC20(token).balanceOf(address(this)) */\n      mload(0x40)\n      shl(0xe0, 0x70a08231)\n      dup2\n      mstore\n        /* \"LibertyFinancialChain/LiberttFinancial/genesispool.sol\":14493:14497  this */\n      address\n        /* \"LibertyFinancialChain/LiberttFinancial/genesispool.sol\":14461:14499  IERC20(token).balanceOf(address(this)) */\n      0x04\n      dup3\n      add\n        /* \"#utility.yul\":342:393   */\n      mstore\n        /* \"LibertyFinancialChain/LiberttFinancial/genesispool.sol\":14503:14509  amount */\n      dup3\n      swap1\n      sub(shl(0xa0, 0x01), 0x01)\n        /* \"LibertyFinancialChain/LiberttFinancial/genesispool.sol\":14461:14484  IERC20(token).balanceOf */\n      dup6\n      and\n      swap1\n      0x70a08231\n      swap1\n        /* \"#utility.yul\":315:333   */\n      0x24\n      add\n        /* \"LibertyFinancialChain/LiberttFinancial/genesispool.sol\":14461:14499  IERC20(token).balanceOf(address(this)) */\n      0x20\n      mload(0x40)\n      dup1\n      dup4\n      sub\n      dup2\n      dup7\n      gas\n      staticcall\n      iszero\n      dup1\n      iszero\n      tag_336\n      jumpi\n      returndatasize\n      0x00\n      dup1\n      returndatacopy\n      revert(0x00, returndatasize)\n    tag_336:\n      pop\n      pop\n      pop\n      pop\n      mload(0x40)\n      returndatasize\n      not(0x1f)\n      0x1f\n      dup3\n      add\n      and\n      dup3\n      add\n      dup1\n      0x40\n      mstore\n      pop\n      dup2\n      add\n      swap1\n      tag_337\n      swap2\n      swap1\n      tag_261\n      jump\t// in\n    tag_337:\n        /* \"LibertyFinancialChain/LiberttFinancial/genesispool.sol\":14461:14509  IERC20(token).balanceOf(address(this)) >= amount */\n      lt\n      iszero\n        /* \"LibertyFinancialChain/LiberttFinancial/genesispool.sol\":14453:14544  require(IERC20(token).balanceOf(address(this)) >= amount, \"Insufficient token in contract\") */\n      tag_338\n      jumpi\n      mload(0x40)\n      shl(0xe5, 0x461bcd)\n      dup2\n      mstore\n        /* \"#utility.yul\":12107:12109   */\n      0x20\n        /* \"LibertyFinancialChain/LiberttFinancial/genesispool.sol\":14453:14544  require(IERC20(token).balanceOf(address(this)) >= amount, \"Insufficient token in contract\") */\n      0x04\n      dup3\n      add\n        /* \"#utility.yul\":12089:12110   */\n      mstore\n        /* \"#utility.yul\":12146:12148   */\n      0x1e\n        /* \"#utility.yul\":12126:12144   */\n      0x24\n      dup3\n      add\n        /* \"#utility.yul\":12119:12149   */\n      mstore\n        /* \"#utility.yul\":12185:12217   */\n      0x496e73756666696369656e7420746f6b656e20696e20636f6e74726163740000\n        /* \"#utility.yul\":12165:12183   */\n      0x44\n      dup3\n      add\n        /* \"#utility.yul\":12158:12218   */\n      mstore\n        /* \"#utility.yul\":12235:12253   */\n      0x64\n      add\n        /* \"LibertyFinancialChain/LiberttFinancial/genesispool.sol\":14453:14544  require(IERC20(token).balanceOf(address(this)) >= amount, \"Insufficient token in contract\") */\n      tag_254\n        /* \"#utility.yul\":11905:12259   */\n      jump\n        /* \"LibertyFinancialChain/LiberttFinancial/genesispool.sol\":14453:14544  require(IERC20(token).balanceOf(address(this)) >= amount, \"Insufficient token in contract\") */\n    tag_338:\n        /* \"LibertyFinancialChain/LiberttFinancial/genesispool.sol\":14550:14588  IERC20(token).safeTransfer(to, amount) */\n      tag_341\n      sub(shl(0xa0, 0x01), 0x01)\n        /* \"LibertyFinancialChain/LiberttFinancial/genesispool.sol\":14550:14576  IERC20(token).safeTransfer */\n      dup5\n      and\n        /* \"LibertyFinancialChain/LiberttFinancial/genesispool.sol\":14577:14579  to */\n      dup3\n        /* \"LibertyFinancialChain/LiberttFinancial/genesispool.sol\":14581:14587  amount */\n      dup5\n        /* \"LibertyFinancialChain/LiberttFinancial/genesispool.sol\":14550:14576  IERC20(token).safeTransfer */\n      tag_266\n        /* \"LibertyFinancialChain/LiberttFinancial/genesispool.sol\":14550:14588  IERC20(token).safeTransfer(to, amount) */\n      jump\t// in\n    tag_341:\n        /* \"LibertyFinancialChain/LiberttFinancial/genesispool.sol\":14599:14637  TreasuryWithdraw(\"AdminSweep\", amount) */\n      0x40\n      dup1\n      mload\n        /* \"#utility.yul\":12476:12497   */\n      dup2\n      dup2\n      mstore\n        /* \"#utility.yul\":12533:12535   */\n      0x0a\n        /* \"#utility.yul\":12513:12531   */\n      dup2\n      dup4\n      add\n        /* \"#utility.yul\":12506:12536   */\n      mstore\n      shl(0xb4, 0x041646d696e537765657)\n        /* \"#utility.yul\":12567:12569   */\n      0x60\n        /* \"#utility.yul\":12552:12570   */\n      dup3\n      add\n        /* \"#utility.yul\":12545:12585   */\n      mstore\n        /* \"#utility.yul\":12652:12656   */\n      0x20\n        /* \"#utility.yul\":12637:12657   */\n      dup2\n      add\n        /* \"#utility.yul\":12630:12666   */\n      dup5\n      swap1\n      mstore\n        /* \"LibertyFinancialChain/LiberttFinancial/genesispool.sol\":14599:14637  TreasuryWithdraw(\"AdminSweep\", amount) */\n      swap1\n      mload\n      0x32f91af51d2a8bbeb2808ffa648f1c5072f1c1ccdb64b39d003f051b496cc984\n      swap2\n      dup2\n      swap1\n      sub\n        /* \"#utility.yul\":12617:12620   */\n      0x80\n        /* \"LibertyFinancialChain/LiberttFinancial/genesispool.sol\":14599:14637  TreasuryWithdraw(\"AdminSweep\", amount) */\n      add\n      swap1\n      log1\n        /* \"LibertyFinancialChain/LiberttFinancial/genesispool.sol\":14360:14640  function adminSweepToken(address token, uint256 amount, address to) external onlyOwner {... */\n      pop\n      pop\n      pop\n      jump\t// out\n        /* \"LibertyFinancialChain/LiberttFinancial/genesispool.sol\":13935:14071  function setEmergencyActive(bool flag) external onlyOwner {... */\n    tag_118:\n        /* \"@openzeppelin/contracts/access/Ownable.sol\":1531:1544  _checkOwner() */\n      tag_345\n        /* \"@openzeppelin/contracts/access/Ownable.sol\":1531:1542  _checkOwner */\n      tag_276\n        /* \"@openzeppelin/contracts/access/Ownable.sol\":1531:1544  _checkOwner() */\n      jump\t// in\n    tag_345:\n        /* \"LibertyFinancialChain/LiberttFinancial/genesispool.sol\":14003:14018  emergencyActive */\n      0x17\n        /* \"LibertyFinancialChain/LiberttFinancial/genesispool.sol\":14003:14025  emergencyActive = flag */\n      dup1\n      sload\n      not(0xff)\n      and\n      dup3\n      iszero\n      iszero\n      swap1\n      dup2\n      or\n      swap1\n      swap2\n      sstore\n        /* \"LibertyFinancialChain/LiberttFinancial/genesispool.sol\":14040:14064  EmergencyActivated(flag) */\n      mload(0x40)\n        /* \"#utility.yul\":2214:2255   */\n      swap1\n      dup2\n      mstore\n        /* \"LibertyFinancialChain/LiberttFinancial/genesispool.sol\":14040:14064  EmergencyActivated(flag) */\n      0x24df690cf3950b574129729bee40a9933d0f3b2d05dcd721c00d64570351edb1\n      swap1\n        /* \"#utility.yul\":2202:2204   */\n      0x20\n        /* \"#utility.yul\":2187:2205   */\n      add\n        /* \"LibertyFinancialChain/LiberttFinancial/genesispool.sol\":14040:14064  EmergencyActivated(flag) */\n      tag_285\n        /* \"#utility.yul\":2074:2261   */\n      jump\n        /* \"LibertyFinancialChain/LiberttFinancial/genesispool.sol\":557:656  uint256[REFERRAL_LEVELS] public REFERRAL_PERCENTS = [... */\n    tag_122:\n      0x02\n      dup2\n      0x07\n      dup2\n      lt\n      tag_348\n      jumpi\n      0x00\n      dup1\n      revert\n    tag_348:\n      add\n      sload\n      swap1\n      pop\n      dup2\n      jump\t// out\n        /* \"@openzeppelin/contracts/access/Ownable.sol\":2293:2394  function renounceOwnership() public virtual onlyOwner {... */\n    tag_132:\n        /* \"@openzeppelin/contracts/access/Ownable.sol\":1531:1544  _checkOwner() */\n      tag_351\n        /* \"@openzeppelin/contracts/access/Ownable.sol\":1531:1542  _checkOwner */\n      tag_276\n        /* \"@openzeppelin/contracts/access/Ownable.sol\":1531:1544  _checkOwner() */\n      jump\t// in\n    tag_351:\n        /* \"@openzeppelin/contracts/access/Ownable.sol\":2357:2387  _transferOwnership(address(0)) */\n      tag_272\n        /* \"@openzeppelin/contracts/access/Ownable.sol\":2384:2385  0 */\n      0x00\n        /* \"@openzeppelin/contracts/access/Ownable.sol\":2357:2375  _transferOwnership */\n      tag_354\n        /* \"@openzeppelin/contracts/access/Ownable.sol\":2357:2387  _transferOwnership(address(0)) */\n      jump\t// in\n        /* \"LibertyFinancialChain/LiberttFinancial/genesispool.sol\":5276:5537  function setUSD1(address newUSD1) external onlyOwner {... */\n    tag_142:\n        /* \"@openzeppelin/contracts/access/Ownable.sol\":1531:1544  _checkOwner() */\n      tag_356\n        /* \"@openzeppelin/contracts/access/Ownable.sol\":1531:1542  _checkOwner */\n      tag_276\n        /* \"@openzeppelin/contracts/access/Ownable.sol\":1531:1544  _checkOwner() */\n      jump\t// in\n    tag_356:\n      sub(shl(0xa0, 0x01), 0x01)\n        /* \"LibertyFinancialChain/LiberttFinancial/genesispool.sol\":5343:5364  newUSD1 != address(0) */\n      dup2\n      and\n        /* \"LibertyFinancialChain/LiberttFinancial/genesispool.sol\":5335:5381  require(newUSD1 != address(0), \"Zero address\") */\n      tag_358\n      jumpi\n      mload(0x40)\n      shl(0xe5, 0x461bcd)\n      dup2\n      mstore\n        /* \"#utility.yul\":9445:9447   */\n      0x20\n        /* \"LibertyFinancialChain/LiberttFinancial/genesispool.sol\":5335:5381  require(newUSD1 != address(0), \"Zero address\") */\n      0x04\n      dup3\n      add\n        /* \"#utility.yul\":9427:9448   */\n      mstore\n        /* \"#utility.yul\":9484:9486   */\n      0x0c\n        /* \"#utility.yul\":9464:9482   */\n      0x24\n      dup3\n      add\n        /* \"#utility.yul\":9457:9487   */\n      mstore\n      shl(0xa0, 0x5a65726f2061646472657373)\n        /* \"#utility.yul\":9503:9521   */\n      0x44\n      dup3\n      add\n        /* \"#utility.yul\":9496:9538   */\n      mstore\n        /* \"#utility.yul\":9555:9573   */\n      0x64\n      add\n        /* \"LibertyFinancialChain/LiberttFinancial/genesispool.sol\":5335:5381  require(newUSD1 != address(0), \"Zero address\") */\n      tag_254\n        /* \"#utility.yul\":9243:9579   */\n      jump\n        /* \"LibertyFinancialChain/LiberttFinancial/genesispool.sol\":5335:5381  require(newUSD1 != address(0), \"Zero address\") */\n    tag_358:\n        /* \"LibertyFinancialChain/LiberttFinancial/genesispool.sol\":5387:5391  USD1 */\n      0x0a\n        /* \"LibertyFinancialChain/LiberttFinancial/genesispool.sol\":5387:5409  USD1 = IERC20(newUSD1) */\n      dup1\n      sload\n      not(sub(shl(0xa0, 0x01), 0x01))\n      and\n      sub(shl(0xa0, 0x01), 0x01)\n      dup4\n      and\n      swap1\n      dup2\n      or\n      swap1\n      swap2\n      sstore\n        /* \"LibertyFinancialChain/LiberttFinancial/genesispool.sol\":5429:5463  IERC20Metadata(newUSD1).decimals() */\n      0x40\n      dup1\n      mload\n      shl(0xe0, 0x313ce567)\n      dup2\n      mstore\n      swap1\n      mload\n        /* \"LibertyFinancialChain/LiberttFinancial/genesispool.sol\":5429:5461  IERC20Metadata(newUSD1).decimals */\n      0x313ce567\n      swap2\n        /* \"LibertyFinancialChain/LiberttFinancial/genesispool.sol\":5429:5463  IERC20Metadata(newUSD1).decimals() */\n      0x04\n      dup1\n      dup3\n      add\n      swap3\n      0x20\n      swap3\n      swap1\n      swap2\n      swap1\n      dup3\n      swap1\n      sub\n      add\n      dup2\n        /* \"LibertyFinancialChain/LiberttFinancial/genesispool.sol\":5387:5409  USD1 = IERC20(newUSD1) */\n      dup7\n        /* \"LibertyFinancialChain/LiberttFinancial/genesispool.sol\":5429:5463  IERC20Metadata(newUSD1).decimals() */\n      gas\n      staticcall\n      iszero\n      dup1\n      iszero\n      tag_361\n      jumpi\n      returndatasize\n      0x00\n      dup1\n      returndatacopy\n      revert(0x00, returndatasize)\n    tag_361:\n      pop\n      pop\n      pop\n      pop\n      mload(0x40)\n      returndatasize\n      not(0x1f)\n      0x1f\n      dup3\n      add\n      and\n      dup3\n      add\n      dup1\n      0x40\n      mstore\n      pop\n      dup2\n      add\n      swap1\n      tag_362\n      swap2\n      swap1\n      tag_284\n      jump\t// in\n    tag_362:\n        /* \"LibertyFinancialChain/LiberttFinancial/genesispool.sol\":5415:5426  usdDecimals */\n      0x0b\n        /* \"LibertyFinancialChain/LiberttFinancial/genesispool.sol\":5415:5463  usdDecimals = IERC20Metadata(newUSD1).decimals() */\n      dup1\n      sload\n      0xff\n      swap3\n      swap1\n      swap3\n      and\n      shl(0xa8, 0x01)\n      mul\n      not(shl(0xa8, 0xff))\n      swap1\n      swap3\n      and\n      swap2\n      swap1\n      swap2\n      or\n      swap1\n      sstore\n      sub(shl(0xa0, 0x01), 0x01)\n        /* \"LibertyFinancialChain/LiberttFinancial/genesispool.sol\":5469:5492  tokenWhitelist[newUSD1] */\n      dup2\n      and\n      0x00\n      dup2\n      dup2\n      mstore\n        /* \"LibertyFinancialChain/LiberttFinancial/genesispool.sol\":5469:5483  tokenWhitelist */\n      0x0d\n        /* \"LibertyFinancialChain/LiberttFinancial/genesispool.sol\":5469:5492  tokenWhitelist[newUSD1] */\n      0x20\n      swap1\n      dup2\n      mstore\n      0x40\n      swap2\n      dup3\n      swap1\n      keccak256\n        /* \"LibertyFinancialChain/LiberttFinancial/genesispool.sol\":5469:5499  tokenWhitelist[newUSD1] = true */\n      dup1\n      sload\n      not(0xff)\n      and\n      0x01\n      or\n      swap1\n      sstore\n        /* \"LibertyFinancialChain/LiberttFinancial/genesispool.sol\":5510:5534  USDTOKENUpdated(newUSD1) */\n      swap1\n      mload\n        /* \"#utility.yul\":342:393   */\n      swap2\n      dup3\n      mstore\n        /* \"LibertyFinancialChain/LiberttFinancial/genesispool.sol\":5510:5534  USDTOKENUpdated(newUSD1) */\n      0x2eebb86337116bb829d157848909e2848e7b06bb7f91f788c9de450c63a804dc\n      swap2\n        /* \"#utility.yul\":315:333   */\n      add\n        /* \"LibertyFinancialChain/LiberttFinancial/genesispool.sol\":5510:5534  USDTOKENUpdated(newUSD1) */\n      tag_285\n        /* \"#utility.yul\":196:399   */\n      jump\n        /* \"LibertyFinancialChain/LiberttFinancial/genesispool.sol\":14076:14355  function adminWithdrawReserve(uint256 amount) external onlyOwner {... */\n    tag_148:\n        /* \"@openzeppelin/contracts/access/Ownable.sol\":1531:1544  _checkOwner() */\n      tag_365\n        /* \"@openzeppelin/contracts/access/Ownable.sol\":1531:1542  _checkOwner */\n      tag_276\n        /* \"@openzeppelin/contracts/access/Ownable.sol\":1531:1544  _checkOwner() */\n      jump\t// in\n    tag_365:\n        /* \"LibertyFinancialChain/LiberttFinancial/genesispool.sol\":14169:14184  reserveTreasury */\n      sload(0x18)\n        /* \"LibertyFinancialChain/LiberttFinancial/genesispool.sol\":14159:14165  amount */\n      dup2\n        /* \"LibertyFinancialChain/LiberttFinancial/genesispool.sol\":14159:14184  amount <= reserveTreasury */\n      gt\n      iszero\n        /* \"LibertyFinancialChain/LiberttFinancial/genesispool.sol\":14151:14216  require(amount <= reserveTreasury, \"Not enough reserve treasury\") */\n      tag_367\n      jumpi\n      mload(0x40)\n      shl(0xe5, 0x461bcd)\n      dup2\n      mstore\n        /* \"#utility.yul\":12879:12881   */\n      0x20\n        /* \"LibertyFinancialChain/LiberttFinancial/genesispool.sol\":14151:14216  require(amount <= reserveTreasury, \"Not enough reserve treasury\") */\n      0x04\n      dup3\n      add\n        /* \"#utility.yul\":12861:12882   */\n      mstore\n        /* \"#utility.yul\":12918:12920   */\n      0x1b\n        /* \"#utility.yul\":12898:12916   */\n      0x24\n      dup3\n      add\n        /* \"#utility.yul\":12891:12921   */\n      mstore\n        /* \"#utility.yul\":12957:12986   */\n      0x4e6f7420656e6f75676820726573657276652074726561737572790000000000\n        /* \"#utility.yul\":12937:12955   */\n      0x44\n      dup3\n      add\n        /* \"#utility.yul\":12930:12987   */\n      mstore\n        /* \"#utility.yul\":13004:13022   */\n      0x64\n      add\n        /* \"LibertyFinancialChain/LiberttFinancial/genesispool.sol\":14151:14216  require(amount <= reserveTreasury, \"Not enough reserve treasury\") */\n      tag_254\n        /* \"#utility.yul\":12677:13028   */\n      jump\n        /* \"LibertyFinancialChain/LiberttFinancial/genesispool.sol\":14151:14216  require(amount <= reserveTreasury, \"Not enough reserve treasury\") */\n    tag_367:\n        /* \"LibertyFinancialChain/LiberttFinancial/genesispool.sol\":14245:14251  amount */\n      dup1\n        /* \"LibertyFinancialChain/LiberttFinancial/genesispool.sol\":14226:14241  reserveTreasury */\n      0x18\n      0x00\n        /* \"LibertyFinancialChain/LiberttFinancial/genesispool.sol\":14226:14251  reserveTreasury -= amount */\n      dup3\n      dup3\n      sload\n      tag_370\n      swap2\n      swap1\n      tag_236\n      jump\t// in\n    tag_370:\n      swap1\n      swap2\n      sstore\n      pop\n      pop\n        /* \"LibertyFinancialChain/LiberttFinancial/genesispool.sol\":14261:14265  INR1 */\n      sload(0x09)\n        /* \"LibertyFinancialChain/LiberttFinancial/genesispool.sol\":14261:14298  INR1.safeTransfer(msg.sender, amount) */\n      tag_371\n      swap1\n      sub(shl(0xa0, 0x01), 0x01)\n        /* \"LibertyFinancialChain/LiberttFinancial/genesispool.sol\":14261:14265  INR1 */\n      and\n        /* \"LibertyFinancialChain/LiberttFinancial/genesispool.sol\":14279:14289  msg.sender */\n      caller\n        /* \"LibertyFinancialChain/LiberttFinancial/genesispool.sol\":14291:14297  amount */\n      dup4\n        /* \"LibertyFinancialChain/LiberttFinancial/genesispool.sol\":14261:14278  INR1.safeTransfer */\n      tag_266\n        /* \"LibertyFinancialChain/LiberttFinancial/genesispool.sol\":14261:14298  INR1.safeTransfer(msg.sender, amount) */\n      jump\t// in\n    tag_371:\n        /* \"LibertyFinancialChain/LiberttFinancial/genesispool.sol\":14313:14348  TreasuryWithdraw(\"Reserve\", amount) */\n      0x40\n      dup1\n      mload\n        /* \"#utility.yul\":13245:13266   */\n      dup2\n      dup2\n      mstore\n        /* \"#utility.yul\":13302:13303   */\n      0x07\n        /* \"#utility.yul\":13282:13300   */\n      swap2\n      dup2\n      add\n        /* \"#utility.yul\":13275:13304   */\n      swap2\n      swap1\n      swap2\n      mstore\n      shl(0xc8, 0x52657365727665)\n        /* \"#utility.yul\":13335:13337   */\n      0x60\n        /* \"#utility.yul\":13320:13338   */\n      dup3\n      add\n        /* \"#utility.yul\":13313:13350   */\n      mstore\n        /* \"#utility.yul\":13417:13421   */\n      0x20\n        /* \"#utility.yul\":13402:13422   */\n      dup2\n      add\n        /* \"#utility.yul\":13395:13431   */\n      dup3\n      swap1\n      mstore\n        /* \"LibertyFinancialChain/LiberttFinancial/genesispool.sol\":14313:14348  TreasuryWithdraw(\"Reserve\", amount) */\n      0x32f91af51d2a8bbeb2808ffa648f1c5072f1c1ccdb64b39d003f051b496cc984\n      swap1\n        /* \"#utility.yul\":13382:13385   */\n      0x80\n        /* \"#utility.yul\":13367:13386   */\n      add\n        /* \"LibertyFinancialChain/LiberttFinancial/genesispool.sol\":14313:14348  TreasuryWithdraw(\"Reserve\", amount) */\n      tag_285\n        /* \"#utility.yul\":13033:13437   */\n      jump\n        /* \"LibertyFinancialChain/LiberttFinancial/genesispool.sol\":7691:7843  function setTokenDecimals(uint8 _inrDecimals, uint8 _usdDecimals) external onlyOwner {... */\n    tag_152:\n        /* \"@openzeppelin/contracts/access/Ownable.sol\":1531:1544  _checkOwner() */\n      tag_375\n        /* \"@openzeppelin/contracts/access/Ownable.sol\":1531:1542  _checkOwner */\n      tag_276\n        /* \"@openzeppelin/contracts/access/Ownable.sol\":1531:1544  _checkOwner() */\n      jump\t// in\n    tag_375:\n        /* \"LibertyFinancialChain/LiberttFinancial/genesispool.sol\":7782:7793  inrDecimals */\n      0x0b\n        /* \"LibertyFinancialChain/LiberttFinancial/genesispool.sol\":7782:7808  inrDecimals = _inrDecimals */\n      dup1\n      sload\n      not(shl(0xa0, 0xffff))\n        /* \"LibertyFinancialChain/LiberttFinancial/genesispool.sol\":7814:7840  usdDecimals = _usdDecimals */\n      and\n      shl(0xa0, 0x01)\n        /* \"LibertyFinancialChain/LiberttFinancial/genesispool.sol\":7782:7808  inrDecimals = _inrDecimals */\n      0xff\n      swap5\n      dup6\n      and\n      mul\n      not(shl(0xa8, 0xff))\n        /* \"LibertyFinancialChain/LiberttFinancial/genesispool.sol\":7814:7840  usdDecimals = _usdDecimals */\n      and\n      or\n      shl(0xa8, 0x01)\n      swap3\n      swap1\n      swap4\n      and\n      swap2\n      swap1\n      swap2\n      mul\n      swap2\n      swap1\n      swap2\n      or\n      swap1\n      sstore\n        /* \"LibertyFinancialChain/LiberttFinancial/genesispool.sol\":7691:7843  function setTokenDecimals(uint8 _inrDecimals, uint8 _usdDecimals) external onlyOwner {... */\n      jump\t// out\n        /* \"LibertyFinancialChain/LiberttFinancial/genesispool.sol\":1592:1629  mapping(uint256 => Pool) public pools */\n    tag_166:\n      mstore(0x20, 0x10)\n      0x00\n      swap1\n      dup2\n      mstore\n      0x40\n      swap1\n      keccak256\n      dup1\n      sload\n      0x01\n      dup3\n      add\n      dup1\n      sload\n      swap2\n      swap3\n      swap2\n      tag_378\n      swap1\n      tag_243\n      jump\t// in\n    tag_378:\n      dup1\n      0x1f\n      add\n      0x20\n      dup1\n      swap2\n      div\n      mul\n      0x20\n      add\n      mload(0x40)\n      swap1\n      dup2\n      add\n      0x40\n      mstore\n      dup1\n      swap3\n      swap2\n      swap1\n      dup2\n      dup2\n      mstore\n      0x20\n      add\n      dup3\n      dup1\n      sload\n      tag_379\n      swap1\n      tag_243\n      jump\t// in\n    tag_379:\n      dup1\n      iszero\n      tag_380\n      jumpi\n      dup1\n      0x1f\n      lt\n      tag_381\n      jumpi\n      0x0100\n      dup1\n      dup4\n      sload\n      div\n      mul\n      dup4\n      mstore\n      swap2\n      0x20\n      add\n      swap2\n      jump(tag_380)\n    tag_381:\n      dup3\n      add\n      swap2\n      swap1\n      0x00\n      mstore\n      keccak256(0x00, 0x20)\n      swap1\n    tag_382:\n      dup2\n      sload\n      dup2\n      mstore\n      swap1\n      0x01\n      add\n      swap1\n      0x20\n      add\n      dup1\n      dup4\n      gt\n      tag_382\n      jumpi\n      dup3\n      swap1\n      sub\n      0x1f\n      and\n      dup3\n      add\n      swap2\n    tag_380:\n      pop\n      pop\n      pop\n      0x02\n      dup5\n      add\n      sload\n      0x03\n      dup6\n      add\n      sload\n      0x04\n      swap1\n      swap6\n      add\n      sload\n      swap4\n      swap5\n      swap1\n      swap4\n      0xff\n      dup1\n      dup4\n      and\n      swap5\n      pop\n      0x0100\n      swap1\n      swap3\n      div\n      swap1\n      swap2\n      and\n      swap2\n      pop\n      dup7\n      jump\t// out\n        /* \"LibertyFinancialChain/LiberttFinancial/genesispool.sol\":12247:13416  function triggerPayout(uint256 poolId) external onlyOwner nonReentrant {... */\n    tag_171:\n        /* \"@openzeppelin/contracts/access/Ownable.sol\":1531:1544  _checkOwner() */\n      tag_384\n        /* \"@openzeppelin/contracts/access/Ownable.sol\":1531:1542  _checkOwner */\n      tag_276\n        /* \"@openzeppelin/contracts/access/Ownable.sol\":1531:1544  _checkOwner() */\n      jump\t// in\n    tag_384:\n        /* \"@openzeppelin/contracts/security/ReentrancyGuard.sol\":2261:2282  _nonReentrantBefore() */\n      tag_386\n        /* \"@openzeppelin/contracts/security/ReentrancyGuard.sol\":2261:2280  _nonReentrantBefore */\n      tag_250\n        /* \"@openzeppelin/contracts/security/ReentrancyGuard.sol\":2261:2282  _nonReentrantBefore() */\n      jump\t// in\n    tag_386:\n        /* \"LibertyFinancialChain/LiberttFinancial/genesispool.sol\":12328:12345  Pool storage pool */\n      0x00\n        /* \"LibertyFinancialChain/LiberttFinancial/genesispool.sol\":12348:12361  pools[poolId] */\n      dup2\n      dup2\n      mstore\n        /* \"LibertyFinancialChain/LiberttFinancial/genesispool.sol\":12348:12353  pools */\n      0x10\n        /* \"LibertyFinancialChain/LiberttFinancial/genesispool.sol\":12348:12361  pools[poolId] */\n      0x20\n      mstore\n      0x40\n      swap1\n      keccak256\n        /* \"LibertyFinancialChain/LiberttFinancial/genesispool.sol\":12379:12395  pool.currentFill */\n      0x02\n      dup2\n      add\n      sload\n        /* \"LibertyFinancialChain/LiberttFinancial/genesispool.sol\":12371:12419  require(pool.currentFill > 0, \"Pool not filled\") */\n      tag_388\n      jumpi\n      mload(0x40)\n      shl(0xe5, 0x461bcd)\n      dup2\n      mstore\n        /* \"#utility.yul\":13644:13646   */\n      0x20\n        /* \"LibertyFinancialChain/LiberttFinancial/genesispool.sol\":12371:12419  require(pool.currentFill > 0, \"Pool not filled\") */\n      0x04\n      dup3\n      add\n        /* \"#utility.yul\":13626:13647   */\n      mstore\n        /* \"#utility.yul\":13683:13685   */\n      0x0f\n        /* \"#utility.yul\":13663:13681   */\n      0x24\n      dup3\n      add\n        /* \"#utility.yul\":13656:13686   */\n      mstore\n      shl(0x8a, 0x141bdbdb081b9bdd08199a5b1b1959)\n        /* \"#utility.yul\":13702:13720   */\n      0x44\n      dup3\n      add\n        /* \"#utility.yul\":13695:13740   */\n      mstore\n        /* \"#utility.yul\":13757:13775   */\n      0x64\n      add\n        /* \"LibertyFinancialChain/LiberttFinancial/genesispool.sol\":12371:12419  require(pool.currentFill > 0, \"Pool not filled\") */\n      tag_254\n        /* \"#utility.yul\":13442:13781   */\n      jump\n        /* \"LibertyFinancialChain/LiberttFinancial/genesispool.sol\":12371:12419  require(pool.currentFill > 0, \"Pool not filled\") */\n    tag_388:\n        /* \"LibertyFinancialChain/LiberttFinancial/genesispool.sol\":12438:12450  pool.paidOut */\n      0x03\n      dup2\n      add\n      sload\n      0x0100\n      swap1\n      div\n      0xff\n      and\n        /* \"LibertyFinancialChain/LiberttFinancial/genesispool.sol\":12437:12450  !pool.paidOut */\n      iszero\n        /* \"LibertyFinancialChain/LiberttFinancial/genesispool.sol\":12429:12471  require(!pool.paidOut, \"Already paid out\") */\n      tag_391\n      jumpi\n      mload(0x40)\n      shl(0xe5, 0x461bcd)\n      dup2\n      mstore\n        /* \"#utility.yul\":13988:13990   */\n      0x20\n        /* \"LibertyFinancialChain/LiberttFinancial/genesispool.sol\":12429:12471  require(!pool.paidOut, \"Already paid out\") */\n      0x04\n      dup3\n      add\n        /* \"#utility.yul\":13970:13991   */\n      mstore\n        /* \"#utility.yul\":14027:14029   */\n      0x10\n        /* \"#utility.yul\":14007:14025   */\n      0x24\n      dup3\n      add\n        /* \"#utility.yul\":14000:14030   */\n      mstore\n      shl(0x82, 0x105b1c9958591e481c185a59081bdd5d)\n        /* \"#utility.yul\":14046:14064   */\n      0x44\n      dup3\n      add\n        /* \"#utility.yul\":14039:14085   */\n      mstore\n        /* \"#utility.yul\":14102:14120   */\n      0x64\n      add\n        /* \"LibertyFinancialChain/LiberttFinancial/genesispool.sol\":12429:12471  require(!pool.paidOut, \"Already paid out\") */\n      tag_254\n        /* \"#utility.yul\":13786:14126   */\n      jump\n        /* \"LibertyFinancialChain/LiberttFinancial/genesispool.sol\":12429:12471  require(!pool.paidOut, \"Already paid out\") */\n    tag_391:\n        /* \"LibertyFinancialChain/LiberttFinancial/genesispool.sol\":12481:12497  uint256 coverage */\n      0x00\n        /* \"LibertyFinancialChain/LiberttFinancial/genesispool.sol\":12548:12569  totalInvestedAllPools */\n      sload(0x12)\n        /* \"LibertyFinancialChain/LiberttFinancial/genesispool.sol\":12523:12538  reserveTreasury */\n      sload(0x18)\n        /* \"LibertyFinancialChain/LiberttFinancial/genesispool.sol\":12501:12520  operationalTreasury */\n      sload(0x19)\n        /* \"LibertyFinancialChain/LiberttFinancial/genesispool.sol\":12501:12538  operationalTreasury + reserveTreasury */\n      tag_394\n      swap2\n      swap1\n      tag_223\n      jump\t// in\n    tag_394:\n        /* \"LibertyFinancialChain/LiberttFinancial/genesispool.sol\":12500:12545  (operationalTreasury + reserveTreasury) * 100 */\n      tag_395\n      swap1\n        /* \"LibertyFinancialChain/LiberttFinancial/genesispool.sol\":12542:12545  100 */\n      0x64\n        /* \"LibertyFinancialChain/LiberttFinancial/genesispool.sol\":12500:12545  (operationalTreasury + reserveTreasury) * 100 */\n      tag_234\n      jump\t// in\n    tag_395:\n        /* \"LibertyFinancialChain/LiberttFinancial/genesispool.sol\":12500:12569  (operationalTreasury + reserveTreasury) * 100 / totalInvestedAllPools */\n      tag_396\n      swap2\n      swap1\n      tag_397\n      jump\t// in\n    tag_396:\n        /* \"LibertyFinancialChain/LiberttFinancial/genesispool.sol\":12481:12569  uint256 coverage = (operationalTreasury + reserveTreasury) * 100 / totalInvestedAllPools */\n      swap1\n      pop\n        /* \"LibertyFinancialChain/LiberttFinancial/genesispool.sol\":12599:12601  60 */\n      0x3c\n        /* \"LibertyFinancialChain/LiberttFinancial/genesispool.sol\":12587:12595  coverage */\n      dup2\n        /* \"LibertyFinancialChain/LiberttFinancial/genesispool.sol\":12587:12601  coverage >= 60 */\n      lt\n      iszero\n        /* \"LibertyFinancialChain/LiberttFinancial/genesispool.sol\":12579:12642  require(coverage >= 60, \"Insufficient advance funds (min 60%)\") */\n      tag_398\n      jumpi\n      mload(0x40)\n      shl(0xe5, 0x461bcd)\n      dup2\n      mstore\n        /* \"#utility.yul\":14555:14557   */\n      0x20\n        /* \"LibertyFinancialChain/LiberttFinancial/genesispool.sol\":12579:12642  require(coverage >= 60, \"Insufficient advance funds (min 60%)\") */\n      0x04\n      dup3\n      add\n        /* \"#utility.yul\":14537:14558   */\n      mstore\n        /* \"#utility.yul\":14594:14596   */\n      0x24\n        /* \"#utility.yul\":14574:14592   */\n      dup1\n      dup3\n      add\n        /* \"#utility.yul\":14567:14597   */\n      mstore\n        /* \"#utility.yul\":14633:14667   */\n      0x496e73756666696369656e7420616476616e63652066756e647320286d696e20\n        /* \"#utility.yul\":14613:14631   */\n      0x44\n      dup3\n      add\n        /* \"#utility.yul\":14606:14668   */\n      mstore\n      shl(0xe0, 0x36302529)\n        /* \"#utility.yul\":14684:14702   */\n      0x64\n      dup3\n      add\n        /* \"#utility.yul\":14677:14711   */\n      mstore\n        /* \"#utility.yul\":14728:14747   */\n      0x84\n      add\n        /* \"LibertyFinancialChain/LiberttFinancial/genesispool.sol\":12579:12642  require(coverage >= 60, \"Insufficient advance funds (min 60%)\") */\n      tag_254\n        /* \"#utility.yul\":14353:14753   */\n      jump\n        /* \"LibertyFinancialChain/LiberttFinancial/genesispool.sol\":12579:12642  require(coverage >= 60, \"Insufficient advance funds (min 60%)\") */\n    tag_398:\n        /* \"LibertyFinancialChain/LiberttFinancial/genesispool.sol\":12657:12666  uint256 i */\n      0x00\n        /* \"LibertyFinancialChain/LiberttFinancial/genesispool.sol\":12652:13350  for (uint256 i = 0; i < poolOrders[poolId].length; ++i) {... */\n    tag_401:\n        /* \"LibertyFinancialChain/LiberttFinancial/genesispool.sol\":12676:12694  poolOrders[poolId] */\n      0x00\n      dup5\n      dup2\n      mstore\n        /* \"LibertyFinancialChain/LiberttFinancial/genesispool.sol\":12676:12686  poolOrders */\n      0x13\n        /* \"LibertyFinancialChain/LiberttFinancial/genesispool.sol\":12676:12694  poolOrders[poolId] */\n      0x20\n      mstore\n      0x40\n      swap1\n      keccak256\n        /* \"LibertyFinancialChain/LiberttFinancial/genesispool.sol\":12676:12701  poolOrders[poolId].length */\n      sload\n        /* \"LibertyFinancialChain/LiberttFinancial/genesispool.sol\":12672:12701  i < poolOrders[poolId].length */\n      dup2\n      lt\n        /* \"LibertyFinancialChain/LiberttFinancial/genesispool.sol\":12652:13350  for (uint256 i = 0; i < poolOrders[poolId].length; ++i) {... */\n      iszero\n      tag_402\n      jumpi\n        /* \"LibertyFinancialChain/LiberttFinancial/genesispool.sol\":12722:12741  Order storage order */\n      0x00\n        /* \"LibertyFinancialChain/LiberttFinancial/genesispool.sol\":12744:12762  poolOrders[poolId] */\n      dup5\n      dup2\n      mstore\n        /* \"LibertyFinancialChain/LiberttFinancial/genesispool.sol\":12744:12754  poolOrders */\n      0x13\n        /* \"LibertyFinancialChain/LiberttFinancial/genesispool.sol\":12744:12762  poolOrders[poolId] */\n      0x20\n      mstore\n      0x40\n      dup2\n      keccak256\n        /* \"LibertyFinancialChain/LiberttFinancial/genesispool.sol\":12744:12765  poolOrders[poolId][i] */\n      dup1\n      sload\n        /* \"LibertyFinancialChain/LiberttFinancial/genesispool.sol\":12763:12764  i */\n      dup4\n      swap1\n        /* \"LibertyFinancialChain/LiberttFinancial/genesispool.sol\":12744:12765  poolOrders[poolId][i] */\n      dup2\n      lt\n      tag_405\n      jumpi\n      tag_405\n      tag_304\n      jump\t// in\n    tag_405:\n      0x00\n      swap2\n      dup3\n      mstore\n      0x20\n      swap1\n      swap2\n      keccak256\n      0x06\n      swap1\n      swap2\n      mul\n      add\n        /* \"LibertyFinancialChain/LiberttFinancial/genesispool.sol\":12783:12796  order.paidOut */\n      0x05\n      dup2\n      add\n      sload\n        /* \"LibertyFinancialChain/LiberttFinancial/genesispool.sol\":12744:12765  poolOrders[poolId][i] */\n      swap1\n      swap2\n      pop\n        /* \"LibertyFinancialChain/LiberttFinancial/genesispool.sol\":12783:12796  order.paidOut */\n      0xff\n      and\n      dup1\n        /* \"LibertyFinancialChain/LiberttFinancial/genesispool.sol\":12783:12825  order.paidOut || order.investedAmount == 0 */\n      tag_407\n      jumpi\n      pop\n        /* \"LibertyFinancialChain/LiberttFinancial/genesispool.sol\":12800:12820  order.investedAmount */\n      0x02\n      dup2\n      add\n      sload\n        /* \"LibertyFinancialChain/LiberttFinancial/genesispool.sol\":12800:12825  order.investedAmount == 0 */\n      iszero\n        /* \"LibertyFinancialChain/LiberttFinancial/genesispool.sol\":12783:12825  order.paidOut || order.investedAmount == 0 */\n    tag_407:\n        /* \"LibertyFinancialChain/LiberttFinancial/genesispool.sol\":12779:12835  if (order.paidOut || order.investedAmount == 0) continue */\n      iszero\n      tag_408\n      jumpi\n        /* \"LibertyFinancialChain/LiberttFinancial/genesispool.sol\":12827:12835  continue */\n      pop\n      jump(tag_403)\n        /* \"LibertyFinancialChain/LiberttFinancial/genesispool.sol\":12779:12835  if (order.paidOut || order.investedAmount == 0) continue */\n    tag_408:\n        /* \"LibertyFinancialChain/LiberttFinancial/genesispool.sol\":12869:12889  order.investedAmount */\n      0x02\n      dup2\n      add\n      sload\n        /* \"LibertyFinancialChain/LiberttFinancial/genesispool.sol\":12935:12949  order.interest */\n      0x03\n      dup3\n      add\n      sload\n        /* \"LibertyFinancialChain/LiberttFinancial/genesispool.sol\":12849:12866  uint256 principal */\n      0x00\n      swap1\n        /* \"LibertyFinancialChain/LiberttFinancial/genesispool.sol\":12953:12956  100 */\n      0x64\n      swap1\n        /* \"LibertyFinancialChain/LiberttFinancial/genesispool.sol\":12923:12949  principal * order.interest */\n      tag_409\n      swap1\n        /* \"LibertyFinancialChain/LiberttFinancial/genesispool.sol\":12869:12889  order.investedAmount */\n      dup5\n        /* \"LibertyFinancialChain/LiberttFinancial/genesispool.sol\":12923:12949  principal * order.interest */\n      tag_234\n      jump\t// in\n    tag_409:\n        /* \"LibertyFinancialChain/LiberttFinancial/genesispool.sol\":12922:12956  (principal * order.interest) / 100 */\n      tag_410\n      swap2\n      swap1\n      tag_397\n      jump\t// in\n    tag_410:\n        /* \"LibertyFinancialChain/LiberttFinancial/genesispool.sol\":12903:12956  uint256 interest = (principal * order.interest) / 100 */\n      swap1\n      pop\n        /* \"LibertyFinancialChain/LiberttFinancial/genesispool.sol\":12970:12984  uint256 payout */\n      0x00\n        /* \"LibertyFinancialChain/LiberttFinancial/genesispool.sol\":12987:13007  principal + interest */\n      tag_411\n        /* \"LibertyFinancialChain/LiberttFinancial/genesispool.sol\":12903:12956  uint256 interest = (principal * order.interest) / 100 */\n      dup3\n        /* \"LibertyFinancialChain/LiberttFinancial/genesispool.sol\":12987:12996  principal */\n      dup5\n        /* \"LibertyFinancialChain/LiberttFinancial/genesispool.sol\":12987:13007  principal + interest */\n      tag_223\n      jump\t// in\n    tag_411:\n        /* \"LibertyFinancialChain/LiberttFinancial/genesispool.sol\":12970:13007  uint256 payout = principal + interest */\n      swap1\n      pop\n        /* \"LibertyFinancialChain/LiberttFinancial/genesispool.sol\":13021:13033  uint256 fee2 */\n      0x00\n        /* \"LibertyFinancialChain/LiberttFinancial/genesispool.sol\":13051:13054  100 */\n      0x64\n        /* \"LibertyFinancialChain/LiberttFinancial/genesispool.sol\":13037:13047  payout * 2 */\n      tag_412\n        /* \"LibertyFinancialChain/LiberttFinancial/genesispool.sol\":12970:13007  uint256 payout = principal + interest */\n      dup4\n        /* \"LibertyFinancialChain/LiberttFinancial/genesispool.sol\":13046:13047  2 */\n      0x02\n        /* \"LibertyFinancialChain/LiberttFinancial/genesispool.sol\":13037:13047  payout * 2 */\n      tag_234\n      jump\t// in\n    tag_412:\n        /* \"LibertyFinancialChain/LiberttFinancial/genesispool.sol\":13036:13054  (payout * 2) / 100 */\n      tag_413\n      swap2\n      swap1\n      tag_397\n      jump\t// in\n    tag_413:\n        /* \"LibertyFinancialChain/LiberttFinancial/genesispool.sol\":13021:13054  uint256 fee2 = (payout * 2) / 100 */\n      swap1\n      pop\n        /* \"LibertyFinancialChain/LiberttFinancial/genesispool.sol\":13087:13091  fee2 */\n      dup1\n        /* \"LibertyFinancialChain/LiberttFinancial/genesispool.sol\":13068:13083  reserveTreasury */\n      0x18\n      0x00\n        /* \"LibertyFinancialChain/LiberttFinancial/genesispool.sol\":13068:13091  reserveTreasury += fee2 */\n      dup3\n      dup3\n      sload\n      tag_414\n      swap2\n      swap1\n      tag_223\n      jump\t// in\n    tag_414:\n      swap1\n      swap2\n      sstore\n      pop\n        /* \"LibertyFinancialChain/LiberttFinancial/genesispool.sol\":13138:13151  payout - fee2 */\n      tag_415\n      swap1\n      pop\n        /* \"LibertyFinancialChain/LiberttFinancial/genesispool.sol\":13147:13151  fee2 */\n      dup2\n        /* \"LibertyFinancialChain/LiberttFinancial/genesispool.sol\":13138:13144  payout */\n      dup4\n        /* \"LibertyFinancialChain/LiberttFinancial/genesispool.sol\":13138:13151  payout - fee2 */\n      tag_236\n      jump\t// in\n    tag_415:\n        /* \"LibertyFinancialChain/LiberttFinancial/genesispool.sol\":13123:13133  order.user */\n      0x01\n      dup7\n      add\n      sload\n      sub(shl(0xa0, 0x01), 0x01)\n      and\n        /* \"LibertyFinancialChain/LiberttFinancial/genesispool.sol\":13105:13134  pendingINR1Payout[order.user] */\n      0x00\n      swap1\n      dup2\n      mstore\n        /* \"LibertyFinancialChain/LiberttFinancial/genesispool.sol\":13105:13122  pendingINR1Payout */\n      0x15\n        /* \"LibertyFinancialChain/LiberttFinancial/genesispool.sol\":13105:13134  pendingINR1Payout[order.user] */\n      0x20\n      mstore\n      0x40\n      dup2\n      keccak256\n        /* \"LibertyFinancialChain/LiberttFinancial/genesispool.sol\":13105:13151  pendingINR1Payout[order.user] += payout - fee2 */\n      dup1\n      sload\n        /* \"LibertyFinancialChain/LiberttFinancial/genesispool.sol\":13105:13134  pendingINR1Payout[order.user] */\n      swap1\n      swap2\n      swap1\n        /* \"LibertyFinancialChain/LiberttFinancial/genesispool.sol\":13105:13151  pendingINR1Payout[order.user] += payout - fee2 */\n      tag_416\n      swap1\n      dup5\n      swap1\n      tag_223\n      jump\t// in\n    tag_416:\n      swap1\n      swap2\n      sstore\n      pop\n      pop\n        /* \"LibertyFinancialChain/LiberttFinancial/genesispool.sol\":13165:13178  order.paidOut */\n      0x05\n      dup6\n      add\n        /* \"LibertyFinancialChain/LiberttFinancial/genesispool.sol\":13165:13185  order.paidOut = true */\n      dup1\n      sload\n      not(0xff)\n      and\n        /* \"LibertyFinancialChain/LiberttFinancial/genesispool.sol\":13181:13185  true */\n      0x01\n        /* \"LibertyFinancialChain/LiberttFinancial/genesispool.sol\":13165:13185  order.paidOut = true */\n      swap1\n      dup2\n      or\n      swap1\n      swap2\n      sstore\n        /* \"LibertyFinancialChain/LiberttFinancial/genesispool.sol\":13212:13222  order.user */\n      dup6\n      add\n      sload\n        /* \"LibertyFinancialChain/LiberttFinancial/genesispool.sol\":13232:13245  order.orderNo */\n      dup6\n      sload\n      sub(shl(0xa0, 0x01), 0x01)\n        /* \"LibertyFinancialChain/LiberttFinancial/genesispool.sol\":13212:13222  order.user */\n      swap1\n      swap2\n      and\n      swap1\n        /* \"LibertyFinancialChain/LiberttFinancial/genesispool.sol\":13204:13261  PaidOut(order.user, poolId, order.orderNo, payout - fee2) */\n      0x807c2c73192f2d30961a7d01ec8dc57115a4cd9f9bd0434331beacb916c6a8cc\n      swap1\n        /* \"LibertyFinancialChain/LiberttFinancial/genesispool.sol\":13224:13230  poolId */\n      dup12\n      swap1\n        /* \"LibertyFinancialChain/LiberttFinancial/genesispool.sol\":13247:13260  payout - fee2 */\n      tag_417\n        /* \"LibertyFinancialChain/LiberttFinancial/genesispool.sol\":13256:13260  fee2 */\n      dup6\n        /* \"LibertyFinancialChain/LiberttFinancial/genesispool.sol\":13247:13253  payout */\n      dup8\n        /* \"LibertyFinancialChain/LiberttFinancial/genesispool.sol\":13247:13260  payout - fee2 */\n      tag_236\n      jump\t// in\n    tag_417:\n        /* \"LibertyFinancialChain/LiberttFinancial/genesispool.sol\":13204:13261  PaidOut(order.user, poolId, order.orderNo, payout - fee2) */\n      0x40\n      dup1\n      mload\n        /* \"#utility.yul\":14960:14985   */\n      swap4\n      dup5\n      mstore\n        /* \"#utility.yul\":15016:15018   */\n      0x20\n        /* \"#utility.yul\":15001:15019   */\n      dup5\n      add\n        /* \"#utility.yul\":14994:15028   */\n      swap3\n      swap1\n      swap3\n      mstore\n        /* \"#utility.yul\":15044:15062   */\n      swap1\n      dup3\n      add\n        /* \"#utility.yul\":15037:15071   */\n      mstore\n        /* \"#utility.yul\":14948:14950   */\n      0x60\n        /* \"#utility.yul\":14933:14951   */\n      add\n        /* \"LibertyFinancialChain/LiberttFinancial/genesispool.sol\":13204:13261  PaidOut(order.user, poolId, order.orderNo, payout - fee2) */\n      mload(0x40)\n      dup1\n      swap2\n      sub\n      swap1\n      log2\n        /* \"LibertyFinancialChain/LiberttFinancial/genesispool.sol\":13291:13301  order.user */\n      0x01\n      dup6\n      dup2\n      add\n      sload\n      sub(shl(0xa0, 0x01), 0x01)\n      and\n      0x00\n        /* \"LibertyFinancialChain/LiberttFinancial/genesispool.sol\":13303:13332  pendingINR1Payout[order.user] */\n      dup2\n      dup2\n      mstore\n        /* \"LibertyFinancialChain/LiberttFinancial/genesispool.sol\":13303:13320  pendingINR1Payout */\n      0x15\n        /* \"LibertyFinancialChain/LiberttFinancial/genesispool.sol\":13303:13332  pendingINR1Payout[order.user] */\n      0x20\n      swap1\n      dup2\n      mstore\n      0x40\n      swap2\n      dup3\n      swap1\n      keccak256\n      sload\n        /* \"LibertyFinancialChain/LiberttFinancial/genesispool.sol\":13280:13339  PoolStatus(order.user, pendingINR1Payout[order.user], true) */\n      dup3\n      mload\n        /* \"#utility.yul\":15250:15275   */\n      swap1\n      dup2\n      mstore\n        /* \"#utility.yul\":15291:15309   */\n      swap1\n      dup2\n      add\n        /* \"#utility.yul\":15284:15334   */\n      swap4\n      swap1\n      swap4\n      mstore\n        /* \"LibertyFinancialChain/LiberttFinancial/genesispool.sol\":13291:13301  order.user */\n      swap1\n      swap2\n        /* \"LibertyFinancialChain/LiberttFinancial/genesispool.sol\":13280:13339  PoolStatus(order.user, pendingINR1Payout[order.user], true) */\n      0x3dd4fda5ffeb4c7e45847fa82b4227a234840395a1170e170bba47db13fbfff8\n      swap2\n        /* \"#utility.yul\":15223:15241   */\n      add\n        /* \"LibertyFinancialChain/LiberttFinancial/genesispool.sol\":13280:13339  PoolStatus(order.user, pendingINR1Payout[order.user], true) */\n      mload(0x40)\n      dup1\n      swap2\n      sub\n      swap1\n      log2\n        /* \"LibertyFinancialChain/LiberttFinancial/genesispool.sol\":12708:13350  {... */\n      pop\n      pop\n      pop\n      pop\n      pop\n        /* \"LibertyFinancialChain/LiberttFinancial/genesispool.sol\":12652:13350  for (uint256 i = 0; i < poolOrders[poolId].length; ++i) {... */\n    tag_403:\n        /* \"LibertyFinancialChain/LiberttFinancial/genesispool.sol\":12703:12706  ++i */\n      tag_422\n      dup2\n      tag_423\n      jump\t// in\n    tag_422:\n      swap1\n      pop\n        /* \"LibertyFinancialChain/LiberttFinancial/genesispool.sol\":12652:13350  for (uint256 i = 0; i < poolOrders[poolId].length; ++i) {... */\n      jump(tag_401)\n    tag_402:\n      pop\n      pop\n        /* \"LibertyFinancialChain/LiberttFinancial/genesispool.sol\":13359:13371  pool.paidOut */\n      0x03\n      add\n        /* \"LibertyFinancialChain/LiberttFinancial/genesispool.sol\":13359:13378  pool.paidOut = true */\n      dup1\n      sload\n      not(0xffff)\n        /* \"LibertyFinancialChain/LiberttFinancial/genesispool.sol\":13388:13409  pool.isActive = false */\n      and\n        /* \"LibertyFinancialChain/LiberttFinancial/genesispool.sol\":13359:13378  pool.paidOut = true */\n      0x0100\n        /* \"LibertyFinancialChain/LiberttFinancial/genesispool.sol\":13388:13409  pool.isActive = false */\n      or\n      swap1\n      sstore\n        /* \"@openzeppelin/contracts/security/ReentrancyGuard.sol\":2303:2323  _nonReentrantAfter() */\n      tag_424\n        /* \"@openzeppelin/contracts/security/ReentrancyGuard.sol\":1716:1717  1 */\n      0x01\n        /* \"@openzeppelin/contracts/security/ReentrancyGuard.sol\":2809:2831  _status = _NOT_ENTERED */\n      dup1\n      sstore\n        /* \"@openzeppelin/contracts/security/ReentrancyGuard.sol\":2629:2838  function _nonReentrantAfter() private {... */\n      jump\n        /* \"@openzeppelin/contracts/security/ReentrancyGuard.sol\":2303:2323  _nonReentrantAfter() */\n    tag_424:\n        /* \"LibertyFinancialChain/LiberttFinancial/genesispool.sol\":12247:13416  function triggerPayout(uint256 poolId) external onlyOwner nonReentrant {... */\n      pop\n      jump\t// out\n        /* \"LibertyFinancialChain/LiberttFinancial/genesispool.sol\":7912:10525  function joinPool(uint256 poolId, uint256 amount, bool useUSD)... */\n    tag_178:\n        /* \"LibertyFinancialChain/LiberttFinancial/genesispool.sol\":3633:3648  emergencyActive */\n      and(0xff, sload(0x17))\n        /* \"LibertyFinancialChain/LiberttFinancial/genesispool.sol\":3632:3648  !emergencyActive */\n      iszero\n        /* \"LibertyFinancialChain/LiberttFinancial/genesispool.sol\":3624:3675  require(!emergencyActive, \"Emergency: No deposits\") */\n      tag_426\n      jumpi\n      mload(0x40)\n      shl(0xe5, 0x461bcd)\n      dup2\n      mstore\n        /* \"#utility.yul\":15687:15689   */\n      0x20\n        /* \"LibertyFinancialChain/LiberttFinancial/genesispool.sol\":3624:3675  require(!emergencyActive, \"Emergency: No deposits\") */\n      0x04\n      dup3\n      add\n        /* \"#utility.yul\":15669:15690   */\n      mstore\n        /* \"#utility.yul\":15726:15728   */\n      0x16\n        /* \"#utility.yul\":15706:15724   */\n      0x24\n      dup3\n      add\n        /* \"#utility.yul\":15699:15729   */\n      mstore\n      shl(0x50, 0x456d657267656e63793a204e6f206465706f73697473)\n        /* \"#utility.yul\":15745:15763   */\n      0x44\n      dup3\n      add\n        /* \"#utility.yul\":15738:15790   */\n      mstore\n        /* \"#utility.yul\":15807:15825   */\n      0x64\n      add\n        /* \"LibertyFinancialChain/LiberttFinancial/genesispool.sol\":3624:3675  require(!emergencyActive, \"Emergency: No deposits\") */\n      tag_254\n        /* \"#utility.yul\":15485:15831   */\n      jump\n        /* \"LibertyFinancialChain/LiberttFinancial/genesispool.sol\":3624:3675  require(!emergencyActive, \"Emergency: No deposits\") */\n    tag_426:\n        /* \"@openzeppelin/contracts/security/ReentrancyGuard.sol\":2261:2282  _nonReentrantBefore() */\n      tag_430\n        /* \"@openzeppelin/contracts/security/ReentrancyGuard.sol\":2261:2280  _nonReentrantBefore */\n      tag_250\n        /* \"@openzeppelin/contracts/security/ReentrancyGuard.sol\":2261:2282  _nonReentrantBefore() */\n      jump\t// in\n    tag_430:\n        /* \"LibertyFinancialChain/LiberttFinancial/genesispool.sol\":8046:8056  msg.sender */\n      caller\n        /* \"LibertyFinancialChain/LiberttFinancial/genesispool.sol\":8040:8057  users[msg.sender] */\n      0x00\n      swap1\n      dup2\n      mstore\n        /* \"LibertyFinancialChain/LiberttFinancial/genesispool.sol\":8040:8045  users */\n      0x14\n        /* \"LibertyFinancialChain/LiberttFinancial/genesispool.sol\":8040:8057  users[msg.sender] */\n      0x20\n      mstore\n      0x40\n      swap1\n      keccak256\n        /* \"LibertyFinancialChain/LiberttFinancial/genesispool.sol\":8040:8068  users[msg.sender].registered */\n      0x0c\n      add\n      sload\n      0xff\n      and\n        /* \"LibertyFinancialChain/LiberttFinancial/genesispool.sol\":8032:8087  require(users[msg.sender].registered, \"Not registered\") */\n      tag_432\n      jumpi\n      mload(0x40)\n      shl(0xe5, 0x461bcd)\n      dup2\n      mstore\n        /* \"#utility.yul\":16038:16040   */\n      0x20\n        /* \"LibertyFinancialChain/LiberttFinancial/genesispool.sol\":8032:8087  require(users[msg.sender].registered, \"Not registered\") */\n      0x04\n      dup3\n      add\n        /* \"#utility.yul\":16020:16041   */\n      mstore\n        /* \"#utility.yul\":16077:16079   */\n      0x0e\n        /* \"#utility.yul\":16057:16075   */\n      0x24\n      dup3\n      add\n        /* \"#utility.yul\":16050:16080   */\n      mstore\n      shl(0x92, 0x139bdd081c9959da5cdd195c9959)\n        /* \"#utility.yul\":16096:16114   */\n      0x44\n      dup3\n      add\n        /* \"#utility.yul\":16089:16133   */\n      mstore\n        /* \"#utility.yul\":16150:16168   */\n      0x64\n      add\n        /* \"LibertyFinancialChain/LiberttFinancial/genesispool.sol\":8032:8087  require(users[msg.sender].registered, \"Not registered\") */\n      tag_254\n        /* \"#utility.yul\":15836:16174   */\n      jump\n        /* \"LibertyFinancialChain/LiberttFinancial/genesispool.sol\":8032:8087  require(users[msg.sender].registered, \"Not registered\") */\n    tag_432:\n        /* \"LibertyFinancialChain/LiberttFinancial/genesispool.sol\":8120:8130  msg.sender */\n      caller\n        /* \"LibertyFinancialChain/LiberttFinancial/genesispool.sol\":8106:8131  isBlacklisted[msg.sender] */\n      0x00\n      swap1\n      dup2\n      mstore\n        /* \"LibertyFinancialChain/LiberttFinancial/genesispool.sol\":8106:8119  isBlacklisted */\n      0x16\n        /* \"LibertyFinancialChain/LiberttFinancial/genesispool.sol\":8106:8131  isBlacklisted[msg.sender] */\n      0x20\n      mstore\n      0x40\n      swap1\n      keccak256\n      sload\n      0xff\n      and\n        /* \"LibertyFinancialChain/LiberttFinancial/genesispool.sol\":8105:8131  !isBlacklisted[msg.sender] */\n      iszero\n        /* \"LibertyFinancialChain/LiberttFinancial/genesispool.sol\":8097:8147  require(!isBlacklisted[msg.sender], \"Blacklisted\") */\n      tag_435\n      jumpi\n      mload(0x40)\n      shl(0xe5, 0x461bcd)\n      dup2\n      mstore\n        /* \"#utility.yul\":16381:16383   */\n      0x20\n        /* \"LibertyFinancialChain/LiberttFinancial/genesispool.sol\":8097:8147  require(!isBlacklisted[msg.sender], \"Blacklisted\") */\n      0x04\n      dup3\n      add\n        /* \"#utility.yul\":16363:16384   */\n      mstore\n        /* \"#utility.yul\":16420:16422   */\n      0x0b\n        /* \"#utility.yul\":16400:16418   */\n      0x24\n      dup3\n      add\n        /* \"#utility.yul\":16393:16423   */\n      mstore\n      shl(0xaa, 0x109b1858dadb1a5cdd1959)\n        /* \"#utility.yul\":16439:16457   */\n      0x44\n      dup3\n      add\n        /* \"#utility.yul\":16432:16473   */\n      mstore\n        /* \"#utility.yul\":16490:16508   */\n      0x64\n      add\n        /* \"LibertyFinancialChain/LiberttFinancial/genesispool.sol\":8097:8147  require(!isBlacklisted[msg.sender], \"Blacklisted\") */\n      tag_254\n        /* \"#utility.yul\":16179:16514   */\n      jump\n        /* \"LibertyFinancialChain/LiberttFinancial/genesispool.sol\":8097:8147  require(!isBlacklisted[msg.sender], \"Blacklisted\") */\n    tag_435:\n        /* \"LibertyFinancialChain/LiberttFinancial/genesispool.sol\":8157:8177  address depositToken */\n      0x00\n        /* \"LibertyFinancialChain/LiberttFinancial/genesispool.sol\":8180:8186  useUSD */\n      dup2\n        /* \"LibertyFinancialChain/LiberttFinancial/genesispool.sol\":8180:8218  useUSD ? address(USD1) : address(INR1) */\n      tag_438\n      jumpi\n        /* \"LibertyFinancialChain/LiberttFinancial/genesispool.sol\":8213:8217  INR1 */\n      and(sub(shl(0xa0, 0x01), 0x01), sload(0x09))\n        /* \"LibertyFinancialChain/LiberttFinancial/genesispool.sol\":8180:8218  useUSD ? address(USD1) : address(INR1) */\n      jump(tag_439)\n    tag_438:\n        /* \"LibertyFinancialChain/LiberttFinancial/genesispool.sol\":8197:8201  USD1 */\n      and(sub(shl(0xa0, 0x01), 0x01), sload(0x0a))\n        /* \"LibertyFinancialChain/LiberttFinancial/genesispool.sol\":8180:8218  useUSD ? address(USD1) : address(INR1) */\n    tag_439:\n      sub(shl(0xa0, 0x01), 0x01)\n        /* \"LibertyFinancialChain/LiberttFinancial/genesispool.sol\":8236:8264  tokenWhitelist[depositToken] */\n      dup2\n      and\n      0x00\n      swap1\n      dup2\n      mstore\n        /* \"LibertyFinancialChain/LiberttFinancial/genesispool.sol\":8236:8250  tokenWhitelist */\n      0x0d\n        /* \"LibertyFinancialChain/LiberttFinancial/genesispool.sol\":8236:8264  tokenWhitelist[depositToken] */\n      0x20\n      mstore\n      0x40\n      swap1\n      keccak256\n      sload\n        /* \"LibertyFinancialChain/LiberttFinancial/genesispool.sol\":8157:8218  address depositToken = useUSD ? address(USD1) : address(INR1) */\n      swap1\n      swap2\n      pop\n        /* \"LibertyFinancialChain/LiberttFinancial/genesispool.sol\":8236:8264  tokenWhitelist[depositToken] */\n      0xff\n      and\n        /* \"LibertyFinancialChain/LiberttFinancial/genesispool.sol\":8228:8290  require(tokenWhitelist[depositToken], \"Token not whitelisted\") */\n      tag_440\n      jumpi\n      mload(0x40)\n      shl(0xe5, 0x461bcd)\n      dup2\n      mstore\n        /* \"#utility.yul\":16721:16723   */\n      0x20\n        /* \"LibertyFinancialChain/LiberttFinancial/genesispool.sol\":8228:8290  require(tokenWhitelist[depositToken], \"Token not whitelisted\") */\n      0x04\n      dup3\n      add\n        /* \"#utility.yul\":16703:16724   */\n      mstore\n        /* \"#utility.yul\":16760:16762   */\n      0x15\n        /* \"#utility.yul\":16740:16758   */\n      0x24\n      dup3\n      add\n        /* \"#utility.yul\":16733:16763   */\n      mstore\n      shl(0x5a, 0x151bdad95b881b9bdd081dda1a5d195b1a5cdd1959)\n        /* \"#utility.yul\":16779:16797   */\n      0x44\n      dup3\n      add\n        /* \"#utility.yul\":16772:16823   */\n      mstore\n        /* \"#utility.yul\":16840:16858   */\n      0x64\n      add\n        /* \"LibertyFinancialChain/LiberttFinancial/genesispool.sol\":8228:8290  require(tokenWhitelist[depositToken], \"Token not whitelisted\") */\n      tag_254\n        /* \"#utility.yul\":16519:16864   */\n      jump\n        /* \"LibertyFinancialChain/LiberttFinancial/genesispool.sol\":8228:8290  require(tokenWhitelist[depositToken], \"Token not whitelisted\") */\n    tag_440:\n        /* \"LibertyFinancialChain/LiberttFinancial/genesispool.sol\":8334:8348  uint256 ingots */\n      0x00\n        /* \"LibertyFinancialChain/LiberttFinancial/genesispool.sol\":8362:8368  useUSD */\n      dup3\n        /* \"LibertyFinancialChain/LiberttFinancial/genesispool.sol\":8358:8936  if (useUSD) {... */\n      iszero\n      tag_443\n      jumpi\n        /* \"LibertyFinancialChain/LiberttFinancial/genesispool.sol\":1313:1322  11 * 1e18 */\n      0x98a7d9b8314c0000\n        /* \"LibertyFinancialChain/LiberttFinancial/genesispool.sol\":8392:8398  amount */\n      dup5\n        /* \"LibertyFinancialChain/LiberttFinancial/genesispool.sol\":8392:8416  amount >= USD1_PER_INGOT */\n      lt\n      iszero\n        /* \"LibertyFinancialChain/LiberttFinancial/genesispool.sol\":8384:8443  require(amount >= USD1_PER_INGOT, \"Below min stake (USD1)\") */\n      tag_444\n      jumpi\n      mload(0x40)\n      shl(0xe5, 0x461bcd)\n      dup2\n      mstore\n        /* \"#utility.yul\":17071:17073   */\n      0x20\n        /* \"LibertyFinancialChain/LiberttFinancial/genesispool.sol\":8384:8443  require(amount >= USD1_PER_INGOT, \"Below min stake (USD1)\") */\n      0x04\n      dup3\n      add\n        /* \"#utility.yul\":17053:17074   */\n      mstore\n        /* \"#utility.yul\":17110:17112   */\n      0x16\n        /* \"#utility.yul\":17090:17108   */\n      0x24\n      dup3\n      add\n        /* \"#utility.yul\":17083:17113   */\n      mstore\n      shl(0x50, 0x42656c6f77206d696e207374616b6520285553443129)\n        /* \"#utility.yul\":17129:17147   */\n      0x44\n      dup3\n      add\n        /* \"#utility.yul\":17122:17174   */\n      mstore\n        /* \"#utility.yul\":17191:17209   */\n      0x64\n      add\n        /* \"LibertyFinancialChain/LiberttFinancial/genesispool.sol\":8384:8443  require(amount >= USD1_PER_INGOT, \"Below min stake (USD1)\") */\n      tag_254\n        /* \"#utility.yul\":16869:17215   */\n      jump\n        /* \"LibertyFinancialChain/LiberttFinancial/genesispool.sol\":8384:8443  require(amount >= USD1_PER_INGOT, \"Below min stake (USD1)\") */\n    tag_444:\n        /* \"LibertyFinancialChain/LiberttFinancial/genesispool.sol\":8465:8469  USD1 */\n      sload(0x0a)\n        /* \"LibertyFinancialChain/LiberttFinancial/genesispool.sol\":8465:8491  USD1.balanceOf(msg.sender) */\n      mload(0x40)\n      shl(0xe0, 0x70a08231)\n      dup2\n      mstore\n        /* \"LibertyFinancialChain/LiberttFinancial/genesispool.sol\":8480:8490  msg.sender */\n      caller\n        /* \"LibertyFinancialChain/LiberttFinancial/genesispool.sol\":8465:8491  USD1.balanceOf(msg.sender) */\n      0x04\n      dup3\n      add\n        /* \"#utility.yul\":342:393   */\n      mstore\n        /* \"LibertyFinancialChain/LiberttFinancial/genesispool.sol\":8495:8501  amount */\n      dup6\n      swap2\n      sub(shl(0xa0, 0x01), 0x01)\n        /* \"LibertyFinancialChain/LiberttFinancial/genesispool.sol\":8465:8469  USD1 */\n      and\n      swap1\n        /* \"LibertyFinancialChain/LiberttFinancial/genesispool.sol\":8465:8479  USD1.balanceOf */\n      0x70a08231\n      swap1\n        /* \"#utility.yul\":315:333   */\n      0x24\n      add\n        /* \"LibertyFinancialChain/LiberttFinancial/genesispool.sol\":8465:8491  USD1.balanceOf(msg.sender) */\n      0x20\n      mload(0x40)\n      dup1\n      dup4\n      sub\n      dup2\n      dup7\n      gas\n      staticcall\n      iszero\n      dup1\n      iszero\n      tag_449\n      jumpi\n      returndatasize\n      0x00\n      dup1\n      returndatacopy\n      revert(0x00, returndatasize)\n    tag_449:\n      pop\n      pop\n      pop\n      pop\n      mload(0x40)\n      returndatasize\n      not(0x1f)\n      0x1f\n      dup3\n      add\n      and\n      dup3\n      add\n      dup1\n      0x40\n      mstore\n      pop\n      dup2\n      add\n      swap1\n      tag_450\n      swap2\n      swap1\n      tag_261\n      jump\t// in\n    tag_450:\n        /* \"LibertyFinancialChain/LiberttFinancial/genesispool.sol\":8465:8501  USD1.balanceOf(msg.sender) >= amount */\n      lt\n      iszero\n        /* \"LibertyFinancialChain/LiberttFinancial/genesispool.sol\":8457:8523  require(USD1.balanceOf(msg.sender) >= amount, \"Insufficient USD1\") */\n      tag_451\n      jumpi\n      mload(0x40)\n      shl(0xe5, 0x461bcd)\n      dup2\n      mstore\n        /* \"#utility.yul\":17422:17424   */\n      0x20\n        /* \"LibertyFinancialChain/LiberttFinancial/genesispool.sol\":8457:8523  require(USD1.balanceOf(msg.sender) >= amount, \"Insufficient USD1\") */\n      0x04\n      dup3\n      add\n        /* \"#utility.yul\":17404:17425   */\n      mstore\n        /* \"#utility.yul\":17461:17463   */\n      0x11\n        /* \"#utility.yul\":17441:17459   */\n      0x24\n      dup3\n      add\n        /* \"#utility.yul\":17434:17464   */\n      mstore\n      shl(0x78, 0x496e73756666696369656e742055534431)\n        /* \"#utility.yul\":17480:17498   */\n      0x44\n      dup3\n      add\n        /* \"#utility.yul\":17473:17520   */\n      mstore\n        /* \"#utility.yul\":17537:17555   */\n      0x64\n      add\n        /* \"LibertyFinancialChain/LiberttFinancial/genesispool.sol\":8457:8523  require(USD1.balanceOf(msg.sender) >= amount, \"Insufficient USD1\") */\n      tag_254\n        /* \"#utility.yul\":17220:17561   */\n      jump\n        /* \"LibertyFinancialChain/LiberttFinancial/genesispool.sol\":8457:8523  require(USD1.balanceOf(msg.sender) >= amount, \"Insufficient USD1\") */\n    tag_451:\n        /* \"LibertyFinancialChain/LiberttFinancial/genesispool.sol\":8537:8541  USD1 */\n      sload(0x0a)\n        /* \"LibertyFinancialChain/LiberttFinancial/genesispool.sol\":8537:8593  USD1.safeTransferFrom(msg.sender, address(this), amount) */\n      tag_454\n      swap1\n      sub(shl(0xa0, 0x01), 0x01)\n        /* \"LibertyFinancialChain/LiberttFinancial/genesispool.sol\":8537:8541  USD1 */\n      and\n        /* \"LibertyFinancialChain/LiberttFinancial/genesispool.sol\":8559:8569  msg.sender */\n      caller\n        /* \"LibertyFinancialChain/LiberttFinancial/genesispool.sol\":8579:8583  this */\n      address\n        /* \"LibertyFinancialChain/LiberttFinancial/genesispool.sol\":8586:8592  amount */\n      dup8\n        /* \"LibertyFinancialChain/LiberttFinancial/genesispool.sol\":8537:8558  USD1.safeTransferFrom */\n      tag_455\n        /* \"LibertyFinancialChain/LiberttFinancial/genesispool.sol\":8537:8593  USD1.safeTransferFrom(msg.sender, address(this), amount) */\n      jump\t// in\n    tag_454:\n        /* \"LibertyFinancialChain/LiberttFinancial/genesispool.sol\":8616:8639  amount / USD1_PER_INGOT */\n      tag_456\n        /* \"LibertyFinancialChain/LiberttFinancial/genesispool.sol\":1313:1322  11 * 1e18 */\n      0x98a7d9b8314c0000\n        /* \"LibertyFinancialChain/LiberttFinancial/genesispool.sol\":8616:8622  amount */\n      dup6\n        /* \"LibertyFinancialChain/LiberttFinancial/genesispool.sol\":8616:8639  amount / USD1_PER_INGOT */\n      tag_397\n      jump\t// in\n    tag_456:\n        /* \"LibertyFinancialChain/LiberttFinancial/genesispool.sol\":8607:8639  ingots = amount / USD1_PER_INGOT */\n      swap1\n      pop\n        /* \"LibertyFinancialChain/LiberttFinancial/genesispool.sol\":8358:8936  if (useUSD) {... */\n      jump(tag_457)\n    tag_443:\n        /* \"LibertyFinancialChain/LiberttFinancial/genesispool.sol\":1240:1251  1000 * 1e18 */\n      0x3635c9adc5dea00000\n        /* \"LibertyFinancialChain/LiberttFinancial/genesispool.sol\":8678:8684  amount */\n      dup5\n        /* \"LibertyFinancialChain/LiberttFinancial/genesispool.sol\":8678:8702  amount >= INR1_PER_INGOT */\n      lt\n      iszero\n        /* \"LibertyFinancialChain/LiberttFinancial/genesispool.sol\":8670:8729  require(amount >= INR1_PER_INGOT, \"Below min stake (INR1)\") */\n      tag_458\n      jumpi\n      mload(0x40)\n      shl(0xe5, 0x461bcd)\n      dup2\n      mstore\n        /* \"#utility.yul\":17768:17770   */\n      0x20\n        /* \"LibertyFinancialChain/LiberttFinancial/genesispool.sol\":8670:8729  require(amount >= INR1_PER_INGOT, \"Below min stake (INR1)\") */\n      0x04\n      dup3\n      add\n        /* \"#utility.yul\":17750:17771   */\n      mstore\n        /* \"#utility.yul\":17807:17809   */\n      0x16\n        /* \"#utility.yul\":17787:17805   */\n      0x24\n      dup3\n      add\n        /* \"#utility.yul\":17780:17810   */\n      mstore\n      shl(0x50, 0x42656c6f77206d696e207374616b652028494e523129)\n        /* \"#utility.yul\":17826:17844   */\n      0x44\n      dup3\n      add\n        /* \"#utility.yul\":17819:17871   */\n      mstore\n        /* \"#utility.yul\":17888:17906   */\n      0x64\n      add\n        /* \"LibertyFinancialChain/LiberttFinancial/genesispool.sol\":8670:8729  require(amount >= INR1_PER_INGOT, \"Below min stake (INR1)\") */\n      tag_254\n        /* \"#utility.yul\":17566:17912   */\n      jump\n        /* \"LibertyFinancialChain/LiberttFinancial/genesispool.sol\":8670:8729  require(amount >= INR1_PER_INGOT, \"Below min stake (INR1)\") */\n    tag_458:\n        /* \"LibertyFinancialChain/LiberttFinancial/genesispool.sol\":8751:8755  INR1 */\n      sload(0x09)\n        /* \"LibertyFinancialChain/LiberttFinancial/genesispool.sol\":8751:8777  INR1.balanceOf(msg.sender) */\n      mload(0x40)\n      shl(0xe0, 0x70a08231)\n      dup2\n      mstore\n        /* \"LibertyFinancialChain/LiberttFinancial/genesispool.sol\":8766:8776  msg.sender */\n      caller\n        /* \"LibertyFinancialChain/LiberttFinancial/genesispool.sol\":8751:8777  INR1.balanceOf(msg.sender) */\n      0x04\n      dup3\n      add\n        /* \"#utility.yul\":342:393   */\n      mstore\n        /* \"LibertyFinancialChain/LiberttFinancial/genesispool.sol\":8781:8787  amount */\n      dup6\n      swap2\n      sub(shl(0xa0, 0x01), 0x01)\n        /* \"LibertyFinancialChain/LiberttFinancial/genesispool.sol\":8751:8755  INR1 */\n      and\n      swap1\n        /* \"LibertyFinancialChain/LiberttFinancial/genesispool.sol\":8751:8765  INR1.balanceOf */\n      0x70a08231\n      swap1\n        /* \"#utility.yul\":315:333   */\n      0x24\n      add\n        /* \"LibertyFinancialChain/LiberttFinancial/genesispool.sol\":8751:8777  INR1.balanceOf(msg.sender) */\n      0x20\n      mload(0x40)\n      dup1\n      dup4\n      sub\n      dup2\n      dup7\n      gas\n      staticcall\n      iszero\n      dup1\n      iszero\n      tag_463\n      jumpi\n      returndatasize\n      0x00\n      dup1\n      returndatacopy\n      revert(0x00, returndatasize)\n    tag_463:\n      pop\n      pop\n      pop\n      pop\n      mload(0x40)\n      returndatasize\n      not(0x1f)\n      0x1f\n      dup3\n      add\n      and\n      dup3\n      add\n      dup1\n      0x40\n      mstore\n      pop\n      dup2\n      add\n      swap1\n      tag_464\n      swap2\n      swap1\n      tag_261\n      jump\t// in\n    tag_464:\n        /* \"LibertyFinancialChain/LiberttFinancial/genesispool.sol\":8751:8787  INR1.balanceOf(msg.sender) >= amount */\n      lt\n      iszero\n        /* \"LibertyFinancialChain/LiberttFinancial/genesispool.sol\":8743:8809  require(INR1.balanceOf(msg.sender) >= amount, \"Insufficient INR1\") */\n      tag_465\n      jumpi\n      mload(0x40)\n      shl(0xe5, 0x461bcd)\n      dup2\n      mstore\n        /* \"#utility.yul\":8703:8705   */\n      0x20\n        /* \"LibertyFinancialChain/LiberttFinancial/genesispool.sol\":8743:8809  require(INR1.balanceOf(msg.sender) >= amount, \"Insufficient INR1\") */\n      0x04\n      dup3\n      add\n        /* \"#utility.yul\":8685:8706   */\n      mstore\n        /* \"#utility.yul\":8742:8744   */\n      0x11\n        /* \"#utility.yul\":8722:8740   */\n      0x24\n      dup3\n      add\n        /* \"#utility.yul\":8715:8745   */\n      mstore\n      shl(0x78, 0x496e73756666696369656e7420494e5231)\n        /* \"#utility.yul\":8761:8779   */\n      0x44\n      dup3\n      add\n        /* \"#utility.yul\":8754:8801   */\n      mstore\n        /* \"#utility.yul\":8818:8836   */\n      0x64\n      add\n        /* \"LibertyFinancialChain/LiberttFinancial/genesispool.sol\":8743:8809  require(INR1.balanceOf(msg.sender) >= amount, \"Insufficient INR1\") */\n      tag_254\n        /* \"#utility.yul\":8501:8842   */\n      jump\n        /* \"LibertyFinancialChain/LiberttFinancial/genesispool.sol\":8743:8809  require(INR1.balanceOf(msg.sender) >= amount, \"Insufficient INR1\") */\n    tag_465:\n        /* \"LibertyFinancialChain/LiberttFinancial/genesispool.sol\":8823:8827  INR1 */\n      sload(0x09)\n        /* \"LibertyFinancialChain/LiberttFinancial/genesispool.sol\":8823:8879  INR1.safeTransferFrom(msg.sender, address(this), amount) */\n      tag_467\n      swap1\n      sub(shl(0xa0, 0x01), 0x01)\n        /* \"LibertyFinancialChain/LiberttFinancial/genesispool.sol\":8823:8827  INR1 */\n      and\n        /* \"LibertyFinancialChain/LiberttFinancial/genesispool.sol\":8845:8855  msg.sender */\n      caller\n        /* \"LibertyFinancialChain/LiberttFinancial/genesispool.sol\":8865:8869  this */\n      address\n        /* \"LibertyFinancialChain/LiberttFinancial/genesispool.sol\":8872:8878  amount */\n      dup8\n        /* \"LibertyFinancialChain/LiberttFinancial/genesispool.sol\":8823:8844  INR1.safeTransferFrom */\n      tag_455\n        /* \"LibertyFinancialChain/LiberttFinancial/genesispool.sol\":8823:8879  INR1.safeTransferFrom(msg.sender, address(this), amount) */\n      jump\t// in\n    tag_467:\n        /* \"LibertyFinancialChain/LiberttFinancial/genesispool.sol\":8902:8925  amount / INR1_PER_INGOT */\n      tag_468\n        /* \"LibertyFinancialChain/LiberttFinancial/genesispool.sol\":1240:1251  1000 * 1e18 */\n      0x3635c9adc5dea00000\n        /* \"LibertyFinancialChain/LiberttFinancial/genesispool.sol\":8902:8908  amount */\n      dup6\n        /* \"LibertyFinancialChain/LiberttFinancial/genesispool.sol\":8902:8925  amount / INR1_PER_INGOT */\n      tag_397\n      jump\t// in\n    tag_468:\n        /* \"LibertyFinancialChain/LiberttFinancial/genesispool.sol\":8893:8925  ingots = amount / INR1_PER_INGOT */\n      swap1\n      pop\n        /* \"LibertyFinancialChain/LiberttFinancial/genesispool.sol\":8358:8936  if (useUSD) {... */\n    tag_457:\n        /* \"LibertyFinancialChain/LiberttFinancial/genesispool.sol\":8962:8963  0 */\n      0x00\n        /* \"LibertyFinancialChain/LiberttFinancial/genesispool.sol\":8953:8959  ingots */\n      dup2\n        /* \"LibertyFinancialChain/LiberttFinancial/genesispool.sol\":8953:8963  ingots > 0 */\n      gt\n        /* \"LibertyFinancialChain/LiberttFinancial/genesispool.sol\":8945:8986  require(ingots > 0, \"Minimum is 1 ingot\") */\n      tag_469\n      jumpi\n      mload(0x40)\n      shl(0xe5, 0x461bcd)\n      dup2\n      mstore\n        /* \"#utility.yul\":18119:18121   */\n      0x20\n        /* \"LibertyFinancialChain/LiberttFinancial/genesispool.sol\":8945:8986  require(ingots > 0, \"Minimum is 1 ingot\") */\n      0x04\n      dup3\n      add\n        /* \"#utility.yul\":18101:18122   */\n      mstore\n        /* \"#utility.yul\":18158:18160   */\n      0x12\n        /* \"#utility.yul\":18138:18156   */\n      0x24\n      dup3\n      add\n        /* \"#utility.yul\":18131:18161   */\n      mstore\n      shl(0x72, 0x135a5b9a5b5d5b481a5cc80c481a5b99dbdd)\n        /* \"#utility.yul\":18177:18195   */\n      0x44\n      dup3\n      add\n        /* \"#utility.yul\":18170:18218   */\n      mstore\n        /* \"#utility.yul\":18235:18253   */\n      0x64\n      add\n        /* \"LibertyFinancialChain/LiberttFinancial/genesispool.sol\":8945:8986  require(ingots > 0, \"Minimum is 1 ingot\") */\n      tag_254\n        /* \"#utility.yul\":17917:18259   */\n      jump\n        /* \"LibertyFinancialChain/LiberttFinancial/genesispool.sol\":8945:8986  require(ingots > 0, \"Minimum is 1 ingot\") */\n    tag_469:\n        /* \"LibertyFinancialChain/LiberttFinancial/genesispool.sol\":8996:9013  Pool storage pool */\n      0x00\n        /* \"LibertyFinancialChain/LiberttFinancial/genesispool.sol\":9016:9029  pools[poolId] */\n      dup6\n      dup2\n      mstore\n        /* \"LibertyFinancialChain/LiberttFinancial/genesispool.sol\":9016:9021  pools */\n      0x10\n        /* \"LibertyFinancialChain/LiberttFinancial/genesispool.sol\":9016:9029  pools[poolId] */\n      0x20\n      mstore\n      0x40\n      swap1\n      keccak256\n        /* \"LibertyFinancialChain/LiberttFinancial/genesispool.sol\":9047:9060  pool.isActive */\n      0x03\n      dup2\n      add\n      sload\n      0xff\n      and\n        /* \"LibertyFinancialChain/LiberttFinancial/genesispool.sol\":9039:9080  require(pool.isActive, \"Pool not active\") */\n      tag_472\n      jumpi\n      mload(0x40)\n      shl(0xe5, 0x461bcd)\n      dup2\n      mstore\n        /* \"#utility.yul\":18466:18468   */\n      0x20\n        /* \"LibertyFinancialChain/LiberttFinancial/genesispool.sol\":9039:9080  require(pool.isActive, \"Pool not active\") */\n      0x04\n      dup3\n      add\n        /* \"#utility.yul\":18448:18469   */\n      mstore\n        /* \"#utility.yul\":18505:18507   */\n      0x0f\n        /* \"#utility.yul\":18485:18503   */\n      0x24\n      dup3\n      add\n        /* \"#utility.yul\":18478:18508   */\n      mstore\n      shl(0x88, 0x506f6f6c206e6f7420616374697665)\n        /* \"#utility.yul\":18524:18542   */\n      0x44\n      dup3\n      add\n        /* \"#utility.yul\":18517:18562   */\n      mstore\n        /* \"#utility.yul\":18579:18597   */\n      0x64\n      add\n        /* \"LibertyFinancialChain/LiberttFinancial/genesispool.sol\":9039:9080  require(pool.isActive, \"Pool not active\") */\n      tag_254\n        /* \"#utility.yul\":18264:18603   */\n      jump\n        /* \"LibertyFinancialChain/LiberttFinancial/genesispool.sol\":9039:9080  require(pool.isActive, \"Pool not active\") */\n    tag_472:\n        /* \"LibertyFinancialChain/LiberttFinancial/genesispool.sol\":1190:1193  100 */\n      0x64\n        /* \"LibertyFinancialChain/LiberttFinancial/genesispool.sol\":9117:9123  ingots */\n      dup3\n        /* \"LibertyFinancialChain/LiberttFinancial/genesispool.sol\":9098:9102  pool */\n      dup3\n        /* \"LibertyFinancialChain/LiberttFinancial/genesispool.sol\":9098:9114  pool.currentFill */\n      0x02\n      add\n      sload\n        /* \"LibertyFinancialChain/LiberttFinancial/genesispool.sol\":9098:9123  pool.currentFill + ingots */\n      tag_475\n      swap2\n      swap1\n      tag_223\n      jump\t// in\n    tag_475:\n        /* \"LibertyFinancialChain/LiberttFinancial/genesispool.sol\":9098:9142  pool.currentFill + ingots <= INGOTS_POOL_MAX */\n      gt\n      iszero\n        /* \"LibertyFinancialChain/LiberttFinancial/genesispool.sol\":9090:9156  require(pool.currentFill + ingots <= INGOTS_POOL_MAX, \"Pool full\") */\n      tag_476\n      jumpi\n      mload(0x40)\n      shl(0xe5, 0x461bcd)\n      dup2\n      mstore\n        /* \"#utility.yul\":18810:18812   */\n      0x20\n        /* \"LibertyFinancialChain/LiberttFinancial/genesispool.sol\":9090:9156  require(pool.currentFill + ingots <= INGOTS_POOL_MAX, \"Pool full\") */\n      0x04\n      dup3\n      add\n        /* \"#utility.yul\":18792:18813   */\n      mstore\n        /* \"#utility.yul\":18849:18850   */\n      0x09\n        /* \"#utility.yul\":18829:18847   */\n      0x24\n      dup3\n      add\n        /* \"#utility.yul\":18822:18851   */\n      mstore\n      shl(0xba, 0x141bdbdb08199d5b1b)\n        /* \"#utility.yul\":18867:18885   */\n      0x44\n      dup3\n      add\n        /* \"#utility.yul\":18860:18899   */\n      mstore\n        /* \"#utility.yul\":18916:18934   */\n      0x64\n      add\n        /* \"LibertyFinancialChain/LiberttFinancial/genesispool.sol\":9090:9156  require(pool.currentFill + ingots <= INGOTS_POOL_MAX, \"Pool full\") */\n      tag_254\n        /* \"#utility.yul\":18608:18940   */\n      jump\n        /* \"LibertyFinancialChain/LiberttFinancial/genesispool.sol\":9090:9156  require(pool.currentFill + ingots <= INGOTS_POOL_MAX, \"Pool full\") */\n    tag_476:\n        /* \"LibertyFinancialChain/LiberttFinancial/genesispool.sol\":9172:9182  msg.sender */\n      caller\n        /* \"LibertyFinancialChain/LiberttFinancial/genesispool.sol\":9166:9183  users[msg.sender] */\n      0x00\n      swap1\n      dup2\n      mstore\n        /* \"LibertyFinancialChain/LiberttFinancial/genesispool.sol\":9166:9171  users */\n      0x14\n        /* \"LibertyFinancialChain/LiberttFinancial/genesispool.sol\":9166:9183  users[msg.sender] */\n      0x20\n      mstore\n      0x40\n      dup2\n      keccak256\n        /* \"LibertyFinancialChain/LiberttFinancial/genesispool.sol\":9166:9192  users[msg.sender].invested */\n      0x09\n      add\n        /* \"LibertyFinancialChain/LiberttFinancial/genesispool.sol\":9166:9202  users[msg.sender].invested += amount */\n      dup1\n      sload\n        /* \"LibertyFinancialChain/LiberttFinancial/genesispool.sol\":9196:9202  amount */\n      dup8\n      swap3\n        /* \"LibertyFinancialChain/LiberttFinancial/genesispool.sol\":9166:9183  users[msg.sender] */\n      swap1\n        /* \"LibertyFinancialChain/LiberttFinancial/genesispool.sol\":9166:9202  users[msg.sender].invested += amount */\n      tag_479\n      swap1\n        /* \"LibertyFinancialChain/LiberttFinancial/genesispool.sol\":9196:9202  amount */\n      dup5\n      swap1\n        /* \"LibertyFinancialChain/LiberttFinancial/genesispool.sol\":9166:9202  users[msg.sender].invested += amount */\n      tag_223\n      jump\t// in\n    tag_479:\n      swap3\n      pop\n      pop\n      dup2\n      swap1\n      sstore\n      pop\n        /* \"LibertyFinancialChain/LiberttFinancial/genesispool.sol\":9286:9292  amount */\n      dup5\n        /* \"LibertyFinancialChain/LiberttFinancial/genesispool.sol\":9264:9268  pool */\n      dup2\n        /* \"LibertyFinancialChain/LiberttFinancial/genesispool.sol\":9264:9282  pool.totalInvested */\n      0x04\n      add\n      0x00\n        /* \"LibertyFinancialChain/LiberttFinancial/genesispool.sol\":9264:9292  pool.totalInvested += amount */\n      dup3\n      dup3\n      sload\n      tag_480\n      swap2\n      swap1\n      tag_223\n      jump\t// in\n    tag_480:\n      swap3\n      pop\n      pop\n      dup2\n      swap1\n      sstore\n      pop\n        /* \"LibertyFinancialChain/LiberttFinancial/genesispool.sol\":9322:9328  ingots */\n      dup2\n        /* \"LibertyFinancialChain/LiberttFinancial/genesispool.sol\":9302:9306  pool */\n      dup2\n        /* \"LibertyFinancialChain/LiberttFinancial/genesispool.sol\":9302:9318  pool.currentFill */\n      0x02\n      add\n      0x00\n        /* \"LibertyFinancialChain/LiberttFinancial/genesispool.sol\":9302:9328  pool.currentFill += ingots */\n      dup3\n      dup3\n      sload\n      tag_481\n      swap2\n      swap1\n      tag_223\n      jump\t// in\n    tag_481:\n      swap3\n      pop\n      pop\n      dup2\n      swap1\n      sstore\n      pop\n        /* \"LibertyFinancialChain/LiberttFinancial/genesispool.sol\":9363:9369  amount */\n      dup5\n        /* \"LibertyFinancialChain/LiberttFinancial/genesispool.sol\":9338:9359  totalInvestedAllPools */\n      0x12\n      0x00\n        /* \"LibertyFinancialChain/LiberttFinancial/genesispool.sol\":9338:9369  totalInvestedAllPools += amount */\n      dup3\n      dup3\n      sload\n      tag_482\n      swap2\n      swap1\n      tag_223\n      jump\t// in\n    tag_482:\n      swap3\n      pop\n      pop\n      dup2\n      swap1\n      sstore\n      pop\n        /* \"LibertyFinancialChain/LiberttFinancial/genesispool.sol\":9379:9389  poolOrders */\n      0x13\n        /* \"LibertyFinancialChain/LiberttFinancial/genesispool.sol\":9379:9397  poolOrders[poolId] */\n      0x00\n        /* \"LibertyFinancialChain/LiberttFinancial/genesispool.sol\":9390:9396  poolId */\n      dup8\n        /* \"LibertyFinancialChain/LiberttFinancial/genesispool.sol\":9379:9397  poolOrders[poolId] */\n      dup2\n      mstore\n      0x20\n      add\n      swap1\n      dup2\n      mstore\n      0x20\n      add\n      0x00\n      keccak256\n        /* \"LibertyFinancialChain/LiberttFinancial/genesispool.sol\":9403:9483  Order(pool.currentFill, msg.sender, amount, 10, useUSD ? \"USD1\" : \"INR1\", false) */\n      mload(0x40)\n      dup1\n      0xc0\n      add\n      0x40\n      mstore\n      dup1\n        /* \"LibertyFinancialChain/LiberttFinancial/genesispool.sol\":9409:9413  pool */\n      dup4\n        /* \"LibertyFinancialChain/LiberttFinancial/genesispool.sol\":9409:9425  pool.currentFill */\n      0x02\n      add\n      sload\n        /* \"LibertyFinancialChain/LiberttFinancial/genesispool.sol\":9403:9483  Order(pool.currentFill, msg.sender, amount, 10, useUSD ? \"USD1\" : \"INR1\", false) */\n      dup2\n      mstore\n      0x20\n      add\n        /* \"LibertyFinancialChain/LiberttFinancial/genesispool.sol\":9427:9437  msg.sender */\n      caller\n      sub(shl(0xa0, 0x01), 0x01)\n        /* \"LibertyFinancialChain/LiberttFinancial/genesispool.sol\":9403:9483  Order(pool.currentFill, msg.sender, amount, 10, useUSD ? \"USD1\" : \"INR1\", false) */\n      and\n      dup2\n      mstore\n      0x20\n      add\n        /* \"LibertyFinancialChain/LiberttFinancial/genesispool.sol\":9439:9445  amount */\n      dup8\n        /* \"LibertyFinancialChain/LiberttFinancial/genesispool.sol\":9403:9483  Order(pool.currentFill, msg.sender, amount, 10, useUSD ? \"USD1\" : \"INR1\", false) */\n      dup2\n      mstore\n      0x20\n      add\n        /* \"LibertyFinancialChain/LiberttFinancial/genesispool.sol\":9447:9449  10 */\n      0x0a\n        /* \"LibertyFinancialChain/LiberttFinancial/genesispool.sol\":9403:9483  Order(pool.currentFill, msg.sender, amount, 10, useUSD ? \"USD1\" : \"INR1\", false) */\n      dup2\n      mstore\n      0x20\n      add\n        /* \"LibertyFinancialChain/LiberttFinancial/genesispool.sol\":9451:9457  useUSD */\n      dup7\n        /* \"LibertyFinancialChain/LiberttFinancial/genesispool.sol\":9451:9475  useUSD ? \"USD1\" : \"INR1\" */\n      tag_483\n      jumpi\n      mload(0x40)\n      dup1\n      0x40\n      add\n      0x40\n      mstore\n      dup1\n      0x04\n      dup2\n      mstore\n      0x20\n      add\n      shl(0xe0, 0x494e5231)\n      dup2\n      mstore\n      pop\n      jump(tag_484)\n    tag_483:\n      mload(0x40)\n      dup1\n      0x40\n      add\n      0x40\n      mstore\n      dup1\n      0x04\n      dup2\n      mstore\n      0x20\n      add\n      shl(0xe0, 0x55534431)\n      dup2\n      mstore\n      pop\n    tag_484:\n        /* \"LibertyFinancialChain/LiberttFinancial/genesispool.sol\":9403:9483  Order(pool.currentFill, msg.sender, amount, 10, useUSD ? \"USD1\" : \"INR1\", false) */\n      dup2\n      mstore\n        /* \"LibertyFinancialChain/LiberttFinancial/genesispool.sol\":9477:9482  false */\n      0x00\n        /* \"LibertyFinancialChain/LiberttFinancial/genesispool.sol\":9403:9483  Order(pool.currentFill, msg.sender, amount, 10, useUSD ? \"USD1\" : \"INR1\", false) */\n      0x20\n      swap2\n      dup3\n      add\n      dup2\n      swap1\n      mstore\n        /* \"LibertyFinancialChain/LiberttFinancial/genesispool.sol\":9379:9484  poolOrders[poolId].push(Order(pool.currentFill, msg.sender, amount, 10, useUSD ? \"USD1\" : \"INR1\", false)) */\n      dup4\n      sload\n        /* \"LibertyFinancialChain/LiberttFinancial/genesispool.sol\":9403:9483  Order(pool.currentFill, msg.sender, amount, 10, useUSD ? \"USD1\" : \"INR1\", false) */\n      0x01\n        /* \"LibertyFinancialChain/LiberttFinancial/genesispool.sol\":9379:9484  poolOrders[poolId].push(Order(pool.currentFill, msg.sender, amount, 10, useUSD ? \"USD1\" : \"INR1\", false)) */\n      dup1\n      dup3\n      add\n      dup7\n      sstore\n      swap5\n      dup3\n      mstore\n      swap1\n      dup3\n      swap1\n      keccak256\n      dup4\n      mload\n      0x06\n      swap1\n      swap3\n      mul\n      add\n      swap1\n      dup2\n      sstore\n      swap1\n      dup3\n      add\n      mload\n      swap3\n      dup2\n      add\n      dup1\n      sload\n      not(sub(shl(0xa0, 0x01), 0x01))\n      and\n      sub(shl(0xa0, 0x01), 0x01)\n      swap1\n      swap5\n      and\n      swap4\n      swap1\n      swap4\n      or\n      swap1\n      swap3\n      sstore\n      0x40\n      dup2\n      add\n      mload\n      0x02\n      dup4\n      add\n      sstore\n      0x60\n      dup2\n      add\n      mload\n      0x03\n      dup4\n      add\n      sstore\n      0x80\n      dup2\n      add\n      mload\n      swap1\n      swap2\n      swap1\n      0x04\n      dup3\n      add\n      swap1\n      tag_486\n      swap1\n      dup3\n      tag_487\n      jump\t// in\n    tag_486:\n      pop\n      0xa0\n      swap2\n      swap1\n      swap2\n      add\n      mload\n      0x05\n      swap2\n      dup3\n      add\n      dup1\n      sload\n      not(0xff)\n      and\n      swap2\n      iszero\n      iszero\n      swap2\n      swap1\n      swap2\n      or\n      swap1\n      sstore\n      0x00\n      swap1\n        /* \"LibertyFinancialChain/LiberttFinancial/genesispool.sol\":9531:9534  100 */\n      0x64\n      swap1\n        /* \"LibertyFinancialChain/LiberttFinancial/genesispool.sol\":9517:9527  amount * 5 */\n      tag_488\n      swap1\n        /* \"LibertyFinancialChain/LiberttFinancial/genesispool.sol\":9517:9523  amount */\n      dup9\n      swap1\n        /* \"LibertyFinancialChain/LiberttFinancial/genesispool.sol\":9517:9527  amount * 5 */\n      tag_234\n      jump\t// in\n    tag_488:\n        /* \"LibertyFinancialChain/LiberttFinancial/genesispool.sol\":9516:9534  (amount * 5) / 100 */\n      tag_489\n      swap2\n      swap1\n      tag_397\n      jump\t// in\n    tag_489:\n        /* \"LibertyFinancialChain/LiberttFinancial/genesispool.sol\":9495:9534  uint256 reserveAmt = (amount * 5) / 100 */\n      swap1\n      pop\n        /* \"LibertyFinancialChain/LiberttFinancial/genesispool.sol\":9544:9566  uint256 operationalAmt */\n      0x00\n        /* \"LibertyFinancialChain/LiberttFinancial/genesispool.sol\":9585:9588  100 */\n      0x64\n        /* \"LibertyFinancialChain/LiberttFinancial/genesispool.sol\":9570:9581  amount * 95 */\n      tag_490\n        /* \"LibertyFinancialChain/LiberttFinancial/genesispool.sol\":9570:9576  amount */\n      dup9\n        /* \"LibertyFinancialChain/LiberttFinancial/genesispool.sol\":9579:9581  95 */\n      0x5f\n        /* \"LibertyFinancialChain/LiberttFinancial/genesispool.sol\":9570:9581  amount * 95 */\n      tag_234\n      jump\t// in\n    tag_490:\n        /* \"LibertyFinancialChain/LiberttFinancial/genesispool.sol\":9569:9588  (amount * 95) / 100 */\n      tag_491\n      swap2\n      swap1\n      tag_397\n      jump\t// in\n    tag_491:\n        /* \"LibertyFinancialChain/LiberttFinancial/genesispool.sol\":9544:9588  uint256 operationalAmt = (amount * 95) / 100 */\n      swap1\n      pop\n        /* \"LibertyFinancialChain/LiberttFinancial/genesispool.sol\":9617:9627  reserveAmt */\n      dup2\n        /* \"LibertyFinancialChain/LiberttFinancial/genesispool.sol\":9598:9613  reserveTreasury */\n      0x18\n      0x00\n        /* \"LibertyFinancialChain/LiberttFinancial/genesispool.sol\":9598:9627  reserveTreasury += reserveAmt */\n      dup3\n      dup3\n      sload\n      tag_492\n      swap2\n      swap1\n      tag_223\n      jump\t// in\n    tag_492:\n      swap3\n      pop\n      pop\n      dup2\n      swap1\n      sstore\n      pop\n        /* \"LibertyFinancialChain/LiberttFinancial/genesispool.sol\":9660:9674  operationalAmt */\n      dup1\n        /* \"LibertyFinancialChain/LiberttFinancial/genesispool.sol\":9637:9656  operationalTreasury */\n      0x19\n      0x00\n        /* \"LibertyFinancialChain/LiberttFinancial/genesispool.sol\":9637:9674  operationalTreasury += operationalAmt */\n      dup3\n      dup3\n      sload\n      tag_493\n      swap2\n      swap1\n      tag_223\n      jump\t// in\n    tag_493:\n      swap1\n      swap2\n      sstore\n      pop\n      pop\n        /* \"LibertyFinancialChain/LiberttFinancial/genesispool.sol\":9721:9737  pool.currentFill */\n      0x02\n      dup4\n      add\n      sload\n        /* \"LibertyFinancialChain/LiberttFinancial/genesispool.sol\":9701:9711  msg.sender */\n      caller\n      swap1\n        /* \"LibertyFinancialChain/LiberttFinancial/genesispool.sol\":9690:9772  PoolJoined(msg.sender, poolId, pool.currentFill, ingots, useUSD ? \"USD1\" : \"INR1\") */\n      0x8a761c59f3b512242e1b88c9999ca511dea220c5354703afe7bdd82375fb6761\n      swap1\n        /* \"LibertyFinancialChain/LiberttFinancial/genesispool.sol\":9713:9719  poolId */\n      dup11\n      swap1\n        /* \"LibertyFinancialChain/LiberttFinancial/genesispool.sol\":9739:9745  ingots */\n      dup8\n        /* \"LibertyFinancialChain/LiberttFinancial/genesispool.sol\":9747:9753  useUSD */\n      dup11\n        /* \"LibertyFinancialChain/LiberttFinancial/genesispool.sol\":9747:9771  useUSD ? \"USD1\" : \"INR1\" */\n      tag_494\n      jumpi\n      mload(0x40)\n      dup1\n      0x40\n      add\n      0x40\n      mstore\n      dup1\n      0x04\n      dup2\n      mstore\n      0x20\n      add\n      shl(0xe0, 0x494e5231)\n      dup2\n      mstore\n      pop\n      jump(tag_495)\n    tag_494:\n      mload(0x40)\n      dup1\n      0x40\n      add\n      0x40\n      mstore\n      dup1\n      0x04\n      dup2\n      mstore\n      0x20\n      add\n      shl(0xe0, 0x55534431)\n      dup2\n      mstore\n      pop\n    tag_495:\n        /* \"LibertyFinancialChain/LiberttFinancial/genesispool.sol\":9690:9772  PoolJoined(msg.sender, poolId, pool.currentFill, ingots, useUSD ? \"USD1\" : \"INR1\") */\n      mload(0x40)\n      tag_496\n      swap5\n      swap4\n      swap3\n      swap2\n      swap1\n      tag_497\n      jump\t// in\n    tag_496:\n      mload(0x40)\n      dup1\n      swap2\n      sub\n      swap1\n      log2\n        /* \"LibertyFinancialChain/LiberttFinancial/genesispool.sol\":9782:9828  _distributeReferralRewards(msg.sender, amount) */\n      tag_498\n        /* \"LibertyFinancialChain/LiberttFinancial/genesispool.sol\":9809:9819  msg.sender */\n      caller\n        /* \"LibertyFinancialChain/LiberttFinancial/genesispool.sol\":9821:9827  amount */\n      dup9\n        /* \"LibertyFinancialChain/LiberttFinancial/genesispool.sol\":9782:9808  _distributeReferralRewards */\n      tag_499\n        /* \"LibertyFinancialChain/LiberttFinancial/genesispool.sol\":9782:9828  _distributeReferralRewards(msg.sender, amount) */\n      jump\t// in\n    tag_498:\n        /* \"LibertyFinancialChain/LiberttFinancial/genesispool.sol\":1190:1193  100 */\n      0x64\n        /* \"LibertyFinancialChain/LiberttFinancial/genesispool.sol\":9843:9847  pool */\n      dup4\n        /* \"LibertyFinancialChain/LiberttFinancial/genesispool.sol\":9843:9859  pool.currentFill */\n      0x02\n      add\n      sload\n        /* \"LibertyFinancialChain/LiberttFinancial/genesispool.sol\":9843:9878  pool.currentFill == INGOTS_POOL_MAX */\n      eq\n        /* \"LibertyFinancialChain/LiberttFinancial/genesispool.sol\":9843:9902  pool.currentFill == INGOTS_POOL_MAX && poolId < MAX_POOL_ID */\n      dup1\n      iszero\n      tag_500\n      jumpi\n      pop\n        /* \"LibertyFinancialChain/LiberttFinancial/genesispool.sol\":2494:2507  1_000_000_000 */\n      0x3b9aca00\n        /* \"LibertyFinancialChain/LiberttFinancial/genesispool.sol\":9882:9888  poolId */\n      dup9\n        /* \"LibertyFinancialChain/LiberttFinancial/genesispool.sol\":9882:9902  poolId < MAX_POOL_ID */\n      lt\n        /* \"LibertyFinancialChain/LiberttFinancial/genesispool.sol\":9843:9902  pool.currentFill == INGOTS_POOL_MAX && poolId < MAX_POOL_ID */\n    tag_500:\n        /* \"LibertyFinancialChain/LiberttFinancial/genesispool.sol\":9839:10517  if (pool.currentFill == INGOTS_POOL_MAX && poolId < MAX_POOL_ID) {... */\n      iszero\n      tag_501\n      jumpi\n        /* \"LibertyFinancialChain/LiberttFinancial/genesispool.sol\":9935:9940  false */\n      0x00\n        /* \"LibertyFinancialChain/LiberttFinancial/genesispool.sol\":9910:9923  pools[poolId] */\n      dup9\n      dup2\n      mstore\n        /* \"LibertyFinancialChain/LiberttFinancial/genesispool.sol\":9910:9915  pools */\n      0x10\n        /* \"LibertyFinancialChain/LiberttFinancial/genesispool.sol\":9910:9923  pools[poolId] */\n      0x20\n      mstore\n      0x40\n      swap1\n      dup2\n      swap1\n      keccak256\n        /* \"LibertyFinancialChain/LiberttFinancial/genesispool.sol\":9910:9932  pools[poolId].isActive */\n      0x03\n      dup2\n      add\n        /* \"LibertyFinancialChain/LiberttFinancial/genesispool.sol\":9910:9940  pools[poolId].isActive = false */\n      dup1\n      sload\n      not(0xff)\n      and\n      swap1\n      sstore\n        /* \"LibertyFinancialChain/LiberttFinancial/genesispool.sol\":9970:9997  pools[poolId].totalInvested */\n      0x04\n      add\n      sload\n        /* \"LibertyFinancialChain/LiberttFinancial/genesispool.sol\":9951:9998  PoolClosed(poolId, pools[poolId].totalInvested) */\n      swap1\n      mload\n        /* \"LibertyFinancialChain/LiberttFinancial/genesispool.sol\":9916:9922  poolId */\n      dup10\n      swap2\n        /* \"LibertyFinancialChain/LiberttFinancial/genesispool.sol\":9951:9998  PoolClosed(poolId, pools[poolId].totalInvested) */\n      0xaf7faf29a251efa1bcf2b47dab1a72baa0906a2e4ff957e6cb6d4f7c642161ab\n      swap2\n      tag_502\n      swap2\n        /* \"#utility.yul\":160:185   */\n      dup2\n      mstore\n        /* \"#utility.yul\":148:150   */\n      0x20\n        /* \"#utility.yul\":133:151   */\n      add\n      swap1\n        /* \"#utility.yul\":14:191   */\n      jump\n        /* \"LibertyFinancialChain/LiberttFinancial/genesispool.sol\":9951:9998  PoolClosed(poolId, pools[poolId].totalInvested) */\n    tag_502:\n      mload(0x40)\n      dup1\n      swap2\n      sub\n      swap1\n      log2\n        /* \"LibertyFinancialChain/LiberttFinancial/genesispool.sol\":10088:10106  uint256 nextPoolId */\n      0x00\n        /* \"LibertyFinancialChain/LiberttFinancial/genesispool.sol\":10109:10126  lastCreatedPoolId */\n      sload(0x11)\n        /* \"LibertyFinancialChain/LiberttFinancial/genesispool.sol\":10129:10130  1 */\n      0x01\n        /* \"LibertyFinancialChain/LiberttFinancial/genesispool.sol\":10109:10130  lastCreatedPoolId + 1 */\n      tag_503\n      swap2\n      swap1\n      tag_223\n      jump\t// in\n    tag_503:\n        /* \"LibertyFinancialChain/LiberttFinancial/genesispool.sol\":10144:10161  pools[nextPoolId] */\n      0x00\n      dup2\n      dup2\n      mstore\n        /* \"LibertyFinancialChain/LiberttFinancial/genesispool.sol\":10144:10149  pools */\n      0x10\n        /* \"LibertyFinancialChain/LiberttFinancial/genesispool.sol\":10144:10161  pools[nextPoolId] */\n      0x20\n      mstore\n      0x40\n      swap1\n      keccak256\n        /* \"LibertyFinancialChain/LiberttFinancial/genesispool.sol\":10144:10168  pools[nextPoolId].poolId */\n      sload\n        /* \"LibertyFinancialChain/LiberttFinancial/genesispool.sol\":10088:10130  uint256 nextPoolId = lastCreatedPoolId + 1 */\n      swap1\n      swap2\n      pop\n        /* \"LibertyFinancialChain/LiberttFinancial/genesispool.sol\":10144:10173  pools[nextPoolId].poolId == 0 */\n      iszero\n        /* \"LibertyFinancialChain/LiberttFinancial/genesispool.sol\":10136:10202  require(pools[nextPoolId].poolId == 0, \"Next pool already exists\") */\n      tag_504\n      jumpi\n      mload(0x40)\n      shl(0xe5, 0x461bcd)\n      dup2\n      mstore\n        /* \"#utility.yul\":21791:21793   */\n      0x20\n        /* \"LibertyFinancialChain/LiberttFinancial/genesispool.sol\":10136:10202  require(pools[nextPoolId].poolId == 0, \"Next pool already exists\") */\n      0x04\n      dup3\n      add\n        /* \"#utility.yul\":21773:21794   */\n      mstore\n        /* \"#utility.yul\":21830:21832   */\n      0x18\n        /* \"#utility.yul\":21810:21828   */\n      0x24\n      dup3\n      add\n        /* \"#utility.yul\":21803:21833   */\n      mstore\n        /* \"#utility.yul\":21869:21895   */\n      0x4e65787420706f6f6c20616c7265616479206578697374730000000000000000\n        /* \"#utility.yul\":21849:21867   */\n      0x44\n      dup3\n      add\n        /* \"#utility.yul\":21842:21896   */\n      mstore\n        /* \"#utility.yul\":21913:21931   */\n      0x64\n      add\n        /* \"LibertyFinancialChain/LiberttFinancial/genesispool.sol\":10136:10202  require(pools[nextPoolId].poolId == 0, \"Next pool already exists\") */\n      tag_254\n        /* \"#utility.yul\":21589:21937   */\n      jump\n        /* \"LibertyFinancialChain/LiberttFinancial/genesispool.sol\":10136:10202  require(pools[nextPoolId].poolId == 0, \"Next pool already exists\") */\n    tag_504:\n        /* \"LibertyFinancialChain/LiberttFinancial/genesispool.sol\":10256:10387  Pool(... */\n      mload(0x40)\n      dup1\n      0xc0\n      add\n      0x40\n      mstore\n      dup1\n        /* \"LibertyFinancialChain/LiberttFinancial/genesispool.sol\":10270:10280  nextPoolId */\n      dup3\n        /* \"LibertyFinancialChain/LiberttFinancial/genesispool.sol\":10256:10387  Pool(... */\n      dup2\n      mstore\n      0x20\n      add\n        /* \"LibertyFinancialChain/LiberttFinancial/genesispool.sol\":10304:10305  9 */\n      0x09\n        /* \"LibertyFinancialChain/LiberttFinancial/genesispool.sol\":10290:10300  nextPoolId */\n      dup4\n        /* \"LibertyFinancialChain/LiberttFinancial/genesispool.sol\":10290:10305  nextPoolId <= 9 */\n      gt\n      iszero\n        /* \"LibertyFinancialChain/LiberttFinancial/genesispool.sol\":10290:10330  nextPoolId <= 9 ? \"Standard\" : \"Lottery\" */\n      tag_507\n      jumpi\n      mload(0x40)\n      dup1\n      0x40\n      add\n      0x40\n      mstore\n      dup1\n      0x07\n      dup2\n      mstore\n      0x20\n      add\n      shl(0xc8, 0x4c6f7474657279)\n      dup2\n      mstore\n      pop\n      jump(tag_508)\n    tag_507:\n      mload(0x40)\n      dup1\n      0x40\n      add\n      0x40\n      mstore\n      dup1\n      0x08\n      dup2\n      mstore\n      0x20\n      add\n      shl(0xc2, 0x14dd185b99185c99)\n      dup2\n      mstore\n      pop\n    tag_508:\n        /* \"LibertyFinancialChain/LiberttFinancial/genesispool.sol\":10256:10387  Pool(... */\n      dup2\n      mstore\n        /* \"LibertyFinancialChain/LiberttFinancial/genesispool.sol\":10340:10341  0 */\n      0x00\n        /* \"LibertyFinancialChain/LiberttFinancial/genesispool.sol\":10256:10387  Pool(... */\n      0x20\n      dup1\n      dup4\n      add\n      dup3\n      swap1\n      mstore\n        /* \"LibertyFinancialChain/LiberttFinancial/genesispool.sol\":10351:10355  true */\n      0x01\n        /* \"LibertyFinancialChain/LiberttFinancial/genesispool.sol\":10256:10387  Pool(... */\n      0x40\n      dup1\n      dup6\n      add\n      dup3\n      swap1\n      mstore\n      0x60\n      dup6\n      add\n      dup5\n      swap1\n      mstore\n      0x80\n      swap1\n      swap5\n      add\n      dup4\n      swap1\n      mstore\n        /* \"LibertyFinancialChain/LiberttFinancial/genesispool.sol\":10236:10253  pools[nextPoolId] */\n      dup6\n      dup4\n      mstore\n        /* \"LibertyFinancialChain/LiberttFinancial/genesispool.sol\":10236:10241  pools */\n      0x10\n        /* \"LibertyFinancialChain/LiberttFinancial/genesispool.sol\":10236:10253  pools[nextPoolId] */\n      dup3\n      mstore\n      swap3\n      swap1\n      swap2\n      keccak256\n        /* \"LibertyFinancialChain/LiberttFinancial/genesispool.sol\":10236:10387  pools[nextPoolId] = Pool(... */\n      dup4\n      mload\n      dup2\n      sstore\n      swap1\n      dup4\n      add\n      mload\n        /* \"LibertyFinancialChain/LiberttFinancial/genesispool.sol\":10236:10253  pools[nextPoolId] */\n      swap1\n      swap2\n        /* \"LibertyFinancialChain/LiberttFinancial/genesispool.sol\":10236:10387  pools[nextPoolId] = Pool(... */\n      dup3\n      add\n      swap1\n      tag_509\n      swap1\n      dup3\n      tag_487\n      jump\t// in\n    tag_509:\n      pop\n      0x40\n      dup3\n      dup2\n      add\n      mload\n      0x02\n      dup4\n      add\n      sstore\n      0x60\n      dup4\n      add\n      mload\n      0x03\n      dup4\n      add\n      dup1\n      sload\n      0x80\n      dup7\n      add\n      mload\n      iszero\n      iszero\n      0x0100\n      mul\n      not(0xff00)\n      swap4\n      iszero\n      iszero\n      swap4\n      swap1\n      swap4\n      and\n      not(0xffff)\n      swap1\n      swap2\n      and\n      or\n      swap2\n      swap1\n      swap2\n      or\n      swap1\n      sstore\n      0xa0\n      swap1\n      swap3\n      add\n      mload\n      0x04\n      swap1\n      swap2\n      add\n      sstore\n        /* \"LibertyFinancialChain/LiberttFinancial/genesispool.sol\":10393:10410  lastCreatedPoolId */\n      0x11\n        /* \"LibertyFinancialChain/LiberttFinancial/genesispool.sol\":10393:10423  lastCreatedPoolId = nextPoolId */\n      dup3\n      swap1\n      sstore\n        /* \"LibertyFinancialChain/LiberttFinancial/genesispool.sol\":10236:10387  pools[nextPoolId] = Pool(... */\n      0x00\n        /* \"LibertyFinancialChain/LiberttFinancial/genesispool.sol\":10487:10504  pools[nextPoolId] */\n      dup3\n      dup2\n      mstore\n        /* \"LibertyFinancialChain/LiberttFinancial/genesispool.sol\":10487:10492  pools */\n      0x10\n        /* \"LibertyFinancialChain/LiberttFinancial/genesispool.sol\":10487:10504  pools[nextPoolId] */\n      0x20\n      mstore\n      dup2\n      swap1\n      keccak256\n        /* \"LibertyFinancialChain/LiberttFinancial/genesispool.sol\":10465:10514  PoolAdded(nextPoolId, pools[nextPoolId].poolType) */\n      swap1\n      mload\n        /* \"LibertyFinancialChain/LiberttFinancial/genesispool.sol\":10413:10423  nextPoolId */\n      dup3\n      swap2\n        /* \"LibertyFinancialChain/LiberttFinancial/genesispool.sol\":10465:10514  PoolAdded(nextPoolId, pools[nextPoolId].poolType) */\n      0x150cb369f834b70a4f343956659b1f84cd37d44352b9a76ff77ac59552ef4aa0\n      swap2\n      tag_510\n      swap2\n        /* \"LibertyFinancialChain/LiberttFinancial/genesispool.sol\":10236:10387  pools[nextPoolId] = Pool(... */\n      0x01\n        /* \"LibertyFinancialChain/LiberttFinancial/genesispool.sol\":10487:10513  pools[nextPoolId].poolType */\n      add\n      swap1\n        /* \"LibertyFinancialChain/LiberttFinancial/genesispool.sol\":10465:10514  PoolAdded(nextPoolId, pools[nextPoolId].poolType) */\n      tag_511\n      jump\t// in\n    tag_510:\n      mload(0x40)\n      dup1\n      swap2\n      sub\n      swap1\n      log2\n        /* \"LibertyFinancialChain/LiberttFinancial/genesispool.sol\":9904:10517  {... */\n      pop\n        /* \"LibertyFinancialChain/LiberttFinancial/genesispool.sol\":9839:10517  if (pool.currentFill == INGOTS_POOL_MAX && poolId < MAX_POOL_ID) {... */\n    tag_501:\n        /* \"LibertyFinancialChain/LiberttFinancial/genesispool.sol\":8022:10525  {... */\n      pop\n      pop\n      pop\n      pop\n      pop\n        /* \"@openzeppelin/contracts/security/ReentrancyGuard.sol\":2303:2323  _nonReentrantAfter() */\n      tag_324\n        /* \"@openzeppelin/contracts/security/ReentrancyGuard.sol\":1716:1717  1 */\n      0x01\n        /* \"@openzeppelin/contracts/security/ReentrancyGuard.sol\":2809:2831  _status = _NOT_ENTERED */\n      dup1\n      sstore\n        /* \"@openzeppelin/contracts/security/ReentrancyGuard.sol\":2629:2838  function _nonReentrantAfter() private {... */\n      jump\n        /* \"LibertyFinancialChain/LiberttFinancial/genesispool.sol\":6449:6971  function forceCreatePool(uint256 poolId, string memory poolType) external onlyOwner {... */\n    tag_182:\n        /* \"@openzeppelin/contracts/access/Ownable.sol\":1531:1544  _checkOwner() */\n      tag_514\n        /* \"@openzeppelin/contracts/access/Ownable.sol\":1531:1542  _checkOwner */\n      tag_276\n        /* \"@openzeppelin/contracts/access/Ownable.sol\":1531:1544  _checkOwner() */\n      jump\t// in\n    tag_514:\n        /* \"LibertyFinancialChain/LiberttFinancial/genesispool.sol\":6556:6557  0 */\n      0x00\n        /* \"LibertyFinancialChain/LiberttFinancial/genesispool.sol\":6547:6553  poolId */\n      dup3\n        /* \"LibertyFinancialChain/LiberttFinancial/genesispool.sol\":6547:6557  poolId > 0 */\n      gt\n        /* \"LibertyFinancialChain/LiberttFinancial/genesispool.sol\":6547:6582  poolId > 0 && poolId <= MAX_POOL_ID */\n      dup1\n      iszero\n      tag_516\n      jumpi\n      pop\n        /* \"LibertyFinancialChain/LiberttFinancial/genesispool.sol\":2494:2507  1_000_000_000 */\n      0x3b9aca00\n        /* \"LibertyFinancialChain/LiberttFinancial/genesispool.sol\":6561:6567  poolId */\n      dup3\n        /* \"LibertyFinancialChain/LiberttFinancial/genesispool.sol\":6561:6582  poolId <= MAX_POOL_ID */\n      gt\n      iszero\n        /* \"LibertyFinancialChain/LiberttFinancial/genesispool.sol\":6547:6582  poolId > 0 && poolId <= MAX_POOL_ID */\n    tag_516:\n        /* \"LibertyFinancialChain/LiberttFinancial/genesispool.sol\":6539:6606  require(poolId > 0 && poolId <= MAX_POOL_ID, \"PoolId out of range\") */\n      tag_517\n      jumpi\n      mload(0x40)\n      shl(0xe5, 0x461bcd)\n      dup2\n      mstore\n        /* \"#utility.yul\":23112:23114   */\n      0x20\n        /* \"LibertyFinancialChain/LiberttFinancial/genesispool.sol\":6539:6606  require(poolId > 0 && poolId <= MAX_POOL_ID, \"PoolId out of range\") */\n      0x04\n      dup3\n      add\n        /* \"#utility.yul\":23094:23115   */\n      mstore\n        /* \"#utility.yul\":23151:23153   */\n      0x13\n        /* \"#utility.yul\":23131:23149   */\n      0x24\n      dup3\n      add\n        /* \"#utility.yul\":23124:23154   */\n      mstore\n      shl(0x68, 0x506f6f6c4964206f7574206f662072616e6765)\n        /* \"#utility.yul\":23170:23188   */\n      0x44\n      dup3\n      add\n        /* \"#utility.yul\":23163:23212   */\n      mstore\n        /* \"#utility.yul\":23229:23247   */\n      0x64\n      add\n        /* \"LibertyFinancialChain/LiberttFinancial/genesispool.sol\":6539:6606  require(poolId > 0 && poolId <= MAX_POOL_ID, \"PoolId out of range\") */\n      tag_254\n        /* \"#utility.yul\":22910:23253   */\n      jump\n        /* \"LibertyFinancialChain/LiberttFinancial/genesispool.sol\":6539:6606  require(poolId > 0 && poolId <= MAX_POOL_ID, \"PoolId out of range\") */\n    tag_517:\n        /* \"LibertyFinancialChain/LiberttFinancial/genesispool.sol\":6645:6646  0 */\n      0x00\n        /* \"LibertyFinancialChain/LiberttFinancial/genesispool.sol\":6626:6634  poolType */\n      dup2\n        /* \"LibertyFinancialChain/LiberttFinancial/genesispool.sol\":6620:6642  bytes(poolType).length */\n      mload\n        /* \"LibertyFinancialChain/LiberttFinancial/genesispool.sol\":6620:6646  bytes(poolType).length > 0 */\n      gt\n        /* \"LibertyFinancialChain/LiberttFinancial/genesispool.sol\":6612:6668  require(bytes(poolType).length > 0, \"poolType required\") */\n      tag_520\n      jumpi\n      mload(0x40)\n      shl(0xe5, 0x461bcd)\n      dup2\n      mstore\n        /* \"#utility.yul\":23460:23462   */\n      0x20\n        /* \"LibertyFinancialChain/LiberttFinancial/genesispool.sol\":6612:6668  require(bytes(poolType).length > 0, \"poolType required\") */\n      0x04\n      dup3\n      add\n        /* \"#utility.yul\":23442:23463   */\n      mstore\n        /* \"#utility.yul\":23499:23501   */\n      0x11\n        /* \"#utility.yul\":23479:23497   */\n      0x24\n      dup3\n      add\n        /* \"#utility.yul\":23472:23502   */\n      mstore\n      shl(0x7a, 0x1c1bdbdb151e5c19481c995c5d5a5c9959)\n        /* \"#utility.yul\":23518:23536   */\n      0x44\n      dup3\n      add\n        /* \"#utility.yul\":23511:23558   */\n      mstore\n        /* \"#utility.yul\":23575:23593   */\n      0x64\n      add\n        /* \"LibertyFinancialChain/LiberttFinancial/genesispool.sol\":6612:6668  require(bytes(poolType).length > 0, \"poolType required\") */\n      tag_254\n        /* \"#utility.yul\":23258:23599   */\n      jump\n        /* \"LibertyFinancialChain/LiberttFinancial/genesispool.sol\":6612:6668  require(bytes(poolType).length > 0, \"poolType required\") */\n    tag_520:\n        /* \"LibertyFinancialChain/LiberttFinancial/genesispool.sol\":6682:6695  pools[poolId] */\n      0x00\n      dup3\n      dup2\n      mstore\n        /* \"LibertyFinancialChain/LiberttFinancial/genesispool.sol\":6682:6687  pools */\n      0x10\n        /* \"LibertyFinancialChain/LiberttFinancial/genesispool.sol\":6682:6695  pools[poolId] */\n      0x20\n      mstore\n      0x40\n      swap1\n      keccak256\n        /* \"LibertyFinancialChain/LiberttFinancial/genesispool.sol\":6682:6702  pools[poolId].poolId */\n      sload\n        /* \"LibertyFinancialChain/LiberttFinancial/genesispool.sol\":6682:6707  pools[poolId].poolId == 0 */\n      iszero\n        /* \"LibertyFinancialChain/LiberttFinancial/genesispool.sol\":6674:6731  require(pools[poolId].poolId == 0, \"Pool already exists\") */\n      tag_523\n      jumpi\n      mload(0x40)\n      shl(0xe5, 0x461bcd)\n      dup2\n      mstore\n        /* \"#utility.yul\":23806:23808   */\n      0x20\n        /* \"LibertyFinancialChain/LiberttFinancial/genesispool.sol\":6674:6731  require(pools[poolId].poolId == 0, \"Pool already exists\") */\n      0x04\n      dup3\n      add\n        /* \"#utility.yul\":23788:23809   */\n      mstore\n        /* \"#utility.yul\":23845:23847   */\n      0x13\n        /* \"#utility.yul\":23825:23843   */\n      0x24\n      dup3\n      add\n        /* \"#utility.yul\":23818:23848   */\n      mstore\n      shl(0x68, 0x506f6f6c20616c726561647920657869737473)\n        /* \"#utility.yul\":23864:23882   */\n      0x44\n      dup3\n      add\n        /* \"#utility.yul\":23857:23906   */\n      mstore\n        /* \"#utility.yul\":23923:23941   */\n      0x64\n      add\n        /* \"LibertyFinancialChain/LiberttFinancial/genesispool.sol\":6674:6731  require(pools[poolId].poolId == 0, \"Pool already exists\") */\n      tag_254\n        /* \"#utility.yul\":23604:23947   */\n      jump\n        /* \"LibertyFinancialChain/LiberttFinancial/genesispool.sol\":6674:6731  require(pools[poolId].poolId == 0, \"Pool already exists\") */\n    tag_523:\n        /* \"LibertyFinancialChain/LiberttFinancial/genesispool.sol\":6754:6849  Pool(... */\n      0x40\n      dup1\n      mload\n      0xc0\n      dup2\n      add\n      dup3\n      mstore\n      dup4\n      dup2\n      mstore\n      0x20\n      dup1\n      dup3\n      add\n      dup5\n      dup2\n      mstore\n      0x00\n      dup4\n      dup6\n      add\n      dup2\n      swap1\n      mstore\n        /* \"LibertyFinancialChain/LiberttFinancial/genesispool.sol\":6813:6817  true */\n      0x01\n        /* \"LibertyFinancialChain/LiberttFinancial/genesispool.sol\":6754:6849  Pool(... */\n      0x60\n      dup6\n      add\n      dup2\n      swap1\n      mstore\n      0x80\n      dup6\n      add\n      dup3\n      swap1\n      mstore\n      0xa0\n      dup6\n      add\n      dup3\n      swap1\n      mstore\n        /* \"LibertyFinancialChain/LiberttFinancial/genesispool.sol\":6738:6751  pools[poolId] */\n      dup8\n      dup3\n      mstore\n        /* \"LibertyFinancialChain/LiberttFinancial/genesispool.sol\":6738:6743  pools */\n      0x10\n        /* \"LibertyFinancialChain/LiberttFinancial/genesispool.sol\":6738:6751  pools[poolId] */\n      swap1\n      swap4\n      mstore\n      swap4\n      swap1\n      swap4\n      keccak256\n        /* \"LibertyFinancialChain/LiberttFinancial/genesispool.sol\":6738:6849  pools[poolId] = Pool(... */\n      dup3\n      mload\n      dup2\n      sstore\n      swap3\n      mload\n        /* \"LibertyFinancialChain/LiberttFinancial/genesispool.sol\":6754:6849  Pool(... */\n      swap2\n      swap3\n        /* \"LibertyFinancialChain/LiberttFinancial/genesispool.sol\":6738:6751  pools[poolId] */\n      swap2\n        /* \"LibertyFinancialChain/LiberttFinancial/genesispool.sol\":6738:6849  pools[poolId] = Pool(... */\n      swap1\n      dup3\n      add\n      swap1\n      tag_526\n      swap1\n      dup3\n      tag_487\n      jump\t// in\n    tag_526:\n      pop\n      0x40\n      dup3\n      add\n      mload\n      0x02\n      dup3\n      add\n      sstore\n      0x60\n      dup3\n      add\n      mload\n      0x03\n      dup3\n      add\n      dup1\n      sload\n      0x80\n      dup6\n      add\n      mload\n      iszero\n      iszero\n      0x0100\n      mul\n      not(0xff00)\n      swap4\n      iszero\n      iszero\n      swap4\n      swap1\n      swap4\n      and\n      not(0xffff)\n      swap1\n      swap2\n      and\n      or\n      swap2\n      swap1\n      swap2\n      or\n      swap1\n      sstore\n      0xa0\n      swap1\n      swap2\n      add\n      mload\n      0x04\n      swap1\n      swap2\n      add\n      sstore\n        /* \"LibertyFinancialChain/LiberttFinancial/genesispool.sol\":6869:6886  lastCreatedPoolId */\n      sload(0x11)\n        /* \"LibertyFinancialChain/LiberttFinancial/genesispool.sol\":6860:6886  poolId > lastCreatedPoolId */\n      dup3\n      gt\n        /* \"LibertyFinancialChain/LiberttFinancial/genesispool.sol\":6856:6931  if (poolId > lastCreatedPoolId) {... */\n      iszero\n      tag_527\n      jumpi\n        /* \"LibertyFinancialChain/LiberttFinancial/genesispool.sol\":6898:6915  lastCreatedPoolId */\n      0x11\n        /* \"LibertyFinancialChain/LiberttFinancial/genesispool.sol\":6898:6924  lastCreatedPoolId = poolId */\n      dup3\n      swap1\n      sstore\n        /* \"LibertyFinancialChain/LiberttFinancial/genesispool.sol\":6856:6931  if (poolId > lastCreatedPoolId) {... */\n    tag_527:\n        /* \"LibertyFinancialChain/LiberttFinancial/genesispool.sol\":6951:6957  poolId */\n      dup2\n        /* \"LibertyFinancialChain/LiberttFinancial/genesispool.sol\":6941:6968  PoolAdded(poolId, poolType) */\n      0x150cb369f834b70a4f343956659b1f84cd37d44352b9a76ff77ac59552ef4aa0\n        /* \"LibertyFinancialChain/LiberttFinancial/genesispool.sol\":6959:6967  poolType */\n      dup3\n        /* \"LibertyFinancialChain/LiberttFinancial/genesispool.sol\":6941:6968  PoolAdded(poolId, poolType) */\n      mload(0x40)\n      tag_528\n      swap2\n      swap1\n      tag_529\n      jump\t// in\n    tag_528:\n      mload(0x40)\n      dup1\n      swap2\n      sub\n      swap1\n      log2\n        /* \"LibertyFinancialChain/LiberttFinancial/genesispool.sol\":6449:6971  function forceCreatePool(uint256 poolId, string memory poolType) external onlyOwner {... */\n      pop\n      pop\n      jump\t// out\n        /* \"LibertyFinancialChain/LiberttFinancial/genesispool.sol\":13552:13929  function withdrawReward() external nonReentrant {... */\n    tag_187:\n        /* \"@openzeppelin/contracts/security/ReentrancyGuard.sol\":2261:2282  _nonReentrantBefore() */\n      tag_531\n        /* \"@openzeppelin/contracts/security/ReentrancyGuard.sol\":2261:2280  _nonReentrantBefore */\n      tag_250\n        /* \"@openzeppelin/contracts/security/ReentrancyGuard.sol\":2261:2282  _nonReentrantBefore() */\n      jump\t// in\n    tag_531:\n        /* \"LibertyFinancialChain/LiberttFinancial/genesispool.sol\":13645:13655  msg.sender */\n      caller\n        /* \"LibertyFinancialChain/LiberttFinancial/genesispool.sol\":13610:13624  uint256 payout */\n      0x00\n        /* \"LibertyFinancialChain/LiberttFinancial/genesispool.sol\":13627:13656  pendingINR1Payout[msg.sender] */\n      swap1\n      dup2\n      mstore\n        /* \"LibertyFinancialChain/LiberttFinancial/genesispool.sol\":13627:13644  pendingINR1Payout */\n      0x15\n        /* \"LibertyFinancialChain/LiberttFinancial/genesispool.sol\":13627:13656  pendingINR1Payout[msg.sender] */\n      0x20\n      mstore\n      0x40\n      swap1\n      keccak256\n      sload\n        /* \"LibertyFinancialChain/LiberttFinancial/genesispool.sol\":13674:13684  payout > 0 */\n      dup1\n        /* \"LibertyFinancialChain/LiberttFinancial/genesispool.sol\":13666:13698  require(payout > 0, \"No payout\") */\n      tag_533\n      jumpi\n      mload(0x40)\n      shl(0xe5, 0x461bcd)\n      dup2\n      mstore\n        /* \"#utility.yul\":24379:24381   */\n      0x20\n        /* \"LibertyFinancialChain/LiberttFinancial/genesispool.sol\":13666:13698  require(payout > 0, \"No payout\") */\n      0x04\n      dup3\n      add\n        /* \"#utility.yul\":24361:24382   */\n      mstore\n        /* \"#utility.yul\":24418:24419   */\n      0x09\n        /* \"#utility.yul\":24398:24416   */\n      0x24\n      dup3\n      add\n        /* \"#utility.yul\":24391:24420   */\n      mstore\n      shl(0xba, 0x139bc81c185e5bdd5d)\n        /* \"#utility.yul\":24436:24454   */\n      0x44\n      dup3\n      add\n        /* \"#utility.yul\":24429:24468   */\n      mstore\n        /* \"#utility.yul\":24485:24503   */\n      0x64\n      add\n        /* \"LibertyFinancialChain/LiberttFinancial/genesispool.sol\":13666:13698  require(payout > 0, \"No payout\") */\n      tag_254\n        /* \"#utility.yul\":24177:24509   */\n      jump\n        /* \"LibertyFinancialChain/LiberttFinancial/genesispool.sol\":13666:13698  require(payout > 0, \"No payout\") */\n    tag_533:\n        /* \"LibertyFinancialChain/LiberttFinancial/genesispool.sol\":13726:13736  msg.sender */\n      caller\n        /* \"LibertyFinancialChain/LiberttFinancial/genesispool.sol\":13740:13741  0 */\n      0x00\n        /* \"LibertyFinancialChain/LiberttFinancial/genesispool.sol\":13708:13737  pendingINR1Payout[msg.sender] */\n      swap1\n      dup2\n      mstore\n        /* \"LibertyFinancialChain/LiberttFinancial/genesispool.sol\":13708:13725  pendingINR1Payout */\n      0x15\n        /* \"LibertyFinancialChain/LiberttFinancial/genesispool.sol\":13708:13737  pendingINR1Payout[msg.sender] */\n      0x20\n      mstore\n      0x40\n      dup1\n      dup3\n      keccak256\n        /* \"LibertyFinancialChain/LiberttFinancial/genesispool.sol\":13708:13741  pendingINR1Payout[msg.sender] = 0 */\n      swap2\n      swap1\n      swap2\n      sstore\n        /* \"LibertyFinancialChain/LiberttFinancial/genesispool.sol\":13759:13763  INR1 */\n      sload(0x09)\n        /* \"LibertyFinancialChain/LiberttFinancial/genesispool.sol\":13759:13788  INR1.balanceOf(address(this)) */\n      swap1\n      mload\n      shl(0xe0, 0x70a08231)\n      dup2\n      mstore\n        /* \"LibertyFinancialChain/LiberttFinancial/genesispool.sol\":13782:13786  this */\n      address\n        /* \"LibertyFinancialChain/LiberttFinancial/genesispool.sol\":13759:13788  INR1.balanceOf(address(this)) */\n      0x04\n      dup3\n      add\n        /* \"#utility.yul\":342:393   */\n      mstore\n        /* \"LibertyFinancialChain/LiberttFinancial/genesispool.sol\":13792:13798  payout */\n      dup3\n      swap2\n      sub(shl(0xa0, 0x01), 0x01)\n        /* \"LibertyFinancialChain/LiberttFinancial/genesispool.sol\":13759:13763  INR1 */\n      and\n      swap1\n        /* \"LibertyFinancialChain/LiberttFinancial/genesispool.sol\":13759:13773  INR1.balanceOf */\n      0x70a08231\n      swap1\n        /* \"#utility.yul\":315:333   */\n      0x24\n      add\n        /* \"LibertyFinancialChain/LiberttFinancial/genesispool.sol\":13759:13788  INR1.balanceOf(address(this)) */\n      0x20\n      mload(0x40)\n      dup1\n      dup4\n      sub\n      dup2\n      dup7\n      gas\n      staticcall\n      iszero\n      dup1\n      iszero\n      tag_538\n      jumpi\n      returndatasize\n      0x00\n      dup1\n      returndatacopy\n      revert(0x00, returndatasize)\n    tag_538:\n      pop\n      pop\n      pop\n      pop\n      mload(0x40)\n      returndatasize\n      not(0x1f)\n      0x1f\n      dup3\n      add\n      and\n      dup3\n      add\n      dup1\n      0x40\n      mstore\n      pop\n      dup2\n      add\n      swap1\n      tag_539\n      swap2\n      swap1\n      tag_261\n      jump\t// in\n    tag_539:\n        /* \"LibertyFinancialChain/LiberttFinancial/genesispool.sol\":13759:13798  INR1.balanceOf(address(this)) >= payout */\n      lt\n      iszero\n        /* \"LibertyFinancialChain/LiberttFinancial/genesispool.sol\":13751:13828  require(INR1.balanceOf(address(this)) >= payout, \"Insufficient INR1 balance\") */\n      tag_540\n      jumpi\n      mload(0x40)\n      shl(0xe5, 0x461bcd)\n      dup2\n      mstore\n        /* \"#utility.yul\":24716:24718   */\n      0x20\n        /* \"LibertyFinancialChain/LiberttFinancial/genesispool.sol\":13751:13828  require(INR1.balanceOf(address(this)) >= payout, \"Insufficient INR1 balance\") */\n      0x04\n      dup3\n      add\n        /* \"#utility.yul\":24698:24719   */\n      mstore\n        /* \"#utility.yul\":24755:24757   */\n      0x19\n        /* \"#utility.yul\":24735:24753   */\n      0x24\n      dup3\n      add\n        /* \"#utility.yul\":24728:24758   */\n      mstore\n        /* \"#utility.yul\":24794:24821   */\n      0x496e73756666696369656e7420494e52312062616c616e636500000000000000\n        /* \"#utility.yul\":24774:24792   */\n      0x44\n      dup3\n      add\n        /* \"#utility.yul\":24767:24822   */\n      mstore\n        /* \"#utility.yul\":24839:24857   */\n      0x64\n      add\n        /* \"LibertyFinancialChain/LiberttFinancial/genesispool.sol\":13751:13828  require(INR1.balanceOf(address(this)) >= payout, \"Insufficient INR1 balance\") */\n      tag_254\n        /* \"#utility.yul\":24514:24863   */\n      jump\n        /* \"LibertyFinancialChain/LiberttFinancial/genesispool.sol\":13751:13828  require(INR1.balanceOf(address(this)) >= payout, \"Insufficient INR1 balance\") */\n    tag_540:\n        /* \"LibertyFinancialChain/LiberttFinancial/genesispool.sol\":13838:13842  INR1 */\n      sload(0x09)\n        /* \"LibertyFinancialChain/LiberttFinancial/genesispool.sol\":13838:13875  INR1.safeTransfer(msg.sender, payout) */\n      tag_543\n      swap1\n      sub(shl(0xa0, 0x01), 0x01)\n        /* \"LibertyFinancialChain/LiberttFinancial/genesispool.sol\":13838:13842  INR1 */\n      and\n        /* \"LibertyFinancialChain/LiberttFinancial/genesispool.sol\":13856:13866  msg.sender */\n      caller\n        /* \"LibertyFinancialChain/LiberttFinancial/genesispool.sol\":13868:13874  payout */\n      dup4\n        /* \"LibertyFinancialChain/LiberttFinancial/genesispool.sol\":13838:13855  INR1.safeTransfer */\n      tag_266\n        /* \"LibertyFinancialChain/LiberttFinancial/genesispool.sol\":13838:13875  INR1.safeTransfer(msg.sender, payout) */\n      jump\t// in\n    tag_543:\n        /* \"LibertyFinancialChain/LiberttFinancial/genesispool.sol\":13890:13922  PoolStatus(msg.sender, 0, false) */\n      0x40\n      dup1\n      mload\n        /* \"LibertyFinancialChain/LiberttFinancial/genesispool.sol\":13913:13914  0 */\n      0x00\n        /* \"#utility.yul\":15250:15275   */\n      dup1\n      dup3\n      mstore\n        /* \"#utility.yul\":15306:15308   */\n      0x20\n        /* \"#utility.yul\":15291:15309   */\n      dup3\n      add\n        /* \"#utility.yul\":15284:15334   */\n      mstore\n        /* \"LibertyFinancialChain/LiberttFinancial/genesispool.sol\":13901:13911  msg.sender */\n      caller\n      swap2\n        /* \"LibertyFinancialChain/LiberttFinancial/genesispool.sol\":13890:13922  PoolStatus(msg.sender, 0, false) */\n      0x3dd4fda5ffeb4c7e45847fa82b4227a234840395a1170e170bba47db13fbfff8\n      swap2\n        /* \"#utility.yul\":15223:15241   */\n      add\n        /* \"LibertyFinancialChain/LiberttFinancial/genesispool.sol\":13890:13922  PoolStatus(msg.sender, 0, false) */\n      mload(0x40)\n      dup1\n      swap2\n      sub\n      swap1\n      log2\n        /* \"LibertyFinancialChain/LiberttFinancial/genesispool.sol\":13600:13929  {... */\n      pop\n        /* \"@openzeppelin/contracts/security/ReentrancyGuard.sol\":2303:2323  _nonReentrantAfter() */\n      tag_272\n        /* \"@openzeppelin/contracts/security/ReentrancyGuard.sol\":1716:1717  1 */\n      0x01\n        /* \"@openzeppelin/contracts/security/ReentrancyGuard.sol\":2809:2831  _status = _NOT_ENTERED */\n      dup1\n      sstore\n        /* \"@openzeppelin/contracts/security/ReentrancyGuard.sol\":2629:2838  function _nonReentrantAfter() private {... */\n      jump\n        /* \"LibertyFinancialChain/LiberttFinancial/genesispool.sol\":14646:14945  function adminWithdrawOperational(uint256 amount) external onlyOwner {... */\n    tag_196:\n        /* \"@openzeppelin/contracts/access/Ownable.sol\":1531:1544  _checkOwner() */\n      tag_548\n        /* \"@openzeppelin/contracts/access/Ownable.sol\":1531:1542  _checkOwner */\n      tag_276\n        /* \"@openzeppelin/contracts/access/Ownable.sol\":1531:1544  _checkOwner() */\n      jump\t// in\n    tag_548:\n        /* \"LibertyFinancialChain/LiberttFinancial/genesispool.sol\":14743:14762  operationalTreasury */\n      sload(0x19)\n        /* \"LibertyFinancialChain/LiberttFinancial/genesispool.sol\":14733:14739  amount */\n      dup2\n        /* \"LibertyFinancialChain/LiberttFinancial/genesispool.sol\":14733:14762  amount <= operationalTreasury */\n      gt\n      iszero\n        /* \"LibertyFinancialChain/LiberttFinancial/genesispool.sol\":14725:14798  require(amount <= operationalTreasury, \"Not enough operational treasury\") */\n      tag_550\n      jumpi\n      mload(0x40)\n      shl(0xe5, 0x461bcd)\n      dup2\n      mstore\n        /* \"#utility.yul\":25341:25343   */\n      0x20\n        /* \"LibertyFinancialChain/LiberttFinancial/genesispool.sol\":14725:14798  require(amount <= operationalTreasury, \"Not enough operational treasury\") */\n      0x04\n      dup3\n      add\n        /* \"#utility.yul\":25323:25344   */\n      mstore\n        /* \"#utility.yul\":25380:25382   */\n      0x1f\n        /* \"#utility.yul\":25360:25378   */\n      0x24\n      dup3\n      add\n        /* \"#utility.yul\":25353:25383   */\n      mstore\n        /* \"#utility.yul\":25419:25452   */\n      0x4e6f7420656e6f756768206f7065726174696f6e616c20747265617375727900\n        /* \"#utility.yul\":25399:25417   */\n      0x44\n      dup3\n      add\n        /* \"#utility.yul\":25392:25453   */\n      mstore\n        /* \"#utility.yul\":25470:25488   */\n      0x64\n      add\n        /* \"LibertyFinancialChain/LiberttFinancial/genesispool.sol\":14725:14798  require(amount <= operationalTreasury, \"Not enough operational treasury\") */\n      tag_254\n        /* \"#utility.yul\":25139:25494   */\n      jump\n        /* \"LibertyFinancialChain/LiberttFinancial/genesispool.sol\":14725:14798  require(amount <= operationalTreasury, \"Not enough operational treasury\") */\n    tag_550:\n        /* \"LibertyFinancialChain/LiberttFinancial/genesispool.sol\":14831:14837  amount */\n      dup1\n        /* \"LibertyFinancialChain/LiberttFinancial/genesispool.sol\":14808:14827  operationalTreasury */\n      0x19\n      0x00\n        /* \"LibertyFinancialChain/LiberttFinancial/genesispool.sol\":14808:14837  operationalTreasury -= amount */\n      dup3\n      dup3\n      sload\n      tag_553\n      swap2\n      swap1\n      tag_236\n      jump\t// in\n    tag_553:\n      swap1\n      swap2\n      sstore\n      pop\n      pop\n        /* \"LibertyFinancialChain/LiberttFinancial/genesispool.sol\":14847:14851  INR1 */\n      sload(0x09)\n        /* \"LibertyFinancialChain/LiberttFinancial/genesispool.sol\":14847:14884  INR1.safeTransfer(msg.sender, amount) */\n      tag_554\n      swap1\n      sub(shl(0xa0, 0x01), 0x01)\n        /* \"LibertyFinancialChain/LiberttFinancial/genesispool.sol\":14847:14851  INR1 */\n      and\n        /* \"LibertyFinancialChain/LiberttFinancial/genesispool.sol\":14865:14875  msg.sender */\n      caller\n        /* \"LibertyFinancialChain/LiberttFinancial/genesispool.sol\":14877:14883  amount */\n      dup4\n        /* \"LibertyFinancialChain/LiberttFinancial/genesispool.sol\":14847:14864  INR1.safeTransfer */\n      tag_266\n        /* \"LibertyFinancialChain/LiberttFinancial/genesispool.sol\":14847:14884  INR1.safeTransfer(msg.sender, amount) */\n      jump\t// in\n    tag_554:\n        /* \"LibertyFinancialChain/LiberttFinancial/genesispool.sol\":14899:14938  TreasuryWithdraw(\"Operational\", amount) */\n      0x40\n      dup1\n      mload\n        /* \"#utility.yul\":25711:25732   */\n      dup2\n      dup2\n      mstore\n        /* \"#utility.yul\":25768:25770   */\n      0x0b\n        /* \"#utility.yul\":25748:25766   */\n      swap2\n      dup2\n      add\n        /* \"#utility.yul\":25741:25771   */\n      swap2\n      swap1\n      swap2\n      mstore\n      shl(0xaa, 0x13dc195c985d1a5bdb985b)\n        /* \"#utility.yul\":25802:25804   */\n      0x60\n        /* \"#utility.yul\":25787:25805   */\n      dup3\n      add\n        /* \"#utility.yul\":25780:25821   */\n      mstore\n        /* \"#utility.yul\":25888:25892   */\n      0x20\n        /* \"#utility.yul\":25873:25893   */\n      dup2\n      add\n        /* \"#utility.yul\":25866:25902   */\n      dup3\n      swap1\n      mstore\n        /* \"LibertyFinancialChain/LiberttFinancial/genesispool.sol\":14899:14938  TreasuryWithdraw(\"Operational\", amount) */\n      0x32f91af51d2a8bbeb2808ffa648f1c5072f1c1ccdb64b39d003f051b496cc984\n      swap1\n        /* \"#utility.yul\":25853:25856   */\n      0x80\n        /* \"#utility.yul\":25838:25857   */\n      add\n        /* \"LibertyFinancialChain/LiberttFinancial/genesispool.sol\":14899:14938  TreasuryWithdraw(\"Operational\", amount) */\n      tag_285\n        /* \"#utility.yul\":25499:25908   */\n      jump\n        /* \"@openzeppelin/contracts/access/Ownable.sol\":2543:2758  function transferOwnership(address newOwner) public virtual onlyOwner {... */\n    tag_213:\n        /* \"@openzeppelin/contracts/access/Ownable.sol\":1531:1544  _checkOwner() */\n      tag_559\n        /* \"@openzeppelin/contracts/access/Ownable.sol\":1531:1542  _checkOwner */\n      tag_276\n        /* \"@openzeppelin/contracts/access/Ownable.sol\":1531:1544  _checkOwner() */\n      jump\t// in\n    tag_559:\n      sub(shl(0xa0, 0x01), 0x01)\n        /* \"@openzeppelin/contracts/access/Ownable.sol\":2627:2649  newOwner == address(0) */\n      dup2\n      and\n        /* \"@openzeppelin/contracts/access/Ownable.sol\":2623:2714  if (newOwner == address(0)) {... */\n      tag_561\n      jumpi\n        /* \"@openzeppelin/contracts/access/Ownable.sol\":2672:2703  OwnableInvalidOwner(address(0)) */\n      mload(0x40)\n      shl(0xe0, 0x1e4fbdf7)\n      dup2\n      mstore\n        /* \"@openzeppelin/contracts/access/Ownable.sol\":2700:2701  0 */\n      0x00\n        /* \"@openzeppelin/contracts/access/Ownable.sol\":2672:2703  OwnableInvalidOwner(address(0)) */\n      0x04\n      dup3\n      add\n        /* \"#utility.yul\":342:393   */\n      mstore\n        /* \"#utility.yul\":315:333   */\n      0x24\n      add\n        /* \"@openzeppelin/contracts/access/Ownable.sol\":2672:2703  OwnableInvalidOwner(address(0)) */\n      tag_254\n        /* \"#utility.yul\":196:399   */\n      jump\n        /* \"@openzeppelin/contracts/access/Ownable.sol\":2623:2714  if (newOwner == address(0)) {... */\n    tag_561:\n        /* \"@openzeppelin/contracts/access/Ownable.sol\":2723:2751  _transferOwnership(newOwner) */\n      tag_424\n        /* \"@openzeppelin/contracts/access/Ownable.sol\":2742:2750  newOwner */\n      dup2\n        /* \"@openzeppelin/contracts/access/Ownable.sol\":2723:2741  _transferOwnership */\n      tag_354\n        /* \"@openzeppelin/contracts/access/Ownable.sol\":2723:2751  _transferOwnership(newOwner) */\n      jump\t// in\n        /* \"@openzeppelin/contracts/security/ReentrancyGuard.sol\":2336:2623  function _nonReentrantBefore() private {... */\n    tag_250:\n        /* \"@openzeppelin/contracts/security/ReentrancyGuard.sol\":1759:1760  2 */\n      0x02\n        /* \"@openzeppelin/contracts/security/ReentrancyGuard.sol\":2468:2475  _status */\n      sload(0x01)\n        /* \"@openzeppelin/contracts/security/ReentrancyGuard.sol\":2468:2487  _status != _ENTERED */\n      sub\n        /* \"@openzeppelin/contracts/security/ReentrancyGuard.sol\":2460:2523  require(_status != _ENTERED, \"ReentrancyGuard: reentrant call\") */\n      tag_565\n      jumpi\n      mload(0x40)\n      shl(0xe5, 0x461bcd)\n      dup2\n      mstore\n        /* \"#utility.yul\":26115:26117   */\n      0x20\n        /* \"@openzeppelin/contracts/security/ReentrancyGuard.sol\":2460:2523  require(_status != _ENTERED, \"ReentrancyGuard: reentrant call\") */\n      0x04\n      dup3\n      add\n        /* \"#utility.yul\":26097:26118   */\n      mstore\n        /* \"#utility.yul\":26154:26156   */\n      0x1f\n        /* \"#utility.yul\":26134:26152   */\n      0x24\n      dup3\n      add\n        /* \"#utility.yul\":26127:26157   */\n      mstore\n        /* \"#utility.yul\":26193:26226   */\n      0x5265656e7472616e637947756172643a207265656e7472616e742063616c6c00\n        /* \"#utility.yul\":26173:26191   */\n      0x44\n      dup3\n      add\n        /* \"#utility.yul\":26166:26227   */\n      mstore\n        /* \"#utility.yul\":26244:26262   */\n      0x64\n      add\n        /* \"@openzeppelin/contracts/security/ReentrancyGuard.sol\":2460:2523  require(_status != _ENTERED, \"ReentrancyGuard: reentrant call\") */\n      tag_254\n        /* \"#utility.yul\":25913:26268   */\n      jump\n        /* \"@openzeppelin/contracts/security/ReentrancyGuard.sol\":2460:2523  require(_status != _ENTERED, \"ReentrancyGuard: reentrant call\") */\n    tag_565:\n        /* \"@openzeppelin/contracts/security/ReentrancyGuard.sol\":1759:1760  2 */\n      0x02\n        /* \"@openzeppelin/contracts/security/ReentrancyGuard.sol\":2598:2605  _status */\n      0x01\n        /* \"@openzeppelin/contracts/security/ReentrancyGuard.sol\":2598:2616  _status = _ENTERED */\n      sstore\n        /* \"@openzeppelin/contracts/security/ReentrancyGuard.sol\":2336:2623  function _nonReentrantBefore() private {... */\n      jump\t// out\n        /* \"@openzeppelin/contracts/token/ERC20/utils/SafeERC20.sol\":1219:1379  function safeTransfer(IERC20 token, address to, uint256 value) internal {... */\n    tag_266:\n        /* \"@openzeppelin/contracts/token/ERC20/utils/SafeERC20.sol\":1328:1371  abi.encodeCall(token.transfer, (to, value)) */\n      mload(0x40)\n      sub(shl(0xa0, 0x01), 0x01)\n        /* \"#utility.yul\":26465:26497   */\n      dup4\n      dup2\n      and\n        /* \"@openzeppelin/contracts/token/ERC20/utils/SafeERC20.sol\":1328:1371  abi.encodeCall(token.transfer, (to, value)) */\n      0x24\n      dup4\n      add\n        /* \"#utility.yul\":26447:26498   */\n      mstore\n        /* \"#utility.yul\":26514:26532   */\n      0x44\n      dup3\n      add\n        /* \"#utility.yul\":26507:26541   */\n      dup4\n      swap1\n      mstore\n        /* \"@openzeppelin/contracts/token/ERC20/utils/SafeERC20.sol\":1301:1372  _callOptionalReturn(token, abi.encodeCall(token.transfer, (to, value))) */\n      tag_324\n      swap2\n        /* \"@openzeppelin/contracts/token/ERC20/utils/SafeERC20.sol\":1321:1326  token */\n      dup6\n      swap2\n        /* \"@openzeppelin/contracts/token/ERC20/utils/SafeERC20.sol\":1343:1357  token.transfer */\n      dup3\n      and\n      swap1\n      0xa9059cbb\n      swap1\n        /* \"#utility.yul\":26420:26438   */\n      0x64\n      add\n        /* \"@openzeppelin/contracts/token/ERC20/utils/SafeERC20.sol\":1328:1371  abi.encodeCall(token.transfer, (to, value)) */\n    tag_570:\n      mload(0x40)\n      0x20\n      dup2\n      dup4\n      sub\n      sub\n      dup2\n      mstore\n      swap1\n      0x40\n      mstore\n      swap2\n      pop\n      0xe0\n      shl\n      0x20\n      dup3\n      add\n      dup1\n      mload\n      sub(shl(0xe0, 0x01), 0x01)\n      dup4\n      dup2\n      dup4\n      and\n      or\n      dup4\n      mstore\n      pop\n      pop\n      pop\n      pop\n        /* \"@openzeppelin/contracts/token/ERC20/utils/SafeERC20.sol\":1301:1320  _callOptionalReturn */\n      tag_572\n        /* \"@openzeppelin/contracts/token/ERC20/utils/SafeERC20.sol\":1301:1372  _callOptionalReturn(token, abi.encodeCall(token.transfer, (to, value))) */\n      jump\t// in\n        /* \"@openzeppelin/contracts/access/Ownable.sol\":1796:1958  function _checkOwner() internal view virtual {... */\n    tag_276:\n        /* \"@openzeppelin/contracts/access/Ownable.sol\":1684:1691  address */\n      0x00\n        /* \"@openzeppelin/contracts/access/Ownable.sol\":1710:1716  _owner */\n      sload\n      sub(shl(0xa0, 0x01), 0x01)\n      and\n        /* \"@openzeppelin/contracts/utils/Context.sol\":735:745  msg.sender */\n      caller\n        /* \"@openzeppelin/contracts/access/Ownable.sol\":1855:1878  owner() != _msgSender() */\n      eq\n        /* \"@openzeppelin/contracts/access/Ownable.sol\":1851:1952  if (owner() != _msgSender()) {... */\n      tag_272\n      jumpi\n        /* \"@openzeppelin/contracts/access/Ownable.sol\":1901:1941  OwnableUnauthorizedAccount(_msgSender()) */\n      mload(0x40)\n      shl(0xe0, 0x118cdaa7)\n      dup2\n      mstore\n        /* \"@openzeppelin/contracts/utils/Context.sol\":735:745  msg.sender */\n      caller\n        /* \"@openzeppelin/contracts/access/Ownable.sol\":1901:1941  OwnableUnauthorizedAccount(_msgSender()) */\n      0x04\n      dup3\n      add\n        /* \"#utility.yul\":342:393   */\n      mstore\n        /* \"#utility.yul\":315:333   */\n      0x24\n      add\n        /* \"@openzeppelin/contracts/access/Ownable.sol\":1901:1941  OwnableUnauthorizedAccount(_msgSender()) */\n      tag_254\n        /* \"#utility.yul\":196:399   */\n      jump\n        /* \"@openzeppelin/contracts/access/Ownable.sol\":2912:3099  function _transferOwnership(address newOwner) internal virtual {... */\n    tag_354:\n        /* \"@openzeppelin/contracts/access/Ownable.sol\":2985:3001  address oldOwner */\n      0x00\n        /* \"@openzeppelin/contracts/access/Ownable.sol\":3004:3010  _owner */\n      dup1\n      sload\n      sub(shl(0xa0, 0x01), 0x01)\n        /* \"@openzeppelin/contracts/access/Ownable.sol\":3020:3037  _owner = newOwner */\n      dup4\n      dup2\n      and\n      not(sub(shl(0xa0, 0x01), 0x01))\n      dup4\n      and\n      dup2\n      or\n      dup5\n      sstore\n        /* \"@openzeppelin/contracts/access/Ownable.sol\":3052:3092  OwnershipTransferred(oldOwner, newOwner) */\n      mload(0x40)\n        /* \"@openzeppelin/contracts/access/Ownable.sol\":3004:3010  _owner */\n      swap2\n      swap1\n      swap3\n      and\n      swap3\n      dup4\n      swap2\n        /* \"@openzeppelin/contracts/access/Ownable.sol\":3052:3092  OwnershipTransferred(oldOwner, newOwner) */\n      0x8be0079c531659141344cd1fd0a4f28419497f9722a3daafe3b4186f6b6457e0\n      swap2\n        /* \"@openzeppelin/contracts/access/Ownable.sol\":2985:3001  address oldOwner */\n      swap1\n        /* \"@openzeppelin/contracts/access/Ownable.sol\":3052:3092  OwnershipTransferred(oldOwner, newOwner) */\n      log3\n        /* \"@openzeppelin/contracts/access/Ownable.sol\":2975:3099  {... */\n      pop\n        /* \"@openzeppelin/contracts/access/Ownable.sol\":2912:3099  function _transferOwnership(address newOwner) internal virtual {... */\n      pop\n      jump\t// out\n        /* \"@openzeppelin/contracts/token/ERC20/utils/SafeERC20.sol\":1618:1806  function safeTransferFrom(IERC20 token, address from, address to, uint256 value) internal {... */\n    tag_455:\n        /* \"@openzeppelin/contracts/token/ERC20/utils/SafeERC20.sol\":1745:1798  abi.encodeCall(token.transferFrom, (from, to, value)) */\n      mload(0x40)\n      sub(shl(0xa0, 0x01), 0x01)\n        /* \"#utility.yul\":26810:26825   */\n      dup5\n      dup2\n      and\n        /* \"@openzeppelin/contracts/token/ERC20/utils/SafeERC20.sol\":1745:1798  abi.encodeCall(token.transferFrom, (from, to, value)) */\n      0x24\n      dup4\n      add\n        /* \"#utility.yul\":26792:26826   */\n      mstore\n        /* \"#utility.yul\":26862:26877   */\n      dup4\n      dup2\n      and\n        /* \"#utility.yul\":26842:26860   */\n      0x44\n      dup4\n      add\n        /* \"#utility.yul\":26835:26878   */\n      mstore\n        /* \"#utility.yul\":26894:26912   */\n      0x64\n      dup3\n      add\n        /* \"#utility.yul\":26887:26921   */\n      dup4\n      swap1\n      mstore\n        /* \"@openzeppelin/contracts/token/ERC20/utils/SafeERC20.sol\":1718:1799  _callOptionalReturn(token, abi.encodeCall(token.transferFrom, (from, to, value))) */\n      tag_583\n      swap2\n        /* \"@openzeppelin/contracts/token/ERC20/utils/SafeERC20.sol\":1738:1743  token */\n      dup7\n      swap2\n        /* \"@openzeppelin/contracts/token/ERC20/utils/SafeERC20.sol\":1760:1778  token.transferFrom */\n      dup3\n      and\n      swap1\n      0x23b872dd\n      swap1\n        /* \"#utility.yul\":26727:26745   */\n      0x84\n      add\n        /* \"@openzeppelin/contracts/token/ERC20/utils/SafeERC20.sol\":1745:1798  abi.encodeCall(token.transferFrom, (from, to, value)) */\n      tag_570\n        /* \"#utility.yul\":26552:26927   */\n      jump\n        /* \"@openzeppelin/contracts/token/ERC20/utils/SafeERC20.sol\":1718:1799  _callOptionalReturn(token, abi.encodeCall(token.transferFrom, (from, to, value))) */\n    tag_583:\n        /* \"@openzeppelin/contracts/token/ERC20/utils/SafeERC20.sol\":1618:1806  function safeTransferFrom(IERC20 token, address from, address to, uint256 value) internal {... */\n      pop\n      pop\n      pop\n      pop\n      jump\t// out\n        /* \"LibertyFinancialChain/LiberttFinancial/genesispool.sol\":10531:11187  function _distributeReferralRewards(address user, uint256 amount) internal {... */\n    tag_499:\n        /* \"LibertyFinancialChain/LiberttFinancial/genesispool.sol\":10621:10628  uint8 i */\n      0x00\n        /* \"LibertyFinancialChain/LiberttFinancial/genesispool.sol\":10616:11181  for (uint8 i = 0; i < REFERRAL_LEVELS; i++) {... */\n    tag_587:\n        /* \"LibertyFinancialChain/LiberttFinancial/genesispool.sol\":550:551  7 */\n      0x07\n        /* \"LibertyFinancialChain/LiberttFinancial/genesispool.sol\":10634:10653  i < REFERRAL_LEVELS */\n      0xff\n      dup3\n      and\n      lt\n        /* \"LibertyFinancialChain/LiberttFinancial/genesispool.sol\":10616:11181  for (uint8 i = 0; i < REFERRAL_LEVELS; i++) {... */\n      iszero\n      tag_324\n      jumpi\n      sub(shl(0xa0, 0x01), 0x01)\n        /* \"LibertyFinancialChain/LiberttFinancial/genesispool.sol\":10691:10702  users[user] */\n      dup4\n      and\n        /* \"LibertyFinancialChain/LiberttFinancial/genesispool.sol\":10674:10688  address upline */\n      0x00\n        /* \"LibertyFinancialChain/LiberttFinancial/genesispool.sol\":10691:10702  users[user] */\n      swap1\n      dup2\n      mstore\n        /* \"LibertyFinancialChain/LiberttFinancial/genesispool.sol\":10691:10696  users */\n      0x14\n        /* \"LibertyFinancialChain/LiberttFinancial/genesispool.sol\":10691:10702  users[user] */\n      0x20\n      mstore\n      0x40\n      dup2\n      keccak256\n        /* \"LibertyFinancialChain/LiberttFinancial/genesispool.sol\":10691:10710  users[user].uplines */\n      0x01\n      add\n        /* \"LibertyFinancialChain/LiberttFinancial/genesispool.sol\":10691:10713  users[user].uplines[i] */\n      0xff\n      dup4\n      and\n      0x07\n      dup2\n      lt\n      tag_591\n      jumpi\n      tag_591\n      tag_304\n      jump\t// in\n    tag_591:\n      add\n      sload\n      sub(shl(0xa0, 0x01), 0x01)\n      and\n      swap1\n      pop\n      dup1\n        /* \"LibertyFinancialChain/LiberttFinancial/genesispool.sol\":10727:10758  if (upline == address(0)) break */\n      tag_593\n      jumpi\n        /* \"LibertyFinancialChain/LiberttFinancial/genesispool.sol\":10753:10758  break */\n      pop\n        /* \"LibertyFinancialChain/LiberttFinancial/genesispool.sol\":6240:6436  for (uint8 i = 0; i < REFERRAL_LEVELS; i++) {... */\n      pop\n        /* \"LibertyFinancialChain/LiberttFinancial/genesispool.sol\":5656:6442  {... */\n      pop\n        /* \"LibertyFinancialChain/LiberttFinancial/genesispool.sol\":5611:6442  function register(address referrer) external {... */\n      pop\n      jump\t// out\n        /* \"LibertyFinancialChain/LiberttFinancial/genesispool.sol\":10727:10758  if (upline == address(0)) break */\n    tag_593:\n        /* \"LibertyFinancialChain/LiberttFinancial/genesispool.sol\":10772:10786  uint256 reward */\n      0x00\n        /* \"LibertyFinancialChain/LiberttFinancial/genesispool.sol\":10823:10828  10000 */\n      0x2710\n        /* \"LibertyFinancialChain/LiberttFinancial/genesispool.sol\":10799:10816  REFERRAL_PERCENTS */\n      0x02\n        /* \"LibertyFinancialChain/LiberttFinancial/genesispool.sol\":10817:10818  i */\n      dup5\n        /* \"LibertyFinancialChain/LiberttFinancial/genesispool.sol\":10799:10819  REFERRAL_PERCENTS[i] */\n      0xff\n      and\n      0x07\n      dup2\n      lt\n      tag_595\n      jumpi\n      tag_595\n      tag_304\n      jump\t// in\n    tag_595:\n      add\n      sload\n        /* \"LibertyFinancialChain/LiberttFinancial/genesispool.sol\":10790:10819  amount * REFERRAL_PERCENTS[i] */\n      tag_597\n      swap1\n        /* \"LibertyFinancialChain/LiberttFinancial/genesispool.sol\":10790:10796  amount */\n      dup7\n        /* \"LibertyFinancialChain/LiberttFinancial/genesispool.sol\":10790:10819  amount * REFERRAL_PERCENTS[i] */\n      tag_234\n      jump\t// in\n    tag_597:\n        /* \"LibertyFinancialChain/LiberttFinancial/genesispool.sol\":10789:10828  (amount * REFERRAL_PERCENTS[i]) / 10000 */\n      tag_598\n      swap2\n      swap1\n      tag_397\n      jump\t// in\n    tag_598:\n      sub(shl(0xa0, 0x01), 0x01)\n        /* \"LibertyFinancialChain/LiberttFinancial/genesispool.sol\":10842:10855  users[upline] */\n      dup4\n      and\n      0x00\n      swap1\n      dup2\n      mstore\n        /* \"LibertyFinancialChain/LiberttFinancial/genesispool.sol\":10842:10847  users */\n      0x14\n        /* \"LibertyFinancialChain/LiberttFinancial/genesispool.sol\":10842:10855  users[upline] */\n      0x20\n      mstore\n      0x40\n      dup2\n      keccak256\n        /* \"LibertyFinancialChain/LiberttFinancial/genesispool.sol\":10842:10875  users[upline].referralRewardTotal */\n      0x0a\n      add\n        /* \"LibertyFinancialChain/LiberttFinancial/genesispool.sol\":10842:10885  users[upline].referralRewardTotal += reward */\n      dup1\n      sload\n        /* \"LibertyFinancialChain/LiberttFinancial/genesispool.sol\":10772:10828  uint256 reward = (amount * REFERRAL_PERCENTS[i]) / 10000 */\n      swap3\n      swap4\n      pop\n      dup4\n      swap3\n        /* \"LibertyFinancialChain/LiberttFinancial/genesispool.sol\":10842:10875  users[upline].referralRewardTotal */\n      swap1\n      swap2\n        /* \"LibertyFinancialChain/LiberttFinancial/genesispool.sol\":10842:10855  users[upline] */\n      swap1\n        /* \"LibertyFinancialChain/LiberttFinancial/genesispool.sol\":10842:10885  users[upline].referralRewardTotal += reward */\n      tag_599\n      swap1\n        /* \"LibertyFinancialChain/LiberttFinancial/genesispool.sol\":10772:10828  uint256 reward = (amount * REFERRAL_PERCENTS[i]) / 10000 */\n      dup5\n      swap1\n        /* \"LibertyFinancialChain/LiberttFinancial/genesispool.sol\":10842:10885  users[upline].referralRewardTotal += reward */\n      tag_223\n      jump\t// in\n    tag_599:\n      swap1\n      swap2\n      sstore\n      pop\n      pop\n      sub(shl(0xa0, 0x01), 0x01)\n        /* \"LibertyFinancialChain/LiberttFinancial/genesispool.sol\":10904:11170  ReferralStatus(... */\n      dup3\n      and\n        /* \"LibertyFinancialChain/LiberttFinancial/genesispool.sol\":10960:10973  users[upline] */\n      0x00\n      dup2\n      dup2\n      mstore\n        /* \"LibertyFinancialChain/LiberttFinancial/genesispool.sol\":10960:10965  users */\n      0x14\n        /* \"LibertyFinancialChain/LiberttFinancial/genesispool.sol\":10960:10973  users[upline] */\n      0x20\n      mstore\n      0x40\n      swap1\n      keccak256\n        /* \"LibertyFinancialChain/LiberttFinancial/genesispool.sol\":10960:10993  users[upline].referralRewardTotal */\n      0x0a\n      add\n      sload\n        /* \"LibertyFinancialChain/LiberttFinancial/genesispool.sol\":10904:11170  ReferralStatus(... */\n      0xdd8025b728f6881d55401ec3c5f58bac7e135a199306892b83593f9bf4bfe23a\n      swap1\n        /* \"LibertyFinancialChain/LiberttFinancial/genesispool.sol\":11011:11039  getClaimableReferral(upline) */\n      tag_600\n        /* \"LibertyFinancialChain/LiberttFinancial/genesispool.sol\":10936:10942  upline */\n      dup6\n        /* \"LibertyFinancialChain/LiberttFinancial/genesispool.sol\":11011:11031  getClaimableReferral */\n      tag_74\n        /* \"LibertyFinancialChain/LiberttFinancial/genesispool.sol\":11011:11039  getClaimableReferral(upline) */\n      jump\t// in\n    tag_600:\n      sub(shl(0xa0, 0x01), 0x01)\n        /* \"LibertyFinancialChain/LiberttFinancial/genesispool.sol\":11057:11070  users[upline] */\n      dup7\n      and\n      0x00\n      swap1\n      dup2\n      mstore\n        /* \"LibertyFinancialChain/LiberttFinancial/genesispool.sol\":11057:11062  users */\n      0x14\n        /* \"LibertyFinancialChain/LiberttFinancial/genesispool.sol\":11057:11070  users[upline] */\n      0x20\n      mstore\n      0x40\n      swap1\n      keccak256\n        /* \"LibertyFinancialChain/LiberttFinancial/genesispool.sol\":11057:11088  users[upline].referralWithdrawn */\n      0x0b\n      dup2\n      add\n      sload\n        /* \"LibertyFinancialChain/LiberttFinancial/genesispool.sol\":11106:11128  users[upline].invested */\n      0x09\n      swap1\n      swap2\n      add\n      sload\n        /* \"LibertyFinancialChain/LiberttFinancial/genesispool.sol\":11106:11156  users[upline].invested * WITHDRAWAL_CAP_MULTIPLIER */\n      tag_601\n      swap1\n        /* \"LibertyFinancialChain/LiberttFinancial/genesispool.sol\":707:708  3 */\n      0x03\n      swap1\n        /* \"LibertyFinancialChain/LiberttFinancial/genesispool.sol\":11106:11156  users[upline].invested * WITHDRAWAL_CAP_MULTIPLIER */\n      tag_234\n      jump\t// in\n    tag_601:\n        /* \"LibertyFinancialChain/LiberttFinancial/genesispool.sol\":10904:11170  ReferralStatus(... */\n      0x40\n      dup1\n      mload\n        /* \"#utility.yul\":9078:9103   */\n      swap5\n      dup6\n      mstore\n        /* \"#utility.yul\":9134:9136   */\n      0x20\n        /* \"#utility.yul\":9119:9137   */\n      dup6\n      add\n        /* \"#utility.yul\":9112:9146   */\n      swap4\n      swap1\n      swap4\n      mstore\n        /* \"#utility.yul\":9162:9180   */\n      swap2\n      dup4\n      add\n        /* \"#utility.yul\":9155:9189   */\n      mstore\n        /* \"#utility.yul\":9220:9222   */\n      0x60\n        /* \"#utility.yul\":9205:9223   */\n      dup3\n      add\n        /* \"#utility.yul\":9198:9232   */\n      mstore\n        /* \"#utility.yul\":9065:9068   */\n      0x80\n        /* \"#utility.yul\":9050:9069   */\n      add\n        /* \"LibertyFinancialChain/LiberttFinancial/genesispool.sol\":10904:11170  ReferralStatus(... */\n      mload(0x40)\n      dup1\n      swap2\n      sub\n      swap1\n      log2\n        /* \"LibertyFinancialChain/LiberttFinancial/genesispool.sol\":10660:11181  {... */\n      pop\n      pop\n        /* \"LibertyFinancialChain/LiberttFinancial/genesispool.sol\":10655:10658  i++ */\n      dup1\n      dup1\n      tag_603\n      swap1\n      tag_308\n      jump\t// in\n    tag_603:\n      swap2\n      pop\n      pop\n        /* \"LibertyFinancialChain/LiberttFinancial/genesispool.sol\":10616:11181  for (uint8 i = 0; i < REFERRAL_LEVELS; i++) {... */\n      jump(tag_587)\n        /* \"@openzeppelin/contracts/token/ERC20/utils/SafeERC20.sol\":8370:9090  function _callOptionalReturn(IERC20 token, bytes memory data) private {... */\n    tag_572:\n        /* \"@openzeppelin/contracts/token/ERC20/utils/SafeERC20.sol\":8450:8468  uint256 returnSize */\n      0x00\n        /* \"@openzeppelin/contracts/token/ERC20/utils/SafeERC20.sol\":8478:8497  uint256 returnValue */\n      dup1\n        /* \"@openzeppelin/contracts/token/ERC20/utils/SafeERC20.sol\":8616:8620  0x20 */\n      0x20\n        /* \"@openzeppelin/contracts/token/ERC20/utils/SafeERC20.sol\":8613:8614  0 */\n      0x00\n        /* \"@openzeppelin/contracts/token/ERC20/utils/SafeERC20.sol\":8606:8610  data */\n      dup5\n        /* \"@openzeppelin/contracts/token/ERC20/utils/SafeERC20.sol\":8600:8611  mload(data) */\n      mload\n        /* \"@openzeppelin/contracts/token/ERC20/utils/SafeERC20.sol\":8593:8597  0x20 */\n      0x20\n        /* \"@openzeppelin/contracts/token/ERC20/utils/SafeERC20.sol\":8587:8591  data */\n      dup7\n        /* \"@openzeppelin/contracts/token/ERC20/utils/SafeERC20.sol\":8583:8598  add(data, 0x20) */\n      add\n        /* \"@openzeppelin/contracts/token/ERC20/utils/SafeERC20.sol\":8580:8581  0 */\n      0x00\n        /* \"@openzeppelin/contracts/token/ERC20/utils/SafeERC20.sol\":8573:8578  token */\n      dup9\n        /* \"@openzeppelin/contracts/token/ERC20/utils/SafeERC20.sol\":8566:8571  gas() */\n      gas\n        /* \"@openzeppelin/contracts/token/ERC20/utils/SafeERC20.sol\":8561:8621  call(gas(), token, 0, add(data, 0x20), mload(data), 0, 0x20) */\n      call\n        /* \"@openzeppelin/contracts/token/ERC20/utils/SafeERC20.sol\":8673:8680  success */\n      dup1\n        /* \"@openzeppelin/contracts/token/ERC20/utils/SafeERC20.sol\":8663:8839  if iszero(success) {... */\n      tag_605\n      jumpi\n        /* \"@openzeppelin/contracts/token/ERC20/utils/SafeERC20.sol\":8717:8721  0x40 */\n      0x40\n        /* \"@openzeppelin/contracts/token/ERC20/utils/SafeERC20.sol\":8711:8722  mload(0x40) */\n      mload\n        /* \"@openzeppelin/contracts/token/ERC20/utils/SafeERC20.sol\":8762:8778  returndatasize() */\n      returndatasize\n        /* \"@openzeppelin/contracts/token/ERC20/utils/SafeERC20.sol\":8759:8760  0 */\n      0x00\n        /* \"@openzeppelin/contracts/token/ERC20/utils/SafeERC20.sol\":8754:8757  ptr */\n      dup3\n        /* \"@openzeppelin/contracts/token/ERC20/utils/SafeERC20.sol\":8739:8779  returndatacopy(ptr, 0, returndatasize()) */\n      returndatacopy\n        /* \"@openzeppelin/contracts/token/ERC20/utils/SafeERC20.sol\":8808:8824  returndatasize() */\n      returndatasize\n        /* \"@openzeppelin/contracts/token/ERC20/utils/SafeERC20.sol\":8803:8806  ptr */\n      dup2\n        /* \"@openzeppelin/contracts/token/ERC20/utils/SafeERC20.sol\":8796:8825  revert(ptr, returndatasize()) */\n      revert\n        /* \"@openzeppelin/contracts/token/ERC20/utils/SafeERC20.sol\":8663:8839  if iszero(success) {... */\n    tag_605:\n      pop\n      pop\n        /* \"@openzeppelin/contracts/token/ERC20/utils/SafeERC20.sol\":8916:8917  0 */\n      0x00\n        /* \"@openzeppelin/contracts/token/ERC20/utils/SafeERC20.sol\":8910:8918  mload(0) */\n      mload\n        /* \"@openzeppelin/contracts/token/ERC20/utils/SafeERC20.sol\":8866:8882  returndatasize() */\n      returndatasize\n      swap2\n      pop\n        /* \"@openzeppelin/contracts/token/ERC20/utils/SafeERC20.sol\":8942:8957  returnSize == 0 */\n      dup2\n      iszero\n        /* \"@openzeppelin/contracts/token/ERC20/utils/SafeERC20.sol\":8942:9010  returnSize == 0 ? address(token).code.length == 0 : returnValue != 1 */\n      tag_606\n      jumpi\n        /* \"@openzeppelin/contracts/token/ERC20/utils/SafeERC20.sol\":8994:9005  returnValue */\n      dup1\n        /* \"@openzeppelin/contracts/token/ERC20/utils/SafeERC20.sol\":9009:9010  1 */\n      0x01\n        /* \"@openzeppelin/contracts/token/ERC20/utils/SafeERC20.sol\":8994:9010  returnValue != 1 */\n      eq\n      iszero\n        /* \"@openzeppelin/contracts/token/ERC20/utils/SafeERC20.sol\":8942:9010  returnSize == 0 ? address(token).code.length == 0 : returnValue != 1 */\n      jump(tag_607)\n    tag_606:\n      sub(shl(0xa0, 0x01), 0x01)\n        /* \"@openzeppelin/contracts/token/ERC20/utils/SafeERC20.sol\":8960:8986  address(token).code.length */\n      dup5\n      and\n      extcodesize\n        /* \"@openzeppelin/contracts/token/ERC20/utils/SafeERC20.sol\":8960:8991  address(token).code.length == 0 */\n      iszero\n        /* \"@openzeppelin/contracts/token/ERC20/utils/SafeERC20.sol\":8942:9010  returnSize == 0 ? address(token).code.length == 0 : returnValue != 1 */\n    tag_607:\n        /* \"@openzeppelin/contracts/token/ERC20/utils/SafeERC20.sol\":8938:9084  if (returnSize == 0 ? address(token).code.length == 0 : returnValue != 1) {... */\n      iszero\n      tag_583\n      jumpi\n        /* \"@openzeppelin/contracts/token/ERC20/utils/SafeERC20.sol\":9033:9073  SafeERC20FailedOperation(address(token)) */\n      mload(0x40)\n      shl(0xe0, 0x5274afe7)\n      dup2\n      mstore\n      sub(shl(0xa0, 0x01), 0x01)\n        /* \"#utility.yul\":360:392   */\n      dup6\n      and\n        /* \"@openzeppelin/contracts/token/ERC20/utils/SafeERC20.sol\":9033:9073  SafeERC20FailedOperation(address(token)) */\n      0x04\n      dup3\n      add\n        /* \"#utility.yul\":342:393   */\n      mstore\n        /* \"#utility.yul\":315:333   */\n      0x24\n      add\n        /* \"@openzeppelin/contracts/token/ERC20/utils/SafeERC20.sol\":9033:9073  SafeERC20FailedOperation(address(token)) */\n      tag_254\n        /* \"#utility.yul\":196:399   */\n      jump\n        /* \"#utility.yul\":404:577   */\n    tag_611:\n        /* \"#utility.yul\":472:492   */\n      dup1\n      calldataload\n      sub(shl(0xa0, 0x01), 0x01)\n        /* \"#utility.yul\":521:552   */\n      dup2\n      and\n        /* \"#utility.yul\":511:553   */\n      dup2\n      eq\n        /* \"#utility.yul\":501:571   */\n      tag_624\n      jumpi\n        /* \"#utility.yul\":567:568   */\n      0x00\n        /* \"#utility.yul\":564:565   */\n      dup1\n        /* \"#utility.yul\":557:569   */\n      revert\n        /* \"#utility.yul\":501:571   */\n    tag_624:\n        /* \"#utility.yul\":404:577   */\n      swap2\n      swap1\n      pop\n      jump\t// out\n        /* \"#utility.yul\":582:768   */\n    tag_73:\n        /* \"#utility.yul\":641:647   */\n      0x00\n        /* \"#utility.yul\":694:696   */\n      0x20\n        /* \"#utility.yul\":682:691   */\n      dup3\n        /* \"#utility.yul\":673:680   */\n      dup5\n        /* \"#utility.yul\":669:692   */\n      sub\n        /* \"#utility.yul\":665:697   */\n      slt\n        /* \"#utility.yul\":662:714   */\n      iszero\n      tag_626\n      jumpi\n        /* \"#utility.yul\":710:711   */\n      0x00\n        /* \"#utility.yul\":707:708   */\n      dup1\n        /* \"#utility.yul\":700:712   */\n      revert\n        /* \"#utility.yul\":662:714   */\n    tag_626:\n        /* \"#utility.yul\":733:762   */\n      tag_627\n        /* \"#utility.yul\":752:761   */\n      dup3\n        /* \"#utility.yul\":733:762   */\n      tag_611\n      jump\t// in\n    tag_627:\n        /* \"#utility.yul\":723:762   */\n      swap4\n        /* \"#utility.yul\":582:768   */\n      swap3\n      pop\n      pop\n      pop\n      jump\t// out\n        /* \"#utility.yul\":773:1021   */\n    tag_81:\n        /* \"#utility.yul\":841:847   */\n      0x00\n        /* \"#utility.yul\":849:855   */\n      dup1\n        /* \"#utility.yul\":902:904   */\n      0x40\n        /* \"#utility.yul\":890:899   */\n      dup4\n        /* \"#utility.yul\":881:888   */\n      dup6\n        /* \"#utility.yul\":877:900   */\n      sub\n        /* \"#utility.yul\":873:905   */\n      slt\n        /* \"#utility.yul\":870:922   */\n      iszero\n      tag_629\n      jumpi\n        /* \"#utility.yul\":918:919   */\n      0x00\n        /* \"#utility.yul\":915:916   */\n      dup1\n        /* \"#utility.yul\":908:920   */\n      revert\n        /* \"#utility.yul\":870:922   */\n    tag_629:\n      pop\n      pop\n        /* \"#utility.yul\":941:964   */\n      dup1\n      calldataload\n      swap3\n        /* \"#utility.yul\":1011:1013   */\n      0x20\n        /* \"#utility.yul\":996:1014   */\n      swap1\n      swap2\n      add\n        /* \"#utility.yul\":983:1015   */\n      calldataload\n      swap2\n      pop\n        /* \"#utility.yul\":773:1021   */\n      jump\t// out\n        /* \"#utility.yul\":1026:1449   */\n    tag_612:\n        /* \"#utility.yul\":1068:1071   */\n      0x00\n        /* \"#utility.yul\":1106:1111   */\n      dup2\n        /* \"#utility.yul\":1100:1112   */\n      mload\n        /* \"#utility.yul\":1133:1139   */\n      dup1\n        /* \"#utility.yul\":1128:1131   */\n      dup5\n        /* \"#utility.yul\":1121:1140   */\n      mstore\n        /* \"#utility.yul\":1158:1159   */\n      0x00\n        /* \"#utility.yul\":1168:1330   */\n    tag_631:\n        /* \"#utility.yul\":1182:1188   */\n      dup2\n        /* \"#utility.yul\":1179:1180   */\n      dup2\n        /* \"#utility.yul\":1176:1189   */\n      lt\n        /* \"#utility.yul\":1168:1330   */\n      iszero\n      tag_633\n      jumpi\n        /* \"#utility.yul\":1244:1248   */\n      0x20\n        /* \"#utility.yul\":1300:1313   */\n      dup2\n      dup6\n      add\n        /* \"#utility.yul\":1296:1318   */\n      dup2\n      add\n        /* \"#utility.yul\":1290:1319   */\n      mload\n        /* \"#utility.yul\":1272:1283   */\n      dup7\n      dup4\n      add\n        /* \"#utility.yul\":1268:1288   */\n      dup3\n      add\n        /* \"#utility.yul\":1261:1320   */\n      mstore\n        /* \"#utility.yul\":1197:1209   */\n      add\n        /* \"#utility.yul\":1168:1330   */\n      jump(tag_631)\n    tag_633:\n        /* \"#utility.yul\":1172:1175   */\n      pop\n        /* \"#utility.yul\":1375:1376   */\n      0x00\n        /* \"#utility.yul\":1368:1372   */\n      0x20\n        /* \"#utility.yul\":1359:1365   */\n      dup3\n        /* \"#utility.yul\":1354:1357   */\n      dup7\n        /* \"#utility.yul\":1350:1366   */\n      add\n        /* \"#utility.yul\":1346:1373   */\n      add\n        /* \"#utility.yul\":1339:1377   */\n      mstore\n        /* \"#utility.yul\":1438:1442   */\n      0x20\n        /* \"#utility.yul\":1431:1433   */\n      0x1f\n        /* \"#utility.yul\":1427:1434   */\n      not\n        /* \"#utility.yul\":1422:1424   */\n      0x1f\n        /* \"#utility.yul\":1414:1420   */\n      dup4\n        /* \"#utility.yul\":1410:1425   */\n      add\n        /* \"#utility.yul\":1406:1435   */\n      and\n        /* \"#utility.yul\":1401:1404   */\n      dup6\n        /* \"#utility.yul\":1397:1436   */\n      add\n        /* \"#utility.yul\":1393:1443   */\n      add\n        /* \"#utility.yul\":1386:1443   */\n      swap2\n      pop\n      pop\n        /* \"#utility.yul\":1026:1449   */\n      swap3\n      swap2\n      pop\n      pop\n      jump\t// out\n        /* \"#utility.yul\":1454:2069   */\n    tag_84:\n        /* \"#utility.yul\":1737:1743   */\n      dup7\n        /* \"#utility.yul\":1726:1735   */\n      dup2\n        /* \"#utility.yul\":1719:1744   */\n      mstore\n        /* \"#utility.yul\":1809:1810   */\n      0x01\n        /* \"#utility.yul\":1805:1806   */\n      dup1\n        /* \"#utility.yul\":1800:1803   */\n      0xa0\n        /* \"#utility.yul\":1796:1807   */\n      shl\n        /* \"#utility.yul\":1792:1811   */\n      sub\n        /* \"#utility.yul\":1784:1790   */\n      dup7\n        /* \"#utility.yul\":1780:1812   */\n      and\n        /* \"#utility.yul\":1775:1777   */\n      0x20\n        /* \"#utility.yul\":1764:1773   */\n      dup3\n        /* \"#utility.yul\":1760:1778   */\n      add\n        /* \"#utility.yul\":1753:1813   */\n      mstore\n        /* \"#utility.yul\":1849:1855   */\n      dup5\n        /* \"#utility.yul\":1844:1846   */\n      0x40\n        /* \"#utility.yul\":1833:1842   */\n      dup3\n        /* \"#utility.yul\":1829:1847   */\n      add\n        /* \"#utility.yul\":1822:1856   */\n      mstore\n        /* \"#utility.yul\":1892:1898   */\n      dup4\n        /* \"#utility.yul\":1887:1889   */\n      0x60\n        /* \"#utility.yul\":1876:1885   */\n      dup3\n        /* \"#utility.yul\":1872:1890   */\n      add\n        /* \"#utility.yul\":1865:1899   */\n      mstore\n        /* \"#utility.yul\":1936:1939   */\n      0xc0\n        /* \"#utility.yul\":1930:1933   */\n      0x80\n        /* \"#utility.yul\":1919:1928   */\n      dup3\n        /* \"#utility.yul\":1915:1934   */\n      add\n        /* \"#utility.yul\":1908:1940   */\n      mstore\n        /* \"#utility.yul\":1700:1704   */\n      0x00\n        /* \"#utility.yul\":1957:2003   */\n      tag_635\n        /* \"#utility.yul\":1998:2001   */\n      0xc0\n        /* \"#utility.yul\":1987:1996   */\n      dup4\n        /* \"#utility.yul\":1983:2002   */\n      add\n        /* \"#utility.yul\":1975:1981   */\n      dup6\n        /* \"#utility.yul\":1957:2003   */\n      tag_612\n      jump\t// in\n    tag_635:\n        /* \"#utility.yul\":1949:2003   */\n      swap1\n      pop\n        /* \"#utility.yul\":2054:2060   */\n      dup3\n        /* \"#utility.yul\":2047:2061   */\n      iszero\n        /* \"#utility.yul\":2040:2062   */\n      iszero\n        /* \"#utility.yul\":2034:2037   */\n      0xa0\n        /* \"#utility.yul\":2023:2032   */\n      dup4\n        /* \"#utility.yul\":2019:2038   */\n      add\n        /* \"#utility.yul\":2012:2063   */\n      mstore\n        /* \"#utility.yul\":1454:2069   */\n      swap8\n      swap7\n      pop\n      pop\n      pop\n      pop\n      pop\n      pop\n      pop\n      jump\t// out\n        /* \"#utility.yul\":2266:2526   */\n    tag_99:\n        /* \"#utility.yul\":2334:2340   */\n      0x00\n        /* \"#utility.yul\":2342:2348   */\n      dup1\n        /* \"#utility.yul\":2395:2397   */\n      0x40\n        /* \"#utility.yul\":2383:2392   */\n      dup4\n        /* \"#utility.yul\":2374:2381   */\n      dup6\n        /* \"#utility.yul\":2370:2393   */\n      sub\n        /* \"#utility.yul\":2366:2398   */\n      slt\n        /* \"#utility.yul\":2363:2415   */\n      iszero\n      tag_638\n      jumpi\n        /* \"#utility.yul\":2411:2412   */\n      0x00\n        /* \"#utility.yul\":2408:2409   */\n      dup1\n        /* \"#utility.yul\":2401:2413   */\n      revert\n        /* \"#utility.yul\":2363:2415   */\n    tag_638:\n        /* \"#utility.yul\":2434:2463   */\n      tag_639\n        /* \"#utility.yul\":2453:2462   */\n      dup4\n        /* \"#utility.yul\":2434:2463   */\n      tag_611\n      jump\t// in\n    tag_639:\n        /* \"#utility.yul\":2424:2463   */\n      swap2\n      pop\n        /* \"#utility.yul\":2482:2520   */\n      tag_640\n        /* \"#utility.yul\":2516:2518   */\n      0x20\n        /* \"#utility.yul\":2505:2514   */\n      dup5\n        /* \"#utility.yul\":2501:2519   */\n      add\n        /* \"#utility.yul\":2482:2520   */\n      tag_611\n      jump\t// in\n    tag_640:\n        /* \"#utility.yul\":2472:2520   */\n      swap1\n      pop\n        /* \"#utility.yul\":2266:2526   */\n      swap3\n      pop\n      swap3\n      swap1\n      pop\n      jump\t// out\n        /* \"#utility.yul\":2753:3081   */\n    tag_110:\n        /* \"#utility.yul\":2830:2836   */\n      0x00\n        /* \"#utility.yul\":2838:2844   */\n      dup1\n        /* \"#utility.yul\":2846:2852   */\n      0x00\n        /* \"#utility.yul\":2899:2901   */\n      0x60\n        /* \"#utility.yul\":2887:2896   */\n      dup5\n        /* \"#utility.yul\":2878:2885   */\n      dup7\n        /* \"#utility.yul\":2874:2897   */\n      sub\n        /* \"#utility.yul\":2870:2902   */\n      slt\n        /* \"#utility.yul\":2867:2919   */\n      iszero\n      tag_643\n      jumpi\n        /* \"#utility.yul\":2915:2916   */\n      0x00\n        /* \"#utility.yul\":2912:2913   */\n      dup1\n        /* \"#utility.yul\":2905:2917   */\n      revert\n        /* \"#utility.yul\":2867:2919   */\n    tag_643:\n        /* \"#utility.yul\":2938:2967   */\n      tag_644\n        /* \"#utility.yul\":2957:2966   */\n      dup5\n        /* \"#utility.yul\":2938:2967   */\n      tag_611\n      jump\t// in\n    tag_644:\n        /* \"#utility.yul\":2928:2967   */\n      swap3\n      pop\n        /* \"#utility.yul\":3014:3016   */\n      0x20\n        /* \"#utility.yul\":3003:3012   */\n      dup5\n        /* \"#utility.yul\":2999:3017   */\n      add\n        /* \"#utility.yul\":2986:3018   */\n      calldataload\n        /* \"#utility.yul\":2976:3018   */\n      swap2\n      pop\n        /* \"#utility.yul\":3037:3075   */\n      tag_645\n        /* \"#utility.yul\":3071:3073   */\n      0x40\n        /* \"#utility.yul\":3060:3069   */\n      dup6\n        /* \"#utility.yul\":3056:3074   */\n      add\n        /* \"#utility.yul\":3037:3075   */\n      tag_611\n      jump\t// in\n    tag_645:\n        /* \"#utility.yul\":3027:3075   */\n      swap1\n      pop\n        /* \"#utility.yul\":2753:3081   */\n      swap3\n      pop\n      swap3\n      pop\n      swap3\n      jump\t// out\n        /* \"#utility.yul\":3086:3246   */\n    tag_613:\n        /* \"#utility.yul\":3151:3171   */\n      dup1\n      calldataload\n        /* \"#utility.yul\":3207:3220   */\n      dup1\n      iszero\n        /* \"#utility.yul\":3200:3221   */\n      iszero\n        /* \"#utility.yul\":3190:3222   */\n      dup2\n      eq\n        /* \"#utility.yul\":3180:3240   */\n      tag_624\n      jumpi\n        /* \"#utility.yul\":3236:3237   */\n      0x00\n        /* \"#utility.yul\":3233:3234   */\n      dup1\n        /* \"#utility.yul\":3226:3238   */\n      revert\n        /* \"#utility.yul\":3251:3431   */\n    tag_117:\n        /* \"#utility.yul\":3307:3313   */\n      0x00\n        /* \"#utility.yul\":3360:3362   */\n      0x20\n        /* \"#utility.yul\":3348:3357   */\n      dup3\n        /* \"#utility.yul\":3339:3346   */\n      dup5\n        /* \"#utility.yul\":3335:3358   */\n      sub\n        /* \"#utility.yul\":3331:3363   */\n      slt\n        /* \"#utility.yul\":3328:3380   */\n      iszero\n      tag_649\n      jumpi\n        /* \"#utility.yul\":3376:3377   */\n      0x00\n        /* \"#utility.yul\":3373:3374   */\n      dup1\n        /* \"#utility.yul\":3366:3378   */\n      revert\n        /* \"#utility.yul\":3328:3380   */\n    tag_649:\n        /* \"#utility.yul\":3399:3425   */\n      tag_627\n        /* \"#utility.yul\":3415:3424   */\n      dup3\n        /* \"#utility.yul\":3399:3425   */\n      tag_613\n      jump\t// in\n        /* \"#utility.yul\":3436:3616   */\n    tag_121:\n        /* \"#utility.yul\":3495:3501   */\n      0x00\n        /* \"#utility.yul\":3548:3550   */\n      0x20\n        /* \"#utility.yul\":3536:3545   */\n      dup3\n        /* \"#utility.yul\":3527:3534   */\n      dup5\n        /* \"#utility.yul\":3523:3546   */\n      sub\n        /* \"#utility.yul\":3519:3551   */\n      slt\n        /* \"#utility.yul\":3516:3568   */\n      iszero\n      tag_652\n      jumpi\n        /* \"#utility.yul\":3564:3565   */\n      0x00\n        /* \"#utility.yul\":3561:3562   */\n      dup1\n        /* \"#utility.yul\":3554:3566   */\n      revert\n        /* \"#utility.yul\":3516:3568   */\n    tag_652:\n      pop\n        /* \"#utility.yul\":3587:3610   */\n      calldataload\n      swap2\n        /* \"#utility.yul\":3436:3616   */\n      swap1\n      pop\n      jump\t// out\n        /* \"#utility.yul\":3810:3924   */\n    tag_614:\n        /* \"#utility.yul\":3894:3898   */\n      0xff\n        /* \"#utility.yul\":3887:3892   */\n      dup2\n        /* \"#utility.yul\":3883:3899   */\n      and\n        /* \"#utility.yul\":3876:3881   */\n      dup2\n        /* \"#utility.yul\":3873:3900   */\n      eq\n        /* \"#utility.yul\":3863:3918   */\n      tag_424\n      jumpi\n        /* \"#utility.yul\":3914:3915   */\n      0x00\n        /* \"#utility.yul\":3911:3912   */\n      dup1\n        /* \"#utility.yul\":3904:3916   */\n      revert\n        /* \"#utility.yul\":3929:4309   */\n    tag_151:\n        /* \"#utility.yul\":3993:3999   */\n      0x00\n        /* \"#utility.yul\":4001:4007   */\n      dup1\n        /* \"#utility.yul\":4054:4056   */\n      0x40\n        /* \"#utility.yul\":4042:4051   */\n      dup4\n        /* \"#utility.yul\":4033:4040   */\n      dup6\n        /* \"#utility.yul\":4029:4052   */\n      sub\n        /* \"#utility.yul\":4025:4057   */\n      slt\n        /* \"#utility.yul\":4022:4074   */\n      iszero\n      tag_657\n      jumpi\n        /* \"#utility.yul\":4070:4071   */\n      0x00\n        /* \"#utility.yul\":4067:4068   */\n      dup1\n        /* \"#utility.yul\":4060:4072   */\n      revert\n        /* \"#utility.yul\":4022:4074   */\n    tag_657:\n        /* \"#utility.yul\":4109:4118   */\n      dup3\n        /* \"#utility.yul\":4096:4119   */\n      calldataload\n        /* \"#utility.yul\":4128:4157   */\n      tag_658\n        /* \"#utility.yul\":4151:4156   */\n      dup2\n        /* \"#utility.yul\":4128:4157   */\n      tag_614\n      jump\t// in\n    tag_658:\n        /* \"#utility.yul\":4176:4181   */\n      swap2\n      pop\n        /* \"#utility.yul\":4233:4235   */\n      0x20\n        /* \"#utility.yul\":4218:4236   */\n      dup4\n      add\n        /* \"#utility.yul\":4205:4237   */\n      calldataload\n        /* \"#utility.yul\":4246:4277   */\n      tag_659\n        /* \"#utility.yul\":4205:4237   */\n      dup2\n        /* \"#utility.yul\":4246:4277   */\n      tag_614\n      jump\t// in\n    tag_659:\n        /* \"#utility.yul\":4296:4303   */\n      dup1\n        /* \"#utility.yul\":4286:4303   */\n      swap2\n      pop\n      pop\n        /* \"#utility.yul\":3929:4309   */\n      swap3\n      pop\n      swap3\n      swap1\n      pop\n      jump\t// out\n        /* \"#utility.yul\":4818:5417   */\n    tag_168:\n        /* \"#utility.yul\":5095:5101   */\n      dup7\n        /* \"#utility.yul\":5084:5093   */\n      dup2\n        /* \"#utility.yul\":5077:5102   */\n      mstore\n        /* \"#utility.yul\":5138:5141   */\n      0xc0\n        /* \"#utility.yul\":5133:5135   */\n      0x20\n        /* \"#utility.yul\":5122:5131   */\n      dup3\n        /* \"#utility.yul\":5118:5136   */\n      add\n        /* \"#utility.yul\":5111:5142   */\n      mstore\n        /* \"#utility.yul\":5058:5062   */\n      0x00\n        /* \"#utility.yul\":5159:5205   */\n      tag_662\n        /* \"#utility.yul\":5200:5203   */\n      0xc0\n        /* \"#utility.yul\":5189:5198   */\n      dup4\n        /* \"#utility.yul\":5185:5204   */\n      add\n        /* \"#utility.yul\":5177:5183   */\n      dup9\n        /* \"#utility.yul\":5159:5205   */\n      tag_612\n      jump\t// in\n    tag_662:\n        /* \"#utility.yul\":5236:5238   */\n      0x40\n        /* \"#utility.yul\":5221:5239   */\n      dup4\n      add\n        /* \"#utility.yul\":5214:5248   */\n      swap7\n      swap1\n      swap7\n      mstore\n      pop\n        /* \"#utility.yul\":5291:5305   */\n      swap3\n      iszero\n        /* \"#utility.yul\":5284:5306   */\n      iszero\n        /* \"#utility.yul\":5279:5281   */\n      0x60\n        /* \"#utility.yul\":5264:5282   */\n      dup5\n      add\n        /* \"#utility.yul\":5257:5307   */\n      mstore\n        /* \"#utility.yul\":5351:5365   */\n      swap1\n      iszero\n        /* \"#utility.yul\":5344:5366   */\n      iszero\n        /* \"#utility.yul\":5338:5341   */\n      0x80\n        /* \"#utility.yul\":5323:5342   */\n      dup4\n      add\n        /* \"#utility.yul\":5316:5367   */\n      mstore\n        /* \"#utility.yul\":5398:5401   */\n      0xa0\n        /* \"#utility.yul\":5383:5402   */\n      swap1\n      swap2\n      add\n        /* \"#utility.yul\":5376:5411   */\n      mstore\n        /* \"#utility.yul\":5151:5205   */\n      swap3\n        /* \"#utility.yul\":4818:5417   */\n      swap2\n      pop\n      pop\n      jump\t// out\n        /* \"#utility.yul\":5422:5738   */\n    tag_177:\n        /* \"#utility.yul\":5496:5502   */\n      0x00\n        /* \"#utility.yul\":5504:5510   */\n      dup1\n        /* \"#utility.yul\":5512:5518   */\n      0x00\n        /* \"#utility.yul\":5565:5567   */\n      0x60\n        /* \"#utility.yul\":5553:5562   */\n      dup5\n        /* \"#utility.yul\":5544:5551   */\n      dup7\n        /* \"#utility.yul\":5540:5563   */\n      sub\n        /* \"#utility.yul\":5536:5568   */\n      slt\n        /* \"#utility.yul\":5533:5585   */\n      iszero\n      tag_664\n      jumpi\n        /* \"#utility.yul\":5581:5582   */\n      0x00\n        /* \"#utility.yul\":5578:5579   */\n      dup1\n        /* \"#utility.yul\":5571:5583   */\n      revert\n        /* \"#utility.yul\":5533:5585   */\n    tag_664:\n        /* \"#utility.yul\":5617:5626   */\n      dup4\n        /* \"#utility.yul\":5604:5627   */\n      calldataload\n        /* \"#utility.yul\":5594:5627   */\n      swap3\n      pop\n        /* \"#utility.yul\":5674:5676   */\n      0x20\n        /* \"#utility.yul\":5663:5672   */\n      dup5\n        /* \"#utility.yul\":5659:5677   */\n      add\n        /* \"#utility.yul\":5646:5678   */\n      calldataload\n        /* \"#utility.yul\":5636:5678   */\n      swap2\n      pop\n        /* \"#utility.yul\":5697:5732   */\n      tag_645\n        /* \"#utility.yul\":5728:5730   */\n      0x40\n        /* \"#utility.yul\":5717:5726   */\n      dup6\n        /* \"#utility.yul\":5713:5731   */\n      add\n        /* \"#utility.yul\":5697:5732   */\n      tag_613\n      jump\t// in\n        /* \"#utility.yul\":5743:5870   */\n    tag_615:\n        /* \"#utility.yul\":5804:5814   */\n      0x4e487b71\n        /* \"#utility.yul\":5799:5802   */\n      0xe0\n        /* \"#utility.yul\":5795:5815   */\n      shl\n        /* \"#utility.yul\":5792:5793   */\n      0x00\n        /* \"#utility.yul\":5785:5816   */\n      mstore\n        /* \"#utility.yul\":5835:5839   */\n      0x41\n        /* \"#utility.yul\":5832:5833   */\n      0x04\n        /* \"#utility.yul\":5825:5840   */\n      mstore\n        /* \"#utility.yul\":5859:5863   */\n      0x24\n        /* \"#utility.yul\":5856:5857   */\n      0x00\n        /* \"#utility.yul\":5849:5864   */\n      revert\n        /* \"#utility.yul\":5875:6865   */\n    tag_181:\n        /* \"#utility.yul\":5953:5959   */\n      0x00\n        /* \"#utility.yul\":5961:5967   */\n      dup1\n        /* \"#utility.yul\":6014:6016   */\n      0x40\n        /* \"#utility.yul\":6002:6011   */\n      dup4\n        /* \"#utility.yul\":5993:6000   */\n      dup6\n        /* \"#utility.yul\":5989:6012   */\n      sub\n        /* \"#utility.yul\":5985:6017   */\n      slt\n        /* \"#utility.yul\":5982:6034   */\n      iszero\n      tag_668\n      jumpi\n        /* \"#utility.yul\":6030:6031   */\n      0x00\n        /* \"#utility.yul\":6027:6028   */\n      dup1\n        /* \"#utility.yul\":6020:6032   */\n      revert\n        /* \"#utility.yul\":5982:6034   */\n    tag_668:\n        /* \"#utility.yul\":6066:6075   */\n      dup3\n        /* \"#utility.yul\":6053:6076   */\n      calldataload\n        /* \"#utility.yul\":6043:6076   */\n      swap2\n      pop\n        /* \"#utility.yul\":6127:6129   */\n      0x20\n        /* \"#utility.yul\":6116:6125   */\n      dup4\n        /* \"#utility.yul\":6112:6130   */\n      add\n        /* \"#utility.yul\":6099:6131   */\n      calldataload\n        /* \"#utility.yul\":6150:6168   */\n      0xffffffffffffffff\n        /* \"#utility.yul\":6191:6193   */\n      dup1\n        /* \"#utility.yul\":6183:6189   */\n      dup3\n        /* \"#utility.yul\":6180:6194   */\n      gt\n        /* \"#utility.yul\":6177:6211   */\n      iszero\n      tag_669\n      jumpi\n        /* \"#utility.yul\":6207:6208   */\n      0x00\n        /* \"#utility.yul\":6204:6205   */\n      dup1\n        /* \"#utility.yul\":6197:6209   */\n      revert\n        /* \"#utility.yul\":6177:6211   */\n    tag_669:\n        /* \"#utility.yul\":6245:6251   */\n      dup2\n        /* \"#utility.yul\":6234:6243   */\n      dup6\n        /* \"#utility.yul\":6230:6252   */\n      add\n        /* \"#utility.yul\":6220:6252   */\n      swap2\n      pop\n        /* \"#utility.yul\":6290:6297   */\n      dup6\n        /* \"#utility.yul\":6283:6287   */\n      0x1f\n        /* \"#utility.yul\":6279:6281   */\n      dup4\n        /* \"#utility.yul\":6275:6288   */\n      add\n        /* \"#utility.yul\":6271:6298   */\n      slt\n        /* \"#utility.yul\":6261:6316   */\n      tag_670\n      jumpi\n        /* \"#utility.yul\":6312:6313   */\n      0x00\n        /* \"#utility.yul\":6309:6310   */\n      dup1\n        /* \"#utility.yul\":6302:6314   */\n      revert\n        /* \"#utility.yul\":6261:6316   */\n    tag_670:\n        /* \"#utility.yul\":6348:6350   */\n      dup2\n        /* \"#utility.yul\":6335:6351   */\n      calldataload\n        /* \"#utility.yul\":6370:6372   */\n      dup2\n        /* \"#utility.yul\":6366:6368   */\n      dup2\n        /* \"#utility.yul\":6363:6373   */\n      gt\n        /* \"#utility.yul\":6360:6396   */\n      iszero\n      tag_672\n      jumpi\n        /* \"#utility.yul\":6376:6394   */\n      tag_672\n      tag_615\n      jump\t// in\n    tag_672:\n        /* \"#utility.yul\":6451:6453   */\n      0x40\n        /* \"#utility.yul\":6445:6454   */\n      mload\n        /* \"#utility.yul\":6419:6421   */\n      0x1f\n        /* \"#utility.yul\":6505:6518   */\n      dup3\n      add\n      not(0x1f)\n        /* \"#utility.yul\":6501:6523   */\n      swap1\n      dup2\n      and\n        /* \"#utility.yul\":6525:6527   */\n      0x3f\n        /* \"#utility.yul\":6497:6528   */\n      add\n        /* \"#utility.yul\":6493:6533   */\n      and\n        /* \"#utility.yul\":6481:6534   */\n      dup2\n      add\n      swap1\n        /* \"#utility.yul\":6549:6567   */\n      dup4\n      dup3\n      gt\n        /* \"#utility.yul\":6569:6591   */\n      dup2\n      dup4\n      lt\n        /* \"#utility.yul\":6546:6592   */\n      or\n        /* \"#utility.yul\":6543:6615   */\n      iszero\n      tag_674\n      jumpi\n        /* \"#utility.yul\":6595:6613   */\n      tag_674\n      tag_615\n      jump\t// in\n    tag_674:\n        /* \"#utility.yul\":6635:6645   */\n      dup2\n        /* \"#utility.yul\":6631:6633   */\n      0x40\n        /* \"#utility.yul\":6624:6646   */\n      mstore\n        /* \"#utility.yul\":6670:6672   */\n      dup3\n        /* \"#utility.yul\":6662:6668   */\n      dup2\n        /* \"#utility.yul\":6655:6673   */\n      mstore\n        /* \"#utility.yul\":6710:6717   */\n      dup9\n        /* \"#utility.yul\":6705:6707   */\n      0x20\n        /* \"#utility.yul\":6700:6702   */\n      dup5\n        /* \"#utility.yul\":6696:6698   */\n      dup8\n        /* \"#utility.yul\":6692:6703   */\n      add\n        /* \"#utility.yul\":6688:6708   */\n      add\n        /* \"#utility.yul\":6685:6718   */\n      gt\n        /* \"#utility.yul\":6682:6735   */\n      iszero\n      tag_675\n      jumpi\n        /* \"#utility.yul\":6731:6732   */\n      0x00\n        /* \"#utility.yul\":6728:6729   */\n      dup1\n        /* \"#utility.yul\":6721:6733   */\n      revert\n        /* \"#utility.yul\":6682:6735   */\n    tag_675:\n        /* \"#utility.yul\":6787:6789   */\n      dup3\n        /* \"#utility.yul\":6782:6784   */\n      0x20\n        /* \"#utility.yul\":6778:6780   */\n      dup7\n        /* \"#utility.yul\":6774:6785   */\n      add\n        /* \"#utility.yul\":6769:6771   */\n      0x20\n        /* \"#utility.yul\":6761:6767   */\n      dup4\n        /* \"#utility.yul\":6757:6772   */\n      add\n        /* \"#utility.yul\":6744:6790   */\n      calldatacopy\n        /* \"#utility.yul\":6832:6833   */\n      0x00\n        /* \"#utility.yul\":6827:6829   */\n      0x20\n        /* \"#utility.yul\":6822:6824   */\n      dup5\n        /* \"#utility.yul\":6814:6820   */\n      dup4\n        /* \"#utility.yul\":6810:6825   */\n      add\n        /* \"#utility.yul\":6806:6830   */\n      add\n        /* \"#utility.yul\":6799:6834   */\n      mstore\n        /* \"#utility.yul\":6853:6859   */\n      dup1\n        /* \"#utility.yul\":6843:6859   */\n      swap6\n      pop\n      pop\n      pop\n      pop\n      pop\n      pop\n        /* \"#utility.yul\":5875:6865   */\n      swap3\n      pop\n      swap3\n      swap1\n      pop\n      jump\t// out\n        /* \"#utility.yul\":6870:6997   */\n    tag_616:\n        /* \"#utility.yul\":6931:6941   */\n      0x4e487b71\n        /* \"#utility.yul\":6926:6929   */\n      0xe0\n        /* \"#utility.yul\":6922:6942   */\n      shl\n        /* \"#utility.yul\":6919:6920   */\n      0x00\n        /* \"#utility.yul\":6912:6943   */\n      mstore\n        /* \"#utility.yul\":6962:6966   */\n      0x11\n        /* \"#utility.yul\":6959:6960   */\n      0x04\n        /* \"#utility.yul\":6952:6967   */\n      mstore\n        /* \"#utility.yul\":6986:6990   */\n      0x24\n        /* \"#utility.yul\":6983:6984   */\n      0x00\n        /* \"#utility.yul\":6976:6991   */\n      revert\n        /* \"#utility.yul\":7002:7127   */\n    tag_223:\n        /* \"#utility.yul\":7067:7076   */\n      dup1\n      dup3\n      add\n        /* \"#utility.yul\":7088:7098   */\n      dup1\n      dup3\n      gt\n        /* \"#utility.yul\":7085:7121   */\n      iszero\n      tag_679\n      jumpi\n        /* \"#utility.yul\":7101:7119   */\n      tag_679\n      tag_616\n      jump\t// in\n    tag_679:\n        /* \"#utility.yul\":7002:7127   */\n      swap3\n      swap2\n      pop\n      pop\n      jump\t// out\n        /* \"#utility.yul\":7132:7268   */\n    tag_231:\n        /* \"#utility.yul\":7171:7174   */\n      0x00\n        /* \"#utility.yul\":7199:7204   */\n      dup2\n        /* \"#utility.yul\":7189:7228   */\n      tag_682\n      jumpi\n        /* \"#utility.yul\":7208:7226   */\n      tag_682\n      tag_616\n      jump\t// in\n    tag_682:\n      pop\n      not(0x00)\n        /* \"#utility.yul\":7244:7262   */\n      add\n      swap1\n        /* \"#utility.yul\":7132:7268   */\n      jump\t// out\n        /* \"#utility.yul\":7273:7441   */\n    tag_234:\n        /* \"#utility.yul\":7346:7355   */\n      dup1\n      dup3\n      mul\n        /* \"#utility.yul\":7377:7386   */\n      dup2\n      iszero\n        /* \"#utility.yul\":7394:7409   */\n      dup3\n      dup3\n      div\n        /* \"#utility.yul\":7388:7410   */\n      dup5\n      eq\n        /* \"#utility.yul\":7374:7411   */\n      or\n        /* \"#utility.yul\":7364:7435   */\n      tag_679\n      jumpi\n        /* \"#utility.yul\":7415:7433   */\n      tag_679\n      tag_616\n      jump\t// in\n        /* \"#utility.yul\":7446:7574   */\n    tag_236:\n        /* \"#utility.yul\":7513:7522   */\n      dup2\n      dup2\n      sub\n        /* \"#utility.yul\":7534:7545   */\n      dup2\n      dup2\n      gt\n        /* \"#utility.yul\":7531:7568   */\n      iszero\n      tag_679\n      jumpi\n        /* \"#utility.yul\":7548:7566   */\n      tag_679\n      tag_616\n      jump\t// in\n        /* \"#utility.yul\":7579:7959   */\n    tag_243:\n        /* \"#utility.yul\":7658:7659   */\n      0x01\n        /* \"#utility.yul\":7654:7666   */\n      dup2\n      dup2\n      shr\n      swap1\n        /* \"#utility.yul\":7701:7713   */\n      dup3\n      and\n      dup1\n        /* \"#utility.yul\":7722:7783   */\n      tag_690\n      jumpi\n        /* \"#utility.yul\":7776:7780   */\n      0x7f\n        /* \"#utility.yul\":7768:7774   */\n      dup3\n        /* \"#utility.yul\":7764:7781   */\n      and\n        /* \"#utility.yul\":7754:7781   */\n      swap2\n      pop\n        /* \"#utility.yul\":7722:7783   */\n    tag_690:\n        /* \"#utility.yul\":7829:7831   */\n      0x20\n        /* \"#utility.yul\":7821:7827   */\n      dup3\n        /* \"#utility.yul\":7818:7832   */\n      lt\n        /* \"#utility.yul\":7798:7816   */\n      dup2\n        /* \"#utility.yul\":7795:7833   */\n      sub\n        /* \"#utility.yul\":7792:7953   */\n      tag_691\n      jumpi\n        /* \"#utility.yul\":7875:7885   */\n      0x4e487b71\n        /* \"#utility.yul\":7870:7873   */\n      0xe0\n        /* \"#utility.yul\":7866:7886   */\n      shl\n        /* \"#utility.yul\":7863:7864   */\n      0x00\n        /* \"#utility.yul\":7856:7887   */\n      mstore\n        /* \"#utility.yul\":7910:7914   */\n      0x22\n        /* \"#utility.yul\":7907:7908   */\n      0x04\n        /* \"#utility.yul\":7900:7915   */\n      mstore\n        /* \"#utility.yul\":7938:7942   */\n      0x24\n        /* \"#utility.yul\":7935:7936   */\n      0x00\n        /* \"#utility.yul\":7928:7943   */\n      revert\n        /* \"#utility.yul\":7792:7953   */\n    tag_691:\n      pop\n        /* \"#utility.yul\":7579:7959   */\n      swap2\n      swap1\n      pop\n      jump\t// out\n        /* \"#utility.yul\":8312:8496   */\n    tag_261:\n        /* \"#utility.yul\":8382:8388   */\n      0x00\n        /* \"#utility.yul\":8435:8437   */\n      0x20\n        /* \"#utility.yul\":8423:8432   */\n      dup3\n        /* \"#utility.yul\":8414:8421   */\n      dup5\n        /* \"#utility.yul\":8410:8433   */\n      sub\n        /* \"#utility.yul\":8406:8438   */\n      slt\n        /* \"#utility.yul\":8403:8455   */\n      iszero\n      tag_694\n      jumpi\n        /* \"#utility.yul\":8451:8452   */\n      0x00\n        /* \"#utility.yul\":8448:8449   */\n      dup1\n        /* \"#utility.yul\":8441:8453   */\n      revert\n        /* \"#utility.yul\":8403:8455   */\n    tag_694:\n      pop\n        /* \"#utility.yul\":8474:8490   */\n      mload\n      swap2\n        /* \"#utility.yul\":8312:8496   */\n      swap1\n      pop\n      jump\t// out\n        /* \"#utility.yul\":9584:9831   */\n    tag_284:\n        /* \"#utility.yul\":9652:9658   */\n      0x00\n        /* \"#utility.yul\":9705:9707   */\n      0x20\n        /* \"#utility.yul\":9693:9702   */\n      dup3\n        /* \"#utility.yul\":9684:9691   */\n      dup5\n        /* \"#utility.yul\":9680:9703   */\n      sub\n        /* \"#utility.yul\":9676:9708   */\n      slt\n        /* \"#utility.yul\":9673:9725   */\n      iszero\n      tag_699\n      jumpi\n        /* \"#utility.yul\":9721:9722   */\n      0x00\n        /* \"#utility.yul\":9718:9719   */\n      dup1\n        /* \"#utility.yul\":9711:9723   */\n      revert\n        /* \"#utility.yul\":9673:9725   */\n    tag_699:\n        /* \"#utility.yul\":9753:9762   */\n      dup2\n        /* \"#utility.yul\":9747:9763   */\n      mload\n        /* \"#utility.yul\":9772:9801   */\n      tag_627\n        /* \"#utility.yul\":9795:9800   */\n      dup2\n        /* \"#utility.yul\":9772:9801   */\n      tag_614\n      jump\t// in\n        /* \"#utility.yul\":10890:11017   */\n    tag_304:\n        /* \"#utility.yul\":10951:10961   */\n      0x4e487b71\n        /* \"#utility.yul\":10946:10949   */\n      0xe0\n        /* \"#utility.yul\":10942:10962   */\n      shl\n        /* \"#utility.yul\":10939:10940   */\n      0x00\n        /* \"#utility.yul\":10932:10963   */\n      mstore\n        /* \"#utility.yul\":10982:10986   */\n      0x32\n        /* \"#utility.yul\":10979:10980   */\n      0x04\n        /* \"#utility.yul\":10972:10987   */\n      mstore\n        /* \"#utility.yul\":11006:11010   */\n      0x24\n        /* \"#utility.yul\":11003:11004   */\n      0x00\n        /* \"#utility.yul\":10996:11011   */\n      revert\n        /* \"#utility.yul\":11022:11197   */\n    tag_308:\n        /* \"#utility.yul\":11059:11062   */\n      0x00\n        /* \"#utility.yul\":11103:11107   */\n      0xff\n        /* \"#utility.yul\":11096:11101   */\n      dup3\n        /* \"#utility.yul\":11092:11108   */\n      and\n        /* \"#utility.yul\":11132:11136   */\n      0xff\n        /* \"#utility.yul\":11123:11130   */\n      dup2\n        /* \"#utility.yul\":11120:11137   */\n      sub\n        /* \"#utility.yul\":11117:11160   */\n      tag_707\n      jumpi\n        /* \"#utility.yul\":11140:11158   */\n      tag_707\n      tag_616\n      jump\t// in\n    tag_707:\n        /* \"#utility.yul\":11189:11190   */\n      0x01\n        /* \"#utility.yul\":11176:11191   */\n      add\n      swap3\n        /* \"#utility.yul\":11022:11197   */\n      swap2\n      pop\n      pop\n      jump\t// out\n        /* \"#utility.yul\":14131:14348   */\n    tag_397:\n        /* \"#utility.yul\":14171:14172   */\n      0x00\n        /* \"#utility.yul\":14197:14198   */\n      dup3\n        /* \"#utility.yul\":14187:14319   */\n      tag_717\n      jumpi\n        /* \"#utility.yul\":14241:14251   */\n      0x4e487b71\n        /* \"#utility.yul\":14236:14239   */\n      0xe0\n        /* \"#utility.yul\":14232:14252   */\n      shl\n        /* \"#utility.yul\":14229:14230   */\n      0x00\n        /* \"#utility.yul\":14222:14253   */\n      mstore\n        /* \"#utility.yul\":14276:14280   */\n      0x12\n        /* \"#utility.yul\":14273:14274   */\n      0x04\n        /* \"#utility.yul\":14266:14281   */\n      mstore\n        /* \"#utility.yul\":14304:14308   */\n      0x24\n        /* \"#utility.yul\":14301:14302   */\n      0x00\n        /* \"#utility.yul\":14294:14309   */\n      revert\n        /* \"#utility.yul\":14187:14319   */\n    tag_717:\n      pop\n        /* \"#utility.yul\":14333:14342   */\n      div\n      swap1\n        /* \"#utility.yul\":14131:14348   */\n      jump\t// out\n        /* \"#utility.yul\":15345:15480   */\n    tag_423:\n        /* \"#utility.yul\":15384:15387   */\n      0x00\n        /* \"#utility.yul\":15405:15422   */\n      0x01\n      dup3\n      add\n        /* \"#utility.yul\":15402:15445   */\n      tag_723\n      jumpi\n        /* \"#utility.yul\":15425:15443   */\n      tag_723\n      tag_616\n      jump\t// in\n    tag_723:\n      pop\n        /* \"#utility.yul\":15472:15473   */\n      0x01\n        /* \"#utility.yul\":15461:15474   */\n      add\n      swap1\n        /* \"#utility.yul\":15345:15480   */\n      jump\t// out\n        /* \"#utility.yul\":19071:19616   */\n    tag_618:\n        /* \"#utility.yul\":19173:19175   */\n      0x1f\n        /* \"#utility.yul\":19168:19171   */\n      dup3\n        /* \"#utility.yul\":19165:19176   */\n      gt\n        /* \"#utility.yul\":19162:19610   */\n      iszero\n      tag_324\n      jumpi\n        /* \"#utility.yul\":19209:19210   */\n      0x00\n        /* \"#utility.yul\":19234:19239   */\n      dup2\n        /* \"#utility.yul\":19230:19232   */\n      dup2\n        /* \"#utility.yul\":19223:19240   */\n      mstore\n        /* \"#utility.yul\":19279:19283   */\n      0x20\n        /* \"#utility.yul\":19275:19277   */\n      dup2\n        /* \"#utility.yul\":19265:19284   */\n      keccak256\n        /* \"#utility.yul\":19349:19351   */\n      0x1f\n        /* \"#utility.yul\":19337:19347   */\n      dup6\n        /* \"#utility.yul\":19333:19352   */\n      add\n        /* \"#utility.yul\":19330:19331   */\n      0x05\n        /* \"#utility.yul\":19326:19353   */\n      shr\n        /* \"#utility.yul\":19320:19324   */\n      dup2\n        /* \"#utility.yul\":19316:19354   */\n      add\n        /* \"#utility.yul\":19385:19389   */\n      0x20\n        /* \"#utility.yul\":19373:19383   */\n      dup7\n        /* \"#utility.yul\":19370:19390   */\n      lt\n        /* \"#utility.yul\":19367:19414   */\n      iszero\n      tag_737\n      jumpi\n      pop\n        /* \"#utility.yul\":19408:19412   */\n      dup1\n        /* \"#utility.yul\":19367:19414   */\n    tag_737:\n        /* \"#utility.yul\":19463:19465   */\n      0x1f\n        /* \"#utility.yul\":19458:19461   */\n      dup6\n        /* \"#utility.yul\":19454:19466   */\n      add\n        /* \"#utility.yul\":19451:19452   */\n      0x05\n        /* \"#utility.yul\":19447:19467   */\n      shr\n        /* \"#utility.yul\":19441:19445   */\n      dup3\n        /* \"#utility.yul\":19437:19468   */\n      add\n        /* \"#utility.yul\":19427:19468   */\n      swap2\n      pop\n        /* \"#utility.yul\":19518:19600   */\n    tag_738:\n        /* \"#utility.yul\":19536:19538   */\n      dup2\n        /* \"#utility.yul\":19529:19534   */\n      dup2\n        /* \"#utility.yul\":19526:19539   */\n      lt\n        /* \"#utility.yul\":19518:19600   */\n      iszero\n      tag_740\n      jumpi\n        /* \"#utility.yul\":19581:19598   */\n      dup3\n      dup2\n      sstore\n        /* \"#utility.yul\":19562:19563   */\n      0x01\n        /* \"#utility.yul\":19551:19564   */\n      add\n        /* \"#utility.yul\":19518:19600   */\n      jump(tag_738)\n    tag_740:\n        /* \"#utility.yul\":19522:19525   */\n      pop\n      pop\n      pop\n        /* \"#utility.yul\":19071:19616   */\n      pop\n      pop\n      pop\n      jump\t// out\n        /* \"#utility.yul\":19792:21144   */\n    tag_487:\n        /* \"#utility.yul\":19918:19921   */\n      dup2\n        /* \"#utility.yul\":19912:19922   */\n      mload\n        /* \"#utility.yul\":19945:19963   */\n      0xffffffffffffffff\n        /* \"#utility.yul\":19937:19943   */\n      dup2\n        /* \"#utility.yul\":19934:19964   */\n      gt\n        /* \"#utility.yul\":19931:19987   */\n      iszero\n      tag_744\n      jumpi\n        /* \"#utility.yul\":19967:19985   */\n      tag_744\n      tag_615\n      jump\t// in\n    tag_744:\n        /* \"#utility.yul\":19996:20093   */\n      tag_745\n        /* \"#utility.yul\":20086:20092   */\n      dup2\n        /* \"#utility.yul\":20046:20084   */\n      tag_746\n        /* \"#utility.yul\":20078:20082   */\n      dup5\n        /* \"#utility.yul\":20072:20083   */\n      sload\n        /* \"#utility.yul\":20046:20084   */\n      tag_243\n      jump\t// in\n    tag_746:\n        /* \"#utility.yul\":20040:20044   */\n      dup5\n        /* \"#utility.yul\":19996:20093   */\n      tag_618\n      jump\t// in\n    tag_745:\n        /* \"#utility.yul\":20148:20152   */\n      0x20\n      dup1\n        /* \"#utility.yul\":20212:20214   */\n      0x1f\n        /* \"#utility.yul\":20201:20215   */\n      dup4\n      gt\n        /* \"#utility.yul\":20229:20230   */\n      0x01\n        /* \"#utility.yul\":20224:20887   */\n      dup2\n      eq\n      tag_748\n      jumpi\n        /* \"#utility.yul\":20931:20932   */\n      0x00\n        /* \"#utility.yul\":20948:20954   */\n      dup5\n        /* \"#utility.yul\":20945:21034   */\n      iszero\n      tag_749\n      jumpi\n      pop\n        /* \"#utility.yul\":21000:21019   */\n      dup6\n      dup4\n      add\n        /* \"#utility.yul\":20994:21020   */\n      mload\n        /* \"#utility.yul\":20945:21034   */\n    tag_749:\n      not(0x00)\n        /* \"#utility.yul\":19749:19750   */\n      0x03\n        /* \"#utility.yul\":19745:19756   */\n      dup7\n      swap1\n      shl\n        /* \"#utility.yul\":19741:19765   */\n      shr\n        /* \"#utility.yul\":19737:19766   */\n      not\n        /* \"#utility.yul\":19727:19767   */\n      and\n        /* \"#utility.yul\":19773:19774   */\n      0x01\n        /* \"#utility.yul\":19769:19780   */\n      dup6\n      swap1\n      shl\n        /* \"#utility.yul\":19724:19781   */\n      or\n        /* \"#utility.yul\":21047:21128   */\n      dup6\n      sstore\n        /* \"#utility.yul\":20194:21138   */\n      jump(tag_740)\n        /* \"#utility.yul\":20224:20887   */\n    tag_748:\n        /* \"#utility.yul\":19018:19019   */\n      0x00\n        /* \"#utility.yul\":19011:19025   */\n      dup6\n      dup2\n      mstore\n        /* \"#utility.yul\":19055:19059   */\n      0x20\n        /* \"#utility.yul\":19042:19060   */\n      dup2\n      keccak256\n      not(0x1f)\n        /* \"#utility.yul\":20260:20280   */\n      dup7\n      and\n      swap2\n        /* \"#utility.yul\":20378:20614   */\n    tag_752:\n        /* \"#utility.yul\":20392:20399   */\n      dup3\n        /* \"#utility.yul\":20389:20390   */\n      dup2\n        /* \"#utility.yul\":20386:20400   */\n      lt\n        /* \"#utility.yul\":20378:20614   */\n      iszero\n      tag_754\n      jumpi\n        /* \"#utility.yul\":20481:20500   */\n      dup9\n      dup7\n      add\n        /* \"#utility.yul\":20475:20501   */\n      mload\n        /* \"#utility.yul\":20460:20502   */\n      dup3\n      sstore\n        /* \"#utility.yul\":20573:20600   */\n      swap5\n      dup5\n      add\n      swap5\n        /* \"#utility.yul\":20541:20542   */\n      0x01\n        /* \"#utility.yul\":20529:20543   */\n      swap1\n      swap2\n      add\n      swap1\n        /* \"#utility.yul\":20408:20427   */\n      dup5\n      add\n        /* \"#utility.yul\":20378:20614   */\n      jump(tag_752)\n    tag_754:\n        /* \"#utility.yul\":20382:20385   */\n      pop\n        /* \"#utility.yul\":20642:20648   */\n      dup6\n        /* \"#utility.yul\":20633:20640   */\n      dup3\n        /* \"#utility.yul\":20630:20649   */\n      lt\n        /* \"#utility.yul\":20627:20828   */\n      iszero\n      tag_755\n      jumpi\n        /* \"#utility.yul\":20703:20722   */\n      dup8\n      dup6\n      add\n        /* \"#utility.yul\":20697:20723   */\n      mload\n      not(0x00)\n        /* \"#utility.yul\":20786:20787   */\n      0x03\n        /* \"#utility.yul\":20782:20796   */\n      dup9\n      swap1\n      shl\n        /* \"#utility.yul\":20798:20801   */\n      0xf8\n        /* \"#utility.yul\":20778:20802   */\n      and\n        /* \"#utility.yul\":20774:20811   */\n      shr\n        /* \"#utility.yul\":20770:20812   */\n      not\n        /* \"#utility.yul\":20755:20813   */\n      and\n        /* \"#utility.yul\":20740:20814   */\n      dup2\n      sstore\n        /* \"#utility.yul\":20627:20828   */\n    tag_755:\n      pop\n      pop\n      pop\n      pop\n      pop\n        /* \"#utility.yul\":20874:20875   */\n      0x01\n        /* \"#utility.yul\":20858:20872   */\n      swap1\n      dup2\n      shl\n        /* \"#utility.yul\":20854:20876   */\n      add\n        /* \"#utility.yul\":20841:20877   */\n      swap1\n      sstore\n      pop\n        /* \"#utility.yul\":19792:21144   */\n      jump\t// out\n        /* \"#utility.yul\":21149:21584   */\n    tag_497:\n        /* \"#utility.yul\":21382:21388   */\n      dup5\n        /* \"#utility.yul\":21371:21380   */\n      dup2\n        /* \"#utility.yul\":21364:21389   */\n      mstore\n        /* \"#utility.yul\":21425:21431   */\n      dup4\n        /* \"#utility.yul\":21420:21422   */\n      0x20\n        /* \"#utility.yul\":21409:21418   */\n      dup3\n        /* \"#utility.yul\":21405:21423   */\n      add\n        /* \"#utility.yul\":21398:21432   */\n      mstore\n        /* \"#utility.yul\":21468:21474   */\n      dup3\n        /* \"#utility.yul\":21463:21465   */\n      0x40\n        /* \"#utility.yul\":21452:21461   */\n      dup3\n        /* \"#utility.yul\":21448:21466   */\n      add\n        /* \"#utility.yul\":21441:21475   */\n      mstore\n        /* \"#utility.yul\":21511:21514   */\n      0x80\n        /* \"#utility.yul\":21506:21508   */\n      0x60\n        /* \"#utility.yul\":21495:21504   */\n      dup3\n        /* \"#utility.yul\":21491:21509   */\n      add\n        /* \"#utility.yul\":21484:21515   */\n      mstore\n        /* \"#utility.yul\":21345:21349   */\n      0x00\n        /* \"#utility.yul\":21532:21578   */\n      tag_757\n        /* \"#utility.yul\":21573:21576   */\n      0x80\n        /* \"#utility.yul\":21562:21571   */\n      dup4\n        /* \"#utility.yul\":21558:21577   */\n      add\n        /* \"#utility.yul\":21550:21556   */\n      dup5\n        /* \"#utility.yul\":21532:21578   */\n      tag_612\n      jump\t// in\n    tag_757:\n        /* \"#utility.yul\":21524:21578   */\n      swap7\n        /* \"#utility.yul\":21149:21584   */\n      swap6\n      pop\n      pop\n      pop\n      pop\n      pop\n      pop\n      jump\t// out\n        /* \"#utility.yul\":21942:22905   */\n    tag_511:\n        /* \"#utility.yul\":22051:22055   */\n      0x00\n        /* \"#utility.yul\":22080:22082   */\n      0x20\n        /* \"#utility.yul\":22109:22111   */\n      dup1\n        /* \"#utility.yul\":22098:22107   */\n      dup4\n        /* \"#utility.yul\":22091:22112   */\n      mstore\n        /* \"#utility.yul\":22132:22133   */\n      0x00\n        /* \"#utility.yul\":22165:22171   */\n      dup5\n        /* \"#utility.yul\":22159:22172   */\n      sload\n        /* \"#utility.yul\":22195:22231   */\n      tag_760\n        /* \"#utility.yul\":22221:22230   */\n      dup2\n        /* \"#utility.yul\":22195:22231   */\n      tag_243\n      jump\t// in\n    tag_760:\n        /* \"#utility.yul\":22267:22273   */\n      dup1\n        /* \"#utility.yul\":22262:22264   */\n      dup5\n        /* \"#utility.yul\":22251:22260   */\n      dup8\n        /* \"#utility.yul\":22247:22265   */\n      add\n        /* \"#utility.yul\":22240:22274   */\n      mstore\n        /* \"#utility.yul\":22293:22295   */\n      0x40\n        /* \"#utility.yul\":22314:22315   */\n      0x01\n        /* \"#utility.yul\":22346:22348   */\n      dup1\n        /* \"#utility.yul\":22335:22344   */\n      dup5\n        /* \"#utility.yul\":22331:22349   */\n      and\n        /* \"#utility.yul\":22363:22364   */\n      0x00\n        /* \"#utility.yul\":22358:22516   */\n      dup2\n      eq\n      tag_762\n      jumpi\n        /* \"#utility.yul\":22530:22531   */\n      0x01\n        /* \"#utility.yul\":22525:22879   */\n      dup2\n      eq\n      tag_763\n      jumpi\n        /* \"#utility.yul\":22324:22879   */\n      jump(tag_761)\n        /* \"#utility.yul\":22358:22516   */\n    tag_762:\n      not(0xff)\n        /* \"#utility.yul\":22406:22430   */\n      dup6\n      and\n        /* \"#utility.yul\":22386:22404   */\n      dup10\n      dup5\n      add\n        /* \"#utility.yul\":22379:22431   */\n      mstore\n        /* \"#utility.yul\":22484:22498   */\n      dup4\n      iszero\n        /* \"#utility.yul\":22477:22499   */\n      iszero\n        /* \"#utility.yul\":22474:22475   */\n      0x05\n        /* \"#utility.yul\":22470:22500   */\n      shl\n        /* \"#utility.yul\":22455:22501   */\n      dup10\n      add\n        /* \"#utility.yul\":22451:22506   */\n      dup4\n      add\n      swap6\n      pop\n        /* \"#utility.yul\":22358:22516   */\n      jump(tag_761)\n        /* \"#utility.yul\":22525:22879   */\n    tag_763:\n        /* \"#utility.yul\":22556:22562   */\n      dup10\n        /* \"#utility.yul\":22553:22554   */\n      0x00\n        /* \"#utility.yul\":22546:22563   */\n      mstore\n        /* \"#utility.yul\":22604:22606   */\n      dup7\n        /* \"#utility.yul\":22601:22602   */\n      0x00\n        /* \"#utility.yul\":22591:22607   */\n      keccak256\n        /* \"#utility.yul\":22629:22630   */\n      0x00\n        /* \"#utility.yul\":22643:22823   */\n    tag_764:\n        /* \"#utility.yul\":22657:22663   */\n      dup6\n        /* \"#utility.yul\":22654:22655   */\n      dup2\n        /* \"#utility.yul\":22651:22664   */\n      lt\n        /* \"#utility.yul\":22643:22823   */\n      iszero\n      tag_766\n      jumpi\n        /* \"#utility.yul\":22750:22764   */\n      dup2\n      sload\n        /* \"#utility.yul\":22726:22743   */\n      dup12\n      dup3\n      add\n        /* \"#utility.yul\":22722:22748   */\n      dup7\n      add\n        /* \"#utility.yul\":22715:22765   */\n      mstore\n        /* \"#utility.yul\":22793:22809   */\n      swap1\n      dup4\n      add\n      swap1\n        /* \"#utility.yul\":22672:22682   */\n      dup9\n      add\n        /* \"#utility.yul\":22643:22823   */\n      jump(tag_764)\n    tag_766:\n        /* \"#utility.yul\":22847:22864   */\n      dup11\n      add\n        /* \"#utility.yul\":22843:22869   */\n      dup5\n      add\n      swap7\n      pop\n      pop\n        /* \"#utility.yul\":22324:22879   */\n    tag_761:\n      pop\n        /* \"#utility.yul\":22896:22899   */\n      swap4\n      swap9\n        /* \"#utility.yul\":21942:22905   */\n      swap8\n      pop\n      pop\n      pop\n      pop\n      pop\n      pop\n      pop\n      pop\n      jump\t// out\n        /* \"#utility.yul\":23952:24172   */\n    tag_529:\n        /* \"#utility.yul\":24101:24103   */\n      0x20\n        /* \"#utility.yul\":24090:24099   */\n      dup2\n        /* \"#utility.yul\":24083:24104   */\n      mstore\n        /* \"#utility.yul\":24064:24068   */\n      0x00\n        /* \"#utility.yul\":24121:24166   */\n      tag_627\n        /* \"#utility.yul\":24162:24164   */\n      0x20\n        /* \"#utility.yul\":24151:24160   */\n      dup4\n        /* \"#utility.yul\":24147:24165   */\n      add\n        /* \"#utility.yul\":24139:24145   */\n      dup5\n        /* \"#utility.yul\":24121:24166   */\n      tag_612\n      jump\t// in\n\n    auxdata: 0xa264697066735822122083c4fddaa4c8167ef62a0f5a88806f11aa9dadcf2002edb86c259c925355b63764736f6c63430008140033\n}\n",
				"bytecode": {
					"linkReferences": {},
					"object": "61016060405261012c608090815260c860a052606460c081905260e0819052610100526032610120526019610140526200003e9060029060076200056d565b50605a600c5534801562000050575f80fd5b5060405162003813380380620038138339810160408190526200007391620005e8565b33806200009a57604051631e4fbdf760e01b81525f60048201526024015b60405180910390fd5b620000a5816200051e565b50600180556001600160a01b038316620000f65760405162461bcd60e51b815260206004820152601160248201527014dd5898591b5a5b881c995c5d5a5c9959607a1b604482015260640162000091565b6001600160a01b038216158015906200011757506001600160a01b03811615155b620001575760405162461bcd60e51b815260206004820152600f60248201526e151bdad95b9cc81c995c5d5a5c9959608a1b604482015260640162000091565b600b80546001600160a01b038086166001600160a01b031992831617909255600980548584169083168117909155600a8054938516939092169290921790556040805163313ce56760e01b8152905163313ce567916004808201926020929091908290030181865afa158015620001d0573d5f803e3d5ffd5b505050506040513d601f19601f82011682018060405250810190620001f691906200062f565b600b60146101000a81548160ff021916908360ff160217905550806001600160a01b031663313ce5676040518163ffffffff1660e01b8152600401602060405180830381865afa1580156200024d573d5f803e3d5ffd5b505050506040513d601f19601f820116820180604052508101906200027391906200062f565b600b805460ff92909216600160a81b0260ff60a81b199092169190911790556001600160a01b038083165f908152600d6020526040808220805460ff19908116600190811790925593851683529120805490921681179091555b60098111620003e9576040805160c08101825282815281518083018352600881526714dd185b99185c9960c21b6020828101919091528083019182525f8385018190526001606085018190526080850182905260a0850182905286825260109092529390932082518155905191929091908201906200034d9082620006f8565b5060408281015160028301556060830151600383018054608086015115156101000261ff00199315159390931661ffff199091161791909117905560a0909201516004909101555181905f80516020620037f383398151915290620003ce9060208082526008908201526714dd185b99185c9960c21b604082015260600190565b60405180910390a2620003e181620007d4565b9050620002cd565b600c811162000503576040805160c0810182528281528151808301835260078152664c6f747465727960c81b6020828101919091528083019182525f8385018190526001606085018190526080850182905260a085018290528682526010909252939093208251815590519192909190820190620004689082620006f8565b5060408281015160028301556060830151600383018054608086015115156101000261ff00199315159390931661ffff199091161791909117905560a0909201516004909101555181905f80516020620037f383398151915290620004e8906020808252600790820152664c6f747465727960c81b604082015260600190565b60405180910390a2620004fb81620007d4565b9050620003e9565b62000510600182620007ef565b601155506200080b92505050565b5f80546001600160a01b038381166001600160a01b0319831681178455604051919092169283917f8be0079c531659141344cd1fd0a4f28419497f9722a3daafe3b4186f6b6457e09190a35050565b8260078101928215620005a4579160200282015b82811115620005a4578251829061ffff1690559160200191906001019062000581565b50620005b2929150620005b6565b5090565b5b80821115620005b2575f8155600101620005b7565b80516001600160a01b0381168114620005e3575f80fd5b919050565b5f805f60608486031215620005fb575f80fd5b6200060684620005cc565b92506200061660208501620005cc565b91506200062660408501620005cc565b90509250925092565b5f6020828403121562000640575f80fd5b815160ff8116811462000651575f80fd5b9392505050565b634e487b7160e01b5f52604160045260245ffd5b600181811c908216806200068157607f821691505b602082108103620006a057634e487b7160e01b5f52602260045260245ffd5b50919050565b601f821115620006f3575f81815260208120601f850160051c81016020861015620006ce5750805b601f850160051c820191505b81811015620006ef57828155600101620006da565b5050505b505050565b81516001600160401b0381111562000714576200071462000658565b6200072c816200072584546200066c565b84620006a6565b602080601f83116001811462000762575f84156200074a5750858301515b5f19600386901b1c1916600185901b178555620006ef565b5f85815260208120601f198616915b82811015620007925788860151825594840194600190910190840162000771565b5085821015620007b057878501515f19600388901b60f8161c191681555b5050505050600190811b01905550565b634e487b7160e01b5f52601160045260245ffd5b5f60018201620007e857620007e8620007c0565b5060010190565b81810381811115620008055762000805620007c0565b92915050565b612fda80620008195f395ff3fe608060405234801561000f575f80fd5b506004361061028b575f3560e01c80637675243511610161578063bcaf0d95116100ca578063e22d0a8211610084578063e22d0a8214610607578063e7780f281461062f578063eddaa3ab1461064e578063f2fde38b1461065b578063f8b55f4f1461066e578063fe575a871461067e575f80fd5b8063bcaf0d95146105c9578063c885bc58146105d2578063d66aafa6146105da578063dc810925146105e3578063ddbb48d6146105ec578063e1e55fbf146105ff575f80fd5b8063a87430ba1161011b578063a87430ba146104e3578063ac4afa3814610560578063b1b358d414610585578063b1ced5e714610598578063b380744d146105a3578063bc0ca177146105b6575f80fd5b806376752435146104745780637bb5ee4b1461048757806381caedf11461049a5780638995bc60146104ad5780638da5cb5b146104c0578063a3a83649146104d0575f80fd5b80633b38bf7211610203578063600d20ce116101bd578063600d20ce146103ea57806366a4b6c0146103fd5780636afbd41514610423578063715018a614610436578063753d75631461043e578063755e1fee14610460575f80fd5b80633b38bf72146103825780634420e4861461039557806344386321146103a85780634b67e948146103bb5780634ba05906146103ce578063569a7dfd146103d7575f80fd5b8063166b836f11610254578063166b836f146102f957806317b7213714610308578063181187871461032d578063239cc1dd14610337578063254c43261461035b578063367631d71461036f575f80fd5b80627da2581461028f5780630e3a83a4146102aa578063106ca23c146102d557806311ccdf8c146102de578063149b6b1f146102e6575b5f80fd5b6102976106a0565b6040519081526020015b60405180910390f35b600e546102bd906001600160a01b031681565b6040516001600160a01b0390911681526020016102a1565b61029760185481565b6102976106ca565b6102976102f43660046129b0565b61070f565b6102976798a7d9b8314c000081565b61031b6103163660046129d0565b610783565b6040516102a196959493929190612a33565b61033561086c565b005b600f5461034b90600160a81b900460ff1681565b60405190151581526020016102a1565b600f5461034b90600160a01b900460ff1681565b61033561037d3660046129b0565b610a71565b610335610390366004612a7a565b610bb2565b6103356103a33660046129b0565b610e06565b600a546102bd906001600160a01b031681565b6103356103c9366004612aab565b61109d565b61029760115481565b6103356103e5366004612af3565b6111c7565b6102976103f8366004612b0c565b611210565b600b5461041190600160a81b900460ff1681565b60405160ff90911681526020016102a1565b600b546102bd906001600160a01b031681565b610335611226565b61034b61044c3660046129b0565b600d6020525f908152604090205460ff1681565b600b5461041190600160a01b900460ff1681565b6103356104823660046129b0565b611237565b600f546102bd906001600160a01b031681565b6103356104a8366004612b0c565b611371565b6103356104bb366004612b31565b611449565b5f546001600160a01b03166102bd565b6009546102bd906001600160a01b031681565b61052c6104f13660046129b0565b60146020525f9081526040902080546009820154600a830154600b840154600c909401546001600160a01b0390931693919290919060ff1685565b604080516001600160a01b03909616865260208601949094529284019190915260608301521515608082015260a0016102a1565b61057361056e366004612b0c565b611485565b6040516102a196959493929190612b68565b610335610593366004612b0c565b611549565b610297633b9aca0081565b6103356105b1366004612ba5565b611880565b6103356105c4366004612be2565b6121ee565b610297600c5481565b6103356123c8565b61029760195481565b61029760125481565b6103356105fa366004612b0c565b61253d565b610297606481565b6102976106153660046129b0565b6001600160a01b03165f9081526015602052604090205490565b61029761063d3660046129b0565b60156020525f908152604090205481565b60175461034b9060ff1681565b6103356106693660046129b0565b612619565b610297683635c9adc5dea0000081565b61034b61068c3660046129b0565b60166020525f908152604090205460ff1681565b5f8060115460016106b19190612cab565b9050633b9aca0081116106c357919050565b5f91505090565b6011545f905b60018110610708575f8181526010602052604090206003015460ff16156106f657919050565b8061070081612cc4565b9150506106d0565b505f905090565b6001600160a01b0381165f9081526014602052604081206009810154829061073990600390612cd9565b90505f82600b015483600a01546107509190612cf0565b9050818184600b01546107639190612cab565b111561077b57600b8301546107789083612cf0565b90505b949350505050565b6013602052815f5260405f20818154811061079c575f80fd5b5f918252602090912060069091020180546001820154600283015460038401546004850180549497506001600160a01b039093169550909390929091906107e290612d03565b80601f016020809104026020016040519081016040528092919081815260200182805461080e90612d03565b80156108595780601f1061083057610100808354040283529160200191610859565b820191905f5260205f20905b81548152906001019060200180831161083c57829003601f168201915b5050506005909301549192505060ff1686565b610874612653565b335f8181526014602052604081209161088c9061070f565b9050683635c9adc5dea000008110156108e25760405162461bcd60e51b81526020600482015260136024820152724e6f7420656e6f75676820746f20636c61696d60681b60448201526064015b60405180910390fd5b8082600b015f8282546108f59190612cab565b90915550506009546040516370a0823160e01b815230600482015282916001600160a01b0316906370a0823190602401602060405180830381865afa158015610940573d5f803e3d5ffd5b505050506040513d601f19601f820116820180604052508101906109649190612d3b565b10156109a65760405162461bcd60e51b8152602060048201526011602482015270496e73756666696369656e7420494e523160781b60448201526064016108d9565b6009546109bd906001600160a01b031633836126ac565b60405181815233907f5be4d22009fea85381595ed91090bc5c0bc92a93fe07ed7472c5888eb1993f839060200160405180910390a2336001600160a01b03167fdd8025b728f6881d55401ec3c5f58bac7e135a199306892b83593f9bf4bfe23a83600a0154610a2b3361070f565b85600b015460038760090154610a419190612cd9565b60408051948552602085019390935291830152606082015260800160405180910390a25050610a6f60018055565b565b610a7961270b565b6001600160a01b038116610abe5760405162461bcd60e51b815260206004820152600c60248201526b5a65726f206164647265737360a01b60448201526064016108d9565b600980546001600160a01b0319166001600160a01b0383169081179091556040805163313ce56760e01b8152905163313ce567916004808201926020929091908290030181865afa158015610b15573d5f803e3d5ffd5b505050506040513d601f19601f82011682018060405250810190610b399190612d52565b600b805460ff92909216600160a01b0260ff60a01b199092169190911790556001600160a01b0381165f818152600d6020908152604091829020805460ff1916600117905590519182527feccc870b3d8d88fd5923d96e7a466768a74b6c48460640cf23aa6162aa4f80f091015b60405180910390a150565b610bba61270b565b806001600160a01b0316826001600160a01b031603610c0f5760405162461bcd60e51b815260206004820152601160248201527021b0b73737ba103932b332b91039b2b63360791b60448201526064016108d9565b6001600160a01b0382165f908152601460205260409020600c015460ff16610c795760405162461bcd60e51b815260206004820152601760248201527f55736572206d757374206265207265676973746572656400000000000000000060448201526064016108d9565b6001600160a01b0381161580610ca957506001600160a01b0381165f908152601460205260409020600c015460ff165b610cf55760405162461bcd60e51b815260206004820152601b60248201527f5265666572726572206d7573742062652072656769737465726564000000000060448201526064016108d9565b6001600160a01b038083165f90815260146020526040812080548484166001600160a01b03198216179091559091169082905b600760ff82161015610db5576001600160a01b0385165f908152601460205260409020829060010160ff831660078110610d6457610d64612d6d565b0180546001600160a01b0319166001600160a01b03928316179055821615610db5576001600160a01b039182165f908152601460205260409020549091169080610dad81612d81565b915050610d28565b50826001600160a01b0316826001600160a01b0316856001600160a01b03167ff8b9fe4d008320e6f048c61e41e9cc56ce351354ad0cb9a868bd3c4bd6928fd560405160405180910390a450505050565b335f908152601460205260409020600c015460ff1615610e5d5760405162461bcd60e51b8152602060048201526012602482015271105b1c9958591e481c9959da5cdd195c995960721b60448201526064016108d9565b6001600160a01b0381161580610e8d57506001600160a01b0381165f908152601460205260409020600c015460ff165b610ed95760405162461bcd60e51b815260206004820152601b60248201527f5265666572726572206d7573742062652072656769737465726564000000000060448201526064016108d9565b336001600160a01b03821603610f255760405162461bcd60e51b815260206004820152601160248201527021b0b73737ba103932b332b91039b2b63360791b60448201526064016108d9565b6001600160a01b03811615610fd9576001600160a01b0381165f90815260146020526040902060080154602411610f9e5760405162461bcd60e51b815260206004820152601b60248201527f44697265637420726566657272616c206361702072656163686564000000000060448201526064016108d9565b6001600160a01b0381165f9081526014602090815260408220600801805460018101825590835291200180546001600160a01b031916331790555b335f908152601460205260408120600c8101805460ff1916600117905580546001600160a01b0384166001600160a01b031990911617905581905b600760ff8216101561109857335f908152601460205260409020829060010160ff83166007811061104757611047612d6d565b0180546001600160a01b0319166001600160a01b03928316179055821615611098576001600160a01b039182165f90815260146020526040902054909116908061109081612d81565b915050611014565b505050565b6110a561270b565b6040516370a0823160e01b815230600482015282906001600160a01b038516906370a0823190602401602060405180830381865afa1580156110e9573d5f803e3d5ffd5b505050506040513d601f19601f8201168201806040525081019061110d9190612d3b565b101561115b5760405162461bcd60e51b815260206004820152601e60248201527f496e73756666696369656e7420746f6b656e20696e20636f6e7472616374000060448201526064016108d9565b61116f6001600160a01b03841682846126ac565b60408051818152600a8183015269041646d696e53776565760b41b60608201526020810184905290517f32f91af51d2a8bbeb2808ffa648f1c5072f1c1ccdb64b39d003f051b496cc9849181900360800190a1505050565b6111cf61270b565b6017805460ff19168215159081179091556040519081527f24df690cf3950b574129729bee40a9933d0f3b2d05dcd721c00d64570351edb190602001610ba7565b6002816007811061121f575f80fd5b0154905081565b61122e61270b565b610a6f5f612737565b61123f61270b565b6001600160a01b0381166112845760405162461bcd60e51b815260206004820152600c60248201526b5a65726f206164647265737360a01b60448201526064016108d9565b600a80546001600160a01b0319166001600160a01b0383169081179091556040805163313ce56760e01b8152905163313ce567916004808201926020929091908290030181865afa1580156112db573d5f803e3d5ffd5b505050506040513d601f19601f820116820180604052508101906112ff9190612d52565b600b805460ff92909216600160a81b0260ff60a81b199092169190911790556001600160a01b0381165f818152600d6020908152604091829020805460ff1916600117905590519182527f2eebb86337116bb829d157848909e2848e7b06bb7f91f788c9de450c63a804dc9101610ba7565b61137961270b565b6018548111156113cb5760405162461bcd60e51b815260206004820152601b60248201527f4e6f7420656e6f7567682072657365727665207472656173757279000000000060448201526064016108d9565b8060185f8282546113dc9190612cf0565b90915550506009546113f8906001600160a01b031633836126ac565b60408051818152600791810191909152665265736572766560c81b6060820152602081018290527f32f91af51d2a8bbeb2808ffa648f1c5072f1c1ccdb64b39d003f051b496cc98490608001610ba7565b61145161270b565b600b805461ffff60a01b1916600160a01b60ff9485160260ff60a81b191617600160a81b9290931691909102919091179055565b60106020525f9081526040902080546001820180549192916114a690612d03565b80601f01602080910402602001604051908101604052809291908181526020018280546114d290612d03565b801561151d5780601f106114f45761010080835404028352916020019161151d565b820191905f5260205f20905b81548152906001019060200180831161150057829003601f168201915b505050600284015460038501546004909501549394909360ff8083169450610100909204909116915086565b61155161270b565b611559612653565b5f81815260106020526040902060028101546115a95760405162461bcd60e51b815260206004820152600f60248201526e141bdbdb081b9bdd08199a5b1b1959608a1b60448201526064016108d9565b6003810154610100900460ff16156115f65760405162461bcd60e51b815260206004820152601060248201526f105b1c9958591e481c185a59081bdd5d60821b60448201526064016108d9565b5f60125460185460195461160a9190612cab565b611615906064612cd9565b61161f9190612d9f565b9050603c81101561167e5760405162461bcd60e51b8152602060048201526024808201527f496e73756666696369656e7420616476616e63652066756e647320286d696e206044820152633630252960e01b60648201526084016108d9565b5f5b5f84815260136020526040902054811015611862575f8481526013602052604081208054839081106116b4576116b4612d6d565b5f9182526020909120600690910201600581015490915060ff16806116db57506002810154155b156116e65750611852565b600281015460038201545f906064906116ff9084612cd9565b6117099190612d9f565b90505f6117168284612cab565b90505f6064611726836002612cd9565b6117309190612d9f565b90508060185f8282546117439190612cab565b9091555061175390508183612cf0565b60018601546001600160a01b03165f908152601560205260408120805490919061177e908490612cab565b909155505060058501805460ff1916600190811790915585015485546001600160a01b03909116907f807c2c73192f2d30961a7d01ec8dc57115a4cd9f9bd0434331beacb916c6a8cc908b906117d48587612cf0565b6040805193845260208401929092529082015260600160405180910390a26001858101546001600160a01b03165f818152601560209081526040918290205482519081529081019390935290917f3dd4fda5ffeb4c7e45847fa82b4227a234840395a1170e170bba47db13fbfff8910160405180910390a250505050505b61185b81612dbe565b9050611680565b5050600301805461ffff191661010017905561187d60018055565b50565b60175460ff16156118cc5760405162461bcd60e51b8152602060048201526016602482015275456d657267656e63793a204e6f206465706f7369747360501b60448201526064016108d9565b6118d4612653565b335f908152601460205260409020600c015460ff166119265760405162461bcd60e51b815260206004820152600e60248201526d139bdd081c9959da5cdd195c995960921b60448201526064016108d9565b335f9081526016602052604090205460ff16156119735760405162461bcd60e51b815260206004820152600b60248201526a109b1858dadb1a5cdd195960aa1b60448201526064016108d9565b5f8161198a576009546001600160a01b0316611997565b600a546001600160a01b03165b6001600160a01b0381165f908152600d602052604090205490915060ff166119f95760405162461bcd60e51b8152602060048201526015602482015274151bdad95b881b9bdd081dda1a5d195b1a5cdd1959605a1b60448201526064016108d9565b5f8215611b2e576798a7d9b8314c0000841015611a515760405162461bcd60e51b815260206004820152601660248201527542656c6f77206d696e207374616b652028555344312960501b60448201526064016108d9565b600a546040516370a0823160e01b815233600482015285916001600160a01b0316906370a0823190602401602060405180830381865afa158015611a97573d5f803e3d5ffd5b505050506040513d601f19601f82011682018060405250810190611abb9190612d3b565b1015611afd5760405162461bcd60e51b8152602060048201526011602482015270496e73756666696369656e74205553443160781b60448201526064016108d9565b600a54611b15906001600160a01b0316333087612786565b611b276798a7d9b8314c000085612d9f565b9050611c5a565b683635c9adc5dea00000841015611b805760405162461bcd60e51b815260206004820152601660248201527542656c6f77206d696e207374616b652028494e52312960501b60448201526064016108d9565b6009546040516370a0823160e01b815233600482015285916001600160a01b0316906370a0823190602401602060405180830381865afa158015611bc6573d5f803e3d5ffd5b505050506040513d601f19601f82011682018060405250810190611bea9190612d3b565b1015611c2c5760405162461bcd60e51b8152602060048201526011602482015270496e73756666696369656e7420494e523160781b60448201526064016108d9565b600954611c44906001600160a01b0316333087612786565b611c57683635c9adc5dea0000085612d9f565b90505b5f8111611c9e5760405162461bcd60e51b8152602060048201526012602482015271135a5b9a5b5d5b481a5cc80c481a5b99dbdd60721b60448201526064016108d9565b5f858152601060205260409020600381015460ff16611cf15760405162461bcd60e51b815260206004820152600f60248201526e506f6f6c206e6f742061637469766560881b60448201526064016108d9565b6064828260020154611d039190612cab565b1115611d3d5760405162461bcd60e51b8152602060048201526009602482015268141bdbdb08199d5b1b60ba1b60448201526064016108d9565b335f9081526014602052604081206009018054879290611d5e908490612cab565b9250508190555084816004015f828254611d789190612cab565b9250508190555081816002015f828254611d929190612cab565b925050819055508460125f828254611daa9190612cab565b9250508190555060135f8781526020019081526020015f206040518060c0016040528083600201548152602001336001600160a01b03168152602001878152602001600a815260200186611e1a5760405180604001604052806004815260200163494e523160e01b815250611e38565b604051806040016040528060048152602001635553443160e01b8152505b81525f60209182018190528354600180820186559482529082902083516006909202019081559082015192810180546001600160a01b0319166001600160a01b0390941693909317909255604081015160028301556060810151600383015560808101519091906004820190611eae9082612e23565b5060a091909101516005918201805460ff19169115159190911790555f90606490611eda908890612cd9565b611ee49190612d9f565b90505f6064611ef488605f612cd9565b611efe9190612d9f565b90508160185f828254611f119190612cab565b925050819055508060195f828254611f299190612cab565b9091555050600283015433907f8a761c59f3b512242e1b88c9999ca511dea220c5354703afe7bdd82375fb6761908a90878a611f815760405180604001604052806004815260200163494e523160e01b815250611f9f565b604051806040016040528060048152602001635553443160e01b8152505b604051611faf9493929190612edf565b60405180910390a2611fc133886127c5565b60648360020154148015611fd85750633b9aca0088105b156121e0575f888152601060205260409081902060038101805460ff1916905560040154905189917faf7faf29a251efa1bcf2b47dab1a72baa0906a2e4ff957e6cb6d4f7c642161ab9161202e91815260200190565b60405180910390a25f60115460016120469190612cab565b5f81815260106020526040902054909150156120a45760405162461bcd60e51b815260206004820152601860248201527f4e65787420706f6f6c20616c726561647920657869737473000000000000000060448201526064016108d9565b6040518060c0016040528082815260200160098311156120e357604051806040016040528060078152602001664c6f747465727960c81b815250612105565b6040518060400160405280600881526020016714dd185b99185c9960c21b8152505b81525f60208083018290526001604080850182905260608501849052608090940183905285835260108252929091208351815590830151909182019061214b9082612e23565b5060408281015160028301556060830151600383018054608086015115156101000261ff00199315159390931661ffff199091161791909117905560a09092015160049091015560118290555f8281526010602052819020905182917f150cb369f834b70a4f343956659b1f84cd37d44352b9a76ff77ac59552ef4aa0916121d69160010190612f0d565b60405180910390a2505b505050505061109860018055565b6121f661270b565b5f821180156122095750633b9aca008211155b61224b5760405162461bcd60e51b8152602060048201526013602482015272506f6f6c4964206f7574206f662072616e676560681b60448201526064016108d9565b5f81511161228f5760405162461bcd60e51b81526020600482015260116024820152701c1bdbdb151e5c19481c995c5d5a5c9959607a1b60448201526064016108d9565b5f82815260106020526040902054156122e05760405162461bcd60e51b8152602060048201526013602482015272506f6f6c20616c72656164792065786973747360681b60448201526064016108d9565b6040805160c08101825283815260208082018481525f8385018190526001606085018190526080850182905260a08501829052878252601090935293909320825181559251919291908201906123369082612e23565b50604082015160028201556060820151600382018054608085015115156101000261ff00199315159390931661ffff199091161791909117905560a09091015160049091015560115482111561238c5760118290555b817f150cb369f834b70a4f343956659b1f84cd37d44352b9a76ff77ac59552ef4aa0826040516123bc9190612f92565b60405180910390a25050565b6123d0612653565b335f90815260156020526040902054806124185760405162461bcd60e51b8152602060048201526009602482015268139bc81c185e5bdd5d60ba1b60448201526064016108d9565b335f908152601560205260408082209190915560095490516370a0823160e01b815230600482015282916001600160a01b0316906370a0823190602401602060405180830381865afa158015612470573d5f803e3d5ffd5b505050506040513d601f19601f820116820180604052508101906124949190612d3b565b10156124e25760405162461bcd60e51b815260206004820152601960248201527f496e73756666696369656e7420494e52312062616c616e63650000000000000060448201526064016108d9565b6009546124f9906001600160a01b031633836126ac565b604080515f808252602082015233917f3dd4fda5ffeb4c7e45847fa82b4227a234840395a1170e170bba47db13fbfff8910160405180910390a250610a6f60018055565b61254561270b565b6019548111156125975760405162461bcd60e51b815260206004820152601f60248201527f4e6f7420656e6f756768206f7065726174696f6e616c2074726561737572790060448201526064016108d9565b8060195f8282546125a89190612cf0565b90915550506009546125c4906001600160a01b031633836126ac565b60408051818152600b918101919091526a13dc195c985d1a5bdb985b60aa1b6060820152602081018290527f32f91af51d2a8bbeb2808ffa648f1c5072f1c1ccdb64b39d003f051b496cc98490608001610ba7565b61262161270b565b6001600160a01b03811661264a57604051631e4fbdf760e01b81525f60048201526024016108d9565b61187d81612737565b6002600154036126a55760405162461bcd60e51b815260206004820152601f60248201527f5265656e7472616e637947756172643a207265656e7472616e742063616c6c0060448201526064016108d9565b6002600155565b6040516001600160a01b0383811660248301526044820183905261109891859182169063a9059cbb906064015b604051602081830303815290604052915060e01b6020820180516001600160e01b038381831617835250505050612929565b5f546001600160a01b03163314610a6f5760405163118cdaa760e01b81523360048201526024016108d9565b5f80546001600160a01b038381166001600160a01b0319831681178455604051919092169283917f8be0079c531659141344cd1fd0a4f28419497f9722a3daafe3b4186f6b6457e09190a35050565b6040516001600160a01b0384811660248301528381166044830152606482018390526127bf9186918216906323b872dd906084016126d9565b50505050565b5f5b600760ff82161015611098576001600160a01b0383165f90815260146020526040812060010160ff83166007811061280157612801612d6d565b01546001600160a01b03169050806128195750505050565b5f61271060028460ff166007811061283357612833612d6d565b015461283f9086612cd9565b6128499190612d9f565b6001600160a01b0383165f908152601460205260408120600a0180549293508392909190612878908490612cab565b90915550506001600160a01b0382165f818152601460205260409020600a01547fdd8025b728f6881d55401ec3c5f58bac7e135a199306892b83593f9bf4bfe23a906128c38561070f565b6001600160a01b0386165f908152601460205260409020600b8101546009909101546128f190600390612cd9565b60408051948552602085019390935291830152606082015260800160405180910390a25050808061292190612d81565b9150506127c7565b5f8060205f8451602086015f885af180612948576040513d5f823e3d81fd5b50505f513d9150811561295f57806001141561296c565b6001600160a01b0384163b155b156127bf57604051635274afe760e01b81526001600160a01b03851660048201526024016108d9565b80356001600160a01b03811681146129ab575f80fd5b919050565b5f602082840312156129c0575f80fd5b6129c982612995565b9392505050565b5f80604083850312156129e1575f80fd5b50508035926020909101359150565b5f81518084525f5b81811015612a14576020818501810151868301820152016129f8565b505f602082860101526020601f19601f83011685010191505092915050565b86815260018060a01b038616602082015284604082015283606082015260c060808201525f612a6560c08301856129f0565b905082151560a0830152979650505050505050565b5f8060408385031215612a8b575f80fd5b612a9483612995565b9150612aa260208401612995565b90509250929050565b5f805f60608486031215612abd575f80fd5b612ac684612995565b925060208401359150612adb60408501612995565b90509250925092565b803580151581146129ab575f80fd5b5f60208284031215612b03575f80fd5b6129c982612ae4565b5f60208284031215612b1c575f80fd5b5035919050565b60ff8116811461187d575f80fd5b5f8060408385031215612b42575f80fd5b8235612b4d81612b23565b91506020830135612b5d81612b23565b809150509250929050565b86815260c060208201525f612b8060c08301886129f0565b6040830196909652509215156060840152901515608083015260a09091015292915050565b5f805f60608486031215612bb7575f80fd5b8335925060208401359150612adb60408501612ae4565b634e487b7160e01b5f52604160045260245ffd5b5f8060408385031215612bf3575f80fd5b82359150602083013567ffffffffffffffff80821115612c11575f80fd5b818501915085601f830112612c24575f80fd5b813581811115612c3657612c36612bce565b604051601f8201601f19908116603f01168101908382118183101715612c5e57612c5e612bce565b81604052828152886020848701011115612c76575f80fd5b826020860160208301375f6020848301015280955050505050509250929050565b634e487b7160e01b5f52601160045260245ffd5b80820180821115612cbe57612cbe612c97565b92915050565b5f81612cd257612cd2612c97565b505f190190565b8082028115828204841417612cbe57612cbe612c97565b81810381811115612cbe57612cbe612c97565b600181811c90821680612d1757607f821691505b602082108103612d3557634e487b7160e01b5f52602260045260245ffd5b50919050565b5f60208284031215612d4b575f80fd5b5051919050565b5f60208284031215612d62575f80fd5b81516129c981612b23565b634e487b7160e01b5f52603260045260245ffd5b5f60ff821660ff8103612d9657612d96612c97565b60010192915050565b5f82612db957634e487b7160e01b5f52601260045260245ffd5b500490565b5f60018201612dcf57612dcf612c97565b5060010190565b601f821115611098575f81815260208120601f850160051c81016020861015612dfc5750805b601f850160051c820191505b81811015612e1b57828155600101612e08565b505050505050565b815167ffffffffffffffff811115612e3d57612e3d612bce565b612e5181612e4b8454612d03565b84612dd6565b602080601f831160018114612e84575f8415612e6d5750858301515b5f19600386901b1c1916600185901b178555612e1b565b5f85815260208120601f198616915b82811015612eb257888601518255948401946001909101908401612e93565b5085821015612ecf57878501515f19600388901b60f8161c191681555b5050505050600190811b01905550565b848152836020820152826040820152608060608201525f612f0360808301846129f0565b9695505050505050565b5f60208083525f8454612f1f81612d03565b8084870152604060018084165f8114612f3f5760018114612f5957612f84565b60ff1985168984015283151560051b890183019550612f84565b895f52865f205f5b85811015612f7c5781548b8201860152908301908801612f61565b8a0184019650505b509398975050505050505050565b602081525f6129c960208301846129f056fea264697066735822122083c4fddaa4c8167ef62a0f5a88806f11aa9dadcf2002edb86c259c925355b63764736f6c63430008140033150cb369f834b70a4f343956659b1f84cd37d44352b9a76ff77ac59552ef4aa0",
					"opcodes": "PUSH2 0x160 PUSH1 0x40 MSTORE PUSH2 0x12C PUSH1 0x80 SWAP1 DUP2 MSTORE PUSH1 0xC8 PUSH1 0xA0 MSTORE PUSH1 0x64 PUSH1 0xC0 DUP2 SWAP1 MSTORE PUSH1 0xE0 DUP2 SWAP1 MSTORE PUSH2 0x100 MSTORE PUSH1 0x32 PUSH2 0x120 MSTORE PUSH1 0x19 PUSH2 0x140 MSTORE PUSH3 0x3E SWAP1 PUSH1 0x2 SWAP1 PUSH1 0x7 PUSH3 0x56D JUMP JUMPDEST POP PUSH1 0x5A PUSH1 0xC SSTORE CALLVALUE DUP1 ISZERO PUSH3 0x50 JUMPI PUSH0 DUP1 REVERT JUMPDEST POP PUSH1 0x40 MLOAD PUSH3 0x3813 CODESIZE SUB DUP1 PUSH3 0x3813 DUP4 CODECOPY DUP2 ADD PUSH1 0x40 DUP2 SWAP1 MSTORE PUSH3 0x73 SWAP2 PUSH3 0x5E8 JUMP JUMPDEST CALLER DUP1 PUSH3 0x9A JUMPI PUSH1 0x40 MLOAD PUSH4 0x1E4FBDF7 PUSH1 0xE0 SHL DUP2 MSTORE PUSH0 PUSH1 0x4 DUP3 ADD MSTORE PUSH1 0x24 ADD JUMPDEST PUSH1 0x40 MLOAD DUP1 SWAP2 SUB SWAP1 REVERT JUMPDEST PUSH3 0xA5 DUP2 PUSH3 0x51E JUMP JUMPDEST POP PUSH1 0x1 DUP1 SSTORE PUSH1 0x1 PUSH1 0x1 PUSH1 0xA0 SHL SUB DUP4 AND PUSH3 0xF6 JUMPI PUSH1 0x40 MLOAD PUSH3 0x461BCD PUSH1 0xE5 SHL DUP2 MSTORE PUSH1 0x20 PUSH1 0x4 DUP3 ADD MSTORE PUSH1 0x11 PUSH1 0x24 DUP3 ADD MSTORE PUSH17 0x14DD5898591B5A5B881C995C5D5A5C9959 PUSH1 0x7A SHL PUSH1 0x44 DUP3 ADD MSTORE PUSH1 0x64 ADD PUSH3 0x91 JUMP JUMPDEST PUSH1 0x1 PUSH1 0x1 PUSH1 0xA0 SHL SUB DUP3 AND ISZERO DUP1 ISZERO SWAP1 PUSH3 0x117 JUMPI POP PUSH1 0x1 PUSH1 0x1 PUSH1 0xA0 SHL SUB DUP2 AND ISZERO ISZERO JUMPDEST PUSH3 0x157 JUMPI PUSH1 0x40 MLOAD PUSH3 0x461BCD PUSH1 0xE5 SHL DUP2 MSTORE PUSH1 0x20 PUSH1 0x4 DUP3 ADD MSTORE PUSH1 0xF PUSH1 0x24 DUP3 ADD MSTORE PUSH15 0x151BDAD95B9CC81C995C5D5A5C9959 PUSH1 0x8A SHL PUSH1 0x44 DUP3 ADD MSTORE PUSH1 0x64 ADD PUSH3 0x91 JUMP JUMPDEST PUSH1 0xB DUP1 SLOAD PUSH1 0x1 PUSH1 0x1 PUSH1 0xA0 SHL SUB DUP1 DUP7 AND PUSH1 0x1 PUSH1 0x1 PUSH1 0xA0 SHL SUB NOT SWAP3 DUP4 AND OR SWAP1 SWAP3 SSTORE PUSH1 0x9 DUP1 SLOAD DUP6 DUP5 AND SWAP1 DUP4 AND DUP2 OR SWAP1 SWAP2 SSTORE PUSH1 0xA DUP1 SLOAD SWAP4 DUP6 AND SWAP4 SWAP1 SWAP3 AND SWAP3 SWAP1 SWAP3 OR SWAP1 SSTORE PUSH1 0x40 DUP1 MLOAD PUSH4 0x313CE567 PUSH1 0xE0 SHL DUP2 MSTORE SWAP1 MLOAD PUSH4 0x313CE567 SWAP2 PUSH1 0x4 DUP1 DUP3 ADD SWAP3 PUSH1 0x20 SWAP3 SWAP1 SWAP2 SWAP1 DUP3 SWAP1 SUB ADD DUP2 DUP7 GAS STATICCALL ISZERO DUP1 ISZERO PUSH3 0x1D0 JUMPI RETURNDATASIZE PUSH0 DUP1 RETURNDATACOPY RETURNDATASIZE PUSH0 REVERT JUMPDEST POP POP POP POP PUSH1 0x40 MLOAD RETURNDATASIZE PUSH1 0x1F NOT PUSH1 0x1F DUP3 ADD AND DUP3 ADD DUP1 PUSH1 0x40 MSTORE POP DUP2 ADD SWAP1 PUSH3 0x1F6 SWAP2 SWAP1 PUSH3 0x62F JUMP JUMPDEST PUSH1 0xB PUSH1 0x14 PUSH2 0x100 EXP DUP2 SLOAD DUP2 PUSH1 0xFF MUL NOT AND SWAP1 DUP4 PUSH1 0xFF AND MUL OR SWAP1 SSTORE POP DUP1 PUSH1 0x1 PUSH1 0x1 PUSH1 0xA0 SHL SUB AND PUSH4 0x313CE567 PUSH1 0x40 MLOAD DUP2 PUSH4 0xFFFFFFFF AND PUSH1 0xE0 SHL DUP2 MSTORE PUSH1 0x4 ADD PUSH1 0x20 PUSH1 0x40 MLOAD DUP1 DUP4 SUB DUP2 DUP7 GAS STATICCALL ISZERO DUP1 ISZERO PUSH3 0x24D JUMPI RETURNDATASIZE PUSH0 DUP1 RETURNDATACOPY RETURNDATASIZE PUSH0 REVERT JUMPDEST POP POP POP POP PUSH1 0x40 MLOAD RETURNDATASIZE PUSH1 0x1F NOT PUSH1 0x1F DUP3 ADD AND DUP3 ADD DUP1 PUSH1 0x40 MSTORE POP DUP2 ADD SWAP1 PUSH3 0x273 SWAP2 SWAP1 PUSH3 0x62F JUMP JUMPDEST PUSH1 0xB DUP1 SLOAD PUSH1 0xFF SWAP3 SWAP1 SWAP3 AND PUSH1 0x1 PUSH1 0xA8 SHL MUL PUSH1 0xFF PUSH1 0xA8 SHL NOT SWAP1 SWAP3 AND SWAP2 SWAP1 SWAP2 OR SWAP1 SSTORE PUSH1 0x1 PUSH1 0x1 PUSH1 0xA0 SHL SUB DUP1 DUP4 AND PUSH0 SWAP1 DUP2 MSTORE PUSH1 0xD PUSH1 0x20 MSTORE PUSH1 0x40 DUP1 DUP3 KECCAK256 DUP1 SLOAD PUSH1 0xFF NOT SWAP1 DUP2 AND PUSH1 0x1 SWAP1 DUP2 OR SWAP1 SWAP3 SSTORE SWAP4 DUP6 AND DUP4 MSTORE SWAP2 KECCAK256 DUP1 SLOAD SWAP1 SWAP3 AND DUP2 OR SWAP1 SWAP2 SSTORE JUMPDEST PUSH1 0x9 DUP2 GT PUSH3 0x3E9 JUMPI PUSH1 0x40 DUP1 MLOAD PUSH1 0xC0 DUP2 ADD DUP3 MSTORE DUP3 DUP2 MSTORE DUP2 MLOAD DUP1 DUP4 ADD DUP4 MSTORE PUSH1 0x8 DUP2 MSTORE PUSH8 0x14DD185B99185C99 PUSH1 0xC2 SHL PUSH1 0x20 DUP3 DUP2 ADD SWAP2 SWAP1 SWAP2 MSTORE DUP1 DUP4 ADD SWAP2 DUP3 MSTORE PUSH0 DUP4 DUP6 ADD DUP2 SWAP1 MSTORE PUSH1 0x1 PUSH1 0x60 DUP6 ADD DUP2 SWAP1 MSTORE PUSH1 0x80 DUP6 ADD DUP3 SWAP1 MSTORE PUSH1 0xA0 DUP6 ADD DUP3 SWAP1 MSTORE DUP7 DUP3 MSTORE PUSH1 0x10 SWAP1 SWAP3 MSTORE SWAP4 SWAP1 SWAP4 KECCAK256 DUP3 MLOAD DUP2 SSTORE SWAP1 MLOAD SWAP2 SWAP3 SWAP1 SWAP2 SWAP1 DUP3 ADD SWAP1 PUSH3 0x34D SWAP1 DUP3 PUSH3 0x6F8 JUMP JUMPDEST POP PUSH1 0x40 DUP3 DUP2 ADD MLOAD PUSH1 0x2 DUP4 ADD SSTORE PUSH1 0x60 DUP4 ADD MLOAD PUSH1 0x3 DUP4 ADD DUP1 SLOAD PUSH1 0x80 DUP7 ADD MLOAD ISZERO ISZERO PUSH2 0x100 MUL PUSH2 0xFF00 NOT SWAP4 ISZERO ISZERO SWAP4 SWAP1 SWAP4 AND PUSH2 0xFFFF NOT SWAP1 SWAP2 AND OR SWAP2 SWAP1 SWAP2 OR SWAP1 SSTORE PUSH1 0xA0 SWAP1 SWAP3 ADD MLOAD PUSH1 0x4 SWAP1 SWAP2 ADD SSTORE MLOAD DUP2 SWAP1 PUSH0 DUP1 MLOAD PUSH1 0x20 PUSH3 0x37F3 DUP4 CODECOPY DUP2 MLOAD SWAP2 MSTORE SWAP1 PUSH3 0x3CE SWAP1 PUSH1 0x20 DUP1 DUP3 MSTORE PUSH1 0x8 SWAP1 DUP3 ADD MSTORE PUSH8 0x14DD185B99185C99 PUSH1 0xC2 SHL PUSH1 0x40 DUP3 ADD MSTORE PUSH1 0x60 ADD SWAP1 JUMP JUMPDEST PUSH1 0x40 MLOAD DUP1 SWAP2 SUB SWAP1 LOG2 PUSH3 0x3E1 DUP2 PUSH3 0x7D4 JUMP JUMPDEST SWAP1 POP PUSH3 0x2CD JUMP JUMPDEST PUSH1 0xC DUP2 GT PUSH3 0x503 JUMPI PUSH1 0x40 DUP1 MLOAD PUSH1 0xC0 DUP2 ADD DUP3 MSTORE DUP3 DUP2 MSTORE DUP2 MLOAD DUP1 DUP4 ADD DUP4 MSTORE PUSH1 0x7 DUP2 MSTORE PUSH7 0x4C6F7474657279 PUSH1 0xC8 SHL PUSH1 0x20 DUP3 DUP2 ADD SWAP2 SWAP1 SWAP2 MSTORE DUP1 DUP4 ADD SWAP2 DUP3 MSTORE PUSH0 DUP4 DUP6 ADD DUP2 SWAP1 MSTORE PUSH1 0x1 PUSH1 0x60 DUP6 ADD DUP2 SWAP1 MSTORE PUSH1 0x80 DUP6 ADD DUP3 SWAP1 MSTORE PUSH1 0xA0 DUP6 ADD DUP3 SWAP1 MSTORE DUP7 DUP3 MSTORE PUSH1 0x10 SWAP1 SWAP3 MSTORE SWAP4 SWAP1 SWAP4 KECCAK256 DUP3 MLOAD DUP2 SSTORE SWAP1 MLOAD SWAP2 SWAP3 SWAP1 SWAP2 SWAP1 DUP3 ADD SWAP1 PUSH3 0x468 SWAP1 DUP3 PUSH3 0x6F8 JUMP JUMPDEST POP PUSH1 0x40 DUP3 DUP2 ADD MLOAD PUSH1 0x2 DUP4 ADD SSTORE PUSH1 0x60 DUP4 ADD MLOAD PUSH1 0x3 DUP4 ADD DUP1 SLOAD PUSH1 0x80 DUP7 ADD MLOAD ISZERO ISZERO PUSH2 0x100 MUL PUSH2 0xFF00 NOT SWAP4 ISZERO ISZERO SWAP4 SWAP1 SWAP4 AND PUSH2 0xFFFF NOT SWAP1 SWAP2 AND OR SWAP2 SWAP1 SWAP2 OR SWAP1 SSTORE PUSH1 0xA0 SWAP1 SWAP3 ADD MLOAD PUSH1 0x4 SWAP1 SWAP2 ADD SSTORE MLOAD DUP2 SWAP1 PUSH0 DUP1 MLOAD PUSH1 0x20 PUSH3 0x37F3 DUP4 CODECOPY DUP2 MLOAD SWAP2 MSTORE SWAP1 PUSH3 0x4E8 SWAP1 PUSH1 0x20 DUP1 DUP3 MSTORE PUSH1 0x7 SWAP1 DUP3 ADD MSTORE PUSH7 0x4C6F7474657279 PUSH1 0xC8 SHL PUSH1 0x40 DUP3 ADD MSTORE PUSH1 0x60 ADD SWAP1 JUMP JUMPDEST PUSH1 0x40 MLOAD DUP1 SWAP2 SUB SWAP1 LOG2 PUSH3 0x4FB DUP2 PUSH3 0x7D4 JUMP JUMPDEST SWAP1 POP PUSH3 0x3E9 JUMP JUMPDEST PUSH3 0x510 PUSH1 0x1 DUP3 PUSH3 0x7EF JUMP JUMPDEST PUSH1 0x11 SSTORE POP PUSH3 0x80B SWAP3 POP POP POP JUMP JUMPDEST PUSH0 DUP1 SLOAD PUSH1 0x1 PUSH1 0x1 PUSH1 0xA0 SHL SUB DUP4 DUP2 AND PUSH1 0x1 PUSH1 0x1 PUSH1 0xA0 SHL SUB NOT DUP4 AND DUP2 OR DUP5 SSTORE PUSH1 0x40 MLOAD SWAP2 SWAP1 SWAP3 AND SWAP3 DUP4 SWAP2 PUSH32 0x8BE0079C531659141344CD1FD0A4F28419497F9722A3DAAFE3B4186F6B6457E0 SWAP2 SWAP1 LOG3 POP POP JUMP JUMPDEST DUP3 PUSH1 0x7 DUP2 ADD SWAP3 DUP3 ISZERO PUSH3 0x5A4 JUMPI SWAP2 PUSH1 0x20 MUL DUP3 ADD JUMPDEST DUP3 DUP2 GT ISZERO PUSH3 0x5A4 JUMPI DUP3 MLOAD DUP3 SWAP1 PUSH2 0xFFFF AND SWAP1 SSTORE SWAP2 PUSH1 0x20 ADD SWAP2 SWAP1 PUSH1 0x1 ADD SWAP1 PUSH3 0x581 JUMP JUMPDEST POP PUSH3 0x5B2 SWAP3 SWAP2 POP PUSH3 0x5B6 JUMP JUMPDEST POP SWAP1 JUMP JUMPDEST JUMPDEST DUP1 DUP3 GT ISZERO PUSH3 0x5B2 JUMPI PUSH0 DUP2 SSTORE PUSH1 0x1 ADD PUSH3 0x5B7 JUMP JUMPDEST DUP1 MLOAD PUSH1 0x1 PUSH1 0x1 PUSH1 0xA0 SHL SUB DUP2 AND DUP2 EQ PUSH3 0x5E3 JUMPI PUSH0 DUP1 REVERT JUMPDEST SWAP2 SWAP1 POP JUMP JUMPDEST PUSH0 DUP1 PUSH0 PUSH1 0x60 DUP5 DUP7 SUB SLT ISZERO PUSH3 0x5FB JUMPI PUSH0 DUP1 REVERT JUMPDEST PUSH3 0x606 DUP5 PUSH3 0x5CC JUMP JUMPDEST SWAP3 POP PUSH3 0x616 PUSH1 0x20 DUP6 ADD PUSH3 0x5CC JUMP JUMPDEST SWAP2 POP PUSH3 0x626 PUSH1 0x40 DUP6 ADD PUSH3 0x5CC JUMP JUMPDEST SWAP1 POP SWAP3 POP SWAP3 POP SWAP3 JUMP JUMPDEST PUSH0 PUSH1 0x20 DUP3 DUP5 SUB SLT ISZERO PUSH3 0x640 JUMPI PUSH0 DUP1 REVERT JUMPDEST DUP2 MLOAD PUSH1 0xFF DUP2 AND DUP2 EQ PUSH3 0x651 JUMPI PUSH0 DUP1 REVERT JUMPDEST SWAP4 SWAP3 POP POP POP JUMP JUMPDEST PUSH4 0x4E487B71 PUSH1 0xE0 SHL PUSH0 MSTORE PUSH1 0x41 PUSH1 0x4 MSTORE PUSH1 0x24 PUSH0 REVERT JUMPDEST PUSH1 0x1 DUP2 DUP2 SHR SWAP1 DUP3 AND DUP1 PUSH3 0x681 JUMPI PUSH1 0x7F DUP3 AND SWAP2 POP JUMPDEST PUSH1 0x20 DUP3 LT DUP2 SUB PUSH3 0x6A0 JUMPI PUSH4 0x4E487B71 PUSH1 0xE0 SHL PUSH0 MSTORE PUSH1 0x22 PUSH1 0x4 MSTORE PUSH1 0x24 PUSH0 REVERT JUMPDEST POP SWAP2 SWAP1 POP JUMP JUMPDEST PUSH1 0x1F DUP3 GT ISZERO PUSH3 0x6F3 JUMPI PUSH0 DUP2 DUP2 MSTORE PUSH1 0x20 DUP2 KECCAK256 PUSH1 0x1F DUP6 ADD PUSH1 0x5 SHR DUP2 ADD PUSH1 0x20 DUP7 LT ISZERO PUSH3 0x6CE JUMPI POP DUP1 JUMPDEST PUSH1 0x1F DUP6 ADD PUSH1 0x5 SHR DUP3 ADD SWAP2 POP JUMPDEST DUP2 DUP2 LT ISZERO PUSH3 0x6EF JUMPI DUP3 DUP2 SSTORE PUSH1 0x1 ADD PUSH3 0x6DA JUMP JUMPDEST POP POP POP JUMPDEST POP POP POP JUMP JUMPDEST DUP2 MLOAD PUSH1 0x1 PUSH1 0x1 PUSH1 0x40 SHL SUB DUP2 GT ISZERO PUSH3 0x714 JUMPI PUSH3 0x714 PUSH3 0x658 JUMP JUMPDEST PUSH3 0x72C DUP2 PUSH3 0x725 DUP5 SLOAD PUSH3 0x66C JUMP JUMPDEST DUP5 PUSH3 0x6A6 JUMP JUMPDEST PUSH1 0x20 DUP1 PUSH1 0x1F DUP4 GT PUSH1 0x1 DUP2 EQ PUSH3 0x762 JUMPI PUSH0 DUP5 ISZERO PUSH3 0x74A JUMPI POP DUP6 DUP4 ADD MLOAD JUMPDEST PUSH0 NOT PUSH1 0x3 DUP7 SWAP1 SHL SHR NOT AND PUSH1 0x1 DUP6 SWAP1 SHL OR DUP6 SSTORE PUSH3 0x6EF JUMP JUMPDEST PUSH0 DUP6 DUP2 MSTORE PUSH1 0x20 DUP2 KECCAK256 PUSH1 0x1F NOT DUP7 AND SWAP2 JUMPDEST DUP3 DUP2 LT ISZERO PUSH3 0x792 JUMPI DUP9 DUP7 ADD MLOAD DUP3 SSTORE SWAP5 DUP5 ADD SWAP5 PUSH1 0x1 SWAP1 SWAP2 ADD SWAP1 DUP5 ADD PUSH3 0x771 JUMP JUMPDEST POP DUP6 DUP3 LT ISZERO PUSH3 0x7B0 JUMPI DUP8 DUP6 ADD MLOAD PUSH0 NOT PUSH1 0x3 DUP9 SWAP1 SHL PUSH1 0xF8 AND SHR NOT AND DUP2 SSTORE JUMPDEST POP POP POP POP POP PUSH1 0x1 SWAP1 DUP2 SHL ADD SWAP1 SSTORE POP JUMP JUMPDEST PUSH4 0x4E487B71 PUSH1 0xE0 SHL PUSH0 MSTORE PUSH1 0x11 PUSH1 0x4 MSTORE PUSH1 0x24 PUSH0 REVERT JUMPDEST PUSH0 PUSH1 0x1 DUP3 ADD PUSH3 0x7E8 JUMPI PUSH3 0x7E8 PUSH3 0x7C0 JUMP JUMPDEST POP PUSH1 0x1 ADD SWAP1 JUMP JUMPDEST DUP2 DUP2 SUB DUP2 DUP2 GT ISZERO PUSH3 0x805 JUMPI PUSH3 0x805 PUSH3 0x7C0 JUMP JUMPDEST SWAP3 SWAP2 POP POP JUMP JUMPDEST PUSH2 0x2FDA DUP1 PUSH3 0x819 PUSH0 CODECOPY PUSH0 RETURN INVALID PUSH1 0x80 PUSH1 0x40 MSTORE CALLVALUE DUP1 ISZERO PUSH2 0xF JUMPI PUSH0 DUP1 REVERT JUMPDEST POP PUSH1 0x4 CALLDATASIZE LT PUSH2 0x28B JUMPI PUSH0 CALLDATALOAD PUSH1 0xE0 SHR DUP1 PUSH4 0x76752435 GT PUSH2 0x161 JUMPI DUP1 PUSH4 0xBCAF0D95 GT PUSH2 0xCA JUMPI DUP1 PUSH4 0xE22D0A82 GT PUSH2 0x84 JUMPI DUP1 PUSH4 0xE22D0A82 EQ PUSH2 0x607 JUMPI DUP1 PUSH4 0xE7780F28 EQ PUSH2 0x62F JUMPI DUP1 PUSH4 0xEDDAA3AB EQ PUSH2 0x64E JUMPI DUP1 PUSH4 0xF2FDE38B EQ PUSH2 0x65B JUMPI DUP1 PUSH4 0xF8B55F4F EQ PUSH2 0x66E JUMPI DUP1 PUSH4 0xFE575A87 EQ PUSH2 0x67E JUMPI PUSH0 DUP1 REVERT JUMPDEST DUP1 PUSH4 0xBCAF0D95 EQ PUSH2 0x5C9 JUMPI DUP1 PUSH4 0xC885BC58 EQ PUSH2 0x5D2 JUMPI DUP1 PUSH4 0xD66AAFA6 EQ PUSH2 0x5DA JUMPI DUP1 PUSH4 0xDC810925 EQ PUSH2 0x5E3 JUMPI DUP1 PUSH4 0xDDBB48D6 EQ PUSH2 0x5EC JUMPI DUP1 PUSH4 0xE1E55FBF EQ PUSH2 0x5FF JUMPI PUSH0 DUP1 REVERT JUMPDEST DUP1 PUSH4 0xA87430BA GT PUSH2 0x11B JUMPI DUP1 PUSH4 0xA87430BA EQ PUSH2 0x4E3 JUMPI DUP1 PUSH4 0xAC4AFA38 EQ PUSH2 0x560 JUMPI DUP1 PUSH4 0xB1B358D4 EQ PUSH2 0x585 JUMPI DUP1 PUSH4 0xB1CED5E7 EQ PUSH2 0x598 JUMPI DUP1 PUSH4 0xB380744D EQ PUSH2 0x5A3 JUMPI DUP1 PUSH4 0xBC0CA177 EQ PUSH2 0x5B6 JUMPI PUSH0 DUP1 REVERT JUMPDEST DUP1 PUSH4 0x76752435 EQ PUSH2 0x474 JUMPI DUP1 PUSH4 0x7BB5EE4B EQ PUSH2 0x487 JUMPI DUP1 PUSH4 0x81CAEDF1 EQ PUSH2 0x49A JUMPI DUP1 PUSH4 0x8995BC60 EQ PUSH2 0x4AD JUMPI DUP1 PUSH4 0x8DA5CB5B EQ PUSH2 0x4C0 JUMPI DUP1 PUSH4 0xA3A83649 EQ PUSH2 0x4D0 JUMPI PUSH0 DUP1 REVERT JUMPDEST DUP1 PUSH4 0x3B38BF72 GT PUSH2 0x203 JUMPI DUP1 PUSH4 0x600D20CE GT PUSH2 0x1BD JUMPI DUP1 PUSH4 0x600D20CE EQ PUSH2 0x3EA JUMPI DUP1 PUSH4 0x66A4B6C0 EQ PUSH2 0x3FD JUMPI DUP1 PUSH4 0x6AFBD415 EQ PUSH2 0x423 JUMPI DUP1 PUSH4 0x715018A6 EQ PUSH2 0x436 JUMPI DUP1 PUSH4 0x753D7563 EQ PUSH2 0x43E JUMPI DUP1 PUSH4 0x755E1FEE EQ PUSH2 0x460 JUMPI PUSH0 DUP1 REVERT JUMPDEST DUP1 PUSH4 0x3B38BF72 EQ PUSH2 0x382 JUMPI DUP1 PUSH4 0x4420E486 EQ PUSH2 0x395 JUMPI DUP1 PUSH4 0x44386321 EQ PUSH2 0x3A8 JUMPI DUP1 PUSH4 0x4B67E948 EQ PUSH2 0x3BB JUMPI DUP1 PUSH4 0x4BA05906 EQ PUSH2 0x3CE JUMPI DUP1 PUSH4 0x569A7DFD EQ PUSH2 0x3D7 JUMPI PUSH0 DUP1 REVERT JUMPDEST DUP1 PUSH4 0x166B836F GT PUSH2 0x254 JUMPI DUP1 PUSH4 0x166B836F EQ PUSH2 0x2F9 JUMPI DUP1 PUSH4 0x17B72137 EQ PUSH2 0x308 JUMPI DUP1 PUSH4 0x18118787 EQ PUSH2 0x32D JUMPI DUP1 PUSH4 0x239CC1DD EQ PUSH2 0x337 JUMPI DUP1 PUSH4 0x254C4326 EQ PUSH2 0x35B JUMPI DUP1 PUSH4 0x367631D7 EQ PUSH2 0x36F JUMPI PUSH0 DUP1 REVERT JUMPDEST DUP1 PUSH3 0x7DA258 EQ PUSH2 0x28F JUMPI DUP1 PUSH4 0xE3A83A4 EQ PUSH2 0x2AA JUMPI DUP1 PUSH4 0x106CA23C EQ PUSH2 0x2D5 JUMPI DUP1 PUSH4 0x11CCDF8C EQ PUSH2 0x2DE JUMPI DUP1 PUSH4 0x149B6B1F EQ PUSH2 0x2E6 JUMPI JUMPDEST PUSH0 DUP1 REVERT JUMPDEST PUSH2 0x297 PUSH2 0x6A0 JUMP JUMPDEST PUSH1 0x40 MLOAD SWAP1 DUP2 MSTORE PUSH1 0x20 ADD JUMPDEST PUSH1 0x40 MLOAD DUP1 SWAP2 SUB SWAP1 RETURN JUMPDEST PUSH1 0xE SLOAD PUSH2 0x2BD SWAP1 PUSH1 0x1 PUSH1 0x1 PUSH1 0xA0 SHL SUB AND DUP2 JUMP JUMPDEST PUSH1 0x40 MLOAD PUSH1 0x1 PUSH1 0x1 PUSH1 0xA0 SHL SUB SWAP1 SWAP2 AND DUP2 MSTORE PUSH1 0x20 ADD PUSH2 0x2A1 JUMP JUMPDEST PUSH2 0x297 PUSH1 0x18 SLOAD DUP2 JUMP JUMPDEST PUSH2 0x297 PUSH2 0x6CA JUMP JUMPDEST PUSH2 0x297 PUSH2 0x2F4 CALLDATASIZE PUSH1 0x4 PUSH2 0x29B0 JUMP JUMPDEST PUSH2 0x70F JUMP JUMPDEST PUSH2 0x297 PUSH8 0x98A7D9B8314C0000 DUP2 JUMP JUMPDEST PUSH2 0x31B PUSH2 0x316 CALLDATASIZE PUSH1 0x4 PUSH2 0x29D0 JUMP JUMPDEST PUSH2 0x783 JUMP JUMPDEST PUSH1 0x40 MLOAD PUSH2 0x2A1 SWAP7 SWAP6 SWAP5 SWAP4 SWAP3 SWAP2 SWAP1 PUSH2 0x2A33 JUMP JUMPDEST PUSH2 0x335 PUSH2 0x86C JUMP JUMPDEST STOP JUMPDEST PUSH1 0xF SLOAD PUSH2 0x34B SWAP1 PUSH1 0x1 PUSH1 0xA8 SHL SWAP1 DIV PUSH1 0xFF AND DUP2 JUMP JUMPDEST PUSH1 0x40 MLOAD SWAP1 ISZERO ISZERO DUP2 MSTORE PUSH1 0x20 ADD PUSH2 0x2A1 JUMP JUMPDEST PUSH1 0xF SLOAD PUSH2 0x34B SWAP1 PUSH1 0x1 PUSH1 0xA0 SHL SWAP1 DIV PUSH1 0xFF AND DUP2 JUMP JUMPDEST PUSH2 0x335 PUSH2 0x37D CALLDATASIZE PUSH1 0x4 PUSH2 0x29B0 JUMP JUMPDEST PUSH2 0xA71 JUMP JUMPDEST PUSH2 0x335 PUSH2 0x390 CALLDATASIZE PUSH1 0x4 PUSH2 0x2A7A JUMP JUMPDEST PUSH2 0xBB2 JUMP JUMPDEST PUSH2 0x335 PUSH2 0x3A3 CALLDATASIZE PUSH1 0x4 PUSH2 0x29B0 JUMP JUMPDEST PUSH2 0xE06 JUMP JUMPDEST PUSH1 0xA SLOAD PUSH2 0x2BD SWAP1 PUSH1 0x1 PUSH1 0x1 PUSH1 0xA0 SHL SUB AND DUP2 JUMP JUMPDEST PUSH2 0x335 PUSH2 0x3C9 CALLDATASIZE PUSH1 0x4 PUSH2 0x2AAB JUMP JUMPDEST PUSH2 0x109D JUMP JUMPDEST PUSH2 0x297 PUSH1 0x11 SLOAD DUP2 JUMP JUMPDEST PUSH2 0x335 PUSH2 0x3E5 CALLDATASIZE PUSH1 0x4 PUSH2 0x2AF3 JUMP JUMPDEST PUSH2 0x11C7 JUMP JUMPDEST PUSH2 0x297 PUSH2 0x3F8 CALLDATASIZE PUSH1 0x4 PUSH2 0x2B0C JUMP JUMPDEST PUSH2 0x1210 JUMP JUMPDEST PUSH1 0xB SLOAD PUSH2 0x411 SWAP1 PUSH1 0x1 PUSH1 0xA8 SHL SWAP1 DIV PUSH1 0xFF AND DUP2 JUMP JUMPDEST PUSH1 0x40 MLOAD PUSH1 0xFF SWAP1 SWAP2 AND DUP2 MSTORE PUSH1 0x20 ADD PUSH2 0x2A1 JUMP JUMPDEST PUSH1 0xB SLOAD PUSH2 0x2BD SWAP1 PUSH1 0x1 PUSH1 0x1 PUSH1 0xA0 SHL SUB AND DUP2 JUMP JUMPDEST PUSH2 0x335 PUSH2 0x1226 JUMP JUMPDEST PUSH2 0x34B PUSH2 0x44C CALLDATASIZE PUSH1 0x4 PUSH2 0x29B0 JUMP JUMPDEST PUSH1 0xD PUSH1 0x20 MSTORE PUSH0 SWAP1 DUP2 MSTORE PUSH1 0x40 SWAP1 KECCAK256 SLOAD PUSH1 0xFF AND DUP2 JUMP JUMPDEST PUSH1 0xB SLOAD PUSH2 0x411 SWAP1 PUSH1 0x1 PUSH1 0xA0 SHL SWAP1 DIV PUSH1 0xFF AND DUP2 JUMP JUMPDEST PUSH2 0x335 PUSH2 0x482 CALLDATASIZE PUSH1 0x4 PUSH2 0x29B0 JUMP JUMPDEST PUSH2 0x1237 JUMP JUMPDEST PUSH1 0xF SLOAD PUSH2 0x2BD SWAP1 PUSH1 0x1 PUSH1 0x1 PUSH1 0xA0 SHL SUB AND DUP2 JUMP JUMPDEST PUSH2 0x335 PUSH2 0x4A8 CALLDATASIZE PUSH1 0x4 PUSH2 0x2B0C JUMP JUMPDEST PUSH2 0x1371 JUMP JUMPDEST PUSH2 0x335 PUSH2 0x4BB CALLDATASIZE PUSH1 0x4 PUSH2 0x2B31 JUMP JUMPDEST PUSH2 0x1449 JUMP JUMPDEST PUSH0 SLOAD PUSH1 0x1 PUSH1 0x1 PUSH1 0xA0 SHL SUB AND PUSH2 0x2BD JUMP JUMPDEST PUSH1 0x9 SLOAD PUSH2 0x2BD SWAP1 PUSH1 0x1 PUSH1 0x1 PUSH1 0xA0 SHL SUB AND DUP2 JUMP JUMPDEST PUSH2 0x52C PUSH2 0x4F1 CALLDATASIZE PUSH1 0x4 PUSH2 0x29B0 JUMP JUMPDEST PUSH1 0x14 PUSH1 0x20 MSTORE PUSH0 SWAP1 DUP2 MSTORE PUSH1 0x40 SWAP1 KECCAK256 DUP1 SLOAD PUSH1 0x9 DUP3 ADD SLOAD PUSH1 0xA DUP4 ADD SLOAD PUSH1 0xB DUP5 ADD SLOAD PUSH1 0xC SWAP1 SWAP5 ADD SLOAD PUSH1 0x1 PUSH1 0x1 PUSH1 0xA0 SHL SUB SWAP1 SWAP4 AND SWAP4 SWAP2 SWAP3 SWAP1 SWAP2 SWAP1 PUSH1 0xFF AND DUP6 JUMP JUMPDEST PUSH1 0x40 DUP1 MLOAD PUSH1 0x1 PUSH1 0x1 PUSH1 0xA0 SHL SUB SWAP1 SWAP7 AND DUP7 MSTORE PUSH1 0x20 DUP7 ADD SWAP5 SWAP1 SWAP5 MSTORE SWAP3 DUP5 ADD SWAP2 SWAP1 SWAP2 MSTORE PUSH1 0x60 DUP4 ADD MSTORE ISZERO ISZERO PUSH1 0x80 DUP3 ADD MSTORE PUSH1 0xA0 ADD PUSH2 0x2A1 JUMP JUMPDEST PUSH2 0x573 PUSH2 0x56E CALLDATASIZE PUSH1 0x4 PUSH2 0x2B0C JUMP JUMPDEST PUSH2 0x1485 JUMP JUMPDEST PUSH1 0x40 MLOAD PUSH2 0x2A1 SWAP7 SWAP6 SWAP5 SWAP4 SWAP3 SWAP2 SWAP1 PUSH2 0x2B68 JUMP JUMPDEST PUSH2 0x335 PUSH2 0x593 CALLDATASIZE PUSH1 0x4 PUSH2 0x2B0C JUMP JUMPDEST PUSH2 0x1549 JUMP JUMPDEST PUSH2 0x297 PUSH4 0x3B9ACA00 DUP2 JUMP JUMPDEST PUSH2 0x335 PUSH2 0x5B1 CALLDATASIZE PUSH1 0x4 PUSH2 0x2BA5 JUMP JUMPDEST PUSH2 0x1880 JUMP JUMPDEST PUSH2 0x335 PUSH2 0x5C4 CALLDATASIZE PUSH1 0x4 PUSH2 0x2BE2 JUMP JUMPDEST PUSH2 0x21EE JUMP JUMPDEST PUSH2 0x297 PUSH1 0xC SLOAD DUP2 JUMP JUMPDEST PUSH2 0x335 PUSH2 0x23C8 JUMP JUMPDEST PUSH2 0x297 PUSH1 0x19 SLOAD DUP2 JUMP JUMPDEST PUSH2 0x297 PUSH1 0x12 SLOAD DUP2 JUMP JUMPDEST PUSH2 0x335 PUSH2 0x5FA CALLDATASIZE PUSH1 0x4 PUSH2 0x2B0C JUMP JUMPDEST PUSH2 0x253D JUMP JUMPDEST PUSH2 0x297 PUSH1 0x64 DUP2 JUMP JUMPDEST PUSH2 0x297 PUSH2 0x615 CALLDATASIZE PUSH1 0x4 PUSH2 0x29B0 JUMP JUMPDEST PUSH1 0x1 PUSH1 0x1 PUSH1 0xA0 SHL SUB AND PUSH0 SWAP1 DUP2 MSTORE PUSH1 0x15 PUSH1 0x20 MSTORE PUSH1 0x40 SWAP1 KECCAK256 SLOAD SWAP1 JUMP JUMPDEST PUSH2 0x297 PUSH2 0x63D CALLDATASIZE PUSH1 0x4 PUSH2 0x29B0 JUMP JUMPDEST PUSH1 0x15 PUSH1 0x20 MSTORE PUSH0 SWAP1 DUP2 MSTORE PUSH1 0x40 SWAP1 KECCAK256 SLOAD DUP2 JUMP JUMPDEST PUSH1 0x17 SLOAD PUSH2 0x34B SWAP1 PUSH1 0xFF AND DUP2 JUMP JUMPDEST PUSH2 0x335 PUSH2 0x669 CALLDATASIZE PUSH1 0x4 PUSH2 0x29B0 JUMP JUMPDEST PUSH2 0x2619 JUMP JUMPDEST PUSH2 0x297 PUSH9 0x3635C9ADC5DEA00000 DUP2 JUMP JUMPDEST PUSH2 0x34B PUSH2 0x68C CALLDATASIZE PUSH1 0x4 PUSH2 0x29B0 JUMP JUMPDEST PUSH1 0x16 PUSH1 0x20 MSTORE PUSH0 SWAP1 DUP2 MSTORE PUSH1 0x40 SWAP1 KECCAK256 SLOAD PUSH1 0xFF AND DUP2 JUMP JUMPDEST PUSH0 DUP1 PUSH1 0x11 SLOAD PUSH1 0x1 PUSH2 0x6B1 SWAP2 SWAP1 PUSH2 0x2CAB JUMP JUMPDEST SWAP1 POP PUSH4 0x3B9ACA00 DUP2 GT PUSH2 0x6C3 JUMPI SWAP2 SWAP1 POP JUMP JUMPDEST PUSH0 SWAP2 POP POP SWAP1 JUMP JUMPDEST PUSH1 0x11 SLOAD PUSH0 SWAP1 JUMPDEST PUSH1 0x1 DUP2 LT PUSH2 0x708 JUMPI PUSH0 DUP2 DUP2 MSTORE PUSH1 0x10 PUSH1 0x20 MSTORE PUSH1 0x40 SWAP1 KECCAK256 PUSH1 0x3 ADD SLOAD PUSH1 0xFF AND ISZERO PUSH2 0x6F6 JUMPI SWAP2 SWAP1 POP JUMP JUMPDEST DUP1 PUSH2 0x700 DUP2 PUSH2 0x2CC4 JUMP JUMPDEST SWAP2 POP POP PUSH2 0x6D0 JUMP JUMPDEST POP PUSH0 SWAP1 POP SWAP1 JUMP JUMPDEST PUSH1 0x1 PUSH1 0x1 PUSH1 0xA0 SHL SUB DUP2 AND PUSH0 SWAP1 DUP2 MSTORE PUSH1 0x14 PUSH1 0x20 MSTORE PUSH1 0x40 DUP2 KECCAK256 PUSH1 0x9 DUP2 ADD SLOAD DUP3 SWAP1 PUSH2 0x739 SWAP1 PUSH1 0x3 SWAP1 PUSH2 0x2CD9 JUMP JUMPDEST SWAP1 POP PUSH0 DUP3 PUSH1 0xB ADD SLOAD DUP4 PUSH1 0xA ADD SLOAD PUSH2 0x750 SWAP2 SWAP1 PUSH2 0x2CF0 JUMP JUMPDEST SWAP1 POP DUP2 DUP2 DUP5 PUSH1 0xB ADD SLOAD PUSH2 0x763 SWAP2 SWAP1 PUSH2 0x2CAB JUMP JUMPDEST GT ISZERO PUSH2 0x77B JUMPI PUSH1 0xB DUP4 ADD SLOAD PUSH2 0x778 SWAP1 DUP4 PUSH2 0x2CF0 JUMP JUMPDEST SWAP1 POP JUMPDEST SWAP5 SWAP4 POP POP POP POP JUMP JUMPDEST PUSH1 0x13 PUSH1 0x20 MSTORE DUP2 PUSH0 MSTORE PUSH1 0x40 PUSH0 KECCAK256 DUP2 DUP2 SLOAD DUP2 LT PUSH2 0x79C JUMPI PUSH0 DUP1 REVERT JUMPDEST PUSH0 SWAP2 DUP3 MSTORE PUSH1 0x20 SWAP1 SWAP2 KECCAK256 PUSH1 0x6 SWAP1 SWAP2 MUL ADD DUP1 SLOAD PUSH1 0x1 DUP3 ADD SLOAD PUSH1 0x2 DUP4 ADD SLOAD PUSH1 0x3 DUP5 ADD SLOAD PUSH1 0x4 DUP6 ADD DUP1 SLOAD SWAP5 SWAP8 POP PUSH1 0x1 PUSH1 0x1 PUSH1 0xA0 SHL SUB SWAP1 SWAP4 AND SWAP6 POP SWAP1 SWAP4 SWAP1 SWAP3 SWAP1 SWAP2 SWAP1 PUSH2 0x7E2 SWAP1 PUSH2 0x2D03 JUMP JUMPDEST DUP1 PUSH1 0x1F ADD PUSH1 0x20 DUP1 SWAP2 DIV MUL PUSH1 0x20 ADD PUSH1 0x40 MLOAD SWAP1 DUP2 ADD PUSH1 0x40 MSTORE DUP1 SWAP3 SWAP2 SWAP1 DUP2 DUP2 MSTORE PUSH1 0x20 ADD DUP3 DUP1 SLOAD PUSH2 0x80E SWAP1 PUSH2 0x2D03 JUMP JUMPDEST DUP1 ISZERO PUSH2 0x859 JUMPI DUP1 PUSH1 0x1F LT PUSH2 0x830 JUMPI PUSH2 0x100 DUP1 DUP4 SLOAD DIV MUL DUP4 MSTORE SWAP2 PUSH1 0x20 ADD SWAP2 PUSH2 0x859 JUMP JUMPDEST DUP3 ADD SWAP2 SWAP1 PUSH0 MSTORE PUSH1 0x20 PUSH0 KECCAK256 SWAP1 JUMPDEST DUP2 SLOAD DUP2 MSTORE SWAP1 PUSH1 0x1 ADD SWAP1 PUSH1 0x20 ADD DUP1 DUP4 GT PUSH2 0x83C JUMPI DUP3 SWAP1 SUB PUSH1 0x1F AND DUP3 ADD SWAP2 JUMPDEST POP POP POP PUSH1 0x5 SWAP1 SWAP4 ADD SLOAD SWAP2 SWAP3 POP POP PUSH1 0xFF AND DUP7 JUMP JUMPDEST PUSH2 0x874 PUSH2 0x2653 JUMP JUMPDEST CALLER PUSH0 DUP2 DUP2 MSTORE PUSH1 0x14 PUSH1 0x20 MSTORE PUSH1 0x40 DUP2 KECCAK256 SWAP2 PUSH2 0x88C SWAP1 PUSH2 0x70F JUMP JUMPDEST SWAP1 POP PUSH9 0x3635C9ADC5DEA00000 DUP2 LT ISZERO PUSH2 0x8E2 JUMPI PUSH1 0x40 MLOAD PUSH3 0x461BCD PUSH1 0xE5 SHL DUP2 MSTORE PUSH1 0x20 PUSH1 0x4 DUP3 ADD MSTORE PUSH1 0x13 PUSH1 0x24 DUP3 ADD MSTORE PUSH19 0x4E6F7420656E6F75676820746F20636C61696D PUSH1 0x68 SHL PUSH1 0x44 DUP3 ADD MSTORE PUSH1 0x64 ADD JUMPDEST PUSH1 0x40 MLOAD DUP1 SWAP2 SUB SWAP1 REVERT JUMPDEST DUP1 DUP3 PUSH1 0xB ADD PUSH0 DUP3 DUP3 SLOAD PUSH2 0x8F5 SWAP2 SWAP1 PUSH2 0x2CAB JUMP JUMPDEST SWAP1 SWAP2 SSTORE POP POP PUSH1 0x9 SLOAD PUSH1 0x40 MLOAD PUSH4 0x70A08231 PUSH1 0xE0 SHL DUP2 MSTORE ADDRESS PUSH1 0x4 DUP3 ADD MSTORE DUP3 SWAP2 PUSH1 0x1 PUSH1 0x1 PUSH1 0xA0 SHL SUB AND SWAP1 PUSH4 0x70A08231 SWAP1 PUSH1 0x24 ADD PUSH1 0x20 PUSH1 0x40 MLOAD DUP1 DUP4 SUB DUP2 DUP7 GAS STATICCALL ISZERO DUP1 ISZERO PUSH2 0x940 JUMPI RETURNDATASIZE PUSH0 DUP1 RETURNDATACOPY RETURNDATASIZE PUSH0 REVERT JUMPDEST POP POP POP POP PUSH1 0x40 MLOAD RETURNDATASIZE PUSH1 0x1F NOT PUSH1 0x1F DUP3 ADD AND DUP3 ADD DUP1 PUSH1 0x40 MSTORE POP DUP2 ADD SWAP1 PUSH2 0x964 SWAP2 SWAP1 PUSH2 0x2D3B JUMP JUMPDEST LT ISZERO PUSH2 0x9A6 JUMPI PUSH1 0x40 MLOAD PUSH3 0x461BCD PUSH1 0xE5 SHL DUP2 MSTORE PUSH1 0x20 PUSH1 0x4 DUP3 ADD MSTORE PUSH1 0x11 PUSH1 0x24 DUP3 ADD MSTORE PUSH17 0x496E73756666696369656E7420494E5231 PUSH1 0x78 SHL PUSH1 0x44 DUP3 ADD MSTORE PUSH1 0x64 ADD PUSH2 0x8D9 JUMP JUMPDEST PUSH1 0x9 SLOAD PUSH2 0x9BD SWAP1 PUSH1 0x1 PUSH1 0x1 PUSH1 0xA0 SHL SUB AND CALLER DUP4 PUSH2 0x26AC JUMP JUMPDEST PUSH1 0x40 MLOAD DUP2 DUP2 MSTORE CALLER SWAP1 PUSH32 0x5BE4D22009FEA85381595ED91090BC5C0BC92A93FE07ED7472C5888EB1993F83 SWAP1 PUSH1 0x20 ADD PUSH1 0x40 MLOAD DUP1 SWAP2 SUB SWAP1 LOG2 CALLER PUSH1 0x1 PUSH1 0x1 PUSH1 0xA0 SHL SUB AND PUSH32 0xDD8025B728F6881D55401EC3C5F58BAC7E135A199306892B83593F9BF4BFE23A DUP4 PUSH1 0xA ADD SLOAD PUSH2 0xA2B CALLER PUSH2 0x70F JUMP JUMPDEST DUP6 PUSH1 0xB ADD SLOAD PUSH1 0x3 DUP8 PUSH1 0x9 ADD SLOAD PUSH2 0xA41 SWAP2 SWAP1 PUSH2 0x2CD9 JUMP JUMPDEST PUSH1 0x40 DUP1 MLOAD SWAP5 DUP6 MSTORE PUSH1 0x20 DUP6 ADD SWAP4 SWAP1 SWAP4 MSTORE SWAP2 DUP4 ADD MSTORE PUSH1 0x60 DUP3 ADD MSTORE PUSH1 0x80 ADD PUSH1 0x40 MLOAD DUP1 SWAP2 SUB SWAP1 LOG2 POP POP PUSH2 0xA6F PUSH1 0x1 DUP1 SSTORE JUMP JUMPDEST JUMP JUMPDEST PUSH2 0xA79 PUSH2 0x270B JUMP JUMPDEST PUSH1 0x1 PUSH1 0x1 PUSH1 0xA0 SHL SUB DUP2 AND PUSH2 0xABE JUMPI PUSH1 0x40 MLOAD PUSH3 0x461BCD PUSH1 0xE5 SHL DUP2 MSTORE PUSH1 0x20 PUSH1 0x4 DUP3 ADD MSTORE PUSH1 0xC PUSH1 0x24 DUP3 ADD MSTORE PUSH12 0x5A65726F2061646472657373 PUSH1 0xA0 SHL PUSH1 0x44 DUP3 ADD MSTORE PUSH1 0x64 ADD PUSH2 0x8D9 JUMP JUMPDEST PUSH1 0x9 DUP1 SLOAD PUSH1 0x1 PUSH1 0x1 PUSH1 0xA0 SHL SUB NOT AND PUSH1 0x1 PUSH1 0x1 PUSH1 0xA0 SHL SUB DUP4 AND SWAP1 DUP2 OR SWAP1 SWAP2 SSTORE PUSH1 0x40 DUP1 MLOAD PUSH4 0x313CE567 PUSH1 0xE0 SHL DUP2 MSTORE SWAP1 MLOAD PUSH4 0x313CE567 SWAP2 PUSH1 0x4 DUP1 DUP3 ADD SWAP3 PUSH1 0x20 SWAP3 SWAP1 SWAP2 SWAP1 DUP3 SWAP1 SUB ADD DUP2 DUP7 GAS STATICCALL ISZERO DUP1 ISZERO PUSH2 0xB15 JUMPI RETURNDATASIZE PUSH0 DUP1 RETURNDATACOPY RETURNDATASIZE PUSH0 REVERT JUMPDEST POP POP POP POP PUSH1 0x40 MLOAD RETURNDATASIZE PUSH1 0x1F NOT PUSH1 0x1F DUP3 ADD AND DUP3 ADD DUP1 PUSH1 0x40 MSTORE POP DUP2 ADD SWAP1 PUSH2 0xB39 SWAP2 SWAP1 PUSH2 0x2D52 JUMP JUMPDEST PUSH1 0xB DUP1 SLOAD PUSH1 0xFF SWAP3 SWAP1 SWAP3 AND PUSH1 0x1 PUSH1 0xA0 SHL MUL PUSH1 0xFF PUSH1 0xA0 SHL NOT SWAP1 SWAP3 AND SWAP2 SWAP1 SWAP2 OR SWAP1 SSTORE PUSH1 0x1 PUSH1 0x1 PUSH1 0xA0 SHL SUB DUP2 AND PUSH0 DUP2 DUP2 MSTORE PUSH1 0xD PUSH1 0x20 SWAP1 DUP2 MSTORE PUSH1 0x40 SWAP2 DUP3 SWAP1 KECCAK256 DUP1 SLOAD PUSH1 0xFF NOT AND PUSH1 0x1 OR SWAP1 SSTORE SWAP1 MLOAD SWAP2 DUP3 MSTORE PUSH32 0xECCC870B3D8D88FD5923D96E7A466768A74B6C48460640CF23AA6162AA4F80F0 SWAP2 ADD JUMPDEST PUSH1 0x40 MLOAD DUP1 SWAP2 SUB SWAP1 LOG1 POP JUMP JUMPDEST PUSH2 0xBBA PUSH2 0x270B JUMP JUMPDEST DUP1 PUSH1 0x1 PUSH1 0x1 PUSH1 0xA0 SHL SUB AND DUP3 PUSH1 0x1 PUSH1 0x1 PUSH1 0xA0 SHL SUB AND SUB PUSH2 0xC0F JUMPI PUSH1 0x40 MLOAD PUSH3 0x461BCD PUSH1 0xE5 SHL DUP2 MSTORE PUSH1 0x20 PUSH1 0x4 DUP3 ADD MSTORE PUSH1 0x11 PUSH1 0x24 DUP3 ADD MSTORE PUSH17 0x21B0B73737BA103932B332B91039B2B633 PUSH1 0x79 SHL PUSH1 0x44 DUP3 ADD MSTORE PUSH1 0x64 ADD PUSH2 0x8D9 JUMP JUMPDEST PUSH1 0x1 PUSH1 0x1 PUSH1 0xA0 SHL SUB DUP3 AND PUSH0 SWAP1 DUP2 MSTORE PUSH1 0x14 PUSH1 0x20 MSTORE PUSH1 0x40 SWAP1 KECCAK256 PUSH1 0xC ADD SLOAD PUSH1 0xFF AND PUSH2 0xC79 JUMPI PUSH1 0x40 MLOAD PUSH3 0x461BCD PUSH1 0xE5 SHL DUP2 MSTORE PUSH1 0x20 PUSH1 0x4 DUP3 ADD MSTORE PUSH1 0x17 PUSH1 0x24 DUP3 ADD MSTORE PUSH32 0x55736572206D7573742062652072656769737465726564000000000000000000 PUSH1 0x44 DUP3 ADD MSTORE PUSH1 0x64 ADD PUSH2 0x8D9 JUMP JUMPDEST PUSH1 0x1 PUSH1 0x1 PUSH1 0xA0 SHL SUB DUP2 AND ISZERO DUP1 PUSH2 0xCA9 JUMPI POP PUSH1 0x1 PUSH1 0x1 PUSH1 0xA0 SHL SUB DUP2 AND PUSH0 SWAP1 DUP2 MSTORE PUSH1 0x14 PUSH1 0x20 MSTORE PUSH1 0x40 SWAP1 KECCAK256 PUSH1 0xC ADD SLOAD PUSH1 0xFF AND JUMPDEST PUSH2 0xCF5 JUMPI PUSH1 0x40 MLOAD PUSH3 0x461BCD PUSH1 0xE5 SHL DUP2 MSTORE PUSH1 0x20 PUSH1 0x4 DUP3 ADD MSTORE PUSH1 0x1B PUSH1 0x24 DUP3 ADD MSTORE PUSH32 0x5265666572726572206D75737420626520726567697374657265640000000000 PUSH1 0x44 DUP3 ADD MSTORE PUSH1 0x64 ADD PUSH2 0x8D9 JUMP JUMPDEST PUSH1 0x1 PUSH1 0x1 PUSH1 0xA0 SHL SUB DUP1 DUP4 AND PUSH0 SWAP1 DUP2 MSTORE PUSH1 0x14 PUSH1 0x20 MSTORE PUSH1 0x40 DUP2 KECCAK256 DUP1 SLOAD DUP5 DUP5 AND PUSH1 0x1 PUSH1 0x1 PUSH1 0xA0 SHL SUB NOT DUP3 AND OR SWAP1 SWAP2 SSTORE SWAP1 SWAP2 AND SWAP1 DUP3 SWAP1 JUMPDEST PUSH1 0x7 PUSH1 0xFF DUP3 AND LT ISZERO PUSH2 0xDB5 JUMPI PUSH1 0x1 PUSH1 0x1 PUSH1 0xA0 SHL SUB DUP6 AND PUSH0 SWAP1 DUP2 MSTORE PUSH1 0x14 PUSH1 0x20 MSTORE PUSH1 0x40 SWAP1 KECCAK256 DUP3 SWAP1 PUSH1 0x1 ADD PUSH1 0xFF DUP4 AND PUSH1 0x7 DUP2 LT PUSH2 0xD64 JUMPI PUSH2 0xD64 PUSH2 0x2D6D JUMP JUMPDEST ADD DUP1 SLOAD PUSH1 0x1 PUSH1 0x1 PUSH1 0xA0 SHL SUB NOT AND PUSH1 0x1 PUSH1 0x1 PUSH1 0xA0 SHL SUB SWAP3 DUP4 AND OR SWAP1 SSTORE DUP3 AND ISZERO PUSH2 0xDB5 JUMPI PUSH1 0x1 PUSH1 0x1 PUSH1 0xA0 SHL SUB SWAP2 DUP3 AND PUSH0 SWAP1 DUP2 MSTORE PUSH1 0x14 PUSH1 0x20 MSTORE PUSH1 0x40 SWAP1 KECCAK256 SLOAD SWAP1 SWAP2 AND SWAP1 DUP1 PUSH2 0xDAD DUP2 PUSH2 0x2D81 JUMP JUMPDEST SWAP2 POP POP PUSH2 0xD28 JUMP JUMPDEST POP DUP3 PUSH1 0x1 PUSH1 0x1 PUSH1 0xA0 SHL SUB AND DUP3 PUSH1 0x1 PUSH1 0x1 PUSH1 0xA0 SHL SUB AND DUP6 PUSH1 0x1 PUSH1 0x1 PUSH1 0xA0 SHL SUB AND PUSH32 0xF8B9FE4D008320E6F048C61E41E9CC56CE351354AD0CB9A868BD3C4BD6928FD5 PUSH1 0x40 MLOAD PUSH1 0x40 MLOAD DUP1 SWAP2 SUB SWAP1 LOG4 POP POP POP POP JUMP JUMPDEST CALLER PUSH0 SWAP1 DUP2 MSTORE PUSH1 0x14 PUSH1 0x20 MSTORE PUSH1 0x40 SWAP1 KECCAK256 PUSH1 0xC ADD SLOAD PUSH1 0xFF AND ISZERO PUSH2 0xE5D JUMPI PUSH1 0x40 MLOAD PUSH3 0x461BCD PUSH1 0xE5 SHL DUP2 MSTORE PUSH1 0x20 PUSH1 0x4 DUP3 ADD MSTORE PUSH1 0x12 PUSH1 0x24 DUP3 ADD MSTORE PUSH18 0x105B1C9958591E481C9959DA5CDD195C9959 PUSH1 0x72 SHL PUSH1 0x44 DUP3 ADD MSTORE PUSH1 0x64 ADD PUSH2 0x8D9 JUMP JUMPDEST PUSH1 0x1 PUSH1 0x1 PUSH1 0xA0 SHL SUB DUP2 AND ISZERO DUP1 PUSH2 0xE8D JUMPI POP PUSH1 0x1 PUSH1 0x1 PUSH1 0xA0 SHL SUB DUP2 AND PUSH0 SWAP1 DUP2 MSTORE PUSH1 0x14 PUSH1 0x20 MSTORE PUSH1 0x40 SWAP1 KECCAK256 PUSH1 0xC ADD SLOAD PUSH1 0xFF AND JUMPDEST PUSH2 0xED9 JUMPI PUSH1 0x40 MLOAD PUSH3 0x461BCD PUSH1 0xE5 SHL DUP2 MSTORE PUSH1 0x20 PUSH1 0x4 DUP3 ADD MSTORE PUSH1 0x1B PUSH1 0x24 DUP3 ADD MSTORE PUSH32 0x5265666572726572206D75737420626520726567697374657265640000000000 PUSH1 0x44 DUP3 ADD MSTORE PUSH1 0x64 ADD PUSH2 0x8D9 JUMP JUMPDEST CALLER PUSH1 0x1 PUSH1 0x1 PUSH1 0xA0 SHL SUB DUP3 AND SUB PUSH2 0xF25 JUMPI PUSH1 0x40 MLOAD PUSH3 0x461BCD PUSH1 0xE5 SHL DUP2 MSTORE PUSH1 0x20 PUSH1 0x4 DUP3 ADD MSTORE PUSH1 0x11 PUSH1 0x24 DUP3 ADD MSTORE PUSH17 0x21B0B73737BA103932B332B91039B2B633 PUSH1 0x79 SHL PUSH1 0x44 DUP3 ADD MSTORE PUSH1 0x64 ADD PUSH2 0x8D9 JUMP JUMPDEST PUSH1 0x1 PUSH1 0x1 PUSH1 0xA0 SHL SUB DUP2 AND ISZERO PUSH2 0xFD9 JUMPI PUSH1 0x1 PUSH1 0x1 PUSH1 0xA0 SHL SUB DUP2 AND PUSH0 SWAP1 DUP2 MSTORE PUSH1 0x14 PUSH1 0x20 MSTORE PUSH1 0x40 SWAP1 KECCAK256 PUSH1 0x8 ADD SLOAD PUSH1 0x24 GT PUSH2 0xF9E JUMPI PUSH1 0x40 MLOAD PUSH3 0x461BCD PUSH1 0xE5 SHL DUP2 MSTORE PUSH1 0x20 PUSH1 0x4 DUP3 ADD MSTORE PUSH1 0x1B PUSH1 0x24 DUP3 ADD MSTORE PUSH32 0x44697265637420726566657272616C2063617020726561636865640000000000 PUSH1 0x44 DUP3 ADD MSTORE PUSH1 0x64 ADD PUSH2 0x8D9 JUMP JUMPDEST PUSH1 0x1 PUSH1 0x1 PUSH1 0xA0 SHL SUB DUP2 AND PUSH0 SWAP1 DUP2 MSTORE PUSH1 0x14 PUSH1 0x20 SWAP1 DUP2 MSTORE PUSH1 0x40 DUP3 KECCAK256 PUSH1 0x8 ADD DUP1 SLOAD PUSH1 0x1 DUP2 ADD DUP3 SSTORE SWAP1 DUP4 MSTORE SWAP2 KECCAK256 ADD DUP1 SLOAD PUSH1 0x1 PUSH1 0x1 PUSH1 0xA0 SHL SUB NOT AND CALLER OR SWAP1 SSTORE JUMPDEST CALLER PUSH0 SWAP1 DUP2 MSTORE PUSH1 0x14 PUSH1 0x20 MSTORE PUSH1 0x40 DUP2 KECCAK256 PUSH1 0xC DUP2 ADD DUP1 SLOAD PUSH1 0xFF NOT AND PUSH1 0x1 OR SWAP1 SSTORE DUP1 SLOAD PUSH1 0x1 PUSH1 0x1 PUSH1 0xA0 SHL SUB DUP5 AND PUSH1 0x1 PUSH1 0x1 PUSH1 0xA0 SHL SUB NOT SWAP1 SWAP2 AND OR SWAP1 SSTORE DUP2 SWAP1 JUMPDEST PUSH1 0x7 PUSH1 0xFF DUP3 AND LT ISZERO PUSH2 0x1098 JUMPI CALLER PUSH0 SWAP1 DUP2 MSTORE PUSH1 0x14 PUSH1 0x20 MSTORE PUSH1 0x40 SWAP1 KECCAK256 DUP3 SWAP1 PUSH1 0x1 ADD PUSH1 0xFF DUP4 AND PUSH1 0x7 DUP2 LT PUSH2 0x1047 JUMPI PUSH2 0x1047 PUSH2 0x2D6D JUMP JUMPDEST ADD DUP1 SLOAD PUSH1 0x1 PUSH1 0x1 PUSH1 0xA0 SHL SUB NOT AND PUSH1 0x1 PUSH1 0x1 PUSH1 0xA0 SHL SUB SWAP3 DUP4 AND OR SWAP1 SSTORE DUP3 AND ISZERO PUSH2 0x1098 JUMPI PUSH1 0x1 PUSH1 0x1 PUSH1 0xA0 SHL SUB SWAP2 DUP3 AND PUSH0 SWAP1 DUP2 MSTORE PUSH1 0x14 PUSH1 0x20 MSTORE PUSH1 0x40 SWAP1 KECCAK256 SLOAD SWAP1 SWAP2 AND SWAP1 DUP1 PUSH2 0x1090 DUP2 PUSH2 0x2D81 JUMP JUMPDEST SWAP2 POP POP PUSH2 0x1014 JUMP JUMPDEST POP POP POP JUMP JUMPDEST PUSH2 0x10A5 PUSH2 0x270B JUMP JUMPDEST PUSH1 0x40 MLOAD PUSH4 0x70A08231 PUSH1 0xE0 SHL DUP2 MSTORE ADDRESS PUSH1 0x4 DUP3 ADD MSTORE DUP3 SWAP1 PUSH1 0x1 PUSH1 0x1 PUSH1 0xA0 SHL SUB DUP6 AND SWAP1 PUSH4 0x70A08231 SWAP1 PUSH1 0x24 ADD PUSH1 0x20 PUSH1 0x40 MLOAD DUP1 DUP4 SUB DUP2 DUP7 GAS STATICCALL ISZERO DUP1 ISZERO PUSH2 0x10E9 JUMPI RETURNDATASIZE PUSH0 DUP1 RETURNDATACOPY RETURNDATASIZE PUSH0 REVERT JUMPDEST POP POP POP POP PUSH1 0x40 MLOAD RETURNDATASIZE PUSH1 0x1F NOT PUSH1 0x1F DUP3 ADD AND DUP3 ADD DUP1 PUSH1 0x40 MSTORE POP DUP2 ADD SWAP1 PUSH2 0x110D SWAP2 SWAP1 PUSH2 0x2D3B JUMP JUMPDEST LT ISZERO PUSH2 0x115B JUMPI PUSH1 0x40 MLOAD PUSH3 0x461BCD PUSH1 0xE5 SHL DUP2 MSTORE PUSH1 0x20 PUSH1 0x4 DUP3 ADD MSTORE PUSH1 0x1E PUSH1 0x24 DUP3 ADD MSTORE PUSH32 0x496E73756666696369656E7420746F6B656E20696E20636F6E74726163740000 PUSH1 0x44 DUP3 ADD MSTORE PUSH1 0x64 ADD PUSH2 0x8D9 JUMP JUMPDEST PUSH2 0x116F PUSH1 0x1 PUSH1 0x1 PUSH1 0xA0 SHL SUB DUP5 AND DUP3 DUP5 PUSH2 0x26AC JUMP JUMPDEST PUSH1 0x40 DUP1 MLOAD DUP2 DUP2 MSTORE PUSH1 0xA DUP2 DUP4 ADD MSTORE PUSH10 0x41646D696E537765657 PUSH1 0xB4 SHL PUSH1 0x60 DUP3 ADD MSTORE PUSH1 0x20 DUP2 ADD DUP5 SWAP1 MSTORE SWAP1 MLOAD PUSH32 0x32F91AF51D2A8BBEB2808FFA648F1C5072F1C1CCDB64B39D003F051B496CC984 SWAP2 DUP2 SWAP1 SUB PUSH1 0x80 ADD SWAP1 LOG1 POP POP POP JUMP JUMPDEST PUSH2 0x11CF PUSH2 0x270B JUMP JUMPDEST PUSH1 0x17 DUP1 SLOAD PUSH1 0xFF NOT AND DUP3 ISZERO ISZERO SWAP1 DUP2 OR SWAP1 SWAP2 SSTORE PUSH1 0x40 MLOAD SWAP1 DUP2 MSTORE PUSH32 0x24DF690CF3950B574129729BEE40A9933D0F3B2D05DCD721C00D64570351EDB1 SWAP1 PUSH1 0x20 ADD PUSH2 0xBA7 JUMP JUMPDEST PUSH1 0x2 DUP2 PUSH1 0x7 DUP2 LT PUSH2 0x121F JUMPI PUSH0 DUP1 REVERT JUMPDEST ADD SLOAD SWAP1 POP DUP2 JUMP JUMPDEST PUSH2 0x122E PUSH2 0x270B JUMP JUMPDEST PUSH2 0xA6F PUSH0 PUSH2 0x2737 JUMP JUMPDEST PUSH2 0x123F PUSH2 0x270B JUMP JUMPDEST PUSH1 0x1 PUSH1 0x1 PUSH1 0xA0 SHL SUB DUP2 AND PUSH2 0x1284 JUMPI PUSH1 0x40 MLOAD PUSH3 0x461BCD PUSH1 0xE5 SHL DUP2 MSTORE PUSH1 0x20 PUSH1 0x4 DUP3 ADD MSTORE PUSH1 0xC PUSH1 0x24 DUP3 ADD MSTORE PUSH12 0x5A65726F2061646472657373 PUSH1 0xA0 SHL PUSH1 0x44 DUP3 ADD MSTORE PUSH1 0x64 ADD PUSH2 0x8D9 JUMP JUMPDEST PUSH1 0xA DUP1 SLOAD PUSH1 0x1 PUSH1 0x1 PUSH1 0xA0 SHL SUB NOT AND PUSH1 0x1 PUSH1 0x1 PUSH1 0xA0 SHL SUB DUP4 AND SWAP1 DUP2 OR SWAP1 SWAP2 SSTORE PUSH1 0x40 DUP1 MLOAD PUSH4 0x313CE567 PUSH1 0xE0 SHL DUP2 MSTORE SWAP1 MLOAD PUSH4 0x313CE567 SWAP2 PUSH1 0x4 DUP1 DUP3 ADD SWAP3 PUSH1 0x20 SWAP3 SWAP1 SWAP2 SWAP1 DUP3 SWAP1 SUB ADD DUP2 DUP7 GAS STATICCALL ISZERO DUP1 ISZERO PUSH2 0x12DB JUMPI RETURNDATASIZE PUSH0 DUP1 RETURNDATACOPY RETURNDATASIZE PUSH0 REVERT JUMPDEST POP POP POP POP PUSH1 0x40 MLOAD RETURNDATASIZE PUSH1 0x1F NOT PUSH1 0x1F DUP3 ADD AND DUP3 ADD DUP1 PUSH1 0x40 MSTORE POP DUP2 ADD SWAP1 PUSH2 0x12FF SWAP2 SWAP1 PUSH2 0x2D52 JUMP JUMPDEST PUSH1 0xB DUP1 SLOAD PUSH1 0xFF SWAP3 SWAP1 SWAP3 AND PUSH1 0x1 PUSH1 0xA8 SHL MUL PUSH1 0xFF PUSH1 0xA8 SHL NOT SWAP1 SWAP3 AND SWAP2 SWAP1 SWAP2 OR SWAP1 SSTORE PUSH1 0x1 PUSH1 0x1 PUSH1 0xA0 SHL SUB DUP2 AND PUSH0 DUP2 DUP2 MSTORE PUSH1 0xD PUSH1 0x20 SWAP1 DUP2 MSTORE PUSH1 0x40 SWAP2 DUP3 SWAP1 KECCAK256 DUP1 SLOAD PUSH1 0xFF NOT AND PUSH1 0x1 OR SWAP1 SSTORE SWAP1 MLOAD SWAP2 DUP3 MSTORE PUSH32 0x2EEBB86337116BB829D157848909E2848E7B06BB7F91F788C9DE450C63A804DC SWAP2 ADD PUSH2 0xBA7 JUMP JUMPDEST PUSH2 0x1379 PUSH2 0x270B JUMP JUMPDEST PUSH1 0x18 SLOAD DUP2 GT ISZERO PUSH2 0x13CB JUMPI PUSH1 0x40 MLOAD PUSH3 0x461BCD PUSH1 0xE5 SHL DUP2 MSTORE PUSH1 0x20 PUSH1 0x4 DUP3 ADD MSTORE PUSH1 0x1B PUSH1 0x24 DUP3 ADD MSTORE PUSH32 0x4E6F7420656E6F75676820726573657276652074726561737572790000000000 PUSH1 0x44 DUP3 ADD MSTORE PUSH1 0x64 ADD PUSH2 0x8D9 JUMP JUMPDEST DUP1 PUSH1 0x18 PUSH0 DUP3 DUP3 SLOAD PUSH2 0x13DC SWAP2 SWAP1 PUSH2 0x2CF0 JUMP JUMPDEST SWAP1 SWAP2 SSTORE POP POP PUSH1 0x9 SLOAD PUSH2 0x13F8 SWAP1 PUSH1 0x1 PUSH1 0x1 PUSH1 0xA0 SHL SUB AND CALLER DUP4 PUSH2 0x26AC JUMP JUMPDEST PUSH1 0x40 DUP1 MLOAD DUP2 DUP2 MSTORE PUSH1 0x7 SWAP2 DUP2 ADD SWAP2 SWAP1 SWAP2 MSTORE PUSH7 0x52657365727665 PUSH1 0xC8 SHL PUSH1 0x60 DUP3 ADD MSTORE PUSH1 0x20 DUP2 ADD DUP3 SWAP1 MSTORE PUSH32 0x32F91AF51D2A8BBEB2808FFA648F1C5072F1C1CCDB64B39D003F051B496CC984 SWAP1 PUSH1 0x80 ADD PUSH2 0xBA7 JUMP JUMPDEST PUSH2 0x1451 PUSH2 0x270B JUMP JUMPDEST PUSH1 0xB DUP1 SLOAD PUSH2 0xFFFF PUSH1 0xA0 SHL NOT AND PUSH1 0x1 PUSH1 0xA0 SHL PUSH1 0xFF SWAP5 DUP6 AND MUL PUSH1 0xFF PUSH1 0xA8 SHL NOT AND OR PUSH1 0x1 PUSH1 0xA8 SHL SWAP3 SWAP1 SWAP4 AND SWAP2 SWAP1 SWAP2 MUL SWAP2 SWAP1 SWAP2 OR SWAP1 SSTORE JUMP JUMPDEST PUSH1 0x10 PUSH1 0x20 MSTORE PUSH0 SWAP1 DUP2 MSTORE PUSH1 0x40 SWAP1 KECCAK256 DUP1 SLOAD PUSH1 0x1 DUP3 ADD DUP1 SLOAD SWAP2 SWAP3 SWAP2 PUSH2 0x14A6 SWAP1 PUSH2 0x2D03 JUMP JUMPDEST DUP1 PUSH1 0x1F ADD PUSH1 0x20 DUP1 SWAP2 DIV MUL PUSH1 0x20 ADD PUSH1 0x40 MLOAD SWAP1 DUP2 ADD PUSH1 0x40 MSTORE DUP1 SWAP3 SWAP2 SWAP1 DUP2 DUP2 MSTORE PUSH1 0x20 ADD DUP3 DUP1 SLOAD PUSH2 0x14D2 SWAP1 PUSH2 0x2D03 JUMP JUMPDEST DUP1 ISZERO PUSH2 0x151D JUMPI DUP1 PUSH1 0x1F LT PUSH2 0x14F4 JUMPI PUSH2 0x100 DUP1 DUP4 SLOAD DIV MUL DUP4 MSTORE SWAP2 PUSH1 0x20 ADD SWAP2 PUSH2 0x151D JUMP JUMPDEST DUP3 ADD SWAP2 SWAP1 PUSH0 MSTORE PUSH1 0x20 PUSH0 KECCAK256 SWAP1 JUMPDEST DUP2 SLOAD DUP2 MSTORE SWAP1 PUSH1 0x1 ADD SWAP1 PUSH1 0x20 ADD DUP1 DUP4 GT PUSH2 0x1500 JUMPI DUP3 SWAP1 SUB PUSH1 0x1F AND DUP3 ADD SWAP2 JUMPDEST POP POP POP PUSH1 0x2 DUP5 ADD SLOAD PUSH1 0x3 DUP6 ADD SLOAD PUSH1 0x4 SWAP1 SWAP6 ADD SLOAD SWAP4 SWAP5 SWAP1 SWAP4 PUSH1 0xFF DUP1 DUP4 AND SWAP5 POP PUSH2 0x100 SWAP1 SWAP3 DIV SWAP1 SWAP2 AND SWAP2 POP DUP7 JUMP JUMPDEST PUSH2 0x1551 PUSH2 0x270B JUMP JUMPDEST PUSH2 0x1559 PUSH2 0x2653 JUMP JUMPDEST PUSH0 DUP2 DUP2 MSTORE PUSH1 0x10 PUSH1 0x20 MSTORE PUSH1 0x40 SWAP1 KECCAK256 PUSH1 0x2 DUP2 ADD SLOAD PUSH2 0x15A9 JUMPI PUSH1 0x40 MLOAD PUSH3 0x461BCD PUSH1 0xE5 SHL DUP2 MSTORE PUSH1 0x20 PUSH1 0x4 DUP3 ADD MSTORE PUSH1 0xF PUSH1 0x24 DUP3 ADD MSTORE PUSH15 0x141BDBDB081B9BDD08199A5B1B1959 PUSH1 0x8A SHL PUSH1 0x44 DUP3 ADD MSTORE PUSH1 0x64 ADD PUSH2 0x8D9 JUMP JUMPDEST PUSH1 0x3 DUP2 ADD SLOAD PUSH2 0x100 SWAP1 DIV PUSH1 0xFF AND ISZERO PUSH2 0x15F6 JUMPI PUSH1 0x40 MLOAD PUSH3 0x461BCD PUSH1 0xE5 SHL DUP2 MSTORE PUSH1 0x20 PUSH1 0x4 DUP3 ADD MSTORE PUSH1 0x10 PUSH1 0x24 DUP3 ADD MSTORE PUSH16 0x105B1C9958591E481C185A59081BDD5D PUSH1 0x82 SHL PUSH1 0x44 DUP3 ADD MSTORE PUSH1 0x64 ADD PUSH2 0x8D9 JUMP JUMPDEST PUSH0 PUSH1 0x12 SLOAD PUSH1 0x18 SLOAD PUSH1 0x19 SLOAD PUSH2 0x160A SWAP2 SWAP1 PUSH2 0x2CAB JUMP JUMPDEST PUSH2 0x1615 SWAP1 PUSH1 0x64 PUSH2 0x2CD9 JUMP JUMPDEST PUSH2 0x161F SWAP2 SWAP1 PUSH2 0x2D9F JUMP JUMPDEST SWAP1 POP PUSH1 0x3C DUP2 LT ISZERO PUSH2 0x167E JUMPI PUSH1 0x40 MLOAD PUSH3 0x461BCD PUSH1 0xE5 SHL DUP2 MSTORE PUSH1 0x20 PUSH1 0x4 DUP3 ADD MSTORE PUSH1 0x24 DUP1 DUP3 ADD MSTORE PUSH32 0x496E73756666696369656E7420616476616E63652066756E647320286D696E20 PUSH1 0x44 DUP3 ADD MSTORE PUSH4 0x36302529 PUSH1 0xE0 SHL PUSH1 0x64 DUP3 ADD MSTORE PUSH1 0x84 ADD PUSH2 0x8D9 JUMP JUMPDEST PUSH0 JUMPDEST PUSH0 DUP5 DUP2 MSTORE PUSH1 0x13 PUSH1 0x20 MSTORE PUSH1 0x40 SWAP1 KECCAK256 SLOAD DUP2 LT ISZERO PUSH2 0x1862 JUMPI PUSH0 DUP5 DUP2 MSTORE PUSH1 0x13 PUSH1 0x20 MSTORE PUSH1 0x40 DUP2 KECCAK256 DUP1 SLOAD DUP4 SWAP1 DUP2 LT PUSH2 0x16B4 JUMPI PUSH2 0x16B4 PUSH2 0x2D6D JUMP JUMPDEST PUSH0 SWAP2 DUP3 MSTORE PUSH1 0x20 SWAP1 SWAP2 KECCAK256 PUSH1 0x6 SWAP1 SWAP2 MUL ADD PUSH1 0x5 DUP2 ADD SLOAD SWAP1 SWAP2 POP PUSH1 0xFF AND DUP1 PUSH2 0x16DB JUMPI POP PUSH1 0x2 DUP2 ADD SLOAD ISZERO JUMPDEST ISZERO PUSH2 0x16E6 JUMPI POP PUSH2 0x1852 JUMP JUMPDEST PUSH1 0x2 DUP2 ADD SLOAD PUSH1 0x3 DUP3 ADD SLOAD PUSH0 SWAP1 PUSH1 0x64 SWAP1 PUSH2 0x16FF SWAP1 DUP5 PUSH2 0x2CD9 JUMP JUMPDEST PUSH2 0x1709 SWAP2 SWAP1 PUSH2 0x2D9F JUMP JUMPDEST SWAP1 POP PUSH0 PUSH2 0x1716 DUP3 DUP5 PUSH2 0x2CAB JUMP JUMPDEST SWAP1 POP PUSH0 PUSH1 0x64 PUSH2 0x1726 DUP4 PUSH1 0x2 PUSH2 0x2CD9 JUMP JUMPDEST PUSH2 0x1730 SWAP2 SWAP1 PUSH2 0x2D9F JUMP JUMPDEST SWAP1 POP DUP1 PUSH1 0x18 PUSH0 DUP3 DUP3 SLOAD PUSH2 0x1743 SWAP2 SWAP1 PUSH2 0x2CAB JUMP JUMPDEST SWAP1 SWAP2 SSTORE POP PUSH2 0x1753 SWAP1 POP DUP2 DUP4 PUSH2 0x2CF0 JUMP JUMPDEST PUSH1 0x1 DUP7 ADD SLOAD PUSH1 0x1 PUSH1 0x1 PUSH1 0xA0 SHL SUB AND PUSH0 SWAP1 DUP2 MSTORE PUSH1 0x15 PUSH1 0x20 MSTORE PUSH1 0x40 DUP2 KECCAK256 DUP1 SLOAD SWAP1 SWAP2 SWAP1 PUSH2 0x177E SWAP1 DUP5 SWAP1 PUSH2 0x2CAB JUMP JUMPDEST SWAP1 SWAP2 SSTORE POP POP PUSH1 0x5 DUP6 ADD DUP1 SLOAD PUSH1 0xFF NOT AND PUSH1 0x1 SWAP1 DUP2 OR SWAP1 SWAP2 SSTORE DUP6 ADD SLOAD DUP6 SLOAD PUSH1 0x1 PUSH1 0x1 PUSH1 0xA0 SHL SUB SWAP1 SWAP2 AND SWAP1 PUSH32 0x807C2C73192F2D30961A7D01EC8DC57115A4CD9F9BD0434331BEACB916C6A8CC SWAP1 DUP12 SWAP1 PUSH2 0x17D4 DUP6 DUP8 PUSH2 0x2CF0 JUMP JUMPDEST PUSH1 0x40 DUP1 MLOAD SWAP4 DUP5 MSTORE PUSH1 0x20 DUP5 ADD SWAP3 SWAP1 SWAP3 MSTORE SWAP1 DUP3 ADD MSTORE PUSH1 0x60 ADD PUSH1 0x40 MLOAD DUP1 SWAP2 SUB SWAP1 LOG2 PUSH1 0x1 DUP6 DUP2 ADD SLOAD PUSH1 0x1 PUSH1 0x1 PUSH1 0xA0 SHL SUB AND PUSH0 DUP2 DUP2 MSTORE PUSH1 0x15 PUSH1 0x20 SWAP1 DUP2 MSTORE PUSH1 0x40 SWAP2 DUP3 SWAP1 KECCAK256 SLOAD DUP3 MLOAD SWAP1 DUP2 MSTORE SWAP1 DUP2 ADD SWAP4 SWAP1 SWAP4 MSTORE SWAP1 SWAP2 PUSH32 0x3DD4FDA5FFEB4C7E45847FA82B4227A234840395A1170E170BBA47DB13FBFFF8 SWAP2 ADD PUSH1 0x40 MLOAD DUP1 SWAP2 SUB SWAP1 LOG2 POP POP POP POP POP JUMPDEST PUSH2 0x185B DUP2 PUSH2 0x2DBE JUMP JUMPDEST SWAP1 POP PUSH2 0x1680 JUMP JUMPDEST POP POP PUSH1 0x3 ADD DUP1 SLOAD PUSH2 0xFFFF NOT AND PUSH2 0x100 OR SWAP1 SSTORE PUSH2 0x187D PUSH1 0x1 DUP1 SSTORE JUMP JUMPDEST POP JUMP JUMPDEST PUSH1 0x17 SLOAD PUSH1 0xFF AND ISZERO PUSH2 0x18CC JUMPI PUSH1 0x40 MLOAD PUSH3 0x461BCD PUSH1 0xE5 SHL DUP2 MSTORE PUSH1 0x20 PUSH1 0x4 DUP3 ADD MSTORE PUSH1 0x16 PUSH1 0x24 DUP3 ADD MSTORE PUSH22 0x456D657267656E63793A204E6F206465706F73697473 PUSH1 0x50 SHL PUSH1 0x44 DUP3 ADD MSTORE PUSH1 0x64 ADD PUSH2 0x8D9 JUMP JUMPDEST PUSH2 0x18D4 PUSH2 0x2653 JUMP JUMPDEST CALLER PUSH0 SWAP1 DUP2 MSTORE PUSH1 0x14 PUSH1 0x20 MSTORE PUSH1 0x40 SWAP1 KECCAK256 PUSH1 0xC ADD SLOAD PUSH1 0xFF AND PUSH2 0x1926 JUMPI PUSH1 0x40 MLOAD PUSH3 0x461BCD PUSH1 0xE5 SHL DUP2 MSTORE PUSH1 0x20 PUSH1 0x4 DUP3 ADD MSTORE PUSH1 0xE PUSH1 0x24 DUP3 ADD MSTORE PUSH14 0x139BDD081C9959DA5CDD195C9959 PUSH1 0x92 SHL PUSH1 0x44 DUP3 ADD MSTORE PUSH1 0x64 ADD PUSH2 0x8D9 JUMP JUMPDEST CALLER PUSH0 SWAP1 DUP2 MSTORE PUSH1 0x16 PUSH1 0x20 MSTORE PUSH1 0x40 SWAP1 KECCAK256 SLOAD PUSH1 0xFF AND ISZERO PUSH2 0x1973 JUMPI PUSH1 0x40 MLOAD PUSH3 0x461BCD PUSH1 0xE5 SHL DUP2 MSTORE PUSH1 0x20 PUSH1 0x4 DUP3 ADD MSTORE PUSH1 0xB PUSH1 0x24 DUP3 ADD MSTORE PUSH11 0x109B1858DADB1A5CDD1959 PUSH1 0xAA SHL PUSH1 0x44 DUP3 ADD MSTORE PUSH1 0x64 ADD PUSH2 0x8D9 JUMP JUMPDEST PUSH0 DUP2 PUSH2 0x198A JUMPI PUSH1 0x9 SLOAD PUSH1 0x1 PUSH1 0x1 PUSH1 0xA0 SHL SUB AND PUSH2 0x1997 JUMP JUMPDEST PUSH1 0xA SLOAD PUSH1 0x1 PUSH1 0x1 PUSH1 0xA0 SHL SUB AND JUMPDEST PUSH1 0x1 PUSH1 0x1 PUSH1 0xA0 SHL SUB DUP2 AND PUSH0 SWAP1 DUP2 MSTORE PUSH1 0xD PUSH1 0x20 MSTORE PUSH1 0x40 SWAP1 KECCAK256 SLOAD SWAP1 SWAP2 POP PUSH1 0xFF AND PUSH2 0x19F9 JUMPI PUSH1 0x40 MLOAD PUSH3 0x461BCD PUSH1 0xE5 SHL DUP2 MSTORE PUSH1 0x20 PUSH1 0x4 DUP3 ADD MSTORE PUSH1 0x15 PUSH1 0x24 DUP3 ADD MSTORE PUSH21 0x151BDAD95B881B9BDD081DDA1A5D195B1A5CDD1959 PUSH1 0x5A SHL PUSH1 0x44 DUP3 ADD MSTORE PUSH1 0x64 ADD PUSH2 0x8D9 JUMP JUMPDEST PUSH0 DUP3 ISZERO PUSH2 0x1B2E JUMPI PUSH8 0x98A7D9B8314C0000 DUP5 LT ISZERO PUSH2 0x1A51 JUMPI PUSH1 0x40 MLOAD PUSH3 0x461BCD PUSH1 0xE5 SHL DUP2 MSTORE PUSH1 0x20 PUSH1 0x4 DUP3 ADD MSTORE PUSH1 0x16 PUSH1 0x24 DUP3 ADD MSTORE PUSH22 0x42656C6F77206D696E207374616B6520285553443129 PUSH1 0x50 SHL PUSH1 0x44 DUP3 ADD MSTORE PUSH1 0x64 ADD PUSH2 0x8D9 JUMP JUMPDEST PUSH1 0xA SLOAD PUSH1 0x40 MLOAD PUSH4 0x70A08231 PUSH1 0xE0 SHL DUP2 MSTORE CALLER PUSH1 0x4 DUP3 ADD MSTORE DUP6 SWAP2 PUSH1 0x1 PUSH1 0x1 PUSH1 0xA0 SHL SUB AND SWAP1 PUSH4 0x70A08231 SWAP1 PUSH1 0x24 ADD PUSH1 0x20 PUSH1 0x40 MLOAD DUP1 DUP4 SUB DUP2 DUP7 GAS STATICCALL ISZERO DUP1 ISZERO PUSH2 0x1A97 JUMPI RETURNDATASIZE PUSH0 DUP1 RETURNDATACOPY RETURNDATASIZE PUSH0 REVERT JUMPDEST POP POP POP POP PUSH1 0x40 MLOAD RETURNDATASIZE PUSH1 0x1F NOT PUSH1 0x1F DUP3 ADD AND DUP3 ADD DUP1 PUSH1 0x40 MSTORE POP DUP2 ADD SWAP1 PUSH2 0x1ABB SWAP2 SWAP1 PUSH2 0x2D3B JUMP JUMPDEST LT ISZERO PUSH2 0x1AFD JUMPI PUSH1 0x40 MLOAD PUSH3 0x461BCD PUSH1 0xE5 SHL DUP2 MSTORE PUSH1 0x20 PUSH1 0x4 DUP3 ADD MSTORE PUSH1 0x11 PUSH1 0x24 DUP3 ADD MSTORE PUSH17 0x496E73756666696369656E742055534431 PUSH1 0x78 SHL PUSH1 0x44 DUP3 ADD MSTORE PUSH1 0x64 ADD PUSH2 0x8D9 JUMP JUMPDEST PUSH1 0xA SLOAD PUSH2 0x1B15 SWAP1 PUSH1 0x1 PUSH1 0x1 PUSH1 0xA0 SHL SUB AND CALLER ADDRESS DUP8 PUSH2 0x2786 JUMP JUMPDEST PUSH2 0x1B27 PUSH8 0x98A7D9B8314C0000 DUP6 PUSH2 0x2D9F JUMP JUMPDEST SWAP1 POP PUSH2 0x1C5A JUMP JUMPDEST PUSH9 0x3635C9ADC5DEA00000 DUP5 LT ISZERO PUSH2 0x1B80 JUMPI PUSH1 0x40 MLOAD PUSH3 0x461BCD PUSH1 0xE5 SHL DUP2 MSTORE PUSH1 0x20 PUSH1 0x4 DUP3 ADD MSTORE PUSH1 0x16 PUSH1 0x24 DUP3 ADD MSTORE PUSH22 0x42656C6F77206D696E207374616B652028494E523129 PUSH1 0x50 SHL PUSH1 0x44 DUP3 ADD MSTORE PUSH1 0x64 ADD PUSH2 0x8D9 JUMP JUMPDEST PUSH1 0x9 SLOAD PUSH1 0x40 MLOAD PUSH4 0x70A08231 PUSH1 0xE0 SHL DUP2 MSTORE CALLER PUSH1 0x4 DUP3 ADD MSTORE DUP6 SWAP2 PUSH1 0x1 PUSH1 0x1 PUSH1 0xA0 SHL SUB AND SWAP1 PUSH4 0x70A08231 SWAP1 PUSH1 0x24 ADD PUSH1 0x20 PUSH1 0x40 MLOAD DUP1 DUP4 SUB DUP2 DUP7 GAS STATICCALL ISZERO DUP1 ISZERO PUSH2 0x1BC6 JUMPI RETURNDATASIZE PUSH0 DUP1 RETURNDATACOPY RETURNDATASIZE PUSH0 REVERT JUMPDEST POP POP POP POP PUSH1 0x40 MLOAD RETURNDATASIZE PUSH1 0x1F NOT PUSH1 0x1F DUP3 ADD AND DUP3 ADD DUP1 PUSH1 0x40 MSTORE POP DUP2 ADD SWAP1 PUSH2 0x1BEA SWAP2 SWAP1 PUSH2 0x2D3B JUMP JUMPDEST LT ISZERO PUSH2 0x1C2C JUMPI PUSH1 0x40 MLOAD PUSH3 0x461BCD PUSH1 0xE5 SHL DUP2 MSTORE PUSH1 0x20 PUSH1 0x4 DUP3 ADD MSTORE PUSH1 0x11 PUSH1 0x24 DUP3 ADD MSTORE PUSH17 0x496E73756666696369656E7420494E5231 PUSH1 0x78 SHL PUSH1 0x44 DUP3 ADD MSTORE PUSH1 0x64 ADD PUSH2 0x8D9 JUMP JUMPDEST PUSH1 0x9 SLOAD PUSH2 0x1C44 SWAP1 PUSH1 0x1 PUSH1 0x1 PUSH1 0xA0 SHL SUB AND CALLER ADDRESS DUP8 PUSH2 0x2786 JUMP JUMPDEST PUSH2 0x1C57 PUSH9 0x3635C9ADC5DEA00000 DUP6 PUSH2 0x2D9F JUMP JUMPDEST SWAP1 POP JUMPDEST PUSH0 DUP2 GT PUSH2 0x1C9E JUMPI PUSH1 0x40 MLOAD PUSH3 0x461BCD PUSH1 0xE5 SHL DUP2 MSTORE PUSH1 0x20 PUSH1 0x4 DUP3 ADD MSTORE PUSH1 0x12 PUSH1 0x24 DUP3 ADD MSTORE PUSH18 0x135A5B9A5B5D5B481A5CC80C481A5B99DBDD PUSH1 0x72 SHL PUSH1 0x44 DUP3 ADD MSTORE PUSH1 0x64 ADD PUSH2 0x8D9 JUMP JUMPDEST PUSH0 DUP6 DUP2 MSTORE PUSH1 0x10 PUSH1 0x20 MSTORE PUSH1 0x40 SWAP1 KECCAK256 PUSH1 0x3 DUP2 ADD SLOAD PUSH1 0xFF AND PUSH2 0x1CF1 JUMPI PUSH1 0x40 MLOAD PUSH3 0x461BCD PUSH1 0xE5 SHL DUP2 MSTORE PUSH1 0x20 PUSH1 0x4 DUP3 ADD MSTORE PUSH1 0xF PUSH1 0x24 DUP3 ADD MSTORE PUSH15 0x506F6F6C206E6F7420616374697665 PUSH1 0x88 SHL PUSH1 0x44 DUP3 ADD MSTORE PUSH1 0x64 ADD PUSH2 0x8D9 JUMP JUMPDEST PUSH1 0x64 DUP3 DUP3 PUSH1 0x2 ADD SLOAD PUSH2 0x1D03 SWAP2 SWAP1 PUSH2 0x2CAB JUMP JUMPDEST GT ISZERO PUSH2 0x1D3D JUMPI PUSH1 0x40 MLOAD PUSH3 0x461BCD PUSH1 0xE5 SHL DUP2 MSTORE PUSH1 0x20 PUSH1 0x4 DUP3 ADD MSTORE PUSH1 0x9 PUSH1 0x24 DUP3 ADD MSTORE PUSH9 0x141BDBDB08199D5B1B PUSH1 0xBA SHL PUSH1 0x44 DUP3 ADD MSTORE PUSH1 0x64 ADD PUSH2 0x8D9 JUMP JUMPDEST CALLER PUSH0 SWAP1 DUP2 MSTORE PUSH1 0x14 PUSH1 0x20 MSTORE PUSH1 0x40 DUP2 KECCAK256 PUSH1 0x9 ADD DUP1 SLOAD DUP8 SWAP3 SWAP1 PUSH2 0x1D5E SWAP1 DUP5 SWAP1 PUSH2 0x2CAB JUMP JUMPDEST SWAP3 POP POP DUP2 SWAP1 SSTORE POP DUP5 DUP2 PUSH1 0x4 ADD PUSH0 DUP3 DUP3 SLOAD PUSH2 0x1D78 SWAP2 SWAP1 PUSH2 0x2CAB JUMP JUMPDEST SWAP3 POP POP DUP2 SWAP1 SSTORE POP DUP2 DUP2 PUSH1 0x2 ADD PUSH0 DUP3 DUP3 SLOAD PUSH2 0x1D92 SWAP2 SWAP1 PUSH2 0x2CAB JUMP JUMPDEST SWAP3 POP POP DUP2 SWAP1 SSTORE POP DUP5 PUSH1 0x12 PUSH0 DUP3 DUP3 SLOAD PUSH2 0x1DAA SWAP2 SWAP1 PUSH2 0x2CAB JUMP JUMPDEST SWAP3 POP POP DUP2 SWAP1 SSTORE POP PUSH1 0x13 PUSH0 DUP8 DUP2 MSTORE PUSH1 0x20 ADD SWAP1 DUP2 MSTORE PUSH1 0x20 ADD PUSH0 KECCAK256 PUSH1 0x40 MLOAD DUP1 PUSH1 0xC0 ADD PUSH1 0x40 MSTORE DUP1 DUP4 PUSH1 0x2 ADD SLOAD DUP2 MSTORE PUSH1 0x20 ADD CALLER PUSH1 0x1 PUSH1 0x1 PUSH1 0xA0 SHL SUB AND DUP2 MSTORE PUSH1 0x20 ADD DUP8 DUP2 MSTORE PUSH1 0x20 ADD PUSH1 0xA DUP2 MSTORE PUSH1 0x20 ADD DUP7 PUSH2 0x1E1A JUMPI PUSH1 0x40 MLOAD DUP1 PUSH1 0x40 ADD PUSH1 0x40 MSTORE DUP1 PUSH1 0x4 DUP2 MSTORE PUSH1 0x20 ADD PUSH4 0x494E5231 PUSH1 0xE0 SHL DUP2 MSTORE POP PUSH2 0x1E38 JUMP JUMPDEST PUSH1 0x40 MLOAD DUP1 PUSH1 0x40 ADD PUSH1 0x40 MSTORE DUP1 PUSH1 0x4 DUP2 MSTORE PUSH1 0x20 ADD PUSH4 0x55534431 PUSH1 0xE0 SHL DUP2 MSTORE POP JUMPDEST DUP2 MSTORE PUSH0 PUSH1 0x20 SWAP2 DUP3 ADD DUP2 SWAP1 MSTORE DUP4 SLOAD PUSH1 0x1 DUP1 DUP3 ADD DUP7 SSTORE SWAP5 DUP3 MSTORE SWAP1 DUP3 SWAP1 KECCAK256 DUP4 MLOAD PUSH1 0x6 SWAP1 SWAP3 MUL ADD SWAP1 DUP2 SSTORE SWAP1 DUP3 ADD MLOAD SWAP3 DUP2 ADD DUP1 SLOAD PUSH1 0x1 PUSH1 0x1 PUSH1 0xA0 SHL SUB NOT AND PUSH1 0x1 PUSH1 0x1 PUSH1 0xA0 SHL SUB SWAP1 SWAP5 AND SWAP4 SWAP1 SWAP4 OR SWAP1 SWAP3 SSTORE PUSH1 0x40 DUP2 ADD MLOAD PUSH1 0x2 DUP4 ADD SSTORE PUSH1 0x60 DUP2 ADD MLOAD PUSH1 0x3 DUP4 ADD SSTORE PUSH1 0x80 DUP2 ADD MLOAD SWAP1 SWAP2 SWAP1 PUSH1 0x4 DUP3 ADD SWAP1 PUSH2 0x1EAE SWAP1 DUP3 PUSH2 0x2E23 JUMP JUMPDEST POP PUSH1 0xA0 SWAP2 SWAP1 SWAP2 ADD MLOAD PUSH1 0x5 SWAP2 DUP3 ADD DUP1 SLOAD PUSH1 0xFF NOT AND SWAP2 ISZERO ISZERO SWAP2 SWAP1 SWAP2 OR SWAP1 SSTORE PUSH0 SWAP1 PUSH1 0x64 SWAP1 PUSH2 0x1EDA SWAP1 DUP9 SWAP1 PUSH2 0x2CD9 JUMP JUMPDEST PUSH2 0x1EE4 SWAP2 SWAP1 PUSH2 0x2D9F JUMP JUMPDEST SWAP1 POP PUSH0 PUSH1 0x64 PUSH2 0x1EF4 DUP9 PUSH1 0x5F PUSH2 0x2CD9 JUMP JUMPDEST PUSH2 0x1EFE SWAP2 SWAP1 PUSH2 0x2D9F JUMP JUMPDEST SWAP1 POP DUP2 PUSH1 0x18 PUSH0 DUP3 DUP3 SLOAD PUSH2 0x1F11 SWAP2 SWAP1 PUSH2 0x2CAB JUMP JUMPDEST SWAP3 POP POP DUP2 SWAP1 SSTORE POP DUP1 PUSH1 0x19 PUSH0 DUP3 DUP3 SLOAD PUSH2 0x1F29 SWAP2 SWAP1 PUSH2 0x2CAB JUMP JUMPDEST SWAP1 SWAP2 SSTORE POP POP PUSH1 0x2 DUP4 ADD SLOAD CALLER SWAP1 PUSH32 0x8A761C59F3B512242E1B88C9999CA511DEA220C5354703AFE7BDD82375FB6761 SWAP1 DUP11 SWAP1 DUP8 DUP11 PUSH2 0x1F81 JUMPI PUSH1 0x40 MLOAD DUP1 PUSH1 0x40 ADD PUSH1 0x40 MSTORE DUP1 PUSH1 0x4 DUP2 MSTORE PUSH1 0x20 ADD PUSH4 0x494E5231 PUSH1 0xE0 SHL DUP2 MSTORE POP PUSH2 0x1F9F JUMP JUMPDEST PUSH1 0x40 MLOAD DUP1 PUSH1 0x40 ADD PUSH1 0x40 MSTORE DUP1 PUSH1 0x4 DUP2 MSTORE PUSH1 0x20 ADD PUSH4 0x55534431 PUSH1 0xE0 SHL DUP2 MSTORE POP JUMPDEST PUSH1 0x40 MLOAD PUSH2 0x1FAF SWAP5 SWAP4 SWAP3 SWAP2 SWAP1 PUSH2 0x2EDF JUMP JUMPDEST PUSH1 0x40 MLOAD DUP1 SWAP2 SUB SWAP1 LOG2 PUSH2 0x1FC1 CALLER DUP9 PUSH2 0x27C5 JUMP JUMPDEST PUSH1 0x64 DUP4 PUSH1 0x2 ADD SLOAD EQ DUP1 ISZERO PUSH2 0x1FD8 JUMPI POP PUSH4 0x3B9ACA00 DUP9 LT JUMPDEST ISZERO PUSH2 0x21E0 JUMPI PUSH0 DUP9 DUP2 MSTORE PUSH1 0x10 PUSH1 0x20 MSTORE PUSH1 0x40 SWAP1 DUP2 SWAP1 KECCAK256 PUSH1 0x3 DUP2 ADD DUP1 SLOAD PUSH1 0xFF NOT AND SWAP1 SSTORE PUSH1 0x4 ADD SLOAD SWAP1 MLOAD DUP10 SWAP2 PUSH32 0xAF7FAF29A251EFA1BCF2B47DAB1A72BAA0906A2E4FF957E6CB6D4F7C642161AB SWAP2 PUSH2 0x202E SWAP2 DUP2 MSTORE PUSH1 0x20 ADD SWAP1 JUMP JUMPDEST PUSH1 0x40 MLOAD DUP1 SWAP2 SUB SWAP1 LOG2 PUSH0 PUSH1 0x11 SLOAD PUSH1 0x1 PUSH2 0x2046 SWAP2 SWAP1 PUSH2 0x2CAB JUMP JUMPDEST PUSH0 DUP2 DUP2 MSTORE PUSH1 0x10 PUSH1 0x20 MSTORE PUSH1 0x40 SWAP1 KECCAK256 SLOAD SWAP1 SWAP2 POP ISZERO PUSH2 0x20A4 JUMPI PUSH1 0x40 MLOAD PUSH3 0x461BCD PUSH1 0xE5 SHL DUP2 MSTORE PUSH1 0x20 PUSH1 0x4 DUP3 ADD MSTORE PUSH1 0x18 PUSH1 0x24 DUP3 ADD MSTORE PUSH32 0x4E65787420706F6F6C20616C7265616479206578697374730000000000000000 PUSH1 0x44 DUP3 ADD MSTORE PUSH1 0x64 ADD PUSH2 0x8D9 JUMP JUMPDEST PUSH1 0x40 MLOAD DUP1 PUSH1 0xC0 ADD PUSH1 0x40 MSTORE DUP1 DUP3 DUP2 MSTORE PUSH1 0x20 ADD PUSH1 0x9 DUP4 GT ISZERO PUSH2 0x20E3 JUMPI PUSH1 0x40 MLOAD DUP1 PUSH1 0x40 ADD PUSH1 0x40 MSTORE DUP1 PUSH1 0x7 DUP2 MSTORE PUSH1 0x20 ADD PUSH7 0x4C6F7474657279 PUSH1 0xC8 SHL DUP2 MSTORE POP PUSH2 0x2105 JUMP JUMPDEST PUSH1 0x40 MLOAD DUP1 PUSH1 0x40 ADD PUSH1 0x40 MSTORE DUP1 PUSH1 0x8 DUP2 MSTORE PUSH1 0x20 ADD PUSH8 0x14DD185B99185C99 PUSH1 0xC2 SHL DUP2 MSTORE POP JUMPDEST DUP2 MSTORE PUSH0 PUSH1 0x20 DUP1 DUP4 ADD DUP3 SWAP1 MSTORE PUSH1 0x1 PUSH1 0x40 DUP1 DUP6 ADD DUP3 SWAP1 MSTORE PUSH1 0x60 DUP6 ADD DUP5 SWAP1 MSTORE PUSH1 0x80 SWAP1 SWAP5 ADD DUP4 SWAP1 MSTORE DUP6 DUP4 MSTORE PUSH1 0x10 DUP3 MSTORE SWAP3 SWAP1 SWAP2 KECCAK256 DUP4 MLOAD DUP2 SSTORE SWAP1 DUP4 ADD MLOAD SWAP1 SWAP2 DUP3 ADD SWAP1 PUSH2 0x214B SWAP1 DUP3 PUSH2 0x2E23 JUMP JUMPDEST POP PUSH1 0x40 DUP3 DUP2 ADD MLOAD PUSH1 0x2 DUP4 ADD SSTORE PUSH1 0x60 DUP4 ADD MLOAD PUSH1 0x3 DUP4 ADD DUP1 SLOAD PUSH1 0x80 DUP7 ADD MLOAD ISZERO ISZERO PUSH2 0x100 MUL PUSH2 0xFF00 NOT SWAP4 ISZERO ISZERO SWAP4 SWAP1 SWAP4 AND PUSH2 0xFFFF NOT SWAP1 SWAP2 AND OR SWAP2 SWAP1 SWAP2 OR SWAP1 SSTORE PUSH1 0xA0 SWAP1 SWAP3 ADD MLOAD PUSH1 0x4 SWAP1 SWAP2 ADD SSTORE PUSH1 0x11 DUP3 SWAP1 SSTORE PUSH0 DUP3 DUP2 MSTORE PUSH1 0x10 PUSH1 0x20 MSTORE DUP2 SWAP1 KECCAK256 SWAP1 MLOAD DUP3 SWAP2 PUSH32 0x150CB369F834B70A4F343956659B1F84CD37D44352B9A76FF77AC59552EF4AA0 SWAP2 PUSH2 0x21D6 SWAP2 PUSH1 0x1 ADD SWAP1 PUSH2 0x2F0D JUMP JUMPDEST PUSH1 0x40 MLOAD DUP1 SWAP2 SUB SWAP1 LOG2 POP JUMPDEST POP POP POP POP POP PUSH2 0x1098 PUSH1 0x1 DUP1 SSTORE JUMP JUMPDEST PUSH2 0x21F6 PUSH2 0x270B JUMP JUMPDEST PUSH0 DUP3 GT DUP1 ISZERO PUSH2 0x2209 JUMPI POP PUSH4 0x3B9ACA00 DUP3 GT ISZERO JUMPDEST PUSH2 0x224B JUMPI PUSH1 0x40 MLOAD PUSH3 0x461BCD PUSH1 0xE5 SHL DUP2 MSTORE PUSH1 0x20 PUSH1 0x4 DUP3 ADD MSTORE PUSH1 0x13 PUSH1 0x24 DUP3 ADD MSTORE PUSH19 0x506F6F6C4964206F7574206F662072616E6765 PUSH1 0x68 SHL PUSH1 0x44 DUP3 ADD MSTORE PUSH1 0x64 ADD PUSH2 0x8D9 JUMP JUMPDEST PUSH0 DUP2 MLOAD GT PUSH2 0x228F JUMPI PUSH1 0x40 MLOAD PUSH3 0x461BCD PUSH1 0xE5 SHL DUP2 MSTORE PUSH1 0x20 PUSH1 0x4 DUP3 ADD MSTORE PUSH1 0x11 PUSH1 0x24 DUP3 ADD MSTORE PUSH17 0x1C1BDBDB151E5C19481C995C5D5A5C9959 PUSH1 0x7A SHL PUSH1 0x44 DUP3 ADD MSTORE PUSH1 0x64 ADD PUSH2 0x8D9 JUMP JUMPDEST PUSH0 DUP3 DUP2 MSTORE PUSH1 0x10 PUSH1 0x20 MSTORE PUSH1 0x40 SWAP1 KECCAK256 SLOAD ISZERO PUSH2 0x22E0 JUMPI PUSH1 0x40 MLOAD PUSH3 0x461BCD PUSH1 0xE5 SHL DUP2 MSTORE PUSH1 0x20 PUSH1 0x4 DUP3 ADD MSTORE PUSH1 0x13 PUSH1 0x24 DUP3 ADD MSTORE PUSH19 0x506F6F6C20616C726561647920657869737473 PUSH1 0x68 SHL PUSH1 0x44 DUP3 ADD MSTORE PUSH1 0x64 ADD PUSH2 0x8D9 JUMP JUMPDEST PUSH1 0x40 DUP1 MLOAD PUSH1 0xC0 DUP2 ADD DUP3 MSTORE DUP4 DUP2 MSTORE PUSH1 0x20 DUP1 DUP3 ADD DUP5 DUP2 MSTORE PUSH0 DUP4 DUP6 ADD DUP2 SWAP1 MSTORE PUSH1 0x1 PUSH1 0x60 DUP6 ADD DUP2 SWAP1 MSTORE PUSH1 0x80 DUP6 ADD DUP3 SWAP1 MSTORE PUSH1 0xA0 DUP6 ADD DUP3 SWAP1 MSTORE DUP8 DUP3 MSTORE PUSH1 0x10 SWAP1 SWAP4 MSTORE SWAP4 SWAP1 SWAP4 KECCAK256 DUP3 MLOAD DUP2 SSTORE SWAP3 MLOAD SWAP2 SWAP3 SWAP2 SWAP1 DUP3 ADD SWAP1 PUSH2 0x2336 SWAP1 DUP3 PUSH2 0x2E23 JUMP JUMPDEST POP PUSH1 0x40 DUP3 ADD MLOAD PUSH1 0x2 DUP3 ADD SSTORE PUSH1 0x60 DUP3 ADD MLOAD PUSH1 0x3 DUP3 ADD DUP1 SLOAD PUSH1 0x80 DUP6 ADD MLOAD ISZERO ISZERO PUSH2 0x100 MUL PUSH2 0xFF00 NOT SWAP4 ISZERO ISZERO SWAP4 SWAP1 SWAP4 AND PUSH2 0xFFFF NOT SWAP1 SWAP2 AND OR SWAP2 SWAP1 SWAP2 OR SWAP1 SSTORE PUSH1 0xA0 SWAP1 SWAP2 ADD MLOAD PUSH1 0x4 SWAP1 SWAP2 ADD SSTORE PUSH1 0x11 SLOAD DUP3 GT ISZERO PUSH2 0x238C JUMPI PUSH1 0x11 DUP3 SWAP1 SSTORE JUMPDEST DUP2 PUSH32 0x150CB369F834B70A4F343956659B1F84CD37D44352B9A76FF77AC59552EF4AA0 DUP3 PUSH1 0x40 MLOAD PUSH2 0x23BC SWAP2 SWAP1 PUSH2 0x2F92 JUMP JUMPDEST PUSH1 0x40 MLOAD DUP1 SWAP2 SUB SWAP1 LOG2 POP POP JUMP JUMPDEST PUSH2 0x23D0 PUSH2 0x2653 JUMP JUMPDEST CALLER PUSH0 SWAP1 DUP2 MSTORE PUSH1 0x15 PUSH1 0x20 MSTORE PUSH1 0x40 SWAP1 KECCAK256 SLOAD DUP1 PUSH2 0x2418 JUMPI PUSH1 0x40 MLOAD PUSH3 0x461BCD PUSH1 0xE5 SHL DUP2 MSTORE PUSH1 0x20 PUSH1 0x4 DUP3 ADD MSTORE PUSH1 0x9 PUSH1 0x24 DUP3 ADD MSTORE PUSH9 0x139BC81C185E5BDD5D PUSH1 0xBA SHL PUSH1 0x44 DUP3 ADD MSTORE PUSH1 0x64 ADD PUSH2 0x8D9 JUMP JUMPDEST CALLER PUSH0 SWAP1 DUP2 MSTORE PUSH1 0x15 PUSH1 0x20 MSTORE PUSH1 0x40 DUP1 DUP3 KECCAK256 SWAP2 SWAP1 SWAP2 SSTORE PUSH1 0x9 SLOAD SWAP1 MLOAD PUSH4 0x70A08231 PUSH1 0xE0 SHL DUP2 MSTORE ADDRESS PUSH1 0x4 DUP3 ADD MSTORE DUP3 SWAP2 PUSH1 0x1 PUSH1 0x1 PUSH1 0xA0 SHL SUB AND SWAP1 PUSH4 0x70A08231 SWAP1 PUSH1 0x24 ADD PUSH1 0x20 PUSH1 0x40 MLOAD DUP1 DUP4 SUB DUP2 DUP7 GAS STATICCALL ISZERO DUP1 ISZERO PUSH2 0x2470 JUMPI RETURNDATASIZE PUSH0 DUP1 RETURNDATACOPY RETURNDATASIZE PUSH0 REVERT JUMPDEST POP POP POP POP PUSH1 0x40 MLOAD RETURNDATASIZE PUSH1 0x1F NOT PUSH1 0x1F DUP3 ADD AND DUP3 ADD DUP1 PUSH1 0x40 MSTORE POP DUP2 ADD SWAP1 PUSH2 0x2494 SWAP2 SWAP1 PUSH2 0x2D3B JUMP JUMPDEST LT ISZERO PUSH2 0x24E2 JUMPI PUSH1 0x40 MLOAD PUSH3 0x461BCD PUSH1 0xE5 SHL DUP2 MSTORE PUSH1 0x20 PUSH1 0x4 DUP3 ADD MSTORE PUSH1 0x19 PUSH1 0x24 DUP3 ADD MSTORE PUSH32 0x496E73756666696369656E7420494E52312062616C616E636500000000000000 PUSH1 0x44 DUP3 ADD MSTORE PUSH1 0x64 ADD PUSH2 0x8D9 JUMP JUMPDEST PUSH1 0x9 SLOAD PUSH2 0x24F9 SWAP1 PUSH1 0x1 PUSH1 0x1 PUSH1 0xA0 SHL SUB AND CALLER DUP4 PUSH2 0x26AC JUMP JUMPDEST PUSH1 0x40 DUP1 MLOAD PUSH0 DUP1 DUP3 MSTORE PUSH1 0x20 DUP3 ADD MSTORE CALLER SWAP2 PUSH32 0x3DD4FDA5FFEB4C7E45847FA82B4227A234840395A1170E170BBA47DB13FBFFF8 SWAP2 ADD PUSH1 0x40 MLOAD DUP1 SWAP2 SUB SWAP1 LOG2 POP PUSH2 0xA6F PUSH1 0x1 DUP1 SSTORE JUMP JUMPDEST PUSH2 0x2545 PUSH2 0x270B JUMP JUMPDEST PUSH1 0x19 SLOAD DUP2 GT ISZERO PUSH2 0x2597 JUMPI PUSH1 0x40 MLOAD PUSH3 0x461BCD PUSH1 0xE5 SHL DUP2 MSTORE PUSH1 0x20 PUSH1 0x4 DUP3 ADD MSTORE PUSH1 0x1F PUSH1 0x24 DUP3 ADD MSTORE PUSH32 0x4E6F7420656E6F756768206F7065726174696F6E616C20747265617375727900 PUSH1 0x44 DUP3 ADD MSTORE PUSH1 0x64 ADD PUSH2 0x8D9 JUMP JUMPDEST DUP1 PUSH1 0x19 PUSH0 DUP3 DUP3 SLOAD PUSH2 0x25A8 SWAP2 SWAP1 PUSH2 0x2CF0 JUMP JUMPDEST SWAP1 SWAP2 SSTORE POP POP PUSH1 0x9 SLOAD PUSH2 0x25C4 SWAP1 PUSH1 0x1 PUSH1 0x1 PUSH1 0xA0 SHL SUB AND CALLER DUP4 PUSH2 0x26AC JUMP JUMPDEST PUSH1 0x40 DUP1 MLOAD DUP2 DUP2 MSTORE PUSH1 0xB SWAP2 DUP2 ADD SWAP2 SWAP1 SWAP2 MSTORE PUSH11 0x13DC195C985D1A5BDB985B PUSH1 0xAA SHL PUSH1 0x60 DUP3 ADD MSTORE PUSH1 0x20 DUP2 ADD DUP3 SWAP1 MSTORE PUSH32 0x32F91AF51D2A8BBEB2808FFA648F1C5072F1C1CCDB64B39D003F051B496CC984 SWAP1 PUSH1 0x80 ADD PUSH2 0xBA7 JUMP JUMPDEST PUSH2 0x2621 PUSH2 0x270B JUMP JUMPDEST PUSH1 0x1 PUSH1 0x1 PUSH1 0xA0 SHL SUB DUP2 AND PUSH2 0x264A JUMPI PUSH1 0x40 MLOAD PUSH4 0x1E4FBDF7 PUSH1 0xE0 SHL DUP2 MSTORE PUSH0 PUSH1 0x4 DUP3 ADD MSTORE PUSH1 0x24 ADD PUSH2 0x8D9 JUMP JUMPDEST PUSH2 0x187D DUP2 PUSH2 0x2737 JUMP JUMPDEST PUSH1 0x2 PUSH1 0x1 SLOAD SUB PUSH2 0x26A5 JUMPI PUSH1 0x40 MLOAD PUSH3 0x461BCD PUSH1 0xE5 SHL DUP2 MSTORE PUSH1 0x20 PUSH1 0x4 DUP3 ADD MSTORE PUSH1 0x1F PUSH1 0x24 DUP3 ADD MSTORE PUSH32 0x5265656E7472616E637947756172643A207265656E7472616E742063616C6C00 PUSH1 0x44 DUP3 ADD MSTORE PUSH1 0x64 ADD PUSH2 0x8D9 JUMP JUMPDEST PUSH1 0x2 PUSH1 0x1 SSTORE JUMP JUMPDEST PUSH1 0x40 MLOAD PUSH1 0x1 PUSH1 0x1 PUSH1 0xA0 SHL SUB DUP4 DUP2 AND PUSH1 0x24 DUP4 ADD MSTORE PUSH1 0x44 DUP3 ADD DUP4 SWAP1 MSTORE PUSH2 0x1098 SWAP2 DUP6 SWAP2 DUP3 AND SWAP1 PUSH4 0xA9059CBB SWAP1 PUSH1 0x64 ADD JUMPDEST PUSH1 0x40 MLOAD PUSH1 0x20 DUP2 DUP4 SUB SUB DUP2 MSTORE SWAP1 PUSH1 0x40 MSTORE SWAP2 POP PUSH1 0xE0 SHL PUSH1 0x20 DUP3 ADD DUP1 MLOAD PUSH1 0x1 PUSH1 0x1 PUSH1 0xE0 SHL SUB DUP4 DUP2 DUP4 AND OR DUP4 MSTORE POP POP POP POP PUSH2 0x2929 JUMP JUMPDEST PUSH0 SLOAD PUSH1 0x1 PUSH1 0x1 PUSH1 0xA0 SHL SUB AND CALLER EQ PUSH2 0xA6F JUMPI PUSH1 0x40 MLOAD PUSH4 0x118CDAA7 PUSH1 0xE0 SHL DUP2 MSTORE CALLER PUSH1 0x4 DUP3 ADD MSTORE PUSH1 0x24 ADD PUSH2 0x8D9 JUMP JUMPDEST PUSH0 DUP1 SLOAD PUSH1 0x1 PUSH1 0x1 PUSH1 0xA0 SHL SUB DUP4 DUP2 AND PUSH1 0x1 PUSH1 0x1 PUSH1 0xA0 SHL SUB NOT DUP4 AND DUP2 OR DUP5 SSTORE PUSH1 0x40 MLOAD SWAP2 SWAP1 SWAP3 AND SWAP3 DUP4 SWAP2 PUSH32 0x8BE0079C531659141344CD1FD0A4F28419497F9722A3DAAFE3B4186F6B6457E0 SWAP2 SWAP1 LOG3 POP POP JUMP JUMPDEST PUSH1 0x40 MLOAD PUSH1 0x1 PUSH1 0x1 PUSH1 0xA0 SHL SUB DUP5 DUP2 AND PUSH1 0x24 DUP4 ADD MSTORE DUP4 DUP2 AND PUSH1 0x44 DUP4 ADD MSTORE PUSH1 0x64 DUP3 ADD DUP4 SWAP1 MSTORE PUSH2 0x27BF SWAP2 DUP7 SWAP2 DUP3 AND SWAP1 PUSH4 0x23B872DD SWAP1 PUSH1 0x84 ADD PUSH2 0x26D9 JUMP JUMPDEST POP POP POP POP JUMP JUMPDEST PUSH0 JUMPDEST PUSH1 0x7 PUSH1 0xFF DUP3 AND LT ISZERO PUSH2 0x1098 JUMPI PUSH1 0x1 PUSH1 0x1 PUSH1 0xA0 SHL SUB DUP4 AND PUSH0 SWAP1 DUP2 MSTORE PUSH1 0x14 PUSH1 0x20 MSTORE PUSH1 0x40 DUP2 KECCAK256 PUSH1 0x1 ADD PUSH1 0xFF DUP4 AND PUSH1 0x7 DUP2 LT PUSH2 0x2801 JUMPI PUSH2 0x2801 PUSH2 0x2D6D JUMP JUMPDEST ADD SLOAD PUSH1 0x1 PUSH1 0x1 PUSH1 0xA0 SHL SUB AND SWAP1 POP DUP1 PUSH2 0x2819 JUMPI POP POP POP POP JUMP JUMPDEST PUSH0 PUSH2 0x2710 PUSH1 0x2 DUP5 PUSH1 0xFF AND PUSH1 0x7 DUP2 LT PUSH2 0x2833 JUMPI PUSH2 0x2833 PUSH2 0x2D6D JUMP JUMPDEST ADD SLOAD PUSH2 0x283F SWAP1 DUP7 PUSH2 0x2CD9 JUMP JUMPDEST PUSH2 0x2849 SWAP2 SWAP1 PUSH2 0x2D9F JUMP JUMPDEST PUSH1 0x1 PUSH1 0x1 PUSH1 0xA0 SHL SUB DUP4 AND PUSH0 SWAP1 DUP2 MSTORE PUSH1 0x14 PUSH1 0x20 MSTORE PUSH1 0x40 DUP2 KECCAK256 PUSH1 0xA ADD DUP1 SLOAD SWAP3 SWAP4 POP DUP4 SWAP3 SWAP1 SWAP2 SWAP1 PUSH2 0x2878 SWAP1 DUP5 SWAP1 PUSH2 0x2CAB JUMP JUMPDEST SWAP1 SWAP2 SSTORE POP POP PUSH1 0x1 PUSH1 0x1 PUSH1 0xA0 SHL SUB DUP3 AND PUSH0 DUP2 DUP2 MSTORE PUSH1 0x14 PUSH1 0x20 MSTORE PUSH1 0x40 SWAP1 KECCAK256 PUSH1 0xA ADD SLOAD PUSH32 0xDD8025B728F6881D55401EC3C5F58BAC7E135A199306892B83593F9BF4BFE23A SWAP1 PUSH2 0x28C3 DUP6 PUSH2 0x70F JUMP JUMPDEST PUSH1 0x1 PUSH1 0x1 PUSH1 0xA0 SHL SUB DUP7 AND PUSH0 SWAP1 DUP2 MSTORE PUSH1 0x14 PUSH1 0x20 MSTORE PUSH1 0x40 SWAP1 KECCAK256 PUSH1 0xB DUP2 ADD SLOAD PUSH1 0x9 SWAP1 SWAP2 ADD SLOAD PUSH2 0x28F1 SWAP1 PUSH1 0x3 SWAP1 PUSH2 0x2CD9 JUMP JUMPDEST PUSH1 0x40 DUP1 MLOAD SWAP5 DUP6 MSTORE PUSH1 0x20 DUP6 ADD SWAP4 SWAP1 SWAP4 MSTORE SWAP2 DUP4 ADD MSTORE PUSH1 0x60 DUP3 ADD MSTORE PUSH1 0x80 ADD PUSH1 0x40 MLOAD DUP1 SWAP2 SUB SWAP1 LOG2 POP POP DUP1 DUP1 PUSH2 0x2921 SWAP1 PUSH2 0x2D81 JUMP JUMPDEST SWAP2 POP POP PUSH2 0x27C7 JUMP JUMPDEST PUSH0 DUP1 PUSH1 0x20 PUSH0 DUP5 MLOAD PUSH1 0x20 DUP7 ADD PUSH0 DUP9 GAS CALL DUP1 PUSH2 0x2948 JUMPI PUSH1 0x40 MLOAD RETURNDATASIZE PUSH0 DUP3 RETURNDATACOPY RETURNDATASIZE DUP2 REVERT JUMPDEST POP POP PUSH0 MLOAD RETURNDATASIZE SWAP2 POP DUP2 ISZERO PUSH2 0x295F JUMPI DUP1 PUSH1 0x1 EQ ISZERO PUSH2 0x296C JUMP JUMPDEST PUSH1 0x1 PUSH1 0x1 PUSH1 0xA0 SHL SUB DUP5 AND EXTCODESIZE ISZERO JUMPDEST ISZERO PUSH2 0x27BF JUMPI PUSH1 0x40 MLOAD PUSH4 0x5274AFE7 PUSH1 0xE0 SHL DUP2 MSTORE PUSH1 0x1 PUSH1 0x1 PUSH1 0xA0 SHL SUB DUP6 AND PUSH1 0x4 DUP3 ADD MSTORE PUSH1 0x24 ADD PUSH2 0x8D9 JUMP JUMPDEST DUP1 CALLDATALOAD PUSH1 0x1 PUSH1 0x1 PUSH1 0xA0 SHL SUB DUP2 AND DUP2 EQ PUSH2 0x29AB JUMPI PUSH0 DUP1 REVERT JUMPDEST SWAP2 SWAP1 POP JUMP JUMPDEST PUSH0 PUSH1 0x20 DUP3 DUP5 SUB SLT ISZERO PUSH2 0x29C0 JUMPI PUSH0 DUP1 REVERT JUMPDEST PUSH2 0x29C9 DUP3 PUSH2 0x2995 JUMP JUMPDEST SWAP4 SWAP3 POP POP POP JUMP JUMPDEST PUSH0 DUP1 PUSH1 0x40 DUP4 DUP6 SUB SLT ISZERO PUSH2 0x29E1 JUMPI PUSH0 DUP1 REVERT JUMPDEST POP POP DUP1 CALLDATALOAD SWAP3 PUSH1 0x20 SWAP1 SWAP2 ADD CALLDATALOAD SWAP2 POP JUMP JUMPDEST PUSH0 DUP2 MLOAD DUP1 DUP5 MSTORE PUSH0 JUMPDEST DUP2 DUP2 LT ISZERO PUSH2 0x2A14 JUMPI PUSH1 0x20 DUP2 DUP6 ADD DUP2 ADD MLOAD DUP7 DUP4 ADD DUP3 ADD MSTORE ADD PUSH2 0x29F8 JUMP JUMPDEST POP PUSH0 PUSH1 0x20 DUP3 DUP7 ADD ADD MSTORE PUSH1 0x20 PUSH1 0x1F NOT PUSH1 0x1F DUP4 ADD AND DUP6 ADD ADD SWAP2 POP POP SWAP3 SWAP2 POP POP JUMP JUMPDEST DUP7 DUP2 MSTORE PUSH1 0x1 DUP1 PUSH1 0xA0 SHL SUB DUP7 AND PUSH1 0x20 DUP3 ADD MSTORE DUP5 PUSH1 0x40 DUP3 ADD MSTORE DUP4 PUSH1 0x60 DUP3 ADD MSTORE PUSH1 0xC0 PUSH1 0x80 DUP3 ADD MSTORE PUSH0 PUSH2 0x2A65 PUSH1 0xC0 DUP4 ADD DUP6 PUSH2 0x29F0 JUMP JUMPDEST SWAP1 POP DUP3 ISZERO ISZERO PUSH1 0xA0 DUP4 ADD MSTORE SWAP8 SWAP7 POP POP POP POP POP POP POP JUMP JUMPDEST PUSH0 DUP1 PUSH1 0x40 DUP4 DUP6 SUB SLT ISZERO PUSH2 0x2A8B JUMPI PUSH0 DUP1 REVERT JUMPDEST PUSH2 0x2A94 DUP4 PUSH2 0x2995 JUMP JUMPDEST SWAP2 POP PUSH2 0x2AA2 PUSH1 0x20 DUP5 ADD PUSH2 0x2995 JUMP JUMPDEST SWAP1 POP SWAP3 POP SWAP3 SWAP1 POP JUMP JUMPDEST PUSH0 DUP1 PUSH0 PUSH1 0x60 DUP5 DUP7 SUB SLT ISZERO PUSH2 0x2ABD JUMPI PUSH0 DUP1 REVERT JUMPDEST PUSH2 0x2AC6 DUP5 PUSH2 0x2995 JUMP JUMPDEST SWAP3 POP PUSH1 0x20 DUP5 ADD CALLDATALOAD SWAP2 POP PUSH2 0x2ADB PUSH1 0x40 DUP6 ADD PUSH2 0x2995 JUMP JUMPDEST SWAP1 POP SWAP3 POP SWAP3 POP SWAP3 JUMP JUMPDEST DUP1 CALLDATALOAD DUP1 ISZERO ISZERO DUP2 EQ PUSH2 0x29AB JUMPI PUSH0 DUP1 REVERT JUMPDEST PUSH0 PUSH1 0x20 DUP3 DUP5 SUB SLT ISZERO PUSH2 0x2B03 JUMPI PUSH0 DUP1 REVERT JUMPDEST PUSH2 0x29C9 DUP3 PUSH2 0x2AE4 JUMP JUMPDEST PUSH0 PUSH1 0x20 DUP3 DUP5 SUB SLT ISZERO PUSH2 0x2B1C JUMPI PUSH0 DUP1 REVERT JUMPDEST POP CALLDATALOAD SWAP2 SWAP1 POP JUMP JUMPDEST PUSH1 0xFF DUP2 AND DUP2 EQ PUSH2 0x187D JUMPI PUSH0 DUP1 REVERT JUMPDEST PUSH0 DUP1 PUSH1 0x40 DUP4 DUP6 SUB SLT ISZERO PUSH2 0x2B42 JUMPI PUSH0 DUP1 REVERT JUMPDEST DUP3 CALLDATALOAD PUSH2 0x2B4D DUP2 PUSH2 0x2B23 JUMP JUMPDEST SWAP2 POP PUSH1 0x20 DUP4 ADD CALLDATALOAD PUSH2 0x2B5D DUP2 PUSH2 0x2B23 JUMP JUMPDEST DUP1 SWAP2 POP POP SWAP3 POP SWAP3 SWAP1 POP JUMP JUMPDEST DUP7 DUP2 MSTORE PUSH1 0xC0 PUSH1 0x20 DUP3 ADD MSTORE PUSH0 PUSH2 0x2B80 PUSH1 0xC0 DUP4 ADD DUP9 PUSH2 0x29F0 JUMP JUMPDEST PUSH1 0x40 DUP4 ADD SWAP7 SWAP1 SWAP7 MSTORE POP SWAP3 ISZERO ISZERO PUSH1 0x60 DUP5 ADD MSTORE SWAP1 ISZERO ISZERO PUSH1 0x80 DUP4 ADD MSTORE PUSH1 0xA0 SWAP1 SWAP2 ADD MSTORE SWAP3 SWAP2 POP POP JUMP JUMPDEST PUSH0 DUP1 PUSH0 PUSH1 0x60 DUP5 DUP7 SUB SLT ISZERO PUSH2 0x2BB7 JUMPI PUSH0 DUP1 REVERT JUMPDEST DUP4 CALLDATALOAD SWAP3 POP PUSH1 0x20 DUP5 ADD CALLDATALOAD SWAP2 POP PUSH2 0x2ADB PUSH1 0x40 DUP6 ADD PUSH2 0x2AE4 JUMP JUMPDEST PUSH4 0x4E487B71 PUSH1 0xE0 SHL PUSH0 MSTORE PUSH1 0x41 PUSH1 0x4 MSTORE PUSH1 0x24 PUSH0 REVERT JUMPDEST PUSH0 DUP1 PUSH1 0x40 DUP4 DUP6 SUB SLT ISZERO PUSH2 0x2BF3 JUMPI PUSH0 DUP1 REVERT JUMPDEST DUP3 CALLDATALOAD SWAP2 POP PUSH1 0x20 DUP4 ADD CALLDATALOAD PUSH8 0xFFFFFFFFFFFFFFFF DUP1 DUP3 GT ISZERO PUSH2 0x2C11 JUMPI PUSH0 DUP1 REVERT JUMPDEST DUP2 DUP6 ADD SWAP2 POP DUP6 PUSH1 0x1F DUP4 ADD SLT PUSH2 0x2C24 JUMPI PUSH0 DUP1 REVERT JUMPDEST DUP2 CALLDATALOAD DUP2 DUP2 GT ISZERO PUSH2 0x2C36 JUMPI PUSH2 0x2C36 PUSH2 0x2BCE JUMP JUMPDEST PUSH1 0x40 MLOAD PUSH1 0x1F DUP3 ADD PUSH1 0x1F NOT SWAP1 DUP2 AND PUSH1 0x3F ADD AND DUP2 ADD SWAP1 DUP4 DUP3 GT DUP2 DUP4 LT OR ISZERO PUSH2 0x2C5E JUMPI PUSH2 0x2C5E PUSH2 0x2BCE JUMP JUMPDEST DUP2 PUSH1 0x40 MSTORE DUP3 DUP2 MSTORE DUP9 PUSH1 0x20 DUP5 DUP8 ADD ADD GT ISZERO PUSH2 0x2C76 JUMPI PUSH0 DUP1 REVERT JUMPDEST DUP3 PUSH1 0x20 DUP7 ADD PUSH1 0x20 DUP4 ADD CALLDATACOPY PUSH0 PUSH1 0x20 DUP5 DUP4 ADD ADD MSTORE DUP1 SWAP6 POP POP POP POP POP POP SWAP3 POP SWAP3 SWAP1 POP JUMP JUMPDEST PUSH4 0x4E487B71 PUSH1 0xE0 SHL PUSH0 MSTORE PUSH1 0x11 PUSH1 0x4 MSTORE PUSH1 0x24 PUSH0 REVERT JUMPDEST DUP1 DUP3 ADD DUP1 DUP3 GT ISZERO PUSH2 0x2CBE JUMPI PUSH2 0x2CBE PUSH2 0x2C97 JUMP JUMPDEST SWAP3 SWAP2 POP POP JUMP JUMPDEST PUSH0 DUP2 PUSH2 0x2CD2 JUMPI PUSH2 0x2CD2 PUSH2 0x2C97 JUMP JUMPDEST POP PUSH0 NOT ADD SWAP1 JUMP JUMPDEST DUP1 DUP3 MUL DUP2 ISZERO DUP3 DUP3 DIV DUP5 EQ OR PUSH2 0x2CBE JUMPI PUSH2 0x2CBE PUSH2 0x2C97 JUMP JUMPDEST DUP2 DUP2 SUB DUP2 DUP2 GT ISZERO PUSH2 0x2CBE JUMPI PUSH2 0x2CBE PUSH2 0x2C97 JUMP JUMPDEST PUSH1 0x1 DUP2 DUP2 SHR SWAP1 DUP3 AND DUP1 PUSH2 0x2D17 JUMPI PUSH1 0x7F DUP3 AND SWAP2 POP JUMPDEST PUSH1 0x20 DUP3 LT DUP2 SUB PUSH2 0x2D35 JUMPI PUSH4 0x4E487B71 PUSH1 0xE0 SHL PUSH0 MSTORE PUSH1 0x22 PUSH1 0x4 MSTORE PUSH1 0x24 PUSH0 REVERT JUMPDEST POP SWAP2 SWAP1 POP JUMP JUMPDEST PUSH0 PUSH1 0x20 DUP3 DUP5 SUB SLT ISZERO PUSH2 0x2D4B JUMPI PUSH0 DUP1 REVERT JUMPDEST POP MLOAD SWAP2 SWAP1 POP JUMP JUMPDEST PUSH0 PUSH1 0x20 DUP3 DUP5 SUB SLT ISZERO PUSH2 0x2D62 JUMPI PUSH0 DUP1 REVERT JUMPDEST DUP2 MLOAD PUSH2 0x29C9 DUP2 PUSH2 0x2B23 JUMP JUMPDEST PUSH4 0x4E487B71 PUSH1 0xE0 SHL PUSH0 MSTORE PUSH1 0x32 PUSH1 0x4 MSTORE PUSH1 0x24 PUSH0 REVERT JUMPDEST PUSH0 PUSH1 0xFF DUP3 AND PUSH1 0xFF DUP2 SUB PUSH2 0x2D96 JUMPI PUSH2 0x2D96 PUSH2 0x2C97 JUMP JUMPDEST PUSH1 0x1 ADD SWAP3 SWAP2 POP POP JUMP JUMPDEST PUSH0 DUP3 PUSH2 0x2DB9 JUMPI PUSH4 0x4E487B71 PUSH1 0xE0 SHL PUSH0 MSTORE PUSH1 0x12 PUSH1 0x4 MSTORE PUSH1 0x24 PUSH0 REVERT JUMPDEST POP DIV SWAP1 JUMP JUMPDEST PUSH0 PUSH1 0x1 DUP3 ADD PUSH2 0x2DCF JUMPI PUSH2 0x2DCF PUSH2 0x2C97 JUMP JUMPDEST POP PUSH1 0x1 ADD SWAP1 JUMP JUMPDEST PUSH1 0x1F DUP3 GT ISZERO PUSH2 0x1098 JUMPI PUSH0 DUP2 DUP2 MSTORE PUSH1 0x20 DUP2 KECCAK256 PUSH1 0x1F DUP6 ADD PUSH1 0x5 SHR DUP2 ADD PUSH1 0x20 DUP7 LT ISZERO PUSH2 0x2DFC JUMPI POP DUP1 JUMPDEST PUSH1 0x1F DUP6 ADD PUSH1 0x5 SHR DUP3 ADD SWAP2 POP JUMPDEST DUP2 DUP2 LT ISZERO PUSH2 0x2E1B JUMPI DUP3 DUP2 SSTORE PUSH1 0x1 ADD PUSH2 0x2E08 JUMP JUMPDEST POP POP POP POP POP POP JUMP JUMPDEST DUP2 MLOAD PUSH8 0xFFFFFFFFFFFFFFFF DUP2 GT ISZERO PUSH2 0x2E3D JUMPI PUSH2 0x2E3D PUSH2 0x2BCE JUMP JUMPDEST PUSH2 0x2E51 DUP2 PUSH2 0x2E4B DUP5 SLOAD PUSH2 0x2D03 JUMP JUMPDEST DUP5 PUSH2 0x2DD6 JUMP JUMPDEST PUSH1 0x20 DUP1 PUSH1 0x1F DUP4 GT PUSH1 0x1 DUP2 EQ PUSH2 0x2E84 JUMPI PUSH0 DUP5 ISZERO PUSH2 0x2E6D JUMPI POP DUP6 DUP4 ADD MLOAD JUMPDEST PUSH0 NOT PUSH1 0x3 DUP7 SWAP1 SHL SHR NOT AND PUSH1 0x1 DUP6 SWAP1 SHL OR DUP6 SSTORE PUSH2 0x2E1B JUMP JUMPDEST PUSH0 DUP6 DUP2 MSTORE PUSH1 0x20 DUP2 KECCAK256 PUSH1 0x1F NOT DUP7 AND SWAP2 JUMPDEST DUP3 DUP2 LT ISZERO PUSH2 0x2EB2 JUMPI DUP9 DUP7 ADD MLOAD DUP3 SSTORE SWAP5 DUP5 ADD SWAP5 PUSH1 0x1 SWAP1 SWAP2 ADD SWAP1 DUP5 ADD PUSH2 0x2E93 JUMP JUMPDEST POP DUP6 DUP3 LT ISZERO PUSH2 0x2ECF JUMPI DUP8 DUP6 ADD MLOAD PUSH0 NOT PUSH1 0x3 DUP9 SWAP1 SHL PUSH1 0xF8 AND SHR NOT AND DUP2 SSTORE JUMPDEST POP POP POP POP POP PUSH1 0x1 SWAP1 DUP2 SHL ADD SWAP1 SSTORE POP JUMP JUMPDEST DUP5 DUP2 MSTORE DUP4 PUSH1 0x20 DUP3 ADD MSTORE DUP3 PUSH1 0x40 DUP3 ADD MSTORE PUSH1 0x80 PUSH1 0x60 DUP3 ADD MSTORE PUSH0 PUSH2 0x2F03 PUSH1 0x80 DUP4 ADD DUP5 PUSH2 0x29F0 JUMP JUMPDEST SWAP7 SWAP6 POP POP POP POP POP POP JUMP JUMPDEST PUSH0 PUSH1 0x20 DUP1 DUP4 MSTORE PUSH0 DUP5 SLOAD PUSH2 0x2F1F DUP2 PUSH2 0x2D03 JUMP JUMPDEST DUP1 DUP5 DUP8 ADD MSTORE PUSH1 0x40 PUSH1 0x1 DUP1 DUP5 AND PUSH0 DUP2 EQ PUSH2 0x2F3F JUMPI PUSH1 0x1 DUP2 EQ PUSH2 0x2F59 JUMPI PUSH2 0x2F84 JUMP JUMPDEST PUSH1 0xFF NOT DUP6 AND DUP10 DUP5 ADD MSTORE DUP4 ISZERO ISZERO PUSH1 0x5 SHL DUP10 ADD DUP4 ADD SWAP6 POP PUSH2 0x2F84 JUMP JUMPDEST DUP10 PUSH0 MSTORE DUP7 PUSH0 KECCAK256 PUSH0 JUMPDEST DUP6 DUP2 LT ISZERO PUSH2 0x2F7C JUMPI DUP2 SLOAD DUP12 DUP3 ADD DUP7 ADD MSTORE SWAP1 DUP4 ADD SWAP1 DUP9 ADD PUSH2 0x2F61 JUMP JUMPDEST DUP11 ADD DUP5 ADD SWAP7 POP POP JUMPDEST POP SWAP4 SWAP9 SWAP8 POP POP POP POP POP POP POP POP JUMP JUMPDEST PUSH1 0x20 DUP2 MSTORE PUSH0 PUSH2 0x29C9 PUSH1 0x20 DUP4 ADD DUP5 PUSH2 0x29F0 JUMP INVALID LOG2 PUSH5 0x6970667358 0x22 SLT KECCAK256 DUP4 0xC4 REVERT 0xDA LOG4 0xC8 AND PUSH31 0xF62A0F5A88806F11AA9DADCF2002EDB86C259C925355B63764736F6C634300 ADDMOD EQ STOP CALLER ISZERO 0xC 0xB3 PUSH10 0xF834B70A4F343956659B 0x1F DUP5 0xCD CALLDATACOPY 0xD4 NUMBER MSTORE 0xB9 0xA7 PUSH16 0xF77AC59552EF4AA00000000000000000 "
				},
				"gasEstimates": {
					"creation": {
						"codeDepositCost": "2450000",
						"executionCost": "infinite",
						"totalCost": "infinite"
					},
					"external": {
						"INGOTS_POOL_MAX()": "338",
						"INR1()": "2492",
						"INR1_PER_INGOT()": "315",
						"MAX_POOL_ID()": "294",
						"REFERRAL_PERCENTS(uint256)": "2450",
						"USD1()": "2426",
						"USD1_PER_INGOT()": "229",
						"adminSweepToken(address,uint256,address)": "infinite",
						"adminWithdrawOperational(uint256)": "infinite",
						"adminWithdrawReserve(uint256)": "infinite",
						"changeReferrer(address,address)": "infinite",
						"emergencyActive()": "2397",
						"forceCreatePool(uint256,string)": "infinite",
						"getActivePoolId()": "infinite",
						"getClaimablePoolReward(address)": "2567",
						"getClaimableReferral(address)": "infinite",
						"getNextPoolId()": "2462",
						"inr1UpdatePending()": "2460",
						"inrDecimals()": "2484",
						"isBlacklisted(address)": "2682",
						"joinPool(uint256,uint256,bool)": "infinite",
						"lastCreatedPoolId()": "2417",
						"operationalTreasury()": "2372",
						"owner()": "2463",
						"pendingINR1()": "2405",
						"pendingINR1Payout(address)": "2571",
						"pendingUSD1()": "2404",
						"poolOrders(uint256,uint256)": "infinite",
						"pools(uint256)": "infinite",
						"register(address)": "infinite",
						"renounceOwnership()": "infinite",
						"reserveTreasury()": "2374",
						"setEmergencyActive(bool)": "27917",
						"setINR1(address)": "infinite",
						"setTokenDecimals(uint8,uint8)": "infinite",
						"setUSD1(address)": "infinite",
						"subadmin()": "2425",
						"tokenWhitelist(address)": "2661",
						"totalInvestedAllPools()": "2394",
						"transferOwnership(address)": "28439",
						"triggerPayout(uint256)": "infinite",
						"usd1UpdatePending()": "2438",
						"usdDecimals()": "2396",
						"usdInrParity()": "2328",
						"users(address)": "11159",
						"withdrawReferralReward()": "infinite",
						"withdrawReward()": "infinite"
					},
					"internal": {
						"_distributeReferralRewards(address,uint256)": "infinite"
					}
				},
				"methodIdentifiers": {
					"INGOTS_POOL_MAX()": "e1e55fbf",
					"INR1()": "a3a83649",
					"INR1_PER_INGOT()": "f8b55f4f",
					"MAX_POOL_ID()": "b1ced5e7",
					"REFERRAL_PERCENTS(uint256)": "600d20ce",
					"USD1()": "44386321",
					"USD1_PER_INGOT()": "166b836f",
					"adminSweepToken(address,uint256,address)": "4b67e948",
					"adminWithdrawOperational(uint256)": "ddbb48d6",
					"adminWithdrawReserve(uint256)": "81caedf1",
					"changeReferrer(address,address)": "3b38bf72",
					"emergencyActive()": "eddaa3ab",
					"forceCreatePool(uint256,string)": "bc0ca177",
					"getActivePoolId()": "11ccdf8c",
					"getClaimablePoolReward(address)": "e22d0a82",
					"getClaimableReferral(address)": "149b6b1f",
					"getNextPoolId()": "007da258",
					"inr1UpdatePending()": "254c4326",
					"inrDecimals()": "755e1fee",
					"isBlacklisted(address)": "fe575a87",
					"joinPool(uint256,uint256,bool)": "b380744d",
					"lastCreatedPoolId()": "4ba05906",
					"operationalTreasury()": "d66aafa6",
					"owner()": "8da5cb5b",
					"pendingINR1()": "0e3a83a4",
					"pendingINR1Payout(address)": "e7780f28",
					"pendingUSD1()": "7bb5ee4b",
					"poolOrders(uint256,uint256)": "17b72137",
					"pools(uint256)": "ac4afa38",
					"register(address)": "4420e486",
					"renounceOwnership()": "715018a6",
					"reserveTreasury()": "106ca23c",
					"setEmergencyActive(bool)": "569a7dfd",
					"setINR1(address)": "367631d7",
					"setTokenDecimals(uint8,uint8)": "8995bc60",
					"setUSD1(address)": "76752435",
					"subadmin()": "6afbd415",
					"tokenWhitelist(address)": "753d7563",
					"totalInvestedAllPools()": "dc810925",
					"transferOwnership(address)": "f2fde38b",
					"triggerPayout(uint256)": "b1b358d4",
					"usd1UpdatePending()": "239cc1dd",
					"usdDecimals()": "66a4b6c0",
					"usdInrParity()": "bcaf0d95",
					"users(address)": "a87430ba",
					"withdrawReferralReward()": "18118787",
					"withdrawReward()": "c885bc58"
				}
			},
			"storageLayout": {
				"storage": [
					{
						"astId": 8,
						"contract": "LibertyFinancialChain/LiberttFinancial/genesispool.sol:GenesisPool",
						"label": "_owner",
						"offset": 0,
						"slot": "0",
						"type": "t_address"
					},
					{
						"astId": 248,
						"contract": "LibertyFinancialChain/LiberttFinancial/genesispool.sol:GenesisPool",
						"label": "_status",
						"offset": 0,
						"slot": "1",
						"type": "t_uint256"
					},
					{
						"astId": 924,
						"contract": "LibertyFinancialChain/LiberttFinancial/genesispool.sol:GenesisPool",
						"label": "REFERRAL_PERCENTS",
						"offset": 0,
						"slot": "2",
						"type": "t_array(t_uint256)7_storage"
					},
					{
						"astId": 933,
						"contract": "LibertyFinancialChain/LiberttFinancial/genesispool.sol:GenesisPool",
						"label": "INR1",
						"offset": 0,
						"slot": "9",
						"type": "t_contract(IERC20)380"
					},
					{
						"astId": 936,
						"contract": "LibertyFinancialChain/LiberttFinancial/genesispool.sol:GenesisPool",
						"label": "USD1",
						"offset": 0,
						"slot": "10",
						"type": "t_contract(IERC20)380"
					},
					{
						"astId": 938,
						"contract": "LibertyFinancialChain/LiberttFinancial/genesispool.sol:GenesisPool",
						"label": "subadmin",
						"offset": 0,
						"slot": "11",
						"type": "t_address"
					},
					{
						"astId": 940,
						"contract": "LibertyFinancialChain/LiberttFinancial/genesispool.sol:GenesisPool",
						"label": "inrDecimals",
						"offset": 20,
						"slot": "11",
						"type": "t_uint8"
					},
					{
						"astId": 942,
						"contract": "LibertyFinancialChain/LiberttFinancial/genesispool.sol:GenesisPool",
						"label": "usdDecimals",
						"offset": 21,
						"slot": "11",
						"type": "t_uint8"
					},
					{
						"astId": 945,
						"contract": "LibertyFinancialChain/LiberttFinancial/genesispool.sol:GenesisPool",
						"label": "usdInrParity",
						"offset": 0,
						"slot": "12",
						"type": "t_uint256"
					},
					{
						"astId": 949,
						"contract": "LibertyFinancialChain/LiberttFinancial/genesispool.sol:GenesisPool",
						"label": "tokenWhitelist",
						"offset": 0,
						"slot": "13",
						"type": "t_mapping(t_address,t_bool)"
					},
					{
						"astId": 951,
						"contract": "LibertyFinancialChain/LiberttFinancial/genesispool.sol:GenesisPool",
						"label": "pendingINR1",
						"offset": 0,
						"slot": "14",
						"type": "t_address"
					},
					{
						"astId": 953,
						"contract": "LibertyFinancialChain/LiberttFinancial/genesispool.sol:GenesisPool",
						"label": "pendingUSD1",
						"offset": 0,
						"slot": "15",
						"type": "t_address"
					},
					{
						"astId": 955,
						"contract": "LibertyFinancialChain/LiberttFinancial/genesispool.sol:GenesisPool",
						"label": "inr1UpdatePending",
						"offset": 20,
						"slot": "15",
						"type": "t_bool"
					},
					{
						"astId": 957,
						"contract": "LibertyFinancialChain/LiberttFinancial/genesispool.sol:GenesisPool",
						"label": "usd1UpdatePending",
						"offset": 21,
						"slot": "15",
						"type": "t_bool"
					},
					{
						"astId": 988,
						"contract": "LibertyFinancialChain/LiberttFinancial/genesispool.sol:GenesisPool",
						"label": "pools",
						"offset": 0,
						"slot": "16",
						"type": "t_mapping(t_uint256,t_struct(Pool)983_storage)"
					},
					{
						"astId": 990,
						"contract": "LibertyFinancialChain/LiberttFinancial/genesispool.sol:GenesisPool",
						"label": "lastCreatedPoolId",
						"offset": 0,
						"slot": "17",
						"type": "t_uint256"
					},
					{
						"astId": 992,
						"contract": "LibertyFinancialChain/LiberttFinancial/genesispool.sol:GenesisPool",
						"label": "totalInvestedAllPools",
						"offset": 0,
						"slot": "18",
						"type": "t_uint256"
					},
					{
						"astId": 1011,
						"contract": "LibertyFinancialChain/LiberttFinancial/genesispool.sol:GenesisPool",
						"label": "poolOrders",
						"offset": 0,
						"slot": "19",
						"type": "t_mapping(t_uint256,t_array(t_struct(Order)1005_storage)dyn_storage)"
					},
					{
						"astId": 1034,
						"contract": "LibertyFinancialChain/LiberttFinancial/genesispool.sol:GenesisPool",
						"label": "users",
						"offset": 0,
						"slot": "20",
						"type": "t_mapping(t_address,t_struct(User)1029_storage)"
					},
					{
						"astId": 1038,
						"contract": "LibertyFinancialChain/LiberttFinancial/genesispool.sol:GenesisPool",
						"label": "pendingINR1Payout",
						"offset": 0,
						"slot": "21",
						"type": "t_mapping(t_address,t_uint256)"
					},
					{
						"astId": 1042,
						"contract": "LibertyFinancialChain/LiberttFinancial/genesispool.sol:GenesisPool",
						"label": "isBlacklisted",
						"offset": 0,
						"slot": "22",
						"type": "t_mapping(t_address,t_bool)"
					},
					{
						"astId": 1044,
						"contract": "LibertyFinancialChain/LiberttFinancial/genesispool.sol:GenesisPool",
						"label": "emergencyActive",
						"offset": 0,
						"slot": "23",
						"type": "t_bool"
					},
					{
						"astId": 1046,
						"contract": "LibertyFinancialChain/LiberttFinancial/genesispool.sol:GenesisPool",
						"label": "reserveTreasury",
						"offset": 0,
						"slot": "24",
						"type": "t_uint256"
					},
					{
						"astId": 1048,
						"contract": "LibertyFinancialChain/LiberttFinancial/genesispool.sol:GenesisPool",
						"label": "operationalTreasury",
						"offset": 0,
						"slot": "25",
						"type": "t_uint256"
					}
				],
				"types": {
					"t_address": {
						"encoding": "inplace",
						"label": "address",
						"numberOfBytes": "20"
					},
					"t_array(t_address)7_storage": {
						"base": "t_address",
						"encoding": "inplace",
						"label": "address[7]",
						"numberOfBytes": "224"
					},
					"t_array(t_address)dyn_storage": {
						"base": "t_address",
						"encoding": "dynamic_array",
						"label": "address[]",
						"numberOfBytes": "32"
					},
					"t_array(t_struct(Order)1005_storage)dyn_storage": {
						"base": "t_struct(Order)1005_storage",
						"encoding": "dynamic_array",
						"label": "struct GenesisPool.Order[]",
						"numberOfBytes": "32"
					},
					"t_array(t_uint256)7_storage": {
						"base": "t_uint256",
						"encoding": "inplace",
						"label": "uint256[7]",
						"numberOfBytes": "224"
					},
					"t_bool": {
						"encoding": "inplace",
						"label": "bool",
						"numberOfBytes": "1"
					},
					"t_contract(IERC20)380": {
						"encoding": "inplace",
						"label": "contract IERC20",
						"numberOfBytes": "20"
					},
					"t_mapping(t_address,t_bool)": {
						"encoding": "mapping",
						"key": "t_address",
						"label": "mapping(address => bool)",
						"numberOfBytes": "32",
						"value": "t_bool"
					},
					"t_mapping(t_address,t_struct(User)1029_storage)": {
						"encoding": "mapping",
						"key": "t_address",
						"label": "mapping(address => struct GenesisPool.User)",
						"numberOfBytes": "32",
						"value": "t_struct(User)1029_storage"
					},
					"t_mapping(t_address,t_uint256)": {
						"encoding": "mapping",
						"key": "t_address",
						"label": "mapping(address => uint256)",
						"numberOfBytes": "32",
						"value": "t_uint256"
					},
					"t_mapping(t_uint256,t_array(t_struct(Order)1005_storage)dyn_storage)": {
						"encoding": "mapping",
						"key": "t_uint256",
						"label": "mapping(uint256 => struct GenesisPool.Order[])",
						"numberOfBytes": "32",
						"value": "t_array(t_struct(Order)1005_storage)dyn_storage"
					},
					"t_mapping(t_uint256,t_struct(Pool)983_storage)": {
						"encoding": "mapping",
						"key": "t_uint256",
						"label": "mapping(uint256 => struct GenesisPool.Pool)",
						"numberOfBytes": "32",
						"value": "t_struct(Pool)983_storage"
					},
					"t_string_storage": {
						"encoding": "bytes",
						"label": "string",
						"numberOfBytes": "32"
					},
					"t_struct(Order)1005_storage": {
						"encoding": "inplace",
						"label": "struct GenesisPool.Order",
						"members": [
							{
								"astId": 994,
								"contract": "LibertyFinancialChain/LiberttFinancial/genesispool.sol:GenesisPool",
								"label": "orderNo",
								"offset": 0,
								"slot": "0",
								"type": "t_uint256"
							},
							{
								"astId": 996,
								"contract": "LibertyFinancialChain/LiberttFinancial/genesispool.sol:GenesisPool",
								"label": "user",
								"offset": 0,
								"slot": "1",
								"type": "t_address"
							},
							{
								"astId": 998,
								"contract": "LibertyFinancialChain/LiberttFinancial/genesispool.sol:GenesisPool",
								"label": "investedAmount",
								"offset": 0,
								"slot": "2",
								"type": "t_uint256"
							},
							{
								"astId": 1000,
								"contract": "LibertyFinancialChain/LiberttFinancial/genesispool.sol:GenesisPool",
								"label": "interest",
								"offset": 0,
								"slot": "3",
								"type": "t_uint256"
							},
							{
								"astId": 1002,
								"contract": "LibertyFinancialChain/LiberttFinancial/genesispool.sol:GenesisPool",
								"label": "paymentToken",
								"offset": 0,
								"slot": "4",
								"type": "t_string_storage"
							},
							{
								"astId": 1004,
								"contract": "LibertyFinancialChain/LiberttFinancial/genesispool.sol:GenesisPool",
								"label": "paidOut",
								"offset": 0,
								"slot": "5",
								"type": "t_bool"
							}
						],
						"numberOfBytes": "192"
					},
					"t_struct(Pool)983_storage": {
						"encoding": "inplace",
						"label": "struct GenesisPool.Pool",
						"members": [
							{
								"astId": 972,
								"contract": "LibertyFinancialChain/LiberttFinancial/genesispool.sol:GenesisPool",
								"label": "poolId",
								"offset": 0,
								"slot": "0",
								"type": "t_uint256"
							},
							{
								"astId": 974,
								"contract": "LibertyFinancialChain/LiberttFinancial/genesispool.sol:GenesisPool",
								"label": "poolType",
								"offset": 0,
								"slot": "1",
								"type": "t_string_storage"
							},
							{
								"astId": 976,
								"contract": "LibertyFinancialChain/LiberttFinancial/genesispool.sol:GenesisPool",
								"label": "currentFill",
								"offset": 0,
								"slot": "2",
								"type": "t_uint256"
							},
							{
								"astId": 978,
								"contract": "LibertyFinancialChain/LiberttFinancial/genesispool.sol:GenesisPool",
								"label": "isActive",
								"offset": 0,
								"slot": "3",
								"type": "t_bool"
							},
							{
								"astId": 980,
								"contract": "LibertyFinancialChain/LiberttFinancial/genesispool.sol:GenesisPool",
								"label": "paidOut",
								"offset": 1,
								"slot": "3",
								"type": "t_bool"
							},
							{
								"astId": 982,
								"contract": "LibertyFinancialChain/LiberttFinancial/genesispool.sol:GenesisPool",
								"label": "totalInvested",
								"offset": 0,
								"slot": "4",
								"type": "t_uint256"
							}
						],
						"numberOfBytes": "160"
					},
					"t_struct(User)1029_storage": {
						"encoding": "inplace",
						"label": "struct GenesisPool.User",
						"members": [
							{
								"astId": 1013,
								"contract": "LibertyFinancialChain/LiberttFinancial/genesispool.sol:GenesisPool",
								"label": "referrer",
								"offset": 0,
								"slot": "0",
								"type": "t_address"
							},
							{
								"astId": 1017,
								"contract": "LibertyFinancialChain/LiberttFinancial/genesispool.sol:GenesisPool",
								"label": "uplines",
								"offset": 0,
								"slot": "1",
								"type": "t_array(t_address)7_storage"
							},
							{
								"astId": 1020,
								"contract": "LibertyFinancialChain/LiberttFinancial/genesispool.sol:GenesisPool",
								"label": "downlines",
								"offset": 0,
								"slot": "8",
								"type": "t_array(t_address)dyn_storage"
							},
							{
								"astId": 1022,
								"contract": "LibertyFinancialChain/LiberttFinancial/genesispool.sol:GenesisPool",
								"label": "invested",
								"offset": 0,
								"slot": "9",
								"type": "t_uint256"
							},
							{
								"astId": 1024,
								"contract": "LibertyFinancialChain/LiberttFinancial/genesispool.sol:GenesisPool",
								"label": "referralRewardTotal",
								"offset": 0,
								"slot": "10",
								"type": "t_uint256"
							},
							{
								"astId": 1026,
								"contract": "LibertyFinancialChain/LiberttFinancial/genesispool.sol:GenesisPool",
								"label": "referralWithdrawn",
								"offset": 0,
								"slot": "11",
								"type": "t_uint256"
							},
							{
								"astId": 1028,
								"contract": "LibertyFinancialChain/LiberttFinancial/genesispool.sol:GenesisPool",
								"label": "registered",
								"offset": 0,
								"slot": "12",
								"type": "t_bool"
							}
						],
						"numberOfBytes": "416"
					},
					"t_uint256": {
						"encoding": "inplace",
						"label": "uint256",
						"numberOfBytes": "32"
					},
					"t_uint8": {
						"encoding": "inplace",
						"label": "uint8",
						"numberOfBytes": "1"
					}
				}
			},
			"userdoc": {
				"kind": "user",
				"methods": {},
				"version": 1
			}
		}
	}
}