{
	"LibertyFinancialChain/LiberttFinancial/exchange.sol": {
		"RobustHybridExchange": {
			"abi": [
				{
					"inputs": [
						{
							"internalType": "address",
							"name": "_feeRecipient",
							"type": "address"
						}
					],
					"stateMutability": "nonpayable",
					"type": "constructor"
				},
				{
					"inputs": [],
					"name": "AccessControlBadConfirmation",
					"type": "error"
				},
				{
					"inputs": [
						{
							"internalType": "address",
							"name": "account",
							"type": "address"
						},
						{
							"internalType": "bytes32",
							"name": "neededRole",
							"type": "bytes32"
						}
					],
					"name": "AccessControlUnauthorizedAccount",
					"type": "error"
				},
				{
					"anonymous": false,
					"inputs": [
						{
							"indexed": false,
							"internalType": "address",
							"name": "oldRecipient",
							"type": "address"
						},
						{
							"indexed": false,
							"internalType": "address",
							"name": "newRecipient",
							"type": "address"
						}
					],
					"name": "FeeRecipientUpdated",
					"type": "event"
				},
				{
					"anonymous": false,
					"inputs": [
						{
							"indexed": false,
							"internalType": "uint256",
							"name": "oldFeeBps",
							"type": "uint256"
						},
						{
							"indexed": false,
							"internalType": "uint256",
							"name": "newFeeBps",
							"type": "uint256"
						}
					],
					"name": "FeeUpdated",
					"type": "event"
				},
				{
					"anonymous": false,
					"inputs": [
						{
							"indexed": true,
							"internalType": "address",
							"name": "tokenIn",
							"type": "address"
						},
						{
							"indexed": true,
							"internalType": "address",
							"name": "tokenOut",
							"type": "address"
						},
						{
							"indexed": false,
							"internalType": "uint256",
							"name": "rate",
							"type": "uint256"
						}
					],
					"name": "GlobalRateSet",
					"type": "event"
				},
				{
					"anonymous": false,
					"inputs": [
						{
							"indexed": true,
							"internalType": "uint256",
							"name": "orderId",
							"type": "uint256"
						},
						{
							"indexed": false,
							"internalType": "uint256",
							"name": "amountRefunded",
							"type": "uint256"
						}
					],
					"name": "OrderCancelled",
					"type": "event"
				},
				{
					"anonymous": false,
					"inputs": [
						{
							"indexed": true,
							"internalType": "uint256",
							"name": "orderId",
							"type": "uint256"
						},
						{
							"indexed": true,
							"internalType": "address",
							"name": "maker",
							"type": "address"
						},
						{
							"indexed": false,
							"internalType": "address",
							"name": "tokenIn",
							"type": "address"
						},
						{
							"indexed": false,
							"internalType": "address",
							"name": "tokenOut",
							"type": "address"
						},
						{
							"indexed": false,
							"internalType": "uint256",
							"name": "amountInitial",
							"type": "uint256"
						},
						{
							"indexed": false,
							"internalType": "uint256",
							"name": "rate",
							"type": "uint256"
						},
						{
							"indexed": false,
							"internalType": "uint256",
							"name": "expiresAt",
							"type": "uint256"
						}
					],
					"name": "OrderCreated",
					"type": "event"
				},
				{
					"anonymous": false,
					"inputs": [
						{
							"indexed": true,
							"internalType": "uint256",
							"name": "orderId",
							"type": "uint256"
						},
						{
							"indexed": true,
							"internalType": "address",
							"name": "taker",
							"type": "address"
						},
						{
							"indexed": false,
							"internalType": "uint256",
							"name": "fillAmount",
							"type": "uint256"
						},
						{
							"indexed": false,
							"internalType": "uint256",
							"name": "outAmount",
							"type": "uint256"
						},
						{
							"indexed": false,
							"internalType": "uint256",
							"name": "fee",
							"type": "uint256"
						}
					],
					"name": "OrderMatched",
					"type": "event"
				},
				{
					"anonymous": false,
					"inputs": [
						{
							"indexed": true,
							"internalType": "bytes32",
							"name": "role",
							"type": "bytes32"
						},
						{
							"indexed": true,
							"internalType": "bytes32",
							"name": "previousAdminRole",
							"type": "bytes32"
						},
						{
							"indexed": true,
							"internalType": "bytes32",
							"name": "newAdminRole",
							"type": "bytes32"
						}
					],
					"name": "RoleAdminChanged",
					"type": "event"
				},
				{
					"anonymous": false,
					"inputs": [
						{
							"indexed": true,
							"internalType": "bytes32",
							"name": "role",
							"type": "bytes32"
						},
						{
							"indexed": true,
							"internalType": "address",
							"name": "account",
							"type": "address"
						},
						{
							"indexed": true,
							"internalType": "address",
							"name": "sender",
							"type": "address"
						}
					],
					"name": "RoleGranted",
					"type": "event"
				},
				{
					"anonymous": false,
					"inputs": [
						{
							"indexed": true,
							"internalType": "bytes32",
							"name": "role",
							"type": "bytes32"
						},
						{
							"indexed": true,
							"internalType": "address",
							"name": "account",
							"type": "address"
						},
						{
							"indexed": true,
							"internalType": "address",
							"name": "sender",
							"type": "address"
						}
					],
					"name": "RoleRevoked",
					"type": "event"
				},
				{
					"anonymous": false,
					"inputs": [
						{
							"indexed": true,
							"internalType": "address",
							"name": "sender",
							"type": "address"
						},
						{
							"indexed": true,
							"internalType": "address",
							"name": "tokenIn",
							"type": "address"
						},
						{
							"indexed": true,
							"internalType": "address",
							"name": "tokenOut",
							"type": "address"
						},
						{
							"indexed": false,
							"internalType": "uint256",
							"name": "amountIn",
							"type": "uint256"
						},
						{
							"indexed": false,
							"internalType": "uint256",
							"name": "amountOut",
							"type": "uint256"
						},
						{
							"indexed": false,
							"internalType": "uint256",
							"name": "fee",
							"type": "uint256"
						}
					],
					"name": "SwapGlobal",
					"type": "event"
				},
				{
					"anonymous": false,
					"inputs": [
						{
							"indexed": true,
							"internalType": "address",
							"name": "token",
							"type": "address"
						},
						{
							"indexed": false,
							"internalType": "bool",
							"name": "allowed",
							"type": "bool"
						}
					],
					"name": "TokenWhitelistUpdated",
					"type": "event"
				},
				{
					"inputs": [],
					"name": "DEFAULT_ADMIN_ROLE",
					"outputs": [
						{
							"internalType": "bytes32",
							"name": "",
							"type": "bytes32"
						}
					],
					"stateMutability": "view",
					"type": "function"
				},
				{
					"inputs": [],
					"name": "SUBADMIN_ROLE",
					"outputs": [
						{
							"internalType": "bytes32",
							"name": "",
							"type": "bytes32"
						}
					],
					"stateMutability": "view",
					"type": "function"
				},
				{
					"inputs": [
						{
							"internalType": "address",
							"name": "",
							"type": "address"
						}
					],
					"name": "allowedTokens",
					"outputs": [
						{
							"internalType": "bool",
							"name": "",
							"type": "bool"
						}
					],
					"stateMutability": "view",
					"type": "function"
				},
				{
					"inputs": [
						{
							"internalType": "uint256",
							"name": "orderId",
							"type": "uint256"
						}
					],
					"name": "cancelOrder",
					"outputs": [],
					"stateMutability": "nonpayable",
					"type": "function"
				},
				{
					"inputs": [
						{
							"internalType": "address",
							"name": "tokenIn",
							"type": "address"
						},
						{
							"internalType": "address",
							"name": "tokenOut",
							"type": "address"
						},
						{
							"internalType": "uint256",
							"name": "amountIn",
							"type": "uint256"
						},
						{
							"internalType": "uint256",
							"name": "rate",
							"type": "uint256"
						},
						{
							"internalType": "uint256",
							"name": "expiresInSeconds",
							"type": "uint256"
						}
					],
					"name": "createOrder",
					"outputs": [],
					"stateMutability": "nonpayable",
					"type": "function"
				},
				{
					"inputs": [
						{
							"internalType": "address",
							"name": "token",
							"type": "address"
						},
						{
							"internalType": "uint256",
							"name": "nAmount",
							"type": "uint256"
						}
					],
					"name": "denormalize",
					"outputs": [
						{
							"internalType": "uint256",
							"name": "",
							"type": "uint256"
						}
					],
					"stateMutability": "view",
					"type": "function"
				},
				{
					"inputs": [
						{
							"internalType": "address",
							"name": "token",
							"type": "address"
						}
					],
					"name": "emergencyWithdraw",
					"outputs": [],
					"stateMutability": "nonpayable",
					"type": "function"
				},
				{
					"inputs": [],
					"name": "feeRecipient",
					"outputs": [
						{
							"internalType": "address",
							"name": "",
							"type": "address"
						}
					],
					"stateMutability": "view",
					"type": "function"
				},
				{
					"inputs": [
						{
							"internalType": "address",
							"name": "token",
							"type": "address"
						}
					],
					"name": "getDecimals",
					"outputs": [
						{
							"internalType": "uint8",
							"name": "",
							"type": "uint8"
						}
					],
					"stateMutability": "view",
					"type": "function"
				},
				{
					"inputs": [
						{
							"internalType": "bytes32",
							"name": "role",
							"type": "bytes32"
						}
					],
					"name": "getRoleAdmin",
					"outputs": [
						{
							"internalType": "bytes32",
							"name": "",
							"type": "bytes32"
						}
					],
					"stateMutability": "view",
					"type": "function"
				},
				{
					"inputs": [
						{
							"internalType": "address",
							"name": "",
							"type": "address"
						},
						{
							"internalType": "address",
							"name": "",
							"type": "address"
						}
					],
					"name": "globalRates",
					"outputs": [
						{
							"internalType": "uint256",
							"name": "",
							"type": "uint256"
						}
					],
					"stateMutability": "view",
					"type": "function"
				},
				{
					"inputs": [
						{
							"internalType": "bytes32",
							"name": "role",
							"type": "bytes32"
						},
						{
							"internalType": "address",
							"name": "account",
							"type": "address"
						}
					],
					"name": "grantRole",
					"outputs": [],
					"stateMutability": "nonpayable",
					"type": "function"
				},
				{
					"inputs": [
						{
							"internalType": "address",
							"name": "account",
							"type": "address"
						}
					],
					"name": "grantSubAdmin",
					"outputs": [],
					"stateMutability": "nonpayable",
					"type": "function"
				},
				{
					"inputs": [
						{
							"internalType": "bytes32",
							"name": "role",
							"type": "bytes32"
						},
						{
							"internalType": "address",
							"name": "account",
							"type": "address"
						}
					],
					"name": "hasRole",
					"outputs": [
						{
							"internalType": "bool",
							"name": "",
							"type": "bool"
						}
					],
					"stateMutability": "view",
					"type": "function"
				},
				{
					"inputs": [
						{
							"internalType": "uint256",
							"name": "orderId",
							"type": "uint256"
						},
						{
							"internalType": "uint256",
							"name": "fillAmount",
							"type": "uint256"
						}
					],
					"name": "matchOrder",
					"outputs": [],
					"stateMutability": "nonpayable",
					"type": "function"
				},
				{
					"inputs": [
						{
							"internalType": "address",
							"name": "token",
							"type": "address"
						},
						{
							"internalType": "uint256",
							"name": "amount",
							"type": "uint256"
						}
					],
					"name": "normalize",
					"outputs": [
						{
							"internalType": "uint256",
							"name": "",
							"type": "uint256"
						}
					],
					"stateMutability": "view",
					"type": "function"
				},
				{
					"inputs": [
						{
							"internalType": "uint256",
							"name": "",
							"type": "uint256"
						}
					],
					"name": "orders",
					"outputs": [
						{
							"internalType": "address",
							"name": "maker",
							"type": "address"
						},
						{
							"internalType": "address",
							"name": "tokenIn",
							"type": "address"
						},
						{
							"internalType": "address",
							"name": "tokenOut",
							"type": "address"
						},
						{
							"internalType": "uint256",
							"name": "amountInitial",
							"type": "uint256"
						},
						{
							"internalType": "uint256",
							"name": "amountRemaining",
							"type": "uint256"
						},
						{
							"internalType": "uint256",
							"name": "rate",
							"type": "uint256"
						},
						{
							"internalType": "uint256",
							"name": "expiresAt",
							"type": "uint256"
						},
						{
							"internalType": "bool",
							"name": "active",
							"type": "bool"
						}
					],
					"stateMutability": "view",
					"type": "function"
				},
				{
					"inputs": [
						{
							"internalType": "bytes32",
							"name": "role",
							"type": "bytes32"
						},
						{
							"internalType": "address",
							"name": "callerConfirmation",
							"type": "address"
						}
					],
					"name": "renounceRole",
					"outputs": [],
					"stateMutability": "nonpayable",
					"type": "function"
				},
				{
					"inputs": [
						{
							"internalType": "bytes32",
							"name": "role",
							"type": "bytes32"
						},
						{
							"internalType": "address",
							"name": "account",
							"type": "address"
						}
					],
					"name": "revokeRole",
					"outputs": [],
					"stateMutability": "nonpayable",
					"type": "function"
				},
				{
					"inputs": [
						{
							"internalType": "address",
							"name": "token",
							"type": "address"
						},
						{
							"internalType": "bool",
							"name": "allowed",
							"type": "bool"
						}
					],
					"name": "setAllowedToken",
					"outputs": [],
					"stateMutability": "nonpayable",
					"type": "function"
				},
				{
					"inputs": [
						{
							"internalType": "uint256",
							"name": "newFeeBps",
							"type": "uint256"
						}
					],
					"name": "setFee",
					"outputs": [],
					"stateMutability": "nonpayable",
					"type": "function"
				},
				{
					"inputs": [
						{
							"internalType": "address",
							"name": "recipient",
							"type": "address"
						}
					],
					"name": "setFeeRecipient",
					"outputs": [],
					"stateMutability": "nonpayable",
					"type": "function"
				},
				{
					"inputs": [
						{
							"internalType": "address",
							"name": "tokenIn",
							"type": "address"
						},
						{
							"internalType": "address",
							"name": "tokenOut",
							"type": "address"
						},
						{
							"internalType": "uint256",
							"name": "rate",
							"type": "uint256"
						}
					],
					"name": "setGlobalRate",
					"outputs": [],
					"stateMutability": "nonpayable",
					"type": "function"
				},
				{
					"inputs": [
						{
							"internalType": "bytes4",
							"name": "interfaceId",
							"type": "bytes4"
						}
					],
					"name": "supportsInterface",
					"outputs": [
						{
							"internalType": "bool",
							"name": "",
							"type": "bool"
						}
					],
					"stateMutability": "view",
					"type": "function"
				},
				{
					"inputs": [],
					"name": "swapFeeBps",
					"outputs": [
						{
							"internalType": "uint256",
							"name": "",
							"type": "uint256"
						}
					],
					"stateMutability": "view",
					"type": "function"
				},
				{
					"inputs": [
						{
							"internalType": "address",
							"name": "tokenIn",
							"type": "address"
						},
						{
							"internalType": "address",
							"name": "tokenOut",
							"type": "address"
						},
						{
							"internalType": "uint256",
							"name": "amountIn",
							"type": "uint256"
						}
					],
					"name": "swapGlobal",
					"outputs": [],
					"stateMutability": "nonpayable",
					"type": "function"
				}
			],
			"devdoc": {
				"errors": {
					"AccessControlBadConfirmation()": [
						{
							"details": "The caller of a function is not the expected one. NOTE: Don't confuse with {AccessControlUnauthorizedAccount}."
						}
					],
					"AccessControlUnauthorizedAccount(address,bytes32)": [
						{
							"details": "The `account` is missing a role."
						}
					]
				},
				"events": {
					"RoleAdminChanged(bytes32,bytes32,bytes32)": {
						"details": "Emitted when `newAdminRole` is set as ``role``'s admin role, replacing `previousAdminRole` `DEFAULT_ADMIN_ROLE` is the starting admin for all roles, despite {RoleAdminChanged} not being emitted to signal this."
					},
					"RoleGranted(bytes32,address,address)": {
						"details": "Emitted when `account` is granted `role`. `sender` is the account that originated the contract call. This account bears the admin role (for the granted role). Expected in cases where the role was granted using the internal {AccessControl-_grantRole}."
					},
					"RoleRevoked(bytes32,address,address)": {
						"details": "Emitted when `account` is revoked `role`. `sender` is the account that originated the contract call:   - if using `revokeRole`, it is the admin role bearer   - if using `renounceRole`, it is the role bearer (i.e. `account`)"
					}
				},
				"kind": "dev",
				"methods": {
					"getRoleAdmin(bytes32)": {
						"details": "Returns the admin role that controls `role`. See {grantRole} and {revokeRole}. To change a role's admin, use {_setRoleAdmin}."
					},
					"grantRole(bytes32,address)": {
						"details": "Grants `role` to `account`. If `account` had not been already granted `role`, emits a {RoleGranted} event. Requirements: - the caller must have ``role``'s admin role. May emit a {RoleGranted} event."
					},
					"hasRole(bytes32,address)": {
						"details": "Returns `true` if `account` has been granted `role`."
					},
					"renounceRole(bytes32,address)": {
						"details": "Revokes `role` from the calling account. Roles are often managed via {grantRole} and {revokeRole}: this function's purpose is to provide a mechanism for accounts to lose their privileges if they are compromised (such as when a trusted device is misplaced). If the calling account had been revoked `role`, emits a {RoleRevoked} event. Requirements: - the caller must be `callerConfirmation`. May emit a {RoleRevoked} event."
					},
					"revokeRole(bytes32,address)": {
						"details": "Revokes `role` from `account`. If `account` had been granted `role`, emits a {RoleRevoked} event. Requirements: - the caller must have ``role``'s admin role. May emit a {RoleRevoked} event."
					},
					"supportsInterface(bytes4)": {
						"details": "Returns true if this contract implements the interface defined by `interfaceId`. See the corresponding https://eips.ethereum.org/EIPS/eip-165#how-interfaces-are-identified[ERC section] to learn more about how these ids are created. This function call must use less than 30 000 gas."
					}
				},
				"version": 1
			},
			"evm": {
				"assembly": "    /* \"LibertyFinancialChain/LiberttFinancial/exchange.sol\":314:8517  contract RobustHybridExchange is AccessControl, ReentrancyGuard {... */\n  mstore(0x40, 0x80)\n    /* \"LibertyFinancialChain/LiberttFinancial/exchange.sol\":551:553  50 */\n  0x32\n    /* \"LibertyFinancialChain/LiberttFinancial/exchange.sol\":523:553  uint256 public swapFeeBps = 50 */\n  0x02\n  sstore\n    /* \"LibertyFinancialChain/LiberttFinancial/exchange.sol\":2021:2225  constructor(address _feeRecipient) {... */\n  callvalue\n  dup1\n  iszero\n  tag_1\n  jumpi\n  0x00\n  dup1\n  revert\ntag_1:\n  pop\n  mload(0x40)\n  sub(codesize, bytecodeSize)\n  dup1\n  bytecodeSize\n  dup4\n  codecopy\n  dup2\n  add\n  0x40\n  dup2\n  swap1\n  mstore\n  tag_2\n  swap2\n  tag_3\n  jump\t// in\ntag_2:\n    /* \"@openzeppelin/contracts/security/ReentrancyGuard.sol\":1716:1717  1 */\n  0x01\n    /* \"@openzeppelin/contracts/security/ReentrancyGuard.sol\":1821:1843  _status = _NOT_ENTERED */\n  dup1\n  sstore\n  sub(shl(0xa0, 0x01), 0x01)\n    /* \"LibertyFinancialChain/LiberttFinancial/exchange.sol\":2074:2101  _feeRecipient != address(0) */\n  dup2\n  and\n    /* \"LibertyFinancialChain/LiberttFinancial/exchange.sol\":2066:2128  require(_feeRecipient != address(0), \"Fee recipient required\") */\n  tag_8\n  jumpi\n  mload(0x40)\n  shl(0xe5, 0x461bcd)\n  dup2\n  mstore\n    /* \"#utility.yul\":511:513   */\n  0x20\n    /* \"LibertyFinancialChain/LiberttFinancial/exchange.sol\":2066:2128  require(_feeRecipient != address(0), \"Fee recipient required\") */\n  0x04\n  dup3\n  add\n    /* \"#utility.yul\":493:514   */\n  mstore\n    /* \"#utility.yul\":550:552   */\n  0x16\n    /* \"#utility.yul\":530:548   */\n  0x24\n  dup3\n  add\n    /* \"#utility.yul\":523:553   */\n  mstore\n    /* \"#utility.yul\":589:613   */\n  0x46656520726563697069656e7420726571756972656400000000000000000000\n    /* \"#utility.yul\":569:587   */\n  0x44\n  dup3\n  add\n    /* \"#utility.yul\":562:614   */\n  mstore\n    /* \"#utility.yul\":631:649   */\n  0x64\n  add\n    /* \"LibertyFinancialChain/LiberttFinancial/exchange.sol\":2066:2128  require(_feeRecipient != address(0), \"Fee recipient required\") */\n  mload(0x40)\n  dup1\n  swap2\n  sub\n  swap1\n  revert\ntag_8:\n    /* \"LibertyFinancialChain/LiberttFinancial/exchange.sol\":2138:2180  _grantRole(DEFAULT_ADMIN_ROLE, msg.sender) */\n  tag_11\n    /* \"@openzeppelin/contracts/access/AccessControl.sol\":2241:2245  0x00 */\n  0x00\n    /* \"LibertyFinancialChain/LiberttFinancial/exchange.sol\":2169:2179  msg.sender */\n  caller\n    /* \"LibertyFinancialChain/LiberttFinancial/exchange.sol\":2138:2148  _grantRole */\n  tag_12\n    /* \"LibertyFinancialChain/LiberttFinancial/exchange.sol\":2138:2180  _grantRole(DEFAULT_ADMIN_ROLE, msg.sender) */\n  jump\t// in\ntag_11:\n  pop\n    /* \"LibertyFinancialChain/LiberttFinancial/exchange.sol\":2190:2202  feeRecipient */\n  0x03\n    /* \"LibertyFinancialChain/LiberttFinancial/exchange.sol\":2190:2218  feeRecipient = _feeRecipient */\n  dup1\n  sload\n  not(sub(shl(0xa0, 0x01), 0x01))\n  and\n  sub(shl(0xa0, 0x01), 0x01)\n  swap3\n  swap1\n  swap3\n  and\n  swap2\n  swap1\n  swap2\n  or\n  swap1\n  sstore\n    /* \"LibertyFinancialChain/LiberttFinancial/exchange.sol\":314:8517  contract RobustHybridExchange is AccessControl, ReentrancyGuard {... */\n  jump(tag_23)\n    /* \"@openzeppelin/contracts/access/AccessControl.sol\":6155:6471  function _grantRole(bytes32 role, address account) internal virtual returns (bool) {... */\ntag_12:\n    /* \"@openzeppelin/contracts/access/AccessControl.sol\":6232:6236  bool */\n  0x00\n    /* \"@openzeppelin/contracts/access/AccessControl.sol\":2930:2942  _roles[role] */\n  dup3\n  dup2\n  mstore\n  0x20\n  dup2\n  dup2\n  mstore\n  0x40\n  dup1\n  dup4\n  keccak256\n  sub(shl(0xa0, 0x01), 0x01)\n    /* \"@openzeppelin/contracts/access/AccessControl.sol\":2930:2959  _roles[role].hasRole[account] */\n  dup6\n  and\n  dup5\n  mstore\n  swap1\n  swap2\n  mstore\n  dup2\n  keccak256\n  sload\n  0xff\n  and\n    /* \"@openzeppelin/contracts/access/AccessControl.sol\":6248:6465  if (!hasRole(role, account)) {... */\n  tag_17\n  jumpi\n    /* \"@openzeppelin/contracts/access/AccessControl.sol\":6291:6297  _roles */\n  0x00\n    /* \"@openzeppelin/contracts/access/AccessControl.sol\":6291:6303  _roles[role] */\n  dup4\n  dup2\n  mstore\n  0x20\n  dup2\n  dup2\n  mstore\n  0x40\n  dup1\n  dup4\n  keccak256\n  sub(shl(0xa0, 0x01), 0x01)\n    /* \"@openzeppelin/contracts/access/AccessControl.sol\":6291:6320  _roles[role].hasRole[account] */\n  dup7\n  and\n  dup5\n  mstore\n  swap1\n  swap2\n  mstore\n  swap1\n  keccak256\n    /* \"@openzeppelin/contracts/access/AccessControl.sol\":6291:6327  _roles[role].hasRole[account] = true */\n  dup1\n  sload\n  not(0xff)\n  and\n    /* \"@openzeppelin/contracts/access/AccessControl.sol\":6323:6327  true */\n  0x01\n    /* \"@openzeppelin/contracts/access/AccessControl.sol\":6291:6327  _roles[role].hasRole[account] = true */\n  or\n  swap1\n  sstore\n    /* \"@openzeppelin/contracts/access/AccessControl.sol\":6373:6385  _msgSender() */\n  tag_18\n    /* \"@openzeppelin/contracts/utils/Context.sol\":735:745  msg.sender */\n  caller\n  swap1\n    /* \"@openzeppelin/contracts/utils/Context.sol\":656:752  function _msgSender() internal view virtual returns (address) {... */\n  jump\n    /* \"@openzeppelin/contracts/access/AccessControl.sol\":6373:6385  _msgSender() */\ntag_18:\n  sub(shl(0xa0, 0x01), 0x01)\n    /* \"@openzeppelin/contracts/access/AccessControl.sol\":6346:6386  RoleGranted(role, account, _msgSender()) */\n  and\n    /* \"@openzeppelin/contracts/access/AccessControl.sol\":6364:6371  account */\n  dup3\n  sub(shl(0xa0, 0x01), 0x01)\n    /* \"@openzeppelin/contracts/access/AccessControl.sol\":6346:6386  RoleGranted(role, account, _msgSender()) */\n  and\n    /* \"@openzeppelin/contracts/access/AccessControl.sol\":6358:6362  role */\n  dup5\n    /* \"@openzeppelin/contracts/access/AccessControl.sol\":6346:6386  RoleGranted(role, account, _msgSender()) */\n  0x2f8788117e7eff1d82e926ec794901d17c78024a50270940304540a733656f0d\n  mload(0x40)\n  mload(0x40)\n  dup1\n  swap2\n  sub\n  swap1\n  log4\n  pop\n    /* \"@openzeppelin/contracts/access/AccessControl.sol\":6407:6411  true */\n  0x01\n    /* \"@openzeppelin/contracts/access/AccessControl.sol\":6400:6411  return true */\n  jump(tag_20)\n    /* \"@openzeppelin/contracts/access/AccessControl.sol\":6248:6465  if (!hasRole(role, account)) {... */\ntag_17:\n  pop\n    /* \"@openzeppelin/contracts/access/AccessControl.sol\":6449:6454  false */\n  0x00\n    /* \"@openzeppelin/contracts/access/AccessControl.sol\":6248:6465  if (!hasRole(role, account)) {... */\ntag_20:\n    /* \"@openzeppelin/contracts/access/AccessControl.sol\":6155:6471  function _grantRole(bytes32 role, address account) internal virtual returns (bool) {... */\n  swap3\n  swap2\n  pop\n  pop\n  jump\t// out\n    /* \"#utility.yul\":14:304   */\ntag_3:\n    /* \"#utility.yul\":84:90   */\n  0x00\n    /* \"#utility.yul\":137:139   */\n  0x20\n    /* \"#utility.yul\":125:134   */\n  dup3\n    /* \"#utility.yul\":116:123   */\n  dup5\n    /* \"#utility.yul\":112:135   */\n  sub\n    /* \"#utility.yul\":108:140   */\n  slt\n    /* \"#utility.yul\":105:157   */\n  iszero\n  tag_25\n  jumpi\n    /* \"#utility.yul\":153:154   */\n  0x00\n    /* \"#utility.yul\":150:151   */\n  dup1\n    /* \"#utility.yul\":143:155   */\n  revert\n    /* \"#utility.yul\":105:157   */\ntag_25:\n    /* \"#utility.yul\":179:195   */\n  dup2\n  mload\n  sub(shl(0xa0, 0x01), 0x01)\n    /* \"#utility.yul\":224:255   */\n  dup2\n  and\n    /* \"#utility.yul\":214:256   */\n  dup2\n  eq\n    /* \"#utility.yul\":204:274   */\n  tag_26\n  jumpi\n    /* \"#utility.yul\":270:271   */\n  0x00\n    /* \"#utility.yul\":267:268   */\n  dup1\n    /* \"#utility.yul\":260:272   */\n  revert\n    /* \"#utility.yul\":204:274   */\ntag_26:\n    /* \"#utility.yul\":293:298   */\n  swap4\n    /* \"#utility.yul\":14:304   */\n  swap3\n  pop\n  pop\n  pop\n  jump\t// out\n    /* \"#utility.yul\":309:655   */\ntag_23:\n    /* \"LibertyFinancialChain/LiberttFinancial/exchange.sol\":314:8517  contract RobustHybridExchange is AccessControl, ReentrancyGuard {... */\n  dataSize(sub_0)\n  dup1\n  dataOffset(sub_0)\n  0x00\n  codecopy\n  0x00\n  return\nstop\n\nsub_0: assembly {\n        /* \"LibertyFinancialChain/LiberttFinancial/exchange.sol\":314:8517  contract RobustHybridExchange is AccessControl, ReentrancyGuard {... */\n      mstore(0x40, 0x80)\n      callvalue\n      dup1\n      iszero\n      tag_1\n      jumpi\n      0x00\n      dup1\n      revert\n    tag_1:\n      pop\n      jumpi(tag_2, lt(calldatasize, 0x04))\n      shr(0xe0, calldataload(0x00))\n      dup1\n      0x6ff1c9bc\n      gt\n      tag_29\n      jumpi\n      dup1\n      0xba87a7c9\n      gt\n      tag_30\n      jumpi\n      dup1\n      0xd4248bbe\n      gt\n      tag_31\n      jumpi\n      dup1\n      0xd4248bbe\n      eq\n      tag_25\n      jumpi\n      dup1\n      0xd547741f\n      eq\n      tag_26\n      jumpi\n      dup1\n      0xe744092e\n      eq\n      tag_27\n      jumpi\n      dup1\n      0xe74b981b\n      eq\n      tag_28\n      jumpi\n      0x00\n      dup1\n      revert\n    tag_31:\n      dup1\n      0xba87a7c9\n      eq\n      tag_22\n      jumpi\n      dup1\n      0xcd3e5576\n      eq\n      tag_23\n      jumpi\n      dup1\n      0xcf54aaa0\n      eq\n      tag_24\n      jumpi\n      0x00\n      dup1\n      revert\n    tag_30:\n      dup1\n      0x6ff1c9bc\n      eq\n      tag_16\n      jumpi\n      dup1\n      0x8aaa2284\n      eq\n      tag_17\n      jumpi\n      dup1\n      0x91d14854\n      eq\n      tag_18\n      jumpi\n      dup1\n      0xa217fddf\n      eq\n      tag_19\n      jumpi\n      dup1\n      0xa85c38ef\n      eq\n      tag_20\n      jumpi\n      dup1\n      0xb38e0fc4\n      eq\n      tag_21\n      jumpi\n      0x00\n      dup1\n      revert\n    tag_29:\n      dup1\n      0x36568abe\n      gt\n      tag_32\n      jumpi\n      dup1\n      0x514fcac7\n      gt\n      tag_33\n      jumpi\n      dup1\n      0x514fcac7\n      eq\n      tag_12\n      jumpi\n      dup1\n      0x518e62db\n      eq\n      tag_13\n      jumpi\n      dup1\n      0x679fb287\n      eq\n      tag_14\n      jumpi\n      dup1\n      0x69fe0e2d\n      eq\n      tag_15\n      jumpi\n      0x00\n      dup1\n      revert\n    tag_33:\n      dup1\n      0x36568abe\n      eq\n      tag_9\n      jumpi\n      dup1\n      0x46904840\n      eq\n      tag_10\n      jumpi\n      dup1\n      0x4d910929\n      eq\n      tag_11\n      jumpi\n      0x00\n      dup1\n      revert\n    tag_32:\n      dup1\n      0x01ffc9a7\n      eq\n      tag_3\n      jumpi\n      dup1\n      0x0ca41aac\n      eq\n      tag_4\n      jumpi\n      dup1\n      0x248a9ca3\n      eq\n      tag_5\n      jumpi\n      dup1\n      0x2f2ff15d\n      eq\n      tag_6\n      jumpi\n      dup1\n      0x2ffdaf89\n      eq\n      tag_7\n      jumpi\n      dup1\n      0x3070e98d\n      eq\n      tag_8\n      jumpi\n    tag_2:\n      0x00\n      dup1\n      revert\n        /* \"@openzeppelin/contracts/access/AccessControl.sol\":2541:2743  function supportsInterface(bytes4 interfaceId) public view virtual override returns (bool) {... */\n    tag_3:\n      tag_34\n      tag_35\n      calldatasize\n      0x04\n      tag_36\n      jump\t// in\n    tag_35:\n      tag_37\n      jump\t// in\n    tag_34:\n      mload(0x40)\n        /* \"#utility.yul\":470:484   */\n      swap1\n      iszero\n        /* \"#utility.yul\":463:485   */\n      iszero\n        /* \"#utility.yul\":445:486   */\n      dup2\n      mstore\n        /* \"#utility.yul\":433:435   */\n      0x20\n        /* \"#utility.yul\":418:436   */\n      add\n        /* \"@openzeppelin/contracts/access/AccessControl.sol\":2541:2743  function supportsInterface(bytes4 interfaceId) public view virtual override returns (bool) {... */\n    tag_38:\n      mload(0x40)\n      dup1\n      swap2\n      sub\n      swap1\n      return\n        /* \"LibertyFinancialChain/LiberttFinancial/exchange.sol\":7058:8515  function matchOrder(uint256 orderId, uint256 fillAmount) external nonReentrant {... */\n    tag_4:\n      tag_40\n      tag_41\n      calldatasize\n      0x04\n      tag_42\n      jump\t// in\n    tag_41:\n      tag_43\n      jump\t// in\n    tag_40:\n      stop\n        /* \"@openzeppelin/contracts/access/AccessControl.sol\":3786:3906  function getRoleAdmin(bytes32 role) public view virtual returns (bytes32) {... */\n    tag_5:\n      tag_44\n      tag_45\n      calldatasize\n      0x04\n      tag_46\n      jump\t// in\n    tag_45:\n        /* \"@openzeppelin/contracts/access/AccessControl.sol\":3851:3858  bytes32 */\n      0x00\n        /* \"@openzeppelin/contracts/access/AccessControl.sol\":3877:3889  _roles[role] */\n      swap1\n      dup2\n      mstore\n      0x20\n      dup2\n      swap1\n      mstore\n      0x40\n      swap1\n      keccak256\n        /* \"@openzeppelin/contracts/access/AccessControl.sol\":3877:3899  _roles[role].adminRole */\n      0x01\n      add\n      sload\n      swap1\n        /* \"@openzeppelin/contracts/access/AccessControl.sol\":3786:3906  function getRoleAdmin(bytes32 role) public view virtual returns (bytes32) {... */\n      jump\n    tag_44:\n      mload(0x40)\n        /* \"#utility.yul\":1081:1106   */\n      swap1\n      dup2\n      mstore\n        /* \"#utility.yul\":1069:1071   */\n      0x20\n        /* \"#utility.yul\":1054:1072   */\n      add\n        /* \"@openzeppelin/contracts/access/AccessControl.sol\":3786:3906  function getRoleAdmin(bytes32 role) public view virtual returns (bytes32) {... */\n      tag_38\n        /* \"#utility.yul\":935:1112   */\n      jump\n        /* \"@openzeppelin/contracts/access/AccessControl.sol\":4202:4338  function grantRole(bytes32 role, address account) public virtual onlyRole(getRoleAdmin(role)) {... */\n    tag_6:\n      tag_40\n      tag_51\n      calldatasize\n      0x04\n      tag_52\n      jump\t// in\n    tag_51:\n      tag_53\n      jump\t// in\n        /* \"LibertyFinancialChain/LiberttFinancial/exchange.sol\":523:553  uint256 public swapFeeBps = 50 */\n    tag_7:\n      tag_44\n      sload(0x02)\n      dup2\n      jump\n        /* \"LibertyFinancialChain/LiberttFinancial/exchange.sol\":784:850  mapping(address => mapping(address => uint256)) public globalRates */\n    tag_8:\n      tag_44\n      tag_59\n      calldatasize\n      0x04\n      tag_60\n      jump\t// in\n    tag_59:\n      0x05\n      0x20\n      swap1\n      dup2\n      mstore\n      0x00\n      swap3\n      dup4\n      mstore\n      0x40\n      dup1\n      dup5\n      keccak256\n      swap1\n      swap2\n      mstore\n      swap1\n      dup3\n      mstore\n      swap1\n      keccak256\n      sload\n      dup2\n      jump\n        /* \"@openzeppelin/contracts/access/AccessControl.sol\":5304:5549  function renounceRole(bytes32 role, address callerConfirmation) public virtual {... */\n    tag_9:\n      tag_40\n      tag_64\n      calldatasize\n      0x04\n      tag_52\n      jump\t// in\n    tag_64:\n      tag_65\n      jump\t// in\n        /* \"LibertyFinancialChain/LiberttFinancial/exchange.sol\":575:602  address public feeRecipient */\n    tag_10:\n      sload(0x03)\n      tag_66\n      swap1\n      sub(shl(0xa0, 0x01), 0x01)\n      and\n      dup2\n      jump\n    tag_66:\n      mload(0x40)\n      sub(shl(0xa0, 0x01), 0x01)\n        /* \"#utility.yul\":2165:2197   */\n      swap1\n      swap2\n      and\n        /* \"#utility.yul\":2147:2198   */\n      dup2\n      mstore\n        /* \"#utility.yul\":2135:2137   */\n      0x20\n        /* \"#utility.yul\":2120:2138   */\n      add\n        /* \"LibertyFinancialChain/LiberttFinancial/exchange.sol\":575:602  address public feeRecipient */\n      tag_38\n        /* \"#utility.yul\":2001:2204   */\n      jump\n        /* \"LibertyFinancialChain/LiberttFinancial/exchange.sol\":3241:3369  function grantSubAdmin(address account) external onlyRole(DEFAULT_ADMIN_ROLE) {... */\n    tag_11:\n      tag_40\n      tag_71\n      calldatasize\n      0x04\n      tag_72\n      jump\t// in\n    tag_71:\n      tag_73\n      jump\t// in\n        /* \"LibertyFinancialChain/LiberttFinancial/exchange.sol\":6483:7024  function cancelOrder(uint256 orderId) external nonReentrant {... */\n    tag_12:\n      tag_40\n      tag_75\n      calldatasize\n      0x04\n      tag_46\n      jump\t// in\n    tag_75:\n      tag_77\n      jump\t// in\n        /* \"LibertyFinancialChain/LiberttFinancial/exchange.sol\":5469:6430  function createOrder(... */\n    tag_13:\n      tag_40\n      tag_79\n      calldatasize\n      0x04\n      tag_80\n      jump\t// in\n    tag_79:\n      tag_81\n      jump\t// in\n        /* \"LibertyFinancialChain/LiberttFinancial/exchange.sol\":4003:4196  function normalize(address token, uint256 amount) public view returns (uint256) {... */\n    tag_14:\n      tag_44\n      tag_83\n      calldatasize\n      0x04\n      tag_84\n      jump\t// in\n    tag_83:\n      tag_85\n      jump\t// in\n        /* \"LibertyFinancialChain/LiberttFinancial/exchange.sol\":2796:3003  function setFee(uint256 newFeeBps) external onlyAdminOrSub {... */\n    tag_15:\n      tag_40\n      tag_88\n      calldatasize\n      0x04\n      tag_46\n      jump\t// in\n    tag_88:\n      tag_89\n      jump\t// in\n        /* \"LibertyFinancialChain/LiberttFinancial/exchange.sol\":3424:3657  function emergencyWithdraw(address token) external onlyAdminOrSub {... */\n    tag_16:\n      tag_40\n      tag_91\n      calldatasize\n      0x04\n      tag_72\n      jump\t// in\n    tag_91:\n      tag_92\n      jump\t// in\n        /* \"LibertyFinancialChain/LiberttFinancial/exchange.sol\":2274:2451  function setAllowedToken(address token, bool allowed) external onlyAdminOrSub {... */\n    tag_17:\n      tag_40\n      tag_94\n      calldatasize\n      0x04\n      tag_95\n      jump\t// in\n    tag_94:\n      tag_96\n      jump\t// in\n        /* \"@openzeppelin/contracts/access/AccessControl.sol\":2830:2966  function hasRole(bytes32 role, address account) public view virtual returns (bool) {... */\n    tag_18:\n      tag_34\n      tag_98\n      calldatasize\n      0x04\n      tag_52\n      jump\t// in\n    tag_98:\n      tag_99\n      jump\t// in\n        /* \"@openzeppelin/contracts/access/AccessControl.sol\":2196:2245  bytes32 public constant DEFAULT_ADMIN_ROLE = 0x00 */\n    tag_19:\n      tag_44\n        /* \"@openzeppelin/contracts/access/AccessControl.sol\":2241:2245  0x00 */\n      0x00\n        /* \"@openzeppelin/contracts/access/AccessControl.sol\":2196:2245  bytes32 public constant DEFAULT_ADMIN_ROLE = 0x00 */\n      dup2\n      jump\n        /* \"LibertyFinancialChain/LiberttFinancial/exchange.sol\":1155:1176  Order[] public orders */\n    tag_20:\n      tag_104\n      tag_105\n      calldatasize\n      0x04\n      tag_46\n      jump\t// in\n    tag_105:\n      tag_106\n      jump\t// in\n    tag_104:\n      0x40\n      dup1\n      mload\n      sub(shl(0xa0, 0x01), 0x01)\n        /* \"#utility.yul\":4151:4166   */\n      swap10\n      dup11\n      and\n        /* \"#utility.yul\":4133:4167   */\n      dup2\n      mstore\n        /* \"#utility.yul\":4203:4218   */\n      swap8\n      dup10\n      and\n        /* \"#utility.yul\":4198:4200   */\n      0x20\n        /* \"#utility.yul\":4183:4201   */\n      dup10\n      add\n        /* \"#utility.yul\":4176:4219   */\n      mstore\n        /* \"#utility.yul\":4255:4270   */\n      swap6\n      swap1\n      swap8\n      and\n        /* \"#utility.yul\":4235:4253   */\n      swap5\n      dup7\n      add\n        /* \"#utility.yul\":4228:4271   */\n      swap5\n      swap1\n      swap5\n      mstore\n        /* \"#utility.yul\":4302:4304   */\n      0x60\n        /* \"#utility.yul\":4287:4305   */\n      dup6\n      add\n        /* \"#utility.yul\":4280:4314   */\n      swap3\n      swap1\n      swap3\n      mstore\n        /* \"#utility.yul\":4345:4348   */\n      0x80\n        /* \"#utility.yul\":4330:4349   */\n      dup5\n      add\n        /* \"#utility.yul\":4323:4358   */\n      mstore\n        /* \"#utility.yul\":4113:4116   */\n      0xa0\n        /* \"#utility.yul\":4374:4393   */\n      dup4\n      add\n        /* \"#utility.yul\":4367:4402   */\n      mstore\n        /* \"#utility.yul\":4433:4436   */\n      0xc0\n        /* \"#utility.yul\":4418:4437   */\n      dup3\n      add\n        /* \"#utility.yul\":4411:4446   */\n      mstore\n        /* \"#utility.yul\":4490:4504   */\n      swap1\n      iszero\n        /* \"#utility.yul\":4483:4505   */\n      iszero\n        /* \"#utility.yul\":4477:4480   */\n      0xe0\n        /* \"#utility.yul\":4462:4481   */\n      dup3\n      add\n        /* \"#utility.yul\":4455:4506   */\n      mstore\n        /* \"#utility.yul\":4082:4085   */\n      0x0100\n        /* \"#utility.yul\":4067:4086   */\n      add\n        /* \"LibertyFinancialChain/LiberttFinancial/exchange.sol\":1155:1176  Order[] public orders */\n      tag_38\n        /* \"#utility.yul\":3758:4512   */\n      jump\n        /* \"LibertyFinancialChain/LiberttFinancial/exchange.sol\":4202:4413  function denormalize(address token, uint256 nAmount) public view returns (uint256) {... */\n    tag_21:\n      tag_44\n      tag_110\n      calldatasize\n      0x04\n      tag_84\n      jump\t// in\n    tag_110:\n      tag_111\n      jump\t// in\n        /* \"LibertyFinancialChain/LiberttFinancial/exchange.sol\":404:470  bytes32 public constant SUBADMIN_ROLE = keccak256(\"SUBADMIN_ROLE\") */\n    tag_22:\n      tag_44\n      0x00\n      dup1\n      mload\n      0x20\n      data_c3f76b99666f6818ff0e702cf1728f8564932dfce2026f5d7d90bf00e9ab2863\n      dup4\n      codecopy\n      dup2\n      mload\n      swap2\n      mstore\n      dup2\n      jump\n        /* \"LibertyFinancialChain/LiberttFinancial/exchange.sol\":4480:5395  function swapGlobal(address tokenIn, address tokenOut, uint256 amountIn) external nonReentrant {... */\n    tag_23:\n      tag_40\n      tag_117\n      calldatasize\n      0x04\n      tag_118\n      jump\t// in\n    tag_117:\n      tag_119\n      jump\t// in\n        /* \"LibertyFinancialChain/LiberttFinancial/exchange.sol\":3877:3997  function getDecimals(address token) public view returns (uint8) {... */\n    tag_24:\n      tag_120\n      tag_121\n      calldatasize\n      0x04\n      tag_72\n      jump\t// in\n    tag_121:\n      tag_122\n      jump\t// in\n    tag_120:\n      mload(0x40)\n        /* \"#utility.yul\":5022:5026   */\n      0xff\n        /* \"#utility.yul\":5010:5027   */\n      swap1\n      swap2\n      and\n        /* \"#utility.yul\":4992:5028   */\n      dup2\n      mstore\n        /* \"#utility.yul\":4980:4982   */\n      0x20\n        /* \"#utility.yul\":4965:4983   */\n      add\n        /* \"LibertyFinancialChain/LiberttFinancial/exchange.sol\":3877:3997  function getDecimals(address token) public view returns (uint8) {... */\n      tag_38\n        /* \"#utility.yul\":4850:5034   */\n      jump\n        /* \"LibertyFinancialChain/LiberttFinancial/exchange.sol\":2457:2790  function setGlobalRate(address tokenIn, address tokenOut, uint256 rate) external onlyAdminOrSub {... */\n    tag_25:\n      tag_40\n      tag_126\n      calldatasize\n      0x04\n      tag_118\n      jump\t// in\n    tag_126:\n      tag_127\n      jump\t// in\n        /* \"@openzeppelin/contracts/access/AccessControl.sol\":4618:4756  function revokeRole(bytes32 role, address account) public virtual onlyRole(getRoleAdmin(role)) {... */\n    tag_26:\n      tag_40\n      tag_129\n      calldatasize\n      0x04\n      tag_52\n      jump\t// in\n    tag_129:\n      tag_130\n      jump\t// in\n        /* \"LibertyFinancialChain/LiberttFinancial/exchange.sol\":657:702  mapping(address => bool) public allowedTokens */\n    tag_27:\n      tag_34\n      tag_132\n      calldatasize\n      0x04\n      tag_72\n      jump\t// in\n    tag_132:\n      mstore(0x20, 0x04)\n      0x00\n      swap1\n      dup2\n      mstore\n      0x40\n      swap1\n      keccak256\n      sload\n      0xff\n      and\n      dup2\n      jump\n        /* \"LibertyFinancialChain/LiberttFinancial/exchange.sol\":3009:3235  function setFeeRecipient(address recipient) external onlyAdminOrSub {... */\n    tag_28:\n      tag_40\n      tag_136\n      calldatasize\n      0x04\n      tag_72\n      jump\t// in\n    tag_136:\n      tag_137\n      jump\t// in\n        /* \"@openzeppelin/contracts/access/AccessControl.sol\":2541:2743  function supportsInterface(bytes4 interfaceId) public view virtual override returns (bool) {... */\n    tag_37:\n        /* \"@openzeppelin/contracts/access/AccessControl.sol\":2626:2630  bool */\n      0x00\n      not(sub(shl(0xe0, 0x01), 0x01))\n        /* \"@openzeppelin/contracts/access/AccessControl.sol\":2649:2696  interfaceId == type(IAccessControl).interfaceId */\n      dup3\n      and\n      shl(0xe0, 0x7965db0b)\n      eq\n      dup1\n        /* \"@openzeppelin/contracts/access/AccessControl.sol\":2649:2736  interfaceId == type(IAccessControl).interfaceId || super.supportsInterface(interfaceId) */\n      tag_140\n      jumpi\n      pop\n      shl(0xe0, 0x01ffc9a7)\n      not(sub(shl(0xe0, 0x01), 0x01))\n        /* \"@openzeppelin/contracts/utils/introspection/ERC165.sol\":829:869  interfaceId == type(IERC165).interfaceId */\n      dup4\n      and\n      eq\n        /* \"@openzeppelin/contracts/access/AccessControl.sol\":2700:2736  super.supportsInterface(interfaceId) */\n    tag_140:\n        /* \"@openzeppelin/contracts/access/AccessControl.sol\":2642:2736  return interfaceId == type(IAccessControl).interfaceId || super.supportsInterface(interfaceId) */\n      swap3\n        /* \"@openzeppelin/contracts/access/AccessControl.sol\":2541:2743  function supportsInterface(bytes4 interfaceId) public view virtual override returns (bool) {... */\n      swap2\n      pop\n      pop\n      jump\t// out\n        /* \"LibertyFinancialChain/LiberttFinancial/exchange.sol\":7058:8515  function matchOrder(uint256 orderId, uint256 fillAmount) external nonReentrant {... */\n    tag_43:\n        /* \"@openzeppelin/contracts/security/ReentrancyGuard.sol\":2261:2282  _nonReentrantBefore() */\n      tag_143\n        /* \"@openzeppelin/contracts/security/ReentrancyGuard.sol\":2261:2280  _nonReentrantBefore */\n      tag_144\n        /* \"@openzeppelin/contracts/security/ReentrancyGuard.sol\":2261:2282  _nonReentrantBefore() */\n      jump\t// in\n    tag_143:\n        /* \"LibertyFinancialChain/LiberttFinancial/exchange.sol\":7165:7171  orders */\n      0x06\n        /* \"LibertyFinancialChain/LiberttFinancial/exchange.sol\":7165:7178  orders.length */\n      sload\n        /* \"LibertyFinancialChain/LiberttFinancial/exchange.sol\":7155:7178  orderId < orders.length */\n      dup3\n      lt\n        /* \"LibertyFinancialChain/LiberttFinancial/exchange.sol\":7147:7190  require(orderId < orders.length, \"Invalid\") */\n      tag_146\n      jumpi\n      mload(0x40)\n      shl(0xe5, 0x461bcd)\n      dup2\n      mstore\n        /* \"#utility.yul\":5241:5243   */\n      0x20\n        /* \"LibertyFinancialChain/LiberttFinancial/exchange.sol\":7147:7190  require(orderId < orders.length, \"Invalid\") */\n      0x04\n      dup3\n      add\n        /* \"#utility.yul\":5223:5244   */\n      mstore\n        /* \"#utility.yul\":5280:5281   */\n      0x07\n        /* \"#utility.yul\":5260:5278   */\n      0x24\n      dup3\n      add\n        /* \"#utility.yul\":5253:5282   */\n      mstore\n      shl(0xca, 0x125b9d985b1a59)\n        /* \"#utility.yul\":5298:5316   */\n      0x44\n      dup3\n      add\n        /* \"#utility.yul\":5291:5328   */\n      mstore\n        /* \"#utility.yul\":5345:5363   */\n      0x64\n      add\n        /* \"LibertyFinancialChain/LiberttFinancial/exchange.sol\":7147:7190  require(orderId < orders.length, \"Invalid\") */\n    tag_147:\n      mload(0x40)\n      dup1\n      swap2\n      sub\n      swap1\n      revert\n    tag_146:\n        /* \"LibertyFinancialChain/LiberttFinancial/exchange.sol\":7200:7217  Order storage ord */\n      0x00\n        /* \"LibertyFinancialChain/LiberttFinancial/exchange.sol\":7220:7226  orders */\n      0x06\n        /* \"LibertyFinancialChain/LiberttFinancial/exchange.sol\":7227:7234  orderId */\n      dup4\n        /* \"LibertyFinancialChain/LiberttFinancial/exchange.sol\":7220:7235  orders[orderId] */\n      dup2\n      sload\n      dup2\n      lt\n      tag_150\n      jumpi\n      tag_150\n      tag_151\n      jump\t// in\n    tag_150:\n      0x00\n      swap2\n      dup3\n      mstore\n      0x20\n      swap1\n      swap2\n      keccak256\n      0x08\n      swap1\n      swap2\n      mul\n      add\n        /* \"LibertyFinancialChain/LiberttFinancial/exchange.sol\":7253:7263  ord.active */\n      0x07\n      dup2\n      add\n      sload\n        /* \"LibertyFinancialChain/LiberttFinancial/exchange.sol\":7220:7235  orders[orderId] */\n      swap1\n      swap2\n      pop\n        /* \"LibertyFinancialChain/LiberttFinancial/exchange.sol\":7253:7263  ord.active */\n      0xff\n      and\n        /* \"LibertyFinancialChain/LiberttFinancial/exchange.sol\":7245:7276  require(ord.active, \"Inactive\") */\n      tag_153\n      jumpi\n      mload(0x40)\n      shl(0xe5, 0x461bcd)\n      dup2\n      mstore\n        /* \"#utility.yul\":5708:5710   */\n      0x20\n        /* \"LibertyFinancialChain/LiberttFinancial/exchange.sol\":7245:7276  require(ord.active, \"Inactive\") */\n      0x04\n      dup3\n      add\n        /* \"#utility.yul\":5690:5711   */\n      mstore\n        /* \"#utility.yul\":5747:5748   */\n      0x08\n        /* \"#utility.yul\":5727:5745   */\n      0x24\n      dup3\n      add\n        /* \"#utility.yul\":5720:5749   */\n      mstore\n      shl(0xc0, 0x496e616374697665)\n        /* \"#utility.yul\":5765:5783   */\n      0x44\n      dup3\n      add\n        /* \"#utility.yul\":5758:5796   */\n      mstore\n        /* \"#utility.yul\":5813:5831   */\n      0x64\n      add\n        /* \"LibertyFinancialChain/LiberttFinancial/exchange.sol\":7245:7276  require(ord.active, \"Inactive\") */\n      tag_147\n        /* \"#utility.yul\":5506:5837   */\n      jump\n        /* \"LibertyFinancialChain/LiberttFinancial/exchange.sol\":7245:7276  require(ord.active, \"Inactive\") */\n    tag_153:\n        /* \"LibertyFinancialChain/LiberttFinancial/exchange.sol\":7308:7319  ord.tokenIn */\n      0x01\n      dup2\n      add\n      sload\n      sub(shl(0xa0, 0x01), 0x01)\n      and\n        /* \"LibertyFinancialChain/LiberttFinancial/exchange.sol\":7294:7320  allowedTokens[ord.tokenIn] */\n      0x00\n      swap1\n      dup2\n      mstore\n        /* \"LibertyFinancialChain/LiberttFinancial/exchange.sol\":7294:7307  allowedTokens */\n      0x04\n        /* \"LibertyFinancialChain/LiberttFinancial/exchange.sol\":7294:7320  allowedTokens[ord.tokenIn] */\n      0x20\n      mstore\n      0x40\n      swap1\n      keccak256\n      sload\n      0xff\n      and\n        /* \"LibertyFinancialChain/LiberttFinancial/exchange.sol\":7294:7351  allowedTokens[ord.tokenIn] && allowedTokens[ord.tokenOut] */\n      dup1\n      iszero\n      tag_156\n      jumpi\n      pop\n        /* \"LibertyFinancialChain/LiberttFinancial/exchange.sol\":7338:7350  ord.tokenOut */\n      0x02\n      dup2\n      add\n      sload\n      sub(shl(0xa0, 0x01), 0x01)\n      and\n        /* \"LibertyFinancialChain/LiberttFinancial/exchange.sol\":7324:7351  allowedTokens[ord.tokenOut] */\n      0x00\n      swap1\n      dup2\n      mstore\n        /* \"LibertyFinancialChain/LiberttFinancial/exchange.sol\":7324:7337  allowedTokens */\n      0x04\n        /* \"LibertyFinancialChain/LiberttFinancial/exchange.sol\":7324:7351  allowedTokens[ord.tokenOut] */\n      0x20\n      mstore\n      0x40\n      swap1\n      keccak256\n      sload\n      0xff\n      and\n        /* \"LibertyFinancialChain/LiberttFinancial/exchange.sol\":7294:7351  allowedTokens[ord.tokenIn] && allowedTokens[ord.tokenOut] */\n    tag_156:\n        /* \"LibertyFinancialChain/LiberttFinancial/exchange.sol\":7286:7374  require(allowedTokens[ord.tokenIn] && allowedTokens[ord.tokenOut], \"Tokens not allowed\") */\n      tag_157\n      jumpi\n      mload(0x40)\n      shl(0xe5, 0x461bcd)\n      dup2\n      mstore\n      0x04\n      add\n      tag_147\n      swap1\n      tag_159\n      jump\t// in\n    tag_157:\n        /* \"LibertyFinancialChain/LiberttFinancial/exchange.sol\":7410:7413  ord */\n      dup1\n        /* \"LibertyFinancialChain/LiberttFinancial/exchange.sol\":7410:7423  ord.expiresAt */\n      0x06\n      add\n      sload\n        /* \"LibertyFinancialChain/LiberttFinancial/exchange.sol\":7392:7407  block.timestamp */\n      timestamp\n        /* \"LibertyFinancialChain/LiberttFinancial/exchange.sol\":7392:7423  block.timestamp < ord.expiresAt */\n      lt\n        /* \"LibertyFinancialChain/LiberttFinancial/exchange.sol\":7384:7435  require(block.timestamp < ord.expiresAt, \"Expired\") */\n      tag_160\n      jumpi\n      mload(0x40)\n      shl(0xe5, 0x461bcd)\n      dup2\n      mstore\n        /* \"#utility.yul\":6391:6393   */\n      0x20\n        /* \"LibertyFinancialChain/LiberttFinancial/exchange.sol\":7384:7435  require(block.timestamp < ord.expiresAt, \"Expired\") */\n      0x04\n      dup3\n      add\n        /* \"#utility.yul\":6373:6394   */\n      mstore\n        /* \"#utility.yul\":6430:6431   */\n      0x07\n        /* \"#utility.yul\":6410:6428   */\n      0x24\n      dup3\n      add\n        /* \"#utility.yul\":6403:6432   */\n      mstore\n      shl(0xca, 0x115e1c1a5c9959)\n        /* \"#utility.yul\":6448:6466   */\n      0x44\n      dup3\n      add\n        /* \"#utility.yul\":6441:6478   */\n      mstore\n        /* \"#utility.yul\":6495:6513   */\n      0x64\n      add\n        /* \"LibertyFinancialChain/LiberttFinancial/exchange.sol\":7384:7435  require(block.timestamp < ord.expiresAt, \"Expired\") */\n      tag_147\n        /* \"#utility.yul\":6189:6519   */\n      jump\n        /* \"LibertyFinancialChain/LiberttFinancial/exchange.sol\":7384:7435  require(block.timestamp < ord.expiresAt, \"Expired\") */\n    tag_160:\n        /* \"LibertyFinancialChain/LiberttFinancial/exchange.sol\":7466:7467  0 */\n      0x00\n        /* \"LibertyFinancialChain/LiberttFinancial/exchange.sol\":7453:7463  fillAmount */\n      dup3\n        /* \"LibertyFinancialChain/LiberttFinancial/exchange.sol\":7453:7467  fillAmount > 0 */\n      gt\n        /* \"LibertyFinancialChain/LiberttFinancial/exchange.sol\":7453:7504  fillAmount > 0 && fillAmount <= ord.amountRemaining */\n      dup1\n      iszero\n      tag_163\n      jumpi\n      pop\n        /* \"LibertyFinancialChain/LiberttFinancial/exchange.sol\":7485:7488  ord */\n      dup1\n        /* \"LibertyFinancialChain/LiberttFinancial/exchange.sol\":7485:7504  ord.amountRemaining */\n      0x04\n      add\n      sload\n        /* \"LibertyFinancialChain/LiberttFinancial/exchange.sol\":7471:7481  fillAmount */\n      dup3\n        /* \"LibertyFinancialChain/LiberttFinancial/exchange.sol\":7471:7504  fillAmount <= ord.amountRemaining */\n      gt\n      iszero\n        /* \"LibertyFinancialChain/LiberttFinancial/exchange.sol\":7453:7504  fillAmount > 0 && fillAmount <= ord.amountRemaining */\n    tag_163:\n        /* \"LibertyFinancialChain/LiberttFinancial/exchange.sol\":7445:7521  require(fillAmount > 0 && fillAmount <= ord.amountRemaining, \"Invalid fill\") */\n      tag_164\n      jumpi\n      mload(0x40)\n      shl(0xe5, 0x461bcd)\n      dup2\n      mstore\n        /* \"#utility.yul\":6726:6728   */\n      0x20\n        /* \"LibertyFinancialChain/LiberttFinancial/exchange.sol\":7445:7521  require(fillAmount > 0 && fillAmount <= ord.amountRemaining, \"Invalid fill\") */\n      0x04\n      dup3\n      add\n        /* \"#utility.yul\":6708:6729   */\n      mstore\n        /* \"#utility.yul\":6765:6767   */\n      0x0c\n        /* \"#utility.yul\":6745:6763   */\n      0x24\n      dup3\n      add\n        /* \"#utility.yul\":6738:6768   */\n      mstore\n      shl(0xa2, 0x125b9d985b1a5908199a5b1b)\n        /* \"#utility.yul\":6784:6802   */\n      0x44\n      dup3\n      add\n        /* \"#utility.yul\":6777:6819   */\n      mstore\n        /* \"#utility.yul\":6836:6854   */\n      0x64\n      add\n        /* \"LibertyFinancialChain/LiberttFinancial/exchange.sol\":7445:7521  require(fillAmount > 0 && fillAmount <= ord.amountRemaining, \"Invalid fill\") */\n      tag_147\n        /* \"#utility.yul\":6524:6860   */\n      jump\n        /* \"LibertyFinancialChain/LiberttFinancial/exchange.sol\":7445:7521  require(fillAmount > 0 && fillAmount <= ord.amountRemaining, \"Invalid fill\") */\n    tag_164:\n        /* \"LibertyFinancialChain/LiberttFinancial/exchange.sol\":7626:7637  ord.tokenIn */\n      0x01\n      dup2\n      add\n      sload\n        /* \"LibertyFinancialChain/LiberttFinancial/exchange.sol\":7594:7613  uint256 nFillAmount */\n      0x00\n      swap1\n        /* \"LibertyFinancialChain/LiberttFinancial/exchange.sol\":7616:7650  normalize(ord.tokenIn, fillAmount) */\n      tag_167\n      swap1\n      sub(shl(0xa0, 0x01), 0x01)\n        /* \"LibertyFinancialChain/LiberttFinancial/exchange.sol\":7626:7637  ord.tokenIn */\n      and\n        /* \"LibertyFinancialChain/LiberttFinancial/exchange.sol\":7639:7649  fillAmount */\n      dup5\n        /* \"LibertyFinancialChain/LiberttFinancial/exchange.sol\":7616:7625  normalize */\n      tag_85\n        /* \"LibertyFinancialChain/LiberttFinancial/exchange.sol\":7616:7650  normalize(ord.tokenIn, fillAmount) */\n      jump\t// in\n    tag_167:\n        /* \"LibertyFinancialChain/LiberttFinancial/exchange.sol\":7594:7650  uint256 nFillAmount = normalize(ord.tokenIn, fillAmount) */\n      swap1\n      pop\n        /* \"LibertyFinancialChain/LiberttFinancial/exchange.sol\":7660:7677  uint256 nTokenOut */\n      0x00\n        /* \"LibertyFinancialChain/LiberttFinancial/exchange.sol\":7705:7709  1e18 */\n      0x0de0b6b3a7640000\n        /* \"LibertyFinancialChain/LiberttFinancial/exchange.sol\":7694:7697  ord */\n      dup4\n        /* \"LibertyFinancialChain/LiberttFinancial/exchange.sol\":7694:7702  ord.rate */\n      0x05\n      add\n      sload\n        /* \"LibertyFinancialChain/LiberttFinancial/exchange.sol\":7680:7691  nFillAmount */\n      dup4\n        /* \"LibertyFinancialChain/LiberttFinancial/exchange.sol\":7680:7702  nFillAmount * ord.rate */\n      tag_168\n      swap2\n      swap1\n      tag_169\n      jump\t// in\n    tag_168:\n        /* \"LibertyFinancialChain/LiberttFinancial/exchange.sol\":7680:7709  nFillAmount * ord.rate / 1e18 */\n      tag_170\n      swap2\n      swap1\n      tag_171\n      jump\t// in\n    tag_170:\n        /* \"LibertyFinancialChain/LiberttFinancial/exchange.sol\":7756:7768  ord.tokenOut */\n      0x02\n      dup5\n      add\n      sload\n        /* \"LibertyFinancialChain/LiberttFinancial/exchange.sol\":7660:7709  uint256 nTokenOut = nFillAmount * ord.rate / 1e18 */\n      swap1\n      swap2\n      pop\n        /* \"LibertyFinancialChain/LiberttFinancial/exchange.sol\":7719:7741  uint256 tokenOutAmount */\n      0x00\n      swap1\n        /* \"LibertyFinancialChain/LiberttFinancial/exchange.sol\":7744:7780  denormalize(ord.tokenOut, nTokenOut) */\n      tag_172\n      swap1\n      sub(shl(0xa0, 0x01), 0x01)\n        /* \"LibertyFinancialChain/LiberttFinancial/exchange.sol\":7756:7768  ord.tokenOut */\n      and\n        /* \"LibertyFinancialChain/LiberttFinancial/exchange.sol\":7660:7709  uint256 nTokenOut = nFillAmount * ord.rate / 1e18 */\n      dup4\n        /* \"LibertyFinancialChain/LiberttFinancial/exchange.sol\":7744:7755  denormalize */\n      tag_111\n        /* \"LibertyFinancialChain/LiberttFinancial/exchange.sol\":7744:7780  denormalize(ord.tokenOut, nTokenOut) */\n      jump\t// in\n    tag_172:\n        /* \"LibertyFinancialChain/LiberttFinancial/exchange.sol\":7719:7780  uint256 tokenOutAmount = denormalize(ord.tokenOut, nTokenOut) */\n      swap1\n      pop\n        /* \"LibertyFinancialChain/LiberttFinancial/exchange.sol\":7791:7802  uint256 fee */\n      0x00\n        /* \"LibertyFinancialChain/LiberttFinancial/exchange.sol\":7835:7840  10000 */\n      0x2710\n        /* \"LibertyFinancialChain/LiberttFinancial/exchange.sol\":7822:7832  swapFeeBps */\n      sload(0x02)\n        /* \"LibertyFinancialChain/LiberttFinancial/exchange.sol\":7805:7819  tokenOutAmount */\n      dup4\n        /* \"LibertyFinancialChain/LiberttFinancial/exchange.sol\":7805:7832  tokenOutAmount * swapFeeBps */\n      tag_173\n      swap2\n      swap1\n      tag_169\n      jump\t// in\n    tag_173:\n        /* \"LibertyFinancialChain/LiberttFinancial/exchange.sol\":7805:7840  tokenOutAmount * swapFeeBps / 10000 */\n      tag_174\n      swap2\n      swap1\n      tag_171\n      jump\t// in\n    tag_174:\n        /* \"LibertyFinancialChain/LiberttFinancial/exchange.sol\":7791:7840  uint256 fee = tokenOutAmount * swapFeeBps / 10000 */\n      swap1\n      pop\n        /* \"LibertyFinancialChain/LiberttFinancial/exchange.sol\":7850:7867  uint256 takerGets */\n      0x00\n        /* \"LibertyFinancialChain/LiberttFinancial/exchange.sol\":7870:7890  tokenOutAmount - fee */\n      tag_175\n        /* \"LibertyFinancialChain/LiberttFinancial/exchange.sol\":7791:7840  uint256 fee = tokenOutAmount * swapFeeBps / 10000 */\n      dup3\n        /* \"LibertyFinancialChain/LiberttFinancial/exchange.sol\":7870:7884  tokenOutAmount */\n      dup5\n        /* \"LibertyFinancialChain/LiberttFinancial/exchange.sol\":7870:7890  tokenOutAmount - fee */\n      tag_176\n      jump\t// in\n    tag_175:\n        /* \"LibertyFinancialChain/LiberttFinancial/exchange.sol\":7850:7890  uint256 takerGets = tokenOutAmount - fee */\n      swap1\n      pop\n        /* \"LibertyFinancialChain/LiberttFinancial/exchange.sol\":7920:7921  0 */\n      0x00\n        /* \"LibertyFinancialChain/LiberttFinancial/exchange.sol\":7908:7917  takerGets */\n      dup2\n        /* \"LibertyFinancialChain/LiberttFinancial/exchange.sol\":7908:7921  takerGets > 0 */\n      gt\n        /* \"LibertyFinancialChain/LiberttFinancial/exchange.sol\":7900:7935  require(takerGets > 0, \"Too small\") */\n      tag_177\n      jumpi\n      mload(0x40)\n      shl(0xe5, 0x461bcd)\n      dup2\n      mstore\n        /* \"#utility.yul\":7727:7729   */\n      0x20\n        /* \"LibertyFinancialChain/LiberttFinancial/exchange.sol\":7900:7935  require(takerGets > 0, \"Too small\") */\n      0x04\n      dup3\n      add\n        /* \"#utility.yul\":7709:7730   */\n      mstore\n        /* \"#utility.yul\":7766:7767   */\n      0x09\n        /* \"#utility.yul\":7746:7764   */\n      0x24\n      dup3\n      add\n        /* \"#utility.yul\":7739:7768   */\n      mstore\n      shl(0xba, 0x151bdbc81cdb585b1b)\n        /* \"#utility.yul\":7784:7802   */\n      0x44\n      dup3\n      add\n        /* \"#utility.yul\":7777:7816   */\n      mstore\n        /* \"#utility.yul\":7833:7851   */\n      0x64\n      add\n        /* \"LibertyFinancialChain/LiberttFinancial/exchange.sol\":7900:7935  require(takerGets > 0, \"Too small\") */\n      tag_147\n        /* \"#utility.yul\":7525:7857   */\n      jump\n        /* \"LibertyFinancialChain/LiberttFinancial/exchange.sol\":7900:7935  require(takerGets > 0, \"Too small\") */\n    tag_177:\n        /* \"LibertyFinancialChain/LiberttFinancial/exchange.sol\":8003:8015  ord.tokenOut */\n      0x02\n      dup7\n      add\n      sload\n        /* \"LibertyFinancialChain/LiberttFinancial/exchange.sol\":7996:8072  IERC20(ord.tokenOut).transferFrom(msg.sender, address(this), tokenOutAmount) */\n      mload(0x40)\n      shl(0xe0, 0x23b872dd)\n      dup2\n      mstore\n        /* \"LibertyFinancialChain/LiberttFinancial/exchange.sol\":8030:8040  msg.sender */\n      caller\n        /* \"LibertyFinancialChain/LiberttFinancial/exchange.sol\":7996:8072  IERC20(ord.tokenOut).transferFrom(msg.sender, address(this), tokenOutAmount) */\n      0x04\n      dup3\n      add\n        /* \"#utility.yul\":8102:8136   */\n      mstore\n        /* \"LibertyFinancialChain/LiberttFinancial/exchange.sol\":8050:8054  this */\n      address\n        /* \"#utility.yul\":8152:8170   */\n      0x24\n      dup3\n      add\n        /* \"#utility.yul\":8145:8188   */\n      mstore\n        /* \"#utility.yul\":8204:8222   */\n      0x44\n      dup2\n      add\n        /* \"#utility.yul\":8197:8231   */\n      dup6\n      swap1\n      mstore\n      sub(shl(0xa0, 0x01), 0x01)\n        /* \"LibertyFinancialChain/LiberttFinancial/exchange.sol\":8003:8015  ord.tokenOut */\n      swap1\n      swap2\n      and\n      swap1\n        /* \"LibertyFinancialChain/LiberttFinancial/exchange.sol\":7996:8029  IERC20(ord.tokenOut).transferFrom */\n      0x23b872dd\n      swap1\n        /* \"#utility.yul\":8037:8055   */\n      0x64\n      add\n        /* \"LibertyFinancialChain/LiberttFinancial/exchange.sol\":7996:8072  IERC20(ord.tokenOut).transferFrom(msg.sender, address(this), tokenOutAmount) */\n      0x20\n      mload(0x40)\n      dup1\n      dup4\n      sub\n      dup2\n      0x00\n      dup8\n      gas\n      call\n      iszero\n      dup1\n      iszero\n      tag_183\n      jumpi\n      returndatasize\n      0x00\n      dup1\n      returndatacopy\n      revert(0x00, returndatasize)\n    tag_183:\n      pop\n      pop\n      pop\n      pop\n      mload(0x40)\n      returndatasize\n      not(0x1f)\n      0x1f\n      dup3\n      add\n      and\n      dup3\n      add\n      dup1\n      0x40\n      mstore\n      pop\n      dup2\n      add\n      swap1\n      tag_184\n      swap2\n      swap1\n      tag_185\n      jump\t// in\n    tag_184:\n      pop\n        /* \"LibertyFinancialChain/LiberttFinancial/exchange.sol\":8089:8101  ord.tokenOut */\n      0x02\n      dup7\n      add\n      sload\n        /* \"LibertyFinancialChain/LiberttFinancial/exchange.sol\":8112:8121  ord.maker */\n      dup7\n      sload\n        /* \"LibertyFinancialChain/LiberttFinancial/exchange.sol\":8082:8133  IERC20(ord.tokenOut).transfer(ord.maker, takerGets) */\n      mload(0x40)\n      shl(0xe0, 0xa9059cbb)\n      dup2\n      mstore\n      sub(shl(0xa0, 0x01), 0x01)\n        /* \"LibertyFinancialChain/LiberttFinancial/exchange.sol\":8112:8121  ord.maker */\n      swap2\n      dup3\n      and\n        /* \"LibertyFinancialChain/LiberttFinancial/exchange.sol\":8082:8133  IERC20(ord.tokenOut).transfer(ord.maker, takerGets) */\n      0x04\n      dup3\n      add\n        /* \"#utility.yul\":8666:8717   */\n      mstore\n        /* \"#utility.yul\":8733:8751   */\n      0x24\n      dup2\n      add\n        /* \"#utility.yul\":8726:8760   */\n      dup5\n      swap1\n      mstore\n        /* \"LibertyFinancialChain/LiberttFinancial/exchange.sol\":8089:8101  ord.tokenOut */\n      swap2\n      and\n      swap1\n        /* \"LibertyFinancialChain/LiberttFinancial/exchange.sol\":8082:8111  IERC20(ord.tokenOut).transfer */\n      0xa9059cbb\n      swap1\n        /* \"#utility.yul\":8639:8657   */\n      0x44\n      add\n        /* \"LibertyFinancialChain/LiberttFinancial/exchange.sol\":8082:8133  IERC20(ord.tokenOut).transfer(ord.maker, takerGets) */\n      0x20\n      mload(0x40)\n      dup1\n      dup4\n      sub\n      dup2\n      0x00\n      dup8\n      gas\n      call\n      iszero\n      dup1\n      iszero\n      tag_189\n      jumpi\n      returndatasize\n      0x00\n      dup1\n      returndatacopy\n      revert(0x00, returndatasize)\n    tag_189:\n      pop\n      pop\n      pop\n      pop\n      mload(0x40)\n      returndatasize\n      not(0x1f)\n      0x1f\n      dup3\n      add\n      and\n      dup3\n      add\n      dup1\n      0x40\n      mstore\n      pop\n      dup2\n      add\n      swap1\n      tag_190\n      swap2\n      swap1\n      tag_185\n      jump\t// in\n    tag_190:\n      pop\n        /* \"LibertyFinancialChain/LiberttFinancial/exchange.sol\":8147:8154  fee > 0 */\n      dup2\n      iszero\n        /* \"LibertyFinancialChain/LiberttFinancial/exchange.sol\":8143:8204  if (fee > 0) IERC20(ord.tokenOut).transfer(feeRecipient, fee) */\n      tag_191\n      jumpi\n        /* \"LibertyFinancialChain/LiberttFinancial/exchange.sol\":8163:8175  ord.tokenOut */\n      0x02\n      dup7\n      add\n      sload\n        /* \"LibertyFinancialChain/LiberttFinancial/exchange.sol\":8186:8198  feeRecipient */\n      sload(0x03)\n        /* \"LibertyFinancialChain/LiberttFinancial/exchange.sol\":8156:8204  IERC20(ord.tokenOut).transfer(feeRecipient, fee) */\n      mload(0x40)\n      shl(0xe0, 0xa9059cbb)\n      dup2\n      mstore\n      sub(shl(0xa0, 0x01), 0x01)\n        /* \"LibertyFinancialChain/LiberttFinancial/exchange.sol\":8186:8198  feeRecipient */\n      swap2\n      dup3\n      and\n        /* \"LibertyFinancialChain/LiberttFinancial/exchange.sol\":8156:8204  IERC20(ord.tokenOut).transfer(feeRecipient, fee) */\n      0x04\n      dup3\n      add\n        /* \"#utility.yul\":8666:8717   */\n      mstore\n        /* \"#utility.yul\":8733:8751   */\n      0x24\n      dup2\n      add\n        /* \"#utility.yul\":8726:8760   */\n      dup6\n      swap1\n      mstore\n        /* \"LibertyFinancialChain/LiberttFinancial/exchange.sol\":8163:8175  ord.tokenOut */\n      swap2\n      and\n      swap1\n        /* \"LibertyFinancialChain/LiberttFinancial/exchange.sol\":8156:8185  IERC20(ord.tokenOut).transfer */\n      0xa9059cbb\n      swap1\n        /* \"#utility.yul\":8639:8657   */\n      0x44\n      add\n        /* \"LibertyFinancialChain/LiberttFinancial/exchange.sol\":8156:8204  IERC20(ord.tokenOut).transfer(feeRecipient, fee) */\n      0x20\n      mload(0x40)\n      dup1\n      dup4\n      sub\n      dup2\n      0x00\n      dup8\n      gas\n      call\n      iszero\n      dup1\n      iszero\n      tag_194\n      jumpi\n      returndatasize\n      0x00\n      dup1\n      returndatacopy\n      revert(0x00, returndatasize)\n    tag_194:\n      pop\n      pop\n      pop\n      pop\n      mload(0x40)\n      returndatasize\n      not(0x1f)\n      0x1f\n      dup3\n      add\n      and\n      dup3\n      add\n      dup1\n      0x40\n      mstore\n      pop\n      dup2\n      add\n      swap1\n      tag_195\n      swap2\n      swap1\n      tag_185\n      jump\t// in\n    tag_195:\n      pop\n        /* \"LibertyFinancialChain/LiberttFinancial/exchange.sol\":8143:8204  if (fee > 0) IERC20(ord.tokenOut).transfer(feeRecipient, fee) */\n    tag_191:\n        /* \"LibertyFinancialChain/LiberttFinancial/exchange.sol\":8255:8266  ord.tokenIn */\n      0x01\n      dup7\n      add\n      sload\n        /* \"LibertyFinancialChain/LiberttFinancial/exchange.sol\":8248:8300  IERC20(ord.tokenIn).transfer(msg.sender, fillAmount) */\n      mload(0x40)\n      shl(0xe0, 0xa9059cbb)\n      dup2\n      mstore\n        /* \"LibertyFinancialChain/LiberttFinancial/exchange.sol\":8277:8287  msg.sender */\n      caller\n        /* \"LibertyFinancialChain/LiberttFinancial/exchange.sol\":8248:8300  IERC20(ord.tokenIn).transfer(msg.sender, fillAmount) */\n      0x04\n      dup3\n      add\n        /* \"#utility.yul\":8666:8717   */\n      mstore\n        /* \"#utility.yul\":8733:8751   */\n      0x24\n      dup2\n      add\n        /* \"#utility.yul\":8726:8760   */\n      dup10\n      swap1\n      mstore\n      sub(shl(0xa0, 0x01), 0x01)\n        /* \"LibertyFinancialChain/LiberttFinancial/exchange.sol\":8255:8266  ord.tokenIn */\n      swap1\n      swap2\n      and\n      swap1\n        /* \"LibertyFinancialChain/LiberttFinancial/exchange.sol\":8248:8276  IERC20(ord.tokenIn).transfer */\n      0xa9059cbb\n      swap1\n        /* \"#utility.yul\":8639:8657   */\n      0x44\n      add\n        /* \"LibertyFinancialChain/LiberttFinancial/exchange.sol\":8248:8300  IERC20(ord.tokenIn).transfer(msg.sender, fillAmount) */\n      0x20\n      mload(0x40)\n      dup1\n      dup4\n      sub\n      dup2\n      0x00\n      dup8\n      gas\n      call\n      iszero\n      dup1\n      iszero\n      tag_198\n      jumpi\n      returndatasize\n      0x00\n      dup1\n      returndatacopy\n      revert(0x00, returndatasize)\n    tag_198:\n      pop\n      pop\n      pop\n      pop\n      mload(0x40)\n      returndatasize\n      not(0x1f)\n      0x1f\n      dup3\n      add\n      and\n      dup3\n      add\n      dup1\n      0x40\n      mstore\n      pop\n      dup2\n      add\n      swap1\n      tag_199\n      swap2\n      swap1\n      tag_185\n      jump\t// in\n    tag_199:\n      pop\n        /* \"LibertyFinancialChain/LiberttFinancial/exchange.sol\":8358:8368  fillAmount */\n      dup7\n        /* \"LibertyFinancialChain/LiberttFinancial/exchange.sol\":8335:8338  ord */\n      dup7\n        /* \"LibertyFinancialChain/LiberttFinancial/exchange.sol\":8335:8354  ord.amountRemaining */\n      0x04\n      add\n      0x00\n        /* \"LibertyFinancialChain/LiberttFinancial/exchange.sol\":8335:8368  ord.amountRemaining -= fillAmount */\n      dup3\n      dup3\n      sload\n      tag_200\n      swap2\n      swap1\n      tag_176\n      jump\t// in\n    tag_200:\n      swap1\n      swap2\n      sstore\n      pop\n      pop\n        /* \"LibertyFinancialChain/LiberttFinancial/exchange.sol\":8382:8401  ord.amountRemaining */\n      0x04\n      dup7\n      add\n      sload\n        /* \"LibertyFinancialChain/LiberttFinancial/exchange.sol\":8405:8406  0 */\n      0x00\n        /* \"LibertyFinancialChain/LiberttFinancial/exchange.sol\":8382:8406  ord.amountRemaining == 0 */\n      sub\n        /* \"LibertyFinancialChain/LiberttFinancial/exchange.sol\":8378:8426  if (ord.amountRemaining == 0) ord.active = false */\n      tag_201\n      jumpi\n        /* \"LibertyFinancialChain/LiberttFinancial/exchange.sol\":8408:8418  ord.active */\n      0x07\n      dup7\n      add\n        /* \"LibertyFinancialChain/LiberttFinancial/exchange.sol\":8408:8426  ord.active = false */\n      dup1\n      sload\n      not(0xff)\n      and\n      swap1\n      sstore\n        /* \"LibertyFinancialChain/LiberttFinancial/exchange.sol\":8378:8426  if (ord.amountRemaining == 0) ord.active = false */\n    tag_201:\n        /* \"LibertyFinancialChain/LiberttFinancial/exchange.sol\":8442:8508  OrderMatched(orderId, msg.sender, fillAmount, tokenOutAmount, fee) */\n      0x40\n      dup1\n      mload\n        /* \"#utility.yul\":8973:8998   */\n      dup9\n      dup2\n      mstore\n        /* \"#utility.yul\":9029:9031   */\n      0x20\n        /* \"#utility.yul\":9014:9032   */\n      dup2\n      add\n        /* \"#utility.yul\":9007:9041   */\n      dup6\n      swap1\n      mstore\n        /* \"#utility.yul\":9057:9075   */\n      swap1\n      dup2\n      add\n        /* \"#utility.yul\":9050:9084   */\n      dup4\n      swap1\n      mstore\n        /* \"LibertyFinancialChain/LiberttFinancial/exchange.sol\":8464:8474  msg.sender */\n      caller\n      swap1\n        /* \"LibertyFinancialChain/LiberttFinancial/exchange.sol\":8455:8462  orderId */\n      dup10\n      swap1\n        /* \"LibertyFinancialChain/LiberttFinancial/exchange.sol\":8442:8508  OrderMatched(orderId, msg.sender, fillAmount, tokenOutAmount, fee) */\n      0x3fc859a6e9309b7067994110940aa58b5cdb00ef7a86e864022b436f8ba46480\n      swap1\n        /* \"#utility.yul\":8961:8963   */\n      0x60\n        /* \"#utility.yul\":8946:8964   */\n      add\n        /* \"LibertyFinancialChain/LiberttFinancial/exchange.sol\":8442:8508  OrderMatched(orderId, msg.sender, fillAmount, tokenOutAmount, fee) */\n      mload(0x40)\n      dup1\n      swap2\n      sub\n      swap1\n      log3\n        /* \"LibertyFinancialChain/LiberttFinancial/exchange.sol\":7137:8515  {... */\n      pop\n      pop\n      pop\n      pop\n      pop\n      pop\n        /* \"@openzeppelin/contracts/security/ReentrancyGuard.sol\":2303:2323  _nonReentrantAfter() */\n      tag_204\n        /* \"@openzeppelin/contracts/security/ReentrancyGuard.sol\":1716:1717  1 */\n      0x01\n        /* \"@openzeppelin/contracts/security/ReentrancyGuard.sol\":2809:2831  _status = _NOT_ENTERED */\n      dup1\n      sstore\n        /* \"@openzeppelin/contracts/security/ReentrancyGuard.sol\":2629:2838  function _nonReentrantAfter() private {... */\n      jump\n        /* \"@openzeppelin/contracts/security/ReentrancyGuard.sol\":2303:2323  _nonReentrantAfter() */\n    tag_204:\n        /* \"LibertyFinancialChain/LiberttFinancial/exchange.sol\":7058:8515  function matchOrder(uint256 orderId, uint256 fillAmount) external nonReentrant {... */\n      pop\n      pop\n      jump\t// out\n        /* \"@openzeppelin/contracts/access/AccessControl.sol\":4202:4338  function grantRole(bytes32 role, address account) public virtual onlyRole(getRoleAdmin(role)) {... */\n    tag_53:\n        /* \"@openzeppelin/contracts/access/AccessControl.sol\":3851:3858  bytes32 */\n      0x00\n        /* \"@openzeppelin/contracts/access/AccessControl.sol\":3877:3889  _roles[role] */\n      dup3\n      dup2\n      mstore\n      0x20\n      dup2\n      swap1\n      mstore\n      0x40\n      swap1\n      keccak256\n        /* \"@openzeppelin/contracts/access/AccessControl.sol\":3877:3899  _roles[role].adminRole */\n      0x01\n      add\n      sload\n        /* \"@openzeppelin/contracts/access/AccessControl.sol\":2473:2489  _checkRole(role) */\n      tag_209\n        /* \"@openzeppelin/contracts/access/AccessControl.sol\":2484:2488  role */\n      dup2\n        /* \"@openzeppelin/contracts/access/AccessControl.sol\":2473:2483  _checkRole */\n      tag_210\n        /* \"@openzeppelin/contracts/access/AccessControl.sol\":2473:2489  _checkRole(role) */\n      jump\t// in\n    tag_209:\n        /* \"@openzeppelin/contracts/access/AccessControl.sol\":4306:4331  _grantRole(role, account) */\n      tag_212\n        /* \"@openzeppelin/contracts/access/AccessControl.sol\":4317:4321  role */\n      dup4\n        /* \"@openzeppelin/contracts/access/AccessControl.sol\":4323:4330  account */\n      dup4\n        /* \"@openzeppelin/contracts/access/AccessControl.sol\":4306:4316  _grantRole */\n      tag_213\n        /* \"@openzeppelin/contracts/access/AccessControl.sol\":4306:4331  _grantRole(role, account) */\n      jump\t// in\n    tag_212:\n      pop\n        /* \"@openzeppelin/contracts/access/AccessControl.sol\":4202:4338  function grantRole(bytes32 role, address account) public virtual onlyRole(getRoleAdmin(role)) {... */\n      pop\n      pop\n      pop\n      jump\t// out\n        /* \"@openzeppelin/contracts/access/AccessControl.sol\":5304:5549  function renounceRole(bytes32 role, address callerConfirmation) public virtual {... */\n    tag_65:\n      sub(shl(0xa0, 0x01), 0x01)\n        /* \"@openzeppelin/contracts/access/AccessControl.sol\":5397:5431  callerConfirmation != _msgSender() */\n      dup2\n      and\n        /* \"@openzeppelin/contracts/utils/Context.sol\":735:745  msg.sender */\n      caller\n        /* \"@openzeppelin/contracts/access/AccessControl.sol\":5397:5431  callerConfirmation != _msgSender() */\n      eq\n        /* \"@openzeppelin/contracts/access/AccessControl.sol\":5393:5495  if (callerConfirmation != _msgSender()) {... */\n      tag_217\n      jumpi\n        /* \"@openzeppelin/contracts/access/AccessControl.sol\":5454:5484  AccessControlBadConfirmation() */\n      mload(0x40)\n      shl(0xe1, 0x334bd919)\n      dup2\n      mstore\n      0x04\n      add\n      mload(0x40)\n      dup1\n      swap2\n      sub\n      swap1\n      revert\n        /* \"@openzeppelin/contracts/access/AccessControl.sol\":5393:5495  if (callerConfirmation != _msgSender()) {... */\n    tag_217:\n        /* \"@openzeppelin/contracts/access/AccessControl.sol\":5505:5542  _revokeRole(role, callerConfirmation) */\n      tag_218\n        /* \"@openzeppelin/contracts/access/AccessControl.sol\":5517:5521  role */\n      dup3\n        /* \"@openzeppelin/contracts/access/AccessControl.sol\":5523:5541  callerConfirmation */\n      dup3\n        /* \"@openzeppelin/contracts/access/AccessControl.sol\":5505:5516  _revokeRole */\n      tag_219\n        /* \"@openzeppelin/contracts/access/AccessControl.sol\":5505:5542  _revokeRole(role, callerConfirmation) */\n      jump\t// in\n    tag_218:\n      pop\n        /* \"@openzeppelin/contracts/access/AccessControl.sol\":5304:5549  function renounceRole(bytes32 role, address callerConfirmation) public virtual {... */\n      pop\n      pop\n      jump\t// out\n        /* \"LibertyFinancialChain/LiberttFinancial/exchange.sol\":3241:3369  function grantSubAdmin(address account) external onlyRole(DEFAULT_ADMIN_ROLE) {... */\n    tag_73:\n        /* \"@openzeppelin/contracts/access/AccessControl.sol\":2241:2245  0x00 */\n      0x00\n        /* \"@openzeppelin/contracts/access/AccessControl.sol\":2473:2489  _checkRole(role) */\n      tag_221\n        /* \"@openzeppelin/contracts/access/AccessControl.sol\":2241:2245  0x00 */\n      dup2\n        /* \"@openzeppelin/contracts/access/AccessControl.sol\":2473:2483  _checkRole */\n      tag_210\n        /* \"@openzeppelin/contracts/access/AccessControl.sol\":2473:2489  _checkRole(role) */\n      jump\t// in\n    tag_221:\n        /* \"LibertyFinancialChain/LiberttFinancial/exchange.sol\":3329:3362  grantRole(SUBADMIN_ROLE, account) */\n      tag_204\n      0x00\n      dup1\n      mload\n      0x20\n      data_c3f76b99666f6818ff0e702cf1728f8564932dfce2026f5d7d90bf00e9ab2863\n      dup4\n      codecopy\n      dup2\n      mload\n      swap2\n      mstore\n        /* \"LibertyFinancialChain/LiberttFinancial/exchange.sol\":3354:3361  account */\n      dup4\n        /* \"LibertyFinancialChain/LiberttFinancial/exchange.sol\":3329:3338  grantRole */\n      tag_53\n        /* \"LibertyFinancialChain/LiberttFinancial/exchange.sol\":3329:3362  grantRole(SUBADMIN_ROLE, account) */\n      jump\t// in\n        /* \"LibertyFinancialChain/LiberttFinancial/exchange.sol\":6483:7024  function cancelOrder(uint256 orderId) external nonReentrant {... */\n    tag_77:\n        /* \"@openzeppelin/contracts/security/ReentrancyGuard.sol\":2261:2282  _nonReentrantBefore() */\n      tag_225\n        /* \"@openzeppelin/contracts/security/ReentrancyGuard.sol\":2261:2280  _nonReentrantBefore */\n      tag_144\n        /* \"@openzeppelin/contracts/security/ReentrancyGuard.sol\":2261:2282  _nonReentrantBefore() */\n      jump\t// in\n    tag_225:\n        /* \"LibertyFinancialChain/LiberttFinancial/exchange.sol\":6571:6577  orders */\n      0x06\n        /* \"LibertyFinancialChain/LiberttFinancial/exchange.sol\":6571:6584  orders.length */\n      sload\n        /* \"LibertyFinancialChain/LiberttFinancial/exchange.sol\":6561:6584  orderId < orders.length */\n      dup2\n      lt\n        /* \"LibertyFinancialChain/LiberttFinancial/exchange.sol\":6553:6596  require(orderId < orders.length, \"Invalid\") */\n      tag_227\n      jumpi\n      mload(0x40)\n      shl(0xe5, 0x461bcd)\n      dup2\n      mstore\n        /* \"#utility.yul\":5241:5243   */\n      0x20\n        /* \"LibertyFinancialChain/LiberttFinancial/exchange.sol\":6553:6596  require(orderId < orders.length, \"Invalid\") */\n      0x04\n      dup3\n      add\n        /* \"#utility.yul\":5223:5244   */\n      mstore\n        /* \"#utility.yul\":5280:5281   */\n      0x07\n        /* \"#utility.yul\":5260:5278   */\n      0x24\n      dup3\n      add\n        /* \"#utility.yul\":5253:5282   */\n      mstore\n      shl(0xca, 0x125b9d985b1a59)\n        /* \"#utility.yul\":5298:5316   */\n      0x44\n      dup3\n      add\n        /* \"#utility.yul\":5291:5328   */\n      mstore\n        /* \"#utility.yul\":5345:5363   */\n      0x64\n      add\n        /* \"LibertyFinancialChain/LiberttFinancial/exchange.sol\":6553:6596  require(orderId < orders.length, \"Invalid\") */\n      tag_147\n        /* \"#utility.yul\":5039:5369   */\n      jump\n        /* \"LibertyFinancialChain/LiberttFinancial/exchange.sol\":6553:6596  require(orderId < orders.length, \"Invalid\") */\n    tag_227:\n        /* \"LibertyFinancialChain/LiberttFinancial/exchange.sol\":6606:6623  Order storage ord */\n      0x00\n        /* \"LibertyFinancialChain/LiberttFinancial/exchange.sol\":6626:6632  orders */\n      0x06\n        /* \"LibertyFinancialChain/LiberttFinancial/exchange.sol\":6633:6640  orderId */\n      dup3\n        /* \"LibertyFinancialChain/LiberttFinancial/exchange.sol\":6626:6641  orders[orderId] */\n      dup2\n      sload\n      dup2\n      lt\n      tag_230\n      jumpi\n      tag_230\n      tag_151\n      jump\t// in\n    tag_230:\n      0x00\n      swap2\n      dup3\n      mstore\n      0x20\n      swap1\n      swap2\n      keccak256\n      0x08\n      swap1\n      swap2\n      mul\n      add\n        /* \"LibertyFinancialChain/LiberttFinancial/exchange.sol\":6659:6669  ord.active */\n      0x07\n      dup2\n      add\n      sload\n        /* \"LibertyFinancialChain/LiberttFinancial/exchange.sol\":6626:6641  orders[orderId] */\n      swap1\n      swap2\n      pop\n        /* \"LibertyFinancialChain/LiberttFinancial/exchange.sol\":6659:6669  ord.active */\n      0xff\n      and\n        /* \"LibertyFinancialChain/LiberttFinancial/exchange.sol\":6651:6682  require(ord.active, \"Inactive\") */\n      tag_232\n      jumpi\n      mload(0x40)\n      shl(0xe5, 0x461bcd)\n      dup2\n      mstore\n        /* \"#utility.yul\":5708:5710   */\n      0x20\n        /* \"LibertyFinancialChain/LiberttFinancial/exchange.sol\":6651:6682  require(ord.active, \"Inactive\") */\n      0x04\n      dup3\n      add\n        /* \"#utility.yul\":5690:5711   */\n      mstore\n        /* \"#utility.yul\":5747:5748   */\n      0x08\n        /* \"#utility.yul\":5727:5745   */\n      0x24\n      dup3\n      add\n        /* \"#utility.yul\":5720:5749   */\n      mstore\n      shl(0xc0, 0x496e616374697665)\n        /* \"#utility.yul\":5765:5783   */\n      0x44\n      dup3\n      add\n        /* \"#utility.yul\":5758:5796   */\n      mstore\n        /* \"#utility.yul\":5813:5831   */\n      0x64\n      add\n        /* \"LibertyFinancialChain/LiberttFinancial/exchange.sol\":6651:6682  require(ord.active, \"Inactive\") */\n      tag_147\n        /* \"#utility.yul\":5506:5837   */\n      jump\n        /* \"LibertyFinancialChain/LiberttFinancial/exchange.sol\":6651:6682  require(ord.active, \"Inactive\") */\n    tag_232:\n        /* \"LibertyFinancialChain/LiberttFinancial/exchange.sol\":6700:6709  ord.maker */\n      dup1\n      sload\n      sub(shl(0xa0, 0x01), 0x01)\n      and\n        /* \"LibertyFinancialChain/LiberttFinancial/exchange.sol\":6713:6723  msg.sender */\n      caller\n        /* \"LibertyFinancialChain/LiberttFinancial/exchange.sol\":6700:6723  ord.maker == msg.sender */\n      eq\n        /* \"LibertyFinancialChain/LiberttFinancial/exchange.sol\":6692:6738  require(ord.maker == msg.sender, \"Only maker\") */\n      tag_234\n      jumpi\n      mload(0x40)\n      shl(0xe5, 0x461bcd)\n      dup2\n      mstore\n        /* \"#utility.yul\":9297:9299   */\n      0x20\n        /* \"LibertyFinancialChain/LiberttFinancial/exchange.sol\":6692:6738  require(ord.maker == msg.sender, \"Only maker\") */\n      0x04\n      dup3\n      add\n        /* \"#utility.yul\":9279:9300   */\n      mstore\n        /* \"#utility.yul\":9336:9338   */\n      0x0a\n        /* \"#utility.yul\":9316:9334   */\n      0x24\n      dup3\n      add\n        /* \"#utility.yul\":9309:9339   */\n      mstore\n      shl(0xb1, 0x27b7363c9036b0b5b2b9)\n        /* \"#utility.yul\":9355:9373   */\n      0x44\n      dup3\n      add\n        /* \"#utility.yul\":9348:9388   */\n      mstore\n        /* \"#utility.yul\":9405:9423   */\n      0x64\n      add\n        /* \"LibertyFinancialChain/LiberttFinancial/exchange.sol\":6692:6738  require(ord.maker == msg.sender, \"Only maker\") */\n      tag_147\n        /* \"#utility.yul\":9095:9429   */\n      jump\n        /* \"LibertyFinancialChain/LiberttFinancial/exchange.sol\":6692:6738  require(ord.maker == msg.sender, \"Only maker\") */\n    tag_234:\n        /* \"LibertyFinancialChain/LiberttFinancial/exchange.sol\":6748:6758  ord.active */\n      0x07\n      dup2\n      add\n        /* \"LibertyFinancialChain/LiberttFinancial/exchange.sol\":6748:6766  ord.active = false */\n      dup1\n      sload\n      not(0xff)\n      and\n      swap1\n      sstore\n        /* \"LibertyFinancialChain/LiberttFinancial/exchange.sol\":6799:6818  ord.amountRemaining */\n      0x04\n      dup2\n      add\n      dup1\n      sload\n        /* \"LibertyFinancialChain/LiberttFinancial/exchange.sol\":6761:6766  false */\n      0x00\n        /* \"LibertyFinancialChain/LiberttFinancial/exchange.sol\":6828:6851  ord.amountRemaining = 0 */\n      swap1\n      swap2\n      sstore\n        /* \"LibertyFinancialChain/LiberttFinancial/exchange.sol\":6865:6881  refundAmount > 0 */\n      dup1\n      iszero\n        /* \"LibertyFinancialChain/LiberttFinancial/exchange.sol\":6861:7018  if (refundAmount > 0) {... */\n      tag_237\n      jumpi\n        /* \"LibertyFinancialChain/LiberttFinancial/exchange.sol\":6904:6915  ord.tokenIn */\n      0x01\n      dup3\n      add\n      sload\n        /* \"LibertyFinancialChain/LiberttFinancial/exchange.sol\":6897:6951  IERC20(ord.tokenIn).transfer(msg.sender, refundAmount) */\n      mload(0x40)\n      shl(0xe0, 0xa9059cbb)\n      dup2\n      mstore\n        /* \"LibertyFinancialChain/LiberttFinancial/exchange.sol\":6926:6936  msg.sender */\n      caller\n        /* \"LibertyFinancialChain/LiberttFinancial/exchange.sol\":6897:6951  IERC20(ord.tokenIn).transfer(msg.sender, refundAmount) */\n      0x04\n      dup3\n      add\n        /* \"#utility.yul\":8666:8717   */\n      mstore\n        /* \"#utility.yul\":8733:8751   */\n      0x24\n      dup2\n      add\n        /* \"#utility.yul\":8726:8760   */\n      dup4\n      swap1\n      mstore\n      sub(shl(0xa0, 0x01), 0x01)\n        /* \"LibertyFinancialChain/LiberttFinancial/exchange.sol\":6904:6915  ord.tokenIn */\n      swap1\n      swap2\n      and\n      swap1\n        /* \"LibertyFinancialChain/LiberttFinancial/exchange.sol\":6897:6925  IERC20(ord.tokenIn).transfer */\n      0xa9059cbb\n      swap1\n        /* \"#utility.yul\":8639:8657   */\n      0x44\n      add\n        /* \"LibertyFinancialChain/LiberttFinancial/exchange.sol\":6897:6951  IERC20(ord.tokenIn).transfer(msg.sender, refundAmount) */\n      0x20\n      mload(0x40)\n      dup1\n      dup4\n      sub\n      dup2\n      0x00\n      dup8\n      gas\n      call\n      iszero\n      dup1\n      iszero\n      tag_240\n      jumpi\n      returndatasize\n      0x00\n      dup1\n      returndatacopy\n      revert(0x00, returndatasize)\n    tag_240:\n      pop\n      pop\n      pop\n      pop\n      mload(0x40)\n      returndatasize\n      not(0x1f)\n      0x1f\n      dup3\n      add\n      and\n      dup3\n      add\n      dup1\n      0x40\n      mstore\n      pop\n      dup2\n      add\n      swap1\n      tag_241\n      swap2\n      swap1\n      tag_185\n      jump\t// in\n    tag_241:\n      pop\n        /* \"LibertyFinancialChain/LiberttFinancial/exchange.sol\":6985:6992  orderId */\n      dup3\n        /* \"LibertyFinancialChain/LiberttFinancial/exchange.sol\":6970:7007  OrderCancelled(orderId, refundAmount) */\n      0xaa2a006d186dc89a3d6851834c85d16226329ac40bcad6531a5756a38ed1c90f\n        /* \"LibertyFinancialChain/LiberttFinancial/exchange.sol\":6994:7006  refundAmount */\n      dup3\n        /* \"LibertyFinancialChain/LiberttFinancial/exchange.sol\":6970:7007  OrderCancelled(orderId, refundAmount) */\n      mload(0x40)\n      tag_242\n      swap2\n        /* \"#utility.yul\":1081:1106   */\n      dup2\n      mstore\n        /* \"#utility.yul\":1069:1071   */\n      0x20\n        /* \"#utility.yul\":1054:1072   */\n      add\n      swap1\n        /* \"#utility.yul\":935:1112   */\n      jump\n        /* \"LibertyFinancialChain/LiberttFinancial/exchange.sol\":6970:7007  OrderCancelled(orderId, refundAmount) */\n    tag_242:\n      mload(0x40)\n      dup1\n      swap2\n      sub\n      swap1\n      log2\n        /* \"LibertyFinancialChain/LiberttFinancial/exchange.sol\":6861:7018  if (refundAmount > 0) {... */\n    tag_237:\n        /* \"LibertyFinancialChain/LiberttFinancial/exchange.sol\":6543:7024  {... */\n      pop\n      pop\n        /* \"@openzeppelin/contracts/security/ReentrancyGuard.sol\":2303:2323  _nonReentrantAfter() */\n      tag_243\n        /* \"@openzeppelin/contracts/security/ReentrancyGuard.sol\":1716:1717  1 */\n      0x01\n        /* \"@openzeppelin/contracts/security/ReentrancyGuard.sol\":2809:2831  _status = _NOT_ENTERED */\n      dup1\n      sstore\n        /* \"@openzeppelin/contracts/security/ReentrancyGuard.sol\":2629:2838  function _nonReentrantAfter() private {... */\n      jump\n        /* \"@openzeppelin/contracts/security/ReentrancyGuard.sol\":2303:2323  _nonReentrantAfter() */\n    tag_243:\n        /* \"LibertyFinancialChain/LiberttFinancial/exchange.sol\":6483:7024  function cancelOrder(uint256 orderId) external nonReentrant {... */\n      pop\n      jump\t// out\n        /* \"LibertyFinancialChain/LiberttFinancial/exchange.sol\":5469:6430  function createOrder(... */\n    tag_81:\n        /* \"@openzeppelin/contracts/security/ReentrancyGuard.sol\":2261:2282  _nonReentrantBefore() */\n      tag_245\n        /* \"@openzeppelin/contracts/security/ReentrancyGuard.sol\":2261:2280  _nonReentrantBefore */\n      tag_144\n        /* \"@openzeppelin/contracts/security/ReentrancyGuard.sol\":2261:2282  _nonReentrantBefore() */\n      jump\t// in\n    tag_245:\n      sub(shl(0xa0, 0x01), 0x01)\n        /* \"LibertyFinancialChain/LiberttFinancial/exchange.sol\":5669:5691  allowedTokens[tokenIn] */\n      dup6\n      and\n      0x00\n      swap1\n      dup2\n      mstore\n        /* \"LibertyFinancialChain/LiberttFinancial/exchange.sol\":5669:5682  allowedTokens */\n      0x04\n        /* \"LibertyFinancialChain/LiberttFinancial/exchange.sol\":5669:5691  allowedTokens[tokenIn] */\n      0x20\n      mstore\n      0x40\n      swap1\n      keccak256\n      sload\n      0xff\n      and\n        /* \"LibertyFinancialChain/LiberttFinancial/exchange.sol\":5669:5718  allowedTokens[tokenIn] && allowedTokens[tokenOut] */\n      dup1\n      iszero\n      tag_247\n      jumpi\n      pop\n      sub(shl(0xa0, 0x01), 0x01)\n        /* \"LibertyFinancialChain/LiberttFinancial/exchange.sol\":5695:5718  allowedTokens[tokenOut] */\n      dup5\n      and\n      0x00\n      swap1\n      dup2\n      mstore\n        /* \"LibertyFinancialChain/LiberttFinancial/exchange.sol\":5695:5708  allowedTokens */\n      0x04\n        /* \"LibertyFinancialChain/LiberttFinancial/exchange.sol\":5695:5718  allowedTokens[tokenOut] */\n      0x20\n      mstore\n      0x40\n      swap1\n      keccak256\n      sload\n      0xff\n      and\n        /* \"LibertyFinancialChain/LiberttFinancial/exchange.sol\":5669:5718  allowedTokens[tokenIn] && allowedTokens[tokenOut] */\n    tag_247:\n        /* \"LibertyFinancialChain/LiberttFinancial/exchange.sol\":5661:5741  require(allowedTokens[tokenIn] && allowedTokens[tokenOut], \"Tokens not allowed\") */\n      tag_248\n      jumpi\n      mload(0x40)\n      shl(0xe5, 0x461bcd)\n      dup2\n      mstore\n      0x04\n      add\n      tag_147\n      swap1\n      tag_159\n      jump\t// in\n    tag_248:\n        /* \"LibertyFinancialChain/LiberttFinancial/exchange.sol\":5766:5767  0 */\n      0x00\n        /* \"LibertyFinancialChain/LiberttFinancial/exchange.sol\":5759:5763  rate */\n      dup3\n        /* \"LibertyFinancialChain/LiberttFinancial/exchange.sol\":5759:5767  rate > 0 */\n      gt\n        /* \"LibertyFinancialChain/LiberttFinancial/exchange.sol\":5751:5781  require(rate > 0, \"Rate zero\") */\n      tag_250\n      jumpi\n      mload(0x40)\n      shl(0xe5, 0x461bcd)\n      dup2\n      mstore\n        /* \"#utility.yul\":9636:9638   */\n      0x20\n        /* \"LibertyFinancialChain/LiberttFinancial/exchange.sol\":5751:5781  require(rate > 0, \"Rate zero\") */\n      0x04\n      dup3\n      add\n        /* \"#utility.yul\":9618:9639   */\n      mstore\n        /* \"#utility.yul\":9675:9676   */\n      0x09\n        /* \"#utility.yul\":9655:9673   */\n      0x24\n      dup3\n      add\n        /* \"#utility.yul\":9648:9677   */\n      mstore\n      shl(0xb8, 0x52617465207a65726f)\n        /* \"#utility.yul\":9693:9711   */\n      0x44\n      dup3\n      add\n        /* \"#utility.yul\":9686:9725   */\n      mstore\n        /* \"#utility.yul\":9742:9760   */\n      0x64\n      add\n        /* \"LibertyFinancialChain/LiberttFinancial/exchange.sol\":5751:5781  require(rate > 0, \"Rate zero\") */\n      tag_147\n        /* \"#utility.yul\":9434:9766   */\n      jump\n        /* \"LibertyFinancialChain/LiberttFinancial/exchange.sol\":5751:5781  require(rate > 0, \"Rate zero\") */\n    tag_250:\n        /* \"LibertyFinancialChain/LiberttFinancial/exchange.sol\":5791:5808  uint256 expiresAt */\n      0x00\n        /* \"LibertyFinancialChain/LiberttFinancial/exchange.sol\":5811:5845  block.timestamp + expiresInSeconds */\n      tag_253\n        /* \"LibertyFinancialChain/LiberttFinancial/exchange.sol\":5829:5845  expiresInSeconds */\n      dup3\n        /* \"LibertyFinancialChain/LiberttFinancial/exchange.sol\":5811:5826  block.timestamp */\n      timestamp\n        /* \"LibertyFinancialChain/LiberttFinancial/exchange.sol\":5811:5845  block.timestamp + expiresInSeconds */\n      tag_254\n      jump\t// in\n    tag_253:\n        /* \"LibertyFinancialChain/LiberttFinancial/exchange.sol\":5791:5845  uint256 expiresAt = block.timestamp + expiresInSeconds */\n      swap1\n      pop\n        /* \"LibertyFinancialChain/LiberttFinancial/exchange.sol\":5855:5872  uint256 nAmountIn */\n      0x00\n        /* \"LibertyFinancialChain/LiberttFinancial/exchange.sol\":5875:5903  normalize(tokenIn, amountIn) */\n      tag_255\n        /* \"LibertyFinancialChain/LiberttFinancial/exchange.sol\":5885:5892  tokenIn */\n      dup8\n        /* \"LibertyFinancialChain/LiberttFinancial/exchange.sol\":5894:5902  amountIn */\n      dup7\n        /* \"LibertyFinancialChain/LiberttFinancial/exchange.sol\":5875:5884  normalize */\n      tag_85\n        /* \"LibertyFinancialChain/LiberttFinancial/exchange.sol\":5875:5903  normalize(tokenIn, amountIn) */\n      jump\t// in\n    tag_255:\n        /* \"LibertyFinancialChain/LiberttFinancial/exchange.sol\":5855:5903  uint256 nAmountIn = normalize(tokenIn, amountIn) */\n      swap1\n      pop\n        /* \"LibertyFinancialChain/LiberttFinancial/exchange.sol\":5933:5934  0 */\n      0x00\n        /* \"LibertyFinancialChain/LiberttFinancial/exchange.sol\":5921:5930  nAmountIn */\n      dup2\n        /* \"LibertyFinancialChain/LiberttFinancial/exchange.sol\":5921:5934  nAmountIn > 0 */\n      gt\n        /* \"LibertyFinancialChain/LiberttFinancial/exchange.sol\":5913:5948  require(nAmountIn > 0, \"Too small\") */\n      tag_256\n      jumpi\n      mload(0x40)\n      shl(0xe5, 0x461bcd)\n      dup2\n      mstore\n        /* \"#utility.yul\":7727:7729   */\n      0x20\n        /* \"LibertyFinancialChain/LiberttFinancial/exchange.sol\":5913:5948  require(nAmountIn > 0, \"Too small\") */\n      0x04\n      dup3\n      add\n        /* \"#utility.yul\":7709:7730   */\n      mstore\n        /* \"#utility.yul\":7766:7767   */\n      0x09\n        /* \"#utility.yul\":7746:7764   */\n      0x24\n      dup3\n      add\n        /* \"#utility.yul\":7739:7768   */\n      mstore\n      shl(0xba, 0x151bdbc81cdb585b1b)\n        /* \"#utility.yul\":7784:7802   */\n      0x44\n      dup3\n      add\n        /* \"#utility.yul\":7777:7816   */\n      mstore\n        /* \"#utility.yul\":7833:7851   */\n      0x64\n      add\n        /* \"LibertyFinancialChain/LiberttFinancial/exchange.sol\":5913:5948  require(nAmountIn > 0, \"Too small\") */\n      tag_147\n        /* \"#utility.yul\":7525:7857   */\n      jump\n        /* \"LibertyFinancialChain/LiberttFinancial/exchange.sol\":5913:5948  require(nAmountIn > 0, \"Too small\") */\n    tag_256:\n        /* \"LibertyFinancialChain/LiberttFinancial/exchange.sol\":5959:6024  IERC20(tokenIn).transferFrom(msg.sender, address(this), amountIn) */\n      mload(0x40)\n      shl(0xe0, 0x23b872dd)\n      dup2\n      mstore\n        /* \"LibertyFinancialChain/LiberttFinancial/exchange.sol\":5988:5998  msg.sender */\n      caller\n        /* \"LibertyFinancialChain/LiberttFinancial/exchange.sol\":5959:6024  IERC20(tokenIn).transferFrom(msg.sender, address(this), amountIn) */\n      0x04\n      dup3\n      add\n        /* \"#utility.yul\":8102:8136   */\n      mstore\n        /* \"LibertyFinancialChain/LiberttFinancial/exchange.sol\":6008:6012  this */\n      address\n        /* \"#utility.yul\":8152:8170   */\n      0x24\n      dup3\n      add\n        /* \"#utility.yul\":8145:8188   */\n      mstore\n        /* \"#utility.yul\":8204:8222   */\n      0x44\n      dup2\n      add\n        /* \"#utility.yul\":8197:8231   */\n      dup7\n      swap1\n      mstore\n      sub(shl(0xa0, 0x01), 0x01)\n        /* \"LibertyFinancialChain/LiberttFinancial/exchange.sol\":5959:5987  IERC20(tokenIn).transferFrom */\n      dup9\n      and\n      swap1\n      0x23b872dd\n      swap1\n        /* \"#utility.yul\":8037:8055   */\n      0x64\n      add\n        /* \"LibertyFinancialChain/LiberttFinancial/exchange.sol\":5959:6024  IERC20(tokenIn).transferFrom(msg.sender, address(this), amountIn) */\n      0x20\n      mload(0x40)\n      dup1\n      dup4\n      sub\n      dup2\n      0x00\n      dup8\n      gas\n      call\n      iszero\n      dup1\n      iszero\n      tag_260\n      jumpi\n      returndatasize\n      0x00\n      dup1\n      returndatacopy\n      revert(0x00, returndatasize)\n    tag_260:\n      pop\n      pop\n      pop\n      pop\n      mload(0x40)\n      returndatasize\n      not(0x1f)\n      0x1f\n      dup3\n      add\n      and\n      dup3\n      add\n      dup1\n      0x40\n      mstore\n      pop\n      dup2\n      add\n      swap1\n      tag_261\n      swap2\n      swap1\n      tag_185\n      jump\t// in\n    tag_261:\n      pop\n        /* \"LibertyFinancialChain/LiberttFinancial/exchange.sol\":6047:6317  Order({... */\n      0x40\n      dup1\n      mload\n      0x0100\n      dup2\n      add\n      dup3\n      mstore\n        /* \"LibertyFinancialChain/LiberttFinancial/exchange.sol\":6074:6084  msg.sender */\n      caller\n        /* \"LibertyFinancialChain/LiberttFinancial/exchange.sol\":6047:6317  Order({... */\n      dup1\n      dup3\n      mstore\n      sub(shl(0xa0, 0x01), 0x01)\n      dup11\n      dup2\n      and\n      0x20\n      dup5\n      add\n      swap1\n      dup2\n      mstore\n      dup11\n      dup3\n      and\n      swap5\n      dup5\n      add\n      swap5\n      dup6\n      mstore\n      0x60\n      dup5\n      add\n      dup11\n      dup2\n      mstore\n      0x80\n      dup6\n      add\n      dup12\n      dup2\n      mstore\n      0xa0\n      dup7\n      add\n      dup12\n      dup2\n      mstore\n      0xc0\n      dup8\n      add\n      dup11\n      dup2\n      mstore\n        /* \"LibertyFinancialChain/LiberttFinancial/exchange.sol\":6302:6306  true */\n      0x01\n        /* \"LibertyFinancialChain/LiberttFinancial/exchange.sol\":6047:6317  Order({... */\n      0xe0\n      dup10\n      add\n      dup2\n      dup2\n      mstore\n        /* \"LibertyFinancialChain/LiberttFinancial/exchange.sol\":6035:6041  orders */\n      0x06\n        /* \"LibertyFinancialChain/LiberttFinancial/exchange.sol\":6035:6318  orders.push(Order({... */\n      dup1\n      sload\n      dup1\n      dup5\n      add\n      dup3\n      sstore\n      0x00\n      dup3\n      swap1\n      mstore\n      swap11\n      mload\n      0x08\n      swap1\n      swap12\n      mul\n      0xf652222313e28459528d920b65115c16c04f3efc82aaedc97be59f3f377c0d3f\n      dup2\n      add\n      dup1\n      sload\n      swap13\n      dup12\n      and\n      not(sub(shl(0xa0, 0x01), 0x01))\n      swap14\n      dup15\n      and\n      or\n      swap1\n      sstore\n      swap8\n      mload\n      0xf652222313e28459528d920b65115c16c04f3efc82aaedc97be59f3f377c0d40\n      dup10\n      add\n      dup1\n      sload\n      swap2\n      dup12\n      and\n      swap2\n      dup14\n      and\n      swap2\n      swap1\n      swap2\n      or\n      swap1\n      sstore\n      swap11\n      mload\n      0xf652222313e28459528d920b65115c16c04f3efc82aaedc97be59f3f377c0d41\n      dup9\n      add\n      dup1\n      sload\n      swap2\n      swap1\n      swap10\n      and\n      swap11\n      and\n      swap10\n      swap1\n      swap10\n      or\n      swap1\n      swap7\n      sstore\n      swap3\n      mload\n      0xf652222313e28459528d920b65115c16c04f3efc82aaedc97be59f3f377c0d42\n      dup6\n      add\n      sstore\n      swap1\n      mload\n      0xf652222313e28459528d920b65115c16c04f3efc82aaedc97be59f3f377c0d43\n      dup5\n      add\n      sstore\n      mload\n      0xf652222313e28459528d920b65115c16c04f3efc82aaedc97be59f3f377c0d44\n      dup4\n      add\n      sstore\n      mload\n      0xf652222313e28459528d920b65115c16c04f3efc82aaedc97be59f3f377c0d45\n      dup3\n      add\n      sstore\n      swap3\n      mload\n      0xf652222313e28459528d920b65115c16c04f3efc82aaedc97be59f3f377c0d46\n      swap1\n      swap4\n      add\n      dup1\n      sload\n      swap4\n      iszero\n      iszero\n      not(0xff)\n      swap1\n      swap5\n      and\n      swap4\n      swap1\n      swap4\n      or\n      swap1\n      swap3\n      sstore\n        /* \"LibertyFinancialChain/LiberttFinancial/exchange.sol\":6347:6360  orders.length */\n      swap2\n      sload\n        /* \"LibertyFinancialChain/LiberttFinancial/exchange.sol\":6347:6364  orders.length - 1 */\n      tag_263\n      swap2\n        /* \"LibertyFinancialChain/LiberttFinancial/exchange.sol\":6302:6306  true */\n      swap1\n        /* \"LibertyFinancialChain/LiberttFinancial/exchange.sol\":6347:6364  orders.length - 1 */\n      tag_176\n      jump\t// in\n    tag_263:\n        /* \"LibertyFinancialChain/LiberttFinancial/exchange.sol\":6334:6423  OrderCreated(orders.length - 1, msg.sender, tokenIn, tokenOut, amountIn, rate, expiresAt) */\n      0x40\n      dup1\n      mload\n      sub(shl(0xa0, 0x01), 0x01)\n        /* \"#utility.yul\":10216:10231   */\n      dup1\n      dup13\n      and\n        /* \"#utility.yul\":10198:10232   */\n      dup3\n      mstore\n        /* \"#utility.yul\":10268:10283   */\n      dup11\n      and\n        /* \"#utility.yul\":10263:10265   */\n      0x20\n        /* \"#utility.yul\":10248:10266   */\n      dup3\n      add\n        /* \"#utility.yul\":10241:10284   */\n      mstore\n        /* \"#utility.yul\":10300:10318   */\n      swap1\n      dup2\n      add\n        /* \"#utility.yul\":10293:10327   */\n      dup9\n      swap1\n      mstore\n        /* \"#utility.yul\":10358:10360   */\n      0x60\n        /* \"#utility.yul\":10343:10361   */\n      dup2\n      add\n        /* \"#utility.yul\":10336:10370   */\n      dup8\n      swap1\n      mstore\n        /* \"#utility.yul\":10401:10404   */\n      0x80\n        /* \"#utility.yul\":10386:10405   */\n      dup2\n      add\n        /* \"#utility.yul\":10379:10414   */\n      dup6\n      swap1\n      mstore\n        /* \"LibertyFinancialChain/LiberttFinancial/exchange.sol\":6334:6423  OrderCreated(orders.length - 1, msg.sender, tokenIn, tokenOut, amountIn, rate, expiresAt) */\n      0xdb932a34c9c681f70d4d797e099a8752999c25f9c9ffa2009c5f39c8f8dee4b4\n      swap1\n        /* \"#utility.yul\":10147:10150   */\n      0xa0\n        /* \"#utility.yul\":10132:10151   */\n      add\n        /* \"LibertyFinancialChain/LiberttFinancial/exchange.sol\":6334:6423  OrderCreated(orders.length - 1, msg.sender, tokenIn, tokenOut, amountIn, rate, expiresAt) */\n      mload(0x40)\n      dup1\n      swap2\n      sub\n      swap1\n      log3\n        /* \"LibertyFinancialChain/LiberttFinancial/exchange.sol\":5651:6430  {... */\n      pop\n      pop\n        /* \"@openzeppelin/contracts/security/ReentrancyGuard.sol\":2303:2323  _nonReentrantAfter() */\n      tag_266\n        /* \"@openzeppelin/contracts/security/ReentrancyGuard.sol\":1716:1717  1 */\n      0x01\n        /* \"@openzeppelin/contracts/security/ReentrancyGuard.sol\":2809:2831  _status = _NOT_ENTERED */\n      dup1\n      sstore\n        /* \"@openzeppelin/contracts/security/ReentrancyGuard.sol\":2629:2838  function _nonReentrantAfter() private {... */\n      jump\n        /* \"@openzeppelin/contracts/security/ReentrancyGuard.sol\":2303:2323  _nonReentrantAfter() */\n    tag_266:\n        /* \"LibertyFinancialChain/LiberttFinancial/exchange.sol\":5469:6430  function createOrder(... */\n      pop\n      pop\n      pop\n      pop\n      pop\n      jump\t// out\n        /* \"LibertyFinancialChain/LiberttFinancial/exchange.sol\":4003:4196  function normalize(address token, uint256 amount) public view returns (uint256) {... */\n    tag_85:\n        /* \"LibertyFinancialChain/LiberttFinancial/exchange.sol\":4074:4081  uint256 */\n      0x00\n        /* \"LibertyFinancialChain/LiberttFinancial/exchange.sol\":4093:4107  uint8 decimals */\n      dup1\n        /* \"LibertyFinancialChain/LiberttFinancial/exchange.sol\":4110:4128  getDecimals(token) */\n      tag_268\n        /* \"LibertyFinancialChain/LiberttFinancial/exchange.sol\":4122:4127  token */\n      dup5\n        /* \"LibertyFinancialChain/LiberttFinancial/exchange.sol\":4110:4121  getDecimals */\n      tag_122\n        /* \"LibertyFinancialChain/LiberttFinancial/exchange.sol\":4110:4128  getDecimals(token) */\n      jump\t// in\n    tag_268:\n        /* \"LibertyFinancialChain/LiberttFinancial/exchange.sol\":4093:4128  uint8 decimals = getDecimals(token) */\n      swap1\n      pop\n        /* \"LibertyFinancialChain/LiberttFinancial/exchange.sol\":4162:4175  18 - decimals */\n      tag_269\n        /* \"LibertyFinancialChain/LiberttFinancial/exchange.sol\":4093:4128  uint8 decimals = getDecimals(token) */\n      dup2\n        /* \"LibertyFinancialChain/LiberttFinancial/exchange.sol\":4162:4164  18 */\n      0x12\n        /* \"LibertyFinancialChain/LiberttFinancial/exchange.sol\":4162:4175  18 - decimals */\n      tag_270\n      jump\t// in\n    tag_269:\n        /* \"LibertyFinancialChain/LiberttFinancial/exchange.sol\":4155:4176  10 ** (18 - decimals) */\n      tag_271\n      swap1\n        /* \"LibertyFinancialChain/LiberttFinancial/exchange.sol\":4155:4157  10 */\n      0x0a\n        /* \"LibertyFinancialChain/LiberttFinancial/exchange.sol\":4155:4176  10 ** (18 - decimals) */\n      tag_272\n      jump\t// in\n    tag_271:\n        /* \"LibertyFinancialChain/LiberttFinancial/exchange.sol\":4145:4177  amount * (10 ** (18 - decimals)) */\n      tag_273\n      swap1\n        /* \"LibertyFinancialChain/LiberttFinancial/exchange.sol\":4145:4151  amount */\n      dup5\n        /* \"LibertyFinancialChain/LiberttFinancial/exchange.sol\":4145:4177  amount * (10 ** (18 - decimals)) */\n      tag_169\n      jump\t// in\n    tag_273:\n        /* \"LibertyFinancialChain/LiberttFinancial/exchange.sol\":4138:4177  return amount * (10 ** (18 - decimals)) */\n      swap5\n        /* \"LibertyFinancialChain/LiberttFinancial/exchange.sol\":4003:4196  function normalize(address token, uint256 amount) public view returns (uint256) {... */\n      swap4\n      pop\n      pop\n      pop\n      pop\n      jump\t// out\n        /* \"LibertyFinancialChain/LiberttFinancial/exchange.sol\":2796:3003  function setFee(uint256 newFeeBps) external onlyAdminOrSub {... */\n    tag_89:\n        /* \"LibertyFinancialChain/LiberttFinancial/exchange.sol\":3707:3746  hasRole(DEFAULT_ADMIN_ROLE, msg.sender) */\n      tag_275\n        /* \"@openzeppelin/contracts/access/AccessControl.sol\":2241:2245  0x00 */\n      0x00\n        /* \"LibertyFinancialChain/LiberttFinancial/exchange.sol\":3735:3745  msg.sender */\n      caller\n        /* \"LibertyFinancialChain/LiberttFinancial/exchange.sol\":3707:3714  hasRole */\n      tag_99\n        /* \"LibertyFinancialChain/LiberttFinancial/exchange.sol\":3707:3746  hasRole(DEFAULT_ADMIN_ROLE, msg.sender) */\n      jump\t// in\n    tag_275:\n        /* \"LibertyFinancialChain/LiberttFinancial/exchange.sol\":3707:3784  hasRole(DEFAULT_ADMIN_ROLE, msg.sender) || hasRole(SUBADMIN_ROLE, msg.sender) */\n      dup1\n      tag_277\n      jumpi\n      pop\n        /* \"LibertyFinancialChain/LiberttFinancial/exchange.sol\":3750:3784  hasRole(SUBADMIN_ROLE, msg.sender) */\n      tag_277\n      0x00\n      dup1\n      mload\n      0x20\n      data_c3f76b99666f6818ff0e702cf1728f8564932dfce2026f5d7d90bf00e9ab2863\n      dup4\n      codecopy\n      dup2\n      mload\n      swap2\n      mstore\n        /* \"LibertyFinancialChain/LiberttFinancial/exchange.sol\":3773:3783  msg.sender */\n      caller\n        /* \"LibertyFinancialChain/LiberttFinancial/exchange.sol\":3750:3757  hasRole */\n      tag_99\n        /* \"LibertyFinancialChain/LiberttFinancial/exchange.sol\":3750:3784  hasRole(SUBADMIN_ROLE, msg.sender) */\n      jump\t// in\n    tag_277:\n        /* \"LibertyFinancialChain/LiberttFinancial/exchange.sol\":3699:3807  require(hasRole(DEFAULT_ADMIN_ROLE, msg.sender) || hasRole(SUBADMIN_ROLE, msg.sender), \"Not admin/subadmin\") */\n      tag_278\n      jumpi\n      mload(0x40)\n      shl(0xe5, 0x461bcd)\n      dup2\n      mstore\n      0x04\n      add\n      tag_147\n      swap1\n      tag_280\n      jump\t// in\n    tag_278:\n        /* \"LibertyFinancialChain/LiberttFinancial/exchange.sol\":2886:2890  1000 */\n      0x03e8\n        /* \"LibertyFinancialChain/LiberttFinancial/exchange.sol\":2873:2882  newFeeBps */\n      dup2\n        /* \"LibertyFinancialChain/LiberttFinancial/exchange.sol\":2873:2890  newFeeBps <= 1000 */\n      gt\n      iszero\n        /* \"LibertyFinancialChain/LiberttFinancial/exchange.sol\":2865:2907  require(newFeeBps <= 1000, \"Fee too high\") */\n      tag_282\n      jumpi\n      mload(0x40)\n      shl(0xe5, 0x461bcd)\n      dup2\n      mstore\n        /* \"#utility.yul\":12513:12515   */\n      0x20\n        /* \"LibertyFinancialChain/LiberttFinancial/exchange.sol\":2865:2907  require(newFeeBps <= 1000, \"Fee too high\") */\n      0x04\n      dup3\n      add\n        /* \"#utility.yul\":12495:12516   */\n      mstore\n        /* \"#utility.yul\":12552:12554   */\n      0x0c\n        /* \"#utility.yul\":12532:12550   */\n      0x24\n      dup3\n      add\n        /* \"#utility.yul\":12525:12555   */\n      mstore\n      shl(0xa3, 0x08ccaca40e8dede40d0d2ced)\n        /* \"#utility.yul\":12571:12589   */\n      0x44\n      dup3\n      add\n        /* \"#utility.yul\":12564:12606   */\n      mstore\n        /* \"#utility.yul\":12623:12641   */\n      0x64\n      add\n        /* \"LibertyFinancialChain/LiberttFinancial/exchange.sol\":2865:2907  require(newFeeBps <= 1000, \"Fee too high\") */\n      tag_147\n        /* \"#utility.yul\":12311:12647   */\n      jump\n        /* \"LibertyFinancialChain/LiberttFinancial/exchange.sol\":2865:2907  require(newFeeBps <= 1000, \"Fee too high\") */\n    tag_282:\n        /* \"LibertyFinancialChain/LiberttFinancial/exchange.sol\":2942:2952  swapFeeBps */\n      sload(0x02)\n        /* \"LibertyFinancialChain/LiberttFinancial/exchange.sol\":2931:2964  FeeUpdated(swapFeeBps, newFeeBps) */\n      0x40\n      dup1\n      mload\n        /* \"#utility.yul\":12826:12851   */\n      swap2\n      dup3\n      mstore\n        /* \"#utility.yul\":12882:12884   */\n      0x20\n        /* \"#utility.yul\":12867:12885   */\n      dup3\n      add\n        /* \"#utility.yul\":12860:12894   */\n      dup4\n      swap1\n      mstore\n        /* \"LibertyFinancialChain/LiberttFinancial/exchange.sol\":2931:2964  FeeUpdated(swapFeeBps, newFeeBps) */\n      0x528d9479e9f9889a87a3c30c7f7ba537e5e59c4c85a37733b16e57c62df61302\n      swap2\n        /* \"#utility.yul\":12799:12817   */\n      add\n        /* \"LibertyFinancialChain/LiberttFinancial/exchange.sol\":2931:2964  FeeUpdated(swapFeeBps, newFeeBps) */\n      mload(0x40)\n      dup1\n      swap2\n      sub\n      swap1\n      log1\n        /* \"LibertyFinancialChain/LiberttFinancial/exchange.sol\":2974:2984  swapFeeBps */\n      0x02\n        /* \"LibertyFinancialChain/LiberttFinancial/exchange.sol\":2974:2996  swapFeeBps = newFeeBps */\n      sstore\n        /* \"LibertyFinancialChain/LiberttFinancial/exchange.sol\":2796:3003  function setFee(uint256 newFeeBps) external onlyAdminOrSub {... */\n      jump\t// out\n        /* \"LibertyFinancialChain/LiberttFinancial/exchange.sol\":3424:3657  function emergencyWithdraw(address token) external onlyAdminOrSub {... */\n    tag_92:\n        /* \"LibertyFinancialChain/LiberttFinancial/exchange.sol\":3707:3746  hasRole(DEFAULT_ADMIN_ROLE, msg.sender) */\n      tag_288\n        /* \"@openzeppelin/contracts/access/AccessControl.sol\":2241:2245  0x00 */\n      0x00\n        /* \"LibertyFinancialChain/LiberttFinancial/exchange.sol\":3735:3745  msg.sender */\n      caller\n        /* \"LibertyFinancialChain/LiberttFinancial/exchange.sol\":3707:3714  hasRole */\n      tag_99\n        /* \"LibertyFinancialChain/LiberttFinancial/exchange.sol\":3707:3746  hasRole(DEFAULT_ADMIN_ROLE, msg.sender) */\n      jump\t// in\n    tag_288:\n        /* \"LibertyFinancialChain/LiberttFinancial/exchange.sol\":3707:3784  hasRole(DEFAULT_ADMIN_ROLE, msg.sender) || hasRole(SUBADMIN_ROLE, msg.sender) */\n      dup1\n      tag_290\n      jumpi\n      pop\n        /* \"LibertyFinancialChain/LiberttFinancial/exchange.sol\":3750:3784  hasRole(SUBADMIN_ROLE, msg.sender) */\n      tag_290\n      0x00\n      dup1\n      mload\n      0x20\n      data_c3f76b99666f6818ff0e702cf1728f8564932dfce2026f5d7d90bf00e9ab2863\n      dup4\n      codecopy\n      dup2\n      mload\n      swap2\n      mstore\n        /* \"LibertyFinancialChain/LiberttFinancial/exchange.sol\":3773:3783  msg.sender */\n      caller\n        /* \"LibertyFinancialChain/LiberttFinancial/exchange.sol\":3750:3757  hasRole */\n      tag_99\n        /* \"LibertyFinancialChain/LiberttFinancial/exchange.sol\":3750:3784  hasRole(SUBADMIN_ROLE, msg.sender) */\n      jump\t// in\n    tag_290:\n        /* \"LibertyFinancialChain/LiberttFinancial/exchange.sol\":3699:3807  require(hasRole(DEFAULT_ADMIN_ROLE, msg.sender) || hasRole(SUBADMIN_ROLE, msg.sender), \"Not admin/subadmin\") */\n      tag_291\n      jumpi\n      mload(0x40)\n      shl(0xe5, 0x461bcd)\n      dup2\n      mstore\n      0x04\n      add\n      tag_147\n      swap1\n      tag_280\n      jump\t// in\n    tag_291:\n        /* \"LibertyFinancialChain/LiberttFinancial/exchange.sol\":3514:3552  IERC20(token).balanceOf(address(this)) */\n      mload(0x40)\n      shl(0xe0, 0x70a08231)\n      dup2\n      mstore\n        /* \"LibertyFinancialChain/LiberttFinancial/exchange.sol\":3546:3550  this */\n      address\n        /* \"LibertyFinancialChain/LiberttFinancial/exchange.sol\":3514:3552  IERC20(token).balanceOf(address(this)) */\n      0x04\n      dup3\n      add\n        /* \"#utility.yul\":2147:2198   */\n      mstore\n        /* \"LibertyFinancialChain/LiberttFinancial/exchange.sol\":3500:3511  uint256 bal */\n      0x00\n      swap1\n      sub(shl(0xa0, 0x01), 0x01)\n        /* \"LibertyFinancialChain/LiberttFinancial/exchange.sol\":3514:3537  IERC20(token).balanceOf */\n      dup4\n      and\n      swap1\n      0x70a08231\n      swap1\n        /* \"#utility.yul\":2120:2138   */\n      0x24\n      add\n        /* \"LibertyFinancialChain/LiberttFinancial/exchange.sol\":3514:3552  IERC20(token).balanceOf(address(this)) */\n      0x20\n      mload(0x40)\n      dup1\n      dup4\n      sub\n      dup2\n      dup7\n      gas\n      staticcall\n      iszero\n      dup1\n      iszero\n      tag_296\n      jumpi\n      returndatasize\n      0x00\n      dup1\n      returndatacopy\n      revert(0x00, returndatasize)\n    tag_296:\n      pop\n      pop\n      pop\n      pop\n      mload(0x40)\n      returndatasize\n      not(0x1f)\n      0x1f\n      dup3\n      add\n      and\n      dup3\n      add\n      dup1\n      0x40\n      mstore\n      pop\n      dup2\n      add\n      swap1\n      tag_297\n      swap2\n      swap1\n      tag_298\n      jump\t// in\n    tag_297:\n        /* \"LibertyFinancialChain/LiberttFinancial/exchange.sol\":3500:3552  uint256 bal = IERC20(token).balanceOf(address(this)) */\n      swap1\n      pop\n        /* \"LibertyFinancialChain/LiberttFinancial/exchange.sol\":3576:3577  0 */\n      0x00\n        /* \"LibertyFinancialChain/LiberttFinancial/exchange.sol\":3570:3573  bal */\n      dup2\n        /* \"LibertyFinancialChain/LiberttFinancial/exchange.sol\":3570:3577  bal > 0 */\n      gt\n        /* \"LibertyFinancialChain/LiberttFinancial/exchange.sol\":3562:3601  require(bal > 0, \"Nothing to withdraw\") */\n      tag_299\n      jumpi\n      mload(0x40)\n      shl(0xe5, 0x461bcd)\n      dup2\n      mstore\n        /* \"#utility.yul\":13296:13298   */\n      0x20\n        /* \"LibertyFinancialChain/LiberttFinancial/exchange.sol\":3562:3601  require(bal > 0, \"Nothing to withdraw\") */\n      0x04\n      dup3\n      add\n        /* \"#utility.yul\":13278:13299   */\n      mstore\n        /* \"#utility.yul\":13335:13337   */\n      0x13\n        /* \"#utility.yul\":13315:13333   */\n      0x24\n      dup3\n      add\n        /* \"#utility.yul\":13308:13338   */\n      mstore\n      shl(0x68, 0x4e6f7468696e6720746f207769746864726177)\n        /* \"#utility.yul\":13354:13372   */\n      0x44\n      dup3\n      add\n        /* \"#utility.yul\":13347:13396   */\n      mstore\n        /* \"#utility.yul\":13413:13431   */\n      0x64\n      add\n        /* \"LibertyFinancialChain/LiberttFinancial/exchange.sol\":3562:3601  require(bal > 0, \"Nothing to withdraw\") */\n      tag_147\n        /* \"#utility.yul\":13094:13437   */\n      jump\n        /* \"LibertyFinancialChain/LiberttFinancial/exchange.sol\":3562:3601  require(bal > 0, \"Nothing to withdraw\") */\n    tag_299:\n        /* \"LibertyFinancialChain/LiberttFinancial/exchange.sol\":3611:3650  IERC20(token).transfer(msg.sender, bal) */\n      mload(0x40)\n      shl(0xe0, 0xa9059cbb)\n      dup2\n      mstore\n        /* \"LibertyFinancialChain/LiberttFinancial/exchange.sol\":3634:3644  msg.sender */\n      caller\n        /* \"LibertyFinancialChain/LiberttFinancial/exchange.sol\":3611:3650  IERC20(token).transfer(msg.sender, bal) */\n      0x04\n      dup3\n      add\n        /* \"#utility.yul\":8666:8717   */\n      mstore\n        /* \"#utility.yul\":8733:8751   */\n      0x24\n      dup2\n      add\n        /* \"#utility.yul\":8726:8760   */\n      dup3\n      swap1\n      mstore\n      sub(shl(0xa0, 0x01), 0x01)\n        /* \"LibertyFinancialChain/LiberttFinancial/exchange.sol\":3611:3633  IERC20(token).transfer */\n      dup4\n      and\n      swap1\n      0xa9059cbb\n      swap1\n        /* \"#utility.yul\":8639:8657   */\n      0x44\n      add\n        /* \"LibertyFinancialChain/LiberttFinancial/exchange.sol\":3611:3650  IERC20(token).transfer(msg.sender, bal) */\n      0x20\n      mload(0x40)\n      dup1\n      dup4\n      sub\n      dup2\n      0x00\n      dup8\n      gas\n      call\n      iszero\n      dup1\n      iszero\n      tag_304\n      jumpi\n      returndatasize\n      0x00\n      dup1\n      returndatacopy\n      revert(0x00, returndatasize)\n    tag_304:\n      pop\n      pop\n      pop\n      pop\n      mload(0x40)\n      returndatasize\n      not(0x1f)\n      0x1f\n      dup3\n      add\n      and\n      dup3\n      add\n      dup1\n      0x40\n      mstore\n      pop\n      dup2\n      add\n      swap1\n      tag_218\n      swap2\n      swap1\n      tag_185\n      jump\t// in\n        /* \"LibertyFinancialChain/LiberttFinancial/exchange.sol\":2274:2451  function setAllowedToken(address token, bool allowed) external onlyAdminOrSub {... */\n    tag_96:\n        /* \"LibertyFinancialChain/LiberttFinancial/exchange.sol\":3707:3746  hasRole(DEFAULT_ADMIN_ROLE, msg.sender) */\n      tag_307\n        /* \"@openzeppelin/contracts/access/AccessControl.sol\":2241:2245  0x00 */\n      0x00\n        /* \"LibertyFinancialChain/LiberttFinancial/exchange.sol\":3735:3745  msg.sender */\n      caller\n        /* \"LibertyFinancialChain/LiberttFinancial/exchange.sol\":3707:3714  hasRole */\n      tag_99\n        /* \"LibertyFinancialChain/LiberttFinancial/exchange.sol\":3707:3746  hasRole(DEFAULT_ADMIN_ROLE, msg.sender) */\n      jump\t// in\n    tag_307:\n        /* \"LibertyFinancialChain/LiberttFinancial/exchange.sol\":3707:3784  hasRole(DEFAULT_ADMIN_ROLE, msg.sender) || hasRole(SUBADMIN_ROLE, msg.sender) */\n      dup1\n      tag_309\n      jumpi\n      pop\n        /* \"LibertyFinancialChain/LiberttFinancial/exchange.sol\":3750:3784  hasRole(SUBADMIN_ROLE, msg.sender) */\n      tag_309\n      0x00\n      dup1\n      mload\n      0x20\n      data_c3f76b99666f6818ff0e702cf1728f8564932dfce2026f5d7d90bf00e9ab2863\n      dup4\n      codecopy\n      dup2\n      mload\n      swap2\n      mstore\n        /* \"LibertyFinancialChain/LiberttFinancial/exchange.sol\":3773:3783  msg.sender */\n      caller\n        /* \"LibertyFinancialChain/LiberttFinancial/exchange.sol\":3750:3757  hasRole */\n      tag_99\n        /* \"LibertyFinancialChain/LiberttFinancial/exchange.sol\":3750:3784  hasRole(SUBADMIN_ROLE, msg.sender) */\n      jump\t// in\n    tag_309:\n        /* \"LibertyFinancialChain/LiberttFinancial/exchange.sol\":3699:3807  require(hasRole(DEFAULT_ADMIN_ROLE, msg.sender) || hasRole(SUBADMIN_ROLE, msg.sender), \"Not admin/subadmin\") */\n      tag_310\n      jumpi\n      mload(0x40)\n      shl(0xe5, 0x461bcd)\n      dup2\n      mstore\n      0x04\n      add\n      tag_147\n      swap1\n      tag_280\n      jump\t// in\n    tag_310:\n      sub(shl(0xa0, 0x01), 0x01)\n        /* \"LibertyFinancialChain/LiberttFinancial/exchange.sol\":2362:2382  allowedTokens[token] */\n      dup3\n      and\n      0x00\n      dup2\n      dup2\n      mstore\n        /* \"LibertyFinancialChain/LiberttFinancial/exchange.sol\":2362:2375  allowedTokens */\n      0x04\n        /* \"LibertyFinancialChain/LiberttFinancial/exchange.sol\":2362:2382  allowedTokens[token] */\n      0x20\n      swap1\n      dup2\n      mstore\n      0x40\n      swap2\n      dup3\n      swap1\n      keccak256\n        /* \"LibertyFinancialChain/LiberttFinancial/exchange.sol\":2362:2392  allowedTokens[token] = allowed */\n      dup1\n      sload\n      not(0xff)\n      and\n      dup6\n      iszero\n      iszero\n      swap1\n      dup2\n      or\n      swap1\n      swap2\n      sstore\n        /* \"LibertyFinancialChain/LiberttFinancial/exchange.sol\":2407:2444  TokenWhitelistUpdated(token, allowed) */\n      swap2\n      mload\n        /* \"#utility.yul\":445:486   */\n      swap2\n      dup3\n      mstore\n        /* \"LibertyFinancialChain/LiberttFinancial/exchange.sol\":2407:2444  TokenWhitelistUpdated(token, allowed) */\n      0x67821d5384bb02aab1ba91a477f89c9966cd30f475b02618bdc58712bca51275\n      swap2\n        /* \"#utility.yul\":418:436   */\n      add\n        /* \"LibertyFinancialChain/LiberttFinancial/exchange.sol\":2407:2444  TokenWhitelistUpdated(token, allowed) */\n      mload(0x40)\n      dup1\n      swap2\n      sub\n      swap1\n      log2\n        /* \"LibertyFinancialChain/LiberttFinancial/exchange.sol\":2274:2451  function setAllowedToken(address token, bool allowed) external onlyAdminOrSub {... */\n      pop\n      pop\n      jump\t// out\n        /* \"@openzeppelin/contracts/access/AccessControl.sol\":2830:2966  function hasRole(bytes32 role, address account) public view virtual returns (bool) {... */\n    tag_99:\n        /* \"@openzeppelin/contracts/access/AccessControl.sol\":2907:2911  bool */\n      0x00\n        /* \"@openzeppelin/contracts/access/AccessControl.sol\":2930:2942  _roles[role] */\n      swap2\n      dup3\n      mstore\n      0x20\n      dup3\n      dup2\n      mstore\n      0x40\n      dup1\n      dup5\n      keccak256\n      sub(shl(0xa0, 0x01), 0x01)\n        /* \"@openzeppelin/contracts/access/AccessControl.sol\":2930:2959  _roles[role].hasRole[account] */\n      swap4\n      swap1\n      swap4\n      and\n      dup5\n      mstore\n      swap2\n      swap1\n      mstore\n      swap1\n      keccak256\n      sload\n      0xff\n      and\n      swap1\n        /* \"@openzeppelin/contracts/access/AccessControl.sol\":2830:2966  function hasRole(bytes32 role, address account) public view virtual returns (bool) {... */\n      jump\t// out\n        /* \"LibertyFinancialChain/LiberttFinancial/exchange.sol\":1155:1176  Order[] public orders */\n    tag_106:\n      0x06\n      dup2\n      dup2\n      sload\n      dup2\n      lt\n      tag_315\n      jumpi\n      0x00\n      dup1\n      revert\n    tag_315:\n      0x00\n      swap2\n      dup3\n      mstore\n      0x20\n      swap1\n      swap2\n      keccak256\n      0x08\n      swap1\n      swap2\n      mul\n      add\n      dup1\n      sload\n      0x01\n      dup3\n      add\n      sload\n      0x02\n      dup4\n      add\n      sload\n      0x03\n      dup5\n      add\n      sload\n      0x04\n      dup6\n      add\n      sload\n      0x05\n      dup7\n      add\n      sload\n      0x06\n      dup8\n      add\n      sload\n      0x07\n      swap1\n      swap8\n      add\n      sload\n      sub(shl(0xa0, 0x01), 0x01)\n      swap7\n      dup8\n      and\n      swap9\n      pop\n      swap5\n      dup7\n      and\n      swap7\n      swap4\n      swap1\n      swap6\n      and\n      swap5\n      swap2\n      swap4\n      swap1\n      swap3\n      swap1\n      0xff\n      and\n      dup9\n      jump\t// out\n        /* \"LibertyFinancialChain/LiberttFinancial/exchange.sol\":4202:4413  function denormalize(address token, uint256 nAmount) public view returns (uint256) {... */\n    tag_111:\n        /* \"LibertyFinancialChain/LiberttFinancial/exchange.sol\":4276:4283  uint256 */\n      0x00\n        /* \"LibertyFinancialChain/LiberttFinancial/exchange.sol\":4295:4309  uint8 decimals */\n      dup1\n        /* \"LibertyFinancialChain/LiberttFinancial/exchange.sol\":4312:4330  getDecimals(token) */\n      tag_318\n        /* \"LibertyFinancialChain/LiberttFinancial/exchange.sol\":4324:4329  token */\n      dup5\n        /* \"LibertyFinancialChain/LiberttFinancial/exchange.sol\":4312:4323  getDecimals */\n      tag_122\n        /* \"LibertyFinancialChain/LiberttFinancial/exchange.sol\":4312:4330  getDecimals(token) */\n      jump\t// in\n    tag_318:\n        /* \"LibertyFinancialChain/LiberttFinancial/exchange.sol\":4295:4330  uint8 decimals = getDecimals(token) */\n      swap1\n      pop\n        /* \"LibertyFinancialChain/LiberttFinancial/exchange.sol\":4365:4378  18 - decimals */\n      tag_319\n        /* \"LibertyFinancialChain/LiberttFinancial/exchange.sol\":4295:4330  uint8 decimals = getDecimals(token) */\n      dup2\n        /* \"LibertyFinancialChain/LiberttFinancial/exchange.sol\":4365:4367  18 */\n      0x12\n        /* \"LibertyFinancialChain/LiberttFinancial/exchange.sol\":4365:4378  18 - decimals */\n      tag_270\n      jump\t// in\n    tag_319:\n        /* \"LibertyFinancialChain/LiberttFinancial/exchange.sol\":4358:4379  10 ** (18 - decimals) */\n      tag_320\n      swap1\n        /* \"LibertyFinancialChain/LiberttFinancial/exchange.sol\":4358:4360  10 */\n      0x0a\n        /* \"LibertyFinancialChain/LiberttFinancial/exchange.sol\":4358:4379  10 ** (18 - decimals) */\n      tag_272\n      jump\t// in\n    tag_320:\n        /* \"LibertyFinancialChain/LiberttFinancial/exchange.sol\":4347:4380  nAmount / (10 ** (18 - decimals)) */\n      tag_273\n      swap1\n        /* \"LibertyFinancialChain/LiberttFinancial/exchange.sol\":4347:4354  nAmount */\n      dup5\n        /* \"LibertyFinancialChain/LiberttFinancial/exchange.sol\":4347:4380  nAmount / (10 ** (18 - decimals)) */\n      tag_171\n      jump\t// in\n        /* \"LibertyFinancialChain/LiberttFinancial/exchange.sol\":4480:5395  function swapGlobal(address tokenIn, address tokenOut, uint256 amountIn) external nonReentrant {... */\n    tag_119:\n        /* \"@openzeppelin/contracts/security/ReentrancyGuard.sol\":2261:2282  _nonReentrantBefore() */\n      tag_323\n        /* \"@openzeppelin/contracts/security/ReentrancyGuard.sol\":2261:2280  _nonReentrantBefore */\n      tag_144\n        /* \"@openzeppelin/contracts/security/ReentrancyGuard.sol\":2261:2282  _nonReentrantBefore() */\n      jump\t// in\n    tag_323:\n      sub(shl(0xa0, 0x01), 0x01)\n        /* \"LibertyFinancialChain/LiberttFinancial/exchange.sol\":4593:4615  allowedTokens[tokenIn] */\n      dup4\n      and\n      0x00\n      swap1\n      dup2\n      mstore\n        /* \"LibertyFinancialChain/LiberttFinancial/exchange.sol\":4593:4606  allowedTokens */\n      0x04\n        /* \"LibertyFinancialChain/LiberttFinancial/exchange.sol\":4593:4615  allowedTokens[tokenIn] */\n      0x20\n      mstore\n      0x40\n      swap1\n      keccak256\n      sload\n      0xff\n      and\n        /* \"LibertyFinancialChain/LiberttFinancial/exchange.sol\":4593:4642  allowedTokens[tokenIn] && allowedTokens[tokenOut] */\n      dup1\n      iszero\n      tag_325\n      jumpi\n      pop\n      sub(shl(0xa0, 0x01), 0x01)\n        /* \"LibertyFinancialChain/LiberttFinancial/exchange.sol\":4619:4642  allowedTokens[tokenOut] */\n      dup3\n      and\n      0x00\n      swap1\n      dup2\n      mstore\n        /* \"LibertyFinancialChain/LiberttFinancial/exchange.sol\":4619:4632  allowedTokens */\n      0x04\n        /* \"LibertyFinancialChain/LiberttFinancial/exchange.sol\":4619:4642  allowedTokens[tokenOut] */\n      0x20\n      mstore\n      0x40\n      swap1\n      keccak256\n      sload\n      0xff\n      and\n        /* \"LibertyFinancialChain/LiberttFinancial/exchange.sol\":4593:4642  allowedTokens[tokenIn] && allowedTokens[tokenOut] */\n    tag_325:\n        /* \"LibertyFinancialChain/LiberttFinancial/exchange.sol\":4585:4665  require(allowedTokens[tokenIn] && allowedTokens[tokenOut], \"Tokens not allowed\") */\n      tag_326\n      jumpi\n      mload(0x40)\n      shl(0xe5, 0x461bcd)\n      dup2\n      mstore\n      0x04\n      add\n      tag_147\n      swap1\n      tag_159\n      jump\t// in\n    tag_326:\n      sub(shl(0xa0, 0x01), 0x01)\n        /* \"LibertyFinancialChain/LiberttFinancial/exchange.sol\":4690:4710  globalRates[tokenIn] */\n      dup1\n      dup5\n      and\n        /* \"LibertyFinancialChain/LiberttFinancial/exchange.sol\":4675:4687  uint256 rate */\n      0x00\n        /* \"LibertyFinancialChain/LiberttFinancial/exchange.sol\":4690:4710  globalRates[tokenIn] */\n      swap1\n      dup2\n      mstore\n        /* \"LibertyFinancialChain/LiberttFinancial/exchange.sol\":4690:4701  globalRates */\n      0x05\n        /* \"LibertyFinancialChain/LiberttFinancial/exchange.sol\":4690:4710  globalRates[tokenIn] */\n      0x20\n      swap1\n      dup2\n      mstore\n      0x40\n      dup1\n      dup4\n      keccak256\n        /* \"LibertyFinancialChain/LiberttFinancial/exchange.sol\":4690:4720  globalRates[tokenIn][tokenOut] */\n      swap4\n      dup7\n      and\n      dup4\n      mstore\n      swap3\n      swap1\n      mstore\n      keccak256\n      sload\n        /* \"LibertyFinancialChain/LiberttFinancial/exchange.sol\":4738:4746  rate > 0 */\n      dup1\n        /* \"LibertyFinancialChain/LiberttFinancial/exchange.sol\":4730:4765  require(rate > 0, \"No global rate\") */\n      tag_328\n      jumpi\n      mload(0x40)\n      shl(0xe5, 0x461bcd)\n      dup2\n      mstore\n        /* \"#utility.yul\":13644:13646   */\n      0x20\n        /* \"LibertyFinancialChain/LiberttFinancial/exchange.sol\":4730:4765  require(rate > 0, \"No global rate\") */\n      0x04\n      dup3\n      add\n        /* \"#utility.yul\":13626:13647   */\n      mstore\n        /* \"#utility.yul\":13683:13685   */\n      0x0e\n        /* \"#utility.yul\":13663:13681   */\n      0x24\n      dup3\n      add\n        /* \"#utility.yul\":13656:13686   */\n      mstore\n      shl(0x90, 0x4e6f20676c6f62616c2072617465)\n        /* \"#utility.yul\":13702:13720   */\n      0x44\n      dup3\n      add\n        /* \"#utility.yul\":13695:13739   */\n      mstore\n        /* \"#utility.yul\":13756:13774   */\n      0x64\n      add\n        /* \"LibertyFinancialChain/LiberttFinancial/exchange.sol\":4730:4765  require(rate > 0, \"No global rate\") */\n      tag_147\n        /* \"#utility.yul\":13442:13780   */\n      jump\n        /* \"LibertyFinancialChain/LiberttFinancial/exchange.sol\":4730:4765  require(rate > 0, \"No global rate\") */\n    tag_328:\n        /* \"LibertyFinancialChain/LiberttFinancial/exchange.sol\":4775:4792  uint256 nAmountIn */\n      0x00\n        /* \"LibertyFinancialChain/LiberttFinancial/exchange.sol\":4795:4823  normalize(tokenIn, amountIn) */\n      tag_331\n        /* \"LibertyFinancialChain/LiberttFinancial/exchange.sol\":4805:4812  tokenIn */\n      dup6\n        /* \"LibertyFinancialChain/LiberttFinancial/exchange.sol\":4814:4822  amountIn */\n      dup5\n        /* \"LibertyFinancialChain/LiberttFinancial/exchange.sol\":4795:4804  normalize */\n      tag_85\n        /* \"LibertyFinancialChain/LiberttFinancial/exchange.sol\":4795:4823  normalize(tokenIn, amountIn) */\n      jump\t// in\n    tag_331:\n        /* \"LibertyFinancialChain/LiberttFinancial/exchange.sol\":4775:4823  uint256 nAmountIn = normalize(tokenIn, amountIn) */\n      swap1\n      pop\n        /* \"LibertyFinancialChain/LiberttFinancial/exchange.sol\":4833:4851  uint256 nAmountOut */\n      0x00\n        /* \"LibertyFinancialChain/LiberttFinancial/exchange.sol\":4873:4877  1e18 */\n      0x0de0b6b3a7640000\n        /* \"LibertyFinancialChain/LiberttFinancial/exchange.sol\":4854:4870  nAmountIn * rate */\n      tag_332\n        /* \"LibertyFinancialChain/LiberttFinancial/exchange.sol\":4866:4870  rate */\n      dup5\n        /* \"LibertyFinancialChain/LiberttFinancial/exchange.sol\":4775:4823  uint256 nAmountIn = normalize(tokenIn, amountIn) */\n      dup5\n        /* \"LibertyFinancialChain/LiberttFinancial/exchange.sol\":4854:4870  nAmountIn * rate */\n      tag_169\n      jump\t// in\n    tag_332:\n        /* \"LibertyFinancialChain/LiberttFinancial/exchange.sol\":4854:4877  nAmountIn * rate / 1e18 */\n      tag_333\n      swap2\n      swap1\n      tag_171\n      jump\t// in\n    tag_333:\n        /* \"LibertyFinancialChain/LiberttFinancial/exchange.sol\":4833:4877  uint256 nAmountOut = nAmountIn * rate / 1e18 */\n      swap1\n      pop\n        /* \"LibertyFinancialChain/LiberttFinancial/exchange.sol\":4887:4904  uint256 amountOut */\n      0x00\n        /* \"LibertyFinancialChain/LiberttFinancial/exchange.sol\":4907:4940  denormalize(tokenOut, nAmountOut) */\n      tag_334\n        /* \"LibertyFinancialChain/LiberttFinancial/exchange.sol\":4919:4927  tokenOut */\n      dup7\n        /* \"LibertyFinancialChain/LiberttFinancial/exchange.sol\":4929:4939  nAmountOut */\n      dup4\n        /* \"LibertyFinancialChain/LiberttFinancial/exchange.sol\":4907:4918  denormalize */\n      tag_111\n        /* \"LibertyFinancialChain/LiberttFinancial/exchange.sol\":4907:4940  denormalize(tokenOut, nAmountOut) */\n      jump\t// in\n    tag_334:\n        /* \"LibertyFinancialChain/LiberttFinancial/exchange.sol\":4887:4940  uint256 amountOut = denormalize(tokenOut, nAmountOut) */\n      swap1\n      pop\n        /* \"LibertyFinancialChain/LiberttFinancial/exchange.sol\":4951:4962  uint256 fee */\n      0x00\n        /* \"LibertyFinancialChain/LiberttFinancial/exchange.sol\":4990:4995  10000 */\n      0x2710\n        /* \"LibertyFinancialChain/LiberttFinancial/exchange.sol\":4977:4987  swapFeeBps */\n      sload(0x02)\n        /* \"LibertyFinancialChain/LiberttFinancial/exchange.sol\":4965:4974  amountOut */\n      dup4\n        /* \"LibertyFinancialChain/LiberttFinancial/exchange.sol\":4965:4987  amountOut * swapFeeBps */\n      tag_335\n      swap2\n      swap1\n      tag_169\n      jump\t// in\n    tag_335:\n        /* \"LibertyFinancialChain/LiberttFinancial/exchange.sol\":4965:4995  amountOut * swapFeeBps / 10000 */\n      tag_336\n      swap2\n      swap1\n      tag_171\n      jump\t// in\n    tag_336:\n        /* \"LibertyFinancialChain/LiberttFinancial/exchange.sol\":4951:4995  uint256 fee = amountOut * swapFeeBps / 10000 */\n      swap1\n      pop\n        /* \"LibertyFinancialChain/LiberttFinancial/exchange.sol\":5005:5025  uint256 receiverGets */\n      0x00\n        /* \"LibertyFinancialChain/LiberttFinancial/exchange.sol\":5028:5043  amountOut - fee */\n      tag_337\n        /* \"LibertyFinancialChain/LiberttFinancial/exchange.sol\":4951:4995  uint256 fee = amountOut * swapFeeBps / 10000 */\n      dup3\n        /* \"LibertyFinancialChain/LiberttFinancial/exchange.sol\":5028:5037  amountOut */\n      dup5\n        /* \"LibertyFinancialChain/LiberttFinancial/exchange.sol\":5028:5043  amountOut - fee */\n      tag_176\n      jump\t// in\n    tag_337:\n        /* \"LibertyFinancialChain/LiberttFinancial/exchange.sol\":5005:5043  uint256 receiverGets = amountOut - fee */\n      swap1\n      pop\n        /* \"LibertyFinancialChain/LiberttFinancial/exchange.sol\":5076:5077  0 */\n      0x00\n        /* \"LibertyFinancialChain/LiberttFinancial/exchange.sol\":5061:5073  receiverGets */\n      dup2\n        /* \"LibertyFinancialChain/LiberttFinancial/exchange.sol\":5061:5077  receiverGets > 0 */\n      gt\n        /* \"LibertyFinancialChain/LiberttFinancial/exchange.sol\":5053:5098  require(receiverGets > 0, \"Amount too small\") */\n      tag_338\n      jumpi\n      mload(0x40)\n      shl(0xe5, 0x461bcd)\n      dup2\n      mstore\n        /* \"#utility.yul\":13987:13989   */\n      0x20\n        /* \"LibertyFinancialChain/LiberttFinancial/exchange.sol\":5053:5098  require(receiverGets > 0, \"Amount too small\") */\n      0x04\n      dup3\n      add\n        /* \"#utility.yul\":13969:13990   */\n      mstore\n        /* \"#utility.yul\":14026:14028   */\n      0x10\n        /* \"#utility.yul\":14006:14024   */\n      0x24\n      dup3\n      add\n        /* \"#utility.yul\":13999:14029   */\n      mstore\n      shl(0x82, 0x105b5bdd5b9d081d1bdbc81cdb585b1b)\n        /* \"#utility.yul\":14045:14063   */\n      0x44\n      dup3\n      add\n        /* \"#utility.yul\":14038:14084   */\n      mstore\n        /* \"#utility.yul\":14101:14119   */\n      0x64\n      add\n        /* \"LibertyFinancialChain/LiberttFinancial/exchange.sol\":5053:5098  require(receiverGets > 0, \"Amount too small\") */\n      tag_147\n        /* \"#utility.yul\":13785:14125   */\n      jump\n        /* \"LibertyFinancialChain/LiberttFinancial/exchange.sol\":5053:5098  require(receiverGets > 0, \"Amount too small\") */\n    tag_338:\n        /* \"LibertyFinancialChain/LiberttFinancial/exchange.sol\":5109:5174  IERC20(tokenIn).transferFrom(msg.sender, address(this), amountIn) */\n      mload(0x40)\n      shl(0xe0, 0x23b872dd)\n      dup2\n      mstore\n        /* \"LibertyFinancialChain/LiberttFinancial/exchange.sol\":5138:5148  msg.sender */\n      caller\n        /* \"LibertyFinancialChain/LiberttFinancial/exchange.sol\":5109:5174  IERC20(tokenIn).transferFrom(msg.sender, address(this), amountIn) */\n      0x04\n      dup3\n      add\n        /* \"#utility.yul\":8102:8136   */\n      mstore\n        /* \"LibertyFinancialChain/LiberttFinancial/exchange.sol\":5158:5162  this */\n      address\n        /* \"#utility.yul\":8152:8170   */\n      0x24\n      dup3\n      add\n        /* \"#utility.yul\":8145:8188   */\n      mstore\n        /* \"#utility.yul\":8204:8222   */\n      0x44\n      dup2\n      add\n        /* \"#utility.yul\":8197:8231   */\n      dup9\n      swap1\n      mstore\n      sub(shl(0xa0, 0x01), 0x01)\n        /* \"LibertyFinancialChain/LiberttFinancial/exchange.sol\":5109:5137  IERC20(tokenIn).transferFrom */\n      dup11\n      and\n      swap1\n      0x23b872dd\n      swap1\n        /* \"#utility.yul\":8037:8055   */\n      0x64\n      add\n        /* \"LibertyFinancialChain/LiberttFinancial/exchange.sol\":5109:5174  IERC20(tokenIn).transferFrom(msg.sender, address(this), amountIn) */\n      0x20\n      mload(0x40)\n      dup1\n      dup4\n      sub\n      dup2\n      0x00\n      dup8\n      gas\n      call\n      iszero\n      dup1\n      iszero\n      tag_343\n      jumpi\n      returndatasize\n      0x00\n      dup1\n      returndatacopy\n      revert(0x00, returndatasize)\n    tag_343:\n      pop\n      pop\n      pop\n      pop\n      mload(0x40)\n      returndatasize\n      not(0x1f)\n      0x1f\n      dup3\n      add\n      and\n      dup3\n      add\n      dup1\n      0x40\n      mstore\n      pop\n      dup2\n      add\n      swap1\n      tag_344\n      swap2\n      swap1\n      tag_185\n      jump\t// in\n    tag_344:\n      pop\n        /* \"LibertyFinancialChain/LiberttFinancial/exchange.sol\":5184:5235  IERC20(tokenOut).transfer(msg.sender, receiverGets) */\n      mload(0x40)\n      shl(0xe0, 0xa9059cbb)\n      dup2\n      mstore\n        /* \"LibertyFinancialChain/LiberttFinancial/exchange.sol\":5210:5220  msg.sender */\n      caller\n        /* \"LibertyFinancialChain/LiberttFinancial/exchange.sol\":5184:5235  IERC20(tokenOut).transfer(msg.sender, receiverGets) */\n      0x04\n      dup3\n      add\n        /* \"#utility.yul\":8666:8717   */\n      mstore\n        /* \"#utility.yul\":8733:8751   */\n      0x24\n      dup2\n      add\n        /* \"#utility.yul\":8726:8760   */\n      dup3\n      swap1\n      mstore\n      sub(shl(0xa0, 0x01), 0x01)\n        /* \"LibertyFinancialChain/LiberttFinancial/exchange.sol\":5184:5209  IERC20(tokenOut).transfer */\n      dup10\n      and\n      swap1\n      0xa9059cbb\n      swap1\n        /* \"#utility.yul\":8639:8657   */\n      0x44\n      add\n        /* \"LibertyFinancialChain/LiberttFinancial/exchange.sol\":5184:5235  IERC20(tokenOut).transfer(msg.sender, receiverGets) */\n      0x20\n      mload(0x40)\n      dup1\n      dup4\n      sub\n      dup2\n      0x00\n      dup8\n      gas\n      call\n      iszero\n      dup1\n      iszero\n      tag_347\n      jumpi\n      returndatasize\n      0x00\n      dup1\n      returndatacopy\n      revert(0x00, returndatasize)\n    tag_347:\n      pop\n      pop\n      pop\n      pop\n      mload(0x40)\n      returndatasize\n      not(0x1f)\n      0x1f\n      dup3\n      add\n      and\n      dup3\n      add\n      dup1\n      0x40\n      mstore\n      pop\n      dup2\n      add\n      swap1\n      tag_348\n      swap2\n      swap1\n      tag_185\n      jump\t// in\n    tag_348:\n      pop\n        /* \"LibertyFinancialChain/LiberttFinancial/exchange.sol\":5249:5256  fee > 0 */\n      dup2\n      iszero\n        /* \"LibertyFinancialChain/LiberttFinancial/exchange.sol\":5245:5302  if (fee > 0) IERC20(tokenOut).transfer(feeRecipient, fee) */\n      tag_349\n      jumpi\n        /* \"LibertyFinancialChain/LiberttFinancial/exchange.sol\":5284:5296  feeRecipient */\n      sload(0x03)\n        /* \"LibertyFinancialChain/LiberttFinancial/exchange.sol\":5258:5302  IERC20(tokenOut).transfer(feeRecipient, fee) */\n      mload(0x40)\n      shl(0xe0, 0xa9059cbb)\n      dup2\n      mstore\n      sub(shl(0xa0, 0x01), 0x01)\n        /* \"LibertyFinancialChain/LiberttFinancial/exchange.sol\":5284:5296  feeRecipient */\n      swap2\n      dup3\n      and\n        /* \"LibertyFinancialChain/LiberttFinancial/exchange.sol\":5258:5302  IERC20(tokenOut).transfer(feeRecipient, fee) */\n      0x04\n      dup3\n      add\n        /* \"#utility.yul\":8666:8717   */\n      mstore\n        /* \"#utility.yul\":8733:8751   */\n      0x24\n      dup2\n      add\n        /* \"#utility.yul\":8726:8760   */\n      dup5\n      swap1\n      mstore\n        /* \"LibertyFinancialChain/LiberttFinancial/exchange.sol\":5258:5283  IERC20(tokenOut).transfer */\n      swap1\n      dup10\n      and\n      swap1\n      0xa9059cbb\n      swap1\n        /* \"#utility.yul\":8639:8657   */\n      0x44\n      add\n        /* \"LibertyFinancialChain/LiberttFinancial/exchange.sol\":5258:5302  IERC20(tokenOut).transfer(feeRecipient, fee) */\n      0x20\n      mload(0x40)\n      dup1\n      dup4\n      sub\n      dup2\n      0x00\n      dup8\n      gas\n      call\n      iszero\n      dup1\n      iszero\n      tag_352\n      jumpi\n      returndatasize\n      0x00\n      dup1\n      returndatacopy\n      revert(0x00, returndatasize)\n    tag_352:\n      pop\n      pop\n      pop\n      pop\n      mload(0x40)\n      returndatasize\n      not(0x1f)\n      0x1f\n      dup3\n      add\n      and\n      dup3\n      add\n      dup1\n      0x40\n      mstore\n      pop\n      dup2\n      add\n      swap1\n      tag_353\n      swap2\n      swap1\n      tag_185\n      jump\t// in\n    tag_353:\n      pop\n        /* \"LibertyFinancialChain/LiberttFinancial/exchange.sol\":5245:5302  if (fee > 0) IERC20(tokenOut).transfer(feeRecipient, fee) */\n    tag_349:\n        /* \"LibertyFinancialChain/LiberttFinancial/exchange.sol\":5318:5388  SwapGlobal(msg.sender, tokenIn, tokenOut, amountIn, receiverGets, fee) */\n      0x40\n      dup1\n      mload\n        /* \"#utility.yul\":8973:8998   */\n      dup9\n      dup2\n      mstore\n        /* \"#utility.yul\":9029:9031   */\n      0x20\n        /* \"#utility.yul\":9014:9032   */\n      dup2\n      add\n        /* \"#utility.yul\":9007:9041   */\n      dup4\n      swap1\n      mstore\n        /* \"#utility.yul\":9057:9075   */\n      swap1\n      dup2\n      add\n        /* \"#utility.yul\":9050:9084   */\n      dup4\n      swap1\n      mstore\n      sub(shl(0xa0, 0x01), 0x01)\n        /* \"LibertyFinancialChain/LiberttFinancial/exchange.sol\":5318:5388  SwapGlobal(msg.sender, tokenIn, tokenOut, amountIn, receiverGets, fee) */\n      dup1\n      dup11\n      and\n      swap2\n      swap1\n      dup12\n      and\n      swap1\n        /* \"LibertyFinancialChain/LiberttFinancial/exchange.sol\":5329:5339  msg.sender */\n      caller\n      swap1\n        /* \"LibertyFinancialChain/LiberttFinancial/exchange.sol\":5318:5388  SwapGlobal(msg.sender, tokenIn, tokenOut, amountIn, receiverGets, fee) */\n      0xec5098f8c6ad93ee0051f440ec18dcdf5d28b504e6bc4613c0d3adf4695c00c3\n      swap1\n        /* \"#utility.yul\":8961:8963   */\n      0x60\n        /* \"#utility.yul\":8946:8964   */\n      add\n        /* \"LibertyFinancialChain/LiberttFinancial/exchange.sol\":5318:5388  SwapGlobal(msg.sender, tokenIn, tokenOut, amountIn, receiverGets, fee) */\n      mload(0x40)\n      dup1\n      swap2\n      sub\n      swap1\n      log4\n        /* \"LibertyFinancialChain/LiberttFinancial/exchange.sol\":4575:5395  {... */\n      pop\n      pop\n      pop\n      pop\n      pop\n      pop\n        /* \"@openzeppelin/contracts/security/ReentrancyGuard.sol\":2303:2323  _nonReentrantAfter() */\n      tag_218\n        /* \"@openzeppelin/contracts/security/ReentrancyGuard.sol\":1716:1717  1 */\n      0x01\n        /* \"@openzeppelin/contracts/security/ReentrancyGuard.sol\":2809:2831  _status = _NOT_ENTERED */\n      dup1\n      sstore\n        /* \"@openzeppelin/contracts/security/ReentrancyGuard.sol\":2629:2838  function _nonReentrantAfter() private {... */\n      jump\n        /* \"LibertyFinancialChain/LiberttFinancial/exchange.sol\":3877:3997  function getDecimals(address token) public view returns (uint8) {... */\n    tag_122:\n        /* \"LibertyFinancialChain/LiberttFinancial/exchange.sol\":3934:3939  uint8 */\n      0x00\n        /* \"LibertyFinancialChain/LiberttFinancial/exchange.sol\":3973:3978  token */\n      dup2\n      sub(shl(0xa0, 0x01), 0x01)\n        /* \"LibertyFinancialChain/LiberttFinancial/exchange.sol\":3958:3988  IERC20Metadata(token).decimals */\n      and\n      0x313ce567\n        /* \"LibertyFinancialChain/LiberttFinancial/exchange.sol\":3958:3990  IERC20Metadata(token).decimals() */\n      mload(0x40)\n      dup2\n      0xffffffff\n      and\n      0xe0\n      shl\n      dup2\n      mstore\n      0x04\n      add\n      0x20\n      mload(0x40)\n      dup1\n      dup4\n      sub\n      dup2\n      dup7\n      gas\n      staticcall\n      iszero\n      dup1\n      iszero\n      tag_358\n      jumpi\n      returndatasize\n      0x00\n      dup1\n      returndatacopy\n      revert(0x00, returndatasize)\n    tag_358:\n      pop\n      pop\n      pop\n      pop\n      mload(0x40)\n      returndatasize\n      not(0x1f)\n      0x1f\n      dup3\n      add\n      and\n      dup3\n      add\n      dup1\n      0x40\n      mstore\n      pop\n      dup2\n      add\n      swap1\n      tag_140\n      swap2\n      swap1\n      tag_360\n      jump\t// in\n        /* \"LibertyFinancialChain/LiberttFinancial/exchange.sol\":2457:2790  function setGlobalRate(address tokenIn, address tokenOut, uint256 rate) external onlyAdminOrSub {... */\n    tag_127:\n        /* \"LibertyFinancialChain/LiberttFinancial/exchange.sol\":3707:3746  hasRole(DEFAULT_ADMIN_ROLE, msg.sender) */\n      tag_362\n        /* \"@openzeppelin/contracts/access/AccessControl.sol\":2241:2245  0x00 */\n      0x00\n        /* \"LibertyFinancialChain/LiberttFinancial/exchange.sol\":3735:3745  msg.sender */\n      caller\n        /* \"LibertyFinancialChain/LiberttFinancial/exchange.sol\":3707:3714  hasRole */\n      tag_99\n        /* \"LibertyFinancialChain/LiberttFinancial/exchange.sol\":3707:3746  hasRole(DEFAULT_ADMIN_ROLE, msg.sender) */\n      jump\t// in\n    tag_362:\n        /* \"LibertyFinancialChain/LiberttFinancial/exchange.sol\":3707:3784  hasRole(DEFAULT_ADMIN_ROLE, msg.sender) || hasRole(SUBADMIN_ROLE, msg.sender) */\n      dup1\n      tag_364\n      jumpi\n      pop\n        /* \"LibertyFinancialChain/LiberttFinancial/exchange.sol\":3750:3784  hasRole(SUBADMIN_ROLE, msg.sender) */\n      tag_364\n      0x00\n      dup1\n      mload\n      0x20\n      data_c3f76b99666f6818ff0e702cf1728f8564932dfce2026f5d7d90bf00e9ab2863\n      dup4\n      codecopy\n      dup2\n      mload\n      swap2\n      mstore\n        /* \"LibertyFinancialChain/LiberttFinancial/exchange.sol\":3773:3783  msg.sender */\n      caller\n        /* \"LibertyFinancialChain/LiberttFinancial/exchange.sol\":3750:3757  hasRole */\n      tag_99\n        /* \"LibertyFinancialChain/LiberttFinancial/exchange.sol\":3750:3784  hasRole(SUBADMIN_ROLE, msg.sender) */\n      jump\t// in\n    tag_364:\n        /* \"LibertyFinancialChain/LiberttFinancial/exchange.sol\":3699:3807  require(hasRole(DEFAULT_ADMIN_ROLE, msg.sender) || hasRole(SUBADMIN_ROLE, msg.sender), \"Not admin/subadmin\") */\n      tag_365\n      jumpi\n      mload(0x40)\n      shl(0xe5, 0x461bcd)\n      dup2\n      mstore\n      0x04\n      add\n      tag_147\n      swap1\n      tag_280\n      jump\t// in\n    tag_365:\n        /* \"LibertyFinancialChain/LiberttFinancial/exchange.sol\":2578:2579  0 */\n      0x00\n        /* \"LibertyFinancialChain/LiberttFinancial/exchange.sol\":2571:2575  rate */\n      dup2\n        /* \"LibertyFinancialChain/LiberttFinancial/exchange.sol\":2571:2579  rate > 0 */\n      gt\n        /* \"LibertyFinancialChain/LiberttFinancial/exchange.sol\":2563:2593  require(rate > 0, \"Zero rate\") */\n      tag_368\n      jumpi\n      mload(0x40)\n      shl(0xe5, 0x461bcd)\n      dup2\n      mstore\n        /* \"#utility.yul\":14610:14612   */\n      0x20\n        /* \"LibertyFinancialChain/LiberttFinancial/exchange.sol\":2563:2593  require(rate > 0, \"Zero rate\") */\n      0x04\n      dup3\n      add\n        /* \"#utility.yul\":14592:14613   */\n      mstore\n        /* \"#utility.yul\":14649:14650   */\n      0x09\n        /* \"#utility.yul\":14629:14647   */\n      0x24\n      dup3\n      add\n        /* \"#utility.yul\":14622:14651   */\n      mstore\n      shl(0xb8, 0x5a65726f2072617465)\n        /* \"#utility.yul\":14667:14685   */\n      0x44\n      dup3\n      add\n        /* \"#utility.yul\":14660:14699   */\n      mstore\n        /* \"#utility.yul\":14716:14734   */\n      0x64\n      add\n        /* \"LibertyFinancialChain/LiberttFinancial/exchange.sol\":2563:2593  require(rate > 0, \"Zero rate\") */\n      tag_147\n        /* \"#utility.yul\":14408:14740   */\n      jump\n        /* \"LibertyFinancialChain/LiberttFinancial/exchange.sol\":2563:2593  require(rate > 0, \"Zero rate\") */\n    tag_368:\n      sub(shl(0xa0, 0x01), 0x01)\n        /* \"LibertyFinancialChain/LiberttFinancial/exchange.sol\":2611:2633  allowedTokens[tokenIn] */\n      dup4\n      and\n      0x00\n      swap1\n      dup2\n      mstore\n        /* \"LibertyFinancialChain/LiberttFinancial/exchange.sol\":2611:2624  allowedTokens */\n      0x04\n        /* \"LibertyFinancialChain/LiberttFinancial/exchange.sol\":2611:2633  allowedTokens[tokenIn] */\n      0x20\n      mstore\n      0x40\n      swap1\n      keccak256\n      sload\n      0xff\n      and\n        /* \"LibertyFinancialChain/LiberttFinancial/exchange.sol\":2611:2660  allowedTokens[tokenIn] && allowedTokens[tokenOut] */\n      dup1\n      iszero\n      tag_371\n      jumpi\n      pop\n      sub(shl(0xa0, 0x01), 0x01)\n        /* \"LibertyFinancialChain/LiberttFinancial/exchange.sol\":2637:2660  allowedTokens[tokenOut] */\n      dup3\n      and\n      0x00\n      swap1\n      dup2\n      mstore\n        /* \"LibertyFinancialChain/LiberttFinancial/exchange.sol\":2637:2650  allowedTokens */\n      0x04\n        /* \"LibertyFinancialChain/LiberttFinancial/exchange.sol\":2637:2660  allowedTokens[tokenOut] */\n      0x20\n      mstore\n      0x40\n      swap1\n      keccak256\n      sload\n      0xff\n      and\n        /* \"LibertyFinancialChain/LiberttFinancial/exchange.sol\":2611:2660  allowedTokens[tokenIn] && allowedTokens[tokenOut] */\n    tag_371:\n        /* \"LibertyFinancialChain/LiberttFinancial/exchange.sol\":2603:2683  require(allowedTokens[tokenIn] && allowedTokens[tokenOut], \"Tokens not allowed\") */\n      tag_372\n      jumpi\n      mload(0x40)\n      shl(0xe5, 0x461bcd)\n      dup2\n      mstore\n      0x04\n      add\n      tag_147\n      swap1\n      tag_159\n      jump\t// in\n    tag_372:\n      sub(shl(0xa0, 0x01), 0x01)\n        /* \"LibertyFinancialChain/LiberttFinancial/exchange.sol\":2693:2713  globalRates[tokenIn] */\n      dup4\n      dup2\n      and\n      0x00\n      dup2\n      dup2\n      mstore\n        /* \"LibertyFinancialChain/LiberttFinancial/exchange.sol\":2693:2704  globalRates */\n      0x05\n        /* \"LibertyFinancialChain/LiberttFinancial/exchange.sol\":2693:2713  globalRates[tokenIn] */\n      0x20\n      swap1\n      dup2\n      mstore\n      0x40\n      dup1\n      dup4\n      keccak256\n        /* \"LibertyFinancialChain/LiberttFinancial/exchange.sol\":2693:2723  globalRates[tokenIn][tokenOut] */\n      swap5\n      dup8\n      and\n      dup1\n      dup5\n      mstore\n      swap5\n      dup3\n      mstore\n      swap2\n      dup3\n      swap1\n      keccak256\n        /* \"LibertyFinancialChain/LiberttFinancial/exchange.sol\":2693:2730  globalRates[tokenIn][tokenOut] = rate */\n      dup6\n      swap1\n      sstore\n        /* \"LibertyFinancialChain/LiberttFinancial/exchange.sol\":2745:2783  GlobalRateSet(tokenIn, tokenOut, rate) */\n      swap1\n      mload\n        /* \"#utility.yul\":1081:1106   */\n      dup5\n      dup2\n      mstore\n        /* \"LibertyFinancialChain/LiberttFinancial/exchange.sol\":2745:2783  GlobalRateSet(tokenIn, tokenOut, rate) */\n      0xbc337c774e3d398e3abf682de55e83814a46b4ab164a3d8b50740668193e1df5\n      swap2\n        /* \"#utility.yul\":1054:1072   */\n      add\n        /* \"LibertyFinancialChain/LiberttFinancial/exchange.sol\":2745:2783  GlobalRateSet(tokenIn, tokenOut, rate) */\n      mload(0x40)\n      dup1\n      swap2\n      sub\n      swap1\n      log3\n        /* \"LibertyFinancialChain/LiberttFinancial/exchange.sol\":2457:2790  function setGlobalRate(address tokenIn, address tokenOut, uint256 rate) external onlyAdminOrSub {... */\n      pop\n      pop\n      pop\n      jump\t// out\n        /* \"@openzeppelin/contracts/access/AccessControl.sol\":4618:4756  function revokeRole(bytes32 role, address account) public virtual onlyRole(getRoleAdmin(role)) {... */\n    tag_130:\n        /* \"@openzeppelin/contracts/access/AccessControl.sol\":3851:3858  bytes32 */\n      0x00\n        /* \"@openzeppelin/contracts/access/AccessControl.sol\":3877:3889  _roles[role] */\n      dup3\n      dup2\n      mstore\n      0x20\n      dup2\n      swap1\n      mstore\n      0x40\n      swap1\n      keccak256\n        /* \"@openzeppelin/contracts/access/AccessControl.sol\":3877:3899  _roles[role].adminRole */\n      0x01\n      add\n      sload\n        /* \"@openzeppelin/contracts/access/AccessControl.sol\":2473:2489  _checkRole(role) */\n      tag_377\n        /* \"@openzeppelin/contracts/access/AccessControl.sol\":2484:2488  role */\n      dup2\n        /* \"@openzeppelin/contracts/access/AccessControl.sol\":2473:2483  _checkRole */\n      tag_210\n        /* \"@openzeppelin/contracts/access/AccessControl.sol\":2473:2489  _checkRole(role) */\n      jump\t// in\n    tag_377:\n        /* \"@openzeppelin/contracts/access/AccessControl.sol\":4723:4749  _revokeRole(role, account) */\n      tag_212\n        /* \"@openzeppelin/contracts/access/AccessControl.sol\":4735:4739  role */\n      dup4\n        /* \"@openzeppelin/contracts/access/AccessControl.sol\":4741:4748  account */\n      dup4\n        /* \"@openzeppelin/contracts/access/AccessControl.sol\":4723:4734  _revokeRole */\n      tag_219\n        /* \"@openzeppelin/contracts/access/AccessControl.sol\":4723:4749  _revokeRole(role, account) */\n      jump\t// in\n        /* \"LibertyFinancialChain/LiberttFinancial/exchange.sol\":3009:3235  function setFeeRecipient(address recipient) external onlyAdminOrSub {... */\n    tag_137:\n        /* \"LibertyFinancialChain/LiberttFinancial/exchange.sol\":3707:3746  hasRole(DEFAULT_ADMIN_ROLE, msg.sender) */\n      tag_381\n        /* \"@openzeppelin/contracts/access/AccessControl.sol\":2241:2245  0x00 */\n      0x00\n        /* \"LibertyFinancialChain/LiberttFinancial/exchange.sol\":3735:3745  msg.sender */\n      caller\n        /* \"LibertyFinancialChain/LiberttFinancial/exchange.sol\":3707:3714  hasRole */\n      tag_99\n        /* \"LibertyFinancialChain/LiberttFinancial/exchange.sol\":3707:3746  hasRole(DEFAULT_ADMIN_ROLE, msg.sender) */\n      jump\t// in\n    tag_381:\n        /* \"LibertyFinancialChain/LiberttFinancial/exchange.sol\":3707:3784  hasRole(DEFAULT_ADMIN_ROLE, msg.sender) || hasRole(SUBADMIN_ROLE, msg.sender) */\n      dup1\n      tag_383\n      jumpi\n      pop\n        /* \"LibertyFinancialChain/LiberttFinancial/exchange.sol\":3750:3784  hasRole(SUBADMIN_ROLE, msg.sender) */\n      tag_383\n      0x00\n      dup1\n      mload\n      0x20\n      data_c3f76b99666f6818ff0e702cf1728f8564932dfce2026f5d7d90bf00e9ab2863\n      dup4\n      codecopy\n      dup2\n      mload\n      swap2\n      mstore\n        /* \"LibertyFinancialChain/LiberttFinancial/exchange.sol\":3773:3783  msg.sender */\n      caller\n        /* \"LibertyFinancialChain/LiberttFinancial/exchange.sol\":3750:3757  hasRole */\n      tag_99\n        /* \"LibertyFinancialChain/LiberttFinancial/exchange.sol\":3750:3784  hasRole(SUBADMIN_ROLE, msg.sender) */\n      jump\t// in\n    tag_383:\n        /* \"LibertyFinancialChain/LiberttFinancial/exchange.sol\":3699:3807  require(hasRole(DEFAULT_ADMIN_ROLE, msg.sender) || hasRole(SUBADMIN_ROLE, msg.sender), \"Not admin/subadmin\") */\n      tag_384\n      jumpi\n      mload(0x40)\n      shl(0xe5, 0x461bcd)\n      dup2\n      mstore\n      0x04\n      add\n      tag_147\n      swap1\n      tag_280\n      jump\t// in\n    tag_384:\n      sub(shl(0xa0, 0x01), 0x01)\n        /* \"LibertyFinancialChain/LiberttFinancial/exchange.sol\":3095:3118  recipient != address(0) */\n      dup2\n      and\n        /* \"LibertyFinancialChain/LiberttFinancial/exchange.sol\":3087:3135  require(recipient != address(0), \"Zero address\") */\n      tag_387\n      jumpi\n      mload(0x40)\n      shl(0xe5, 0x461bcd)\n      dup2\n      mstore\n        /* \"#utility.yul\":14947:14949   */\n      0x20\n        /* \"LibertyFinancialChain/LiberttFinancial/exchange.sol\":3087:3135  require(recipient != address(0), \"Zero address\") */\n      0x04\n      dup3\n      add\n        /* \"#utility.yul\":14929:14950   */\n      mstore\n        /* \"#utility.yul\":14986:14988   */\n      0x0c\n        /* \"#utility.yul\":14966:14984   */\n      0x24\n      dup3\n      add\n        /* \"#utility.yul\":14959:14989   */\n      mstore\n      shl(0xa0, 0x5a65726f2061646472657373)\n        /* \"#utility.yul\":15005:15023   */\n      0x44\n      dup3\n      add\n        /* \"#utility.yul\":14998:15040   */\n      mstore\n        /* \"#utility.yul\":15057:15075   */\n      0x64\n      add\n        /* \"LibertyFinancialChain/LiberttFinancial/exchange.sol\":3087:3135  require(recipient != address(0), \"Zero address\") */\n      tag_147\n        /* \"#utility.yul\":14745:15081   */\n      jump\n        /* \"LibertyFinancialChain/LiberttFinancial/exchange.sol\":3087:3135  require(recipient != address(0), \"Zero address\") */\n    tag_387:\n        /* \"LibertyFinancialChain/LiberttFinancial/exchange.sol\":3170:3182  feeRecipient */\n      sload(0x03)\n        /* \"LibertyFinancialChain/LiberttFinancial/exchange.sol\":3150:3194  FeeRecipientUpdated(feeRecipient, recipient) */\n      0x40\n      dup1\n      mload\n      sub(shl(0xa0, 0x01), 0x01)\n        /* \"LibertyFinancialChain/LiberttFinancial/exchange.sol\":3170:3182  feeRecipient */\n      swap3\n      dup4\n      and\n        /* \"#utility.yul\":15298:15332   */\n      dup2\n      mstore\n        /* \"#utility.yul\":15368:15383   */\n      swap2\n      dup4\n      and\n        /* \"#utility.yul\":15363:15365   */\n      0x20\n        /* \"#utility.yul\":15348:15366   */\n      dup4\n      add\n        /* \"#utility.yul\":15341:15384   */\n      mstore\n        /* \"LibertyFinancialChain/LiberttFinancial/exchange.sol\":3150:3194  FeeRecipientUpdated(feeRecipient, recipient) */\n      0xaaebcf1bfa00580e41d966056b48521fa9f202645c86d4ddf28113e617c1b1d3\n      swap2\n        /* \"#utility.yul\":15233:15251   */\n      add\n        /* \"LibertyFinancialChain/LiberttFinancial/exchange.sol\":3150:3194  FeeRecipientUpdated(feeRecipient, recipient) */\n      mload(0x40)\n      dup1\n      swap2\n      sub\n      swap1\n      log1\n        /* \"LibertyFinancialChain/LiberttFinancial/exchange.sol\":3204:3216  feeRecipient */\n      0x03\n        /* \"LibertyFinancialChain/LiberttFinancial/exchange.sol\":3204:3228  feeRecipient = recipient */\n      dup1\n      sload\n      not(sub(shl(0xa0, 0x01), 0x01))\n      and\n      sub(shl(0xa0, 0x01), 0x01)\n      swap3\n      swap1\n      swap3\n      and\n      swap2\n      swap1\n      swap2\n      or\n      swap1\n      sstore\n        /* \"LibertyFinancialChain/LiberttFinancial/exchange.sol\":3009:3235  function setFeeRecipient(address recipient) external onlyAdminOrSub {... */\n      jump\t// out\n        /* \"@openzeppelin/contracts/security/ReentrancyGuard.sol\":2336:2623  function _nonReentrantBefore() private {... */\n    tag_144:\n        /* \"@openzeppelin/contracts/security/ReentrancyGuard.sol\":1759:1760  2 */\n      0x02\n        /* \"@openzeppelin/contracts/security/ReentrancyGuard.sol\":2468:2475  _status */\n      sload(0x01)\n        /* \"@openzeppelin/contracts/security/ReentrancyGuard.sol\":2468:2487  _status != _ENTERED */\n      sub\n        /* \"@openzeppelin/contracts/security/ReentrancyGuard.sol\":2460:2523  require(_status != _ENTERED, \"ReentrancyGuard: reentrant call\") */\n      tag_394\n      jumpi\n      mload(0x40)\n      shl(0xe5, 0x461bcd)\n      dup2\n      mstore\n        /* \"#utility.yul\":15597:15599   */\n      0x20\n        /* \"@openzeppelin/contracts/security/ReentrancyGuard.sol\":2460:2523  require(_status != _ENTERED, \"ReentrancyGuard: reentrant call\") */\n      0x04\n      dup3\n      add\n        /* \"#utility.yul\":15579:15600   */\n      mstore\n        /* \"#utility.yul\":15636:15638   */\n      0x1f\n        /* \"#utility.yul\":15616:15634   */\n      0x24\n      dup3\n      add\n        /* \"#utility.yul\":15609:15639   */\n      mstore\n        /* \"#utility.yul\":15675:15708   */\n      0x5265656e7472616e637947756172643a207265656e7472616e742063616c6c00\n        /* \"#utility.yul\":15655:15673   */\n      0x44\n      dup3\n      add\n        /* \"#utility.yul\":15648:15709   */\n      mstore\n        /* \"#utility.yul\":15726:15744   */\n      0x64\n      add\n        /* \"@openzeppelin/contracts/security/ReentrancyGuard.sol\":2460:2523  require(_status != _ENTERED, \"ReentrancyGuard: reentrant call\") */\n      tag_147\n        /* \"#utility.yul\":15395:15750   */\n      jump\n        /* \"@openzeppelin/contracts/security/ReentrancyGuard.sol\":2460:2523  require(_status != _ENTERED, \"ReentrancyGuard: reentrant call\") */\n    tag_394:\n        /* \"@openzeppelin/contracts/security/ReentrancyGuard.sol\":1759:1760  2 */\n      0x02\n        /* \"@openzeppelin/contracts/security/ReentrancyGuard.sol\":2598:2605  _status */\n      0x01\n        /* \"@openzeppelin/contracts/security/ReentrancyGuard.sol\":2598:2616  _status = _ENTERED */\n      sstore\n        /* \"@openzeppelin/contracts/security/ReentrancyGuard.sol\":2336:2623  function _nonReentrantBefore() private {... */\n      jump\t// out\n        /* \"@openzeppelin/contracts/access/AccessControl.sol\":3175:3278  function _checkRole(bytes32 role) internal view virtual {... */\n    tag_210:\n        /* \"@openzeppelin/contracts/access/AccessControl.sol\":3241:3271  _checkRole(role, _msgSender()) */\n      tag_243\n        /* \"@openzeppelin/contracts/access/AccessControl.sol\":3252:3256  role */\n      dup2\n        /* \"@openzeppelin/contracts/utils/Context.sol\":735:745  msg.sender */\n      caller\n        /* \"@openzeppelin/contracts/access/AccessControl.sol\":3241:3251  _checkRole */\n      tag_401\n        /* \"@openzeppelin/contracts/access/AccessControl.sol\":3241:3271  _checkRole(role, _msgSender()) */\n      jump\t// in\n        /* \"@openzeppelin/contracts/access/AccessControl.sol\":6155:6471  function _grantRole(bytes32 role, address account) internal virtual returns (bool) {... */\n    tag_213:\n        /* \"@openzeppelin/contracts/access/AccessControl.sol\":6232:6236  bool */\n      0x00\n        /* \"@openzeppelin/contracts/access/AccessControl.sol\":6253:6275  hasRole(role, account) */\n      tag_403\n        /* \"@openzeppelin/contracts/access/AccessControl.sol\":6261:6265  role */\n      dup4\n        /* \"@openzeppelin/contracts/access/AccessControl.sol\":6267:6274  account */\n      dup4\n        /* \"@openzeppelin/contracts/access/AccessControl.sol\":6253:6260  hasRole */\n      tag_99\n        /* \"@openzeppelin/contracts/access/AccessControl.sol\":6253:6275  hasRole(role, account) */\n      jump\t// in\n    tag_403:\n        /* \"@openzeppelin/contracts/access/AccessControl.sol\":6248:6465  if (!hasRole(role, account)) {... */\n      tag_404\n      jumpi\n        /* \"@openzeppelin/contracts/access/AccessControl.sol\":6291:6297  _roles */\n      0x00\n        /* \"@openzeppelin/contracts/access/AccessControl.sol\":6291:6303  _roles[role] */\n      dup4\n      dup2\n      mstore\n      0x20\n      dup2\n      dup2\n      mstore\n      0x40\n      dup1\n      dup4\n      keccak256\n      sub(shl(0xa0, 0x01), 0x01)\n        /* \"@openzeppelin/contracts/access/AccessControl.sol\":6291:6320  _roles[role].hasRole[account] */\n      dup7\n      and\n      dup5\n      mstore\n      swap1\n      swap2\n      mstore\n      swap1\n      keccak256\n        /* \"@openzeppelin/contracts/access/AccessControl.sol\":6291:6327  _roles[role].hasRole[account] = true */\n      dup1\n      sload\n      not(0xff)\n      and\n        /* \"@openzeppelin/contracts/access/AccessControl.sol\":6323:6327  true */\n      0x01\n        /* \"@openzeppelin/contracts/access/AccessControl.sol\":6291:6327  _roles[role].hasRole[account] = true */\n      or\n      swap1\n      sstore\n        /* \"@openzeppelin/contracts/access/AccessControl.sol\":6373:6385  _msgSender() */\n      tag_405\n        /* \"@openzeppelin/contracts/utils/Context.sol\":735:745  msg.sender */\n      caller\n      swap1\n        /* \"@openzeppelin/contracts/utils/Context.sol\":656:752  function _msgSender() internal view virtual returns (address) {... */\n      jump\n        /* \"@openzeppelin/contracts/access/AccessControl.sol\":6373:6385  _msgSender() */\n    tag_405:\n      sub(shl(0xa0, 0x01), 0x01)\n        /* \"@openzeppelin/contracts/access/AccessControl.sol\":6346:6386  RoleGranted(role, account, _msgSender()) */\n      and\n        /* \"@openzeppelin/contracts/access/AccessControl.sol\":6364:6371  account */\n      dup3\n      sub(shl(0xa0, 0x01), 0x01)\n        /* \"@openzeppelin/contracts/access/AccessControl.sol\":6346:6386  RoleGranted(role, account, _msgSender()) */\n      and\n        /* \"@openzeppelin/contracts/access/AccessControl.sol\":6358:6362  role */\n      dup5\n        /* \"@openzeppelin/contracts/access/AccessControl.sol\":6346:6386  RoleGranted(role, account, _msgSender()) */\n      0x2f8788117e7eff1d82e926ec794901d17c78024a50270940304540a733656f0d\n      mload(0x40)\n      mload(0x40)\n      dup1\n      swap2\n      sub\n      swap1\n      log4\n      pop\n        /* \"@openzeppelin/contracts/access/AccessControl.sol\":6407:6411  true */\n      0x01\n        /* \"@openzeppelin/contracts/access/AccessControl.sol\":6400:6411  return true */\n      jump(tag_140)\n        /* \"@openzeppelin/contracts/access/AccessControl.sol\":6248:6465  if (!hasRole(role, account)) {... */\n    tag_404:\n      pop\n        /* \"@openzeppelin/contracts/access/AccessControl.sol\":6449:6454  false */\n      0x00\n        /* \"@openzeppelin/contracts/access/AccessControl.sol\":6442:6454  return false */\n      jump(tag_140)\n        /* \"@openzeppelin/contracts/access/AccessControl.sol\":6708:7025  function _revokeRole(bytes32 role, address account) internal virtual returns (bool) {... */\n    tag_219:\n        /* \"@openzeppelin/contracts/access/AccessControl.sol\":6786:6790  bool */\n      0x00\n        /* \"@openzeppelin/contracts/access/AccessControl.sol\":6806:6828  hasRole(role, account) */\n      tag_409\n        /* \"@openzeppelin/contracts/access/AccessControl.sol\":6814:6818  role */\n      dup4\n        /* \"@openzeppelin/contracts/access/AccessControl.sol\":6820:6827  account */\n      dup4\n        /* \"@openzeppelin/contracts/access/AccessControl.sol\":6806:6813  hasRole */\n      tag_99\n        /* \"@openzeppelin/contracts/access/AccessControl.sol\":6806:6828  hasRole(role, account) */\n      jump\t// in\n    tag_409:\n        /* \"@openzeppelin/contracts/access/AccessControl.sol\":6802:7019  if (hasRole(role, account)) {... */\n      iszero\n      tag_404\n      jumpi\n        /* \"@openzeppelin/contracts/access/AccessControl.sol\":6876:6881  false */\n      0x00\n        /* \"@openzeppelin/contracts/access/AccessControl.sol\":6844:6856  _roles[role] */\n      dup4\n      dup2\n      mstore\n      0x20\n      dup2\n      dup2\n      mstore\n      0x40\n      dup1\n      dup4\n      keccak256\n      sub(shl(0xa0, 0x01), 0x01)\n        /* \"@openzeppelin/contracts/access/AccessControl.sol\":6844:6873  _roles[role].hasRole[account] */\n      dup7\n      and\n      dup1\n      dup6\n      mstore\n      swap3\n      mstore\n      dup1\n      dup4\n      keccak256\n        /* \"@openzeppelin/contracts/access/AccessControl.sol\":6844:6881  _roles[role].hasRole[account] = false */\n      dup1\n      sload\n      not(0xff)\n      and\n      swap1\n      sstore\n        /* \"@openzeppelin/contracts/access/AccessControl.sol\":6900:6940  RoleRevoked(role, account, _msgSender()) */\n      mload\n        /* \"@openzeppelin/contracts/utils/Context.sol\":735:745  msg.sender */\n      caller\n      swap3\n        /* \"@openzeppelin/contracts/access/AccessControl.sol\":6844:6856  _roles[role] */\n      dup7\n      swap2\n        /* \"@openzeppelin/contracts/access/AccessControl.sol\":6900:6940  RoleRevoked(role, account, _msgSender()) */\n      0xf6391f5c32d9c69d2a47ea670b442974b53935d1edc7fd64eb21e047a839171b\n      swap2\n        /* \"@openzeppelin/contracts/access/AccessControl.sol\":6876:6881  false */\n      swap1\n        /* \"@openzeppelin/contracts/access/AccessControl.sol\":6900:6940  RoleRevoked(role, account, _msgSender()) */\n      log4\n      pop\n        /* \"@openzeppelin/contracts/access/AccessControl.sol\":6961:6965  true */\n      0x01\n        /* \"@openzeppelin/contracts/access/AccessControl.sol\":6954:6965  return true */\n      jump(tag_140)\n        /* \"@openzeppelin/contracts/access/AccessControl.sol\":3408:3605  function _checkRole(bytes32 role, address account) internal view virtual {... */\n    tag_401:\n        /* \"@openzeppelin/contracts/access/AccessControl.sol\":3496:3518  hasRole(role, account) */\n      tag_414\n        /* \"@openzeppelin/contracts/access/AccessControl.sol\":3504:3508  role */\n      dup3\n        /* \"@openzeppelin/contracts/access/AccessControl.sol\":3510:3517  account */\n      dup3\n        /* \"@openzeppelin/contracts/access/AccessControl.sol\":3496:3503  hasRole */\n      tag_99\n        /* \"@openzeppelin/contracts/access/AccessControl.sol\":3496:3518  hasRole(role, account) */\n      jump\t// in\n    tag_414:\n        /* \"@openzeppelin/contracts/access/AccessControl.sol\":3491:3599  if (!hasRole(role, account)) {... */\n      tag_204\n      jumpi\n        /* \"@openzeppelin/contracts/access/AccessControl.sol\":3541:3588  AccessControlUnauthorizedAccount(account, role) */\n      mload(0x40)\n      shl(0xe0, 0xe2517d3f)\n      dup2\n      mstore\n      sub(shl(0xa0, 0x01), 0x01)\n        /* \"#utility.yul\":8684:8716   */\n      dup3\n      and\n        /* \"@openzeppelin/contracts/access/AccessControl.sol\":3541:3588  AccessControlUnauthorizedAccount(account, role) */\n      0x04\n      dup3\n      add\n        /* \"#utility.yul\":8666:8717   */\n      mstore\n        /* \"#utility.yul\":8733:8751   */\n      0x24\n      dup2\n      add\n        /* \"#utility.yul\":8726:8760   */\n      dup4\n      swap1\n      mstore\n        /* \"#utility.yul\":8639:8657   */\n      0x44\n      add\n        /* \"@openzeppelin/contracts/access/AccessControl.sol\":3541:3588  AccessControlUnauthorizedAccount(account, role) */\n      tag_147\n        /* \"#utility.yul\":8492:8766   */\n      jump\n        /* \"#utility.yul\":14:300   */\n    tag_36:\n        /* \"#utility.yul\":72:78   */\n      0x00\n        /* \"#utility.yul\":125:127   */\n      0x20\n        /* \"#utility.yul\":113:122   */\n      dup3\n        /* \"#utility.yul\":104:111   */\n      dup5\n        /* \"#utility.yul\":100:123   */\n      sub\n        /* \"#utility.yul\":96:128   */\n      slt\n        /* \"#utility.yul\":93:145   */\n      iszero\n      tag_425\n      jumpi\n        /* \"#utility.yul\":141:142   */\n      0x00\n        /* \"#utility.yul\":138:139   */\n      dup1\n        /* \"#utility.yul\":131:143   */\n      revert\n        /* \"#utility.yul\":93:145   */\n    tag_425:\n        /* \"#utility.yul\":167:190   */\n      dup2\n      calldataload\n      not(sub(shl(0xe0, 0x01), 0x01))\n        /* \"#utility.yul\":219:251   */\n      dup2\n      and\n        /* \"#utility.yul\":209:252   */\n      dup2\n      eq\n        /* \"#utility.yul\":199:270   */\n      tag_426\n      jumpi\n        /* \"#utility.yul\":266:267   */\n      0x00\n        /* \"#utility.yul\":263:264   */\n      dup1\n        /* \"#utility.yul\":256:268   */\n      revert\n        /* \"#utility.yul\":199:270   */\n    tag_426:\n        /* \"#utility.yul\":289:294   */\n      swap4\n        /* \"#utility.yul\":14:300   */\n      swap3\n      pop\n      pop\n      pop\n      jump\t// out\n        /* \"#utility.yul\":497:745   */\n    tag_42:\n        /* \"#utility.yul\":565:571   */\n      0x00\n        /* \"#utility.yul\":573:579   */\n      dup1\n        /* \"#utility.yul\":626:628   */\n      0x40\n        /* \"#utility.yul\":614:623   */\n      dup4\n        /* \"#utility.yul\":605:612   */\n      dup6\n        /* \"#utility.yul\":601:624   */\n      sub\n        /* \"#utility.yul\":597:629   */\n      slt\n        /* \"#utility.yul\":594:646   */\n      iszero\n      tag_429\n      jumpi\n        /* \"#utility.yul\":642:643   */\n      0x00\n        /* \"#utility.yul\":639:640   */\n      dup1\n        /* \"#utility.yul\":632:644   */\n      revert\n        /* \"#utility.yul\":594:646   */\n    tag_429:\n      pop\n      pop\n        /* \"#utility.yul\":665:688   */\n      dup1\n      calldataload\n      swap3\n        /* \"#utility.yul\":735:737   */\n      0x20\n        /* \"#utility.yul\":720:738   */\n      swap1\n      swap2\n      add\n        /* \"#utility.yul\":707:739   */\n      calldataload\n      swap2\n      pop\n        /* \"#utility.yul\":497:745   */\n      jump\t// out\n        /* \"#utility.yul\":750:930   */\n    tag_46:\n        /* \"#utility.yul\":809:815   */\n      0x00\n        /* \"#utility.yul\":862:864   */\n      0x20\n        /* \"#utility.yul\":850:859   */\n      dup3\n        /* \"#utility.yul\":841:848   */\n      dup5\n        /* \"#utility.yul\":837:860   */\n      sub\n        /* \"#utility.yul\":833:865   */\n      slt\n        /* \"#utility.yul\":830:882   */\n      iszero\n      tag_431\n      jumpi\n        /* \"#utility.yul\":878:879   */\n      0x00\n        /* \"#utility.yul\":875:876   */\n      dup1\n        /* \"#utility.yul\":868:880   */\n      revert\n        /* \"#utility.yul\":830:882   */\n    tag_431:\n      pop\n        /* \"#utility.yul\":901:924   */\n      calldataload\n      swap2\n        /* \"#utility.yul\":750:930   */\n      swap1\n      pop\n      jump\t// out\n        /* \"#utility.yul\":1117:1290   */\n    tag_418:\n        /* \"#utility.yul\":1185:1205   */\n      dup1\n      calldataload\n      sub(shl(0xa0, 0x01), 0x01)\n        /* \"#utility.yul\":1234:1265   */\n      dup2\n      and\n        /* \"#utility.yul\":1224:1266   */\n      dup2\n      eq\n        /* \"#utility.yul\":1214:1284   */\n      tag_434\n      jumpi\n        /* \"#utility.yul\":1280:1281   */\n      0x00\n        /* \"#utility.yul\":1277:1278   */\n      dup1\n        /* \"#utility.yul\":1270:1282   */\n      revert\n        /* \"#utility.yul\":1214:1284   */\n    tag_434:\n        /* \"#utility.yul\":1117:1290   */\n      swap2\n      swap1\n      pop\n      jump\t// out\n        /* \"#utility.yul\":1295:1549   */\n    tag_52:\n        /* \"#utility.yul\":1363:1369   */\n      0x00\n        /* \"#utility.yul\":1371:1377   */\n      dup1\n        /* \"#utility.yul\":1424:1426   */\n      0x40\n        /* \"#utility.yul\":1412:1421   */\n      dup4\n        /* \"#utility.yul\":1403:1410   */\n      dup6\n        /* \"#utility.yul\":1399:1422   */\n      sub\n        /* \"#utility.yul\":1395:1427   */\n      slt\n        /* \"#utility.yul\":1392:1444   */\n      iszero\n      tag_436\n      jumpi\n        /* \"#utility.yul\":1440:1441   */\n      0x00\n        /* \"#utility.yul\":1437:1438   */\n      dup1\n        /* \"#utility.yul\":1430:1442   */\n      revert\n        /* \"#utility.yul\":1392:1444   */\n    tag_436:\n        /* \"#utility.yul\":1476:1485   */\n      dup3\n        /* \"#utility.yul\":1463:1486   */\n      calldataload\n        /* \"#utility.yul\":1453:1486   */\n      swap2\n      pop\n        /* \"#utility.yul\":1505:1543   */\n      tag_437\n        /* \"#utility.yul\":1539:1541   */\n      0x20\n        /* \"#utility.yul\":1528:1537   */\n      dup5\n        /* \"#utility.yul\":1524:1542   */\n      add\n        /* \"#utility.yul\":1505:1543   */\n      tag_418\n      jump\t// in\n    tag_437:\n        /* \"#utility.yul\":1495:1543   */\n      swap1\n      pop\n        /* \"#utility.yul\":1295:1549   */\n      swap3\n      pop\n      swap3\n      swap1\n      pop\n      jump\t// out\n        /* \"#utility.yul\":1736:1996   */\n    tag_60:\n        /* \"#utility.yul\":1804:1810   */\n      0x00\n        /* \"#utility.yul\":1812:1818   */\n      dup1\n        /* \"#utility.yul\":1865:1867   */\n      0x40\n        /* \"#utility.yul\":1853:1862   */\n      dup4\n        /* \"#utility.yul\":1844:1851   */\n      dup6\n        /* \"#utility.yul\":1840:1863   */\n      sub\n        /* \"#utility.yul\":1836:1868   */\n      slt\n        /* \"#utility.yul\":1833:1885   */\n      iszero\n      tag_440\n      jumpi\n        /* \"#utility.yul\":1881:1882   */\n      0x00\n        /* \"#utility.yul\":1878:1879   */\n      dup1\n        /* \"#utility.yul\":1871:1883   */\n      revert\n        /* \"#utility.yul\":1833:1885   */\n    tag_440:\n        /* \"#utility.yul\":1904:1933   */\n      tag_441\n        /* \"#utility.yul\":1923:1932   */\n      dup4\n        /* \"#utility.yul\":1904:1933   */\n      tag_418\n      jump\t// in\n    tag_441:\n        /* \"#utility.yul\":1894:1933   */\n      swap2\n      pop\n        /* \"#utility.yul\":1952:1990   */\n      tag_437\n        /* \"#utility.yul\":1986:1988   */\n      0x20\n        /* \"#utility.yul\":1975:1984   */\n      dup5\n        /* \"#utility.yul\":1971:1989   */\n      add\n        /* \"#utility.yul\":1952:1990   */\n      tag_418\n      jump\t// in\n        /* \"#utility.yul\":2209:2395   */\n    tag_72:\n        /* \"#utility.yul\":2268:2274   */\n      0x00\n        /* \"#utility.yul\":2321:2323   */\n      0x20\n        /* \"#utility.yul\":2309:2318   */\n      dup3\n        /* \"#utility.yul\":2300:2307   */\n      dup5\n        /* \"#utility.yul\":2296:2319   */\n      sub\n        /* \"#utility.yul\":2292:2324   */\n      slt\n        /* \"#utility.yul\":2289:2341   */\n      iszero\n      tag_445\n      jumpi\n        /* \"#utility.yul\":2337:2338   */\n      0x00\n        /* \"#utility.yul\":2334:2335   */\n      dup1\n        /* \"#utility.yul\":2327:2339   */\n      revert\n        /* \"#utility.yul\":2289:2341   */\n    tag_445:\n        /* \"#utility.yul\":2360:2389   */\n      tag_426\n        /* \"#utility.yul\":2379:2388   */\n      dup3\n        /* \"#utility.yul\":2360:2389   */\n      tag_418\n      jump\t// in\n        /* \"#utility.yul\":2585:3051   */\n    tag_80:\n        /* \"#utility.yul\":2680:2686   */\n      0x00\n        /* \"#utility.yul\":2688:2694   */\n      dup1\n        /* \"#utility.yul\":2696:2702   */\n      0x00\n        /* \"#utility.yul\":2704:2710   */\n      dup1\n        /* \"#utility.yul\":2712:2718   */\n      0x00\n        /* \"#utility.yul\":2765:2768   */\n      0xa0\n        /* \"#utility.yul\":2753:2762   */\n      dup7\n        /* \"#utility.yul\":2744:2751   */\n      dup9\n        /* \"#utility.yul\":2740:2763   */\n      sub\n        /* \"#utility.yul\":2736:2769   */\n      slt\n        /* \"#utility.yul\":2733:2786   */\n      iszero\n      tag_450\n      jumpi\n        /* \"#utility.yul\":2782:2783   */\n      0x00\n        /* \"#utility.yul\":2779:2780   */\n      dup1\n        /* \"#utility.yul\":2772:2784   */\n      revert\n        /* \"#utility.yul\":2733:2786   */\n    tag_450:\n        /* \"#utility.yul\":2805:2834   */\n      tag_451\n        /* \"#utility.yul\":2824:2833   */\n      dup7\n        /* \"#utility.yul\":2805:2834   */\n      tag_418\n      jump\t// in\n    tag_451:\n        /* \"#utility.yul\":2795:2834   */\n      swap5\n      pop\n        /* \"#utility.yul\":2853:2891   */\n      tag_452\n        /* \"#utility.yul\":2887:2889   */\n      0x20\n        /* \"#utility.yul\":2876:2885   */\n      dup8\n        /* \"#utility.yul\":2872:2890   */\n      add\n        /* \"#utility.yul\":2853:2891   */\n      tag_418\n      jump\t// in\n    tag_452:\n        /* \"#utility.yul\":2585:3051   */\n      swap5\n      swap8\n        /* \"#utility.yul\":2843:2891   */\n      swap5\n      swap7\n      pop\n      pop\n      pop\n      pop\n        /* \"#utility.yul\":2938:2940   */\n      0x40\n        /* \"#utility.yul\":2923:2941   */\n      dup4\n      add\n        /* \"#utility.yul\":2910:2942   */\n      calldataload\n      swap3\n        /* \"#utility.yul\":2989:2991   */\n      0x60\n        /* \"#utility.yul\":2974:2992   */\n      dup2\n      add\n        /* \"#utility.yul\":2961:2993   */\n      calldataload\n      swap3\n        /* \"#utility.yul\":3040:3043   */\n      0x80\n        /* \"#utility.yul\":3025:3044   */\n      swap1\n      swap2\n      add\n        /* \"#utility.yul\":3012:3045   */\n      calldataload\n      swap2\n      pop\n        /* \"#utility.yul\":2585:3051   */\n      jump\t// out\n        /* \"#utility.yul\":3056:3310   */\n    tag_84:\n        /* \"#utility.yul\":3124:3130   */\n      0x00\n        /* \"#utility.yul\":3132:3138   */\n      dup1\n        /* \"#utility.yul\":3185:3187   */\n      0x40\n        /* \"#utility.yul\":3173:3182   */\n      dup4\n        /* \"#utility.yul\":3164:3171   */\n      dup6\n        /* \"#utility.yul\":3160:3183   */\n      sub\n        /* \"#utility.yul\":3156:3188   */\n      slt\n        /* \"#utility.yul\":3153:3205   */\n      iszero\n      tag_454\n      jumpi\n        /* \"#utility.yul\":3201:3202   */\n      0x00\n        /* \"#utility.yul\":3198:3199   */\n      dup1\n        /* \"#utility.yul\":3191:3203   */\n      revert\n        /* \"#utility.yul\":3153:3205   */\n    tag_454:\n        /* \"#utility.yul\":3224:3253   */\n      tag_455\n        /* \"#utility.yul\":3243:3252   */\n      dup4\n        /* \"#utility.yul\":3224:3253   */\n      tag_418\n      jump\t// in\n    tag_455:\n        /* \"#utility.yul\":3214:3253   */\n      swap5\n        /* \"#utility.yul\":3300:3302   */\n      0x20\n        /* \"#utility.yul\":3285:3303   */\n      swap4\n      swap1\n      swap4\n      add\n        /* \"#utility.yul\":3272:3304   */\n      calldataload\n      swap4\n      pop\n      pop\n      pop\n        /* \"#utility.yul\":3056:3310   */\n      jump\t// out\n        /* \"#utility.yul\":3315:3433   */\n    tag_419:\n        /* \"#utility.yul\":3401:3406   */\n      dup1\n        /* \"#utility.yul\":3394:3407   */\n      iszero\n        /* \"#utility.yul\":3387:3408   */\n      iszero\n        /* \"#utility.yul\":3380:3385   */\n      dup2\n        /* \"#utility.yul\":3377:3409   */\n      eq\n        /* \"#utility.yul\":3367:3427   */\n      tag_243\n      jumpi\n        /* \"#utility.yul\":3423:3424   */\n      0x00\n        /* \"#utility.yul\":3420:3421   */\n      dup1\n        /* \"#utility.yul\":3413:3425   */\n      revert\n        /* \"#utility.yul\":3438:3753   */\n    tag_95:\n        /* \"#utility.yul\":3503:3509   */\n      0x00\n        /* \"#utility.yul\":3511:3517   */\n      dup1\n        /* \"#utility.yul\":3564:3566   */\n      0x40\n        /* \"#utility.yul\":3552:3561   */\n      dup4\n        /* \"#utility.yul\":3543:3550   */\n      dup6\n        /* \"#utility.yul\":3539:3562   */\n      sub\n        /* \"#utility.yul\":3535:3567   */\n      slt\n        /* \"#utility.yul\":3532:3584   */\n      iszero\n      tag_459\n      jumpi\n        /* \"#utility.yul\":3580:3581   */\n      0x00\n        /* \"#utility.yul\":3577:3578   */\n      dup1\n        /* \"#utility.yul\":3570:3582   */\n      revert\n        /* \"#utility.yul\":3532:3584   */\n    tag_459:\n        /* \"#utility.yul\":3603:3632   */\n      tag_460\n        /* \"#utility.yul\":3622:3631   */\n      dup4\n        /* \"#utility.yul\":3603:3632   */\n      tag_418\n      jump\t// in\n    tag_460:\n        /* \"#utility.yul\":3593:3632   */\n      swap2\n      pop\n        /* \"#utility.yul\":3682:3684   */\n      0x20\n        /* \"#utility.yul\":3671:3680   */\n      dup4\n        /* \"#utility.yul\":3667:3685   */\n      add\n        /* \"#utility.yul\":3654:3686   */\n      calldataload\n        /* \"#utility.yul\":3695:3723   */\n      tag_461\n        /* \"#utility.yul\":3717:3722   */\n      dup2\n        /* \"#utility.yul\":3695:3723   */\n      tag_419\n      jump\t// in\n    tag_461:\n        /* \"#utility.yul\":3742:3747   */\n      dup1\n        /* \"#utility.yul\":3732:3747   */\n      swap2\n      pop\n      pop\n        /* \"#utility.yul\":3438:3753   */\n      swap3\n      pop\n      swap3\n      swap1\n      pop\n      jump\t// out\n        /* \"#utility.yul\":4517:4845   */\n    tag_118:\n        /* \"#utility.yul\":4594:4600   */\n      0x00\n        /* \"#utility.yul\":4602:4608   */\n      dup1\n        /* \"#utility.yul\":4610:4616   */\n      0x00\n        /* \"#utility.yul\":4663:4665   */\n      0x60\n        /* \"#utility.yul\":4651:4660   */\n      dup5\n        /* \"#utility.yul\":4642:4649   */\n      dup7\n        /* \"#utility.yul\":4638:4661   */\n      sub\n        /* \"#utility.yul\":4634:4666   */\n      slt\n        /* \"#utility.yul\":4631:4683   */\n      iszero\n      tag_464\n      jumpi\n        /* \"#utility.yul\":4679:4680   */\n      0x00\n        /* \"#utility.yul\":4676:4677   */\n      dup1\n        /* \"#utility.yul\":4669:4681   */\n      revert\n        /* \"#utility.yul\":4631:4683   */\n    tag_464:\n        /* \"#utility.yul\":4702:4731   */\n      tag_465\n        /* \"#utility.yul\":4721:4730   */\n      dup5\n        /* \"#utility.yul\":4702:4731   */\n      tag_418\n      jump\t// in\n    tag_465:\n        /* \"#utility.yul\":4692:4731   */\n      swap3\n      pop\n        /* \"#utility.yul\":4750:4788   */\n      tag_466\n        /* \"#utility.yul\":4784:4786   */\n      0x20\n        /* \"#utility.yul\":4773:4782   */\n      dup6\n        /* \"#utility.yul\":4769:4787   */\n      add\n        /* \"#utility.yul\":4750:4788   */\n      tag_418\n      jump\t// in\n    tag_466:\n        /* \"#utility.yul\":4740:4788   */\n      swap2\n      pop\n        /* \"#utility.yul\":4835:4837   */\n      0x40\n        /* \"#utility.yul\":4824:4833   */\n      dup5\n        /* \"#utility.yul\":4820:4838   */\n      add\n        /* \"#utility.yul\":4807:4839   */\n      calldataload\n        /* \"#utility.yul\":4797:4839   */\n      swap1\n      pop\n        /* \"#utility.yul\":4517:4845   */\n      swap3\n      pop\n      swap3\n      pop\n      swap3\n      jump\t// out\n        /* \"#utility.yul\":5374:5501   */\n    tag_151:\n        /* \"#utility.yul\":5435:5445   */\n      0x4e487b71\n        /* \"#utility.yul\":5430:5433   */\n      0xe0\n        /* \"#utility.yul\":5426:5446   */\n      shl\n        /* \"#utility.yul\":5423:5424   */\n      0x00\n        /* \"#utility.yul\":5416:5447   */\n      mstore\n        /* \"#utility.yul\":5466:5470   */\n      0x32\n        /* \"#utility.yul\":5463:5464   */\n      0x04\n        /* \"#utility.yul\":5456:5471   */\n      mstore\n        /* \"#utility.yul\":5490:5494   */\n      0x24\n        /* \"#utility.yul\":5487:5488   */\n      0x00\n        /* \"#utility.yul\":5480:5495   */\n      revert\n        /* \"#utility.yul\":5842:6184   */\n    tag_159:\n        /* \"#utility.yul\":6044:6046   */\n      0x20\n        /* \"#utility.yul\":6026:6047   */\n      dup1\n      dup3\n      mstore\n        /* \"#utility.yul\":6083:6085   */\n      0x12\n        /* \"#utility.yul\":6063:6081   */\n      swap1\n      dup3\n      add\n        /* \"#utility.yul\":6056:6086   */\n      mstore\n      shl(0x72, 0x151bdad95b9cc81b9bdd08185b1b1bddd959)\n        /* \"#utility.yul\":6117:6119   */\n      0x40\n        /* \"#utility.yul\":6102:6120   */\n      dup3\n      add\n        /* \"#utility.yul\":6095:6143   */\n      mstore\n        /* \"#utility.yul\":6175:6177   */\n      0x60\n        /* \"#utility.yul\":6160:6178   */\n      add\n      swap1\n        /* \"#utility.yul\":5842:6184   */\n      jump\t// out\n        /* \"#utility.yul\":6865:6992   */\n    tag_420:\n        /* \"#utility.yul\":6926:6936   */\n      0x4e487b71\n        /* \"#utility.yul\":6921:6924   */\n      0xe0\n        /* \"#utility.yul\":6917:6937   */\n      shl\n        /* \"#utility.yul\":6914:6915   */\n      0x00\n        /* \"#utility.yul\":6907:6938   */\n      mstore\n        /* \"#utility.yul\":6957:6961   */\n      0x11\n        /* \"#utility.yul\":6954:6955   */\n      0x04\n        /* \"#utility.yul\":6947:6962   */\n      mstore\n        /* \"#utility.yul\":6981:6985   */\n      0x24\n        /* \"#utility.yul\":6978:6979   */\n      0x00\n        /* \"#utility.yul\":6971:6986   */\n      revert\n        /* \"#utility.yul\":6997:7165   */\n    tag_169:\n        /* \"#utility.yul\":7070:7079   */\n      dup1\n      dup3\n      mul\n        /* \"#utility.yul\":7101:7110   */\n      dup2\n      iszero\n        /* \"#utility.yul\":7118:7133   */\n      dup3\n      dup3\n      div\n        /* \"#utility.yul\":7112:7134   */\n      dup5\n      eq\n        /* \"#utility.yul\":7098:7135   */\n      or\n        /* \"#utility.yul\":7088:7159   */\n      tag_140\n      jumpi\n        /* \"#utility.yul\":7139:7157   */\n      tag_140\n      tag_420\n      jump\t// in\n        /* \"#utility.yul\":7170:7387   */\n    tag_171:\n        /* \"#utility.yul\":7210:7211   */\n      0x00\n        /* \"#utility.yul\":7236:7237   */\n      dup3\n        /* \"#utility.yul\":7226:7358   */\n      tag_479\n      jumpi\n        /* \"#utility.yul\":7280:7290   */\n      0x4e487b71\n        /* \"#utility.yul\":7275:7278   */\n      0xe0\n        /* \"#utility.yul\":7271:7291   */\n      shl\n        /* \"#utility.yul\":7268:7269   */\n      0x00\n        /* \"#utility.yul\":7261:7292   */\n      mstore\n        /* \"#utility.yul\":7315:7319   */\n      0x12\n        /* \"#utility.yul\":7312:7313   */\n      0x04\n        /* \"#utility.yul\":7305:7320   */\n      mstore\n        /* \"#utility.yul\":7343:7347   */\n      0x24\n        /* \"#utility.yul\":7340:7341   */\n      0x00\n        /* \"#utility.yul\":7333:7348   */\n      revert\n        /* \"#utility.yul\":7226:7358   */\n    tag_479:\n      pop\n        /* \"#utility.yul\":7372:7381   */\n      div\n      swap1\n        /* \"#utility.yul\":7170:7387   */\n      jump\t// out\n        /* \"#utility.yul\":7392:7520   */\n    tag_176:\n        /* \"#utility.yul\":7459:7468   */\n      dup2\n      dup2\n      sub\n        /* \"#utility.yul\":7480:7491   */\n      dup2\n      dup2\n      gt\n        /* \"#utility.yul\":7477:7514   */\n      iszero\n      tag_140\n      jumpi\n        /* \"#utility.yul\":7494:7512   */\n      tag_140\n      tag_420\n      jump\t// in\n        /* \"#utility.yul\":8242:8487   */\n    tag_185:\n        /* \"#utility.yul\":8309:8315   */\n      0x00\n        /* \"#utility.yul\":8362:8364   */\n      0x20\n        /* \"#utility.yul\":8350:8359   */\n      dup3\n        /* \"#utility.yul\":8341:8348   */\n      dup5\n        /* \"#utility.yul\":8337:8360   */\n      sub\n        /* \"#utility.yul\":8333:8365   */\n      slt\n        /* \"#utility.yul\":8330:8382   */\n      iszero\n      tag_486\n      jumpi\n        /* \"#utility.yul\":8378:8379   */\n      0x00\n        /* \"#utility.yul\":8375:8376   */\n      dup1\n        /* \"#utility.yul\":8368:8380   */\n      revert\n        /* \"#utility.yul\":8330:8382   */\n    tag_486:\n        /* \"#utility.yul\":8410:8419   */\n      dup2\n        /* \"#utility.yul\":8404:8420   */\n      mload\n        /* \"#utility.yul\":8429:8457   */\n      tag_426\n        /* \"#utility.yul\":8451:8456   */\n      dup2\n        /* \"#utility.yul\":8429:8457   */\n      tag_419\n      jump\t// in\n        /* \"#utility.yul\":9771:9896   */\n    tag_254:\n        /* \"#utility.yul\":9836:9845   */\n      dup1\n      dup3\n      add\n        /* \"#utility.yul\":9857:9867   */\n      dup1\n      dup3\n      gt\n        /* \"#utility.yul\":9854:9890   */\n      iszero\n      tag_140\n      jumpi\n        /* \"#utility.yul\":9870:9888   */\n      tag_140\n      tag_420\n      jump\t// in\n        /* \"#utility.yul\":10425:10576   */\n    tag_270:\n        /* \"#utility.yul\":10515:10519   */\n      0xff\n        /* \"#utility.yul\":10508:10520   */\n      dup3\n      dup2\n      and\n        /* \"#utility.yul\":10494:10506   */\n      dup3\n      dup3\n      and\n        /* \"#utility.yul\":10490:10521   */\n      sub\n      swap1\n        /* \"#utility.yul\":10533:10547   */\n      dup2\n      gt\n        /* \"#utility.yul\":10530:10570   */\n      iszero\n      tag_140\n      jumpi\n        /* \"#utility.yul\":10550:10568   */\n      tag_140\n      tag_420\n      jump\t// in\n        /* \"#utility.yul\":10581:11003   */\n    tag_421:\n        /* \"#utility.yul\":10670:10671   */\n      0x01\n        /* \"#utility.yul\":10713:10718   */\n      dup2\n        /* \"#utility.yul\":10670:10671   */\n      dup2\n        /* \"#utility.yul\":10727:10997   */\n    tag_500:\n        /* \"#utility.yul\":10748:10755   */\n      dup1\n        /* \"#utility.yul\":10738:10746   */\n      dup6\n        /* \"#utility.yul\":10735:10756   */\n      gt\n        /* \"#utility.yul\":10727:10997   */\n      iszero\n      tag_502\n      jumpi\n        /* \"#utility.yul\":10807:10811   */\n      dup2\n        /* \"#utility.yul\":10803:10804   */\n      0x00\n        /* \"#utility.yul\":10799:10805   */\n      not\n        /* \"#utility.yul\":10795:10812   */\n      div\n        /* \"#utility.yul\":10789:10793   */\n      dup3\n        /* \"#utility.yul\":10786:10813   */\n      gt\n        /* \"#utility.yul\":10783:10836   */\n      iszero\n      tag_504\n      jumpi\n        /* \"#utility.yul\":10816:10834   */\n      tag_504\n      tag_420\n      jump\t// in\n    tag_504:\n        /* \"#utility.yul\":10866:10873   */\n      dup1\n        /* \"#utility.yul\":10856:10864   */\n      dup6\n        /* \"#utility.yul\":10852:10874   */\n      and\n        /* \"#utility.yul\":10849:10904   */\n      iszero\n      tag_505\n      jumpi\n        /* \"#utility.yul\":10886:10902   */\n      swap2\n      dup2\n      mul\n      swap2\n        /* \"#utility.yul\":10849:10904   */\n    tag_505:\n        /* \"#utility.yul\":10965:10987   */\n      swap4\n      dup5\n      shr\n      swap4\n        /* \"#utility.yul\":10925:10940   */\n      swap1\n      dup1\n      mul\n      swap1\n        /* \"#utility.yul\":10727:10997   */\n      jump(tag_500)\n    tag_502:\n        /* \"#utility.yul\":10731:10734   */\n      pop\n        /* \"#utility.yul\":10581:11003   */\n      swap3\n      pop\n      swap3\n      swap1\n      pop\n      jump\t// out\n        /* \"#utility.yul\":11008:11814   */\n    tag_422:\n        /* \"#utility.yul\":11057:11062   */\n      0x00\n        /* \"#utility.yul\":11087:11095   */\n      dup3\n        /* \"#utility.yul\":11077:11157   */\n      tag_507\n      jumpi\n      pop\n        /* \"#utility.yul\":11128:11129   */\n      0x01\n        /* \"#utility.yul\":11142:11147   */\n      jump(tag_140)\n        /* \"#utility.yul\":11077:11157   */\n    tag_507:\n        /* \"#utility.yul\":11176:11180   */\n      dup2\n        /* \"#utility.yul\":11166:11242   */\n      tag_508\n      jumpi\n      pop\n        /* \"#utility.yul\":11213:11214   */\n      0x00\n        /* \"#utility.yul\":11227:11232   */\n      jump(tag_140)\n        /* \"#utility.yul\":11166:11242   */\n    tag_508:\n        /* \"#utility.yul\":11258:11262   */\n      dup2\n        /* \"#utility.yul\":11276:11277   */\n      0x01\n        /* \"#utility.yul\":11271:11330   */\n      dup2\n      eq\n      tag_510\n      jumpi\n        /* \"#utility.yul\":11344:11345   */\n      0x02\n        /* \"#utility.yul\":11339:11469   */\n      dup2\n      eq\n      tag_511\n      jumpi\n        /* \"#utility.yul\":11251:11469   */\n      jump(tag_509)\n        /* \"#utility.yul\":11271:11330   */\n    tag_510:\n        /* \"#utility.yul\":11301:11302   */\n      0x01\n        /* \"#utility.yul\":11292:11302   */\n      swap2\n      pop\n        /* \"#utility.yul\":11315:11320   */\n      pop\n      jump(tag_140)\n        /* \"#utility.yul\":11339:11469   */\n    tag_511:\n        /* \"#utility.yul\":11376:11379   */\n      0xff\n        /* \"#utility.yul\":11366:11374   */\n      dup5\n        /* \"#utility.yul\":11363:11380   */\n      gt\n        /* \"#utility.yul\":11360:11403   */\n      iszero\n      tag_513\n      jumpi\n        /* \"#utility.yul\":11383:11401   */\n      tag_513\n      tag_420\n      jump\t// in\n    tag_513:\n      pop\n      pop\n        /* \"#utility.yul\":11439:11440   */\n      0x01\n        /* \"#utility.yul\":11425:11441   */\n      dup3\n      shl\n        /* \"#utility.yul\":11454:11459   */\n      jump(tag_140)\n        /* \"#utility.yul\":11251:11469   */\n    tag_509:\n      pop\n        /* \"#utility.yul\":11553:11555   */\n      0x20\n        /* \"#utility.yul\":11543:11551   */\n      dup4\n        /* \"#utility.yul\":11540:11556   */\n      lt\n        /* \"#utility.yul\":11534:11537   */\n      0x0133\n        /* \"#utility.yul\":11528:11532   */\n      dup4\n        /* \"#utility.yul\":11525:11538   */\n      lt\n        /* \"#utility.yul\":11521:11557   */\n      and\n        /* \"#utility.yul\":11515:11517   */\n      0x4e\n        /* \"#utility.yul\":11505:11513   */\n      dup5\n        /* \"#utility.yul\":11502:11518   */\n      lt\n        /* \"#utility.yul\":11497:11499   */\n      0x0b\n        /* \"#utility.yul\":11491:11495   */\n      dup5\n        /* \"#utility.yul\":11488:11500   */\n      lt\n        /* \"#utility.yul\":11484:11519   */\n      and\n        /* \"#utility.yul\":11481:11558   */\n      or\n        /* \"#utility.yul\":11478:11637   */\n      iszero\n      tag_514\n      jumpi\n      pop\n        /* \"#utility.yul\":11590:11609   */\n      dup2\n      dup2\n      exp\n        /* \"#utility.yul\":11622:11627   */\n      jump(tag_140)\n        /* \"#utility.yul\":11478:11637   */\n    tag_514:\n        /* \"#utility.yul\":11669:11703   */\n      tag_515\n        /* \"#utility.yul\":11694:11702   */\n      dup4\n        /* \"#utility.yul\":11688:11692   */\n      dup4\n        /* \"#utility.yul\":11669:11703   */\n      tag_421\n      jump\t// in\n    tag_515:\n        /* \"#utility.yul\":11739:11745   */\n      dup1\n        /* \"#utility.yul\":11735:11736   */\n      0x00\n        /* \"#utility.yul\":11731:11737   */\n      not\n        /* \"#utility.yul\":11727:11746   */\n      div\n        /* \"#utility.yul\":11718:11725   */\n      dup3\n        /* \"#utility.yul\":11715:11747   */\n      gt\n        /* \"#utility.yul\":11712:11770   */\n      iszero\n      tag_517\n      jumpi\n        /* \"#utility.yul\":11750:11768   */\n      tag_517\n      tag_420\n      jump\t// in\n    tag_517:\n        /* \"#utility.yul\":11788:11808   */\n      mul\n      swap4\n        /* \"#utility.yul\":11008:11814   */\n      swap3\n      pop\n      pop\n      pop\n      jump\t// out\n        /* \"#utility.yul\":11819:11959   */\n    tag_272:\n        /* \"#utility.yul\":11877:11882   */\n      0x00\n        /* \"#utility.yul\":11906:11953   */\n      tag_426\n        /* \"#utility.yul\":11947:11951   */\n      0xff\n        /* \"#utility.yul\":11937:11945   */\n      dup5\n        /* \"#utility.yul\":11933:11952   */\n      and\n        /* \"#utility.yul\":11927:11931   */\n      dup4\n        /* \"#utility.yul\":11906:11953   */\n      tag_422\n      jump\t// in\n        /* \"#utility.yul\":11964:12306   */\n    tag_280:\n        /* \"#utility.yul\":12166:12168   */\n      0x20\n        /* \"#utility.yul\":12148:12169   */\n      dup1\n      dup3\n      mstore\n        /* \"#utility.yul\":12205:12207   */\n      0x12\n        /* \"#utility.yul\":12185:12203   */\n      swap1\n      dup3\n      add\n        /* \"#utility.yul\":12178:12208   */\n      mstore\n      shl(0x71, 0x2737ba1030b236b4b717b9bab130b236b4b7)\n        /* \"#utility.yul\":12239:12241   */\n      0x40\n        /* \"#utility.yul\":12224:12242   */\n      dup3\n      add\n        /* \"#utility.yul\":12217:12265   */\n      mstore\n        /* \"#utility.yul\":12297:12299   */\n      0x60\n        /* \"#utility.yul\":12282:12300   */\n      add\n      swap1\n        /* \"#utility.yul\":11964:12306   */\n      jump\t// out\n        /* \"#utility.yul\":12905:13089   */\n    tag_298:\n        /* \"#utility.yul\":12975:12981   */\n      0x00\n        /* \"#utility.yul\":13028:13030   */\n      0x20\n        /* \"#utility.yul\":13016:13025   */\n      dup3\n        /* \"#utility.yul\":13007:13014   */\n      dup5\n        /* \"#utility.yul\":13003:13026   */\n      sub\n        /* \"#utility.yul\":12999:13031   */\n      slt\n        /* \"#utility.yul\":12996:13048   */\n      iszero\n      tag_524\n      jumpi\n        /* \"#utility.yul\":13044:13045   */\n      0x00\n        /* \"#utility.yul\":13041:13042   */\n      dup1\n        /* \"#utility.yul\":13034:13046   */\n      revert\n        /* \"#utility.yul\":12996:13048   */\n    tag_524:\n      pop\n        /* \"#utility.yul\":13067:13083   */\n      mload\n      swap2\n        /* \"#utility.yul\":12905:13089   */\n      swap1\n      pop\n      jump\t// out\n        /* \"#utility.yul\":14130:14403   */\n    tag_360:\n        /* \"#utility.yul\":14198:14204   */\n      0x00\n        /* \"#utility.yul\":14251:14253   */\n      0x20\n        /* \"#utility.yul\":14239:14248   */\n      dup3\n        /* \"#utility.yul\":14230:14237   */\n      dup5\n        /* \"#utility.yul\":14226:14249   */\n      sub\n        /* \"#utility.yul\":14222:14254   */\n      slt\n        /* \"#utility.yul\":14219:14271   */\n      iszero\n      tag_529\n      jumpi\n        /* \"#utility.yul\":14267:14268   */\n      0x00\n        /* \"#utility.yul\":14264:14265   */\n      dup1\n        /* \"#utility.yul\":14257:14269   */\n      revert\n        /* \"#utility.yul\":14219:14271   */\n    tag_529:\n        /* \"#utility.yul\":14299:14308   */\n      dup2\n        /* \"#utility.yul\":14293:14309   */\n      mload\n        /* \"#utility.yul\":14349:14353   */\n      0xff\n        /* \"#utility.yul\":14342:14347   */\n      dup2\n        /* \"#utility.yul\":14338:14354   */\n      and\n        /* \"#utility.yul\":14331:14336   */\n      dup2\n        /* \"#utility.yul\":14328:14355   */\n      eq\n        /* \"#utility.yul\":14318:14373   */\n      tag_426\n      jumpi\n        /* \"#utility.yul\":14369:14370   */\n      0x00\n        /* \"#utility.yul\":14366:14367   */\n      dup1\n        /* \"#utility.yul\":14359:14371   */\n      revert\n    stop\n    data_c3f76b99666f6818ff0e702cf1728f8564932dfce2026f5d7d90bf00e9ab2863 2ccf90dd7c30b80a460e25097b3c5ef613343f69ad6b2cfd3cfb644af593ca0b\n\n    auxdata: 0xa2646970667358221220dcd1b4d71cb23e7e99e29841974f901b530d99f4f80150d723916fa423f0c3ae64736f6c63430008140033\n}\n",
				"bytecode": {
					"linkReferences": {},
					"object": "6080604052603260025534801562000015575f80fd5b506040516200206b3803806200206b833981016040819052620000389162000176565b600180556001600160a01b038116620000975760405162461bcd60e51b815260206004820152601660248201527f46656520726563697069656e7420726571756972656400000000000000000000604482015260640160405180910390fd5b620000a35f33620000ca565b50600380546001600160a01b0319166001600160a01b0392909216919091179055620001a5565b5f828152602081815260408083206001600160a01b038516845290915281205460ff166200016d575f838152602081815260408083206001600160a01b03861684529091529020805460ff19166001179055620001243390565b6001600160a01b0316826001600160a01b0316847f2f8788117e7eff1d82e926ec794901d17c78024a50270940304540a733656f0d60405160405180910390a450600162000170565b505f5b92915050565b5f6020828403121562000187575f80fd5b81516001600160a01b03811681146200019e575f80fd5b9392505050565b611eb880620001b35f395ff3fe608060405234801561000f575f80fd5b5060043610610187575f3560e01c80636ff1c9bc116100d9578063ba87a7c911610093578063d4248bbe1161006e578063d4248bbe146103d9578063d547741f146103ec578063e744092e146103ff578063e74b981b14610421575f80fd5b8063ba87a7c91461038d578063cd3e5576146103a1578063cf54aaa0146103b4575f80fd5b80636ff1c9bc146102db5780638aaa2284146102ee57806391d1485414610301578063a217fddf14610314578063a85c38ef1461031b578063b38e0fc41461037a575f80fd5b806336568abe11610144578063514fcac71161011f578063514fcac71461028f578063518e62db146102a2578063679fb287146102b557806369fe0e2d146102c8575f80fd5b806336568abe1461023e57806346904840146102515780634d9109291461027c575f80fd5b806301ffc9a71461018b5780630ca41aac146101b3578063248a9ca3146101c85780632f2ff15d146101f85780632ffdaf891461020b5780633070e98d14610214575b5f80fd5b61019e610199366004611a56565b610434565b60405190151581526020015b60405180910390f35b6101c66101c1366004611a84565b61046a565b005b6101ea6101d6366004611aa4565b5f9081526020819052604090206001015490565b6040519081526020016101aa565b6101c6610206366004611ad6565b610939565b6101ea60025481565b6101ea610222366004611b00565b600560209081525f928352604080842090915290825290205481565b6101c661024c366004611ad6565b610963565b600354610264906001600160a01b031681565b6040516001600160a01b0390911681526020016101aa565b6101c661028a366004611b28565b61099b565b6101c661029d366004611aa4565b6109bc565b6101c66102b0366004611b41565b610b84565b6101ea6102c3366004611b8a565b610f31565b6101c66102d6366004611aa4565b610f66565b6101c66102e9366004611b28565b61102b565b6101c66102fc366004611bbf565b61118b565b61019e61030f366004611ad6565b61122c565b6101ea5f81565b61032e610329366004611aa4565b611254565b604080516001600160a01b03998a168152978916602089015295909716948601949094526060850192909252608084015260a083015260c082015290151560e0820152610100016101aa565b6101ea610388366004611b8a565b6112b9565b6101ea5f80516020611e6383398151915281565b6101c66103af366004611bf4565b6112e6565b6103c76103c2366004611b28565b611614565b60405160ff90911681526020016101aa565b6101c66103e7366004611bf4565b611675565b6101c66103fa366004611ad6565b6117ad565b61019e61040d366004611b28565b60046020525f908152604090205460ff1681565b6101c661042f366004611b28565b6117d1565b5f6001600160e01b03198216637965db0b60e01b148061046457506301ffc9a760e01b6001600160e01b03198316145b92915050565b6104726118c2565b60065482106104b25760405162461bcd60e51b8152602060048201526007602482015266125b9d985b1a5960ca1b60448201526064015b60405180910390fd5b5f600683815481106104c6576104c6611c2d565b5f9182526020909120600890910201600781015490915060ff166105175760405162461bcd60e51b8152602060048201526008602482015267496e61637469766560c01b60448201526064016104a9565b60018101546001600160a01b03165f9081526004602052604090205460ff16801561055d575060028101546001600160a01b03165f9081526004602052604090205460ff165b6105795760405162461bcd60e51b81526004016104a990611c41565b806006015442106105b65760405162461bcd60e51b8152602060048201526007602482015266115e1c1a5c995960ca1b60448201526064016104a9565b5f821180156105c9575080600401548211155b6106045760405162461bcd60e51b815260206004820152600c60248201526b125b9d985b1a5908199a5b1b60a21b60448201526064016104a9565b60018101545f9061061e906001600160a01b031684610f31565b90505f670de0b6b3a764000083600501548361063a9190611c81565b6106449190611c98565b60028401549091505f90610661906001600160a01b0316836112b9565b90505f612710600254836106759190611c81565b61067f9190611c98565b90505f61068c8284611cb7565b90505f81116106c95760405162461bcd60e51b8152602060048201526009602482015268151bdbc81cdb585b1b60ba1b60448201526064016104a9565b60028601546040516323b872dd60e01b8152336004820152306024820152604481018590526001600160a01b03909116906323b872dd906064016020604051808303815f875af115801561071f573d5f803e3d5ffd5b505050506040513d601f19601f820116820180604052508101906107439190611cca565b506002860154865460405163a9059cbb60e01b81526001600160a01b0391821660048201526024810184905291169063a9059cbb906044016020604051808303815f875af1158015610797573d5f803e3d5ffd5b505050506040513d601f19601f820116820180604052508101906107bb9190611cca565b50811561083c57600286015460035460405163a9059cbb60e01b81526001600160a01b0391821660048201526024810185905291169063a9059cbb906044016020604051808303815f875af1158015610816573d5f803e3d5ffd5b505050506040513d601f19601f8201168201806040525081019061083a9190611cca565b505b600186015460405163a9059cbb60e01b8152336004820152602481018990526001600160a01b039091169063a9059cbb906044016020604051808303815f875af115801561088c573d5f803e3d5ffd5b505050506040513d601f19601f820116820180604052508101906108b09190611cca565b5086866004015f8282546108c49190611cb7565b909155505060048601545f036108e15760078601805460ff191690555b6040805188815260208101859052908101839052339089907f3fc859a6e9309b7067994110940aa58b5cdb00ef7a86e864022b436f8ba464809060600160405180910390a350505050505061093560018055565b5050565b5f828152602081905260409020600101546109538161191b565b61095d8383611925565b50505050565b6001600160a01b038116331461098c5760405163334bd91960e11b815260040160405180910390fd5b61099682826119b4565b505050565b5f6109a58161191b565b6109355f80516020611e6383398151915283610939565b6109c46118c2565b60065481106109ff5760405162461bcd60e51b8152602060048201526007602482015266125b9d985b1a5960ca1b60448201526064016104a9565b5f60068281548110610a1357610a13611c2d565b5f9182526020909120600890910201600781015490915060ff16610a645760405162461bcd60e51b8152602060048201526008602482015267496e61637469766560c01b60448201526064016104a9565b80546001600160a01b03163314610aaa5760405162461bcd60e51b815260206004820152600a60248201526927b7363c9036b0b5b2b960b11b60448201526064016104a9565b60078101805460ff191690556004810180545f9091558015610b7657600182015460405163a9059cbb60e01b8152336004820152602481018390526001600160a01b039091169063a9059cbb906044016020604051808303815f875af1158015610b16573d5f803e3d5ffd5b505050506040513d601f19601f82011682018060405250810190610b3a9190611cca565b50827faa2a006d186dc89a3d6851834c85d16226329ac40bcad6531a5756a38ed1c90f82604051610b6d91815260200190565b60405180910390a25b5050610b8160018055565b50565b610b8c6118c2565b6001600160a01b0385165f9081526004602052604090205460ff168015610bca57506001600160a01b0384165f9081526004602052604090205460ff165b610be65760405162461bcd60e51b81526004016104a990611c41565b5f8211610c215760405162461bcd60e51b815260206004820152600960248201526852617465207a65726f60b81b60448201526064016104a9565b5f610c2c8242611ce5565b90505f610c398786610f31565b90505f8111610c765760405162461bcd60e51b8152602060048201526009602482015268151bdbc81cdb585b1b60ba1b60448201526064016104a9565b6040516323b872dd60e01b8152336004820152306024820152604481018690526001600160a01b038816906323b872dd906064016020604051808303815f875af1158015610cc6573d5f803e3d5ffd5b505050506040513d601f19601f82011682018060405250810190610cea9190611cca565b506040805161010081018252338082526001600160a01b038a8116602084019081528a8216948401948552606084018a8152608085018b815260a086018b815260c087018a8152600160e089018181526006805480840182555f8290529a516008909b027ff652222313e28459528d920b65115c16c04f3efc82aaedc97be59f3f377c0d3f810180549c8b166001600160a01b03199d8e1617905597517ff652222313e28459528d920b65115c16c04f3efc82aaedc97be59f3f377c0d4089018054918b16918d169190911790559a517ff652222313e28459528d920b65115c16c04f3efc82aaedc97be59f3f377c0d4188018054919099169a169990991790965592517ff652222313e28459528d920b65115c16c04f3efc82aaedc97be59f3f377c0d4285015590517ff652222313e28459528d920b65115c16c04f3efc82aaedc97be59f3f377c0d43840155517ff652222313e28459528d920b65115c16c04f3efc82aaedc97be59f3f377c0d44830155517ff652222313e28459528d920b65115c16c04f3efc82aaedc97be59f3f377c0d4582015592517ff652222313e28459528d920b65115c16c04f3efc82aaedc97be59f3f377c0d46909301805493151560ff19909416939093179092559154610ec69190611cb7565b604080516001600160a01b03808c1682528a16602082015290810188905260608101879052608081018590527fdb932a34c9c681f70d4d797e099a8752999c25f9c9ffa2009c5f39c8f8dee4b49060a00160405180910390a35050610f2a60018055565b5050505050565b5f80610f3c84611614565b9050610f49816012611cf8565b610f5490600a611df1565b610f5e9084611c81565b949350505050565b610f705f3361122c565b80610f8d5750610f8d5f80516020611e638339815191523361122c565b610fa95760405162461bcd60e51b81526004016104a990611dff565b6103e8811115610fea5760405162461bcd60e51b815260206004820152600c60248201526b08ccaca40e8dede40d0d2ced60a31b60448201526064016104a9565b60025460408051918252602082018390527f528d9479e9f9889a87a3c30c7f7ba537e5e59c4c85a37733b16e57c62df61302910160405180910390a1600255565b6110355f3361122c565b8061105257506110525f80516020611e638339815191523361122c565b61106e5760405162461bcd60e51b81526004016104a990611dff565b6040516370a0823160e01b81523060048201525f906001600160a01b038316906370a0823190602401602060405180830381865afa1580156110b2573d5f803e3d5ffd5b505050506040513d601f19601f820116820180604052508101906110d69190611e2b565b90505f811161111d5760405162461bcd60e51b81526020600482015260136024820152724e6f7468696e6720746f20776974686472617760681b60448201526064016104a9565b60405163a9059cbb60e01b8152336004820152602481018290526001600160a01b0383169063a9059cbb906044016020604051808303815f875af1158015611167573d5f803e3d5ffd5b505050506040513d601f19601f820116820180604052508101906109969190611cca565b6111955f3361122c565b806111b257506111b25f80516020611e638339815191523361122c565b6111ce5760405162461bcd60e51b81526004016104a990611dff565b6001600160a01b0382165f81815260046020908152604091829020805460ff191685151590811790915591519182527f67821d5384bb02aab1ba91a477f89c9966cd30f475b02618bdc58712bca51275910160405180910390a25050565b5f918252602082815260408084206001600160a01b0393909316845291905290205460ff1690565b60068181548110611263575f80fd5b5f918252602090912060089091020180546001820154600283015460038401546004850154600586015460068701546007909701546001600160a01b039687169850948616969390951694919390929060ff1688565b5f806112c484611614565b90506112d1816012611cf8565b6112dc90600a611df1565b610f5e9084611c98565b6112ee6118c2565b6001600160a01b0383165f9081526004602052604090205460ff16801561132c57506001600160a01b0382165f9081526004602052604090205460ff165b6113485760405162461bcd60e51b81526004016104a990611c41565b6001600160a01b038084165f90815260056020908152604080832093861683529290522054806113ab5760405162461bcd60e51b815260206004820152600e60248201526d4e6f20676c6f62616c207261746560901b60448201526064016104a9565b5f6113b68584610f31565b90505f670de0b6b3a76400006113cc8484611c81565b6113d69190611c98565b90505f6113e386836112b9565b90505f612710600254836113f79190611c81565b6114019190611c98565b90505f61140e8284611cb7565b90505f81116114525760405162461bcd60e51b815260206004820152601060248201526f105b5bdd5b9d081d1bdbc81cdb585b1b60821b60448201526064016104a9565b6040516323b872dd60e01b8152336004820152306024820152604481018890526001600160a01b038a16906323b872dd906064016020604051808303815f875af11580156114a2573d5f803e3d5ffd5b505050506040513d601f19601f820116820180604052508101906114c69190611cca565b5060405163a9059cbb60e01b8152336004820152602481018290526001600160a01b0389169063a9059cbb906044016020604051808303815f875af1158015611511573d5f803e3d5ffd5b505050506040513d601f19601f820116820180604052508101906115359190611cca565b5081156115b25760035460405163a9059cbb60e01b81526001600160a01b039182166004820152602481018490529089169063a9059cbb906044016020604051808303815f875af115801561158c573d5f803e3d5ffd5b505050506040513d601f19601f820116820180604052508101906115b09190611cca565b505b60408051888152602081018390529081018390526001600160a01b03808a1691908b169033907fec5098f8c6ad93ee0051f440ec18dcdf5d28b504e6bc4613c0d3adf4695c00c39060600160405180910390a450505050505061099660018055565b5f816001600160a01b031663313ce5676040518163ffffffff1660e01b8152600401602060405180830381865afa158015611651573d5f803e3d5ffd5b505050506040513d601f19601f820116820180604052508101906104649190611e42565b61167f5f3361122c565b8061169c575061169c5f80516020611e638339815191523361122c565b6116b85760405162461bcd60e51b81526004016104a990611dff565b5f81116116f35760405162461bcd60e51b81526020600482015260096024820152685a65726f207261746560b81b60448201526064016104a9565b6001600160a01b0383165f9081526004602052604090205460ff16801561173157506001600160a01b0382165f9081526004602052604090205460ff165b61174d5760405162461bcd60e51b81526004016104a990611c41565b6001600160a01b038381165f8181526005602090815260408083209487168084529482529182902085905590518481527fbc337c774e3d398e3abf682de55e83814a46b4ab164a3d8b50740668193e1df5910160405180910390a3505050565b5f828152602081905260409020600101546117c78161191b565b61095d83836119b4565b6117db5f3361122c565b806117f857506117f85f80516020611e638339815191523361122c565b6118145760405162461bcd60e51b81526004016104a990611dff565b6001600160a01b0381166118595760405162461bcd60e51b815260206004820152600c60248201526b5a65726f206164647265737360a01b60448201526064016104a9565b600354604080516001600160a01b03928316815291831660208301527faaebcf1bfa00580e41d966056b48521fa9f202645c86d4ddf28113e617c1b1d3910160405180910390a1600380546001600160a01b0319166001600160a01b0392909216919091179055565b6002600154036119145760405162461bcd60e51b815260206004820152601f60248201527f5265656e7472616e637947756172643a207265656e7472616e742063616c6c0060448201526064016104a9565b6002600155565b610b818133611a1d565b5f611930838361122c565b6119ad575f838152602081815260408083206001600160a01b03861684529091529020805460ff191660011790556119653390565b6001600160a01b0316826001600160a01b0316847f2f8788117e7eff1d82e926ec794901d17c78024a50270940304540a733656f0d60405160405180910390a4506001610464565b505f610464565b5f6119bf838361122c565b156119ad575f838152602081815260408083206001600160a01b0386168085529252808320805460ff1916905551339286917ff6391f5c32d9c69d2a47ea670b442974b53935d1edc7fd64eb21e047a839171b9190a4506001610464565b611a27828261122c565b6109355760405163e2517d3f60e01b81526001600160a01b0382166004820152602481018390526044016104a9565b5f60208284031215611a66575f80fd5b81356001600160e01b031981168114611a7d575f80fd5b9392505050565b5f8060408385031215611a95575f80fd5b50508035926020909101359150565b5f60208284031215611ab4575f80fd5b5035919050565b80356001600160a01b0381168114611ad1575f80fd5b919050565b5f8060408385031215611ae7575f80fd5b82359150611af760208401611abb565b90509250929050565b5f8060408385031215611b11575f80fd5b611b1a83611abb565b9150611af760208401611abb565b5f60208284031215611b38575f80fd5b611a7d82611abb565b5f805f805f60a08688031215611b55575f80fd5b611b5e86611abb565b9450611b6c60208701611abb565b94979496505050506040830135926060810135926080909101359150565b5f8060408385031215611b9b575f80fd5b611ba483611abb565b946020939093013593505050565b8015158114610b81575f80fd5b5f8060408385031215611bd0575f80fd5b611bd983611abb565b91506020830135611be981611bb2565b809150509250929050565b5f805f60608486031215611c06575f80fd5b611c0f84611abb565b9250611c1d60208501611abb565b9150604084013590509250925092565b634e487b7160e01b5f52603260045260245ffd5b602080825260129082015271151bdad95b9cc81b9bdd08185b1b1bddd95960721b604082015260600190565b634e487b7160e01b5f52601160045260245ffd5b808202811582820484141761046457610464611c6d565b5f82611cb257634e487b7160e01b5f52601260045260245ffd5b500490565b8181038181111561046457610464611c6d565b5f60208284031215611cda575f80fd5b8151611a7d81611bb2565b8082018082111561046457610464611c6d565b60ff828116828216039081111561046457610464611c6d565b600181815b80851115611d4b57815f1904821115611d3157611d31611c6d565b80851615611d3e57918102915b93841c9390800290611d16565b509250929050565b5f82611d6157506001610464565b81611d6d57505f610464565b8160018114611d835760028114611d8d57611da9565b6001915050610464565b60ff841115611d9e57611d9e611c6d565b50506001821b610464565b5060208310610133831016604e8410600b8410161715611dcc575081810a610464565b611dd68383611d11565b805f1904821115611de957611de9611c6d565b029392505050565b5f611a7d60ff841683611d53565b6020808252601290820152712737ba1030b236b4b717b9bab130b236b4b760711b604082015260600190565b5f60208284031215611e3b575f80fd5b5051919050565b5f60208284031215611e52575f80fd5b815160ff81168114611a7d575f80fdfe2ccf90dd7c30b80a460e25097b3c5ef613343f69ad6b2cfd3cfb644af593ca0ba2646970667358221220dcd1b4d71cb23e7e99e29841974f901b530d99f4f80150d723916fa423f0c3ae64736f6c63430008140033",
					"opcodes": "PUSH1 0x80 PUSH1 0x40 MSTORE PUSH1 0x32 PUSH1 0x2 SSTORE CALLVALUE DUP1 ISZERO PUSH3 0x15 JUMPI PUSH0 DUP1 REVERT JUMPDEST POP PUSH1 0x40 MLOAD PUSH3 0x206B CODESIZE SUB DUP1 PUSH3 0x206B DUP4 CODECOPY DUP2 ADD PUSH1 0x40 DUP2 SWAP1 MSTORE PUSH3 0x38 SWAP2 PUSH3 0x176 JUMP JUMPDEST PUSH1 0x1 DUP1 SSTORE PUSH1 0x1 PUSH1 0x1 PUSH1 0xA0 SHL SUB DUP2 AND PUSH3 0x97 JUMPI PUSH1 0x40 MLOAD PUSH3 0x461BCD PUSH1 0xE5 SHL DUP2 MSTORE PUSH1 0x20 PUSH1 0x4 DUP3 ADD MSTORE PUSH1 0x16 PUSH1 0x24 DUP3 ADD MSTORE PUSH32 0x46656520726563697069656E7420726571756972656400000000000000000000 PUSH1 0x44 DUP3 ADD MSTORE PUSH1 0x64 ADD PUSH1 0x40 MLOAD DUP1 SWAP2 SUB SWAP1 REVERT JUMPDEST PUSH3 0xA3 PUSH0 CALLER PUSH3 0xCA JUMP JUMPDEST POP PUSH1 0x3 DUP1 SLOAD PUSH1 0x1 PUSH1 0x1 PUSH1 0xA0 SHL SUB NOT AND PUSH1 0x1 PUSH1 0x1 PUSH1 0xA0 SHL SUB SWAP3 SWAP1 SWAP3 AND SWAP2 SWAP1 SWAP2 OR SWAP1 SSTORE PUSH3 0x1A5 JUMP JUMPDEST PUSH0 DUP3 DUP2 MSTORE PUSH1 0x20 DUP2 DUP2 MSTORE PUSH1 0x40 DUP1 DUP4 KECCAK256 PUSH1 0x1 PUSH1 0x1 PUSH1 0xA0 SHL SUB DUP6 AND DUP5 MSTORE SWAP1 SWAP2 MSTORE DUP2 KECCAK256 SLOAD PUSH1 0xFF AND PUSH3 0x16D JUMPI PUSH0 DUP4 DUP2 MSTORE PUSH1 0x20 DUP2 DUP2 MSTORE PUSH1 0x40 DUP1 DUP4 KECCAK256 PUSH1 0x1 PUSH1 0x1 PUSH1 0xA0 SHL SUB DUP7 AND DUP5 MSTORE SWAP1 SWAP2 MSTORE SWAP1 KECCAK256 DUP1 SLOAD PUSH1 0xFF NOT AND PUSH1 0x1 OR SWAP1 SSTORE PUSH3 0x124 CALLER SWAP1 JUMP JUMPDEST PUSH1 0x1 PUSH1 0x1 PUSH1 0xA0 SHL SUB AND DUP3 PUSH1 0x1 PUSH1 0x1 PUSH1 0xA0 SHL SUB AND DUP5 PUSH32 0x2F8788117E7EFF1D82E926EC794901D17C78024A50270940304540A733656F0D PUSH1 0x40 MLOAD PUSH1 0x40 MLOAD DUP1 SWAP2 SUB SWAP1 LOG4 POP PUSH1 0x1 PUSH3 0x170 JUMP JUMPDEST POP PUSH0 JUMPDEST SWAP3 SWAP2 POP POP JUMP JUMPDEST PUSH0 PUSH1 0x20 DUP3 DUP5 SUB SLT ISZERO PUSH3 0x187 JUMPI PUSH0 DUP1 REVERT JUMPDEST DUP2 MLOAD PUSH1 0x1 PUSH1 0x1 PUSH1 0xA0 SHL SUB DUP2 AND DUP2 EQ PUSH3 0x19E JUMPI PUSH0 DUP1 REVERT JUMPDEST SWAP4 SWAP3 POP POP POP JUMP JUMPDEST PUSH2 0x1EB8 DUP1 PUSH3 0x1B3 PUSH0 CODECOPY PUSH0 RETURN INVALID PUSH1 0x80 PUSH1 0x40 MSTORE CALLVALUE DUP1 ISZERO PUSH2 0xF JUMPI PUSH0 DUP1 REVERT JUMPDEST POP PUSH1 0x4 CALLDATASIZE LT PUSH2 0x187 JUMPI PUSH0 CALLDATALOAD PUSH1 0xE0 SHR DUP1 PUSH4 0x6FF1C9BC GT PUSH2 0xD9 JUMPI DUP1 PUSH4 0xBA87A7C9 GT PUSH2 0x93 JUMPI DUP1 PUSH4 0xD4248BBE GT PUSH2 0x6E JUMPI DUP1 PUSH4 0xD4248BBE EQ PUSH2 0x3D9 JUMPI DUP1 PUSH4 0xD547741F EQ PUSH2 0x3EC JUMPI DUP1 PUSH4 0xE744092E EQ PUSH2 0x3FF JUMPI DUP1 PUSH4 0xE74B981B EQ PUSH2 0x421 JUMPI PUSH0 DUP1 REVERT JUMPDEST DUP1 PUSH4 0xBA87A7C9 EQ PUSH2 0x38D JUMPI DUP1 PUSH4 0xCD3E5576 EQ PUSH2 0x3A1 JUMPI DUP1 PUSH4 0xCF54AAA0 EQ PUSH2 0x3B4 JUMPI PUSH0 DUP1 REVERT JUMPDEST DUP1 PUSH4 0x6FF1C9BC EQ PUSH2 0x2DB JUMPI DUP1 PUSH4 0x8AAA2284 EQ PUSH2 0x2EE JUMPI DUP1 PUSH4 0x91D14854 EQ PUSH2 0x301 JUMPI DUP1 PUSH4 0xA217FDDF EQ PUSH2 0x314 JUMPI DUP1 PUSH4 0xA85C38EF EQ PUSH2 0x31B JUMPI DUP1 PUSH4 0xB38E0FC4 EQ PUSH2 0x37A JUMPI PUSH0 DUP1 REVERT JUMPDEST DUP1 PUSH4 0x36568ABE GT PUSH2 0x144 JUMPI DUP1 PUSH4 0x514FCAC7 GT PUSH2 0x11F JUMPI DUP1 PUSH4 0x514FCAC7 EQ PUSH2 0x28F JUMPI DUP1 PUSH4 0x518E62DB EQ PUSH2 0x2A2 JUMPI DUP1 PUSH4 0x679FB287 EQ PUSH2 0x2B5 JUMPI DUP1 PUSH4 0x69FE0E2D EQ PUSH2 0x2C8 JUMPI PUSH0 DUP1 REVERT JUMPDEST DUP1 PUSH4 0x36568ABE EQ PUSH2 0x23E JUMPI DUP1 PUSH4 0x46904840 EQ PUSH2 0x251 JUMPI DUP1 PUSH4 0x4D910929 EQ PUSH2 0x27C JUMPI PUSH0 DUP1 REVERT JUMPDEST DUP1 PUSH4 0x1FFC9A7 EQ PUSH2 0x18B JUMPI DUP1 PUSH4 0xCA41AAC EQ PUSH2 0x1B3 JUMPI DUP1 PUSH4 0x248A9CA3 EQ PUSH2 0x1C8 JUMPI DUP1 PUSH4 0x2F2FF15D EQ PUSH2 0x1F8 JUMPI DUP1 PUSH4 0x2FFDAF89 EQ PUSH2 0x20B JUMPI DUP1 PUSH4 0x3070E98D EQ PUSH2 0x214 JUMPI JUMPDEST PUSH0 DUP1 REVERT JUMPDEST PUSH2 0x19E PUSH2 0x199 CALLDATASIZE PUSH1 0x4 PUSH2 0x1A56 JUMP JUMPDEST PUSH2 0x434 JUMP JUMPDEST PUSH1 0x40 MLOAD SWAP1 ISZERO ISZERO DUP2 MSTORE PUSH1 0x20 ADD JUMPDEST PUSH1 0x40 MLOAD DUP1 SWAP2 SUB SWAP1 RETURN JUMPDEST PUSH2 0x1C6 PUSH2 0x1C1 CALLDATASIZE PUSH1 0x4 PUSH2 0x1A84 JUMP JUMPDEST PUSH2 0x46A JUMP JUMPDEST STOP JUMPDEST PUSH2 0x1EA PUSH2 0x1D6 CALLDATASIZE PUSH1 0x4 PUSH2 0x1AA4 JUMP JUMPDEST PUSH0 SWAP1 DUP2 MSTORE PUSH1 0x20 DUP2 SWAP1 MSTORE PUSH1 0x40 SWAP1 KECCAK256 PUSH1 0x1 ADD SLOAD SWAP1 JUMP JUMPDEST PUSH1 0x40 MLOAD SWAP1 DUP2 MSTORE PUSH1 0x20 ADD PUSH2 0x1AA JUMP JUMPDEST PUSH2 0x1C6 PUSH2 0x206 CALLDATASIZE PUSH1 0x4 PUSH2 0x1AD6 JUMP JUMPDEST PUSH2 0x939 JUMP JUMPDEST PUSH2 0x1EA PUSH1 0x2 SLOAD DUP2 JUMP JUMPDEST PUSH2 0x1EA PUSH2 0x222 CALLDATASIZE PUSH1 0x4 PUSH2 0x1B00 JUMP JUMPDEST PUSH1 0x5 PUSH1 0x20 SWAP1 DUP2 MSTORE PUSH0 SWAP3 DUP4 MSTORE PUSH1 0x40 DUP1 DUP5 KECCAK256 SWAP1 SWAP2 MSTORE SWAP1 DUP3 MSTORE SWAP1 KECCAK256 SLOAD DUP2 JUMP JUMPDEST PUSH2 0x1C6 PUSH2 0x24C CALLDATASIZE PUSH1 0x4 PUSH2 0x1AD6 JUMP JUMPDEST PUSH2 0x963 JUMP JUMPDEST PUSH1 0x3 SLOAD PUSH2 0x264 SWAP1 PUSH1 0x1 PUSH1 0x1 PUSH1 0xA0 SHL SUB AND DUP2 JUMP JUMPDEST PUSH1 0x40 MLOAD PUSH1 0x1 PUSH1 0x1 PUSH1 0xA0 SHL SUB SWAP1 SWAP2 AND DUP2 MSTORE PUSH1 0x20 ADD PUSH2 0x1AA JUMP JUMPDEST PUSH2 0x1C6 PUSH2 0x28A CALLDATASIZE PUSH1 0x4 PUSH2 0x1B28 JUMP JUMPDEST PUSH2 0x99B JUMP JUMPDEST PUSH2 0x1C6 PUSH2 0x29D CALLDATASIZE PUSH1 0x4 PUSH2 0x1AA4 JUMP JUMPDEST PUSH2 0x9BC JUMP JUMPDEST PUSH2 0x1C6 PUSH2 0x2B0 CALLDATASIZE PUSH1 0x4 PUSH2 0x1B41 JUMP JUMPDEST PUSH2 0xB84 JUMP JUMPDEST PUSH2 0x1EA PUSH2 0x2C3 CALLDATASIZE PUSH1 0x4 PUSH2 0x1B8A JUMP JUMPDEST PUSH2 0xF31 JUMP JUMPDEST PUSH2 0x1C6 PUSH2 0x2D6 CALLDATASIZE PUSH1 0x4 PUSH2 0x1AA4 JUMP JUMPDEST PUSH2 0xF66 JUMP JUMPDEST PUSH2 0x1C6 PUSH2 0x2E9 CALLDATASIZE PUSH1 0x4 PUSH2 0x1B28 JUMP JUMPDEST PUSH2 0x102B JUMP JUMPDEST PUSH2 0x1C6 PUSH2 0x2FC CALLDATASIZE PUSH1 0x4 PUSH2 0x1BBF JUMP JUMPDEST PUSH2 0x118B JUMP JUMPDEST PUSH2 0x19E PUSH2 0x30F CALLDATASIZE PUSH1 0x4 PUSH2 0x1AD6 JUMP JUMPDEST PUSH2 0x122C JUMP JUMPDEST PUSH2 0x1EA PUSH0 DUP2 JUMP JUMPDEST PUSH2 0x32E PUSH2 0x329 CALLDATASIZE PUSH1 0x4 PUSH2 0x1AA4 JUMP JUMPDEST PUSH2 0x1254 JUMP JUMPDEST PUSH1 0x40 DUP1 MLOAD PUSH1 0x1 PUSH1 0x1 PUSH1 0xA0 SHL SUB SWAP10 DUP11 AND DUP2 MSTORE SWAP8 DUP10 AND PUSH1 0x20 DUP10 ADD MSTORE SWAP6 SWAP1 SWAP8 AND SWAP5 DUP7 ADD SWAP5 SWAP1 SWAP5 MSTORE PUSH1 0x60 DUP6 ADD SWAP3 SWAP1 SWAP3 MSTORE PUSH1 0x80 DUP5 ADD MSTORE PUSH1 0xA0 DUP4 ADD MSTORE PUSH1 0xC0 DUP3 ADD MSTORE SWAP1 ISZERO ISZERO PUSH1 0xE0 DUP3 ADD MSTORE PUSH2 0x100 ADD PUSH2 0x1AA JUMP JUMPDEST PUSH2 0x1EA PUSH2 0x388 CALLDATASIZE PUSH1 0x4 PUSH2 0x1B8A JUMP JUMPDEST PUSH2 0x12B9 JUMP JUMPDEST PUSH2 0x1EA PUSH0 DUP1 MLOAD PUSH1 0x20 PUSH2 0x1E63 DUP4 CODECOPY DUP2 MLOAD SWAP2 MSTORE DUP2 JUMP JUMPDEST PUSH2 0x1C6 PUSH2 0x3AF CALLDATASIZE PUSH1 0x4 PUSH2 0x1BF4 JUMP JUMPDEST PUSH2 0x12E6 JUMP JUMPDEST PUSH2 0x3C7 PUSH2 0x3C2 CALLDATASIZE PUSH1 0x4 PUSH2 0x1B28 JUMP JUMPDEST PUSH2 0x1614 JUMP JUMPDEST PUSH1 0x40 MLOAD PUSH1 0xFF SWAP1 SWAP2 AND DUP2 MSTORE PUSH1 0x20 ADD PUSH2 0x1AA JUMP JUMPDEST PUSH2 0x1C6 PUSH2 0x3E7 CALLDATASIZE PUSH1 0x4 PUSH2 0x1BF4 JUMP JUMPDEST PUSH2 0x1675 JUMP JUMPDEST PUSH2 0x1C6 PUSH2 0x3FA CALLDATASIZE PUSH1 0x4 PUSH2 0x1AD6 JUMP JUMPDEST PUSH2 0x17AD JUMP JUMPDEST PUSH2 0x19E PUSH2 0x40D CALLDATASIZE PUSH1 0x4 PUSH2 0x1B28 JUMP JUMPDEST PUSH1 0x4 PUSH1 0x20 MSTORE PUSH0 SWAP1 DUP2 MSTORE PUSH1 0x40 SWAP1 KECCAK256 SLOAD PUSH1 0xFF AND DUP2 JUMP JUMPDEST PUSH2 0x1C6 PUSH2 0x42F CALLDATASIZE PUSH1 0x4 PUSH2 0x1B28 JUMP JUMPDEST PUSH2 0x17D1 JUMP JUMPDEST PUSH0 PUSH1 0x1 PUSH1 0x1 PUSH1 0xE0 SHL SUB NOT DUP3 AND PUSH4 0x7965DB0B PUSH1 0xE0 SHL EQ DUP1 PUSH2 0x464 JUMPI POP PUSH4 0x1FFC9A7 PUSH1 0xE0 SHL PUSH1 0x1 PUSH1 0x1 PUSH1 0xE0 SHL SUB NOT DUP4 AND EQ JUMPDEST SWAP3 SWAP2 POP POP JUMP JUMPDEST PUSH2 0x472 PUSH2 0x18C2 JUMP JUMPDEST PUSH1 0x6 SLOAD DUP3 LT PUSH2 0x4B2 JUMPI PUSH1 0x40 MLOAD PUSH3 0x461BCD PUSH1 0xE5 SHL DUP2 MSTORE PUSH1 0x20 PUSH1 0x4 DUP3 ADD MSTORE PUSH1 0x7 PUSH1 0x24 DUP3 ADD MSTORE PUSH7 0x125B9D985B1A59 PUSH1 0xCA SHL PUSH1 0x44 DUP3 ADD MSTORE PUSH1 0x64 ADD JUMPDEST PUSH1 0x40 MLOAD DUP1 SWAP2 SUB SWAP1 REVERT JUMPDEST PUSH0 PUSH1 0x6 DUP4 DUP2 SLOAD DUP2 LT PUSH2 0x4C6 JUMPI PUSH2 0x4C6 PUSH2 0x1C2D JUMP JUMPDEST PUSH0 SWAP2 DUP3 MSTORE PUSH1 0x20 SWAP1 SWAP2 KECCAK256 PUSH1 0x8 SWAP1 SWAP2 MUL ADD PUSH1 0x7 DUP2 ADD SLOAD SWAP1 SWAP2 POP PUSH1 0xFF AND PUSH2 0x517 JUMPI PUSH1 0x40 MLOAD PUSH3 0x461BCD PUSH1 0xE5 SHL DUP2 MSTORE PUSH1 0x20 PUSH1 0x4 DUP3 ADD MSTORE PUSH1 0x8 PUSH1 0x24 DUP3 ADD MSTORE PUSH8 0x496E616374697665 PUSH1 0xC0 SHL PUSH1 0x44 DUP3 ADD MSTORE PUSH1 0x64 ADD PUSH2 0x4A9 JUMP JUMPDEST PUSH1 0x1 DUP2 ADD SLOAD PUSH1 0x1 PUSH1 0x1 PUSH1 0xA0 SHL SUB AND PUSH0 SWAP1 DUP2 MSTORE PUSH1 0x4 PUSH1 0x20 MSTORE PUSH1 0x40 SWAP1 KECCAK256 SLOAD PUSH1 0xFF AND DUP1 ISZERO PUSH2 0x55D JUMPI POP PUSH1 0x2 DUP2 ADD SLOAD PUSH1 0x1 PUSH1 0x1 PUSH1 0xA0 SHL SUB AND PUSH0 SWAP1 DUP2 MSTORE PUSH1 0x4 PUSH1 0x20 MSTORE PUSH1 0x40 SWAP1 KECCAK256 SLOAD PUSH1 0xFF AND JUMPDEST PUSH2 0x579 JUMPI PUSH1 0x40 MLOAD PUSH3 0x461BCD PUSH1 0xE5 SHL DUP2 MSTORE PUSH1 0x4 ADD PUSH2 0x4A9 SWAP1 PUSH2 0x1C41 JUMP JUMPDEST DUP1 PUSH1 0x6 ADD SLOAD TIMESTAMP LT PUSH2 0x5B6 JUMPI PUSH1 0x40 MLOAD PUSH3 0x461BCD PUSH1 0xE5 SHL DUP2 MSTORE PUSH1 0x20 PUSH1 0x4 DUP3 ADD MSTORE PUSH1 0x7 PUSH1 0x24 DUP3 ADD MSTORE PUSH7 0x115E1C1A5C9959 PUSH1 0xCA SHL PUSH1 0x44 DUP3 ADD MSTORE PUSH1 0x64 ADD PUSH2 0x4A9 JUMP JUMPDEST PUSH0 DUP3 GT DUP1 ISZERO PUSH2 0x5C9 JUMPI POP DUP1 PUSH1 0x4 ADD SLOAD DUP3 GT ISZERO JUMPDEST PUSH2 0x604 JUMPI PUSH1 0x40 MLOAD PUSH3 0x461BCD PUSH1 0xE5 SHL DUP2 MSTORE PUSH1 0x20 PUSH1 0x4 DUP3 ADD MSTORE PUSH1 0xC PUSH1 0x24 DUP3 ADD MSTORE PUSH12 0x125B9D985B1A5908199A5B1B PUSH1 0xA2 SHL PUSH1 0x44 DUP3 ADD MSTORE PUSH1 0x64 ADD PUSH2 0x4A9 JUMP JUMPDEST PUSH1 0x1 DUP2 ADD SLOAD PUSH0 SWAP1 PUSH2 0x61E SWAP1 PUSH1 0x1 PUSH1 0x1 PUSH1 0xA0 SHL SUB AND DUP5 PUSH2 0xF31 JUMP JUMPDEST SWAP1 POP PUSH0 PUSH8 0xDE0B6B3A7640000 DUP4 PUSH1 0x5 ADD SLOAD DUP4 PUSH2 0x63A SWAP2 SWAP1 PUSH2 0x1C81 JUMP JUMPDEST PUSH2 0x644 SWAP2 SWAP1 PUSH2 0x1C98 JUMP JUMPDEST PUSH1 0x2 DUP5 ADD SLOAD SWAP1 SWAP2 POP PUSH0 SWAP1 PUSH2 0x661 SWAP1 PUSH1 0x1 PUSH1 0x1 PUSH1 0xA0 SHL SUB AND DUP4 PUSH2 0x12B9 JUMP JUMPDEST SWAP1 POP PUSH0 PUSH2 0x2710 PUSH1 0x2 SLOAD DUP4 PUSH2 0x675 SWAP2 SWAP1 PUSH2 0x1C81 JUMP JUMPDEST PUSH2 0x67F SWAP2 SWAP1 PUSH2 0x1C98 JUMP JUMPDEST SWAP1 POP PUSH0 PUSH2 0x68C DUP3 DUP5 PUSH2 0x1CB7 JUMP JUMPDEST SWAP1 POP PUSH0 DUP2 GT PUSH2 0x6C9 JUMPI PUSH1 0x40 MLOAD PUSH3 0x461BCD PUSH1 0xE5 SHL DUP2 MSTORE PUSH1 0x20 PUSH1 0x4 DUP3 ADD MSTORE PUSH1 0x9 PUSH1 0x24 DUP3 ADD MSTORE PUSH9 0x151BDBC81CDB585B1B PUSH1 0xBA SHL PUSH1 0x44 DUP3 ADD MSTORE PUSH1 0x64 ADD PUSH2 0x4A9 JUMP JUMPDEST PUSH1 0x2 DUP7 ADD SLOAD PUSH1 0x40 MLOAD PUSH4 0x23B872DD PUSH1 0xE0 SHL DUP2 MSTORE CALLER PUSH1 0x4 DUP3 ADD MSTORE ADDRESS PUSH1 0x24 DUP3 ADD MSTORE PUSH1 0x44 DUP2 ADD DUP6 SWAP1 MSTORE PUSH1 0x1 PUSH1 0x1 PUSH1 0xA0 SHL SUB SWAP1 SWAP2 AND SWAP1 PUSH4 0x23B872DD SWAP1 PUSH1 0x64 ADD PUSH1 0x20 PUSH1 0x40 MLOAD DUP1 DUP4 SUB DUP2 PUSH0 DUP8 GAS CALL ISZERO DUP1 ISZERO PUSH2 0x71F JUMPI RETURNDATASIZE PUSH0 DUP1 RETURNDATACOPY RETURNDATASIZE PUSH0 REVERT JUMPDEST POP POP POP POP PUSH1 0x40 MLOAD RETURNDATASIZE PUSH1 0x1F NOT PUSH1 0x1F DUP3 ADD AND DUP3 ADD DUP1 PUSH1 0x40 MSTORE POP DUP2 ADD SWAP1 PUSH2 0x743 SWAP2 SWAP1 PUSH2 0x1CCA JUMP JUMPDEST POP PUSH1 0x2 DUP7 ADD SLOAD DUP7 SLOAD PUSH1 0x40 MLOAD PUSH4 0xA9059CBB PUSH1 0xE0 SHL DUP2 MSTORE PUSH1 0x1 PUSH1 0x1 PUSH1 0xA0 SHL SUB SWAP2 DUP3 AND PUSH1 0x4 DUP3 ADD MSTORE PUSH1 0x24 DUP2 ADD DUP5 SWAP1 MSTORE SWAP2 AND SWAP1 PUSH4 0xA9059CBB SWAP1 PUSH1 0x44 ADD PUSH1 0x20 PUSH1 0x40 MLOAD DUP1 DUP4 SUB DUP2 PUSH0 DUP8 GAS CALL ISZERO DUP1 ISZERO PUSH2 0x797 JUMPI RETURNDATASIZE PUSH0 DUP1 RETURNDATACOPY RETURNDATASIZE PUSH0 REVERT JUMPDEST POP POP POP POP PUSH1 0x40 MLOAD RETURNDATASIZE PUSH1 0x1F NOT PUSH1 0x1F DUP3 ADD AND DUP3 ADD DUP1 PUSH1 0x40 MSTORE POP DUP2 ADD SWAP1 PUSH2 0x7BB SWAP2 SWAP1 PUSH2 0x1CCA JUMP JUMPDEST POP DUP2 ISZERO PUSH2 0x83C JUMPI PUSH1 0x2 DUP7 ADD SLOAD PUSH1 0x3 SLOAD PUSH1 0x40 MLOAD PUSH4 0xA9059CBB PUSH1 0xE0 SHL DUP2 MSTORE PUSH1 0x1 PUSH1 0x1 PUSH1 0xA0 SHL SUB SWAP2 DUP3 AND PUSH1 0x4 DUP3 ADD MSTORE PUSH1 0x24 DUP2 ADD DUP6 SWAP1 MSTORE SWAP2 AND SWAP1 PUSH4 0xA9059CBB SWAP1 PUSH1 0x44 ADD PUSH1 0x20 PUSH1 0x40 MLOAD DUP1 DUP4 SUB DUP2 PUSH0 DUP8 GAS CALL ISZERO DUP1 ISZERO PUSH2 0x816 JUMPI RETURNDATASIZE PUSH0 DUP1 RETURNDATACOPY RETURNDATASIZE PUSH0 REVERT JUMPDEST POP POP POP POP PUSH1 0x40 MLOAD RETURNDATASIZE PUSH1 0x1F NOT PUSH1 0x1F DUP3 ADD AND DUP3 ADD DUP1 PUSH1 0x40 MSTORE POP DUP2 ADD SWAP1 PUSH2 0x83A SWAP2 SWAP1 PUSH2 0x1CCA JUMP JUMPDEST POP JUMPDEST PUSH1 0x1 DUP7 ADD SLOAD PUSH1 0x40 MLOAD PUSH4 0xA9059CBB PUSH1 0xE0 SHL DUP2 MSTORE CALLER PUSH1 0x4 DUP3 ADD MSTORE PUSH1 0x24 DUP2 ADD DUP10 SWAP1 MSTORE PUSH1 0x1 PUSH1 0x1 PUSH1 0xA0 SHL SUB SWAP1 SWAP2 AND SWAP1 PUSH4 0xA9059CBB SWAP1 PUSH1 0x44 ADD PUSH1 0x20 PUSH1 0x40 MLOAD DUP1 DUP4 SUB DUP2 PUSH0 DUP8 GAS CALL ISZERO DUP1 ISZERO PUSH2 0x88C JUMPI RETURNDATASIZE PUSH0 DUP1 RETURNDATACOPY RETURNDATASIZE PUSH0 REVERT JUMPDEST POP POP POP POP PUSH1 0x40 MLOAD RETURNDATASIZE PUSH1 0x1F NOT PUSH1 0x1F DUP3 ADD AND DUP3 ADD DUP1 PUSH1 0x40 MSTORE POP DUP2 ADD SWAP1 PUSH2 0x8B0 SWAP2 SWAP1 PUSH2 0x1CCA JUMP JUMPDEST POP DUP7 DUP7 PUSH1 0x4 ADD PUSH0 DUP3 DUP3 SLOAD PUSH2 0x8C4 SWAP2 SWAP1 PUSH2 0x1CB7 JUMP JUMPDEST SWAP1 SWAP2 SSTORE POP POP PUSH1 0x4 DUP7 ADD SLOAD PUSH0 SUB PUSH2 0x8E1 JUMPI PUSH1 0x7 DUP7 ADD DUP1 SLOAD PUSH1 0xFF NOT AND SWAP1 SSTORE JUMPDEST PUSH1 0x40 DUP1 MLOAD DUP9 DUP2 MSTORE PUSH1 0x20 DUP2 ADD DUP6 SWAP1 MSTORE SWAP1 DUP2 ADD DUP4 SWAP1 MSTORE CALLER SWAP1 DUP10 SWAP1 PUSH32 0x3FC859A6E9309B7067994110940AA58B5CDB00EF7A86E864022B436F8BA46480 SWAP1 PUSH1 0x60 ADD PUSH1 0x40 MLOAD DUP1 SWAP2 SUB SWAP1 LOG3 POP POP POP POP POP POP PUSH2 0x935 PUSH1 0x1 DUP1 SSTORE JUMP JUMPDEST POP POP JUMP JUMPDEST PUSH0 DUP3 DUP2 MSTORE PUSH1 0x20 DUP2 SWAP1 MSTORE PUSH1 0x40 SWAP1 KECCAK256 PUSH1 0x1 ADD SLOAD PUSH2 0x953 DUP2 PUSH2 0x191B JUMP JUMPDEST PUSH2 0x95D DUP4 DUP4 PUSH2 0x1925 JUMP JUMPDEST POP POP POP POP JUMP JUMPDEST PUSH1 0x1 PUSH1 0x1 PUSH1 0xA0 SHL SUB DUP2 AND CALLER EQ PUSH2 0x98C JUMPI PUSH1 0x40 MLOAD PUSH4 0x334BD919 PUSH1 0xE1 SHL DUP2 MSTORE PUSH1 0x4 ADD PUSH1 0x40 MLOAD DUP1 SWAP2 SUB SWAP1 REVERT JUMPDEST PUSH2 0x996 DUP3 DUP3 PUSH2 0x19B4 JUMP JUMPDEST POP POP POP JUMP JUMPDEST PUSH0 PUSH2 0x9A5 DUP2 PUSH2 0x191B JUMP JUMPDEST PUSH2 0x935 PUSH0 DUP1 MLOAD PUSH1 0x20 PUSH2 0x1E63 DUP4 CODECOPY DUP2 MLOAD SWAP2 MSTORE DUP4 PUSH2 0x939 JUMP JUMPDEST PUSH2 0x9C4 PUSH2 0x18C2 JUMP JUMPDEST PUSH1 0x6 SLOAD DUP2 LT PUSH2 0x9FF JUMPI PUSH1 0x40 MLOAD PUSH3 0x461BCD PUSH1 0xE5 SHL DUP2 MSTORE PUSH1 0x20 PUSH1 0x4 DUP3 ADD MSTORE PUSH1 0x7 PUSH1 0x24 DUP3 ADD MSTORE PUSH7 0x125B9D985B1A59 PUSH1 0xCA SHL PUSH1 0x44 DUP3 ADD MSTORE PUSH1 0x64 ADD PUSH2 0x4A9 JUMP JUMPDEST PUSH0 PUSH1 0x6 DUP3 DUP2 SLOAD DUP2 LT PUSH2 0xA13 JUMPI PUSH2 0xA13 PUSH2 0x1C2D JUMP JUMPDEST PUSH0 SWAP2 DUP3 MSTORE PUSH1 0x20 SWAP1 SWAP2 KECCAK256 PUSH1 0x8 SWAP1 SWAP2 MUL ADD PUSH1 0x7 DUP2 ADD SLOAD SWAP1 SWAP2 POP PUSH1 0xFF AND PUSH2 0xA64 JUMPI PUSH1 0x40 MLOAD PUSH3 0x461BCD PUSH1 0xE5 SHL DUP2 MSTORE PUSH1 0x20 PUSH1 0x4 DUP3 ADD MSTORE PUSH1 0x8 PUSH1 0x24 DUP3 ADD MSTORE PUSH8 0x496E616374697665 PUSH1 0xC0 SHL PUSH1 0x44 DUP3 ADD MSTORE PUSH1 0x64 ADD PUSH2 0x4A9 JUMP JUMPDEST DUP1 SLOAD PUSH1 0x1 PUSH1 0x1 PUSH1 0xA0 SHL SUB AND CALLER EQ PUSH2 0xAAA JUMPI PUSH1 0x40 MLOAD PUSH3 0x461BCD PUSH1 0xE5 SHL DUP2 MSTORE PUSH1 0x20 PUSH1 0x4 DUP3 ADD MSTORE PUSH1 0xA PUSH1 0x24 DUP3 ADD MSTORE PUSH10 0x27B7363C9036B0B5B2B9 PUSH1 0xB1 SHL PUSH1 0x44 DUP3 ADD MSTORE PUSH1 0x64 ADD PUSH2 0x4A9 JUMP JUMPDEST PUSH1 0x7 DUP2 ADD DUP1 SLOAD PUSH1 0xFF NOT AND SWAP1 SSTORE PUSH1 0x4 DUP2 ADD DUP1 SLOAD PUSH0 SWAP1 SWAP2 SSTORE DUP1 ISZERO PUSH2 0xB76 JUMPI PUSH1 0x1 DUP3 ADD SLOAD PUSH1 0x40 MLOAD PUSH4 0xA9059CBB PUSH1 0xE0 SHL DUP2 MSTORE CALLER PUSH1 0x4 DUP3 ADD MSTORE PUSH1 0x24 DUP2 ADD DUP4 SWAP1 MSTORE PUSH1 0x1 PUSH1 0x1 PUSH1 0xA0 SHL SUB SWAP1 SWAP2 AND SWAP1 PUSH4 0xA9059CBB SWAP1 PUSH1 0x44 ADD PUSH1 0x20 PUSH1 0x40 MLOAD DUP1 DUP4 SUB DUP2 PUSH0 DUP8 GAS CALL ISZERO DUP1 ISZERO PUSH2 0xB16 JUMPI RETURNDATASIZE PUSH0 DUP1 RETURNDATACOPY RETURNDATASIZE PUSH0 REVERT JUMPDEST POP POP POP POP PUSH1 0x40 MLOAD RETURNDATASIZE PUSH1 0x1F NOT PUSH1 0x1F DUP3 ADD AND DUP3 ADD DUP1 PUSH1 0x40 MSTORE POP DUP2 ADD SWAP1 PUSH2 0xB3A SWAP2 SWAP1 PUSH2 0x1CCA JUMP JUMPDEST POP DUP3 PUSH32 0xAA2A006D186DC89A3D6851834C85D16226329AC40BCAD6531A5756A38ED1C90F DUP3 PUSH1 0x40 MLOAD PUSH2 0xB6D SWAP2 DUP2 MSTORE PUSH1 0x20 ADD SWAP1 JUMP JUMPDEST PUSH1 0x40 MLOAD DUP1 SWAP2 SUB SWAP1 LOG2 JUMPDEST POP POP PUSH2 0xB81 PUSH1 0x1 DUP1 SSTORE JUMP JUMPDEST POP JUMP JUMPDEST PUSH2 0xB8C PUSH2 0x18C2 JUMP JUMPDEST PUSH1 0x1 PUSH1 0x1 PUSH1 0xA0 SHL SUB DUP6 AND PUSH0 SWAP1 DUP2 MSTORE PUSH1 0x4 PUSH1 0x20 MSTORE PUSH1 0x40 SWAP1 KECCAK256 SLOAD PUSH1 0xFF AND DUP1 ISZERO PUSH2 0xBCA JUMPI POP PUSH1 0x1 PUSH1 0x1 PUSH1 0xA0 SHL SUB DUP5 AND PUSH0 SWAP1 DUP2 MSTORE PUSH1 0x4 PUSH1 0x20 MSTORE PUSH1 0x40 SWAP1 KECCAK256 SLOAD PUSH1 0xFF AND JUMPDEST PUSH2 0xBE6 JUMPI PUSH1 0x40 MLOAD PUSH3 0x461BCD PUSH1 0xE5 SHL DUP2 MSTORE PUSH1 0x4 ADD PUSH2 0x4A9 SWAP1 PUSH2 0x1C41 JUMP JUMPDEST PUSH0 DUP3 GT PUSH2 0xC21 JUMPI PUSH1 0x40 MLOAD PUSH3 0x461BCD PUSH1 0xE5 SHL DUP2 MSTORE PUSH1 0x20 PUSH1 0x4 DUP3 ADD MSTORE PUSH1 0x9 PUSH1 0x24 DUP3 ADD MSTORE PUSH9 0x52617465207A65726F PUSH1 0xB8 SHL PUSH1 0x44 DUP3 ADD MSTORE PUSH1 0x64 ADD PUSH2 0x4A9 JUMP JUMPDEST PUSH0 PUSH2 0xC2C DUP3 TIMESTAMP PUSH2 0x1CE5 JUMP JUMPDEST SWAP1 POP PUSH0 PUSH2 0xC39 DUP8 DUP7 PUSH2 0xF31 JUMP JUMPDEST SWAP1 POP PUSH0 DUP2 GT PUSH2 0xC76 JUMPI PUSH1 0x40 MLOAD PUSH3 0x461BCD PUSH1 0xE5 SHL DUP2 MSTORE PUSH1 0x20 PUSH1 0x4 DUP3 ADD MSTORE PUSH1 0x9 PUSH1 0x24 DUP3 ADD MSTORE PUSH9 0x151BDBC81CDB585B1B PUSH1 0xBA SHL PUSH1 0x44 DUP3 ADD MSTORE PUSH1 0x64 ADD PUSH2 0x4A9 JUMP JUMPDEST PUSH1 0x40 MLOAD PUSH4 0x23B872DD PUSH1 0xE0 SHL DUP2 MSTORE CALLER PUSH1 0x4 DUP3 ADD MSTORE ADDRESS PUSH1 0x24 DUP3 ADD MSTORE PUSH1 0x44 DUP2 ADD DUP7 SWAP1 MSTORE PUSH1 0x1 PUSH1 0x1 PUSH1 0xA0 SHL SUB DUP9 AND SWAP1 PUSH4 0x23B872DD SWAP1 PUSH1 0x64 ADD PUSH1 0x20 PUSH1 0x40 MLOAD DUP1 DUP4 SUB DUP2 PUSH0 DUP8 GAS CALL ISZERO DUP1 ISZERO PUSH2 0xCC6 JUMPI RETURNDATASIZE PUSH0 DUP1 RETURNDATACOPY RETURNDATASIZE PUSH0 REVERT JUMPDEST POP POP POP POP PUSH1 0x40 MLOAD RETURNDATASIZE PUSH1 0x1F NOT PUSH1 0x1F DUP3 ADD AND DUP3 ADD DUP1 PUSH1 0x40 MSTORE POP DUP2 ADD SWAP1 PUSH2 0xCEA SWAP2 SWAP1 PUSH2 0x1CCA JUMP JUMPDEST POP PUSH1 0x40 DUP1 MLOAD PUSH2 0x100 DUP2 ADD DUP3 MSTORE CALLER DUP1 DUP3 MSTORE PUSH1 0x1 PUSH1 0x1 PUSH1 0xA0 SHL SUB DUP11 DUP2 AND PUSH1 0x20 DUP5 ADD SWAP1 DUP2 MSTORE DUP11 DUP3 AND SWAP5 DUP5 ADD SWAP5 DUP6 MSTORE PUSH1 0x60 DUP5 ADD DUP11 DUP2 MSTORE PUSH1 0x80 DUP6 ADD DUP12 DUP2 MSTORE PUSH1 0xA0 DUP7 ADD DUP12 DUP2 MSTORE PUSH1 0xC0 DUP8 ADD DUP11 DUP2 MSTORE PUSH1 0x1 PUSH1 0xE0 DUP10 ADD DUP2 DUP2 MSTORE PUSH1 0x6 DUP1 SLOAD DUP1 DUP5 ADD DUP3 SSTORE PUSH0 DUP3 SWAP1 MSTORE SWAP11 MLOAD PUSH1 0x8 SWAP1 SWAP12 MUL PUSH32 0xF652222313E28459528D920B65115C16C04F3EFC82AAEDC97BE59F3F377C0D3F DUP2 ADD DUP1 SLOAD SWAP13 DUP12 AND PUSH1 0x1 PUSH1 0x1 PUSH1 0xA0 SHL SUB NOT SWAP14 DUP15 AND OR SWAP1 SSTORE SWAP8 MLOAD PUSH32 0xF652222313E28459528D920B65115C16C04F3EFC82AAEDC97BE59F3F377C0D40 DUP10 ADD DUP1 SLOAD SWAP2 DUP12 AND SWAP2 DUP14 AND SWAP2 SWAP1 SWAP2 OR SWAP1 SSTORE SWAP11 MLOAD PUSH32 0xF652222313E28459528D920B65115C16C04F3EFC82AAEDC97BE59F3F377C0D41 DUP9 ADD DUP1 SLOAD SWAP2 SWAP1 SWAP10 AND SWAP11 AND SWAP10 SWAP1 SWAP10 OR SWAP1 SWAP7 SSTORE SWAP3 MLOAD PUSH32 0xF652222313E28459528D920B65115C16C04F3EFC82AAEDC97BE59F3F377C0D42 DUP6 ADD SSTORE SWAP1 MLOAD PUSH32 0xF652222313E28459528D920B65115C16C04F3EFC82AAEDC97BE59F3F377C0D43 DUP5 ADD SSTORE MLOAD PUSH32 0xF652222313E28459528D920B65115C16C04F3EFC82AAEDC97BE59F3F377C0D44 DUP4 ADD SSTORE MLOAD PUSH32 0xF652222313E28459528D920B65115C16C04F3EFC82AAEDC97BE59F3F377C0D45 DUP3 ADD SSTORE SWAP3 MLOAD PUSH32 0xF652222313E28459528D920B65115C16C04F3EFC82AAEDC97BE59F3F377C0D46 SWAP1 SWAP4 ADD DUP1 SLOAD SWAP4 ISZERO ISZERO PUSH1 0xFF NOT SWAP1 SWAP5 AND SWAP4 SWAP1 SWAP4 OR SWAP1 SWAP3 SSTORE SWAP2 SLOAD PUSH2 0xEC6 SWAP2 SWAP1 PUSH2 0x1CB7 JUMP JUMPDEST PUSH1 0x40 DUP1 MLOAD PUSH1 0x1 PUSH1 0x1 PUSH1 0xA0 SHL SUB DUP1 DUP13 AND DUP3 MSTORE DUP11 AND PUSH1 0x20 DUP3 ADD MSTORE SWAP1 DUP2 ADD DUP9 SWAP1 MSTORE PUSH1 0x60 DUP2 ADD DUP8 SWAP1 MSTORE PUSH1 0x80 DUP2 ADD DUP6 SWAP1 MSTORE PUSH32 0xDB932A34C9C681F70D4D797E099A8752999C25F9C9FFA2009C5F39C8F8DEE4B4 SWAP1 PUSH1 0xA0 ADD PUSH1 0x40 MLOAD DUP1 SWAP2 SUB SWAP1 LOG3 POP POP PUSH2 0xF2A PUSH1 0x1 DUP1 SSTORE JUMP JUMPDEST POP POP POP POP POP JUMP JUMPDEST PUSH0 DUP1 PUSH2 0xF3C DUP5 PUSH2 0x1614 JUMP JUMPDEST SWAP1 POP PUSH2 0xF49 DUP2 PUSH1 0x12 PUSH2 0x1CF8 JUMP JUMPDEST PUSH2 0xF54 SWAP1 PUSH1 0xA PUSH2 0x1DF1 JUMP JUMPDEST PUSH2 0xF5E SWAP1 DUP5 PUSH2 0x1C81 JUMP JUMPDEST SWAP5 SWAP4 POP POP POP POP JUMP JUMPDEST PUSH2 0xF70 PUSH0 CALLER PUSH2 0x122C JUMP JUMPDEST DUP1 PUSH2 0xF8D JUMPI POP PUSH2 0xF8D PUSH0 DUP1 MLOAD PUSH1 0x20 PUSH2 0x1E63 DUP4 CODECOPY DUP2 MLOAD SWAP2 MSTORE CALLER PUSH2 0x122C JUMP JUMPDEST PUSH2 0xFA9 JUMPI PUSH1 0x40 MLOAD PUSH3 0x461BCD PUSH1 0xE5 SHL DUP2 MSTORE PUSH1 0x4 ADD PUSH2 0x4A9 SWAP1 PUSH2 0x1DFF JUMP JUMPDEST PUSH2 0x3E8 DUP2 GT ISZERO PUSH2 0xFEA JUMPI PUSH1 0x40 MLOAD PUSH3 0x461BCD PUSH1 0xE5 SHL DUP2 MSTORE PUSH1 0x20 PUSH1 0x4 DUP3 ADD MSTORE PUSH1 0xC PUSH1 0x24 DUP3 ADD MSTORE PUSH12 0x8CCACA40E8DEDE40D0D2CED PUSH1 0xA3 SHL PUSH1 0x44 DUP3 ADD MSTORE PUSH1 0x64 ADD PUSH2 0x4A9 JUMP JUMPDEST PUSH1 0x2 SLOAD PUSH1 0x40 DUP1 MLOAD SWAP2 DUP3 MSTORE PUSH1 0x20 DUP3 ADD DUP4 SWAP1 MSTORE PUSH32 0x528D9479E9F9889A87A3C30C7F7BA537E5E59C4C85A37733B16E57C62DF61302 SWAP2 ADD PUSH1 0x40 MLOAD DUP1 SWAP2 SUB SWAP1 LOG1 PUSH1 0x2 SSTORE JUMP JUMPDEST PUSH2 0x1035 PUSH0 CALLER PUSH2 0x122C JUMP JUMPDEST DUP1 PUSH2 0x1052 JUMPI POP PUSH2 0x1052 PUSH0 DUP1 MLOAD PUSH1 0x20 PUSH2 0x1E63 DUP4 CODECOPY DUP2 MLOAD SWAP2 MSTORE CALLER PUSH2 0x122C JUMP JUMPDEST PUSH2 0x106E JUMPI PUSH1 0x40 MLOAD PUSH3 0x461BCD PUSH1 0xE5 SHL DUP2 MSTORE PUSH1 0x4 ADD PUSH2 0x4A9 SWAP1 PUSH2 0x1DFF JUMP JUMPDEST PUSH1 0x40 MLOAD PUSH4 0x70A08231 PUSH1 0xE0 SHL DUP2 MSTORE ADDRESS PUSH1 0x4 DUP3 ADD MSTORE PUSH0 SWAP1 PUSH1 0x1 PUSH1 0x1 PUSH1 0xA0 SHL SUB DUP4 AND SWAP1 PUSH4 0x70A08231 SWAP1 PUSH1 0x24 ADD PUSH1 0x20 PUSH1 0x40 MLOAD DUP1 DUP4 SUB DUP2 DUP7 GAS STATICCALL ISZERO DUP1 ISZERO PUSH2 0x10B2 JUMPI RETURNDATASIZE PUSH0 DUP1 RETURNDATACOPY RETURNDATASIZE PUSH0 REVERT JUMPDEST POP POP POP POP PUSH1 0x40 MLOAD RETURNDATASIZE PUSH1 0x1F NOT PUSH1 0x1F DUP3 ADD AND DUP3 ADD DUP1 PUSH1 0x40 MSTORE POP DUP2 ADD SWAP1 PUSH2 0x10D6 SWAP2 SWAP1 PUSH2 0x1E2B JUMP JUMPDEST SWAP1 POP PUSH0 DUP2 GT PUSH2 0x111D JUMPI PUSH1 0x40 MLOAD PUSH3 0x461BCD PUSH1 0xE5 SHL DUP2 MSTORE PUSH1 0x20 PUSH1 0x4 DUP3 ADD MSTORE PUSH1 0x13 PUSH1 0x24 DUP3 ADD MSTORE PUSH19 0x4E6F7468696E6720746F207769746864726177 PUSH1 0x68 SHL PUSH1 0x44 DUP3 ADD MSTORE PUSH1 0x64 ADD PUSH2 0x4A9 JUMP JUMPDEST PUSH1 0x40 MLOAD PUSH4 0xA9059CBB PUSH1 0xE0 SHL DUP2 MSTORE CALLER PUSH1 0x4 DUP3 ADD MSTORE PUSH1 0x24 DUP2 ADD DUP3 SWAP1 MSTORE PUSH1 0x1 PUSH1 0x1 PUSH1 0xA0 SHL SUB DUP4 AND SWAP1 PUSH4 0xA9059CBB SWAP1 PUSH1 0x44 ADD PUSH1 0x20 PUSH1 0x40 MLOAD DUP1 DUP4 SUB DUP2 PUSH0 DUP8 GAS CALL ISZERO DUP1 ISZERO PUSH2 0x1167 JUMPI RETURNDATASIZE PUSH0 DUP1 RETURNDATACOPY RETURNDATASIZE PUSH0 REVERT JUMPDEST POP POP POP POP PUSH1 0x40 MLOAD RETURNDATASIZE PUSH1 0x1F NOT PUSH1 0x1F DUP3 ADD AND DUP3 ADD DUP1 PUSH1 0x40 MSTORE POP DUP2 ADD SWAP1 PUSH2 0x996 SWAP2 SWAP1 PUSH2 0x1CCA JUMP JUMPDEST PUSH2 0x1195 PUSH0 CALLER PUSH2 0x122C JUMP JUMPDEST DUP1 PUSH2 0x11B2 JUMPI POP PUSH2 0x11B2 PUSH0 DUP1 MLOAD PUSH1 0x20 PUSH2 0x1E63 DUP4 CODECOPY DUP2 MLOAD SWAP2 MSTORE CALLER PUSH2 0x122C JUMP JUMPDEST PUSH2 0x11CE JUMPI PUSH1 0x40 MLOAD PUSH3 0x461BCD PUSH1 0xE5 SHL DUP2 MSTORE PUSH1 0x4 ADD PUSH2 0x4A9 SWAP1 PUSH2 0x1DFF JUMP JUMPDEST PUSH1 0x1 PUSH1 0x1 PUSH1 0xA0 SHL SUB DUP3 AND PUSH0 DUP2 DUP2 MSTORE PUSH1 0x4 PUSH1 0x20 SWAP1 DUP2 MSTORE PUSH1 0x40 SWAP2 DUP3 SWAP1 KECCAK256 DUP1 SLOAD PUSH1 0xFF NOT AND DUP6 ISZERO ISZERO SWAP1 DUP2 OR SWAP1 SWAP2 SSTORE SWAP2 MLOAD SWAP2 DUP3 MSTORE PUSH32 0x67821D5384BB02AAB1BA91A477F89C9966CD30F475B02618BDC58712BCA51275 SWAP2 ADD PUSH1 0x40 MLOAD DUP1 SWAP2 SUB SWAP1 LOG2 POP POP JUMP JUMPDEST PUSH0 SWAP2 DUP3 MSTORE PUSH1 0x20 DUP3 DUP2 MSTORE PUSH1 0x40 DUP1 DUP5 KECCAK256 PUSH1 0x1 PUSH1 0x1 PUSH1 0xA0 SHL SUB SWAP4 SWAP1 SWAP4 AND DUP5 MSTORE SWAP2 SWAP1 MSTORE SWAP1 KECCAK256 SLOAD PUSH1 0xFF AND SWAP1 JUMP JUMPDEST PUSH1 0x6 DUP2 DUP2 SLOAD DUP2 LT PUSH2 0x1263 JUMPI PUSH0 DUP1 REVERT JUMPDEST PUSH0 SWAP2 DUP3 MSTORE PUSH1 0x20 SWAP1 SWAP2 KECCAK256 PUSH1 0x8 SWAP1 SWAP2 MUL ADD DUP1 SLOAD PUSH1 0x1 DUP3 ADD SLOAD PUSH1 0x2 DUP4 ADD SLOAD PUSH1 0x3 DUP5 ADD SLOAD PUSH1 0x4 DUP6 ADD SLOAD PUSH1 0x5 DUP7 ADD SLOAD PUSH1 0x6 DUP8 ADD SLOAD PUSH1 0x7 SWAP1 SWAP8 ADD SLOAD PUSH1 0x1 PUSH1 0x1 PUSH1 0xA0 SHL SUB SWAP7 DUP8 AND SWAP9 POP SWAP5 DUP7 AND SWAP7 SWAP4 SWAP1 SWAP6 AND SWAP5 SWAP2 SWAP4 SWAP1 SWAP3 SWAP1 PUSH1 0xFF AND DUP9 JUMP JUMPDEST PUSH0 DUP1 PUSH2 0x12C4 DUP5 PUSH2 0x1614 JUMP JUMPDEST SWAP1 POP PUSH2 0x12D1 DUP2 PUSH1 0x12 PUSH2 0x1CF8 JUMP JUMPDEST PUSH2 0x12DC SWAP1 PUSH1 0xA PUSH2 0x1DF1 JUMP JUMPDEST PUSH2 0xF5E SWAP1 DUP5 PUSH2 0x1C98 JUMP JUMPDEST PUSH2 0x12EE PUSH2 0x18C2 JUMP JUMPDEST PUSH1 0x1 PUSH1 0x1 PUSH1 0xA0 SHL SUB DUP4 AND PUSH0 SWAP1 DUP2 MSTORE PUSH1 0x4 PUSH1 0x20 MSTORE PUSH1 0x40 SWAP1 KECCAK256 SLOAD PUSH1 0xFF AND DUP1 ISZERO PUSH2 0x132C JUMPI POP PUSH1 0x1 PUSH1 0x1 PUSH1 0xA0 SHL SUB DUP3 AND PUSH0 SWAP1 DUP2 MSTORE PUSH1 0x4 PUSH1 0x20 MSTORE PUSH1 0x40 SWAP1 KECCAK256 SLOAD PUSH1 0xFF AND JUMPDEST PUSH2 0x1348 JUMPI PUSH1 0x40 MLOAD PUSH3 0x461BCD PUSH1 0xE5 SHL DUP2 MSTORE PUSH1 0x4 ADD PUSH2 0x4A9 SWAP1 PUSH2 0x1C41 JUMP JUMPDEST PUSH1 0x1 PUSH1 0x1 PUSH1 0xA0 SHL SUB DUP1 DUP5 AND PUSH0 SWAP1 DUP2 MSTORE PUSH1 0x5 PUSH1 0x20 SWAP1 DUP2 MSTORE PUSH1 0x40 DUP1 DUP4 KECCAK256 SWAP4 DUP7 AND DUP4 MSTORE SWAP3 SWAP1 MSTORE KECCAK256 SLOAD DUP1 PUSH2 0x13AB JUMPI PUSH1 0x40 MLOAD PUSH3 0x461BCD PUSH1 0xE5 SHL DUP2 MSTORE PUSH1 0x20 PUSH1 0x4 DUP3 ADD MSTORE PUSH1 0xE PUSH1 0x24 DUP3 ADD MSTORE PUSH14 0x4E6F20676C6F62616C2072617465 PUSH1 0x90 SHL PUSH1 0x44 DUP3 ADD MSTORE PUSH1 0x64 ADD PUSH2 0x4A9 JUMP JUMPDEST PUSH0 PUSH2 0x13B6 DUP6 DUP5 PUSH2 0xF31 JUMP JUMPDEST SWAP1 POP PUSH0 PUSH8 0xDE0B6B3A7640000 PUSH2 0x13CC DUP5 DUP5 PUSH2 0x1C81 JUMP JUMPDEST PUSH2 0x13D6 SWAP2 SWAP1 PUSH2 0x1C98 JUMP JUMPDEST SWAP1 POP PUSH0 PUSH2 0x13E3 DUP7 DUP4 PUSH2 0x12B9 JUMP JUMPDEST SWAP1 POP PUSH0 PUSH2 0x2710 PUSH1 0x2 SLOAD DUP4 PUSH2 0x13F7 SWAP2 SWAP1 PUSH2 0x1C81 JUMP JUMPDEST PUSH2 0x1401 SWAP2 SWAP1 PUSH2 0x1C98 JUMP JUMPDEST SWAP1 POP PUSH0 PUSH2 0x140E DUP3 DUP5 PUSH2 0x1CB7 JUMP JUMPDEST SWAP1 POP PUSH0 DUP2 GT PUSH2 0x1452 JUMPI PUSH1 0x40 MLOAD PUSH3 0x461BCD PUSH1 0xE5 SHL DUP2 MSTORE PUSH1 0x20 PUSH1 0x4 DUP3 ADD MSTORE PUSH1 0x10 PUSH1 0x24 DUP3 ADD MSTORE PUSH16 0x105B5BDD5B9D081D1BDBC81CDB585B1B PUSH1 0x82 SHL PUSH1 0x44 DUP3 ADD MSTORE PUSH1 0x64 ADD PUSH2 0x4A9 JUMP JUMPDEST PUSH1 0x40 MLOAD PUSH4 0x23B872DD PUSH1 0xE0 SHL DUP2 MSTORE CALLER PUSH1 0x4 DUP3 ADD MSTORE ADDRESS PUSH1 0x24 DUP3 ADD MSTORE PUSH1 0x44 DUP2 ADD DUP9 SWAP1 MSTORE PUSH1 0x1 PUSH1 0x1 PUSH1 0xA0 SHL SUB DUP11 AND SWAP1 PUSH4 0x23B872DD SWAP1 PUSH1 0x64 ADD PUSH1 0x20 PUSH1 0x40 MLOAD DUP1 DUP4 SUB DUP2 PUSH0 DUP8 GAS CALL ISZERO DUP1 ISZERO PUSH2 0x14A2 JUMPI RETURNDATASIZE PUSH0 DUP1 RETURNDATACOPY RETURNDATASIZE PUSH0 REVERT JUMPDEST POP POP POP POP PUSH1 0x40 MLOAD RETURNDATASIZE PUSH1 0x1F NOT PUSH1 0x1F DUP3 ADD AND DUP3 ADD DUP1 PUSH1 0x40 MSTORE POP DUP2 ADD SWAP1 PUSH2 0x14C6 SWAP2 SWAP1 PUSH2 0x1CCA JUMP JUMPDEST POP PUSH1 0x40 MLOAD PUSH4 0xA9059CBB PUSH1 0xE0 SHL DUP2 MSTORE CALLER PUSH1 0x4 DUP3 ADD MSTORE PUSH1 0x24 DUP2 ADD DUP3 SWAP1 MSTORE PUSH1 0x1 PUSH1 0x1 PUSH1 0xA0 SHL SUB DUP10 AND SWAP1 PUSH4 0xA9059CBB SWAP1 PUSH1 0x44 ADD PUSH1 0x20 PUSH1 0x40 MLOAD DUP1 DUP4 SUB DUP2 PUSH0 DUP8 GAS CALL ISZERO DUP1 ISZERO PUSH2 0x1511 JUMPI RETURNDATASIZE PUSH0 DUP1 RETURNDATACOPY RETURNDATASIZE PUSH0 REVERT JUMPDEST POP POP POP POP PUSH1 0x40 MLOAD RETURNDATASIZE PUSH1 0x1F NOT PUSH1 0x1F DUP3 ADD AND DUP3 ADD DUP1 PUSH1 0x40 MSTORE POP DUP2 ADD SWAP1 PUSH2 0x1535 SWAP2 SWAP1 PUSH2 0x1CCA JUMP JUMPDEST POP DUP2 ISZERO PUSH2 0x15B2 JUMPI PUSH1 0x3 SLOAD PUSH1 0x40 MLOAD PUSH4 0xA9059CBB PUSH1 0xE0 SHL DUP2 MSTORE PUSH1 0x1 PUSH1 0x1 PUSH1 0xA0 SHL SUB SWAP2 DUP3 AND PUSH1 0x4 DUP3 ADD MSTORE PUSH1 0x24 DUP2 ADD DUP5 SWAP1 MSTORE SWAP1 DUP10 AND SWAP1 PUSH4 0xA9059CBB SWAP1 PUSH1 0x44 ADD PUSH1 0x20 PUSH1 0x40 MLOAD DUP1 DUP4 SUB DUP2 PUSH0 DUP8 GAS CALL ISZERO DUP1 ISZERO PUSH2 0x158C JUMPI RETURNDATASIZE PUSH0 DUP1 RETURNDATACOPY RETURNDATASIZE PUSH0 REVERT JUMPDEST POP POP POP POP PUSH1 0x40 MLOAD RETURNDATASIZE PUSH1 0x1F NOT PUSH1 0x1F DUP3 ADD AND DUP3 ADD DUP1 PUSH1 0x40 MSTORE POP DUP2 ADD SWAP1 PUSH2 0x15B0 SWAP2 SWAP1 PUSH2 0x1CCA JUMP JUMPDEST POP JUMPDEST PUSH1 0x40 DUP1 MLOAD DUP9 DUP2 MSTORE PUSH1 0x20 DUP2 ADD DUP4 SWAP1 MSTORE SWAP1 DUP2 ADD DUP4 SWAP1 MSTORE PUSH1 0x1 PUSH1 0x1 PUSH1 0xA0 SHL SUB DUP1 DUP11 AND SWAP2 SWAP1 DUP12 AND SWAP1 CALLER SWAP1 PUSH32 0xEC5098F8C6AD93EE0051F440EC18DCDF5D28B504E6BC4613C0D3ADF4695C00C3 SWAP1 PUSH1 0x60 ADD PUSH1 0x40 MLOAD DUP1 SWAP2 SUB SWAP1 LOG4 POP POP POP POP POP POP PUSH2 0x996 PUSH1 0x1 DUP1 SSTORE JUMP JUMPDEST PUSH0 DUP2 PUSH1 0x1 PUSH1 0x1 PUSH1 0xA0 SHL SUB AND PUSH4 0x313CE567 PUSH1 0x40 MLOAD DUP2 PUSH4 0xFFFFFFFF AND PUSH1 0xE0 SHL DUP2 MSTORE PUSH1 0x4 ADD PUSH1 0x20 PUSH1 0x40 MLOAD DUP1 DUP4 SUB DUP2 DUP7 GAS STATICCALL ISZERO DUP1 ISZERO PUSH2 0x1651 JUMPI RETURNDATASIZE PUSH0 DUP1 RETURNDATACOPY RETURNDATASIZE PUSH0 REVERT JUMPDEST POP POP POP POP PUSH1 0x40 MLOAD RETURNDATASIZE PUSH1 0x1F NOT PUSH1 0x1F DUP3 ADD AND DUP3 ADD DUP1 PUSH1 0x40 MSTORE POP DUP2 ADD SWAP1 PUSH2 0x464 SWAP2 SWAP1 PUSH2 0x1E42 JUMP JUMPDEST PUSH2 0x167F PUSH0 CALLER PUSH2 0x122C JUMP JUMPDEST DUP1 PUSH2 0x169C JUMPI POP PUSH2 0x169C PUSH0 DUP1 MLOAD PUSH1 0x20 PUSH2 0x1E63 DUP4 CODECOPY DUP2 MLOAD SWAP2 MSTORE CALLER PUSH2 0x122C JUMP JUMPDEST PUSH2 0x16B8 JUMPI PUSH1 0x40 MLOAD PUSH3 0x461BCD PUSH1 0xE5 SHL DUP2 MSTORE PUSH1 0x4 ADD PUSH2 0x4A9 SWAP1 PUSH2 0x1DFF JUMP JUMPDEST PUSH0 DUP2 GT PUSH2 0x16F3 JUMPI PUSH1 0x40 MLOAD PUSH3 0x461BCD PUSH1 0xE5 SHL DUP2 MSTORE PUSH1 0x20 PUSH1 0x4 DUP3 ADD MSTORE PUSH1 0x9 PUSH1 0x24 DUP3 ADD MSTORE PUSH9 0x5A65726F2072617465 PUSH1 0xB8 SHL PUSH1 0x44 DUP3 ADD MSTORE PUSH1 0x64 ADD PUSH2 0x4A9 JUMP JUMPDEST PUSH1 0x1 PUSH1 0x1 PUSH1 0xA0 SHL SUB DUP4 AND PUSH0 SWAP1 DUP2 MSTORE PUSH1 0x4 PUSH1 0x20 MSTORE PUSH1 0x40 SWAP1 KECCAK256 SLOAD PUSH1 0xFF AND DUP1 ISZERO PUSH2 0x1731 JUMPI POP PUSH1 0x1 PUSH1 0x1 PUSH1 0xA0 SHL SUB DUP3 AND PUSH0 SWAP1 DUP2 MSTORE PUSH1 0x4 PUSH1 0x20 MSTORE PUSH1 0x40 SWAP1 KECCAK256 SLOAD PUSH1 0xFF AND JUMPDEST PUSH2 0x174D JUMPI PUSH1 0x40 MLOAD PUSH3 0x461BCD PUSH1 0xE5 SHL DUP2 MSTORE PUSH1 0x4 ADD PUSH2 0x4A9 SWAP1 PUSH2 0x1C41 JUMP JUMPDEST PUSH1 0x1 PUSH1 0x1 PUSH1 0xA0 SHL SUB DUP4 DUP2 AND PUSH0 DUP2 DUP2 MSTORE PUSH1 0x5 PUSH1 0x20 SWAP1 DUP2 MSTORE PUSH1 0x40 DUP1 DUP4 KECCAK256 SWAP5 DUP8 AND DUP1 DUP5 MSTORE SWAP5 DUP3 MSTORE SWAP2 DUP3 SWAP1 KECCAK256 DUP6 SWAP1 SSTORE SWAP1 MLOAD DUP5 DUP2 MSTORE PUSH32 0xBC337C774E3D398E3ABF682DE55E83814A46B4AB164A3D8B50740668193E1DF5 SWAP2 ADD PUSH1 0x40 MLOAD DUP1 SWAP2 SUB SWAP1 LOG3 POP POP POP JUMP JUMPDEST PUSH0 DUP3 DUP2 MSTORE PUSH1 0x20 DUP2 SWAP1 MSTORE PUSH1 0x40 SWAP1 KECCAK256 PUSH1 0x1 ADD SLOAD PUSH2 0x17C7 DUP2 PUSH2 0x191B JUMP JUMPDEST PUSH2 0x95D DUP4 DUP4 PUSH2 0x19B4 JUMP JUMPDEST PUSH2 0x17DB PUSH0 CALLER PUSH2 0x122C JUMP JUMPDEST DUP1 PUSH2 0x17F8 JUMPI POP PUSH2 0x17F8 PUSH0 DUP1 MLOAD PUSH1 0x20 PUSH2 0x1E63 DUP4 CODECOPY DUP2 MLOAD SWAP2 MSTORE CALLER PUSH2 0x122C JUMP JUMPDEST PUSH2 0x1814 JUMPI PUSH1 0x40 MLOAD PUSH3 0x461BCD PUSH1 0xE5 SHL DUP2 MSTORE PUSH1 0x4 ADD PUSH2 0x4A9 SWAP1 PUSH2 0x1DFF JUMP JUMPDEST PUSH1 0x1 PUSH1 0x1 PUSH1 0xA0 SHL SUB DUP2 AND PUSH2 0x1859 JUMPI PUSH1 0x40 MLOAD PUSH3 0x461BCD PUSH1 0xE5 SHL DUP2 MSTORE PUSH1 0x20 PUSH1 0x4 DUP3 ADD MSTORE PUSH1 0xC PUSH1 0x24 DUP3 ADD MSTORE PUSH12 0x5A65726F2061646472657373 PUSH1 0xA0 SHL PUSH1 0x44 DUP3 ADD MSTORE PUSH1 0x64 ADD PUSH2 0x4A9 JUMP JUMPDEST PUSH1 0x3 SLOAD PUSH1 0x40 DUP1 MLOAD PUSH1 0x1 PUSH1 0x1 PUSH1 0xA0 SHL SUB SWAP3 DUP4 AND DUP2 MSTORE SWAP2 DUP4 AND PUSH1 0x20 DUP4 ADD MSTORE PUSH32 0xAAEBCF1BFA00580E41D966056B48521FA9F202645C86D4DDF28113E617C1B1D3 SWAP2 ADD PUSH1 0x40 MLOAD DUP1 SWAP2 SUB SWAP1 LOG1 PUSH1 0x3 DUP1 SLOAD PUSH1 0x1 PUSH1 0x1 PUSH1 0xA0 SHL SUB NOT AND PUSH1 0x1 PUSH1 0x1 PUSH1 0xA0 SHL SUB SWAP3 SWAP1 SWAP3 AND SWAP2 SWAP1 SWAP2 OR SWAP1 SSTORE JUMP JUMPDEST PUSH1 0x2 PUSH1 0x1 SLOAD SUB PUSH2 0x1914 JUMPI PUSH1 0x40 MLOAD PUSH3 0x461BCD PUSH1 0xE5 SHL DUP2 MSTORE PUSH1 0x20 PUSH1 0x4 DUP3 ADD MSTORE PUSH1 0x1F PUSH1 0x24 DUP3 ADD MSTORE PUSH32 0x5265656E7472616E637947756172643A207265656E7472616E742063616C6C00 PUSH1 0x44 DUP3 ADD MSTORE PUSH1 0x64 ADD PUSH2 0x4A9 JUMP JUMPDEST PUSH1 0x2 PUSH1 0x1 SSTORE JUMP JUMPDEST PUSH2 0xB81 DUP2 CALLER PUSH2 0x1A1D JUMP JUMPDEST PUSH0 PUSH2 0x1930 DUP4 DUP4 PUSH2 0x122C JUMP JUMPDEST PUSH2 0x19AD JUMPI PUSH0 DUP4 DUP2 MSTORE PUSH1 0x20 DUP2 DUP2 MSTORE PUSH1 0x40 DUP1 DUP4 KECCAK256 PUSH1 0x1 PUSH1 0x1 PUSH1 0xA0 SHL SUB DUP7 AND DUP5 MSTORE SWAP1 SWAP2 MSTORE SWAP1 KECCAK256 DUP1 SLOAD PUSH1 0xFF NOT AND PUSH1 0x1 OR SWAP1 SSTORE PUSH2 0x1965 CALLER SWAP1 JUMP JUMPDEST PUSH1 0x1 PUSH1 0x1 PUSH1 0xA0 SHL SUB AND DUP3 PUSH1 0x1 PUSH1 0x1 PUSH1 0xA0 SHL SUB AND DUP5 PUSH32 0x2F8788117E7EFF1D82E926EC794901D17C78024A50270940304540A733656F0D PUSH1 0x40 MLOAD PUSH1 0x40 MLOAD DUP1 SWAP2 SUB SWAP1 LOG4 POP PUSH1 0x1 PUSH2 0x464 JUMP JUMPDEST POP PUSH0 PUSH2 0x464 JUMP JUMPDEST PUSH0 PUSH2 0x19BF DUP4 DUP4 PUSH2 0x122C JUMP JUMPDEST ISZERO PUSH2 0x19AD JUMPI PUSH0 DUP4 DUP2 MSTORE PUSH1 0x20 DUP2 DUP2 MSTORE PUSH1 0x40 DUP1 DUP4 KECCAK256 PUSH1 0x1 PUSH1 0x1 PUSH1 0xA0 SHL SUB DUP7 AND DUP1 DUP6 MSTORE SWAP3 MSTORE DUP1 DUP4 KECCAK256 DUP1 SLOAD PUSH1 0xFF NOT AND SWAP1 SSTORE MLOAD CALLER SWAP3 DUP7 SWAP2 PUSH32 0xF6391F5C32D9C69D2A47EA670B442974B53935D1EDC7FD64EB21E047A839171B SWAP2 SWAP1 LOG4 POP PUSH1 0x1 PUSH2 0x464 JUMP JUMPDEST PUSH2 0x1A27 DUP3 DUP3 PUSH2 0x122C JUMP JUMPDEST PUSH2 0x935 JUMPI PUSH1 0x40 MLOAD PUSH4 0xE2517D3F PUSH1 0xE0 SHL DUP2 MSTORE PUSH1 0x1 PUSH1 0x1 PUSH1 0xA0 SHL SUB DUP3 AND PUSH1 0x4 DUP3 ADD MSTORE PUSH1 0x24 DUP2 ADD DUP4 SWAP1 MSTORE PUSH1 0x44 ADD PUSH2 0x4A9 JUMP JUMPDEST PUSH0 PUSH1 0x20 DUP3 DUP5 SUB SLT ISZERO PUSH2 0x1A66 JUMPI PUSH0 DUP1 REVERT JUMPDEST DUP2 CALLDATALOAD PUSH1 0x1 PUSH1 0x1 PUSH1 0xE0 SHL SUB NOT DUP2 AND DUP2 EQ PUSH2 0x1A7D JUMPI PUSH0 DUP1 REVERT JUMPDEST SWAP4 SWAP3 POP POP POP JUMP JUMPDEST PUSH0 DUP1 PUSH1 0x40 DUP4 DUP6 SUB SLT ISZERO PUSH2 0x1A95 JUMPI PUSH0 DUP1 REVERT JUMPDEST POP POP DUP1 CALLDATALOAD SWAP3 PUSH1 0x20 SWAP1 SWAP2 ADD CALLDATALOAD SWAP2 POP JUMP JUMPDEST PUSH0 PUSH1 0x20 DUP3 DUP5 SUB SLT ISZERO PUSH2 0x1AB4 JUMPI PUSH0 DUP1 REVERT JUMPDEST POP CALLDATALOAD SWAP2 SWAP1 POP JUMP JUMPDEST DUP1 CALLDATALOAD PUSH1 0x1 PUSH1 0x1 PUSH1 0xA0 SHL SUB DUP2 AND DUP2 EQ PUSH2 0x1AD1 JUMPI PUSH0 DUP1 REVERT JUMPDEST SWAP2 SWAP1 POP JUMP JUMPDEST PUSH0 DUP1 PUSH1 0x40 DUP4 DUP6 SUB SLT ISZERO PUSH2 0x1AE7 JUMPI PUSH0 DUP1 REVERT JUMPDEST DUP3 CALLDATALOAD SWAP2 POP PUSH2 0x1AF7 PUSH1 0x20 DUP5 ADD PUSH2 0x1ABB JUMP JUMPDEST SWAP1 POP SWAP3 POP SWAP3 SWAP1 POP JUMP JUMPDEST PUSH0 DUP1 PUSH1 0x40 DUP4 DUP6 SUB SLT ISZERO PUSH2 0x1B11 JUMPI PUSH0 DUP1 REVERT JUMPDEST PUSH2 0x1B1A DUP4 PUSH2 0x1ABB JUMP JUMPDEST SWAP2 POP PUSH2 0x1AF7 PUSH1 0x20 DUP5 ADD PUSH2 0x1ABB JUMP JUMPDEST PUSH0 PUSH1 0x20 DUP3 DUP5 SUB SLT ISZERO PUSH2 0x1B38 JUMPI PUSH0 DUP1 REVERT JUMPDEST PUSH2 0x1A7D DUP3 PUSH2 0x1ABB JUMP JUMPDEST PUSH0 DUP1 PUSH0 DUP1 PUSH0 PUSH1 0xA0 DUP7 DUP9 SUB SLT ISZERO PUSH2 0x1B55 JUMPI PUSH0 DUP1 REVERT JUMPDEST PUSH2 0x1B5E DUP7 PUSH2 0x1ABB JUMP JUMPDEST SWAP5 POP PUSH2 0x1B6C PUSH1 0x20 DUP8 ADD PUSH2 0x1ABB JUMP JUMPDEST SWAP5 SWAP8 SWAP5 SWAP7 POP POP POP POP PUSH1 0x40 DUP4 ADD CALLDATALOAD SWAP3 PUSH1 0x60 DUP2 ADD CALLDATALOAD SWAP3 PUSH1 0x80 SWAP1 SWAP2 ADD CALLDATALOAD SWAP2 POP JUMP JUMPDEST PUSH0 DUP1 PUSH1 0x40 DUP4 DUP6 SUB SLT ISZERO PUSH2 0x1B9B JUMPI PUSH0 DUP1 REVERT JUMPDEST PUSH2 0x1BA4 DUP4 PUSH2 0x1ABB JUMP JUMPDEST SWAP5 PUSH1 0x20 SWAP4 SWAP1 SWAP4 ADD CALLDATALOAD SWAP4 POP POP POP JUMP JUMPDEST DUP1 ISZERO ISZERO DUP2 EQ PUSH2 0xB81 JUMPI PUSH0 DUP1 REVERT JUMPDEST PUSH0 DUP1 PUSH1 0x40 DUP4 DUP6 SUB SLT ISZERO PUSH2 0x1BD0 JUMPI PUSH0 DUP1 REVERT JUMPDEST PUSH2 0x1BD9 DUP4 PUSH2 0x1ABB JUMP JUMPDEST SWAP2 POP PUSH1 0x20 DUP4 ADD CALLDATALOAD PUSH2 0x1BE9 DUP2 PUSH2 0x1BB2 JUMP JUMPDEST DUP1 SWAP2 POP POP SWAP3 POP SWAP3 SWAP1 POP JUMP JUMPDEST PUSH0 DUP1 PUSH0 PUSH1 0x60 DUP5 DUP7 SUB SLT ISZERO PUSH2 0x1C06 JUMPI PUSH0 DUP1 REVERT JUMPDEST PUSH2 0x1C0F DUP5 PUSH2 0x1ABB JUMP JUMPDEST SWAP3 POP PUSH2 0x1C1D PUSH1 0x20 DUP6 ADD PUSH2 0x1ABB JUMP JUMPDEST SWAP2 POP PUSH1 0x40 DUP5 ADD CALLDATALOAD SWAP1 POP SWAP3 POP SWAP3 POP SWAP3 JUMP JUMPDEST PUSH4 0x4E487B71 PUSH1 0xE0 SHL PUSH0 MSTORE PUSH1 0x32 PUSH1 0x4 MSTORE PUSH1 0x24 PUSH0 REVERT JUMPDEST PUSH1 0x20 DUP1 DUP3 MSTORE PUSH1 0x12 SWAP1 DUP3 ADD MSTORE PUSH18 0x151BDAD95B9CC81B9BDD08185B1B1BDDD959 PUSH1 0x72 SHL PUSH1 0x40 DUP3 ADD MSTORE PUSH1 0x60 ADD SWAP1 JUMP JUMPDEST PUSH4 0x4E487B71 PUSH1 0xE0 SHL PUSH0 MSTORE PUSH1 0x11 PUSH1 0x4 MSTORE PUSH1 0x24 PUSH0 REVERT JUMPDEST DUP1 DUP3 MUL DUP2 ISZERO DUP3 DUP3 DIV DUP5 EQ OR PUSH2 0x464 JUMPI PUSH2 0x464 PUSH2 0x1C6D JUMP JUMPDEST PUSH0 DUP3 PUSH2 0x1CB2 JUMPI PUSH4 0x4E487B71 PUSH1 0xE0 SHL PUSH0 MSTORE PUSH1 0x12 PUSH1 0x4 MSTORE PUSH1 0x24 PUSH0 REVERT JUMPDEST POP DIV SWAP1 JUMP JUMPDEST DUP2 DUP2 SUB DUP2 DUP2 GT ISZERO PUSH2 0x464 JUMPI PUSH2 0x464 PUSH2 0x1C6D JUMP JUMPDEST PUSH0 PUSH1 0x20 DUP3 DUP5 SUB SLT ISZERO PUSH2 0x1CDA JUMPI PUSH0 DUP1 REVERT JUMPDEST DUP2 MLOAD PUSH2 0x1A7D DUP2 PUSH2 0x1BB2 JUMP JUMPDEST DUP1 DUP3 ADD DUP1 DUP3 GT ISZERO PUSH2 0x464 JUMPI PUSH2 0x464 PUSH2 0x1C6D JUMP JUMPDEST PUSH1 0xFF DUP3 DUP2 AND DUP3 DUP3 AND SUB SWAP1 DUP2 GT ISZERO PUSH2 0x464 JUMPI PUSH2 0x464 PUSH2 0x1C6D JUMP JUMPDEST PUSH1 0x1 DUP2 DUP2 JUMPDEST DUP1 DUP6 GT ISZERO PUSH2 0x1D4B JUMPI DUP2 PUSH0 NOT DIV DUP3 GT ISZERO PUSH2 0x1D31 JUMPI PUSH2 0x1D31 PUSH2 0x1C6D JUMP JUMPDEST DUP1 DUP6 AND ISZERO PUSH2 0x1D3E JUMPI SWAP2 DUP2 MUL SWAP2 JUMPDEST SWAP4 DUP5 SHR SWAP4 SWAP1 DUP1 MUL SWAP1 PUSH2 0x1D16 JUMP JUMPDEST POP SWAP3 POP SWAP3 SWAP1 POP JUMP JUMPDEST PUSH0 DUP3 PUSH2 0x1D61 JUMPI POP PUSH1 0x1 PUSH2 0x464 JUMP JUMPDEST DUP2 PUSH2 0x1D6D JUMPI POP PUSH0 PUSH2 0x464 JUMP JUMPDEST DUP2 PUSH1 0x1 DUP2 EQ PUSH2 0x1D83 JUMPI PUSH1 0x2 DUP2 EQ PUSH2 0x1D8D JUMPI PUSH2 0x1DA9 JUMP JUMPDEST PUSH1 0x1 SWAP2 POP POP PUSH2 0x464 JUMP JUMPDEST PUSH1 0xFF DUP5 GT ISZERO PUSH2 0x1D9E JUMPI PUSH2 0x1D9E PUSH2 0x1C6D JUMP JUMPDEST POP POP PUSH1 0x1 DUP3 SHL PUSH2 0x464 JUMP JUMPDEST POP PUSH1 0x20 DUP4 LT PUSH2 0x133 DUP4 LT AND PUSH1 0x4E DUP5 LT PUSH1 0xB DUP5 LT AND OR ISZERO PUSH2 0x1DCC JUMPI POP DUP2 DUP2 EXP PUSH2 0x464 JUMP JUMPDEST PUSH2 0x1DD6 DUP4 DUP4 PUSH2 0x1D11 JUMP JUMPDEST DUP1 PUSH0 NOT DIV DUP3 GT ISZERO PUSH2 0x1DE9 JUMPI PUSH2 0x1DE9 PUSH2 0x1C6D JUMP JUMPDEST MUL SWAP4 SWAP3 POP POP POP JUMP JUMPDEST PUSH0 PUSH2 0x1A7D PUSH1 0xFF DUP5 AND DUP4 PUSH2 0x1D53 JUMP JUMPDEST PUSH1 0x20 DUP1 DUP3 MSTORE PUSH1 0x12 SWAP1 DUP3 ADD MSTORE PUSH18 0x2737BA1030B236B4B717B9BAB130B236B4B7 PUSH1 0x71 SHL PUSH1 0x40 DUP3 ADD MSTORE PUSH1 0x60 ADD SWAP1 JUMP JUMPDEST PUSH0 PUSH1 0x20 DUP3 DUP5 SUB SLT ISZERO PUSH2 0x1E3B JUMPI PUSH0 DUP1 REVERT JUMPDEST POP MLOAD SWAP2 SWAP1 POP JUMP JUMPDEST PUSH0 PUSH1 0x20 DUP3 DUP5 SUB SLT ISZERO PUSH2 0x1E52 JUMPI PUSH0 DUP1 REVERT JUMPDEST DUP2 MLOAD PUSH1 0xFF DUP2 AND DUP2 EQ PUSH2 0x1A7D JUMPI PUSH0 DUP1 REVERT INVALID 0x2C 0xCF SWAP1 0xDD PUSH29 0x30B80A460E25097B3C5EF613343F69AD6B2CFD3CFB644AF593CA0BA264 PUSH10 0x70667358221220DCD1B4 0xD7 SHR 0xB2 RETURNDATACOPY PUSH31 0x99E29841974F901B530D99F4F80150D723916FA423F0C3AE64736F6C634300 ADDMOD EQ STOP CALLER "
				},
				"gasEstimates": {
					"creation": {
						"codeDepositCost": "1572800",
						"executionCost": "infinite",
						"totalCost": "infinite"
					},
					"external": {
						"DEFAULT_ADMIN_ROLE()": "282",
						"SUBADMIN_ROLE()": "infinite",
						"allowedTokens(address)": "2605",
						"cancelOrder(uint256)": "infinite",
						"createOrder(address,address,uint256,uint256,uint256)": "infinite",
						"denormalize(address,uint256)": "infinite",
						"emergencyWithdraw(address)": "infinite",
						"feeRecipient()": "2404",
						"getDecimals(address)": "infinite",
						"getRoleAdmin(bytes32)": "2512",
						"globalRates(address,address)": "infinite",
						"grantRole(bytes32,address)": "infinite",
						"grantSubAdmin(address)": "infinite",
						"hasRole(bytes32,address)": "2715",
						"matchOrder(uint256,uint256)": "infinite",
						"normalize(address,uint256)": "infinite",
						"orders(uint256)": "19715",
						"renounceRole(bytes32,address)": "29064",
						"revokeRole(bytes32,address)": "infinite",
						"setAllowedToken(address,bool)": "infinite",
						"setFee(uint256)": "infinite",
						"setFeeRecipient(address)": "infinite",
						"setGlobalRate(address,address,uint256)": "infinite",
						"supportsInterface(bytes4)": "447",
						"swapFeeBps()": "2406",
						"swapGlobal(address,address,uint256)": "infinite"
					}
				},
				"methodIdentifiers": {
					"DEFAULT_ADMIN_ROLE()": "a217fddf",
					"SUBADMIN_ROLE()": "ba87a7c9",
					"allowedTokens(address)": "e744092e",
					"cancelOrder(uint256)": "514fcac7",
					"createOrder(address,address,uint256,uint256,uint256)": "518e62db",
					"denormalize(address,uint256)": "b38e0fc4",
					"emergencyWithdraw(address)": "6ff1c9bc",
					"feeRecipient()": "46904840",
					"getDecimals(address)": "cf54aaa0",
					"getRoleAdmin(bytes32)": "248a9ca3",
					"globalRates(address,address)": "3070e98d",
					"grantRole(bytes32,address)": "2f2ff15d",
					"grantSubAdmin(address)": "4d910929",
					"hasRole(bytes32,address)": "91d14854",
					"matchOrder(uint256,uint256)": "0ca41aac",
					"normalize(address,uint256)": "679fb287",
					"orders(uint256)": "a85c38ef",
					"renounceRole(bytes32,address)": "36568abe",
					"revokeRole(bytes32,address)": "d547741f",
					"setAllowedToken(address,bool)": "8aaa2284",
					"setFee(uint256)": "69fe0e2d",
					"setFeeRecipient(address)": "e74b981b",
					"setGlobalRate(address,address,uint256)": "d4248bbe",
					"supportsInterface(bytes4)": "01ffc9a7",
					"swapFeeBps()": "2ffdaf89",
					"swapGlobal(address,address,uint256)": "cd3e5576"
				}
			},
			"storageLayout": {
				"storage": [
					{
						"astId": 27,
						"contract": "LibertyFinancialChain/LiberttFinancial/exchange.sol:RobustHybridExchange",
						"label": "_roles",
						"offset": 0,
						"slot": "0",
						"type": "t_mapping(t_bytes32,t_struct(RoleData)22_storage)"
					},
					{
						"astId": 390,
						"contract": "LibertyFinancialChain/LiberttFinancial/exchange.sol:RobustHybridExchange",
						"label": "_status",
						"offset": 0,
						"slot": "1",
						"type": "t_uint256"
					},
					{
						"astId": 632,
						"contract": "LibertyFinancialChain/LiberttFinancial/exchange.sol:RobustHybridExchange",
						"label": "swapFeeBps",
						"offset": 0,
						"slot": "2",
						"type": "t_uint256"
					},
					{
						"astId": 634,
						"contract": "LibertyFinancialChain/LiberttFinancial/exchange.sol:RobustHybridExchange",
						"label": "feeRecipient",
						"offset": 0,
						"slot": "3",
						"type": "t_address"
					},
					{
						"astId": 638,
						"contract": "LibertyFinancialChain/LiberttFinancial/exchange.sol:RobustHybridExchange",
						"label": "allowedTokens",
						"offset": 0,
						"slot": "4",
						"type": "t_mapping(t_address,t_bool)"
					},
					{
						"astId": 644,
						"contract": "LibertyFinancialChain/LiberttFinancial/exchange.sol:RobustHybridExchange",
						"label": "globalRates",
						"offset": 0,
						"slot": "5",
						"type": "t_mapping(t_address,t_mapping(t_address,t_uint256))"
					},
					{
						"astId": 665,
						"contract": "LibertyFinancialChain/LiberttFinancial/exchange.sol:RobustHybridExchange",
						"label": "orders",
						"offset": 0,
						"slot": "6",
						"type": "t_array(t_struct(Order)661_storage)dyn_storage"
					}
				],
				"types": {
					"t_address": {
						"encoding": "inplace",
						"label": "address",
						"numberOfBytes": "20"
					},
					"t_array(t_struct(Order)661_storage)dyn_storage": {
						"base": "t_struct(Order)661_storage",
						"encoding": "dynamic_array",
						"label": "struct RobustHybridExchange.Order[]",
						"numberOfBytes": "32"
					},
					"t_bool": {
						"encoding": "inplace",
						"label": "bool",
						"numberOfBytes": "1"
					},
					"t_bytes32": {
						"encoding": "inplace",
						"label": "bytes32",
						"numberOfBytes": "32"
					},
					"t_mapping(t_address,t_bool)": {
						"encoding": "mapping",
						"key": "t_address",
						"label": "mapping(address => bool)",
						"numberOfBytes": "32",
						"value": "t_bool"
					},
					"t_mapping(t_address,t_mapping(t_address,t_uint256))": {
						"encoding": "mapping",
						"key": "t_address",
						"label": "mapping(address => mapping(address => uint256))",
						"numberOfBytes": "32",
						"value": "t_mapping(t_address,t_uint256)"
					},
					"t_mapping(t_address,t_uint256)": {
						"encoding": "mapping",
						"key": "t_address",
						"label": "mapping(address => uint256)",
						"numberOfBytes": "32",
						"value": "t_uint256"
					},
					"t_mapping(t_bytes32,t_struct(RoleData)22_storage)": {
						"encoding": "mapping",
						"key": "t_bytes32",
						"label": "mapping(bytes32 => struct AccessControl.RoleData)",
						"numberOfBytes": "32",
						"value": "t_struct(RoleData)22_storage"
					},
					"t_struct(Order)661_storage": {
						"encoding": "inplace",
						"label": "struct RobustHybridExchange.Order",
						"members": [
							{
								"astId": 646,
								"contract": "LibertyFinancialChain/LiberttFinancial/exchange.sol:RobustHybridExchange",
								"label": "maker",
								"offset": 0,
								"slot": "0",
								"type": "t_address"
							},
							{
								"astId": 648,
								"contract": "LibertyFinancialChain/LiberttFinancial/exchange.sol:RobustHybridExchange",
								"label": "tokenIn",
								"offset": 0,
								"slot": "1",
								"type": "t_address"
							},
							{
								"astId": 650,
								"contract": "LibertyFinancialChain/LiberttFinancial/exchange.sol:RobustHybridExchange",
								"label": "tokenOut",
								"offset": 0,
								"slot": "2",
								"type": "t_address"
							},
							{
								"astId": 652,
								"contract": "LibertyFinancialChain/LiberttFinancial/exchange.sol:RobustHybridExchange",
								"label": "amountInitial",
								"offset": 0,
								"slot": "3",
								"type": "t_uint256"
							},
							{
								"astId": 654,
								"contract": "LibertyFinancialChain/LiberttFinancial/exchange.sol:RobustHybridExchange",
								"label": "amountRemaining",
								"offset": 0,
								"slot": "4",
								"type": "t_uint256"
							},
							{
								"astId": 656,
								"contract": "LibertyFinancialChain/LiberttFinancial/exchange.sol:RobustHybridExchange",
								"label": "rate",
								"offset": 0,
								"slot": "5",
								"type": "t_uint256"
							},
							{
								"astId": 658,
								"contract": "LibertyFinancialChain/LiberttFinancial/exchange.sol:RobustHybridExchange",
								"label": "expiresAt",
								"offset": 0,
								"slot": "6",
								"type": "t_uint256"
							},
							{
								"astId": 660,
								"contract": "LibertyFinancialChain/LiberttFinancial/exchange.sol:RobustHybridExchange",
								"label": "active",
								"offset": 0,
								"slot": "7",
								"type": "t_bool"
							}
						],
						"numberOfBytes": "256"
					},
					"t_struct(RoleData)22_storage": {
						"encoding": "inplace",
						"label": "struct AccessControl.RoleData",
						"members": [
							{
								"astId": 19,
								"contract": "LibertyFinancialChain/LiberttFinancial/exchange.sol:RobustHybridExchange",
								"label": "hasRole",
								"offset": 0,
								"slot": "0",
								"type": "t_mapping(t_address,t_bool)"
							},
							{
								"astId": 21,
								"contract": "LibertyFinancialChain/LiberttFinancial/exchange.sol:RobustHybridExchange",
								"label": "adminRole",
								"offset": 0,
								"slot": "1",
								"type": "t_bytes32"
							}
						],
						"numberOfBytes": "64"
					},
					"t_uint256": {
						"encoding": "inplace",
						"label": "uint256",
						"numberOfBytes": "32"
					}
				}
			},
			"userdoc": {
				"kind": "user",
				"methods": {},
				"version": 1
			}
		}
	}
}