{
	"data": {
		"bytecode": {
			"linkReferences": {},
			"object": "61016060405261012c608090815260c860a052606460c081905260e0819052610100526032610120526019610140526200003e9060029060076200056d565b50605a600c5534801562000050575f80fd5b5060405162003813380380620038138339810160408190526200007391620005e8565b33806200009a57604051631e4fbdf760e01b81525f60048201526024015b60405180910390fd5b620000a5816200051e565b50600180556001600160a01b038316620000f65760405162461bcd60e51b815260206004820152601160248201527014dd5898591b5a5b881c995c5d5a5c9959607a1b604482015260640162000091565b6001600160a01b038216158015906200011757506001600160a01b03811615155b620001575760405162461bcd60e51b815260206004820152600f60248201526e151bdad95b9cc81c995c5d5a5c9959608a1b604482015260640162000091565b600b80546001600160a01b038086166001600160a01b031992831617909255600980548584169083168117909155600a8054938516939092169290921790556040805163313ce56760e01b8152905163313ce567916004808201926020929091908290030181865afa158015620001d0573d5f803e3d5ffd5b505050506040513d601f19601f82011682018060405250810190620001f691906200062f565b600b60146101000a81548160ff021916908360ff160217905550806001600160a01b031663313ce5676040518163ffffffff1660e01b8152600401602060405180830381865afa1580156200024d573d5f803e3d5ffd5b505050506040513d601f19601f820116820180604052508101906200027391906200062f565b600b805460ff92909216600160a81b0260ff60a81b199092169190911790556001600160a01b038083165f908152600d6020526040808220805460ff19908116600190811790925593851683529120805490921681179091555b60098111620003e9576040805160c08101825282815281518083018352600881526714dd185b99185c9960c21b6020828101919091528083019182525f8385018190526001606085018190526080850182905260a0850182905286825260109092529390932082518155905191929091908201906200034d9082620006f8565b5060408281015160028301556060830151600383018054608086015115156101000261ff00199315159390931661ffff199091161791909117905560a0909201516004909101555181905f80516020620037f383398151915290620003ce9060208082526008908201526714dd185b99185c9960c21b604082015260600190565b60405180910390a2620003e181620007d4565b9050620002cd565b600c811162000503576040805160c0810182528281528151808301835260078152664c6f747465727960c81b6020828101919091528083019182525f8385018190526001606085018190526080850182905260a085018290528682526010909252939093208251815590519192909190820190620004689082620006f8565b5060408281015160028301556060830151600383018054608086015115156101000261ff00199315159390931661ffff199091161791909117905560a0909201516004909101555181905f80516020620037f383398151915290620004e8906020808252600790820152664c6f747465727960c81b604082015260600190565b60405180910390a2620004fb81620007d4565b9050620003e9565b62000510600182620007ef565b601155506200080b92505050565b5f80546001600160a01b038381166001600160a01b0319831681178455604051919092169283917f8be0079c531659141344cd1fd0a4f28419497f9722a3daafe3b4186f6b6457e09190a35050565b8260078101928215620005a4579160200282015b82811115620005a4578251829061ffff1690559160200191906001019062000581565b50620005b2929150620005b6565b5090565b5b80821115620005b2575f8155600101620005b7565b80516001600160a01b0381168114620005e3575f80fd5b919050565b5f805f60608486031215620005fb575f80fd5b6200060684620005cc565b92506200061660208501620005cc565b91506200062660408501620005cc565b90509250925092565b5f6020828403121562000640575f80fd5b815160ff8116811462000651575f80fd5b9392505050565b634e487b7160e01b5f52604160045260245ffd5b600181811c908216806200068157607f821691505b602082108103620006a057634e487b7160e01b5f52602260045260245ffd5b50919050565b601f821115620006f3575f81815260208120601f850160051c81016020861015620006ce5750805b601f850160051c820191505b81811015620006ef57828155600101620006da565b5050505b505050565b81516001600160401b0381111562000714576200071462000658565b6200072c816200072584546200066c565b84620006a6565b602080601f83116001811462000762575f84156200074a5750858301515b5f19600386901b1c1916600185901b178555620006ef565b5f85815260208120601f198616915b82811015620007925788860151825594840194600190910190840162000771565b5085821015620007b057878501515f19600388901b60f8161c191681555b5050505050600190811b01905550565b634e487b7160e01b5f52601160045260245ffd5b5f60018201620007e857620007e8620007c0565b5060010190565b81810381811115620008055762000805620007c0565b92915050565b612fda80620008195f395ff3fe608060405234801561000f575f80fd5b506004361061028b575f3560e01c80637675243511610161578063bcaf0d95116100ca578063e22d0a8211610084578063e22d0a8214610607578063e7780f281461062f578063eddaa3ab1461064e578063f2fde38b1461065b578063f8b55f4f1461066e578063fe575a871461067e575f80fd5b8063bcaf0d95146105c9578063c885bc58146105d2578063d66aafa6146105da578063dc810925146105e3578063ddbb48d6146105ec578063e1e55fbf146105ff575f80fd5b8063a87430ba1161011b578063a87430ba146104e3578063ac4afa3814610560578063b1b358d414610585578063b1ced5e714610598578063b380744d146105a3578063bc0ca177146105b6575f80fd5b806376752435146104745780637bb5ee4b1461048757806381caedf11461049a5780638995bc60146104ad5780638da5cb5b146104c0578063a3a83649146104d0575f80fd5b80633b38bf7211610203578063600d20ce116101bd578063600d20ce146103ea57806366a4b6c0146103fd5780636afbd41514610423578063715018a614610436578063753d75631461043e578063755e1fee14610460575f80fd5b80633b38bf72146103825780634420e4861461039557806344386321146103a85780634b67e948146103bb5780634ba05906146103ce578063569a7dfd146103d7575f80fd5b8063166b836f11610254578063166b836f146102f957806317b7213714610308578063181187871461032d578063239cc1dd14610337578063254c43261461035b578063367631d71461036f575f80fd5b80627da2581461028f5780630e3a83a4146102aa578063106ca23c146102d557806311ccdf8c146102de578063149b6b1f146102e6575b5f80fd5b6102976106a0565b6040519081526020015b60405180910390f35b600e546102bd906001600160a01b031681565b6040516001600160a01b0390911681526020016102a1565b61029760185481565b6102976106ca565b6102976102f43660046129b0565b61070f565b6102976798a7d9b8314c000081565b61031b6103163660046129d0565b610783565b6040516102a196959493929190612a33565b61033561086c565b005b600f5461034b90600160a81b900460ff1681565b60405190151581526020016102a1565b600f5461034b90600160a01b900460ff1681565b61033561037d3660046129b0565b610a71565b610335610390366004612a7a565b610bb2565b6103356103a33660046129b0565b610e06565b600a546102bd906001600160a01b031681565b6103356103c9366004612aab565b61109d565b61029760115481565b6103356103e5366004612af3565b6111c7565b6102976103f8366004612b0c565b611210565b600b5461041190600160a81b900460ff1681565b60405160ff90911681526020016102a1565b600b546102bd906001600160a01b031681565b610335611226565b61034b61044c3660046129b0565b600d6020525f908152604090205460ff1681565b600b5461041190600160a01b900460ff1681565b6103356104823660046129b0565b611237565b600f546102bd906001600160a01b031681565b6103356104a8366004612b0c565b611371565b6103356104bb366004612b31565b611449565b5f546001600160a01b03166102bd565b6009546102bd906001600160a01b031681565b61052c6104f13660046129b0565b60146020525f9081526040902080546009820154600a830154600b840154600c909401546001600160a01b0390931693919290919060ff1685565b604080516001600160a01b03909616865260208601949094529284019190915260608301521515608082015260a0016102a1565b61057361056e366004612b0c565b611485565b6040516102a196959493929190612b68565b610335610593366004612b0c565b611549565b610297633b9aca0081565b6103356105b1366004612ba5565b611880565b6103356105c4366004612be2565b6121ee565b610297600c5481565b6103356123c8565b61029760195481565b61029760125481565b6103356105fa366004612b0c565b61253d565b610297606481565b6102976106153660046129b0565b6001600160a01b03165f9081526015602052604090205490565b61029761063d3660046129b0565b60156020525f908152604090205481565b60175461034b9060ff1681565b6103356106693660046129b0565b612619565b610297683635c9adc5dea0000081565b61034b61068c3660046129b0565b60166020525f908152604090205460ff1681565b5f8060115460016106b19190612cab565b9050633b9aca0081116106c357919050565b5f91505090565b6011545f905b60018110610708575f8181526010602052604090206003015460ff16156106f657919050565b8061070081612cc4565b9150506106d0565b505f905090565b6001600160a01b0381165f9081526014602052604081206009810154829061073990600390612cd9565b90505f82600b015483600a01546107509190612cf0565b9050818184600b01546107639190612cab565b111561077b57600b8301546107789083612cf0565b90505b949350505050565b6013602052815f5260405f20818154811061079c575f80fd5b5f918252602090912060069091020180546001820154600283015460038401546004850180549497506001600160a01b039093169550909390929091906107e290612d03565b80601f016020809104026020016040519081016040528092919081815260200182805461080e90612d03565b80156108595780601f1061083057610100808354040283529160200191610859565b820191905f5260205f20905b81548152906001019060200180831161083c57829003601f168201915b5050506005909301549192505060ff1686565b610874612653565b335f8181526014602052604081209161088c9061070f565b9050683635c9adc5dea000008110156108e25760405162461bcd60e51b81526020600482015260136024820152724e6f7420656e6f75676820746f20636c61696d60681b60448201526064015b60405180910390fd5b8082600b015f8282546108f59190612cab565b90915550506009546040516370a0823160e01b815230600482015282916001600160a01b0316906370a0823190602401602060405180830381865afa158015610940573d5f803e3d5ffd5b505050506040513d601f19601f820116820180604052508101906109649190612d3b565b10156109a65760405162461bcd60e51b8152602060048201526011602482015270496e73756666696369656e7420494e523160781b60448201526064016108d9565b6009546109bd906001600160a01b031633836126ac565b60405181815233907f5be4d22009fea85381595ed91090bc5c0bc92a93fe07ed7472c5888eb1993f839060200160405180910390a2336001600160a01b03167fdd8025b728f6881d55401ec3c5f58bac7e135a199306892b83593f9bf4bfe23a83600a0154610a2b3361070f565b85600b015460038760090154610a419190612cd9565b60408051948552602085019390935291830152606082015260800160405180910390a25050610a6f60018055565b565b610a7961270b565b6001600160a01b038116610abe5760405162461bcd60e51b815260206004820152600c60248201526b5a65726f206164647265737360a01b60448201526064016108d9565b600980546001600160a01b0319166001600160a01b0383169081179091556040805163313ce56760e01b8152905163313ce567916004808201926020929091908290030181865afa158015610b15573d5f803e3d5ffd5b505050506040513d601f19601f82011682018060405250810190610b399190612d52565b600b805460ff92909216600160a01b0260ff60a01b199092169190911790556001600160a01b0381165f818152600d6020908152604091829020805460ff1916600117905590519182527feccc870b3d8d88fd5923d96e7a466768a74b6c48460640cf23aa6162aa4f80f091015b60405180910390a150565b610bba61270b565b806001600160a01b0316826001600160a01b031603610c0f5760405162461bcd60e51b815260206004820152601160248201527021b0b73737ba103932b332b91039b2b63360791b60448201526064016108d9565b6001600160a01b0382165f908152601460205260409020600c015460ff16610c795760405162461bcd60e51b815260206004820152601760248201527f55736572206d757374206265207265676973746572656400000000000000000060448201526064016108d9565b6001600160a01b0381161580610ca957506001600160a01b0381165f908152601460205260409020600c015460ff165b610cf55760405162461bcd60e51b815260206004820152601b60248201527f5265666572726572206d7573742062652072656769737465726564000000000060448201526064016108d9565b6001600160a01b038083165f90815260146020526040812080548484166001600160a01b03198216179091559091169082905b600760ff82161015610db5576001600160a01b0385165f908152601460205260409020829060010160ff831660078110610d6457610d64612d6d565b0180546001600160a01b0319166001600160a01b03928316179055821615610db5576001600160a01b039182165f908152601460205260409020549091169080610dad81612d81565b915050610d28565b50826001600160a01b0316826001600160a01b0316856001600160a01b03167ff8b9fe4d008320e6f048c61e41e9cc56ce351354ad0cb9a868bd3c4bd6928fd560405160405180910390a450505050565b335f908152601460205260409020600c015460ff1615610e5d5760405162461bcd60e51b8152602060048201526012602482015271105b1c9958591e481c9959da5cdd195c995960721b60448201526064016108d9565b6001600160a01b0381161580610e8d57506001600160a01b0381165f908152601460205260409020600c015460ff165b610ed95760405162461bcd60e51b815260206004820152601b60248201527f5265666572726572206d7573742062652072656769737465726564000000000060448201526064016108d9565b336001600160a01b03821603610f255760405162461bcd60e51b815260206004820152601160248201527021b0b73737ba103932b332b91039b2b63360791b60448201526064016108d9565b6001600160a01b03811615610fd9576001600160a01b0381165f90815260146020526040902060080154602411610f9e5760405162461bcd60e51b815260206004820152601b60248201527f44697265637420726566657272616c206361702072656163686564000000000060448201526064016108d9565b6001600160a01b0381165f9081526014602090815260408220600801805460018101825590835291200180546001600160a01b031916331790555b335f908152601460205260408120600c8101805460ff1916600117905580546001600160a01b0384166001600160a01b031990911617905581905b600760ff8216101561109857335f908152601460205260409020829060010160ff83166007811061104757611047612d6d565b0180546001600160a01b0319166001600160a01b03928316179055821615611098576001600160a01b039182165f90815260146020526040902054909116908061109081612d81565b915050611014565b505050565b6110a561270b565b6040516370a0823160e01b815230600482015282906001600160a01b038516906370a0823190602401602060405180830381865afa1580156110e9573d5f803e3d5ffd5b505050506040513d601f19601f8201168201806040525081019061110d9190612d3b565b101561115b5760405162461bcd60e51b815260206004820152601e60248201527f496e73756666696369656e7420746f6b656e20696e20636f6e7472616374000060448201526064016108d9565b61116f6001600160a01b03841682846126ac565b60408051818152600a8183015269041646d696e53776565760b41b60608201526020810184905290517f32f91af51d2a8bbeb2808ffa648f1c5072f1c1ccdb64b39d003f051b496cc9849181900360800190a1505050565b6111cf61270b565b6017805460ff19168215159081179091556040519081527f24df690cf3950b574129729bee40a9933d0f3b2d05dcd721c00d64570351edb190602001610ba7565b6002816007811061121f575f80fd5b0154905081565b61122e61270b565b610a6f5f612737565b61123f61270b565b6001600160a01b0381166112845760405162461bcd60e51b815260206004820152600c60248201526b5a65726f206164647265737360a01b60448201526064016108d9565b600a80546001600160a01b0319166001600160a01b0383169081179091556040805163313ce56760e01b8152905163313ce567916004808201926020929091908290030181865afa1580156112db573d5f803e3d5ffd5b505050506040513d601f19601f820116820180604052508101906112ff9190612d52565b600b805460ff92909216600160a81b0260ff60a81b199092169190911790556001600160a01b0381165f818152600d6020908152604091829020805460ff1916600117905590519182527f2eebb86337116bb829d157848909e2848e7b06bb7f91f788c9de450c63a804dc9101610ba7565b61137961270b565b6018548111156113cb5760405162461bcd60e51b815260206004820152601b60248201527f4e6f7420656e6f7567682072657365727665207472656173757279000000000060448201526064016108d9565b8060185f8282546113dc9190612cf0565b90915550506009546113f8906001600160a01b031633836126ac565b60408051818152600791810191909152665265736572766560c81b6060820152602081018290527f32f91af51d2a8bbeb2808ffa648f1c5072f1c1ccdb64b39d003f051b496cc98490608001610ba7565b61145161270b565b600b805461ffff60a01b1916600160a01b60ff9485160260ff60a81b191617600160a81b9290931691909102919091179055565b60106020525f9081526040902080546001820180549192916114a690612d03565b80601f01602080910402602001604051908101604052809291908181526020018280546114d290612d03565b801561151d5780601f106114f45761010080835404028352916020019161151d565b820191905f5260205f20905b81548152906001019060200180831161150057829003601f168201915b505050600284015460038501546004909501549394909360ff8083169450610100909204909116915086565b61155161270b565b611559612653565b5f81815260106020526040902060028101546115a95760405162461bcd60e51b815260206004820152600f60248201526e141bdbdb081b9bdd08199a5b1b1959608a1b60448201526064016108d9565b6003810154610100900460ff16156115f65760405162461bcd60e51b815260206004820152601060248201526f105b1c9958591e481c185a59081bdd5d60821b60448201526064016108d9565b5f60125460185460195461160a9190612cab565b611615906064612cd9565b61161f9190612d9f565b9050603c81101561167e5760405162461bcd60e51b8152602060048201526024808201527f496e73756666696369656e7420616476616e63652066756e647320286d696e206044820152633630252960e01b60648201526084016108d9565b5f5b5f84815260136020526040902054811015611862575f8481526013602052604081208054839081106116b4576116b4612d6d565b5f9182526020909120600690910201600581015490915060ff16806116db57506002810154155b156116e65750611852565b600281015460038201545f906064906116ff9084612cd9565b6117099190612d9f565b90505f6117168284612cab565b90505f6064611726836002612cd9565b6117309190612d9f565b90508060185f8282546117439190612cab565b9091555061175390508183612cf0565b60018601546001600160a01b03165f908152601560205260408120805490919061177e908490612cab565b909155505060058501805460ff1916600190811790915585015485546001600160a01b03909116907f807c2c73192f2d30961a7d01ec8dc57115a4cd9f9bd0434331beacb916c6a8cc908b906117d48587612cf0565b6040805193845260208401929092529082015260600160405180910390a26001858101546001600160a01b03165f818152601560209081526040918290205482519081529081019390935290917f3dd4fda5ffeb4c7e45847fa82b4227a234840395a1170e170bba47db13fbfff8910160405180910390a250505050505b61185b81612dbe565b9050611680565b5050600301805461ffff191661010017905561187d60018055565b50565b60175460ff16156118cc5760405162461bcd60e51b8152602060048201526016602482015275456d657267656e63793a204e6f206465706f7369747360501b60448201526064016108d9565b6118d4612653565b335f908152601460205260409020600c015460ff166119265760405162461bcd60e51b815260206004820152600e60248201526d139bdd081c9959da5cdd195c995960921b60448201526064016108d9565b335f9081526016602052604090205460ff16156119735760405162461bcd60e51b815260206004820152600b60248201526a109b1858dadb1a5cdd195960aa1b60448201526064016108d9565b5f8161198a576009546001600160a01b0316611997565b600a546001600160a01b03165b6001600160a01b0381165f908152600d602052604090205490915060ff166119f95760405162461bcd60e51b8152602060048201526015602482015274151bdad95b881b9bdd081dda1a5d195b1a5cdd1959605a1b60448201526064016108d9565b5f8215611b2e576798a7d9b8314c0000841015611a515760405162461bcd60e51b815260206004820152601660248201527542656c6f77206d696e207374616b652028555344312960501b60448201526064016108d9565b600a546040516370a0823160e01b815233600482015285916001600160a01b0316906370a0823190602401602060405180830381865afa158015611a97573d5f803e3d5ffd5b505050506040513d601f19601f82011682018060405250810190611abb9190612d3b565b1015611afd5760405162461bcd60e51b8152602060048201526011602482015270496e73756666696369656e74205553443160781b60448201526064016108d9565b600a54611b15906001600160a01b0316333087612786565b611b276798a7d9b8314c000085612d9f565b9050611c5a565b683635c9adc5dea00000841015611b805760405162461bcd60e51b815260206004820152601660248201527542656c6f77206d696e207374616b652028494e52312960501b60448201526064016108d9565b6009546040516370a0823160e01b815233600482015285916001600160a01b0316906370a0823190602401602060405180830381865afa158015611bc6573d5f803e3d5ffd5b505050506040513d601f19601f82011682018060405250810190611bea9190612d3b565b1015611c2c5760405162461bcd60e51b8152602060048201526011602482015270496e73756666696369656e7420494e523160781b60448201526064016108d9565b600954611c44906001600160a01b0316333087612786565b611c57683635c9adc5dea0000085612d9f565b90505b5f8111611c9e5760405162461bcd60e51b8152602060048201526012602482015271135a5b9a5b5d5b481a5cc80c481a5b99dbdd60721b60448201526064016108d9565b5f858152601060205260409020600381015460ff16611cf15760405162461bcd60e51b815260206004820152600f60248201526e506f6f6c206e6f742061637469766560881b60448201526064016108d9565b6064828260020154611d039190612cab565b1115611d3d5760405162461bcd60e51b8152602060048201526009602482015268141bdbdb08199d5b1b60ba1b60448201526064016108d9565b335f9081526014602052604081206009018054879290611d5e908490612cab565b9250508190555084816004015f828254611d789190612cab565b9250508190555081816002015f828254611d929190612cab565b925050819055508460125f828254611daa9190612cab565b9250508190555060135f8781526020019081526020015f206040518060c0016040528083600201548152602001336001600160a01b03168152602001878152602001600a815260200186611e1a5760405180604001604052806004815260200163494e523160e01b815250611e38565b604051806040016040528060048152602001635553443160e01b8152505b81525f60209182018190528354600180820186559482529082902083516006909202019081559082015192810180546001600160a01b0319166001600160a01b0390941693909317909255604081015160028301556060810151600383015560808101519091906004820190611eae9082612e23565b5060a091909101516005918201805460ff19169115159190911790555f90606490611eda908890612cd9565b611ee49190612d9f565b90505f6064611ef488605f612cd9565b611efe9190612d9f565b90508160185f828254611f119190612cab565b925050819055508060195f828254611f299190612cab565b9091555050600283015433907f8a761c59f3b512242e1b88c9999ca511dea220c5354703afe7bdd82375fb6761908a90878a611f815760405180604001604052806004815260200163494e523160e01b815250611f9f565b604051806040016040528060048152602001635553443160e01b8152505b604051611faf9493929190612edf565b60405180910390a2611fc133886127c5565b60648360020154148015611fd85750633b9aca0088105b156121e0575f888152601060205260409081902060038101805460ff1916905560040154905189917faf7faf29a251efa1bcf2b47dab1a72baa0906a2e4ff957e6cb6d4f7c642161ab9161202e91815260200190565b60405180910390a25f60115460016120469190612cab565b5f81815260106020526040902054909150156120a45760405162461bcd60e51b815260206004820152601860248201527f4e65787420706f6f6c20616c726561647920657869737473000000000000000060448201526064016108d9565b6040518060c0016040528082815260200160098311156120e357604051806040016040528060078152602001664c6f747465727960c81b815250612105565b6040518060400160405280600881526020016714dd185b99185c9960c21b8152505b81525f60208083018290526001604080850182905260608501849052608090940183905285835260108252929091208351815590830151909182019061214b9082612e23565b5060408281015160028301556060830151600383018054608086015115156101000261ff00199315159390931661ffff199091161791909117905560a09092015160049091015560118290555f8281526010602052819020905182917f150cb369f834b70a4f343956659b1f84cd37d44352b9a76ff77ac59552ef4aa0916121d69160010190612f0d565b60405180910390a2505b505050505061109860018055565b6121f661270b565b5f821180156122095750633b9aca008211155b61224b5760405162461bcd60e51b8152602060048201526013602482015272506f6f6c4964206f7574206f662072616e676560681b60448201526064016108d9565b5f81511161228f5760405162461bcd60e51b81526020600482015260116024820152701c1bdbdb151e5c19481c995c5d5a5c9959607a1b60448201526064016108d9565b5f82815260106020526040902054156122e05760405162461bcd60e51b8152602060048201526013602482015272506f6f6c20616c72656164792065786973747360681b60448201526064016108d9565b6040805160c08101825283815260208082018481525f8385018190526001606085018190526080850182905260a08501829052878252601090935293909320825181559251919291908201906123369082612e23565b50604082015160028201556060820151600382018054608085015115156101000261ff00199315159390931661ffff199091161791909117905560a09091015160049091015560115482111561238c5760118290555b817f150cb369f834b70a4f343956659b1f84cd37d44352b9a76ff77ac59552ef4aa0826040516123bc9190612f92565b60405180910390a25050565b6123d0612653565b335f90815260156020526040902054806124185760405162461bcd60e51b8152602060048201526009602482015268139bc81c185e5bdd5d60ba1b60448201526064016108d9565b335f908152601560205260408082209190915560095490516370a0823160e01b815230600482015282916001600160a01b0316906370a0823190602401602060405180830381865afa158015612470573d5f803e3d5ffd5b505050506040513d601f19601f820116820180604052508101906124949190612d3b565b10156124e25760405162461bcd60e51b815260206004820152601960248201527f496e73756666696369656e7420494e52312062616c616e63650000000000000060448201526064016108d9565b6009546124f9906001600160a01b031633836126ac565b604080515f808252602082015233917f3dd4fda5ffeb4c7e45847fa82b4227a234840395a1170e170bba47db13fbfff8910160405180910390a250610a6f60018055565b61254561270b565b6019548111156125975760405162461bcd60e51b815260206004820152601f60248201527f4e6f7420656e6f756768206f7065726174696f6e616c2074726561737572790060448201526064016108d9565b8060195f8282546125a89190612cf0565b90915550506009546125c4906001600160a01b031633836126ac565b60408051818152600b918101919091526a13dc195c985d1a5bdb985b60aa1b6060820152602081018290527f32f91af51d2a8bbeb2808ffa648f1c5072f1c1ccdb64b39d003f051b496cc98490608001610ba7565b61262161270b565b6001600160a01b03811661264a57604051631e4fbdf760e01b81525f60048201526024016108d9565b61187d81612737565b6002600154036126a55760405162461bcd60e51b815260206004820152601f60248201527f5265656e7472616e637947756172643a207265656e7472616e742063616c6c0060448201526064016108d9565b6002600155565b6040516001600160a01b0383811660248301526044820183905261109891859182169063a9059cbb906064015b604051602081830303815290604052915060e01b6020820180516001600160e01b038381831617835250505050612929565b5f546001600160a01b03163314610a6f5760405163118cdaa760e01b81523360048201526024016108d9565b5f80546001600160a01b038381166001600160a01b0319831681178455604051919092169283917f8be0079c531659141344cd1fd0a4f28419497f9722a3daafe3b4186f6b6457e09190a35050565b6040516001600160a01b0384811660248301528381166044830152606482018390526127bf9186918216906323b872dd906084016126d9565b50505050565b5f5b600760ff82161015611098576001600160a01b0383165f90815260146020526040812060010160ff83166007811061280157612801612d6d565b01546001600160a01b03169050806128195750505050565b5f61271060028460ff166007811061283357612833612d6d565b015461283f9086612cd9565b6128499190612d9f565b6001600160a01b0383165f908152601460205260408120600a0180549293508392909190612878908490612cab565b90915550506001600160a01b0382165f818152601460205260409020600a01547fdd8025b728f6881d55401ec3c5f58bac7e135a199306892b83593f9bf4bfe23a906128c38561070f565b6001600160a01b0386165f908152601460205260409020600b8101546009909101546128f190600390612cd9565b60408051948552602085019390935291830152606082015260800160405180910390a25050808061292190612d81565b9150506127c7565b5f8060205f8451602086015f885af180612948576040513d5f823e3d81fd5b50505f513d9150811561295f57806001141561296c565b6001600160a01b0384163b155b156127bf57604051635274afe760e01b81526001600160a01b03851660048201526024016108d9565b80356001600160a01b03811681146129ab575f80fd5b919050565b5f602082840312156129c0575f80fd5b6129c982612995565b9392505050565b5f80604083850312156129e1575f80fd5b50508035926020909101359150565b5f81518084525f5b81811015612a14576020818501810151868301820152016129f8565b505f602082860101526020601f19601f83011685010191505092915050565b86815260018060a01b038616602082015284604082015283606082015260c060808201525f612a6560c08301856129f0565b905082151560a0830152979650505050505050565b5f8060408385031215612a8b575f80fd5b612a9483612995565b9150612aa260208401612995565b90509250929050565b5f805f60608486031215612abd575f80fd5b612ac684612995565b925060208401359150612adb60408501612995565b90509250925092565b803580151581146129ab575f80fd5b5f60208284031215612b03575f80fd5b6129c982612ae4565b5f60208284031215612b1c575f80fd5b5035919050565b60ff8116811461187d575f80fd5b5f8060408385031215612b42575f80fd5b8235612b4d81612b23565b91506020830135612b5d81612b23565b809150509250929050565b86815260c060208201525f612b8060c08301886129f0565b6040830196909652509215156060840152901515608083015260a09091015292915050565b5f805f60608486031215612bb7575f80fd5b8335925060208401359150612adb60408501612ae4565b634e487b7160e01b5f52604160045260245ffd5b5f8060408385031215612bf3575f80fd5b82359150602083013567ffffffffffffffff80821115612c11575f80fd5b818501915085601f830112612c24575f80fd5b813581811115612c3657612c36612bce565b604051601f8201601f19908116603f01168101908382118183101715612c5e57612c5e612bce565b81604052828152886020848701011115612c76575f80fd5b826020860160208301375f6020848301015280955050505050509250929050565b634e487b7160e01b5f52601160045260245ffd5b80820180821115612cbe57612cbe612c97565b92915050565b5f81612cd257612cd2612c97565b505f190190565b8082028115828204841417612cbe57612cbe612c97565b81810381811115612cbe57612cbe612c97565b600181811c90821680612d1757607f821691505b602082108103612d3557634e487b7160e01b5f52602260045260245ffd5b50919050565b5f60208284031215612d4b575f80fd5b5051919050565b5f60208284031215612d62575f80fd5b81516129c981612b23565b634e487b7160e01b5f52603260045260245ffd5b5f60ff821660ff8103612d9657612d96612c97565b60010192915050565b5f82612db957634e487b7160e01b5f52601260045260245ffd5b500490565b5f60018201612dcf57612dcf612c97565b5060010190565b601f821115611098575f81815260208120601f850160051c81016020861015612dfc5750805b601f850160051c820191505b81811015612e1b57828155600101612e08565b505050505050565b815167ffffffffffffffff811115612e3d57612e3d612bce565b612e5181612e4b8454612d03565b84612dd6565b602080601f831160018114612e84575f8415612e6d5750858301515b5f19600386901b1c1916600185901b178555612e1b565b5f85815260208120601f198616915b82811015612eb257888601518255948401946001909101908401612e93565b5085821015612ecf57878501515f19600388901b60f8161c191681555b5050505050600190811b01905550565b848152836020820152826040820152608060608201525f612f0360808301846129f0565b9695505050505050565b5f60208083525f8454612f1f81612d03565b8084870152604060018084165f8114612f3f5760018114612f5957612f84565b60ff1985168984015283151560051b890183019550612f84565b895f52865f205f5b85811015612f7c5781548b8201860152908301908801612f61565b8a0184019650505b509398975050505050505050565b602081525f6129c960208301846129f056fea264697066735822122083c4fddaa4c8167ef62a0f5a88806f11aa9dadcf2002edb86c259c925355b63764736f6c63430008140033150cb369f834b70a4f343956659b1f84cd37d44352b9a76ff77ac59552ef4aa0",
			"opcodes": "PUSH2 0x160 PUSH1 0x40 MSTORE PUSH2 0x12C PUSH1 0x80 SWAP1 DUP2 MSTORE PUSH1 0xC8 PUSH1 0xA0 MSTORE PUSH1 0x64 PUSH1 0xC0 DUP2 SWAP1 MSTORE PUSH1 0xE0 DUP2 SWAP1 MSTORE PUSH2 0x100 MSTORE PUSH1 0x32 PUSH2 0x120 MSTORE PUSH1 0x19 PUSH2 0x140 MSTORE PUSH3 0x3E SWAP1 PUSH1 0x2 SWAP1 PUSH1 0x7 PUSH3 0x56D JUMP JUMPDEST POP PUSH1 0x5A PUSH1 0xC SSTORE CALLVALUE DUP1 ISZERO PUSH3 0x50 JUMPI PUSH0 DUP1 REVERT JUMPDEST POP PUSH1 0x40 MLOAD PUSH3 0x3813 CODESIZE SUB DUP1 PUSH3 0x3813 DUP4 CODECOPY DUP2 ADD PUSH1 0x40 DUP2 SWAP1 MSTORE PUSH3 0x73 SWAP2 PUSH3 0x5E8 JUMP JUMPDEST CALLER DUP1 PUSH3 0x9A JUMPI PUSH1 0x40 MLOAD PUSH4 0x1E4FBDF7 PUSH1 0xE0 SHL DUP2 MSTORE PUSH0 PUSH1 0x4 DUP3 ADD MSTORE PUSH1 0x24 ADD JUMPDEST PUSH1 0x40 MLOAD DUP1 SWAP2 SUB SWAP1 REVERT JUMPDEST PUSH3 0xA5 DUP2 PUSH3 0x51E JUMP JUMPDEST POP PUSH1 0x1 DUP1 SSTORE PUSH1 0x1 PUSH1 0x1 PUSH1 0xA0 SHL SUB DUP4 AND PUSH3 0xF6 JUMPI PUSH1 0x40 MLOAD PUSH3 0x461BCD PUSH1 0xE5 SHL DUP2 MSTORE PUSH1 0x20 PUSH1 0x4 DUP3 ADD MSTORE PUSH1 0x11 PUSH1 0x24 DUP3 ADD MSTORE PUSH17 0x14DD5898591B5A5B881C995C5D5A5C9959 PUSH1 0x7A SHL PUSH1 0x44 DUP3 ADD MSTORE PUSH1 0x64 ADD PUSH3 0x91 JUMP JUMPDEST PUSH1 0x1 PUSH1 0x1 PUSH1 0xA0 SHL SUB DUP3 AND ISZERO DUP1 ISZERO SWAP1 PUSH3 0x117 JUMPI POP PUSH1 0x1 PUSH1 0x1 PUSH1 0xA0 SHL SUB DUP2 AND ISZERO ISZERO JUMPDEST PUSH3 0x157 JUMPI PUSH1 0x40 MLOAD PUSH3 0x461BCD PUSH1 0xE5 SHL DUP2 MSTORE PUSH1 0x20 PUSH1 0x4 DUP3 ADD MSTORE PUSH1 0xF PUSH1 0x24 DUP3 ADD MSTORE PUSH15 0x151BDAD95B9CC81C995C5D5A5C9959 PUSH1 0x8A SHL PUSH1 0x44 DUP3 ADD MSTORE PUSH1 0x64 ADD PUSH3 0x91 JUMP JUMPDEST PUSH1 0xB DUP1 SLOAD PUSH1 0x1 PUSH1 0x1 PUSH1 0xA0 SHL SUB DUP1 DUP7 AND PUSH1 0x1 PUSH1 0x1 PUSH1 0xA0 SHL SUB NOT SWAP3 DUP4 AND OR SWAP1 SWAP3 SSTORE PUSH1 0x9 DUP1 SLOAD DUP6 DUP5 AND SWAP1 DUP4 AND DUP2 OR SWAP1 SWAP2 SSTORE PUSH1 0xA DUP1 SLOAD SWAP4 DUP6 AND SWAP4 SWAP1 SWAP3 AND SWAP3 SWAP1 SWAP3 OR SWAP1 SSTORE PUSH1 0x40 DUP1 MLOAD PUSH4 0x313CE567 PUSH1 0xE0 SHL DUP2 MSTORE SWAP1 MLOAD PUSH4 0x313CE567 SWAP2 PUSH1 0x4 DUP1 DUP3 ADD SWAP3 PUSH1 0x20 SWAP3 SWAP1 SWAP2 SWAP1 DUP3 SWAP1 SUB ADD DUP2 DUP7 GAS STATICCALL ISZERO DUP1 ISZERO PUSH3 0x1D0 JUMPI RETURNDATASIZE PUSH0 DUP1 RETURNDATACOPY RETURNDATASIZE PUSH0 REVERT JUMPDEST POP POP POP POP PUSH1 0x40 MLOAD RETURNDATASIZE PUSH1 0x1F NOT PUSH1 0x1F DUP3 ADD AND DUP3 ADD DUP1 PUSH1 0x40 MSTORE POP DUP2 ADD SWAP1 PUSH3 0x1F6 SWAP2 SWAP1 PUSH3 0x62F JUMP JUMPDEST PUSH1 0xB PUSH1 0x14 PUSH2 0x100 EXP DUP2 SLOAD DUP2 PUSH1 0xFF MUL NOT AND SWAP1 DUP4 PUSH1 0xFF AND MUL OR SWAP1 SSTORE POP DUP1 PUSH1 0x1 PUSH1 0x1 PUSH1 0xA0 SHL SUB AND PUSH4 0x313CE567 PUSH1 0x40 MLOAD DUP2 PUSH4 0xFFFFFFFF AND PUSH1 0xE0 SHL DUP2 MSTORE PUSH1 0x4 ADD PUSH1 0x20 PUSH1 0x40 MLOAD DUP1 DUP4 SUB DUP2 DUP7 GAS STATICCALL ISZERO DUP1 ISZERO PUSH3 0x24D JUMPI RETURNDATASIZE PUSH0 DUP1 RETURNDATACOPY RETURNDATASIZE PUSH0 REVERT JUMPDEST POP POP POP POP PUSH1 0x40 MLOAD RETURNDATASIZE PUSH1 0x1F NOT PUSH1 0x1F DUP3 ADD AND DUP3 ADD DUP1 PUSH1 0x40 MSTORE POP DUP2 ADD SWAP1 PUSH3 0x273 SWAP2 SWAP1 PUSH3 0x62F JUMP JUMPDEST PUSH1 0xB DUP1 SLOAD PUSH1 0xFF SWAP3 SWAP1 SWAP3 AND PUSH1 0x1 PUSH1 0xA8 SHL MUL PUSH1 0xFF PUSH1 0xA8 SHL NOT SWAP1 SWAP3 AND SWAP2 SWAP1 SWAP2 OR SWAP1 SSTORE PUSH1 0x1 PUSH1 0x1 PUSH1 0xA0 SHL SUB DUP1 DUP4 AND PUSH0 SWAP1 DUP2 MSTORE PUSH1 0xD PUSH1 0x20 MSTORE PUSH1 0x40 DUP1 DUP3 KECCAK256 DUP1 SLOAD PUSH1 0xFF NOT SWAP1 DUP2 AND PUSH1 0x1 SWAP1 DUP2 OR SWAP1 SWAP3 SSTORE SWAP4 DUP6 AND DUP4 MSTORE SWAP2 KECCAK256 DUP1 SLOAD SWAP1 SWAP3 AND DUP2 OR SWAP1 SWAP2 SSTORE JUMPDEST PUSH1 0x9 DUP2 GT PUSH3 0x3E9 JUMPI PUSH1 0x40 DUP1 MLOAD PUSH1 0xC0 DUP2 ADD DUP3 MSTORE DUP3 DUP2 MSTORE DUP2 MLOAD DUP1 DUP4 ADD DUP4 MSTORE PUSH1 0x8 DUP2 MSTORE PUSH8 0x14DD185B99185C99 PUSH1 0xC2 SHL PUSH1 0x20 DUP3 DUP2 ADD SWAP2 SWAP1 SWAP2 MSTORE DUP1 DUP4 ADD SWAP2 DUP3 MSTORE PUSH0 DUP4 DUP6 ADD DUP2 SWAP1 MSTORE PUSH1 0x1 PUSH1 0x60 DUP6 ADD DUP2 SWAP1 MSTORE PUSH1 0x80 DUP6 ADD DUP3 SWAP1 MSTORE PUSH1 0xA0 DUP6 ADD DUP3 SWAP1 MSTORE DUP7 DUP3 MSTORE PUSH1 0x10 SWAP1 SWAP3 MSTORE SWAP4 SWAP1 SWAP4 KECCAK256 DUP3 MLOAD DUP2 SSTORE SWAP1 MLOAD SWAP2 SWAP3 SWAP1 SWAP2 SWAP1 DUP3 ADD SWAP1 PUSH3 0x34D SWAP1 DUP3 PUSH3 0x6F8 JUMP JUMPDEST POP PUSH1 0x40 DUP3 DUP2 ADD MLOAD PUSH1 0x2 DUP4 ADD SSTORE PUSH1 0x60 DUP4 ADD MLOAD PUSH1 0x3 DUP4 ADD DUP1 SLOAD PUSH1 0x80 DUP7 ADD MLOAD ISZERO ISZERO PUSH2 0x100 MUL PUSH2 0xFF00 NOT SWAP4 ISZERO ISZERO SWAP4 SWAP1 SWAP4 AND PUSH2 0xFFFF NOT SWAP1 SWAP2 AND OR SWAP2 SWAP1 SWAP2 OR SWAP1 SSTORE PUSH1 0xA0 SWAP1 SWAP3 ADD MLOAD PUSH1 0x4 SWAP1 SWAP2 ADD SSTORE MLOAD DUP2 SWAP1 PUSH0 DUP1 MLOAD PUSH1 0x20 PUSH3 0x37F3 DUP4 CODECOPY DUP2 MLOAD SWAP2 MSTORE SWAP1 PUSH3 0x3CE SWAP1 PUSH1 0x20 DUP1 DUP3 MSTORE PUSH1 0x8 SWAP1 DUP3 ADD MSTORE PUSH8 0x14DD185B99185C99 PUSH1 0xC2 SHL PUSH1 0x40 DUP3 ADD MSTORE PUSH1 0x60 ADD SWAP1 JUMP JUMPDEST PUSH1 0x40 MLOAD DUP1 SWAP2 SUB SWAP1 LOG2 PUSH3 0x3E1 DUP2 PUSH3 0x7D4 JUMP JUMPDEST SWAP1 POP PUSH3 0x2CD JUMP JUMPDEST PUSH1 0xC DUP2 GT PUSH3 0x503 JUMPI PUSH1 0x40 DUP1 MLOAD PUSH1 0xC0 DUP2 ADD DUP3 MSTORE DUP3 DUP2 MSTORE DUP2 MLOAD DUP1 DUP4 ADD DUP4 MSTORE PUSH1 0x7 DUP2 MSTORE PUSH7 0x4C6F7474657279 PUSH1 0xC8 SHL PUSH1 0x20 DUP3 DUP2 ADD SWAP2 SWAP1 SWAP2 MSTORE DUP1 DUP4 ADD SWAP2 DUP3 MSTORE PUSH0 DUP4 DUP6 ADD DUP2 SWAP1 MSTORE PUSH1 0x1 PUSH1 0x60 DUP6 ADD DUP2 SWAP1 MSTORE PUSH1 0x80 DUP6 ADD DUP3 SWAP1 MSTORE PUSH1 0xA0 DUP6 ADD DUP3 SWAP1 MSTORE DUP7 DUP3 MSTORE PUSH1 0x10 SWAP1 SWAP3 MSTORE SWAP4 SWAP1 SWAP4 KECCAK256 DUP3 MLOAD DUP2 SSTORE SWAP1 MLOAD SWAP2 SWAP3 SWAP1 SWAP2 SWAP1 DUP3 ADD SWAP1 PUSH3 0x468 SWAP1 DUP3 PUSH3 0x6F8 JUMP JUMPDEST POP PUSH1 0x40 DUP3 DUP2 ADD MLOAD PUSH1 0x2 DUP4 ADD SSTORE PUSH1 0x60 DUP4 ADD MLOAD PUSH1 0x3 DUP4 ADD DUP1 SLOAD PUSH1 0x80 DUP7 ADD MLOAD ISZERO ISZERO PUSH2 0x100 MUL PUSH2 0xFF00 NOT SWAP4 ISZERO ISZERO SWAP4 SWAP1 SWAP4 AND PUSH2 0xFFFF NOT SWAP1 SWAP2 AND OR SWAP2 SWAP1 SWAP2 OR SWAP1 SSTORE PUSH1 0xA0 SWAP1 SWAP3 ADD MLOAD PUSH1 0x4 SWAP1 SWAP2 ADD SSTORE MLOAD DUP2 SWAP1 PUSH0 DUP1 MLOAD PUSH1 0x20 PUSH3 0x37F3 DUP4 CODECOPY DUP2 MLOAD SWAP2 MSTORE SWAP1 PUSH3 0x4E8 SWAP1 PUSH1 0x20 DUP1 DUP3 MSTORE PUSH1 0x7 SWAP1 DUP3 ADD MSTORE PUSH7 0x4C6F7474657279 PUSH1 0xC8 SHL PUSH1 0x40 DUP3 ADD MSTORE PUSH1 0x60 ADD SWAP1 JUMP JUMPDEST PUSH1 0x40 MLOAD DUP1 SWAP2 SUB SWAP1 LOG2 PUSH3 0x4FB DUP2 PUSH3 0x7D4 JUMP JUMPDEST SWAP1 POP PUSH3 0x3E9 JUMP JUMPDEST PUSH3 0x510 PUSH1 0x1 DUP3 PUSH3 0x7EF JUMP JUMPDEST PUSH1 0x11 SSTORE POP PUSH3 0x80B SWAP3 POP POP POP JUMP JUMPDEST PUSH0 DUP1 SLOAD PUSH1 0x1 PUSH1 0x1 PUSH1 0xA0 SHL SUB DUP4 DUP2 AND PUSH1 0x1 PUSH1 0x1 PUSH1 0xA0 SHL SUB NOT DUP4 AND DUP2 OR DUP5 SSTORE PUSH1 0x40 MLOAD SWAP2 SWAP1 SWAP3 AND SWAP3 DUP4 SWAP2 PUSH32 0x8BE0079C531659141344CD1FD0A4F28419497F9722A3DAAFE3B4186F6B6457E0 SWAP2 SWAP1 LOG3 POP POP JUMP JUMPDEST DUP3 PUSH1 0x7 DUP2 ADD SWAP3 DUP3 ISZERO PUSH3 0x5A4 JUMPI SWAP2 PUSH1 0x20 MUL DUP3 ADD JUMPDEST DUP3 DUP2 GT ISZERO PUSH3 0x5A4 JUMPI DUP3 MLOAD DUP3 SWAP1 PUSH2 0xFFFF AND SWAP1 SSTORE SWAP2 PUSH1 0x20 ADD SWAP2 SWAP1 PUSH1 0x1 ADD SWAP1 PUSH3 0x581 JUMP JUMPDEST POP PUSH3 0x5B2 SWAP3 SWAP2 POP PUSH3 0x5B6 JUMP JUMPDEST POP SWAP1 JUMP JUMPDEST JUMPDEST DUP1 DUP3 GT ISZERO PUSH3 0x5B2 JUMPI PUSH0 DUP2 SSTORE PUSH1 0x1 ADD PUSH3 0x5B7 JUMP JUMPDEST DUP1 MLOAD PUSH1 0x1 PUSH1 0x1 PUSH1 0xA0 SHL SUB DUP2 AND DUP2 EQ PUSH3 0x5E3 JUMPI PUSH0 DUP1 REVERT JUMPDEST SWAP2 SWAP1 POP JUMP JUMPDEST PUSH0 DUP1 PUSH0 PUSH1 0x60 DUP5 DUP7 SUB SLT ISZERO PUSH3 0x5FB JUMPI PUSH0 DUP1 REVERT JUMPDEST PUSH3 0x606 DUP5 PUSH3 0x5CC JUMP JUMPDEST SWAP3 POP PUSH3 0x616 PUSH1 0x20 DUP6 ADD PUSH3 0x5CC JUMP JUMPDEST SWAP2 POP PUSH3 0x626 PUSH1 0x40 DUP6 ADD PUSH3 0x5CC JUMP JUMPDEST SWAP1 POP SWAP3 POP SWAP3 POP SWAP3 JUMP JUMPDEST PUSH0 PUSH1 0x20 DUP3 DUP5 SUB SLT ISZERO PUSH3 0x640 JUMPI PUSH0 DUP1 REVERT JUMPDEST DUP2 MLOAD PUSH1 0xFF DUP2 AND DUP2 EQ PUSH3 0x651 JUMPI PUSH0 DUP1 REVERT JUMPDEST SWAP4 SWAP3 POP POP POP JUMP JUMPDEST PUSH4 0x4E487B71 PUSH1 0xE0 SHL PUSH0 MSTORE PUSH1 0x41 PUSH1 0x4 MSTORE PUSH1 0x24 PUSH0 REVERT JUMPDEST PUSH1 0x1 DUP2 DUP2 SHR SWAP1 DUP3 AND DUP1 PUSH3 0x681 JUMPI PUSH1 0x7F DUP3 AND SWAP2 POP JUMPDEST PUSH1 0x20 DUP3 LT DUP2 SUB PUSH3 0x6A0 JUMPI PUSH4 0x4E487B71 PUSH1 0xE0 SHL PUSH0 MSTORE PUSH1 0x22 PUSH1 0x4 MSTORE PUSH1 0x24 PUSH0 REVERT JUMPDEST POP SWAP2 SWAP1 POP JUMP JUMPDEST PUSH1 0x1F DUP3 GT ISZERO PUSH3 0x6F3 JUMPI PUSH0 DUP2 DUP2 MSTORE PUSH1 0x20 DUP2 KECCAK256 PUSH1 0x1F DUP6 ADD PUSH1 0x5 SHR DUP2 ADD PUSH1 0x20 DUP7 LT ISZERO PUSH3 0x6CE JUMPI POP DUP1 JUMPDEST PUSH1 0x1F DUP6 ADD PUSH1 0x5 SHR DUP3 ADD SWAP2 POP JUMPDEST DUP2 DUP2 LT ISZERO PUSH3 0x6EF JUMPI DUP3 DUP2 SSTORE PUSH1 0x1 ADD PUSH3 0x6DA JUMP JUMPDEST POP POP POP JUMPDEST POP POP POP JUMP JUMPDEST DUP2 MLOAD PUSH1 0x1 PUSH1 0x1 PUSH1 0x40 SHL SUB DUP2 GT ISZERO PUSH3 0x714 JUMPI PUSH3 0x714 PUSH3 0x658 JUMP JUMPDEST PUSH3 0x72C DUP2 PUSH3 0x725 DUP5 SLOAD PUSH3 0x66C JUMP JUMPDEST DUP5 PUSH3 0x6A6 JUMP JUMPDEST PUSH1 0x20 DUP1 PUSH1 0x1F DUP4 GT PUSH1 0x1 DUP2 EQ PUSH3 0x762 JUMPI PUSH0 DUP5 ISZERO PUSH3 0x74A JUMPI POP DUP6 DUP4 ADD MLOAD JUMPDEST PUSH0 NOT PUSH1 0x3 DUP7 SWAP1 SHL SHR NOT AND PUSH1 0x1 DUP6 SWAP1 SHL OR DUP6 SSTORE PUSH3 0x6EF JUMP JUMPDEST PUSH0 DUP6 DUP2 MSTORE PUSH1 0x20 DUP2 KECCAK256 PUSH1 0x1F NOT DUP7 AND SWAP2 JUMPDEST DUP3 DUP2 LT ISZERO PUSH3 0x792 JUMPI DUP9 DUP7 ADD MLOAD DUP3 SSTORE SWAP5 DUP5 ADD SWAP5 PUSH1 0x1 SWAP1 SWAP2 ADD SWAP1 DUP5 ADD PUSH3 0x771 JUMP JUMPDEST POP DUP6 DUP3 LT ISZERO PUSH3 0x7B0 JUMPI DUP8 DUP6 ADD MLOAD PUSH0 NOT PUSH1 0x3 DUP9 SWAP1 SHL PUSH1 0xF8 AND SHR NOT AND DUP2 SSTORE JUMPDEST POP POP POP POP POP PUSH1 0x1 SWAP1 DUP2 SHL ADD SWAP1 SSTORE POP JUMP JUMPDEST PUSH4 0x4E487B71 PUSH1 0xE0 SHL PUSH0 MSTORE PUSH1 0x11 PUSH1 0x4 MSTORE PUSH1 0x24 PUSH0 REVERT JUMPDEST PUSH0 PUSH1 0x1 DUP3 ADD PUSH3 0x7E8 JUMPI PUSH3 0x7E8 PUSH3 0x7C0 JUMP JUMPDEST POP PUSH1 0x1 ADD SWAP1 JUMP JUMPDEST DUP2 DUP2 SUB DUP2 DUP2 GT ISZERO PUSH3 0x805 JUMPI PUSH3 0x805 PUSH3 0x7C0 JUMP JUMPDEST SWAP3 SWAP2 POP POP JUMP JUMPDEST PUSH2 0x2FDA DUP1 PUSH3 0x819 PUSH0 CODECOPY PUSH0 RETURN INVALID PUSH1 0x80 PUSH1 0x40 MSTORE CALLVALUE DUP1 ISZERO PUSH2 0xF JUMPI PUSH0 DUP1 REVERT JUMPDEST POP PUSH1 0x4 CALLDATASIZE LT PUSH2 0x28B JUMPI PUSH0 CALLDATALOAD PUSH1 0xE0 SHR DUP1 PUSH4 0x76752435 GT PUSH2 0x161 JUMPI DUP1 PUSH4 0xBCAF0D95 GT PUSH2 0xCA JUMPI DUP1 PUSH4 0xE22D0A82 GT PUSH2 0x84 JUMPI DUP1 PUSH4 0xE22D0A82 EQ PUSH2 0x607 JUMPI DUP1 PUSH4 0xE7780F28 EQ PUSH2 0x62F JUMPI DUP1 PUSH4 0xEDDAA3AB EQ PUSH2 0x64E JUMPI DUP1 PUSH4 0xF2FDE38B EQ PUSH2 0x65B JUMPI DUP1 PUSH4 0xF8B55F4F EQ PUSH2 0x66E JUMPI DUP1 PUSH4 0xFE575A87 EQ PUSH2 0x67E JUMPI PUSH0 DUP1 REVERT JUMPDEST DUP1 PUSH4 0xBCAF0D95 EQ PUSH2 0x5C9 JUMPI DUP1 PUSH4 0xC885BC58 EQ PUSH2 0x5D2 JUMPI DUP1 PUSH4 0xD66AAFA6 EQ PUSH2 0x5DA JUMPI DUP1 PUSH4 0xDC810925 EQ PUSH2 0x5E3 JUMPI DUP1 PUSH4 0xDDBB48D6 EQ PUSH2 0x5EC JUMPI DUP1 PUSH4 0xE1E55FBF EQ PUSH2 0x5FF JUMPI PUSH0 DUP1 REVERT JUMPDEST DUP1 PUSH4 0xA87430BA GT PUSH2 0x11B JUMPI DUP1 PUSH4 0xA87430BA EQ PUSH2 0x4E3 JUMPI DUP1 PUSH4 0xAC4AFA38 EQ PUSH2 0x560 JUMPI DUP1 PUSH4 0xB1B358D4 EQ PUSH2 0x585 JUMPI DUP1 PUSH4 0xB1CED5E7 EQ PUSH2 0x598 JUMPI DUP1 PUSH4 0xB380744D EQ PUSH2 0x5A3 JUMPI DUP1 PUSH4 0xBC0CA177 EQ PUSH2 0x5B6 JUMPI PUSH0 DUP1 REVERT JUMPDEST DUP1 PUSH4 0x76752435 EQ PUSH2 0x474 JUMPI DUP1 PUSH4 0x7BB5EE4B EQ PUSH2 0x487 JUMPI DUP1 PUSH4 0x81CAEDF1 EQ PUSH2 0x49A JUMPI DUP1 PUSH4 0x8995BC60 EQ PUSH2 0x4AD JUMPI DUP1 PUSH4 0x8DA5CB5B EQ PUSH2 0x4C0 JUMPI DUP1 PUSH4 0xA3A83649 EQ PUSH2 0x4D0 JUMPI PUSH0 DUP1 REVERT JUMPDEST DUP1 PUSH4 0x3B38BF72 GT PUSH2 0x203 JUMPI DUP1 PUSH4 0x600D20CE GT PUSH2 0x1BD JUMPI DUP1 PUSH4 0x600D20CE EQ PUSH2 0x3EA JUMPI DUP1 PUSH4 0x66A4B6C0 EQ PUSH2 0x3FD JUMPI DUP1 PUSH4 0x6AFBD415 EQ PUSH2 0x423 JUMPI DUP1 PUSH4 0x715018A6 EQ PUSH2 0x436 JUMPI DUP1 PUSH4 0x753D7563 EQ PUSH2 0x43E JUMPI DUP1 PUSH4 0x755E1FEE EQ PUSH2 0x460 JUMPI PUSH0 DUP1 REVERT JUMPDEST DUP1 PUSH4 0x3B38BF72 EQ PUSH2 0x382 JUMPI DUP1 PUSH4 0x4420E486 EQ PUSH2 0x395 JUMPI DUP1 PUSH4 0x44386321 EQ PUSH2 0x3A8 JUMPI DUP1 PUSH4 0x4B67E948 EQ PUSH2 0x3BB JUMPI DUP1 PUSH4 0x4BA05906 EQ PUSH2 0x3CE JUMPI DUP1 PUSH4 0x569A7DFD EQ PUSH2 0x3D7 JUMPI PUSH0 DUP1 REVERT JUMPDEST DUP1 PUSH4 0x166B836F GT PUSH2 0x254 JUMPI DUP1 PUSH4 0x166B836F EQ PUSH2 0x2F9 JUMPI DUP1 PUSH4 0x17B72137 EQ PUSH2 0x308 JUMPI DUP1 PUSH4 0x18118787 EQ PUSH2 0x32D JUMPI DUP1 PUSH4 0x239CC1DD EQ PUSH2 0x337 JUMPI DUP1 PUSH4 0x254C4326 EQ PUSH2 0x35B JUMPI DUP1 PUSH4 0x367631D7 EQ PUSH2 0x36F JUMPI PUSH0 DUP1 REVERT JUMPDEST DUP1 PUSH3 0x7DA258 EQ PUSH2 0x28F JUMPI DUP1 PUSH4 0xE3A83A4 EQ PUSH2 0x2AA JUMPI DUP1 PUSH4 0x106CA23C EQ PUSH2 0x2D5 JUMPI DUP1 PUSH4 0x11CCDF8C EQ PUSH2 0x2DE JUMPI DUP1 PUSH4 0x149B6B1F EQ PUSH2 0x2E6 JUMPI JUMPDEST PUSH0 DUP1 REVERT JUMPDEST PUSH2 0x297 PUSH2 0x6A0 JUMP JUMPDEST PUSH1 0x40 MLOAD SWAP1 DUP2 MSTORE PUSH1 0x20 ADD JUMPDEST PUSH1 0x40 MLOAD DUP1 SWAP2 SUB SWAP1 RETURN JUMPDEST PUSH1 0xE SLOAD PUSH2 0x2BD SWAP1 PUSH1 0x1 PUSH1 0x1 PUSH1 0xA0 SHL SUB AND DUP2 JUMP JUMPDEST PUSH1 0x40 MLOAD PUSH1 0x1 PUSH1 0x1 PUSH1 0xA0 SHL SUB SWAP1 SWAP2 AND DUP2 MSTORE PUSH1 0x20 ADD PUSH2 0x2A1 JUMP JUMPDEST PUSH2 0x297 PUSH1 0x18 SLOAD DUP2 JUMP JUMPDEST PUSH2 0x297 PUSH2 0x6CA JUMP JUMPDEST PUSH2 0x297 PUSH2 0x2F4 CALLDATASIZE PUSH1 0x4 PUSH2 0x29B0 JUMP JUMPDEST PUSH2 0x70F JUMP JUMPDEST PUSH2 0x297 PUSH8 0x98A7D9B8314C0000 DUP2 JUMP JUMPDEST PUSH2 0x31B PUSH2 0x316 CALLDATASIZE PUSH1 0x4 PUSH2 0x29D0 JUMP JUMPDEST PUSH2 0x783 JUMP JUMPDEST PUSH1 0x40 MLOAD PUSH2 0x2A1 SWAP7 SWAP6 SWAP5 SWAP4 SWAP3 SWAP2 SWAP1 PUSH2 0x2A33 JUMP JUMPDEST PUSH2 0x335 PUSH2 0x86C JUMP JUMPDEST STOP JUMPDEST PUSH1 0xF SLOAD PUSH2 0x34B SWAP1 PUSH1 0x1 PUSH1 0xA8 SHL SWAP1 DIV PUSH1 0xFF AND DUP2 JUMP JUMPDEST PUSH1 0x40 MLOAD SWAP1 ISZERO ISZERO DUP2 MSTORE PUSH1 0x20 ADD PUSH2 0x2A1 JUMP JUMPDEST PUSH1 0xF SLOAD PUSH2 0x34B SWAP1 PUSH1 0x1 PUSH1 0xA0 SHL SWAP1 DIV PUSH1 0xFF AND DUP2 JUMP JUMPDEST PUSH2 0x335 PUSH2 0x37D CALLDATASIZE PUSH1 0x4 PUSH2 0x29B0 JUMP JUMPDEST PUSH2 0xA71 JUMP JUMPDEST PUSH2 0x335 PUSH2 0x390 CALLDATASIZE PUSH1 0x4 PUSH2 0x2A7A JUMP JUMPDEST PUSH2 0xBB2 JUMP JUMPDEST PUSH2 0x335 PUSH2 0x3A3 CALLDATASIZE PUSH1 0x4 PUSH2 0x29B0 JUMP JUMPDEST PUSH2 0xE06 JUMP JUMPDEST PUSH1 0xA SLOAD PUSH2 0x2BD SWAP1 PUSH1 0x1 PUSH1 0x1 PUSH1 0xA0 SHL SUB AND DUP2 JUMP JUMPDEST PUSH2 0x335 PUSH2 0x3C9 CALLDATASIZE PUSH1 0x4 PUSH2 0x2AAB JUMP JUMPDEST PUSH2 0x109D JUMP JUMPDEST PUSH2 0x297 PUSH1 0x11 SLOAD DUP2 JUMP JUMPDEST PUSH2 0x335 PUSH2 0x3E5 CALLDATASIZE PUSH1 0x4 PUSH2 0x2AF3 JUMP JUMPDEST PUSH2 0x11C7 JUMP JUMPDEST PUSH2 0x297 PUSH2 0x3F8 CALLDATASIZE PUSH1 0x4 PUSH2 0x2B0C JUMP JUMPDEST PUSH2 0x1210 JUMP JUMPDEST PUSH1 0xB SLOAD PUSH2 0x411 SWAP1 PUSH1 0x1 PUSH1 0xA8 SHL SWAP1 DIV PUSH1 0xFF AND DUP2 JUMP JUMPDEST PUSH1 0x40 MLOAD PUSH1 0xFF SWAP1 SWAP2 AND DUP2 MSTORE PUSH1 0x20 ADD PUSH2 0x2A1 JUMP JUMPDEST PUSH1 0xB SLOAD PUSH2 0x2BD SWAP1 PUSH1 0x1 PUSH1 0x1 PUSH1 0xA0 SHL SUB AND DUP2 JUMP JUMPDEST PUSH2 0x335 PUSH2 0x1226 JUMP JUMPDEST PUSH2 0x34B PUSH2 0x44C CALLDATASIZE PUSH1 0x4 PUSH2 0x29B0 JUMP JUMPDEST PUSH1 0xD PUSH1 0x20 MSTORE PUSH0 SWAP1 DUP2 MSTORE PUSH1 0x40 SWAP1 KECCAK256 SLOAD PUSH1 0xFF AND DUP2 JUMP JUMPDEST PUSH1 0xB SLOAD PUSH2 0x411 SWAP1 PUSH1 0x1 PUSH1 0xA0 SHL SWAP1 DIV PUSH1 0xFF AND DUP2 JUMP JUMPDEST PUSH2 0x335 PUSH2 0x482 CALLDATASIZE PUSH1 0x4 PUSH2 0x29B0 JUMP JUMPDEST PUSH2 0x1237 JUMP JUMPDEST PUSH1 0xF SLOAD PUSH2 0x2BD SWAP1 PUSH1 0x1 PUSH1 0x1 PUSH1 0xA0 SHL SUB AND DUP2 JUMP JUMPDEST PUSH2 0x335 PUSH2 0x4A8 CALLDATASIZE PUSH1 0x4 PUSH2 0x2B0C JUMP JUMPDEST PUSH2 0x1371 JUMP JUMPDEST PUSH2 0x335 PUSH2 0x4BB CALLDATASIZE PUSH1 0x4 PUSH2 0x2B31 JUMP JUMPDEST PUSH2 0x1449 JUMP JUMPDEST PUSH0 SLOAD PUSH1 0x1 PUSH1 0x1 PUSH1 0xA0 SHL SUB AND PUSH2 0x2BD JUMP JUMPDEST PUSH1 0x9 SLOAD PUSH2 0x2BD SWAP1 PUSH1 0x1 PUSH1 0x1 PUSH1 0xA0 SHL SUB AND DUP2 JUMP JUMPDEST PUSH2 0x52C PUSH2 0x4F1 CALLDATASIZE PUSH1 0x4 PUSH2 0x29B0 JUMP JUMPDEST PUSH1 0x14 PUSH1 0x20 MSTORE PUSH0 SWAP1 DUP2 MSTORE PUSH1 0x40 SWAP1 KECCAK256 DUP1 SLOAD PUSH1 0x9 DUP3 ADD SLOAD PUSH1 0xA DUP4 ADD SLOAD PUSH1 0xB DUP5 ADD SLOAD PUSH1 0xC SWAP1 SWAP5 ADD SLOAD PUSH1 0x1 PUSH1 0x1 PUSH1 0xA0 SHL SUB SWAP1 SWAP4 AND SWAP4 SWAP2 SWAP3 SWAP1 SWAP2 SWAP1 PUSH1 0xFF AND DUP6 JUMP JUMPDEST PUSH1 0x40 DUP1 MLOAD PUSH1 0x1 PUSH1 0x1 PUSH1 0xA0 SHL SUB SWAP1 SWAP7 AND DUP7 MSTORE PUSH1 0x20 DUP7 ADD SWAP5 SWAP1 SWAP5 MSTORE SWAP3 DUP5 ADD SWAP2 SWAP1 SWAP2 MSTORE PUSH1 0x60 DUP4 ADD MSTORE ISZERO ISZERO PUSH1 0x80 DUP3 ADD MSTORE PUSH1 0xA0 ADD PUSH2 0x2A1 JUMP JUMPDEST PUSH2 0x573 PUSH2 0x56E CALLDATASIZE PUSH1 0x4 PUSH2 0x2B0C JUMP JUMPDEST PUSH2 0x1485 JUMP JUMPDEST PUSH1 0x40 MLOAD PUSH2 0x2A1 SWAP7 SWAP6 SWAP5 SWAP4 SWAP3 SWAP2 SWAP1 PUSH2 0x2B68 JUMP JUMPDEST PUSH2 0x335 PUSH2 0x593 CALLDATASIZE PUSH1 0x4 PUSH2 0x2B0C JUMP JUMPDEST PUSH2 0x1549 JUMP JUMPDEST PUSH2 0x297 PUSH4 0x3B9ACA00 DUP2 JUMP JUMPDEST PUSH2 0x335 PUSH2 0x5B1 CALLDATASIZE PUSH1 0x4 PUSH2 0x2BA5 JUMP JUMPDEST PUSH2 0x1880 JUMP JUMPDEST PUSH2 0x335 PUSH2 0x5C4 CALLDATASIZE PUSH1 0x4 PUSH2 0x2BE2 JUMP JUMPDEST PUSH2 0x21EE JUMP JUMPDEST PUSH2 0x297 PUSH1 0xC SLOAD DUP2 JUMP JUMPDEST PUSH2 0x335 PUSH2 0x23C8 JUMP JUMPDEST PUSH2 0x297 PUSH1 0x19 SLOAD DUP2 JUMP JUMPDEST PUSH2 0x297 PUSH1 0x12 SLOAD DUP2 JUMP JUMPDEST PUSH2 0x335 PUSH2 0x5FA CALLDATASIZE PUSH1 0x4 PUSH2 0x2B0C JUMP JUMPDEST PUSH2 0x253D JUMP JUMPDEST PUSH2 0x297 PUSH1 0x64 DUP2 JUMP JUMPDEST PUSH2 0x297 PUSH2 0x615 CALLDATASIZE PUSH1 0x4 PUSH2 0x29B0 JUMP JUMPDEST PUSH1 0x1 PUSH1 0x1 PUSH1 0xA0 SHL SUB AND PUSH0 SWAP1 DUP2 MSTORE PUSH1 0x15 PUSH1 0x20 MSTORE PUSH1 0x40 SWAP1 KECCAK256 SLOAD SWAP1 JUMP JUMPDEST PUSH2 0x297 PUSH2 0x63D CALLDATASIZE PUSH1 0x4 PUSH2 0x29B0 JUMP JUMPDEST PUSH1 0x15 PUSH1 0x20 MSTORE PUSH0 SWAP1 DUP2 MSTORE PUSH1 0x40 SWAP1 KECCAK256 SLOAD DUP2 JUMP JUMPDEST PUSH1 0x17 SLOAD PUSH2 0x34B SWAP1 PUSH1 0xFF AND DUP2 JUMP JUMPDEST PUSH2 0x335 PUSH2 0x669 CALLDATASIZE PUSH1 0x4 PUSH2 0x29B0 JUMP JUMPDEST PUSH2 0x2619 JUMP JUMPDEST PUSH2 0x297 PUSH9 0x3635C9ADC5DEA00000 DUP2 JUMP JUMPDEST PUSH2 0x34B PUSH2 0x68C CALLDATASIZE PUSH1 0x4 PUSH2 0x29B0 JUMP JUMPDEST PUSH1 0x16 PUSH1 0x20 MSTORE PUSH0 SWAP1 DUP2 MSTORE PUSH1 0x40 SWAP1 KECCAK256 SLOAD PUSH1 0xFF AND DUP2 JUMP JUMPDEST PUSH0 DUP1 PUSH1 0x11 SLOAD PUSH1 0x1 PUSH2 0x6B1 SWAP2 SWAP1 PUSH2 0x2CAB JUMP JUMPDEST SWAP1 POP PUSH4 0x3B9ACA00 DUP2 GT PUSH2 0x6C3 JUMPI SWAP2 SWAP1 POP JUMP JUMPDEST PUSH0 SWAP2 POP POP SWAP1 JUMP JUMPDEST PUSH1 0x11 SLOAD PUSH0 SWAP1 JUMPDEST PUSH1 0x1 DUP2 LT PUSH2 0x708 JUMPI PUSH0 DUP2 DUP2 MSTORE PUSH1 0x10 PUSH1 0x20 MSTORE PUSH1 0x40 SWAP1 KECCAK256 PUSH1 0x3 ADD SLOAD PUSH1 0xFF AND ISZERO PUSH2 0x6F6 JUMPI SWAP2 SWAP1 POP JUMP JUMPDEST DUP1 PUSH2 0x700 DUP2 PUSH2 0x2CC4 JUMP JUMPDEST SWAP2 POP POP PUSH2 0x6D0 JUMP JUMPDEST POP PUSH0 SWAP1 POP SWAP1 JUMP JUMPDEST PUSH1 0x1 PUSH1 0x1 PUSH1 0xA0 SHL SUB DUP2 AND PUSH0 SWAP1 DUP2 MSTORE PUSH1 0x14 PUSH1 0x20 MSTORE PUSH1 0x40 DUP2 KECCAK256 PUSH1 0x9 DUP2 ADD SLOAD DUP3 SWAP1 PUSH2 0x739 SWAP1 PUSH1 0x3 SWAP1 PUSH2 0x2CD9 JUMP JUMPDEST SWAP1 POP PUSH0 DUP3 PUSH1 0xB ADD SLOAD DUP4 PUSH1 0xA ADD SLOAD PUSH2 0x750 SWAP2 SWAP1 PUSH2 0x2CF0 JUMP JUMPDEST SWAP1 POP DUP2 DUP2 DUP5 PUSH1 0xB ADD SLOAD PUSH2 0x763 SWAP2 SWAP1 PUSH2 0x2CAB JUMP JUMPDEST GT ISZERO PUSH2 0x77B JUMPI PUSH1 0xB DUP4 ADD SLOAD PUSH2 0x778 SWAP1 DUP4 PUSH2 0x2CF0 JUMP JUMPDEST SWAP1 POP JUMPDEST SWAP5 SWAP4 POP POP POP POP JUMP JUMPDEST PUSH1 0x13 PUSH1 0x20 MSTORE DUP2 PUSH0 MSTORE PUSH1 0x40 PUSH0 KECCAK256 DUP2 DUP2 SLOAD DUP2 LT PUSH2 0x79C JUMPI PUSH0 DUP1 REVERT JUMPDEST PUSH0 SWAP2 DUP3 MSTORE PUSH1 0x20 SWAP1 SWAP2 KECCAK256 PUSH1 0x6 SWAP1 SWAP2 MUL ADD DUP1 SLOAD PUSH1 0x1 DUP3 ADD SLOAD PUSH1 0x2 DUP4 ADD SLOAD PUSH1 0x3 DUP5 ADD SLOAD PUSH1 0x4 DUP6 ADD DUP1 SLOAD SWAP5 SWAP8 POP PUSH1 0x1 PUSH1 0x1 PUSH1 0xA0 SHL SUB SWAP1 SWAP4 AND SWAP6 POP SWAP1 SWAP4 SWAP1 SWAP3 SWAP1 SWAP2 SWAP1 PUSH2 0x7E2 SWAP1 PUSH2 0x2D03 JUMP JUMPDEST DUP1 PUSH1 0x1F ADD PUSH1 0x20 DUP1 SWAP2 DIV MUL PUSH1 0x20 ADD PUSH1 0x40 MLOAD SWAP1 DUP2 ADD PUSH1 0x40 MSTORE DUP1 SWAP3 SWAP2 SWAP1 DUP2 DUP2 MSTORE PUSH1 0x20 ADD DUP3 DUP1 SLOAD PUSH2 0x80E SWAP1 PUSH2 0x2D03 JUMP JUMPDEST DUP1 ISZERO PUSH2 0x859 JUMPI DUP1 PUSH1 0x1F LT PUSH2 0x830 JUMPI PUSH2 0x100 DUP1 DUP4 SLOAD DIV MUL DUP4 MSTORE SWAP2 PUSH1 0x20 ADD SWAP2 PUSH2 0x859 JUMP JUMPDEST DUP3 ADD SWAP2 SWAP1 PUSH0 MSTORE PUSH1 0x20 PUSH0 KECCAK256 SWAP1 JUMPDEST DUP2 SLOAD DUP2 MSTORE SWAP1 PUSH1 0x1 ADD SWAP1 PUSH1 0x20 ADD DUP1 DUP4 GT PUSH2 0x83C JUMPI DUP3 SWAP1 SUB PUSH1 0x1F AND DUP3 ADD SWAP2 JUMPDEST POP POP POP PUSH1 0x5 SWAP1 SWAP4 ADD SLOAD SWAP2 SWAP3 POP POP PUSH1 0xFF AND DUP7 JUMP JUMPDEST PUSH2 0x874 PUSH2 0x2653 JUMP JUMPDEST CALLER PUSH0 DUP2 DUP2 MSTORE PUSH1 0x14 PUSH1 0x20 MSTORE PUSH1 0x40 DUP2 KECCAK256 SWAP2 PUSH2 0x88C SWAP1 PUSH2 0x70F JUMP JUMPDEST SWAP1 POP PUSH9 0x3635C9ADC5DEA00000 DUP2 LT ISZERO PUSH2 0x8E2 JUMPI PUSH1 0x40 MLOAD PUSH3 0x461BCD PUSH1 0xE5 SHL DUP2 MSTORE PUSH1 0x20 PUSH1 0x4 DUP3 ADD MSTORE PUSH1 0x13 PUSH1 0x24 DUP3 ADD MSTORE PUSH19 0x4E6F7420656E6F75676820746F20636C61696D PUSH1 0x68 SHL PUSH1 0x44 DUP3 ADD MSTORE PUSH1 0x64 ADD JUMPDEST PUSH1 0x40 MLOAD DUP1 SWAP2 SUB SWAP1 REVERT JUMPDEST DUP1 DUP3 PUSH1 0xB ADD PUSH0 DUP3 DUP3 SLOAD PUSH2 0x8F5 SWAP2 SWAP1 PUSH2 0x2CAB JUMP JUMPDEST SWAP1 SWAP2 SSTORE POP POP PUSH1 0x9 SLOAD PUSH1 0x40 MLOAD PUSH4 0x70A08231 PUSH1 0xE0 SHL DUP2 MSTORE ADDRESS PUSH1 0x4 DUP3 ADD MSTORE DUP3 SWAP2 PUSH1 0x1 PUSH1 0x1 PUSH1 0xA0 SHL SUB AND SWAP1 PUSH4 0x70A08231 SWAP1 PUSH1 0x24 ADD PUSH1 0x20 PUSH1 0x40 MLOAD DUP1 DUP4 SUB DUP2 DUP7 GAS STATICCALL ISZERO DUP1 ISZERO PUSH2 0x940 JUMPI RETURNDATASIZE PUSH0 DUP1 RETURNDATACOPY RETURNDATASIZE PUSH0 REVERT JUMPDEST POP POP POP POP PUSH1 0x40 MLOAD RETURNDATASIZE PUSH1 0x1F NOT PUSH1 0x1F DUP3 ADD AND DUP3 ADD DUP1 PUSH1 0x40 MSTORE POP DUP2 ADD SWAP1 PUSH2 0x964 SWAP2 SWAP1 PUSH2 0x2D3B JUMP JUMPDEST LT ISZERO PUSH2 0x9A6 JUMPI PUSH1 0x40 MLOAD PUSH3 0x461BCD PUSH1 0xE5 SHL DUP2 MSTORE PUSH1 0x20 PUSH1 0x4 DUP3 ADD MSTORE PUSH1 0x11 PUSH1 0x24 DUP3 ADD MSTORE PUSH17 0x496E73756666696369656E7420494E5231 PUSH1 0x78 SHL PUSH1 0x44 DUP3 ADD MSTORE PUSH1 0x64 ADD PUSH2 0x8D9 JUMP JUMPDEST PUSH1 0x9 SLOAD PUSH2 0x9BD SWAP1 PUSH1 0x1 PUSH1 0x1 PUSH1 0xA0 SHL SUB AND CALLER DUP4 PUSH2 0x26AC JUMP JUMPDEST PUSH1 0x40 MLOAD DUP2 DUP2 MSTORE CALLER SWAP1 PUSH32 0x5BE4D22009FEA85381595ED91090BC5C0BC92A93FE07ED7472C5888EB1993F83 SWAP1 PUSH1 0x20 ADD PUSH1 0x40 MLOAD DUP1 SWAP2 SUB SWAP1 LOG2 CALLER PUSH1 0x1 PUSH1 0x1 PUSH1 0xA0 SHL SUB AND PUSH32 0xDD8025B728F6881D55401EC3C5F58BAC7E135A199306892B83593F9BF4BFE23A DUP4 PUSH1 0xA ADD SLOAD PUSH2 0xA2B CALLER PUSH2 0x70F JUMP JUMPDEST DUP6 PUSH1 0xB ADD SLOAD PUSH1 0x3 DUP8 PUSH1 0x9 ADD SLOAD PUSH2 0xA41 SWAP2 SWAP1 PUSH2 0x2CD9 JUMP JUMPDEST PUSH1 0x40 DUP1 MLOAD SWAP5 DUP6 MSTORE PUSH1 0x20 DUP6 ADD SWAP4 SWAP1 SWAP4 MSTORE SWAP2 DUP4 ADD MSTORE PUSH1 0x60 DUP3 ADD MSTORE PUSH1 0x80 ADD PUSH1 0x40 MLOAD DUP1 SWAP2 SUB SWAP1 LOG2 POP POP PUSH2 0xA6F PUSH1 0x1 DUP1 SSTORE JUMP JUMPDEST JUMP JUMPDEST PUSH2 0xA79 PUSH2 0x270B JUMP JUMPDEST PUSH1 0x1 PUSH1 0x1 PUSH1 0xA0 SHL SUB DUP2 AND PUSH2 0xABE JUMPI PUSH1 0x40 MLOAD PUSH3 0x461BCD PUSH1 0xE5 SHL DUP2 MSTORE PUSH1 0x20 PUSH1 0x4 DUP3 ADD MSTORE PUSH1 0xC PUSH1 0x24 DUP3 ADD MSTORE PUSH12 0x5A65726F2061646472657373 PUSH1 0xA0 SHL PUSH1 0x44 DUP3 ADD MSTORE PUSH1 0x64 ADD PUSH2 0x8D9 JUMP JUMPDEST PUSH1 0x9 DUP1 SLOAD PUSH1 0x1 PUSH1 0x1 PUSH1 0xA0 SHL SUB NOT AND PUSH1 0x1 PUSH1 0x1 PUSH1 0xA0 SHL SUB DUP4 AND SWAP1 DUP2 OR SWAP1 SWAP2 SSTORE PUSH1 0x40 DUP1 MLOAD PUSH4 0x313CE567 PUSH1 0xE0 SHL DUP2 MSTORE SWAP1 MLOAD PUSH4 0x313CE567 SWAP2 PUSH1 0x4 DUP1 DUP3 ADD SWAP3 PUSH1 0x20 SWAP3 SWAP1 SWAP2 SWAP1 DUP3 SWAP1 SUB ADD DUP2 DUP7 GAS STATICCALL ISZERO DUP1 ISZERO PUSH2 0xB15 JUMPI RETURNDATASIZE PUSH0 DUP1 RETURNDATACOPY RETURNDATASIZE PUSH0 REVERT JUMPDEST POP POP POP POP PUSH1 0x40 MLOAD RETURNDATASIZE PUSH1 0x1F NOT PUSH1 0x1F DUP3 ADD AND DUP3 ADD DUP1 PUSH1 0x40 MSTORE POP DUP2 ADD SWAP1 PUSH2 0xB39 SWAP2 SWAP1 PUSH2 0x2D52 JUMP JUMPDEST PUSH1 0xB DUP1 SLOAD PUSH1 0xFF SWAP3 SWAP1 SWAP3 AND PUSH1 0x1 PUSH1 0xA0 SHL MUL PUSH1 0xFF PUSH1 0xA0 SHL NOT SWAP1 SWAP3 AND SWAP2 SWAP1 SWAP2 OR SWAP1 SSTORE PUSH1 0x1 PUSH1 0x1 PUSH1 0xA0 SHL SUB DUP2 AND PUSH0 DUP2 DUP2 MSTORE PUSH1 0xD PUSH1 0x20 SWAP1 DUP2 MSTORE PUSH1 0x40 SWAP2 DUP3 SWAP1 KECCAK256 DUP1 SLOAD PUSH1 0xFF NOT AND PUSH1 0x1 OR SWAP1 SSTORE SWAP1 MLOAD SWAP2 DUP3 MSTORE PUSH32 0xECCC870B3D8D88FD5923D96E7A466768A74B6C48460640CF23AA6162AA4F80F0 SWAP2 ADD JUMPDEST PUSH1 0x40 MLOAD DUP1 SWAP2 SUB SWAP1 LOG1 POP JUMP JUMPDEST PUSH2 0xBBA PUSH2 0x270B JUMP JUMPDEST DUP1 PUSH1 0x1 PUSH1 0x1 PUSH1 0xA0 SHL SUB AND DUP3 PUSH1 0x1 PUSH1 0x1 PUSH1 0xA0 SHL SUB AND SUB PUSH2 0xC0F JUMPI PUSH1 0x40 MLOAD PUSH3 0x461BCD PUSH1 0xE5 SHL DUP2 MSTORE PUSH1 0x20 PUSH1 0x4 DUP3 ADD MSTORE PUSH1 0x11 PUSH1 0x24 DUP3 ADD MSTORE PUSH17 0x21B0B73737BA103932B332B91039B2B633 PUSH1 0x79 SHL PUSH1 0x44 DUP3 ADD MSTORE PUSH1 0x64 ADD PUSH2 0x8D9 JUMP JUMPDEST PUSH1 0x1 PUSH1 0x1 PUSH1 0xA0 SHL SUB DUP3 AND PUSH0 SWAP1 DUP2 MSTORE PUSH1 0x14 PUSH1 0x20 MSTORE PUSH1 0x40 SWAP1 KECCAK256 PUSH1 0xC ADD SLOAD PUSH1 0xFF AND PUSH2 0xC79 JUMPI PUSH1 0x40 MLOAD PUSH3 0x461BCD PUSH1 0xE5 SHL DUP2 MSTORE PUSH1 0x20 PUSH1 0x4 DUP3 ADD MSTORE PUSH1 0x17 PUSH1 0x24 DUP3 ADD MSTORE PUSH32 0x55736572206D7573742062652072656769737465726564000000000000000000 PUSH1 0x44 DUP3 ADD MSTORE PUSH1 0x64 ADD PUSH2 0x8D9 JUMP JUMPDEST PUSH1 0x1 PUSH1 0x1 PUSH1 0xA0 SHL SUB DUP2 AND ISZERO DUP1 PUSH2 0xCA9 JUMPI POP PUSH1 0x1 PUSH1 0x1 PUSH1 0xA0 SHL SUB DUP2 AND PUSH0 SWAP1 DUP2 MSTORE PUSH1 0x14 PUSH1 0x20 MSTORE PUSH1 0x40 SWAP1 KECCAK256 PUSH1 0xC ADD SLOAD PUSH1 0xFF AND JUMPDEST PUSH2 0xCF5 JUMPI PUSH1 0x40 MLOAD PUSH3 0x461BCD PUSH1 0xE5 SHL DUP2 MSTORE PUSH1 0x20 PUSH1 0x4 DUP3 ADD MSTORE PUSH1 0x1B PUSH1 0x24 DUP3 ADD MSTORE PUSH32 0x5265666572726572206D75737420626520726567697374657265640000000000 PUSH1 0x44 DUP3 ADD MSTORE PUSH1 0x64 ADD PUSH2 0x8D9 JUMP JUMPDEST PUSH1 0x1 PUSH1 0x1 PUSH1 0xA0 SHL SUB DUP1 DUP4 AND PUSH0 SWAP1 DUP2 MSTORE PUSH1 0x14 PUSH1 0x20 MSTORE PUSH1 0x40 DUP2 KECCAK256 DUP1 SLOAD DUP5 DUP5 AND PUSH1 0x1 PUSH1 0x1 PUSH1 0xA0 SHL SUB NOT DUP3 AND OR SWAP1 SWAP2 SSTORE SWAP1 SWAP2 AND SWAP1 DUP3 SWAP1 JUMPDEST PUSH1 0x7 PUSH1 0xFF DUP3 AND LT ISZERO PUSH2 0xDB5 JUMPI PUSH1 0x1 PUSH1 0x1 PUSH1 0xA0 SHL SUB DUP6 AND PUSH0 SWAP1 DUP2 MSTORE PUSH1 0x14 PUSH1 0x20 MSTORE PUSH1 0x40 SWAP1 KECCAK256 DUP3 SWAP1 PUSH1 0x1 ADD PUSH1 0xFF DUP4 AND PUSH1 0x7 DUP2 LT PUSH2 0xD64 JUMPI PUSH2 0xD64 PUSH2 0x2D6D JUMP JUMPDEST ADD DUP1 SLOAD PUSH1 0x1 PUSH1 0x1 PUSH1 0xA0 SHL SUB NOT AND PUSH1 0x1 PUSH1 0x1 PUSH1 0xA0 SHL SUB SWAP3 DUP4 AND OR SWAP1 SSTORE DUP3 AND ISZERO PUSH2 0xDB5 JUMPI PUSH1 0x1 PUSH1 0x1 PUSH1 0xA0 SHL SUB SWAP2 DUP3 AND PUSH0 SWAP1 DUP2 MSTORE PUSH1 0x14 PUSH1 0x20 MSTORE PUSH1 0x40 SWAP1 KECCAK256 SLOAD SWAP1 SWAP2 AND SWAP1 DUP1 PUSH2 0xDAD DUP2 PUSH2 0x2D81 JUMP JUMPDEST SWAP2 POP POP PUSH2 0xD28 JUMP JUMPDEST POP DUP3 PUSH1 0x1 PUSH1 0x1 PUSH1 0xA0 SHL SUB AND DUP3 PUSH1 0x1 PUSH1 0x1 PUSH1 0xA0 SHL SUB AND DUP6 PUSH1 0x1 PUSH1 0x1 PUSH1 0xA0 SHL SUB AND PUSH32 0xF8B9FE4D008320E6F048C61E41E9CC56CE351354AD0CB9A868BD3C4BD6928FD5 PUSH1 0x40 MLOAD PUSH1 0x40 MLOAD DUP1 SWAP2 SUB SWAP1 LOG4 POP POP POP POP JUMP JUMPDEST CALLER PUSH0 SWAP1 DUP2 MSTORE PUSH1 0x14 PUSH1 0x20 MSTORE PUSH1 0x40 SWAP1 KECCAK256 PUSH1 0xC ADD SLOAD PUSH1 0xFF AND ISZERO PUSH2 0xE5D JUMPI PUSH1 0x40 MLOAD PUSH3 0x461BCD PUSH1 0xE5 SHL DUP2 MSTORE PUSH1 0x20 PUSH1 0x4 DUP3 ADD MSTORE PUSH1 0x12 PUSH1 0x24 DUP3 ADD MSTORE PUSH18 0x105B1C9958591E481C9959DA5CDD195C9959 PUSH1 0x72 SHL PUSH1 0x44 DUP3 ADD MSTORE PUSH1 0x64 ADD PUSH2 0x8D9 JUMP JUMPDEST PUSH1 0x1 PUSH1 0x1 PUSH1 0xA0 SHL SUB DUP2 AND ISZERO DUP1 PUSH2 0xE8D JUMPI POP PUSH1 0x1 PUSH1 0x1 PUSH1 0xA0 SHL SUB DUP2 AND PUSH0 SWAP1 DUP2 MSTORE PUSH1 0x14 PUSH1 0x20 MSTORE PUSH1 0x40 SWAP1 KECCAK256 PUSH1 0xC ADD SLOAD PUSH1 0xFF AND JUMPDEST PUSH2 0xED9 JUMPI PUSH1 0x40 MLOAD PUSH3 0x461BCD PUSH1 0xE5 SHL DUP2 MSTORE PUSH1 0x20 PUSH1 0x4 DUP3 ADD MSTORE PUSH1 0x1B PUSH1 0x24 DUP3 ADD MSTORE PUSH32 0x5265666572726572206D75737420626520726567697374657265640000000000 PUSH1 0x44 DUP3 ADD MSTORE PUSH1 0x64 ADD PUSH2 0x8D9 JUMP JUMPDEST CALLER PUSH1 0x1 PUSH1 0x1 PUSH1 0xA0 SHL SUB DUP3 AND SUB PUSH2 0xF25 JUMPI PUSH1 0x40 MLOAD PUSH3 0x461BCD PUSH1 0xE5 SHL DUP2 MSTORE PUSH1 0x20 PUSH1 0x4 DUP3 ADD MSTORE PUSH1 0x11 PUSH1 0x24 DUP3 ADD MSTORE PUSH17 0x21B0B73737BA103932B332B91039B2B633 PUSH1 0x79 SHL PUSH1 0x44 DUP3 ADD MSTORE PUSH1 0x64 ADD PUSH2 0x8D9 JUMP JUMPDEST PUSH1 0x1 PUSH1 0x1 PUSH1 0xA0 SHL SUB DUP2 AND ISZERO PUSH2 0xFD9 JUMPI PUSH1 0x1 PUSH1 0x1 PUSH1 0xA0 SHL SUB DUP2 AND PUSH0 SWAP1 DUP2 MSTORE PUSH1 0x14 PUSH1 0x20 MSTORE PUSH1 0x40 SWAP1 KECCAK256 PUSH1 0x8 ADD SLOAD PUSH1 0x24 GT PUSH2 0xF9E JUMPI PUSH1 0x40 MLOAD PUSH3 0x461BCD PUSH1 0xE5 SHL DUP2 MSTORE PUSH1 0x20 PUSH1 0x4 DUP3 ADD MSTORE PUSH1 0x1B PUSH1 0x24 DUP3 ADD MSTORE PUSH32 0x44697265637420726566657272616C2063617020726561636865640000000000 PUSH1 0x44 DUP3 ADD MSTORE PUSH1 0x64 ADD PUSH2 0x8D9 JUMP JUMPDEST PUSH1 0x1 PUSH1 0x1 PUSH1 0xA0 SHL SUB DUP2 AND PUSH0 SWAP1 DUP2 MSTORE PUSH1 0x14 PUSH1 0x20 SWAP1 DUP2 MSTORE PUSH1 0x40 DUP3 KECCAK256 PUSH1 0x8 ADD DUP1 SLOAD PUSH1 0x1 DUP2 ADD DUP3 SSTORE SWAP1 DUP4 MSTORE SWAP2 KECCAK256 ADD DUP1 SLOAD PUSH1 0x1 PUSH1 0x1 PUSH1 0xA0 SHL SUB NOT AND CALLER OR SWAP1 SSTORE JUMPDEST CALLER PUSH0 SWAP1 DUP2 MSTORE PUSH1 0x14 PUSH1 0x20 MSTORE PUSH1 0x40 DUP2 KECCAK256 PUSH1 0xC DUP2 ADD DUP1 SLOAD PUSH1 0xFF NOT AND PUSH1 0x1 OR SWAP1 SSTORE DUP1 SLOAD PUSH1 0x1 PUSH1 0x1 PUSH1 0xA0 SHL SUB DUP5 AND PUSH1 0x1 PUSH1 0x1 PUSH1 0xA0 SHL SUB NOT SWAP1 SWAP2 AND OR SWAP1 SSTORE DUP2 SWAP1 JUMPDEST PUSH1 0x7 PUSH1 0xFF DUP3 AND LT ISZERO PUSH2 0x1098 JUMPI CALLER PUSH0 SWAP1 DUP2 MSTORE PUSH1 0x14 PUSH1 0x20 MSTORE PUSH1 0x40 SWAP1 KECCAK256 DUP3 SWAP1 PUSH1 0x1 ADD PUSH1 0xFF DUP4 AND PUSH1 0x7 DUP2 LT PUSH2 0x1047 JUMPI PUSH2 0x1047 PUSH2 0x2D6D JUMP JUMPDEST ADD DUP1 SLOAD PUSH1 0x1 PUSH1 0x1 PUSH1 0xA0 SHL SUB NOT AND PUSH1 0x1 PUSH1 0x1 PUSH1 0xA0 SHL SUB SWAP3 DUP4 AND OR SWAP1 SSTORE DUP3 AND ISZERO PUSH2 0x1098 JUMPI PUSH1 0x1 PUSH1 0x1 PUSH1 0xA0 SHL SUB SWAP2 DUP3 AND PUSH0 SWAP1 DUP2 MSTORE PUSH1 0x14 PUSH1 0x20 MSTORE PUSH1 0x40 SWAP1 KECCAK256 SLOAD SWAP1 SWAP2 AND SWAP1 DUP1 PUSH2 0x1090 DUP2 PUSH2 0x2D81 JUMP JUMPDEST SWAP2 POP POP PUSH2 0x1014 JUMP JUMPDEST POP POP POP JUMP JUMPDEST PUSH2 0x10A5 PUSH2 0x270B JUMP JUMPDEST PUSH1 0x40 MLOAD PUSH4 0x70A08231 PUSH1 0xE0 SHL DUP2 MSTORE ADDRESS PUSH1 0x4 DUP3 ADD MSTORE DUP3 SWAP1 PUSH1 0x1 PUSH1 0x1 PUSH1 0xA0 SHL SUB DUP6 AND SWAP1 PUSH4 0x70A08231 SWAP1 PUSH1 0x24 ADD PUSH1 0x20 PUSH1 0x40 MLOAD DUP1 DUP4 SUB DUP2 DUP7 GAS STATICCALL ISZERO DUP1 ISZERO PUSH2 0x10E9 JUMPI RETURNDATASIZE PUSH0 DUP1 RETURNDATACOPY RETURNDATASIZE PUSH0 REVERT JUMPDEST POP POP POP POP PUSH1 0x40 MLOAD RETURNDATASIZE PUSH1 0x1F NOT PUSH1 0x1F DUP3 ADD AND DUP3 ADD DUP1 PUSH1 0x40 MSTORE POP DUP2 ADD SWAP1 PUSH2 0x110D SWAP2 SWAP1 PUSH2 0x2D3B JUMP JUMPDEST LT ISZERO PUSH2 0x115B JUMPI PUSH1 0x40 MLOAD PUSH3 0x461BCD PUSH1 0xE5 SHL DUP2 MSTORE PUSH1 0x20 PUSH1 0x4 DUP3 ADD MSTORE PUSH1 0x1E PUSH1 0x24 DUP3 ADD MSTORE PUSH32 0x496E73756666696369656E7420746F6B656E20696E20636F6E74726163740000 PUSH1 0x44 DUP3 ADD MSTORE PUSH1 0x64 ADD PUSH2 0x8D9 JUMP JUMPDEST PUSH2 0x116F PUSH1 0x1 PUSH1 0x1 PUSH1 0xA0 SHL SUB DUP5 AND DUP3 DUP5 PUSH2 0x26AC JUMP JUMPDEST PUSH1 0x40 DUP1 MLOAD DUP2 DUP2 MSTORE PUSH1 0xA DUP2 DUP4 ADD MSTORE PUSH10 0x41646D696E537765657 PUSH1 0xB4 SHL PUSH1 0x60 DUP3 ADD MSTORE PUSH1 0x20 DUP2 ADD DUP5 SWAP1 MSTORE SWAP1 MLOAD PUSH32 0x32F91AF51D2A8BBEB2808FFA648F1C5072F1C1CCDB64B39D003F051B496CC984 SWAP2 DUP2 SWAP1 SUB PUSH1 0x80 ADD SWAP1 LOG1 POP POP POP JUMP JUMPDEST PUSH2 0x11CF PUSH2 0x270B JUMP JUMPDEST PUSH1 0x17 DUP1 SLOAD PUSH1 0xFF NOT AND DUP3 ISZERO ISZERO SWAP1 DUP2 OR SWAP1 SWAP2 SSTORE PUSH1 0x40 MLOAD SWAP1 DUP2 MSTORE PUSH32 0x24DF690CF3950B574129729BEE40A9933D0F3B2D05DCD721C00D64570351EDB1 SWAP1 PUSH1 0x20 ADD PUSH2 0xBA7 JUMP JUMPDEST PUSH1 0x2 DUP2 PUSH1 0x7 DUP2 LT PUSH2 0x121F JUMPI PUSH0 DUP1 REVERT JUMPDEST ADD SLOAD SWAP1 POP DUP2 JUMP JUMPDEST PUSH2 0x122E PUSH2 0x270B JUMP JUMPDEST PUSH2 0xA6F PUSH0 PUSH2 0x2737 JUMP JUMPDEST PUSH2 0x123F PUSH2 0x270B JUMP JUMPDEST PUSH1 0x1 PUSH1 0x1 PUSH1 0xA0 SHL SUB DUP2 AND PUSH2 0x1284 JUMPI PUSH1 0x40 MLOAD PUSH3 0x461BCD PUSH1 0xE5 SHL DUP2 MSTORE PUSH1 0x20 PUSH1 0x4 DUP3 ADD MSTORE PUSH1 0xC PUSH1 0x24 DUP3 ADD MSTORE PUSH12 0x5A65726F2061646472657373 PUSH1 0xA0 SHL PUSH1 0x44 DUP3 ADD MSTORE PUSH1 0x64 ADD PUSH2 0x8D9 JUMP JUMPDEST PUSH1 0xA DUP1 SLOAD PUSH1 0x1 PUSH1 0x1 PUSH1 0xA0 SHL SUB NOT AND PUSH1 0x1 PUSH1 0x1 PUSH1 0xA0 SHL SUB DUP4 AND SWAP1 DUP2 OR SWAP1 SWAP2 SSTORE PUSH1 0x40 DUP1 MLOAD PUSH4 0x313CE567 PUSH1 0xE0 SHL DUP2 MSTORE SWAP1 MLOAD PUSH4 0x313CE567 SWAP2 PUSH1 0x4 DUP1 DUP3 ADD SWAP3 PUSH1 0x20 SWAP3 SWAP1 SWAP2 SWAP1 DUP3 SWAP1 SUB ADD DUP2 DUP7 GAS STATICCALL ISZERO DUP1 ISZERO PUSH2 0x12DB JUMPI RETURNDATASIZE PUSH0 DUP1 RETURNDATACOPY RETURNDATASIZE PUSH0 REVERT JUMPDEST POP POP POP POP PUSH1 0x40 MLOAD RETURNDATASIZE PUSH1 0x1F NOT PUSH1 0x1F DUP3 ADD AND DUP3 ADD DUP1 PUSH1 0x40 MSTORE POP DUP2 ADD SWAP1 PUSH2 0x12FF SWAP2 SWAP1 PUSH2 0x2D52 JUMP JUMPDEST PUSH1 0xB DUP1 SLOAD PUSH1 0xFF SWAP3 SWAP1 SWAP3 AND PUSH1 0x1 PUSH1 0xA8 SHL MUL PUSH1 0xFF PUSH1 0xA8 SHL NOT SWAP1 SWAP3 AND SWAP2 SWAP1 SWAP2 OR SWAP1 SSTORE PUSH1 0x1 PUSH1 0x1 PUSH1 0xA0 SHL SUB DUP2 AND PUSH0 DUP2 DUP2 MSTORE PUSH1 0xD PUSH1 0x20 SWAP1 DUP2 MSTORE PUSH1 0x40 SWAP2 DUP3 SWAP1 KECCAK256 DUP1 SLOAD PUSH1 0xFF NOT AND PUSH1 0x1 OR SWAP1 SSTORE SWAP1 MLOAD SWAP2 DUP3 MSTORE PUSH32 0x2EEBB86337116BB829D157848909E2848E7B06BB7F91F788C9DE450C63A804DC SWAP2 ADD PUSH2 0xBA7 JUMP JUMPDEST PUSH2 0x1379 PUSH2 0x270B JUMP JUMPDEST PUSH1 0x18 SLOAD DUP2 GT ISZERO PUSH2 0x13CB JUMPI PUSH1 0x40 MLOAD PUSH3 0x461BCD PUSH1 0xE5 SHL DUP2 MSTORE PUSH1 0x20 PUSH1 0x4 DUP3 ADD MSTORE PUSH1 0x1B PUSH1 0x24 DUP3 ADD MSTORE PUSH32 0x4E6F7420656E6F75676820726573657276652074726561737572790000000000 PUSH1 0x44 DUP3 ADD MSTORE PUSH1 0x64 ADD PUSH2 0x8D9 JUMP JUMPDEST DUP1 PUSH1 0x18 PUSH0 DUP3 DUP3 SLOAD PUSH2 0x13DC SWAP2 SWAP1 PUSH2 0x2CF0 JUMP JUMPDEST SWAP1 SWAP2 SSTORE POP POP PUSH1 0x9 SLOAD PUSH2 0x13F8 SWAP1 PUSH1 0x1 PUSH1 0x1 PUSH1 0xA0 SHL SUB AND CALLER DUP4 PUSH2 0x26AC JUMP JUMPDEST PUSH1 0x40 DUP1 MLOAD DUP2 DUP2 MSTORE PUSH1 0x7 SWAP2 DUP2 ADD SWAP2 SWAP1 SWAP2 MSTORE PUSH7 0x52657365727665 PUSH1 0xC8 SHL PUSH1 0x60 DUP3 ADD MSTORE PUSH1 0x20 DUP2 ADD DUP3 SWAP1 MSTORE PUSH32 0x32F91AF51D2A8BBEB2808FFA648F1C5072F1C1CCDB64B39D003F051B496CC984 SWAP1 PUSH1 0x80 ADD PUSH2 0xBA7 JUMP JUMPDEST PUSH2 0x1451 PUSH2 0x270B JUMP JUMPDEST PUSH1 0xB DUP1 SLOAD PUSH2 0xFFFF PUSH1 0xA0 SHL NOT AND PUSH1 0x1 PUSH1 0xA0 SHL PUSH1 0xFF SWAP5 DUP6 AND MUL PUSH1 0xFF PUSH1 0xA8 SHL NOT AND OR PUSH1 0x1 PUSH1 0xA8 SHL SWAP3 SWAP1 SWAP4 AND SWAP2 SWAP1 SWAP2 MUL SWAP2 SWAP1 SWAP2 OR SWAP1 SSTORE JUMP JUMPDEST PUSH1 0x10 PUSH1 0x20 MSTORE PUSH0 SWAP1 DUP2 MSTORE PUSH1 0x40 SWAP1 KECCAK256 DUP1 SLOAD PUSH1 0x1 DUP3 ADD DUP1 SLOAD SWAP2 SWAP3 SWAP2 PUSH2 0x14A6 SWAP1 PUSH2 0x2D03 JUMP JUMPDEST DUP1 PUSH1 0x1F ADD PUSH1 0x20 DUP1 SWAP2 DIV MUL PUSH1 0x20 ADD PUSH1 0x40 MLOAD SWAP1 DUP2 ADD PUSH1 0x40 MSTORE DUP1 SWAP3 SWAP2 SWAP1 DUP2 DUP2 MSTORE PUSH1 0x20 ADD DUP3 DUP1 SLOAD PUSH2 0x14D2 SWAP1 PUSH2 0x2D03 JUMP JUMPDEST DUP1 ISZERO PUSH2 0x151D JUMPI DUP1 PUSH1 0x1F LT PUSH2 0x14F4 JUMPI PUSH2 0x100 DUP1 DUP4 SLOAD DIV MUL DUP4 MSTORE SWAP2 PUSH1 0x20 ADD SWAP2 PUSH2 0x151D JUMP JUMPDEST DUP3 ADD SWAP2 SWAP1 PUSH0 MSTORE PUSH1 0x20 PUSH0 KECCAK256 SWAP1 JUMPDEST DUP2 SLOAD DUP2 MSTORE SWAP1 PUSH1 0x1 ADD SWAP1 PUSH1 0x20 ADD DUP1 DUP4 GT PUSH2 0x1500 JUMPI DUP3 SWAP1 SUB PUSH1 0x1F AND DUP3 ADD SWAP2 JUMPDEST POP POP POP PUSH1 0x2 DUP5 ADD SLOAD PUSH1 0x3 DUP6 ADD SLOAD PUSH1 0x4 SWAP1 SWAP6 ADD SLOAD SWAP4 SWAP5 SWAP1 SWAP4 PUSH1 0xFF DUP1 DUP4 AND SWAP5 POP PUSH2 0x100 SWAP1 SWAP3 DIV SWAP1 SWAP2 AND SWAP2 POP DUP7 JUMP JUMPDEST PUSH2 0x1551 PUSH2 0x270B JUMP JUMPDEST PUSH2 0x1559 PUSH2 0x2653 JUMP JUMPDEST PUSH0 DUP2 DUP2 MSTORE PUSH1 0x10 PUSH1 0x20 MSTORE PUSH1 0x40 SWAP1 KECCAK256 PUSH1 0x2 DUP2 ADD SLOAD PUSH2 0x15A9 JUMPI PUSH1 0x40 MLOAD PUSH3 0x461BCD PUSH1 0xE5 SHL DUP2 MSTORE PUSH1 0x20 PUSH1 0x4 DUP3 ADD MSTORE PUSH1 0xF PUSH1 0x24 DUP3 ADD MSTORE PUSH15 0x141BDBDB081B9BDD08199A5B1B1959 PUSH1 0x8A SHL PUSH1 0x44 DUP3 ADD MSTORE PUSH1 0x64 ADD PUSH2 0x8D9 JUMP JUMPDEST PUSH1 0x3 DUP2 ADD SLOAD PUSH2 0x100 SWAP1 DIV PUSH1 0xFF AND ISZERO PUSH2 0x15F6 JUMPI PUSH1 0x40 MLOAD PUSH3 0x461BCD PUSH1 0xE5 SHL DUP2 MSTORE PUSH1 0x20 PUSH1 0x4 DUP3 ADD MSTORE PUSH1 0x10 PUSH1 0x24 DUP3 ADD MSTORE PUSH16 0x105B1C9958591E481C185A59081BDD5D PUSH1 0x82 SHL PUSH1 0x44 DUP3 ADD MSTORE PUSH1 0x64 ADD PUSH2 0x8D9 JUMP JUMPDEST PUSH0 PUSH1 0x12 SLOAD PUSH1 0x18 SLOAD PUSH1 0x19 SLOAD PUSH2 0x160A SWAP2 SWAP1 PUSH2 0x2CAB JUMP JUMPDEST PUSH2 0x1615 SWAP1 PUSH1 0x64 PUSH2 0x2CD9 JUMP JUMPDEST PUSH2 0x161F SWAP2 SWAP1 PUSH2 0x2D9F JUMP JUMPDEST SWAP1 POP PUSH1 0x3C DUP2 LT ISZERO PUSH2 0x167E JUMPI PUSH1 0x40 MLOAD PUSH3 0x461BCD PUSH1 0xE5 SHL DUP2 MSTORE PUSH1 0x20 PUSH1 0x4 DUP3 ADD MSTORE PUSH1 0x24 DUP1 DUP3 ADD MSTORE PUSH32 0x496E73756666696369656E7420616476616E63652066756E647320286D696E20 PUSH1 0x44 DUP3 ADD MSTORE PUSH4 0x36302529 PUSH1 0xE0 SHL PUSH1 0x64 DUP3 ADD MSTORE PUSH1 0x84 ADD PUSH2 0x8D9 JUMP JUMPDEST PUSH0 JUMPDEST PUSH0 DUP5 DUP2 MSTORE PUSH1 0x13 PUSH1 0x20 MSTORE PUSH1 0x40 SWAP1 KECCAK256 SLOAD DUP2 LT ISZERO PUSH2 0x1862 JUMPI PUSH0 DUP5 DUP2 MSTORE PUSH1 0x13 PUSH1 0x20 MSTORE PUSH1 0x40 DUP2 KECCAK256 DUP1 SLOAD DUP4 SWAP1 DUP2 LT PUSH2 0x16B4 JUMPI PUSH2 0x16B4 PUSH2 0x2D6D JUMP JUMPDEST PUSH0 SWAP2 DUP3 MSTORE PUSH1 0x20 SWAP1 SWAP2 KECCAK256 PUSH1 0x6 SWAP1 SWAP2 MUL ADD PUSH1 0x5 DUP2 ADD SLOAD SWAP1 SWAP2 POP PUSH1 0xFF AND DUP1 PUSH2 0x16DB JUMPI POP PUSH1 0x2 DUP2 ADD SLOAD ISZERO JUMPDEST ISZERO PUSH2 0x16E6 JUMPI POP PUSH2 0x1852 JUMP JUMPDEST PUSH1 0x2 DUP2 ADD SLOAD PUSH1 0x3 DUP3 ADD SLOAD PUSH0 SWAP1 PUSH1 0x64 SWAP1 PUSH2 0x16FF SWAP1 DUP5 PUSH2 0x2CD9 JUMP JUMPDEST PUSH2 0x1709 SWAP2 SWAP1 PUSH2 0x2D9F JUMP JUMPDEST SWAP1 POP PUSH0 PUSH2 0x1716 DUP3 DUP5 PUSH2 0x2CAB JUMP JUMPDEST SWAP1 POP PUSH0 PUSH1 0x64 PUSH2 0x1726 DUP4 PUSH1 0x2 PUSH2 0x2CD9 JUMP JUMPDEST PUSH2 0x1730 SWAP2 SWAP1 PUSH2 0x2D9F JUMP JUMPDEST SWAP1 POP DUP1 PUSH1 0x18 PUSH0 DUP3 DUP3 SLOAD PUSH2 0x1743 SWAP2 SWAP1 PUSH2 0x2CAB JUMP JUMPDEST SWAP1 SWAP2 SSTORE POP PUSH2 0x1753 SWAP1 POP DUP2 DUP4 PUSH2 0x2CF0 JUMP JUMPDEST PUSH1 0x1 DUP7 ADD SLOAD PUSH1 0x1 PUSH1 0x1 PUSH1 0xA0 SHL SUB AND PUSH0 SWAP1 DUP2 MSTORE PUSH1 0x15 PUSH1 0x20 MSTORE PUSH1 0x40 DUP2 KECCAK256 DUP1 SLOAD SWAP1 SWAP2 SWAP1 PUSH2 0x177E SWAP1 DUP5 SWAP1 PUSH2 0x2CAB JUMP JUMPDEST SWAP1 SWAP2 SSTORE POP POP PUSH1 0x5 DUP6 ADD DUP1 SLOAD PUSH1 0xFF NOT AND PUSH1 0x1 SWAP1 DUP2 OR SWAP1 SWAP2 SSTORE DUP6 ADD SLOAD DUP6 SLOAD PUSH1 0x1 PUSH1 0x1 PUSH1 0xA0 SHL SUB SWAP1 SWAP2 AND SWAP1 PUSH32 0x807C2C73192F2D30961A7D01EC8DC57115A4CD9F9BD0434331BEACB916C6A8CC SWAP1 DUP12 SWAP1 PUSH2 0x17D4 DUP6 DUP8 PUSH2 0x2CF0 JUMP JUMPDEST PUSH1 0x40 DUP1 MLOAD SWAP4 DUP5 MSTORE PUSH1 0x20 DUP5 ADD SWAP3 SWAP1 SWAP3 MSTORE SWAP1 DUP3 ADD MSTORE PUSH1 0x60 ADD PUSH1 0x40 MLOAD DUP1 SWAP2 SUB SWAP1 LOG2 PUSH1 0x1 DUP6 DUP2 ADD SLOAD PUSH1 0x1 PUSH1 0x1 PUSH1 0xA0 SHL SUB AND PUSH0 DUP2 DUP2 MSTORE PUSH1 0x15 PUSH1 0x20 SWAP1 DUP2 MSTORE PUSH1 0x40 SWAP2 DUP3 SWAP1 KECCAK256 SLOAD DUP3 MLOAD SWAP1 DUP2 MSTORE SWAP1 DUP2 ADD SWAP4 SWAP1 SWAP4 MSTORE SWAP1 SWAP2 PUSH32 0x3DD4FDA5FFEB4C7E45847FA82B4227A234840395A1170E170BBA47DB13FBFFF8 SWAP2 ADD PUSH1 0x40 MLOAD DUP1 SWAP2 SUB SWAP1 LOG2 POP POP POP POP POP JUMPDEST PUSH2 0x185B DUP2 PUSH2 0x2DBE JUMP JUMPDEST SWAP1 POP PUSH2 0x1680 JUMP JUMPDEST POP POP PUSH1 0x3 ADD DUP1 SLOAD PUSH2 0xFFFF NOT AND PUSH2 0x100 OR SWAP1 SSTORE PUSH2 0x187D PUSH1 0x1 DUP1 SSTORE JUMP JUMPDEST POP JUMP JUMPDEST PUSH1 0x17 SLOAD PUSH1 0xFF AND ISZERO PUSH2 0x18CC JUMPI PUSH1 0x40 MLOAD PUSH3 0x461BCD PUSH1 0xE5 SHL DUP2 MSTORE PUSH1 0x20 PUSH1 0x4 DUP3 ADD MSTORE PUSH1 0x16 PUSH1 0x24 DUP3 ADD MSTORE PUSH22 0x456D657267656E63793A204E6F206465706F73697473 PUSH1 0x50 SHL PUSH1 0x44 DUP3 ADD MSTORE PUSH1 0x64 ADD PUSH2 0x8D9 JUMP JUMPDEST PUSH2 0x18D4 PUSH2 0x2653 JUMP JUMPDEST CALLER PUSH0 SWAP1 DUP2 MSTORE PUSH1 0x14 PUSH1 0x20 MSTORE PUSH1 0x40 SWAP1 KECCAK256 PUSH1 0xC ADD SLOAD PUSH1 0xFF AND PUSH2 0x1926 JUMPI PUSH1 0x40 MLOAD PUSH3 0x461BCD PUSH1 0xE5 SHL DUP2 MSTORE PUSH1 0x20 PUSH1 0x4 DUP3 ADD MSTORE PUSH1 0xE PUSH1 0x24 DUP3 ADD MSTORE PUSH14 0x139BDD081C9959DA5CDD195C9959 PUSH1 0x92 SHL PUSH1 0x44 DUP3 ADD MSTORE PUSH1 0x64 ADD PUSH2 0x8D9 JUMP JUMPDEST CALLER PUSH0 SWAP1 DUP2 MSTORE PUSH1 0x16 PUSH1 0x20 MSTORE PUSH1 0x40 SWAP1 KECCAK256 SLOAD PUSH1 0xFF AND ISZERO PUSH2 0x1973 JUMPI PUSH1 0x40 MLOAD PUSH3 0x461BCD PUSH1 0xE5 SHL DUP2 MSTORE PUSH1 0x20 PUSH1 0x4 DUP3 ADD MSTORE PUSH1 0xB PUSH1 0x24 DUP3 ADD MSTORE PUSH11 0x109B1858DADB1A5CDD1959 PUSH1 0xAA SHL PUSH1 0x44 DUP3 ADD MSTORE PUSH1 0x64 ADD PUSH2 0x8D9 JUMP JUMPDEST PUSH0 DUP2 PUSH2 0x198A JUMPI PUSH1 0x9 SLOAD PUSH1 0x1 PUSH1 0x1 PUSH1 0xA0 SHL SUB AND PUSH2 0x1997 JUMP JUMPDEST PUSH1 0xA SLOAD PUSH1 0x1 PUSH1 0x1 PUSH1 0xA0 SHL SUB AND JUMPDEST PUSH1 0x1 PUSH1 0x1 PUSH1 0xA0 SHL SUB DUP2 AND PUSH0 SWAP1 DUP2 MSTORE PUSH1 0xD PUSH1 0x20 MSTORE PUSH1 0x40 SWAP1 KECCAK256 SLOAD SWAP1 SWAP2 POP PUSH1 0xFF AND PUSH2 0x19F9 JUMPI PUSH1 0x40 MLOAD PUSH3 0x461BCD PUSH1 0xE5 SHL DUP2 MSTORE PUSH1 0x20 PUSH1 0x4 DUP3 ADD MSTORE PUSH1 0x15 PUSH1 0x24 DUP3 ADD MSTORE PUSH21 0x151BDAD95B881B9BDD081DDA1A5D195B1A5CDD1959 PUSH1 0x5A SHL PUSH1 0x44 DUP3 ADD MSTORE PUSH1 0x64 ADD PUSH2 0x8D9 JUMP JUMPDEST PUSH0 DUP3 ISZERO PUSH2 0x1B2E JUMPI PUSH8 0x98A7D9B8314C0000 DUP5 LT ISZERO PUSH2 0x1A51 JUMPI PUSH1 0x40 MLOAD PUSH3 0x461BCD PUSH1 0xE5 SHL DUP2 MSTORE PUSH1 0x20 PUSH1 0x4 DUP3 ADD MSTORE PUSH1 0x16 PUSH1 0x24 DUP3 ADD MSTORE PUSH22 0x42656C6F77206D696E207374616B6520285553443129 PUSH1 0x50 SHL PUSH1 0x44 DUP3 ADD MSTORE PUSH1 0x64 ADD PUSH2 0x8D9 JUMP JUMPDEST PUSH1 0xA SLOAD PUSH1 0x40 MLOAD PUSH4 0x70A08231 PUSH1 0xE0 SHL DUP2 MSTORE CALLER PUSH1 0x4 DUP3 ADD MSTORE DUP6 SWAP2 PUSH1 0x1 PUSH1 0x1 PUSH1 0xA0 SHL SUB AND SWAP1 PUSH4 0x70A08231 SWAP1 PUSH1 0x24 ADD PUSH1 0x20 PUSH1 0x40 MLOAD DUP1 DUP4 SUB DUP2 DUP7 GAS STATICCALL ISZERO DUP1 ISZERO PUSH2 0x1A97 JUMPI RETURNDATASIZE PUSH0 DUP1 RETURNDATACOPY RETURNDATASIZE PUSH0 REVERT JUMPDEST POP POP POP POP PUSH1 0x40 MLOAD RETURNDATASIZE PUSH1 0x1F NOT PUSH1 0x1F DUP3 ADD AND DUP3 ADD DUP1 PUSH1 0x40 MSTORE POP DUP2 ADD SWAP1 PUSH2 0x1ABB SWAP2 SWAP1 PUSH2 0x2D3B JUMP JUMPDEST LT ISZERO PUSH2 0x1AFD JUMPI PUSH1 0x40 MLOAD PUSH3 0x461BCD PUSH1 0xE5 SHL DUP2 MSTORE PUSH1 0x20 PUSH1 0x4 DUP3 ADD MSTORE PUSH1 0x11 PUSH1 0x24 DUP3 ADD MSTORE PUSH17 0x496E73756666696369656E742055534431 PUSH1 0x78 SHL PUSH1 0x44 DUP3 ADD MSTORE PUSH1 0x64 ADD PUSH2 0x8D9 JUMP JUMPDEST PUSH1 0xA SLOAD PUSH2 0x1B15 SWAP1 PUSH1 0x1 PUSH1 0x1 PUSH1 0xA0 SHL SUB AND CALLER ADDRESS DUP8 PUSH2 0x2786 JUMP JUMPDEST PUSH2 0x1B27 PUSH8 0x98A7D9B8314C0000 DUP6 PUSH2 0x2D9F JUMP JUMPDEST SWAP1 POP PUSH2 0x1C5A JUMP JUMPDEST PUSH9 0x3635C9ADC5DEA00000 DUP5 LT ISZERO PUSH2 0x1B80 JUMPI PUSH1 0x40 MLOAD PUSH3 0x461BCD PUSH1 0xE5 SHL DUP2 MSTORE PUSH1 0x20 PUSH1 0x4 DUP3 ADD MSTORE PUSH1 0x16 PUSH1 0x24 DUP3 ADD MSTORE PUSH22 0x42656C6F77206D696E207374616B652028494E523129 PUSH1 0x50 SHL PUSH1 0x44 DUP3 ADD MSTORE PUSH1 0x64 ADD PUSH2 0x8D9 JUMP JUMPDEST PUSH1 0x9 SLOAD PUSH1 0x40 MLOAD PUSH4 0x70A08231 PUSH1 0xE0 SHL DUP2 MSTORE CALLER PUSH1 0x4 DUP3 ADD MSTORE DUP6 SWAP2 PUSH1 0x1 PUSH1 0x1 PUSH1 0xA0 SHL SUB AND SWAP1 PUSH4 0x70A08231 SWAP1 PUSH1 0x24 ADD PUSH1 0x20 PUSH1 0x40 MLOAD DUP1 DUP4 SUB DUP2 DUP7 GAS STATICCALL ISZERO DUP1 ISZERO PUSH2 0x1BC6 JUMPI RETURNDATASIZE PUSH0 DUP1 RETURNDATACOPY RETURNDATASIZE PUSH0 REVERT JUMPDEST POP POP POP POP PUSH1 0x40 MLOAD RETURNDATASIZE PUSH1 0x1F NOT PUSH1 0x1F DUP3 ADD AND DUP3 ADD DUP1 PUSH1 0x40 MSTORE POP DUP2 ADD SWAP1 PUSH2 0x1BEA SWAP2 SWAP1 PUSH2 0x2D3B JUMP JUMPDEST LT ISZERO PUSH2 0x1C2C JUMPI PUSH1 0x40 MLOAD PUSH3 0x461BCD PUSH1 0xE5 SHL DUP2 MSTORE PUSH1 0x20 PUSH1 0x4 DUP3 ADD MSTORE PUSH1 0x11 PUSH1 0x24 DUP3 ADD MSTORE PUSH17 0x496E73756666696369656E7420494E5231 PUSH1 0x78 SHL PUSH1 0x44 DUP3 ADD MSTORE PUSH1 0x64 ADD PUSH2 0x8D9 JUMP JUMPDEST PUSH1 0x9 SLOAD PUSH2 0x1C44 SWAP1 PUSH1 0x1 PUSH1 0x1 PUSH1 0xA0 SHL SUB AND CALLER ADDRESS DUP8 PUSH2 0x2786 JUMP JUMPDEST PUSH2 0x1C57 PUSH9 0x3635C9ADC5DEA00000 DUP6 PUSH2 0x2D9F JUMP JUMPDEST SWAP1 POP JUMPDEST PUSH0 DUP2 GT PUSH2 0x1C9E JUMPI PUSH1 0x40 MLOAD PUSH3 0x461BCD PUSH1 0xE5 SHL DUP2 MSTORE PUSH1 0x20 PUSH1 0x4 DUP3 ADD MSTORE PUSH1 0x12 PUSH1 0x24 DUP3 ADD MSTORE PUSH18 0x135A5B9A5B5D5B481A5CC80C481A5B99DBDD PUSH1 0x72 SHL PUSH1 0x44 DUP3 ADD MSTORE PUSH1 0x64 ADD PUSH2 0x8D9 JUMP JUMPDEST PUSH0 DUP6 DUP2 MSTORE PUSH1 0x10 PUSH1 0x20 MSTORE PUSH1 0x40 SWAP1 KECCAK256 PUSH1 0x3 DUP2 ADD SLOAD PUSH1 0xFF AND PUSH2 0x1CF1 JUMPI PUSH1 0x40 MLOAD PUSH3 0x461BCD PUSH1 0xE5 SHL DUP2 MSTORE PUSH1 0x20 PUSH1 0x4 DUP3 ADD MSTORE PUSH1 0xF PUSH1 0x24 DUP3 ADD MSTORE PUSH15 0x506F6F6C206E6F7420616374697665 PUSH1 0x88 SHL PUSH1 0x44 DUP3 ADD MSTORE PUSH1 0x64 ADD PUSH2 0x8D9 JUMP JUMPDEST PUSH1 0x64 DUP3 DUP3 PUSH1 0x2 ADD SLOAD PUSH2 0x1D03 SWAP2 SWAP1 PUSH2 0x2CAB JUMP JUMPDEST GT ISZERO PUSH2 0x1D3D JUMPI PUSH1 0x40 MLOAD PUSH3 0x461BCD PUSH1 0xE5 SHL DUP2 MSTORE PUSH1 0x20 PUSH1 0x4 DUP3 ADD MSTORE PUSH1 0x9 PUSH1 0x24 DUP3 ADD MSTORE PUSH9 0x141BDBDB08199D5B1B PUSH1 0xBA SHL PUSH1 0x44 DUP3 ADD MSTORE PUSH1 0x64 ADD PUSH2 0x8D9 JUMP JUMPDEST CALLER PUSH0 SWAP1 DUP2 MSTORE PUSH1 0x14 PUSH1 0x20 MSTORE PUSH1 0x40 DUP2 KECCAK256 PUSH1 0x9 ADD DUP1 SLOAD DUP8 SWAP3 SWAP1 PUSH2 0x1D5E SWAP1 DUP5 SWAP1 PUSH2 0x2CAB JUMP JUMPDEST SWAP3 POP POP DUP2 SWAP1 SSTORE POP DUP5 DUP2 PUSH1 0x4 ADD PUSH0 DUP3 DUP3 SLOAD PUSH2 0x1D78 SWAP2 SWAP1 PUSH2 0x2CAB JUMP JUMPDEST SWAP3 POP POP DUP2 SWAP1 SSTORE POP DUP2 DUP2 PUSH1 0x2 ADD PUSH0 DUP3 DUP3 SLOAD PUSH2 0x1D92 SWAP2 SWAP1 PUSH2 0x2CAB JUMP JUMPDEST SWAP3 POP POP DUP2 SWAP1 SSTORE POP DUP5 PUSH1 0x12 PUSH0 DUP3 DUP3 SLOAD PUSH2 0x1DAA SWAP2 SWAP1 PUSH2 0x2CAB JUMP JUMPDEST SWAP3 POP POP DUP2 SWAP1 SSTORE POP PUSH1 0x13 PUSH0 DUP8 DUP2 MSTORE PUSH1 0x20 ADD SWAP1 DUP2 MSTORE PUSH1 0x20 ADD PUSH0 KECCAK256 PUSH1 0x40 MLOAD DUP1 PUSH1 0xC0 ADD PUSH1 0x40 MSTORE DUP1 DUP4 PUSH1 0x2 ADD SLOAD DUP2 MSTORE PUSH1 0x20 ADD CALLER PUSH1 0x1 PUSH1 0x1 PUSH1 0xA0 SHL SUB AND DUP2 MSTORE PUSH1 0x20 ADD DUP8 DUP2 MSTORE PUSH1 0x20 ADD PUSH1 0xA DUP2 MSTORE PUSH1 0x20 ADD DUP7 PUSH2 0x1E1A JUMPI PUSH1 0x40 MLOAD DUP1 PUSH1 0x40 ADD PUSH1 0x40 MSTORE DUP1 PUSH1 0x4 DUP2 MSTORE PUSH1 0x20 ADD PUSH4 0x494E5231 PUSH1 0xE0 SHL DUP2 MSTORE POP PUSH2 0x1E38 JUMP JUMPDEST PUSH1 0x40 MLOAD DUP1 PUSH1 0x40 ADD PUSH1 0x40 MSTORE DUP1 PUSH1 0x4 DUP2 MSTORE PUSH1 0x20 ADD PUSH4 0x55534431 PUSH1 0xE0 SHL DUP2 MSTORE POP JUMPDEST DUP2 MSTORE PUSH0 PUSH1 0x20 SWAP2 DUP3 ADD DUP2 SWAP1 MSTORE DUP4 SLOAD PUSH1 0x1 DUP1 DUP3 ADD DUP7 SSTORE SWAP5 DUP3 MSTORE SWAP1 DUP3 SWAP1 KECCAK256 DUP4 MLOAD PUSH1 0x6 SWAP1 SWAP3 MUL ADD SWAP1 DUP2 SSTORE SWAP1 DUP3 ADD MLOAD SWAP3 DUP2 ADD DUP1 SLOAD PUSH1 0x1 PUSH1 0x1 PUSH1 0xA0 SHL SUB NOT AND PUSH1 0x1 PUSH1 0x1 PUSH1 0xA0 SHL SUB SWAP1 SWAP5 AND SWAP4 SWAP1 SWAP4 OR SWAP1 SWAP3 SSTORE PUSH1 0x40 DUP2 ADD MLOAD PUSH1 0x2 DUP4 ADD SSTORE PUSH1 0x60 DUP2 ADD MLOAD PUSH1 0x3 DUP4 ADD SSTORE PUSH1 0x80 DUP2 ADD MLOAD SWAP1 SWAP2 SWAP1 PUSH1 0x4 DUP3 ADD SWAP1 PUSH2 0x1EAE SWAP1 DUP3 PUSH2 0x2E23 JUMP JUMPDEST POP PUSH1 0xA0 SWAP2 SWAP1 SWAP2 ADD MLOAD PUSH1 0x5 SWAP2 DUP3 ADD DUP1 SLOAD PUSH1 0xFF NOT AND SWAP2 ISZERO ISZERO SWAP2 SWAP1 SWAP2 OR SWAP1 SSTORE PUSH0 SWAP1 PUSH1 0x64 SWAP1 PUSH2 0x1EDA SWAP1 DUP9 SWAP1 PUSH2 0x2CD9 JUMP JUMPDEST PUSH2 0x1EE4 SWAP2 SWAP1 PUSH2 0x2D9F JUMP JUMPDEST SWAP1 POP PUSH0 PUSH1 0x64 PUSH2 0x1EF4 DUP9 PUSH1 0x5F PUSH2 0x2CD9 JUMP JUMPDEST PUSH2 0x1EFE SWAP2 SWAP1 PUSH2 0x2D9F JUMP JUMPDEST SWAP1 POP DUP2 PUSH1 0x18 PUSH0 DUP3 DUP3 SLOAD PUSH2 0x1F11 SWAP2 SWAP1 PUSH2 0x2CAB JUMP JUMPDEST SWAP3 POP POP DUP2 SWAP1 SSTORE POP DUP1 PUSH1 0x19 PUSH0 DUP3 DUP3 SLOAD PUSH2 0x1F29 SWAP2 SWAP1 PUSH2 0x2CAB JUMP JUMPDEST SWAP1 SWAP2 SSTORE POP POP PUSH1 0x2 DUP4 ADD SLOAD CALLER SWAP1 PUSH32 0x8A761C59F3B512242E1B88C9999CA511DEA220C5354703AFE7BDD82375FB6761 SWAP1 DUP11 SWAP1 DUP8 DUP11 PUSH2 0x1F81 JUMPI PUSH1 0x40 MLOAD DUP1 PUSH1 0x40 ADD PUSH1 0x40 MSTORE DUP1 PUSH1 0x4 DUP2 MSTORE PUSH1 0x20 ADD PUSH4 0x494E5231 PUSH1 0xE0 SHL DUP2 MSTORE POP PUSH2 0x1F9F JUMP JUMPDEST PUSH1 0x40 MLOAD DUP1 PUSH1 0x40 ADD PUSH1 0x40 MSTORE DUP1 PUSH1 0x4 DUP2 MSTORE PUSH1 0x20 ADD PUSH4 0x55534431 PUSH1 0xE0 SHL DUP2 MSTORE POP JUMPDEST PUSH1 0x40 MLOAD PUSH2 0x1FAF SWAP5 SWAP4 SWAP3 SWAP2 SWAP1 PUSH2 0x2EDF JUMP JUMPDEST PUSH1 0x40 MLOAD DUP1 SWAP2 SUB SWAP1 LOG2 PUSH2 0x1FC1 CALLER DUP9 PUSH2 0x27C5 JUMP JUMPDEST PUSH1 0x64 DUP4 PUSH1 0x2 ADD SLOAD EQ DUP1 ISZERO PUSH2 0x1FD8 JUMPI POP PUSH4 0x3B9ACA00 DUP9 LT JUMPDEST ISZERO PUSH2 0x21E0 JUMPI PUSH0 DUP9 DUP2 MSTORE PUSH1 0x10 PUSH1 0x20 MSTORE PUSH1 0x40 SWAP1 DUP2 SWAP1 KECCAK256 PUSH1 0x3 DUP2 ADD DUP1 SLOAD PUSH1 0xFF NOT AND SWAP1 SSTORE PUSH1 0x4 ADD SLOAD SWAP1 MLOAD DUP10 SWAP2 PUSH32 0xAF7FAF29A251EFA1BCF2B47DAB1A72BAA0906A2E4FF957E6CB6D4F7C642161AB SWAP2 PUSH2 0x202E SWAP2 DUP2 MSTORE PUSH1 0x20 ADD SWAP1 JUMP JUMPDEST PUSH1 0x40 MLOAD DUP1 SWAP2 SUB SWAP1 LOG2 PUSH0 PUSH1 0x11 SLOAD PUSH1 0x1 PUSH2 0x2046 SWAP2 SWAP1 PUSH2 0x2CAB JUMP JUMPDEST PUSH0 DUP2 DUP2 MSTORE PUSH1 0x10 PUSH1 0x20 MSTORE PUSH1 0x40 SWAP1 KECCAK256 SLOAD SWAP1 SWAP2 POP ISZERO PUSH2 0x20A4 JUMPI PUSH1 0x40 MLOAD PUSH3 0x461BCD PUSH1 0xE5 SHL DUP2 MSTORE PUSH1 0x20 PUSH1 0x4 DUP3 ADD MSTORE PUSH1 0x18 PUSH1 0x24 DUP3 ADD MSTORE PUSH32 0x4E65787420706F6F6C20616C7265616479206578697374730000000000000000 PUSH1 0x44 DUP3 ADD MSTORE PUSH1 0x64 ADD PUSH2 0x8D9 JUMP JUMPDEST PUSH1 0x40 MLOAD DUP1 PUSH1 0xC0 ADD PUSH1 0x40 MSTORE DUP1 DUP3 DUP2 MSTORE PUSH1 0x20 ADD PUSH1 0x9 DUP4 GT ISZERO PUSH2 0x20E3 JUMPI PUSH1 0x40 MLOAD DUP1 PUSH1 0x40 ADD PUSH1 0x40 MSTORE DUP1 PUSH1 0x7 DUP2 MSTORE PUSH1 0x20 ADD PUSH7 0x4C6F7474657279 PUSH1 0xC8 SHL DUP2 MSTORE POP PUSH2 0x2105 JUMP JUMPDEST PUSH1 0x40 MLOAD DUP1 PUSH1 0x40 ADD PUSH1 0x40 MSTORE DUP1 PUSH1 0x8 DUP2 MSTORE PUSH1 0x20 ADD PUSH8 0x14DD185B99185C99 PUSH1 0xC2 SHL DUP2 MSTORE POP JUMPDEST DUP2 MSTORE PUSH0 PUSH1 0x20 DUP1 DUP4 ADD DUP3 SWAP1 MSTORE PUSH1 0x1 PUSH1 0x40 DUP1 DUP6 ADD DUP3 SWAP1 MSTORE PUSH1 0x60 DUP6 ADD DUP5 SWAP1 MSTORE PUSH1 0x80 SWAP1 SWAP5 ADD DUP4 SWAP1 MSTORE DUP6 DUP4 MSTORE PUSH1 0x10 DUP3 MSTORE SWAP3 SWAP1 SWAP2 KECCAK256 DUP4 MLOAD DUP2 SSTORE SWAP1 DUP4 ADD MLOAD SWAP1 SWAP2 DUP3 ADD SWAP1 PUSH2 0x214B SWAP1 DUP3 PUSH2 0x2E23 JUMP JUMPDEST POP PUSH1 0x40 DUP3 DUP2 ADD MLOAD PUSH1 0x2 DUP4 ADD SSTORE PUSH1 0x60 DUP4 ADD MLOAD PUSH1 0x3 DUP4 ADD DUP1 SLOAD PUSH1 0x80 DUP7 ADD MLOAD ISZERO ISZERO PUSH2 0x100 MUL PUSH2 0xFF00 NOT SWAP4 ISZERO ISZERO SWAP4 SWAP1 SWAP4 AND PUSH2 0xFFFF NOT SWAP1 SWAP2 AND OR SWAP2 SWAP1 SWAP2 OR SWAP1 SSTORE PUSH1 0xA0 SWAP1 SWAP3 ADD MLOAD PUSH1 0x4 SWAP1 SWAP2 ADD SSTORE PUSH1 0x11 DUP3 SWAP1 SSTORE PUSH0 DUP3 DUP2 MSTORE PUSH1 0x10 PUSH1 0x20 MSTORE DUP2 SWAP1 KECCAK256 SWAP1 MLOAD DUP3 SWAP2 PUSH32 0x150CB369F834B70A4F343956659B1F84CD37D44352B9A76FF77AC59552EF4AA0 SWAP2 PUSH2 0x21D6 SWAP2 PUSH1 0x1 ADD SWAP1 PUSH2 0x2F0D JUMP JUMPDEST PUSH1 0x40 MLOAD DUP1 SWAP2 SUB SWAP1 LOG2 POP JUMPDEST POP POP POP POP POP PUSH2 0x1098 PUSH1 0x1 DUP1 SSTORE JUMP JUMPDEST PUSH2 0x21F6 PUSH2 0x270B JUMP JUMPDEST PUSH0 DUP3 GT DUP1 ISZERO PUSH2 0x2209 JUMPI POP PUSH4 0x3B9ACA00 DUP3 GT ISZERO JUMPDEST PUSH2 0x224B JUMPI PUSH1 0x40 MLOAD PUSH3 0x461BCD PUSH1 0xE5 SHL DUP2 MSTORE PUSH1 0x20 PUSH1 0x4 DUP3 ADD MSTORE PUSH1 0x13 PUSH1 0x24 DUP3 ADD MSTORE PUSH19 0x506F6F6C4964206F7574206F662072616E6765 PUSH1 0x68 SHL PUSH1 0x44 DUP3 ADD MSTORE PUSH1 0x64 ADD PUSH2 0x8D9 JUMP JUMPDEST PUSH0 DUP2 MLOAD GT PUSH2 0x228F JUMPI PUSH1 0x40 MLOAD PUSH3 0x461BCD PUSH1 0xE5 SHL DUP2 MSTORE PUSH1 0x20 PUSH1 0x4 DUP3 ADD MSTORE PUSH1 0x11 PUSH1 0x24 DUP3 ADD MSTORE PUSH17 0x1C1BDBDB151E5C19481C995C5D5A5C9959 PUSH1 0x7A SHL PUSH1 0x44 DUP3 ADD MSTORE PUSH1 0x64 ADD PUSH2 0x8D9 JUMP JUMPDEST PUSH0 DUP3 DUP2 MSTORE PUSH1 0x10 PUSH1 0x20 MSTORE PUSH1 0x40 SWAP1 KECCAK256 SLOAD ISZERO PUSH2 0x22E0 JUMPI PUSH1 0x40 MLOAD PUSH3 0x461BCD PUSH1 0xE5 SHL DUP2 MSTORE PUSH1 0x20 PUSH1 0x4 DUP3 ADD MSTORE PUSH1 0x13 PUSH1 0x24 DUP3 ADD MSTORE PUSH19 0x506F6F6C20616C726561647920657869737473 PUSH1 0x68 SHL PUSH1 0x44 DUP3 ADD MSTORE PUSH1 0x64 ADD PUSH2 0x8D9 JUMP JUMPDEST PUSH1 0x40 DUP1 MLOAD PUSH1 0xC0 DUP2 ADD DUP3 MSTORE DUP4 DUP2 MSTORE PUSH1 0x20 DUP1 DUP3 ADD DUP5 DUP2 MSTORE PUSH0 DUP4 DUP6 ADD DUP2 SWAP1 MSTORE PUSH1 0x1 PUSH1 0x60 DUP6 ADD DUP2 SWAP1 MSTORE PUSH1 0x80 DUP6 ADD DUP3 SWAP1 MSTORE PUSH1 0xA0 DUP6 ADD DUP3 SWAP1 MSTORE DUP8 DUP3 MSTORE PUSH1 0x10 SWAP1 SWAP4 MSTORE SWAP4 SWAP1 SWAP4 KECCAK256 DUP3 MLOAD DUP2 SSTORE SWAP3 MLOAD SWAP2 SWAP3 SWAP2 SWAP1 DUP3 ADD SWAP1 PUSH2 0x2336 SWAP1 DUP3 PUSH2 0x2E23 JUMP JUMPDEST POP PUSH1 0x40 DUP3 ADD MLOAD PUSH1 0x2 DUP3 ADD SSTORE PUSH1 0x60 DUP3 ADD MLOAD PUSH1 0x3 DUP3 ADD DUP1 SLOAD PUSH1 0x80 DUP6 ADD MLOAD ISZERO ISZERO PUSH2 0x100 MUL PUSH2 0xFF00 NOT SWAP4 ISZERO ISZERO SWAP4 SWAP1 SWAP4 AND PUSH2 0xFFFF NOT SWAP1 SWAP2 AND OR SWAP2 SWAP1 SWAP2 OR SWAP1 SSTORE PUSH1 0xA0 SWAP1 SWAP2 ADD MLOAD PUSH1 0x4 SWAP1 SWAP2 ADD SSTORE PUSH1 0x11 SLOAD DUP3 GT ISZERO PUSH2 0x238C JUMPI PUSH1 0x11 DUP3 SWAP1 SSTORE JUMPDEST DUP2 PUSH32 0x150CB369F834B70A4F343956659B1F84CD37D44352B9A76FF77AC59552EF4AA0 DUP3 PUSH1 0x40 MLOAD PUSH2 0x23BC SWAP2 SWAP1 PUSH2 0x2F92 JUMP JUMPDEST PUSH1 0x40 MLOAD DUP1 SWAP2 SUB SWAP1 LOG2 POP POP JUMP JUMPDEST PUSH2 0x23D0 PUSH2 0x2653 JUMP JUMPDEST CALLER PUSH0 SWAP1 DUP2 MSTORE PUSH1 0x15 PUSH1 0x20 MSTORE PUSH1 0x40 SWAP1 KECCAK256 SLOAD DUP1 PUSH2 0x2418 JUMPI PUSH1 0x40 MLOAD PUSH3 0x461BCD PUSH1 0xE5 SHL DUP2 MSTORE PUSH1 0x20 PUSH1 0x4 DUP3 ADD MSTORE PUSH1 0x9 PUSH1 0x24 DUP3 ADD MSTORE PUSH9 0x139BC81C185E5BDD5D PUSH1 0xBA SHL PUSH1 0x44 DUP3 ADD MSTORE PUSH1 0x64 ADD PUSH2 0x8D9 JUMP JUMPDEST CALLER PUSH0 SWAP1 DUP2 MSTORE PUSH1 0x15 PUSH1 0x20 MSTORE PUSH1 0x40 DUP1 DUP3 KECCAK256 SWAP2 SWAP1 SWAP2 SSTORE PUSH1 0x9 SLOAD SWAP1 MLOAD PUSH4 0x70A08231 PUSH1 0xE0 SHL DUP2 MSTORE ADDRESS PUSH1 0x4 DUP3 ADD MSTORE DUP3 SWAP2 PUSH1 0x1 PUSH1 0x1 PUSH1 0xA0 SHL SUB AND SWAP1 PUSH4 0x70A08231 SWAP1 PUSH1 0x24 ADD PUSH1 0x20 PUSH1 0x40 MLOAD DUP1 DUP4 SUB DUP2 DUP7 GAS STATICCALL ISZERO DUP1 ISZERO PUSH2 0x2470 JUMPI RETURNDATASIZE PUSH0 DUP1 RETURNDATACOPY RETURNDATASIZE PUSH0 REVERT JUMPDEST POP POP POP POP PUSH1 0x40 MLOAD RETURNDATASIZE PUSH1 0x1F NOT PUSH1 0x1F DUP3 ADD AND DUP3 ADD DUP1 PUSH1 0x40 MSTORE POP DUP2 ADD SWAP1 PUSH2 0x2494 SWAP2 SWAP1 PUSH2 0x2D3B JUMP JUMPDEST LT ISZERO PUSH2 0x24E2 JUMPI PUSH1 0x40 MLOAD PUSH3 0x461BCD PUSH1 0xE5 SHL DUP2 MSTORE PUSH1 0x20 PUSH1 0x4 DUP3 ADD MSTORE PUSH1 0x19 PUSH1 0x24 DUP3 ADD MSTORE PUSH32 0x496E73756666696369656E7420494E52312062616C616E636500000000000000 PUSH1 0x44 DUP3 ADD MSTORE PUSH1 0x64 ADD PUSH2 0x8D9 JUMP JUMPDEST PUSH1 0x9 SLOAD PUSH2 0x24F9 SWAP1 PUSH1 0x1 PUSH1 0x1 PUSH1 0xA0 SHL SUB AND CALLER DUP4 PUSH2 0x26AC JUMP JUMPDEST PUSH1 0x40 DUP1 MLOAD PUSH0 DUP1 DUP3 MSTORE PUSH1 0x20 DUP3 ADD MSTORE CALLER SWAP2 PUSH32 0x3DD4FDA5FFEB4C7E45847FA82B4227A234840395A1170E170BBA47DB13FBFFF8 SWAP2 ADD PUSH1 0x40 MLOAD DUP1 SWAP2 SUB SWAP1 LOG2 POP PUSH2 0xA6F PUSH1 0x1 DUP1 SSTORE JUMP JUMPDEST PUSH2 0x2545 PUSH2 0x270B JUMP JUMPDEST PUSH1 0x19 SLOAD DUP2 GT ISZERO PUSH2 0x2597 JUMPI PUSH1 0x40 MLOAD PUSH3 0x461BCD PUSH1 0xE5 SHL DUP2 MSTORE PUSH1 0x20 PUSH1 0x4 DUP3 ADD MSTORE PUSH1 0x1F PUSH1 0x24 DUP3 ADD MSTORE PUSH32 0x4E6F7420656E6F756768206F7065726174696F6E616C20747265617375727900 PUSH1 0x44 DUP3 ADD MSTORE PUSH1 0x64 ADD PUSH2 0x8D9 JUMP JUMPDEST DUP1 PUSH1 0x19 PUSH0 DUP3 DUP3 SLOAD PUSH2 0x25A8 SWAP2 SWAP1 PUSH2 0x2CF0 JUMP JUMPDEST SWAP1 SWAP2 SSTORE POP POP PUSH1 0x9 SLOAD PUSH2 0x25C4 SWAP1 PUSH1 0x1 PUSH1 0x1 PUSH1 0xA0 SHL SUB AND CALLER DUP4 PUSH2 0x26AC JUMP JUMPDEST PUSH1 0x40 DUP1 MLOAD DUP2 DUP2 MSTORE PUSH1 0xB SWAP2 DUP2 ADD SWAP2 SWAP1 SWAP2 MSTORE PUSH11 0x13DC195C985D1A5BDB985B PUSH1 0xAA SHL PUSH1 0x60 DUP3 ADD MSTORE PUSH1 0x20 DUP2 ADD DUP3 SWAP1 MSTORE PUSH32 0x32F91AF51D2A8BBEB2808FFA648F1C5072F1C1CCDB64B39D003F051B496CC984 SWAP1 PUSH1 0x80 ADD PUSH2 0xBA7 JUMP JUMPDEST PUSH2 0x2621 PUSH2 0x270B JUMP JUMPDEST PUSH1 0x1 PUSH1 0x1 PUSH1 0xA0 SHL SUB DUP2 AND PUSH2 0x264A JUMPI PUSH1 0x40 MLOAD PUSH4 0x1E4FBDF7 PUSH1 0xE0 SHL DUP2 MSTORE PUSH0 PUSH1 0x4 DUP3 ADD MSTORE PUSH1 0x24 ADD PUSH2 0x8D9 JUMP JUMPDEST PUSH2 0x187D DUP2 PUSH2 0x2737 JUMP JUMPDEST PUSH1 0x2 PUSH1 0x1 SLOAD SUB PUSH2 0x26A5 JUMPI PUSH1 0x40 MLOAD PUSH3 0x461BCD PUSH1 0xE5 SHL DUP2 MSTORE PUSH1 0x20 PUSH1 0x4 DUP3 ADD MSTORE PUSH1 0x1F PUSH1 0x24 DUP3 ADD MSTORE PUSH32 0x5265656E7472616E637947756172643A207265656E7472616E742063616C6C00 PUSH1 0x44 DUP3 ADD MSTORE PUSH1 0x64 ADD PUSH2 0x8D9 JUMP JUMPDEST PUSH1 0x2 PUSH1 0x1 SSTORE JUMP JUMPDEST PUSH1 0x40 MLOAD PUSH1 0x1 PUSH1 0x1 PUSH1 0xA0 SHL SUB DUP4 DUP2 AND PUSH1 0x24 DUP4 ADD MSTORE PUSH1 0x44 DUP3 ADD DUP4 SWAP1 MSTORE PUSH2 0x1098 SWAP2 DUP6 SWAP2 DUP3 AND SWAP1 PUSH4 0xA9059CBB SWAP1 PUSH1 0x64 ADD JUMPDEST PUSH1 0x40 MLOAD PUSH1 0x20 DUP2 DUP4 SUB SUB DUP2 MSTORE SWAP1 PUSH1 0x40 MSTORE SWAP2 POP PUSH1 0xE0 SHL PUSH1 0x20 DUP3 ADD DUP1 MLOAD PUSH1 0x1 PUSH1 0x1 PUSH1 0xE0 SHL SUB DUP4 DUP2 DUP4 AND OR DUP4 MSTORE POP POP POP POP PUSH2 0x2929 JUMP JUMPDEST PUSH0 SLOAD PUSH1 0x1 PUSH1 0x1 PUSH1 0xA0 SHL SUB AND CALLER EQ PUSH2 0xA6F JUMPI PUSH1 0x40 MLOAD PUSH4 0x118CDAA7 PUSH1 0xE0 SHL DUP2 MSTORE CALLER PUSH1 0x4 DUP3 ADD MSTORE PUSH1 0x24 ADD PUSH2 0x8D9 JUMP JUMPDEST PUSH0 DUP1 SLOAD PUSH1 0x1 PUSH1 0x1 PUSH1 0xA0 SHL SUB DUP4 DUP2 AND PUSH1 0x1 PUSH1 0x1 PUSH1 0xA0 SHL SUB NOT DUP4 AND DUP2 OR DUP5 SSTORE PUSH1 0x40 MLOAD SWAP2 SWAP1 SWAP3 AND SWAP3 DUP4 SWAP2 PUSH32 0x8BE0079C531659141344CD1FD0A4F28419497F9722A3DAAFE3B4186F6B6457E0 SWAP2 SWAP1 LOG3 POP POP JUMP JUMPDEST PUSH1 0x40 MLOAD PUSH1 0x1 PUSH1 0x1 PUSH1 0xA0 SHL SUB DUP5 DUP2 AND PUSH1 0x24 DUP4 ADD MSTORE DUP4 DUP2 AND PUSH1 0x44 DUP4 ADD MSTORE PUSH1 0x64 DUP3 ADD DUP4 SWAP1 MSTORE PUSH2 0x27BF SWAP2 DUP7 SWAP2 DUP3 AND SWAP1 PUSH4 0x23B872DD SWAP1 PUSH1 0x84 ADD PUSH2 0x26D9 JUMP JUMPDEST POP POP POP POP JUMP JUMPDEST PUSH0 JUMPDEST PUSH1 0x7 PUSH1 0xFF DUP3 AND LT ISZERO PUSH2 0x1098 JUMPI PUSH1 0x1 PUSH1 0x1 PUSH1 0xA0 SHL SUB DUP4 AND PUSH0 SWAP1 DUP2 MSTORE PUSH1 0x14 PUSH1 0x20 MSTORE PUSH1 0x40 DUP2 KECCAK256 PUSH1 0x1 ADD PUSH1 0xFF DUP4 AND PUSH1 0x7 DUP2 LT PUSH2 0x2801 JUMPI PUSH2 0x2801 PUSH2 0x2D6D JUMP JUMPDEST ADD SLOAD PUSH1 0x1 PUSH1 0x1 PUSH1 0xA0 SHL SUB AND SWAP1 POP DUP1 PUSH2 0x2819 JUMPI POP POP POP POP JUMP JUMPDEST PUSH0 PUSH2 0x2710 PUSH1 0x2 DUP5 PUSH1 0xFF AND PUSH1 0x7 DUP2 LT PUSH2 0x2833 JUMPI PUSH2 0x2833 PUSH2 0x2D6D JUMP JUMPDEST ADD SLOAD PUSH2 0x283F SWAP1 DUP7 PUSH2 0x2CD9 JUMP JUMPDEST PUSH2 0x2849 SWAP2 SWAP1 PUSH2 0x2D9F JUMP JUMPDEST PUSH1 0x1 PUSH1 0x1 PUSH1 0xA0 SHL SUB DUP4 AND PUSH0 SWAP1 DUP2 MSTORE PUSH1 0x14 PUSH1 0x20 MSTORE PUSH1 0x40 DUP2 KECCAK256 PUSH1 0xA ADD DUP1 SLOAD SWAP3 SWAP4 POP DUP4 SWAP3 SWAP1 SWAP2 SWAP1 PUSH2 0x2878 SWAP1 DUP5 SWAP1 PUSH2 0x2CAB JUMP JUMPDEST SWAP1 SWAP2 SSTORE POP POP PUSH1 0x1 PUSH1 0x1 PUSH1 0xA0 SHL SUB DUP3 AND PUSH0 DUP2 DUP2 MSTORE PUSH1 0x14 PUSH1 0x20 MSTORE PUSH1 0x40 SWAP1 KECCAK256 PUSH1 0xA ADD SLOAD PUSH32 0xDD8025B728F6881D55401EC3C5F58BAC7E135A199306892B83593F9BF4BFE23A SWAP1 PUSH2 0x28C3 DUP6 PUSH2 0x70F JUMP JUMPDEST PUSH1 0x1 PUSH1 0x1 PUSH1 0xA0 SHL SUB DUP7 AND PUSH0 SWAP1 DUP2 MSTORE PUSH1 0x14 PUSH1 0x20 MSTORE PUSH1 0x40 SWAP1 KECCAK256 PUSH1 0xB DUP2 ADD SLOAD PUSH1 0x9 SWAP1 SWAP2 ADD SLOAD PUSH2 0x28F1 SWAP1 PUSH1 0x3 SWAP1 PUSH2 0x2CD9 JUMP JUMPDEST PUSH1 0x40 DUP1 MLOAD SWAP5 DUP6 MSTORE PUSH1 0x20 DUP6 ADD SWAP4 SWAP1 SWAP4 MSTORE SWAP2 DUP4 ADD MSTORE PUSH1 0x60 DUP3 ADD MSTORE PUSH1 0x80 ADD PUSH1 0x40 MLOAD DUP1 SWAP2 SUB SWAP1 LOG2 POP POP DUP1 DUP1 PUSH2 0x2921 SWAP1 PUSH2 0x2D81 JUMP JUMPDEST SWAP2 POP POP PUSH2 0x27C7 JUMP JUMPDEST PUSH0 DUP1 PUSH1 0x20 PUSH0 DUP5 MLOAD PUSH1 0x20 DUP7 ADD PUSH0 DUP9 GAS CALL DUP1 PUSH2 0x2948 JUMPI PUSH1 0x40 MLOAD RETURNDATASIZE PUSH0 DUP3 RETURNDATACOPY RETURNDATASIZE DUP2 REVERT JUMPDEST POP POP PUSH0 MLOAD RETURNDATASIZE SWAP2 POP DUP2 ISZERO PUSH2 0x295F JUMPI DUP1 PUSH1 0x1 EQ ISZERO PUSH2 0x296C JUMP JUMPDEST PUSH1 0x1 PUSH1 0x1 PUSH1 0xA0 SHL SUB DUP5 AND EXTCODESIZE ISZERO JUMPDEST ISZERO PUSH2 0x27BF JUMPI PUSH1 0x40 MLOAD PUSH4 0x5274AFE7 PUSH1 0xE0 SHL DUP2 MSTORE PUSH1 0x1 PUSH1 0x1 PUSH1 0xA0 SHL SUB DUP6 AND PUSH1 0x4 DUP3 ADD MSTORE PUSH1 0x24 ADD PUSH2 0x8D9 JUMP JUMPDEST DUP1 CALLDATALOAD PUSH1 0x1 PUSH1 0x1 PUSH1 0xA0 SHL SUB DUP2 AND DUP2 EQ PUSH2 0x29AB JUMPI PUSH0 DUP1 REVERT JUMPDEST SWAP2 SWAP1 POP JUMP JUMPDEST PUSH0 PUSH1 0x20 DUP3 DUP5 SUB SLT ISZERO PUSH2 0x29C0 JUMPI PUSH0 DUP1 REVERT JUMPDEST PUSH2 0x29C9 DUP3 PUSH2 0x2995 JUMP JUMPDEST SWAP4 SWAP3 POP POP POP JUMP JUMPDEST PUSH0 DUP1 PUSH1 0x40 DUP4 DUP6 SUB SLT ISZERO PUSH2 0x29E1 JUMPI PUSH0 DUP1 REVERT JUMPDEST POP POP DUP1 CALLDATALOAD SWAP3 PUSH1 0x20 SWAP1 SWAP2 ADD CALLDATALOAD SWAP2 POP JUMP JUMPDEST PUSH0 DUP2 MLOAD DUP1 DUP5 MSTORE PUSH0 JUMPDEST DUP2 DUP2 LT ISZERO PUSH2 0x2A14 JUMPI PUSH1 0x20 DUP2 DUP6 ADD DUP2 ADD MLOAD DUP7 DUP4 ADD DUP3 ADD MSTORE ADD PUSH2 0x29F8 JUMP JUMPDEST POP PUSH0 PUSH1 0x20 DUP3 DUP7 ADD ADD MSTORE PUSH1 0x20 PUSH1 0x1F NOT PUSH1 0x1F DUP4 ADD AND DUP6 ADD ADD SWAP2 POP POP SWAP3 SWAP2 POP POP JUMP JUMPDEST DUP7 DUP2 MSTORE PUSH1 0x1 DUP1 PUSH1 0xA0 SHL SUB DUP7 AND PUSH1 0x20 DUP3 ADD MSTORE DUP5 PUSH1 0x40 DUP3 ADD MSTORE DUP4 PUSH1 0x60 DUP3 ADD MSTORE PUSH1 0xC0 PUSH1 0x80 DUP3 ADD MSTORE PUSH0 PUSH2 0x2A65 PUSH1 0xC0 DUP4 ADD DUP6 PUSH2 0x29F0 JUMP JUMPDEST SWAP1 POP DUP3 ISZERO ISZERO PUSH1 0xA0 DUP4 ADD MSTORE SWAP8 SWAP7 POP POP POP POP POP POP POP JUMP JUMPDEST PUSH0 DUP1 PUSH1 0x40 DUP4 DUP6 SUB SLT ISZERO PUSH2 0x2A8B JUMPI PUSH0 DUP1 REVERT JUMPDEST PUSH2 0x2A94 DUP4 PUSH2 0x2995 JUMP JUMPDEST SWAP2 POP PUSH2 0x2AA2 PUSH1 0x20 DUP5 ADD PUSH2 0x2995 JUMP JUMPDEST SWAP1 POP SWAP3 POP SWAP3 SWAP1 POP JUMP JUMPDEST PUSH0 DUP1 PUSH0 PUSH1 0x60 DUP5 DUP7 SUB SLT ISZERO PUSH2 0x2ABD JUMPI PUSH0 DUP1 REVERT JUMPDEST PUSH2 0x2AC6 DUP5 PUSH2 0x2995 JUMP JUMPDEST SWAP3 POP PUSH1 0x20 DUP5 ADD CALLDATALOAD SWAP2 POP PUSH2 0x2ADB PUSH1 0x40 DUP6 ADD PUSH2 0x2995 JUMP JUMPDEST SWAP1 POP SWAP3 POP SWAP3 POP SWAP3 JUMP JUMPDEST DUP1 CALLDATALOAD DUP1 ISZERO ISZERO DUP2 EQ PUSH2 0x29AB JUMPI PUSH0 DUP1 REVERT JUMPDEST PUSH0 PUSH1 0x20 DUP3 DUP5 SUB SLT ISZERO PUSH2 0x2B03 JUMPI PUSH0 DUP1 REVERT JUMPDEST PUSH2 0x29C9 DUP3 PUSH2 0x2AE4 JUMP JUMPDEST PUSH0 PUSH1 0x20 DUP3 DUP5 SUB SLT ISZERO PUSH2 0x2B1C JUMPI PUSH0 DUP1 REVERT JUMPDEST POP CALLDATALOAD SWAP2 SWAP1 POP JUMP JUMPDEST PUSH1 0xFF DUP2 AND DUP2 EQ PUSH2 0x187D JUMPI PUSH0 DUP1 REVERT JUMPDEST PUSH0 DUP1 PUSH1 0x40 DUP4 DUP6 SUB SLT ISZERO PUSH2 0x2B42 JUMPI PUSH0 DUP1 REVERT JUMPDEST DUP3 CALLDATALOAD PUSH2 0x2B4D DUP2 PUSH2 0x2B23 JUMP JUMPDEST SWAP2 POP PUSH1 0x20 DUP4 ADD CALLDATALOAD PUSH2 0x2B5D DUP2 PUSH2 0x2B23 JUMP JUMPDEST DUP1 SWAP2 POP POP SWAP3 POP SWAP3 SWAP1 POP JUMP JUMPDEST DUP7 DUP2 MSTORE PUSH1 0xC0 PUSH1 0x20 DUP3 ADD MSTORE PUSH0 PUSH2 0x2B80 PUSH1 0xC0 DUP4 ADD DUP9 PUSH2 0x29F0 JUMP JUMPDEST PUSH1 0x40 DUP4 ADD SWAP7 SWAP1 SWAP7 MSTORE POP SWAP3 ISZERO ISZERO PUSH1 0x60 DUP5 ADD MSTORE SWAP1 ISZERO ISZERO PUSH1 0x80 DUP4 ADD MSTORE PUSH1 0xA0 SWAP1 SWAP2 ADD MSTORE SWAP3 SWAP2 POP POP JUMP JUMPDEST PUSH0 DUP1 PUSH0 PUSH1 0x60 DUP5 DUP7 SUB SLT ISZERO PUSH2 0x2BB7 JUMPI PUSH0 DUP1 REVERT JUMPDEST DUP4 CALLDATALOAD SWAP3 POP PUSH1 0x20 DUP5 ADD CALLDATALOAD SWAP2 POP PUSH2 0x2ADB PUSH1 0x40 DUP6 ADD PUSH2 0x2AE4 JUMP JUMPDEST PUSH4 0x4E487B71 PUSH1 0xE0 SHL PUSH0 MSTORE PUSH1 0x41 PUSH1 0x4 MSTORE PUSH1 0x24 PUSH0 REVERT JUMPDEST PUSH0 DUP1 PUSH1 0x40 DUP4 DUP6 SUB SLT ISZERO PUSH2 0x2BF3 JUMPI PUSH0 DUP1 REVERT JUMPDEST DUP3 CALLDATALOAD SWAP2 POP PUSH1 0x20 DUP4 ADD CALLDATALOAD PUSH8 0xFFFFFFFFFFFFFFFF DUP1 DUP3 GT ISZERO PUSH2 0x2C11 JUMPI PUSH0 DUP1 REVERT JUMPDEST DUP2 DUP6 ADD SWAP2 POP DUP6 PUSH1 0x1F DUP4 ADD SLT PUSH2 0x2C24 JUMPI PUSH0 DUP1 REVERT JUMPDEST DUP2 CALLDATALOAD DUP2 DUP2 GT ISZERO PUSH2 0x2C36 JUMPI PUSH2 0x2C36 PUSH2 0x2BCE JUMP JUMPDEST PUSH1 0x40 MLOAD PUSH1 0x1F DUP3 ADD PUSH1 0x1F NOT SWAP1 DUP2 AND PUSH1 0x3F ADD AND DUP2 ADD SWAP1 DUP4 DUP3 GT DUP2 DUP4 LT OR ISZERO PUSH2 0x2C5E JUMPI PUSH2 0x2C5E PUSH2 0x2BCE JUMP JUMPDEST DUP2 PUSH1 0x40 MSTORE DUP3 DUP2 MSTORE DUP9 PUSH1 0x20 DUP5 DUP8 ADD ADD GT ISZERO PUSH2 0x2C76 JUMPI PUSH0 DUP1 REVERT JUMPDEST DUP3 PUSH1 0x20 DUP7 ADD PUSH1 0x20 DUP4 ADD CALLDATACOPY PUSH0 PUSH1 0x20 DUP5 DUP4 ADD ADD MSTORE DUP1 SWAP6 POP POP POP POP POP POP SWAP3 POP SWAP3 SWAP1 POP JUMP JUMPDEST PUSH4 0x4E487B71 PUSH1 0xE0 SHL PUSH0 MSTORE PUSH1 0x11 PUSH1 0x4 MSTORE PUSH1 0x24 PUSH0 REVERT JUMPDEST DUP1 DUP3 ADD DUP1 DUP3 GT ISZERO PUSH2 0x2CBE JUMPI PUSH2 0x2CBE PUSH2 0x2C97 JUMP JUMPDEST SWAP3 SWAP2 POP POP JUMP JUMPDEST PUSH0 DUP2 PUSH2 0x2CD2 JUMPI PUSH2 0x2CD2 PUSH2 0x2C97 JUMP JUMPDEST POP PUSH0 NOT ADD SWAP1 JUMP JUMPDEST DUP1 DUP3 MUL DUP2 ISZERO DUP3 DUP3 DIV DUP5 EQ OR PUSH2 0x2CBE JUMPI PUSH2 0x2CBE PUSH2 0x2C97 JUMP JUMPDEST DUP2 DUP2 SUB DUP2 DUP2 GT ISZERO PUSH2 0x2CBE JUMPI PUSH2 0x2CBE PUSH2 0x2C97 JUMP JUMPDEST PUSH1 0x1 DUP2 DUP2 SHR SWAP1 DUP3 AND DUP1 PUSH2 0x2D17 JUMPI PUSH1 0x7F DUP3 AND SWAP2 POP JUMPDEST PUSH1 0x20 DUP3 LT DUP2 SUB PUSH2 0x2D35 JUMPI PUSH4 0x4E487B71 PUSH1 0xE0 SHL PUSH0 MSTORE PUSH1 0x22 PUSH1 0x4 MSTORE PUSH1 0x24 PUSH0 REVERT JUMPDEST POP SWAP2 SWAP1 POP JUMP JUMPDEST PUSH0 PUSH1 0x20 DUP3 DUP5 SUB SLT ISZERO PUSH2 0x2D4B JUMPI PUSH0 DUP1 REVERT JUMPDEST POP MLOAD SWAP2 SWAP1 POP JUMP JUMPDEST PUSH0 PUSH1 0x20 DUP3 DUP5 SUB SLT ISZERO PUSH2 0x2D62 JUMPI PUSH0 DUP1 REVERT JUMPDEST DUP2 MLOAD PUSH2 0x29C9 DUP2 PUSH2 0x2B23 JUMP JUMPDEST PUSH4 0x4E487B71 PUSH1 0xE0 SHL PUSH0 MSTORE PUSH1 0x32 PUSH1 0x4 MSTORE PUSH1 0x24 PUSH0 REVERT JUMPDEST PUSH0 PUSH1 0xFF DUP3 AND PUSH1 0xFF DUP2 SUB PUSH2 0x2D96 JUMPI PUSH2 0x2D96 PUSH2 0x2C97 JUMP JUMPDEST PUSH1 0x1 ADD SWAP3 SWAP2 POP POP JUMP JUMPDEST PUSH0 DUP3 PUSH2 0x2DB9 JUMPI PUSH4 0x4E487B71 PUSH1 0xE0 SHL PUSH0 MSTORE PUSH1 0x12 PUSH1 0x4 MSTORE PUSH1 0x24 PUSH0 REVERT JUMPDEST POP DIV SWAP1 JUMP JUMPDEST PUSH0 PUSH1 0x1 DUP3 ADD PUSH2 0x2DCF JUMPI PUSH2 0x2DCF PUSH2 0x2C97 JUMP JUMPDEST POP PUSH1 0x1 ADD SWAP1 JUMP JUMPDEST PUSH1 0x1F DUP3 GT ISZERO PUSH2 0x1098 JUMPI PUSH0 DUP2 DUP2 MSTORE PUSH1 0x20 DUP2 KECCAK256 PUSH1 0x1F DUP6 ADD PUSH1 0x5 SHR DUP2 ADD PUSH1 0x20 DUP7 LT ISZERO PUSH2 0x2DFC JUMPI POP DUP1 JUMPDEST PUSH1 0x1F DUP6 ADD PUSH1 0x5 SHR DUP3 ADD SWAP2 POP JUMPDEST DUP2 DUP2 LT ISZERO PUSH2 0x2E1B JUMPI DUP3 DUP2 SSTORE PUSH1 0x1 ADD PUSH2 0x2E08 JUMP JUMPDEST POP POP POP POP POP POP JUMP JUMPDEST DUP2 MLOAD PUSH8 0xFFFFFFFFFFFFFFFF DUP2 GT ISZERO PUSH2 0x2E3D JUMPI PUSH2 0x2E3D PUSH2 0x2BCE JUMP JUMPDEST PUSH2 0x2E51 DUP2 PUSH2 0x2E4B DUP5 SLOAD PUSH2 0x2D03 JUMP JUMPDEST DUP5 PUSH2 0x2DD6 JUMP JUMPDEST PUSH1 0x20 DUP1 PUSH1 0x1F DUP4 GT PUSH1 0x1 DUP2 EQ PUSH2 0x2E84 JUMPI PUSH0 DUP5 ISZERO PUSH2 0x2E6D JUMPI POP DUP6 DUP4 ADD MLOAD JUMPDEST PUSH0 NOT PUSH1 0x3 DUP7 SWAP1 SHL SHR NOT AND PUSH1 0x1 DUP6 SWAP1 SHL OR DUP6 SSTORE PUSH2 0x2E1B JUMP JUMPDEST PUSH0 DUP6 DUP2 MSTORE PUSH1 0x20 DUP2 KECCAK256 PUSH1 0x1F NOT DUP7 AND SWAP2 JUMPDEST DUP3 DUP2 LT ISZERO PUSH2 0x2EB2 JUMPI DUP9 DUP7 ADD MLOAD DUP3 SSTORE SWAP5 DUP5 ADD SWAP5 PUSH1 0x1 SWAP1 SWAP2 ADD SWAP1 DUP5 ADD PUSH2 0x2E93 JUMP JUMPDEST POP DUP6 DUP3 LT ISZERO PUSH2 0x2ECF JUMPI DUP8 DUP6 ADD MLOAD PUSH0 NOT PUSH1 0x3 DUP9 SWAP1 SHL PUSH1 0xF8 AND SHR NOT AND DUP2 SSTORE JUMPDEST POP POP POP POP POP PUSH1 0x1 SWAP1 DUP2 SHL ADD SWAP1 SSTORE POP JUMP JUMPDEST DUP5 DUP2 MSTORE DUP4 PUSH1 0x20 DUP3 ADD MSTORE DUP3 PUSH1 0x40 DUP3 ADD MSTORE PUSH1 0x80 PUSH1 0x60 DUP3 ADD MSTORE PUSH0 PUSH2 0x2F03 PUSH1 0x80 DUP4 ADD DUP5 PUSH2 0x29F0 JUMP JUMPDEST SWAP7 SWAP6 POP POP POP POP POP POP JUMP JUMPDEST PUSH0 PUSH1 0x20 DUP1 DUP4 MSTORE PUSH0 DUP5 SLOAD PUSH2 0x2F1F DUP2 PUSH2 0x2D03 JUMP JUMPDEST DUP1 DUP5 DUP8 ADD MSTORE PUSH1 0x40 PUSH1 0x1 DUP1 DUP5 AND PUSH0 DUP2 EQ PUSH2 0x2F3F JUMPI PUSH1 0x1 DUP2 EQ PUSH2 0x2F59 JUMPI PUSH2 0x2F84 JUMP JUMPDEST PUSH1 0xFF NOT DUP6 AND DUP10 DUP5 ADD MSTORE DUP4 ISZERO ISZERO PUSH1 0x5 SHL DUP10 ADD DUP4 ADD SWAP6 POP PUSH2 0x2F84 JUMP JUMPDEST DUP10 PUSH0 MSTORE DUP7 PUSH0 KECCAK256 PUSH0 JUMPDEST DUP6 DUP2 LT ISZERO PUSH2 0x2F7C JUMPI DUP2 SLOAD DUP12 DUP3 ADD DUP7 ADD MSTORE SWAP1 DUP4 ADD SWAP1 DUP9 ADD PUSH2 0x2F61 JUMP JUMPDEST DUP11 ADD DUP5 ADD SWAP7 POP POP JUMPDEST POP SWAP4 SWAP9 SWAP8 POP POP POP POP POP POP POP POP JUMP JUMPDEST PUSH1 0x20 DUP2 MSTORE PUSH0 PUSH2 0x29C9 PUSH1 0x20 DUP4 ADD DUP5 PUSH2 0x29F0 JUMP INVALID LOG2 PUSH5 0x6970667358 0x22 SLT KECCAK256 DUP4 0xC4 REVERT 0xDA LOG4 0xC8 AND PUSH31 0xF62A0F5A88806F11AA9DADCF2002EDB86C259C925355B63764736F6C634300 ADDMOD EQ STOP CALLER ISZERO 0xC 0xB3 PUSH10 0xF834B70A4F343956659B 0x1F DUP5 0xCD CALLDATACOPY 0xD4 NUMBER MSTORE 0xB9 0xA7 PUSH16 0xF77AC59552EF4AA00000000000000000 "
		},
		"gasEstimates": {
			"creation": {
				"codeDepositCost": "2450000",
				"executionCost": "infinite",
				"totalCost": "infinite"
			},
			"external": {
				"INGOTS_POOL_MAX()": "338",
				"INR1()": "2492",
				"INR1_PER_INGOT()": "315",
				"MAX_POOL_ID()": "294",
				"REFERRAL_PERCENTS(uint256)": "2450",
				"USD1()": "2426",
				"USD1_PER_INGOT()": "229",
				"adminSweepToken(address,uint256,address)": "infinite",
				"adminWithdrawOperational(uint256)": "infinite",
				"adminWithdrawReserve(uint256)": "infinite",
				"changeReferrer(address,address)": "infinite",
				"emergencyActive()": "2397",
				"forceCreatePool(uint256,string)": "infinite",
				"getActivePoolId()": "infinite",
				"getClaimablePoolReward(address)": "2567",
				"getClaimableReferral(address)": "infinite",
				"getNextPoolId()": "2462",
				"inr1UpdatePending()": "2460",
				"inrDecimals()": "2484",
				"isBlacklisted(address)": "2682",
				"joinPool(uint256,uint256,bool)": "infinite",
				"lastCreatedPoolId()": "2417",
				"operationalTreasury()": "2372",
				"owner()": "2463",
				"pendingINR1()": "2405",
				"pendingINR1Payout(address)": "2571",
				"pendingUSD1()": "2404",
				"poolOrders(uint256,uint256)": "infinite",
				"pools(uint256)": "infinite",
				"register(address)": "infinite",
				"renounceOwnership()": "infinite",
				"reserveTreasury()": "2374",
				"setEmergencyActive(bool)": "27917",
				"setINR1(address)": "infinite",
				"setTokenDecimals(uint8,uint8)": "infinite",
				"setUSD1(address)": "infinite",
				"subadmin()": "2425",
				"tokenWhitelist(address)": "2661",
				"totalInvestedAllPools()": "2394",
				"transferOwnership(address)": "28439",
				"triggerPayout(uint256)": "infinite",
				"usd1UpdatePending()": "2438",
				"usdDecimals()": "2396",
				"usdInrParity()": "2328",
				"users(address)": "11159",
				"withdrawReferralReward()": "infinite",
				"withdrawReward()": "infinite"
			},
			"internal": {
				"_distributeReferralRewards(address,uint256)": "infinite"
			}
		},
		"methodIdentifiers": {
			"INGOTS_POOL_MAX()": "e1e55fbf",
			"INR1()": "a3a83649",
			"INR1_PER_INGOT()": "f8b55f4f",
			"MAX_POOL_ID()": "b1ced5e7",
			"REFERRAL_PERCENTS(uint256)": "600d20ce",
			"USD1()": "44386321",
			"USD1_PER_INGOT()": "166b836f",
			"adminSweepToken(address,uint256,address)": "4b67e948",
			"adminWithdrawOperational(uint256)": "ddbb48d6",
			"adminWithdrawReserve(uint256)": "81caedf1",
			"changeReferrer(address,address)": "3b38bf72",
			"emergencyActive()": "eddaa3ab",
			"forceCreatePool(uint256,string)": "bc0ca177",
			"getActivePoolId()": "11ccdf8c",
			"getClaimablePoolReward(address)": "e22d0a82",
			"getClaimableReferral(address)": "149b6b1f",
			"getNextPoolId()": "007da258",
			"inr1UpdatePending()": "254c4326",
			"inrDecimals()": "755e1fee",
			"isBlacklisted(address)": "fe575a87",
			"joinPool(uint256,uint256,bool)": "b380744d",
			"lastCreatedPoolId()": "4ba05906",
			"operationalTreasury()": "d66aafa6",
			"owner()": "8da5cb5b",
			"pendingINR1()": "0e3a83a4",
			"pendingINR1Payout(address)": "e7780f28",
			"pendingUSD1()": "7bb5ee4b",
			"poolOrders(uint256,uint256)": "17b72137",
			"pools(uint256)": "ac4afa38",
			"register(address)": "4420e486",
			"renounceOwnership()": "715018a6",
			"reserveTreasury()": "106ca23c",
			"setEmergencyActive(bool)": "569a7dfd",
			"setINR1(address)": "367631d7",
			"setTokenDecimals(uint8,uint8)": "8995bc60",
			"setUSD1(address)": "76752435",
			"subadmin()": "6afbd415",
			"tokenWhitelist(address)": "753d7563",
			"totalInvestedAllPools()": "dc810925",
			"transferOwnership(address)": "f2fde38b",
			"triggerPayout(uint256)": "b1b358d4",
			"usd1UpdatePending()": "239cc1dd",
			"usdDecimals()": "66a4b6c0",
			"usdInrParity()": "bcaf0d95",
			"users(address)": "a87430ba",
			"withdrawReferralReward()": "18118787",
			"withdrawReward()": "c885bc58"
		}
	},
	"abi": [
		{
			"inputs": [
				{
					"internalType": "address",
					"name": "_subadmin",
					"type": "address"
				},
				{
					"internalType": "address",
					"name": "_inr1",
					"type": "address"
				},
				{
					"internalType": "address",
					"name": "_usd1",
					"type": "address"
				}
			],
			"stateMutability": "nonpayable",
			"type": "constructor"
		},
		{
			"inputs": [
				{
					"internalType": "address",
					"name": "owner",
					"type": "address"
				}
			],
			"name": "OwnableInvalidOwner",
			"type": "error"
		},
		{
			"inputs": [
				{
					"internalType": "address",
					"name": "account",
					"type": "address"
				}
			],
			"name": "OwnableUnauthorizedAccount",
			"type": "error"
		},
		{
			"inputs": [
				{
					"internalType": "address",
					"name": "token",
					"type": "address"
				}
			],
			"name": "SafeERC20FailedOperation",
			"type": "error"
		},
		{
			"anonymous": false,
			"inputs": [
				{
					"indexed": false,
					"internalType": "bool",
					"name": "flag",
					"type": "bool"
				}
			],
			"name": "EmergencyActivated",
			"type": "event"
		},
		{
			"anonymous": false,
			"inputs": [
				{
					"indexed": false,
					"internalType": "address",
					"name": "newAddr",
					"type": "address"
				}
			],
			"name": "INRTOKENUpdated",
			"type": "event"
		},
		{
			"anonymous": false,
			"inputs": [
				{
					"indexed": true,
					"internalType": "address",
					"name": "previousOwner",
					"type": "address"
				},
				{
					"indexed": true,
					"internalType": "address",
					"name": "newOwner",
					"type": "address"
				}
			],
			"name": "OwnershipTransferred",
			"type": "event"
		},
		{
			"anonymous": false,
			"inputs": [
				{
					"indexed": true,
					"internalType": "address",
					"name": "user",
					"type": "address"
				},
				{
					"indexed": false,
					"internalType": "uint256",
					"name": "poolId",
					"type": "uint256"
				},
				{
					"indexed": false,
					"internalType": "uint256",
					"name": "orderNo",
					"type": "uint256"
				},
				{
					"indexed": false,
					"internalType": "uint256",
					"name": "reward",
					"type": "uint256"
				}
			],
			"name": "PaidOut",
			"type": "event"
		},
		{
			"anonymous": false,
			"inputs": [
				{
					"indexed": false,
					"internalType": "uint256",
					"name": "newParity",
					"type": "uint256"
				}
			],
			"name": "ParityUpdated",
			"type": "event"
		},
		{
			"anonymous": false,
			"inputs": [
				{
					"indexed": false,
					"internalType": "uint256",
					"name": "poolId",
					"type": "uint256"
				},
				{
					"indexed": false,
					"internalType": "string",
					"name": "poolType",
					"type": "string"
				}
			],
			"name": "PoolActivated",
			"type": "event"
		},
		{
			"anonymous": false,
			"inputs": [
				{
					"indexed": true,
					"internalType": "uint256",
					"name": "poolId",
					"type": "uint256"
				},
				{
					"indexed": false,
					"internalType": "string",
					"name": "poolType",
					"type": "string"
				}
			],
			"name": "PoolAdded",
			"type": "event"
		},
		{
			"anonymous": false,
			"inputs": [
				{
					"indexed": true,
					"internalType": "uint256",
					"name": "poolId",
					"type": "uint256"
				},
				{
					"indexed": false,
					"internalType": "uint256",
					"name": "totalInvested",
					"type": "uint256"
				}
			],
			"name": "PoolClosed",
			"type": "event"
		},
		{
			"anonymous": false,
			"inputs": [
				{
					"indexed": true,
					"internalType": "address",
					"name": "user",
					"type": "address"
				},
				{
					"indexed": false,
					"internalType": "uint256",
					"name": "poolId",
					"type": "uint256"
				},
				{
					"indexed": false,
					"internalType": "uint256",
					"name": "orderNo",
					"type": "uint256"
				},
				{
					"indexed": false,
					"internalType": "uint256",
					"name": "ingots",
					"type": "uint256"
				},
				{
					"indexed": false,
					"internalType": "string",
					"name": "paymentToken",
					"type": "string"
				}
			],
			"name": "PoolJoined",
			"type": "event"
		},
		{
			"anonymous": false,
			"inputs": [
				{
					"indexed": true,
					"internalType": "address",
					"name": "user",
					"type": "address"
				},
				{
					"indexed": false,
					"internalType": "uint256",
					"name": "pendingReward",
					"type": "uint256"
				},
				{
					"indexed": false,
					"internalType": "bool",
					"name": "canWithdraw",
					"type": "bool"
				}
			],
			"name": "PoolStatus",
			"type": "event"
		},
		{
			"anonymous": false,
			"inputs": [
				{
					"indexed": true,
					"internalType": "address",
					"name": "user",
					"type": "address"
				},
				{
					"indexed": false,
					"internalType": "uint256",
					"name": "amount",
					"type": "uint256"
				}
			],
			"name": "ReferralRewardClaimed",
			"type": "event"
		},
		{
			"anonymous": false,
			"inputs": [
				{
					"indexed": true,
					"internalType": "address",
					"name": "user",
					"type": "address"
				},
				{
					"indexed": false,
					"internalType": "uint256",
					"name": "totalEarned",
					"type": "uint256"
				},
				{
					"indexed": false,
					"internalType": "uint256",
					"name": "claimable",
					"type": "uint256"
				},
				{
					"indexed": false,
					"internalType": "uint256",
					"name": "withdrawn",
					"type": "uint256"
				},
				{
					"indexed": false,
					"internalType": "uint256",
					"name": "cap",
					"type": "uint256"
				}
			],
			"name": "ReferralStatus",
			"type": "event"
		},
		{
			"anonymous": false,
			"inputs": [
				{
					"indexed": true,
					"internalType": "address",
					"name": "user",
					"type": "address"
				},
				{
					"indexed": true,
					"internalType": "address",
					"name": "oldReferrer",
					"type": "address"
				},
				{
					"indexed": true,
					"internalType": "address",
					"name": "newReferrer",
					"type": "address"
				}
			],
			"name": "ReferrerChanged",
			"type": "event"
		},
		{
			"anonymous": false,
			"inputs": [
				{
					"indexed": false,
					"internalType": "string",
					"name": "treasury",
					"type": "string"
				},
				{
					"indexed": false,
					"internalType": "uint256",
					"name": "amount",
					"type": "uint256"
				},
				{
					"indexed": false,
					"internalType": "string",
					"name": "token",
					"type": "string"
				}
			],
			"name": "TreasuryFunded",
			"type": "event"
		},
		{
			"anonymous": false,
			"inputs": [
				{
					"indexed": false,
					"internalType": "string",
					"name": "treasury",
					"type": "string"
				},
				{
					"indexed": false,
					"internalType": "uint256",
					"name": "amount",
					"type": "uint256"
				}
			],
			"name": "TreasuryWithdraw",
			"type": "event"
		},
		{
			"anonymous": false,
			"inputs": [
				{
					"indexed": false,
					"internalType": "address",
					"name": "newAddr",
					"type": "address"
				}
			],
			"name": "USDTOKENUpdated",
			"type": "event"
		},
		{
			"inputs": [],
			"name": "INGOTS_POOL_MAX",
			"outputs": [
				{
					"internalType": "uint256",
					"name": "",
					"type": "uint256"
				}
			],
			"stateMutability": "view",
			"type": "function"
		},
		{
			"inputs": [],
			"name": "INR1",
			"outputs": [
				{
					"internalType": "contract IERC20",
					"name": "",
					"type": "address"
				}
			],
			"stateMutability": "view",
			"type": "function"
		},
		{
			"inputs": [],
			"name": "INR1_PER_INGOT",
			"outputs": [
				{
					"internalType": "uint256",
					"name": "",
					"type": "uint256"
				}
			],
			"stateMutability": "view",
			"type": "function"
		},
		{
			"inputs": [],
			"name": "MAX_POOL_ID",
			"outputs": [
				{
					"internalType": "uint256",
					"name": "",
					"type": "uint256"
				}
			],
			"stateMutability": "view",
			"type": "function"
		},
		{
			"inputs": [
				{
					"internalType": "uint256",
					"name": "",
					"type": "uint256"
				}
			],
			"name": "REFERRAL_PERCENTS",
			"outputs": [
				{
					"internalType": "uint256",
					"name": "",
					"type": "uint256"
				}
			],
			"stateMutability": "view",
			"type": "function"
		},
		{
			"inputs": [],
			"name": "USD1",
			"outputs": [
				{
					"internalType": "contract IERC20",
					"name": "",
					"type": "address"
				}
			],
			"stateMutability": "view",
			"type": "function"
		},
		{
			"inputs": [],
			"name": "USD1_PER_INGOT",
			"outputs": [
				{
					"internalType": "uint256",
					"name": "",
					"type": "uint256"
				}
			],
			"stateMutability": "view",
			"type": "function"
		},
		{
			"inputs": [
				{
					"internalType": "address",
					"name": "token",
					"type": "address"
				},
				{
					"internalType": "uint256",
					"name": "amount",
					"type": "uint256"
				},
				{
					"internalType": "address",
					"name": "to",
					"type": "address"
				}
			],
			"name": "adminSweepToken",
			"outputs": [],
			"stateMutability": "nonpayable",
			"type": "function"
		},
		{
			"inputs": [
				{
					"internalType": "uint256",
					"name": "amount",
					"type": "uint256"
				}
			],
			"name": "adminWithdrawOperational",
			"outputs": [],
			"stateMutability": "nonpayable",
			"type": "function"
		},
		{
			"inputs": [
				{
					"internalType": "uint256",
					"name": "amount",
					"type": "uint256"
				}
			],
			"name": "adminWithdrawReserve",
			"outputs": [],
			"stateMutability": "nonpayable",
			"type": "function"
		},
		{
			"inputs": [
				{
					"internalType": "address",
					"name": "user",
					"type": "address"
				},
				{
					"internalType": "address",
					"name": "newReferrer",
					"type": "address"
				}
			],
			"name": "changeReferrer",
			"outputs": [],
			"stateMutability": "nonpayable",
			"type": "function"
		},
		{
			"inputs": [],
			"name": "emergencyActive",
			"outputs": [
				{
					"internalType": "bool",
					"name": "",
					"type": "bool"
				}
			],
			"stateMutability": "view",
			"type": "function"
		},
		{
			"inputs": [
				{
					"internalType": "uint256",
					"name": "poolId",
					"type": "uint256"
				},
				{
					"internalType": "string",
					"name": "poolType",
					"type": "string"
				}
			],
			"name": "forceCreatePool",
			"outputs": [],
			"stateMutability": "nonpayable",
			"type": "function"
		},
		{
			"inputs": [],
			"name": "getActivePoolId",
			"outputs": [
				{
					"internalType": "uint256",
					"name": "",
					"type": "uint256"
				}
			],
			"stateMutability": "view",
			"type": "function"
		},
		{
			"inputs": [
				{
					"internalType": "address",
					"name": "user",
					"type": "address"
				}
			],
			"name": "getClaimablePoolReward",
			"outputs": [
				{
					"internalType": "uint256",
					"name": "",
					"type": "uint256"
				}
			],
			"stateMutability": "view",
			"type": "function"
		},
		{
			"inputs": [
				{
					"internalType": "address",
					"name": "user",
					"type": "address"
				}
			],
			"name": "getClaimableReferral",
			"outputs": [
				{
					"internalType": "uint256",
					"name": "",
					"type": "uint256"
				}
			],
			"stateMutability": "view",
			"type": "function"
		},
		{
			"inputs": [],
			"name": "getNextPoolId",
			"outputs": [
				{
					"internalType": "uint256",
					"name": "",
					"type": "uint256"
				}
			],
			"stateMutability": "view",
			"type": "function"
		},
		{
			"inputs": [],
			"name": "inr1UpdatePending",
			"outputs": [
				{
					"internalType": "bool",
					"name": "",
					"type": "bool"
				}
			],
			"stateMutability": "view",
			"type": "function"
		},
		{
			"inputs": [],
			"name": "inrDecimals",
			"outputs": [
				{
					"internalType": "uint8",
					"name": "",
					"type": "uint8"
				}
			],
			"stateMutability": "view",
			"type": "function"
		},
		{
			"inputs": [
				{
					"internalType": "address",
					"name": "",
					"type": "address"
				}
			],
			"name": "isBlacklisted",
			"outputs": [
				{
					"internalType": "bool",
					"name": "",
					"type": "bool"
				}
			],
			"stateMutability": "view",
			"type": "function"
		},
		{
			"inputs": [
				{
					"internalType": "uint256",
					"name": "poolId",
					"type": "uint256"
				},
				{
					"internalType": "uint256",
					"name": "amount",
					"type": "uint256"
				},
				{
					"internalType": "bool",
					"name": "useUSD",
					"type": "bool"
				}
			],
			"name": "joinPool",
			"outputs": [],
			"stateMutability": "nonpayable",
			"type": "function"
		},
		{
			"inputs": [],
			"name": "lastCreatedPoolId",
			"outputs": [
				{
					"internalType": "uint256",
					"name": "",
					"type": "uint256"
				}
			],
			"stateMutability": "view",
			"type": "function"
		},
		{
			"inputs": [],
			"name": "operationalTreasury",
			"outputs": [
				{
					"internalType": "uint256",
					"name": "",
					"type": "uint256"
				}
			],
			"stateMutability": "view",
			"type": "function"
		},
		{
			"inputs": [],
			"name": "owner",
			"outputs": [
				{
					"internalType": "address",
					"name": "",
					"type": "address"
				}
			],
			"stateMutability": "view",
			"type": "function"
		},
		{
			"inputs": [],
			"name": "pendingINR1",
			"outputs": [
				{
					"internalType": "address",
					"name": "",
					"type": "address"
				}
			],
			"stateMutability": "view",
			"type": "function"
		},
		{
			"inputs": [
				{
					"internalType": "address",
					"name": "",
					"type": "address"
				}
			],
			"name": "pendingINR1Payout",
			"outputs": [
				{
					"internalType": "uint256",
					"name": "",
					"type": "uint256"
				}
			],
			"stateMutability": "view",
			"type": "function"
		},
		{
			"inputs": [],
			"name": "pendingUSD1",
			"outputs": [
				{
					"internalType": "address",
					"name": "",
					"type": "address"
				}
			],
			"stateMutability": "view",
			"type": "function"
		},
		{
			"inputs": [
				{
					"internalType": "uint256",
					"name": "",
					"type": "uint256"
				},
				{
					"internalType": "uint256",
					"name": "",
					"type": "uint256"
				}
			],
			"name": "poolOrders",
			"outputs": [
				{
					"internalType": "uint256",
					"name": "orderNo",
					"type": "uint256"
				},
				{
					"internalType": "address",
					"name": "user",
					"type": "address"
				},
				{
					"internalType": "uint256",
					"name": "investedAmount",
					"type": "uint256"
				},
				{
					"internalType": "uint256",
					"name": "interest",
					"type": "uint256"
				},
				{
					"internalType": "string",
					"name": "paymentToken",
					"type": "string"
				},
				{
					"internalType": "bool",
					"name": "paidOut",
					"type": "bool"
				}
			],
			"stateMutability": "view",
			"type": "function"
		},
		{
			"inputs": [
				{
					"internalType": "uint256",
					"name": "",
					"type": "uint256"
				}
			],
			"name": "pools",
			"outputs": [
				{
					"internalType": "uint256",
					"name": "poolId",
					"type": "uint256"
				},
				{
					"internalType": "string",
					"name": "poolType",
					"type": "string"
				},
				{
					"internalType": "uint256",
					"name": "currentFill",
					"type": "uint256"
				},
				{
					"internalType": "bool",
					"name": "isActive",
					"type": "bool"
				},
				{
					"internalType": "bool",
					"name": "paidOut",
					"type": "bool"
				},
				{
					"internalType": "uint256",
					"name": "totalInvested",
					"type": "uint256"
				}
			],
			"stateMutability": "view",
			"type": "function"
		},
		{
			"inputs": [
				{
					"internalType": "address",
					"name": "referrer",
					"type": "address"
				}
			],
			"name": "register",
			"outputs": [],
			"stateMutability": "nonpayable",
			"type": "function"
		},
		{
			"inputs": [],
			"name": "renounceOwnership",
			"outputs": [],
			"stateMutability": "nonpayable",
			"type": "function"
		},
		{
			"inputs": [],
			"name": "reserveTreasury",
			"outputs": [
				{
					"internalType": "uint256",
					"name": "",
					"type": "uint256"
				}
			],
			"stateMutability": "view",
			"type": "function"
		},
		{
			"inputs": [
				{
					"internalType": "bool",
					"name": "flag",
					"type": "bool"
				}
			],
			"name": "setEmergencyActive",
			"outputs": [],
			"stateMutability": "nonpayable",
			"type": "function"
		},
		{
			"inputs": [
				{
					"internalType": "address",
					"name": "newINR1",
					"type": "address"
				}
			],
			"name": "setINR1",
			"outputs": [],
			"stateMutability": "nonpayable",
			"type": "function"
		},
		{
			"inputs": [
				{
					"internalType": "uint8",
					"name": "_inrDecimals",
					"type": "uint8"
				},
				{
					"internalType": "uint8",
					"name": "_usdDecimals",
					"type": "uint8"
				}
			],
			"name": "setTokenDecimals",
			"outputs": [],
			"stateMutability": "nonpayable",
			"type": "function"
		},
		{
			"inputs": [
				{
					"internalType": "address",
					"name": "newUSD1",
					"type": "address"
				}
			],
			"name": "setUSD1",
			"outputs": [],
			"stateMutability": "nonpayable",
			"type": "function"
		},
		{
			"inputs": [],
			"name": "subadmin",
			"outputs": [
				{
					"internalType": "address",
					"name": "",
					"type": "address"
				}
			],
			"stateMutability": "view",
			"type": "function"
		},
		{
			"inputs": [
				{
					"internalType": "address",
					"name": "",
					"type": "address"
				}
			],
			"name": "tokenWhitelist",
			"outputs": [
				{
					"internalType": "bool",
					"name": "",
					"type": "bool"
				}
			],
			"stateMutability": "view",
			"type": "function"
		},
		{
			"inputs": [],
			"name": "totalInvestedAllPools",
			"outputs": [
				{
					"internalType": "uint256",
					"name": "",
					"type": "uint256"
				}
			],
			"stateMutability": "view",
			"type": "function"
		},
		{
			"inputs": [
				{
					"internalType": "address",
					"name": "newOwner",
					"type": "address"
				}
			],
			"name": "transferOwnership",
			"outputs": [],
			"stateMutability": "nonpayable",
			"type": "function"
		},
		{
			"inputs": [
				{
					"internalType": "uint256",
					"name": "poolId",
					"type": "uint256"
				}
			],
			"name": "triggerPayout",
			"outputs": [],
			"stateMutability": "nonpayable",
			"type": "function"
		},
		{
			"inputs": [],
			"name": "usd1UpdatePending",
			"outputs": [
				{
					"internalType": "bool",
					"name": "",
					"type": "bool"
				}
			],
			"stateMutability": "view",
			"type": "function"
		},
		{
			"inputs": [],
			"name": "usdDecimals",
			"outputs": [
				{
					"internalType": "uint8",
					"name": "",
					"type": "uint8"
				}
			],
			"stateMutability": "view",
			"type": "function"
		},
		{
			"inputs": [],
			"name": "usdInrParity",
			"outputs": [
				{
					"internalType": "uint256",
					"name": "",
					"type": "uint256"
				}
			],
			"stateMutability": "view",
			"type": "function"
		},
		{
			"inputs": [
				{
					"internalType": "address",
					"name": "",
					"type": "address"
				}
			],
			"name": "users",
			"outputs": [
				{
					"internalType": "address",
					"name": "referrer",
					"type": "address"
				},
				{
					"internalType": "uint256",
					"name": "invested",
					"type": "uint256"
				},
				{
					"internalType": "uint256",
					"name": "referralRewardTotal",
					"type": "uint256"
				},
				{
					"internalType": "uint256",
					"name": "referralWithdrawn",
					"type": "uint256"
				},
				{
					"internalType": "bool",
					"name": "registered",
					"type": "bool"
				}
			],
			"stateMutability": "view",
			"type": "function"
		},
		{
			"inputs": [],
			"name": "withdrawReferralReward",
			"outputs": [],
			"stateMutability": "nonpayable",
			"type": "function"
		},
		{
			"inputs": [],
			"name": "withdrawReward",
			"outputs": [],
			"stateMutability": "nonpayable",
			"type": "function"
		}
	]
}