{
	"data": {
		"bytecode": {
			"linkReferences": {},
			"object": "6080604052603260025534801562000015575f80fd5b5060405162001fcc38038062001fcc833981016040819052620000389162000176565b600180556001600160a01b038116620000975760405162461bcd60e51b815260206004820152601660248201527f46656520726563697069656e7420726571756972656400000000000000000000604482015260640160405180910390fd5b620000a35f33620000ca565b50600380546001600160a01b0319166001600160a01b0392909216919091179055620001a5565b5f828152602081815260408083206001600160a01b038516845290915281205460ff166200016d575f838152602081815260408083206001600160a01b03861684529091529020805460ff19166001179055620001243390565b6001600160a01b0316826001600160a01b0316847f2f8788117e7eff1d82e926ec794901d17c78024a50270940304540a733656f0d60405160405180910390a450600162000170565b505f5b92915050565b5f6020828403121562000187575f80fd5b81516001600160a01b03811681146200019e575f80fd5b9392505050565b611e1980620001b35f395ff3fe608060405234801561000f575f80fd5b5060043610610187575f3560e01c80638aaa2284116100d9578063b7ba16f611610093578063d4248bbe1161006e578063d4248bbe146103d9578063d547741f146103ec578063e744092e146103ff578063e74b981b14610421575f80fd5b8063b7ba16f61461038d578063ba87a7c9146103a0578063cf54aaa0146103b4575f80fd5b80638aaa2284146102db57806391d14854146102ee5780639e2afebe14610301578063a217fddf14610314578063a85c38ef1461031b578063b38e0fc41461037a575f80fd5b80634690484011610144578063518e62db1161011f578063518e62db1461028f578063679fb287146102a257806369fe0e2d146102b55780636ff1c9bc146102c8575f80fd5b8063469048401461023e5780634d91092914610269578063514fcac71461027c575f80fd5b806301ffc9a71461018b578063248a9ca3146101b35780632f2ff15d146101e35780632ffdaf89146101f85780633070e98d1461020157806336568abe1461022b575b5f80fd5b61019e610199366004611970565b610434565b60405190151581526020015b60405180910390f35b6101d56101c1366004611997565b5f9081526020819052604090206001015490565b6040519081526020016101aa565b6101f66101f13660046119c9565b61046a565b005b6101d560025481565b6101d561020f3660046119f3565b600560209081525f928352604080842090915290825290205481565b6101f66102393660046119c9565b610494565b600354610251906001600160a01b031681565b6040516001600160a01b0390911681526020016101aa565b6101f6610277366004611a1b565b6104cc565b6101f661028a366004611997565b6104f1565b6101f661029d366004611a34565b610662565b6101d56102b0366004611a7d565b6109e0565b6101f66102c3366004611997565b610a5d565b6101f66102d6366004611a1b565b610b22565b6101f66102e9366004611aa5565b610c28565b61019e6102fc3660046119c9565b610cc9565b6101f661030f366004611ade565b610cf1565b6101d55f81565b61032e610329366004611997565b610f42565b604080516001600160a01b03998a168152978916602089015295909716948601949094526060850192909252608084015260a083015260c082015290151560e0820152610100016101aa565b6101d5610388366004611a7d565b610fa7565b6101f661039b366004611b1d565b61101c565b6101d55f80516020611dc483398151915281565b6103c76103c2366004611a1b565b611395565b60405160ff90911681526020016101aa565b6101f66103e7366004611b46565b6113f6565b6101f66103fa3660046119c9565b61155f565b61019e61040d366004611a1b565b60046020525f908152604090205460ff1681565b6101f661042f366004611a1b565b611583565b5f6001600160e01b03198216637965db0b60e01b148061046457506301ffc9a760e01b6001600160e01b03198316145b92915050565b5f8281526020819052604090206001015461048481611674565b61048e838361167e565b50505050565b6001600160a01b03811633146104bd5760405163334bd91960e11b815260040160405180910390fd5b6104c7828261170d565b505050565b5f6104d681611674565b6104ed5f80516020611dc48339815191528361046a565b5050565b6104f9611776565b60065481106105395760405162461bcd60e51b8152602060048201526007602482015266125b9d985b1a5960ca1b60448201526064015b60405180910390fd5b5f6006828154811061054d5761054d611b7f565b5f9182526020909120600890910201600781015490915060ff1661059e5760405162461bcd60e51b8152602060048201526008602482015267496e61637469766560c01b6044820152606401610530565b80546001600160a01b031633146105e45760405162461bcd60e51b815260206004820152600a60248201526927b7363c9036b0b5b2b960b11b6044820152606401610530565b60078101805460ff191690556004810180545f9091558015610654576001820154610619906001600160a01b031633836117cf565b827faa2a006d186dc89a3d6851834c85d16226329ac40bcad6531a5756a38ed1c90f8260405161064b91815260200190565b60405180910390a25b505061065f60018055565b50565b61066a611776565b836001600160a01b0316856001600160a01b03160361069b5760405162461bcd60e51b815260040161053090611b93565b6001600160a01b0385165f9081526004602052604090205460ff1680156106d957506001600160a01b0384165f9081526004602052604090205460ff165b6106f55760405162461bcd60e51b815260040161053090611bbd565b5f82116107305760405162461bcd60e51b815260206004820152600960248201526852617465207a65726f60b81b6044820152606401610530565b5f61073b8242611bfd565b90505f61074887866109e0565b90505f81116107855760405162461bcd60e51b8152602060048201526009602482015268151bdbc81cdb585b1b60ba1b6044820152606401610530565b61079a6001600160a01b03881633308861182e565b6040805161010081018252338082526001600160a01b038a8116602084019081528a8216948401948552606084018a8152608085018b815260a086018b815260c087018a8152600160e089018181526006805480840182555f8290529a516008909b027ff652222313e28459528d920b65115c16c04f3efc82aaedc97be59f3f377c0d3f810180549c8b166001600160a01b03199d8e1617905597517ff652222313e28459528d920b65115c16c04f3efc82aaedc97be59f3f377c0d4089018054918b16918d169190911790559a517ff652222313e28459528d920b65115c16c04f3efc82aaedc97be59f3f377c0d4188018054919099169a169990991790965592517ff652222313e28459528d920b65115c16c04f3efc82aaedc97be59f3f377c0d4285015590517ff652222313e28459528d920b65115c16c04f3efc82aaedc97be59f3f377c0d43840155517ff652222313e28459528d920b65115c16c04f3efc82aaedc97be59f3f377c0d44830155517ff652222313e28459528d920b65115c16c04f3efc82aaedc97be59f3f377c0d4582015592517ff652222313e28459528d920b65115c16c04f3efc82aaedc97be59f3f377c0d46909301805493151560ff199094169390931790925591546109759190611c10565b604080516001600160a01b03808c1682528a16602082015290810188905260608101879052608081018590527fdb932a34c9c681f70d4d797e099a8752999c25f9c9ffa2009c5f39c8f8dee4b49060a00160405180910390a350506109d960018055565b5050505050565b5f806109eb84611395565b905060128160ff161115610a355760405162461bcd60e51b8152602060048201526011602482015270546f6f206d616e7920646563696d616c7360781b6044820152606401610530565b610a40816012611c23565b610a4b90600a611d1c565b610a559084611d2a565b949350505050565b610a675f33610cc9565b80610a845750610a845f80516020611dc483398151915233610cc9565b610aa05760405162461bcd60e51b815260040161053090611d41565b6103e8811115610ae15760405162461bcd60e51b815260206004820152600c60248201526b08ccaca40e8dede40d0d2ced60a31b6044820152606401610530565b60025460408051918252602082018390527f528d9479e9f9889a87a3c30c7f7ba537e5e59c4c85a37733b16e57c62df61302910160405180910390a1600255565b610b2c5f33610cc9565b80610b495750610b495f80516020611dc483398151915233610cc9565b610b655760405162461bcd60e51b815260040161053090611d41565b6040516370a0823160e01b81523060048201525f906001600160a01b038316906370a0823190602401602060405180830381865afa158015610ba9573d5f803e3d5ffd5b505050506040513d601f19601f82011682018060405250810190610bcd9190611d6d565b90505f8111610c145760405162461bcd60e51b81526020600482015260136024820152724e6f7468696e6720746f20776974686472617760681b6044820152606401610530565b6104ed6001600160a01b03831633836117cf565b610c325f33610cc9565b80610c4f5750610c4f5f80516020611dc483398151915233610cc9565b610c6b5760405162461bcd60e51b815260040161053090611d41565b6001600160a01b0382165f81815260046020908152604091829020805460ff191685151590811790915591519182527f67821d5384bb02aab1ba91a477f89c9966cd30f475b02618bdc58712bca51275910160405180910390a25050565b5f918252602082815260408084206001600160a01b0393909316845291905290205460ff1690565b610cf9611776565b826001600160a01b0316846001600160a01b031603610d2a5760405162461bcd60e51b815260040161053090611b93565b6001600160a01b0384165f9081526004602052604090205460ff168015610d6857506001600160a01b0383165f9081526004602052604090205460ff165b610d845760405162461bcd60e51b815260040161053090611bbd565b6001600160a01b038085165f9081526005602090815260408083209387168352929052205480610de75760405162461bcd60e51b815260206004820152600e60248201526d4e6f20676c6f62616c207261746560901b6044820152606401610530565b5f610df286856109e0565b90505f670de0b6b3a7640000610e088484611d2a565b610e129190611d84565b90505f610e1f8783610fa7565b90505f61271060025483610e339190611d2a565b610e3d9190611d84565b90505f610e4a8284611c10565b905086811015610e975760405162461bcd60e51b8152602060048201526018602482015277536c6970706167653a206f757470757420746f6f206c6f7760401b6044820152606401610530565b610eac6001600160a01b038b1633308b61182e565b610ec06001600160a01b038a1633836117cf565b8115610ee057600354610ee0906001600160a01b038b81169116846117cf565b60408051898152602081018390529081018390526001600160a01b03808b1691908c169033907fec5098f8c6ad93ee0051f440ec18dcdf5d28b504e6bc4613c0d3adf4695c00c39060600160405180910390a450505050505061048e60018055565b60068181548110610f51575f80fd5b5f918252602090912060089091020180546001820154600283015460038401546004850154600586015460068701546007909701546001600160a01b039687169850948616969390951694919390929060ff1688565b5f80610fb284611395565b905060128160ff161115610ffc5760405162461bcd60e51b8152602060048201526011602482015270546f6f206d616e7920646563696d616c7360781b6044820152606401610530565b611007816012611c23565b61101290600a611d1c565b610a559084611d84565b611024611776565b600654831061105f5760405162461bcd60e51b8152602060048201526007602482015266125b9d985b1a5960ca1b6044820152606401610530565b5f6006848154811061107357611073611b7f565b5f9182526020909120600890910201600781015490915060ff166110c45760405162461bcd60e51b8152602060048201526008602482015267496e61637469766560c01b6044820152606401610530565b600181015460028201546110e4916001600160a01b039081169116611867565b6111005760405162461bcd60e51b815260040161053090611bbd565b8060060154421061113d5760405162461bcd60e51b8152602060048201526007602482015266115e1c1a5c995960ca1b6044820152606401610530565b5f83118015611150575080600401548311155b61118b5760405162461bcd60e51b815260206004820152600c60248201526b125b9d985b1a5908199a5b1b60a21b6044820152606401610530565b60018101545f906111a5906001600160a01b0316856109e0565b90505f670de0b6b3a76400008360050154836111c19190611d2a565b6111cb9190611d84565b60028401549091505f906111e8906001600160a01b031683610fa7565b90505f612710600254836111fc9190611d2a565b6112069190611d84565b90505f6112138284611c10565b9050868110156112605760405162461bcd60e51b8152602060048201526018602482015277536c6970706167653a206f757470757420746f6f206c6f7760401b6044820152606401610530565b5f811161129b5760405162461bcd60e51b8152602060048201526009602482015268151bdbc81cdb585b1b60ba1b6044820152606401610530565b60028601546112b5906001600160a01b031633308661182e565b855460028701546112d3916001600160a01b039182169116836117cf565b81156112f85760035460028701546112f8916001600160a01b039182169116846117cf565b6001860154611311906001600160a01b0316338a6117cf565b87866004015f8282546113249190611c10565b909155505060048601545f036113415760078601805460ff191690555b604080518981526020810185905290810183905233908a907f3fc859a6e9309b7067994110940aa58b5cdb00ef7a86e864022b436f8ba464809060600160405180910390a35050505050506104c760018055565b5f816001600160a01b031663313ce5676040518163ffffffff1660e01b8152600401602060405180830381865afa1580156113d2573d5f803e3d5ffd5b505050506040513d601f19601f820116820180604052508101906104649190611da3565b6114005f33610cc9565b8061141d575061141d5f80516020611dc483398151915233610cc9565b6114395760405162461bcd60e51b815260040161053090611d41565b816001600160a01b0316836001600160a01b03160361146a5760405162461bcd60e51b815260040161053090611b93565b5f81116114a55760405162461bcd60e51b81526020600482015260096024820152685a65726f207261746560b81b6044820152606401610530565b6001600160a01b0383165f9081526004602052604090205460ff1680156114e357506001600160a01b0382165f9081526004602052604090205460ff165b6114ff5760405162461bcd60e51b815260040161053090611bbd565b6001600160a01b038381165f8181526005602090815260408083209487168084529482529182902085905590518481527fbc337c774e3d398e3abf682de55e83814a46b4ab164a3d8b50740668193e1df5910160405180910390a3505050565b5f8281526020819052604090206001015461157981611674565b61048e838361170d565b61158d5f33610cc9565b806115aa57506115aa5f80516020611dc483398151915233610cc9565b6115c65760405162461bcd60e51b815260040161053090611d41565b6001600160a01b03811661160b5760405162461bcd60e51b815260206004820152600c60248201526b5a65726f206164647265737360a01b6044820152606401610530565b600354604080516001600160a01b03928316815291831660208301527faaebcf1bfa00580e41d966056b48521fa9f202645c86d4ddf28113e617c1b1d3910160405180910390a1600380546001600160a01b0319166001600160a01b0392909216919091179055565b61065f81336118cb565b5f6116898383610cc9565b611706575f838152602081815260408083206001600160a01b03861684529091529020805460ff191660011790556116be3390565b6001600160a01b0316826001600160a01b0316847f2f8788117e7eff1d82e926ec794901d17c78024a50270940304540a733656f0d60405160405180910390a4506001610464565b505f610464565b5f6117188383610cc9565b15611706575f838152602081815260408083206001600160a01b0386168085529252808320805460ff1916905551339286917ff6391f5c32d9c69d2a47ea670b442974b53935d1edc7fd64eb21e047a839171b9190a4506001610464565b6002600154036117c85760405162461bcd60e51b815260206004820152601f60248201527f5265656e7472616e637947756172643a207265656e7472616e742063616c6c006044820152606401610530565b6002600155565b6040516001600160a01b038381166024830152604482018390526104c791859182169063a9059cbb906064015b604051602081830303815290604052915060e01b6020820180516001600160e01b038381831617835250505050611904565b6040516001600160a01b03848116602483015283811660448301526064820183905261048e9186918216906323b872dd906084016117fc565b5f816001600160a01b0316836001600160a01b0316141580156118a157506001600160a01b0383165f9081526004602052604090205460ff165b80156118c457506001600160a01b0382165f9081526004602052604090205460ff165b9392505050565b6118d58282610cc9565b6104ed5760405163e2517d3f60e01b81526001600160a01b038216600482015260248101839052604401610530565b5f8060205f8451602086015f885af180611923576040513d5f823e3d81fd5b50505f513d9150811561193a578060011415611947565b6001600160a01b0384163b155b1561048e57604051635274afe760e01b81526001600160a01b0385166004820152602401610530565b5f60208284031215611980575f80fd5b81356001600160e01b0319811681146118c4575f80fd5b5f602082840312156119a7575f80fd5b5035919050565b80356001600160a01b03811681146119c4575f80fd5b919050565b5f80604083850312156119da575f80fd5b823591506119ea602084016119ae565b90509250929050565b5f8060408385031215611a04575f80fd5b611a0d836119ae565b91506119ea602084016119ae565b5f60208284031215611a2b575f80fd5b6118c4826119ae565b5f805f805f60a08688031215611a48575f80fd5b611a51866119ae565b9450611a5f602087016119ae565b94979496505050506040830135926060810135926080909101359150565b5f8060408385031215611a8e575f80fd5b611a97836119ae565b946020939093013593505050565b5f8060408385031215611ab6575f80fd5b611abf836119ae565b915060208301358015158114611ad3575f80fd5b809150509250929050565b5f805f8060808587031215611af1575f80fd5b611afa856119ae565b9350611b08602086016119ae565b93969395505050506040820135916060013590565b5f805f60608486031215611b2f575f80fd5b505081359360208301359350604090920135919050565b5f805f60608486031215611b58575f80fd5b611b61846119ae565b9250611b6f602085016119ae565b9150604084013590509250925092565b634e487b7160e01b5f52603260045260245ffd5b60208082526010908201526f4964656e746963616c20746f6b656e7360801b604082015260600190565b602080825260129082015271151bdad95b9cc81b9bdd08185b1b1bddd95960721b604082015260600190565b634e487b7160e01b5f52601160045260245ffd5b8082018082111561046457610464611be9565b8181038181111561046457610464611be9565b60ff828116828216039081111561046457610464611be9565b600181815b80851115611c7657815f1904821115611c5c57611c5c611be9565b80851615611c6957918102915b93841c9390800290611c41565b509250929050565b5f82611c8c57506001610464565b81611c9857505f610464565b8160018114611cae5760028114611cb857611cd4565b6001915050610464565b60ff841115611cc957611cc9611be9565b50506001821b610464565b5060208310610133831016604e8410600b8410161715611cf7575081810a610464565b611d018383611c3c565b805f1904821115611d1457611d14611be9565b029392505050565b5f6118c460ff841683611c7e565b808202811582820484141761046457610464611be9565b6020808252601290820152712737ba1030b236b4b717b9bab130b236b4b760711b604082015260600190565b5f60208284031215611d7d575f80fd5b5051919050565b5f82611d9e57634e487b7160e01b5f52601260045260245ffd5b500490565b5f60208284031215611db3575f80fd5b815160ff811681146118c4575f80fdfe2ccf90dd7c30b80a460e25097b3c5ef613343f69ad6b2cfd3cfb644af593ca0ba2646970667358221220c3f8e45ea766f08d2c095491a109005126fee74d0c4fe0b1810deb714bd3f4a164736f6c63430008140033",
			"opcodes": "PUSH1 0x80 PUSH1 0x40 MSTORE PUSH1 0x32 PUSH1 0x2 SSTORE CALLVALUE DUP1 ISZERO PUSH3 0x15 JUMPI PUSH0 DUP1 REVERT JUMPDEST POP PUSH1 0x40 MLOAD PUSH3 0x1FCC CODESIZE SUB DUP1 PUSH3 0x1FCC DUP4 CODECOPY DUP2 ADD PUSH1 0x40 DUP2 SWAP1 MSTORE PUSH3 0x38 SWAP2 PUSH3 0x176 JUMP JUMPDEST PUSH1 0x1 DUP1 SSTORE PUSH1 0x1 PUSH1 0x1 PUSH1 0xA0 SHL SUB DUP2 AND PUSH3 0x97 JUMPI PUSH1 0x40 MLOAD PUSH3 0x461BCD PUSH1 0xE5 SHL DUP2 MSTORE PUSH1 0x20 PUSH1 0x4 DUP3 ADD MSTORE PUSH1 0x16 PUSH1 0x24 DUP3 ADD MSTORE PUSH32 0x46656520726563697069656E7420726571756972656400000000000000000000 PUSH1 0x44 DUP3 ADD MSTORE PUSH1 0x64 ADD PUSH1 0x40 MLOAD DUP1 SWAP2 SUB SWAP1 REVERT JUMPDEST PUSH3 0xA3 PUSH0 CALLER PUSH3 0xCA JUMP JUMPDEST POP PUSH1 0x3 DUP1 SLOAD PUSH1 0x1 PUSH1 0x1 PUSH1 0xA0 SHL SUB NOT AND PUSH1 0x1 PUSH1 0x1 PUSH1 0xA0 SHL SUB SWAP3 SWAP1 SWAP3 AND SWAP2 SWAP1 SWAP2 OR SWAP1 SSTORE PUSH3 0x1A5 JUMP JUMPDEST PUSH0 DUP3 DUP2 MSTORE PUSH1 0x20 DUP2 DUP2 MSTORE PUSH1 0x40 DUP1 DUP4 KECCAK256 PUSH1 0x1 PUSH1 0x1 PUSH1 0xA0 SHL SUB DUP6 AND DUP5 MSTORE SWAP1 SWAP2 MSTORE DUP2 KECCAK256 SLOAD PUSH1 0xFF AND PUSH3 0x16D JUMPI PUSH0 DUP4 DUP2 MSTORE PUSH1 0x20 DUP2 DUP2 MSTORE PUSH1 0x40 DUP1 DUP4 KECCAK256 PUSH1 0x1 PUSH1 0x1 PUSH1 0xA0 SHL SUB DUP7 AND DUP5 MSTORE SWAP1 SWAP2 MSTORE SWAP1 KECCAK256 DUP1 SLOAD PUSH1 0xFF NOT AND PUSH1 0x1 OR SWAP1 SSTORE PUSH3 0x124 CALLER SWAP1 JUMP JUMPDEST PUSH1 0x1 PUSH1 0x1 PUSH1 0xA0 SHL SUB AND DUP3 PUSH1 0x1 PUSH1 0x1 PUSH1 0xA0 SHL SUB AND DUP5 PUSH32 0x2F8788117E7EFF1D82E926EC794901D17C78024A50270940304540A733656F0D PUSH1 0x40 MLOAD PUSH1 0x40 MLOAD DUP1 SWAP2 SUB SWAP1 LOG4 POP PUSH1 0x1 PUSH3 0x170 JUMP JUMPDEST POP PUSH0 JUMPDEST SWAP3 SWAP2 POP POP JUMP JUMPDEST PUSH0 PUSH1 0x20 DUP3 DUP5 SUB SLT ISZERO PUSH3 0x187 JUMPI PUSH0 DUP1 REVERT JUMPDEST DUP2 MLOAD PUSH1 0x1 PUSH1 0x1 PUSH1 0xA0 SHL SUB DUP2 AND DUP2 EQ PUSH3 0x19E JUMPI PUSH0 DUP1 REVERT JUMPDEST SWAP4 SWAP3 POP POP POP JUMP JUMPDEST PUSH2 0x1E19 DUP1 PUSH3 0x1B3 PUSH0 CODECOPY PUSH0 RETURN INVALID PUSH1 0x80 PUSH1 0x40 MSTORE CALLVALUE DUP1 ISZERO PUSH2 0xF JUMPI PUSH0 DUP1 REVERT JUMPDEST POP PUSH1 0x4 CALLDATASIZE LT PUSH2 0x187 JUMPI PUSH0 CALLDATALOAD PUSH1 0xE0 SHR DUP1 PUSH4 0x8AAA2284 GT PUSH2 0xD9 JUMPI DUP1 PUSH4 0xB7BA16F6 GT PUSH2 0x93 JUMPI DUP1 PUSH4 0xD4248BBE GT PUSH2 0x6E JUMPI DUP1 PUSH4 0xD4248BBE EQ PUSH2 0x3D9 JUMPI DUP1 PUSH4 0xD547741F EQ PUSH2 0x3EC JUMPI DUP1 PUSH4 0xE744092E EQ PUSH2 0x3FF JUMPI DUP1 PUSH4 0xE74B981B EQ PUSH2 0x421 JUMPI PUSH0 DUP1 REVERT JUMPDEST DUP1 PUSH4 0xB7BA16F6 EQ PUSH2 0x38D JUMPI DUP1 PUSH4 0xBA87A7C9 EQ PUSH2 0x3A0 JUMPI DUP1 PUSH4 0xCF54AAA0 EQ PUSH2 0x3B4 JUMPI PUSH0 DUP1 REVERT JUMPDEST DUP1 PUSH4 0x8AAA2284 EQ PUSH2 0x2DB JUMPI DUP1 PUSH4 0x91D14854 EQ PUSH2 0x2EE JUMPI DUP1 PUSH4 0x9E2AFEBE EQ PUSH2 0x301 JUMPI DUP1 PUSH4 0xA217FDDF EQ PUSH2 0x314 JUMPI DUP1 PUSH4 0xA85C38EF EQ PUSH2 0x31B JUMPI DUP1 PUSH4 0xB38E0FC4 EQ PUSH2 0x37A JUMPI PUSH0 DUP1 REVERT JUMPDEST DUP1 PUSH4 0x46904840 GT PUSH2 0x144 JUMPI DUP1 PUSH4 0x518E62DB GT PUSH2 0x11F JUMPI DUP1 PUSH4 0x518E62DB EQ PUSH2 0x28F JUMPI DUP1 PUSH4 0x679FB287 EQ PUSH2 0x2A2 JUMPI DUP1 PUSH4 0x69FE0E2D EQ PUSH2 0x2B5 JUMPI DUP1 PUSH4 0x6FF1C9BC EQ PUSH2 0x2C8 JUMPI PUSH0 DUP1 REVERT JUMPDEST DUP1 PUSH4 0x46904840 EQ PUSH2 0x23E JUMPI DUP1 PUSH4 0x4D910929 EQ PUSH2 0x269 JUMPI DUP1 PUSH4 0x514FCAC7 EQ PUSH2 0x27C JUMPI PUSH0 DUP1 REVERT JUMPDEST DUP1 PUSH4 0x1FFC9A7 EQ PUSH2 0x18B JUMPI DUP1 PUSH4 0x248A9CA3 EQ PUSH2 0x1B3 JUMPI DUP1 PUSH4 0x2F2FF15D EQ PUSH2 0x1E3 JUMPI DUP1 PUSH4 0x2FFDAF89 EQ PUSH2 0x1F8 JUMPI DUP1 PUSH4 0x3070E98D EQ PUSH2 0x201 JUMPI DUP1 PUSH4 0x36568ABE EQ PUSH2 0x22B JUMPI JUMPDEST PUSH0 DUP1 REVERT JUMPDEST PUSH2 0x19E PUSH2 0x199 CALLDATASIZE PUSH1 0x4 PUSH2 0x1970 JUMP JUMPDEST PUSH2 0x434 JUMP JUMPDEST PUSH1 0x40 MLOAD SWAP1 ISZERO ISZERO DUP2 MSTORE PUSH1 0x20 ADD JUMPDEST PUSH1 0x40 MLOAD DUP1 SWAP2 SUB SWAP1 RETURN JUMPDEST PUSH2 0x1D5 PUSH2 0x1C1 CALLDATASIZE PUSH1 0x4 PUSH2 0x1997 JUMP JUMPDEST PUSH0 SWAP1 DUP2 MSTORE PUSH1 0x20 DUP2 SWAP1 MSTORE PUSH1 0x40 SWAP1 KECCAK256 PUSH1 0x1 ADD SLOAD SWAP1 JUMP JUMPDEST PUSH1 0x40 MLOAD SWAP1 DUP2 MSTORE PUSH1 0x20 ADD PUSH2 0x1AA JUMP JUMPDEST PUSH2 0x1F6 PUSH2 0x1F1 CALLDATASIZE PUSH1 0x4 PUSH2 0x19C9 JUMP JUMPDEST PUSH2 0x46A JUMP JUMPDEST STOP JUMPDEST PUSH2 0x1D5 PUSH1 0x2 SLOAD DUP2 JUMP JUMPDEST PUSH2 0x1D5 PUSH2 0x20F CALLDATASIZE PUSH1 0x4 PUSH2 0x19F3 JUMP JUMPDEST PUSH1 0x5 PUSH1 0x20 SWAP1 DUP2 MSTORE PUSH0 SWAP3 DUP4 MSTORE PUSH1 0x40 DUP1 DUP5 KECCAK256 SWAP1 SWAP2 MSTORE SWAP1 DUP3 MSTORE SWAP1 KECCAK256 SLOAD DUP2 JUMP JUMPDEST PUSH2 0x1F6 PUSH2 0x239 CALLDATASIZE PUSH1 0x4 PUSH2 0x19C9 JUMP JUMPDEST PUSH2 0x494 JUMP JUMPDEST PUSH1 0x3 SLOAD PUSH2 0x251 SWAP1 PUSH1 0x1 PUSH1 0x1 PUSH1 0xA0 SHL SUB AND DUP2 JUMP JUMPDEST PUSH1 0x40 MLOAD PUSH1 0x1 PUSH1 0x1 PUSH1 0xA0 SHL SUB SWAP1 SWAP2 AND DUP2 MSTORE PUSH1 0x20 ADD PUSH2 0x1AA JUMP JUMPDEST PUSH2 0x1F6 PUSH2 0x277 CALLDATASIZE PUSH1 0x4 PUSH2 0x1A1B JUMP JUMPDEST PUSH2 0x4CC JUMP JUMPDEST PUSH2 0x1F6 PUSH2 0x28A CALLDATASIZE PUSH1 0x4 PUSH2 0x1997 JUMP JUMPDEST PUSH2 0x4F1 JUMP JUMPDEST PUSH2 0x1F6 PUSH2 0x29D CALLDATASIZE PUSH1 0x4 PUSH2 0x1A34 JUMP JUMPDEST PUSH2 0x662 JUMP JUMPDEST PUSH2 0x1D5 PUSH2 0x2B0 CALLDATASIZE PUSH1 0x4 PUSH2 0x1A7D JUMP JUMPDEST PUSH2 0x9E0 JUMP JUMPDEST PUSH2 0x1F6 PUSH2 0x2C3 CALLDATASIZE PUSH1 0x4 PUSH2 0x1997 JUMP JUMPDEST PUSH2 0xA5D JUMP JUMPDEST PUSH2 0x1F6 PUSH2 0x2D6 CALLDATASIZE PUSH1 0x4 PUSH2 0x1A1B JUMP JUMPDEST PUSH2 0xB22 JUMP JUMPDEST PUSH2 0x1F6 PUSH2 0x2E9 CALLDATASIZE PUSH1 0x4 PUSH2 0x1AA5 JUMP JUMPDEST PUSH2 0xC28 JUMP JUMPDEST PUSH2 0x19E PUSH2 0x2FC CALLDATASIZE PUSH1 0x4 PUSH2 0x19C9 JUMP JUMPDEST PUSH2 0xCC9 JUMP JUMPDEST PUSH2 0x1F6 PUSH2 0x30F CALLDATASIZE PUSH1 0x4 PUSH2 0x1ADE JUMP JUMPDEST PUSH2 0xCF1 JUMP JUMPDEST PUSH2 0x1D5 PUSH0 DUP2 JUMP JUMPDEST PUSH2 0x32E PUSH2 0x329 CALLDATASIZE PUSH1 0x4 PUSH2 0x1997 JUMP JUMPDEST PUSH2 0xF42 JUMP JUMPDEST PUSH1 0x40 DUP1 MLOAD PUSH1 0x1 PUSH1 0x1 PUSH1 0xA0 SHL SUB SWAP10 DUP11 AND DUP2 MSTORE SWAP8 DUP10 AND PUSH1 0x20 DUP10 ADD MSTORE SWAP6 SWAP1 SWAP8 AND SWAP5 DUP7 ADD SWAP5 SWAP1 SWAP5 MSTORE PUSH1 0x60 DUP6 ADD SWAP3 SWAP1 SWAP3 MSTORE PUSH1 0x80 DUP5 ADD MSTORE PUSH1 0xA0 DUP4 ADD MSTORE PUSH1 0xC0 DUP3 ADD MSTORE SWAP1 ISZERO ISZERO PUSH1 0xE0 DUP3 ADD MSTORE PUSH2 0x100 ADD PUSH2 0x1AA JUMP JUMPDEST PUSH2 0x1D5 PUSH2 0x388 CALLDATASIZE PUSH1 0x4 PUSH2 0x1A7D JUMP JUMPDEST PUSH2 0xFA7 JUMP JUMPDEST PUSH2 0x1F6 PUSH2 0x39B CALLDATASIZE PUSH1 0x4 PUSH2 0x1B1D JUMP JUMPDEST PUSH2 0x101C JUMP JUMPDEST PUSH2 0x1D5 PUSH0 DUP1 MLOAD PUSH1 0x20 PUSH2 0x1DC4 DUP4 CODECOPY DUP2 MLOAD SWAP2 MSTORE DUP2 JUMP JUMPDEST PUSH2 0x3C7 PUSH2 0x3C2 CALLDATASIZE PUSH1 0x4 PUSH2 0x1A1B JUMP JUMPDEST PUSH2 0x1395 JUMP JUMPDEST PUSH1 0x40 MLOAD PUSH1 0xFF SWAP1 SWAP2 AND DUP2 MSTORE PUSH1 0x20 ADD PUSH2 0x1AA JUMP JUMPDEST PUSH2 0x1F6 PUSH2 0x3E7 CALLDATASIZE PUSH1 0x4 PUSH2 0x1B46 JUMP JUMPDEST PUSH2 0x13F6 JUMP JUMPDEST PUSH2 0x1F6 PUSH2 0x3FA CALLDATASIZE PUSH1 0x4 PUSH2 0x19C9 JUMP JUMPDEST PUSH2 0x155F JUMP JUMPDEST PUSH2 0x19E PUSH2 0x40D CALLDATASIZE PUSH1 0x4 PUSH2 0x1A1B JUMP JUMPDEST PUSH1 0x4 PUSH1 0x20 MSTORE PUSH0 SWAP1 DUP2 MSTORE PUSH1 0x40 SWAP1 KECCAK256 SLOAD PUSH1 0xFF AND DUP2 JUMP JUMPDEST PUSH2 0x1F6 PUSH2 0x42F CALLDATASIZE PUSH1 0x4 PUSH2 0x1A1B JUMP JUMPDEST PUSH2 0x1583 JUMP JUMPDEST PUSH0 PUSH1 0x1 PUSH1 0x1 PUSH1 0xE0 SHL SUB NOT DUP3 AND PUSH4 0x7965DB0B PUSH1 0xE0 SHL EQ DUP1 PUSH2 0x464 JUMPI POP PUSH4 0x1FFC9A7 PUSH1 0xE0 SHL PUSH1 0x1 PUSH1 0x1 PUSH1 0xE0 SHL SUB NOT DUP4 AND EQ JUMPDEST SWAP3 SWAP2 POP POP JUMP JUMPDEST PUSH0 DUP3 DUP2 MSTORE PUSH1 0x20 DUP2 SWAP1 MSTORE PUSH1 0x40 SWAP1 KECCAK256 PUSH1 0x1 ADD SLOAD PUSH2 0x484 DUP2 PUSH2 0x1674 JUMP JUMPDEST PUSH2 0x48E DUP4 DUP4 PUSH2 0x167E JUMP JUMPDEST POP POP POP POP JUMP JUMPDEST PUSH1 0x1 PUSH1 0x1 PUSH1 0xA0 SHL SUB DUP2 AND CALLER EQ PUSH2 0x4BD JUMPI PUSH1 0x40 MLOAD PUSH4 0x334BD919 PUSH1 0xE1 SHL DUP2 MSTORE PUSH1 0x4 ADD PUSH1 0x40 MLOAD DUP1 SWAP2 SUB SWAP1 REVERT JUMPDEST PUSH2 0x4C7 DUP3 DUP3 PUSH2 0x170D JUMP JUMPDEST POP POP POP JUMP JUMPDEST PUSH0 PUSH2 0x4D6 DUP2 PUSH2 0x1674 JUMP JUMPDEST PUSH2 0x4ED PUSH0 DUP1 MLOAD PUSH1 0x20 PUSH2 0x1DC4 DUP4 CODECOPY DUP2 MLOAD SWAP2 MSTORE DUP4 PUSH2 0x46A JUMP JUMPDEST POP POP JUMP JUMPDEST PUSH2 0x4F9 PUSH2 0x1776 JUMP JUMPDEST PUSH1 0x6 SLOAD DUP2 LT PUSH2 0x539 JUMPI PUSH1 0x40 MLOAD PUSH3 0x461BCD PUSH1 0xE5 SHL DUP2 MSTORE PUSH1 0x20 PUSH1 0x4 DUP3 ADD MSTORE PUSH1 0x7 PUSH1 0x24 DUP3 ADD MSTORE PUSH7 0x125B9D985B1A59 PUSH1 0xCA SHL PUSH1 0x44 DUP3 ADD MSTORE PUSH1 0x64 ADD JUMPDEST PUSH1 0x40 MLOAD DUP1 SWAP2 SUB SWAP1 REVERT JUMPDEST PUSH0 PUSH1 0x6 DUP3 DUP2 SLOAD DUP2 LT PUSH2 0x54D JUMPI PUSH2 0x54D PUSH2 0x1B7F JUMP JUMPDEST PUSH0 SWAP2 DUP3 MSTORE PUSH1 0x20 SWAP1 SWAP2 KECCAK256 PUSH1 0x8 SWAP1 SWAP2 MUL ADD PUSH1 0x7 DUP2 ADD SLOAD SWAP1 SWAP2 POP PUSH1 0xFF AND PUSH2 0x59E JUMPI PUSH1 0x40 MLOAD PUSH3 0x461BCD PUSH1 0xE5 SHL DUP2 MSTORE PUSH1 0x20 PUSH1 0x4 DUP3 ADD MSTORE PUSH1 0x8 PUSH1 0x24 DUP3 ADD MSTORE PUSH8 0x496E616374697665 PUSH1 0xC0 SHL PUSH1 0x44 DUP3 ADD MSTORE PUSH1 0x64 ADD PUSH2 0x530 JUMP JUMPDEST DUP1 SLOAD PUSH1 0x1 PUSH1 0x1 PUSH1 0xA0 SHL SUB AND CALLER EQ PUSH2 0x5E4 JUMPI PUSH1 0x40 MLOAD PUSH3 0x461BCD PUSH1 0xE5 SHL DUP2 MSTORE PUSH1 0x20 PUSH1 0x4 DUP3 ADD MSTORE PUSH1 0xA PUSH1 0x24 DUP3 ADD MSTORE PUSH10 0x27B7363C9036B0B5B2B9 PUSH1 0xB1 SHL PUSH1 0x44 DUP3 ADD MSTORE PUSH1 0x64 ADD PUSH2 0x530 JUMP JUMPDEST PUSH1 0x7 DUP2 ADD DUP1 SLOAD PUSH1 0xFF NOT AND SWAP1 SSTORE PUSH1 0x4 DUP2 ADD DUP1 SLOAD PUSH0 SWAP1 SWAP2 SSTORE DUP1 ISZERO PUSH2 0x654 JUMPI PUSH1 0x1 DUP3 ADD SLOAD PUSH2 0x619 SWAP1 PUSH1 0x1 PUSH1 0x1 PUSH1 0xA0 SHL SUB AND CALLER DUP4 PUSH2 0x17CF JUMP JUMPDEST DUP3 PUSH32 0xAA2A006D186DC89A3D6851834C85D16226329AC40BCAD6531A5756A38ED1C90F DUP3 PUSH1 0x40 MLOAD PUSH2 0x64B SWAP2 DUP2 MSTORE PUSH1 0x20 ADD SWAP1 JUMP JUMPDEST PUSH1 0x40 MLOAD DUP1 SWAP2 SUB SWAP1 LOG2 JUMPDEST POP POP PUSH2 0x65F PUSH1 0x1 DUP1 SSTORE JUMP JUMPDEST POP JUMP JUMPDEST PUSH2 0x66A PUSH2 0x1776 JUMP JUMPDEST DUP4 PUSH1 0x1 PUSH1 0x1 PUSH1 0xA0 SHL SUB AND DUP6 PUSH1 0x1 PUSH1 0x1 PUSH1 0xA0 SHL SUB AND SUB PUSH2 0x69B JUMPI PUSH1 0x40 MLOAD PUSH3 0x461BCD PUSH1 0xE5 SHL DUP2 MSTORE PUSH1 0x4 ADD PUSH2 0x530 SWAP1 PUSH2 0x1B93 JUMP JUMPDEST PUSH1 0x1 PUSH1 0x1 PUSH1 0xA0 SHL SUB DUP6 AND PUSH0 SWAP1 DUP2 MSTORE PUSH1 0x4 PUSH1 0x20 MSTORE PUSH1 0x40 SWAP1 KECCAK256 SLOAD PUSH1 0xFF AND DUP1 ISZERO PUSH2 0x6D9 JUMPI POP PUSH1 0x1 PUSH1 0x1 PUSH1 0xA0 SHL SUB DUP5 AND PUSH0 SWAP1 DUP2 MSTORE PUSH1 0x4 PUSH1 0x20 MSTORE PUSH1 0x40 SWAP1 KECCAK256 SLOAD PUSH1 0xFF AND JUMPDEST PUSH2 0x6F5 JUMPI PUSH1 0x40 MLOAD PUSH3 0x461BCD PUSH1 0xE5 SHL DUP2 MSTORE PUSH1 0x4 ADD PUSH2 0x530 SWAP1 PUSH2 0x1BBD JUMP JUMPDEST PUSH0 DUP3 GT PUSH2 0x730 JUMPI PUSH1 0x40 MLOAD PUSH3 0x461BCD PUSH1 0xE5 SHL DUP2 MSTORE PUSH1 0x20 PUSH1 0x4 DUP3 ADD MSTORE PUSH1 0x9 PUSH1 0x24 DUP3 ADD MSTORE PUSH9 0x52617465207A65726F PUSH1 0xB8 SHL PUSH1 0x44 DUP3 ADD MSTORE PUSH1 0x64 ADD PUSH2 0x530 JUMP JUMPDEST PUSH0 PUSH2 0x73B DUP3 TIMESTAMP PUSH2 0x1BFD JUMP JUMPDEST SWAP1 POP PUSH0 PUSH2 0x748 DUP8 DUP7 PUSH2 0x9E0 JUMP JUMPDEST SWAP1 POP PUSH0 DUP2 GT PUSH2 0x785 JUMPI PUSH1 0x40 MLOAD PUSH3 0x461BCD PUSH1 0xE5 SHL DUP2 MSTORE PUSH1 0x20 PUSH1 0x4 DUP3 ADD MSTORE PUSH1 0x9 PUSH1 0x24 DUP3 ADD MSTORE PUSH9 0x151BDBC81CDB585B1B PUSH1 0xBA SHL PUSH1 0x44 DUP3 ADD MSTORE PUSH1 0x64 ADD PUSH2 0x530 JUMP JUMPDEST PUSH2 0x79A PUSH1 0x1 PUSH1 0x1 PUSH1 0xA0 SHL SUB DUP9 AND CALLER ADDRESS DUP9 PUSH2 0x182E JUMP JUMPDEST PUSH1 0x40 DUP1 MLOAD PUSH2 0x100 DUP2 ADD DUP3 MSTORE CALLER DUP1 DUP3 MSTORE PUSH1 0x1 PUSH1 0x1 PUSH1 0xA0 SHL SUB DUP11 DUP2 AND PUSH1 0x20 DUP5 ADD SWAP1 DUP2 MSTORE DUP11 DUP3 AND SWAP5 DUP5 ADD SWAP5 DUP6 MSTORE PUSH1 0x60 DUP5 ADD DUP11 DUP2 MSTORE PUSH1 0x80 DUP6 ADD DUP12 DUP2 MSTORE PUSH1 0xA0 DUP7 ADD DUP12 DUP2 MSTORE PUSH1 0xC0 DUP8 ADD DUP11 DUP2 MSTORE PUSH1 0x1 PUSH1 0xE0 DUP10 ADD DUP2 DUP2 MSTORE PUSH1 0x6 DUP1 SLOAD DUP1 DUP5 ADD DUP3 SSTORE PUSH0 DUP3 SWAP1 MSTORE SWAP11 MLOAD PUSH1 0x8 SWAP1 SWAP12 MUL PUSH32 0xF652222313E28459528D920B65115C16C04F3EFC82AAEDC97BE59F3F377C0D3F DUP2 ADD DUP1 SLOAD SWAP13 DUP12 AND PUSH1 0x1 PUSH1 0x1 PUSH1 0xA0 SHL SUB NOT SWAP14 DUP15 AND OR SWAP1 SSTORE SWAP8 MLOAD PUSH32 0xF652222313E28459528D920B65115C16C04F3EFC82AAEDC97BE59F3F377C0D40 DUP10 ADD DUP1 SLOAD SWAP2 DUP12 AND SWAP2 DUP14 AND SWAP2 SWAP1 SWAP2 OR SWAP1 SSTORE SWAP11 MLOAD PUSH32 0xF652222313E28459528D920B65115C16C04F3EFC82AAEDC97BE59F3F377C0D41 DUP9 ADD DUP1 SLOAD SWAP2 SWAP1 SWAP10 AND SWAP11 AND SWAP10 SWAP1 SWAP10 OR SWAP1 SWAP7 SSTORE SWAP3 MLOAD PUSH32 0xF652222313E28459528D920B65115C16C04F3EFC82AAEDC97BE59F3F377C0D42 DUP6 ADD SSTORE SWAP1 MLOAD PUSH32 0xF652222313E28459528D920B65115C16C04F3EFC82AAEDC97BE59F3F377C0D43 DUP5 ADD SSTORE MLOAD PUSH32 0xF652222313E28459528D920B65115C16C04F3EFC82AAEDC97BE59F3F377C0D44 DUP4 ADD SSTORE MLOAD PUSH32 0xF652222313E28459528D920B65115C16C04F3EFC82AAEDC97BE59F3F377C0D45 DUP3 ADD SSTORE SWAP3 MLOAD PUSH32 0xF652222313E28459528D920B65115C16C04F3EFC82AAEDC97BE59F3F377C0D46 SWAP1 SWAP4 ADD DUP1 SLOAD SWAP4 ISZERO ISZERO PUSH1 0xFF NOT SWAP1 SWAP5 AND SWAP4 SWAP1 SWAP4 OR SWAP1 SWAP3 SSTORE SWAP2 SLOAD PUSH2 0x975 SWAP2 SWAP1 PUSH2 0x1C10 JUMP JUMPDEST PUSH1 0x40 DUP1 MLOAD PUSH1 0x1 PUSH1 0x1 PUSH1 0xA0 SHL SUB DUP1 DUP13 AND DUP3 MSTORE DUP11 AND PUSH1 0x20 DUP3 ADD MSTORE SWAP1 DUP2 ADD DUP9 SWAP1 MSTORE PUSH1 0x60 DUP2 ADD DUP8 SWAP1 MSTORE PUSH1 0x80 DUP2 ADD DUP6 SWAP1 MSTORE PUSH32 0xDB932A34C9C681F70D4D797E099A8752999C25F9C9FFA2009C5F39C8F8DEE4B4 SWAP1 PUSH1 0xA0 ADD PUSH1 0x40 MLOAD DUP1 SWAP2 SUB SWAP1 LOG3 POP POP PUSH2 0x9D9 PUSH1 0x1 DUP1 SSTORE JUMP JUMPDEST POP POP POP POP POP JUMP JUMPDEST PUSH0 DUP1 PUSH2 0x9EB DUP5 PUSH2 0x1395 JUMP JUMPDEST SWAP1 POP PUSH1 0x12 DUP2 PUSH1 0xFF AND GT ISZERO PUSH2 0xA35 JUMPI PUSH1 0x40 MLOAD PUSH3 0x461BCD PUSH1 0xE5 SHL DUP2 MSTORE PUSH1 0x20 PUSH1 0x4 DUP3 ADD MSTORE PUSH1 0x11 PUSH1 0x24 DUP3 ADD MSTORE PUSH17 0x546F6F206D616E7920646563696D616C73 PUSH1 0x78 SHL PUSH1 0x44 DUP3 ADD MSTORE PUSH1 0x64 ADD PUSH2 0x530 JUMP JUMPDEST PUSH2 0xA40 DUP2 PUSH1 0x12 PUSH2 0x1C23 JUMP JUMPDEST PUSH2 0xA4B SWAP1 PUSH1 0xA PUSH2 0x1D1C JUMP JUMPDEST PUSH2 0xA55 SWAP1 DUP5 PUSH2 0x1D2A JUMP JUMPDEST SWAP5 SWAP4 POP POP POP POP JUMP JUMPDEST PUSH2 0xA67 PUSH0 CALLER PUSH2 0xCC9 JUMP JUMPDEST DUP1 PUSH2 0xA84 JUMPI POP PUSH2 0xA84 PUSH0 DUP1 MLOAD PUSH1 0x20 PUSH2 0x1DC4 DUP4 CODECOPY DUP2 MLOAD SWAP2 MSTORE CALLER PUSH2 0xCC9 JUMP JUMPDEST PUSH2 0xAA0 JUMPI PUSH1 0x40 MLOAD PUSH3 0x461BCD PUSH1 0xE5 SHL DUP2 MSTORE PUSH1 0x4 ADD PUSH2 0x530 SWAP1 PUSH2 0x1D41 JUMP JUMPDEST PUSH2 0x3E8 DUP2 GT ISZERO PUSH2 0xAE1 JUMPI PUSH1 0x40 MLOAD PUSH3 0x461BCD PUSH1 0xE5 SHL DUP2 MSTORE PUSH1 0x20 PUSH1 0x4 DUP3 ADD MSTORE PUSH1 0xC PUSH1 0x24 DUP3 ADD MSTORE PUSH12 0x8CCACA40E8DEDE40D0D2CED PUSH1 0xA3 SHL PUSH1 0x44 DUP3 ADD MSTORE PUSH1 0x64 ADD PUSH2 0x530 JUMP JUMPDEST PUSH1 0x2 SLOAD PUSH1 0x40 DUP1 MLOAD SWAP2 DUP3 MSTORE PUSH1 0x20 DUP3 ADD DUP4 SWAP1 MSTORE PUSH32 0x528D9479E9F9889A87A3C30C7F7BA537E5E59C4C85A37733B16E57C62DF61302 SWAP2 ADD PUSH1 0x40 MLOAD DUP1 SWAP2 SUB SWAP1 LOG1 PUSH1 0x2 SSTORE JUMP JUMPDEST PUSH2 0xB2C PUSH0 CALLER PUSH2 0xCC9 JUMP JUMPDEST DUP1 PUSH2 0xB49 JUMPI POP PUSH2 0xB49 PUSH0 DUP1 MLOAD PUSH1 0x20 PUSH2 0x1DC4 DUP4 CODECOPY DUP2 MLOAD SWAP2 MSTORE CALLER PUSH2 0xCC9 JUMP JUMPDEST PUSH2 0xB65 JUMPI PUSH1 0x40 MLOAD PUSH3 0x461BCD PUSH1 0xE5 SHL DUP2 MSTORE PUSH1 0x4 ADD PUSH2 0x530 SWAP1 PUSH2 0x1D41 JUMP JUMPDEST PUSH1 0x40 MLOAD PUSH4 0x70A08231 PUSH1 0xE0 SHL DUP2 MSTORE ADDRESS PUSH1 0x4 DUP3 ADD MSTORE PUSH0 SWAP1 PUSH1 0x1 PUSH1 0x1 PUSH1 0xA0 SHL SUB DUP4 AND SWAP1 PUSH4 0x70A08231 SWAP1 PUSH1 0x24 ADD PUSH1 0x20 PUSH1 0x40 MLOAD DUP1 DUP4 SUB DUP2 DUP7 GAS STATICCALL ISZERO DUP1 ISZERO PUSH2 0xBA9 JUMPI RETURNDATASIZE PUSH0 DUP1 RETURNDATACOPY RETURNDATASIZE PUSH0 REVERT JUMPDEST POP POP POP POP PUSH1 0x40 MLOAD RETURNDATASIZE PUSH1 0x1F NOT PUSH1 0x1F DUP3 ADD AND DUP3 ADD DUP1 PUSH1 0x40 MSTORE POP DUP2 ADD SWAP1 PUSH2 0xBCD SWAP2 SWAP1 PUSH2 0x1D6D JUMP JUMPDEST SWAP1 POP PUSH0 DUP2 GT PUSH2 0xC14 JUMPI PUSH1 0x40 MLOAD PUSH3 0x461BCD PUSH1 0xE5 SHL DUP2 MSTORE PUSH1 0x20 PUSH1 0x4 DUP3 ADD MSTORE PUSH1 0x13 PUSH1 0x24 DUP3 ADD MSTORE PUSH19 0x4E6F7468696E6720746F207769746864726177 PUSH1 0x68 SHL PUSH1 0x44 DUP3 ADD MSTORE PUSH1 0x64 ADD PUSH2 0x530 JUMP JUMPDEST PUSH2 0x4ED PUSH1 0x1 PUSH1 0x1 PUSH1 0xA0 SHL SUB DUP4 AND CALLER DUP4 PUSH2 0x17CF JUMP JUMPDEST PUSH2 0xC32 PUSH0 CALLER PUSH2 0xCC9 JUMP JUMPDEST DUP1 PUSH2 0xC4F JUMPI POP PUSH2 0xC4F PUSH0 DUP1 MLOAD PUSH1 0x20 PUSH2 0x1DC4 DUP4 CODECOPY DUP2 MLOAD SWAP2 MSTORE CALLER PUSH2 0xCC9 JUMP JUMPDEST PUSH2 0xC6B JUMPI PUSH1 0x40 MLOAD PUSH3 0x461BCD PUSH1 0xE5 SHL DUP2 MSTORE PUSH1 0x4 ADD PUSH2 0x530 SWAP1 PUSH2 0x1D41 JUMP JUMPDEST PUSH1 0x1 PUSH1 0x1 PUSH1 0xA0 SHL SUB DUP3 AND PUSH0 DUP2 DUP2 MSTORE PUSH1 0x4 PUSH1 0x20 SWAP1 DUP2 MSTORE PUSH1 0x40 SWAP2 DUP3 SWAP1 KECCAK256 DUP1 SLOAD PUSH1 0xFF NOT AND DUP6 ISZERO ISZERO SWAP1 DUP2 OR SWAP1 SWAP2 SSTORE SWAP2 MLOAD SWAP2 DUP3 MSTORE PUSH32 0x67821D5384BB02AAB1BA91A477F89C9966CD30F475B02618BDC58712BCA51275 SWAP2 ADD PUSH1 0x40 MLOAD DUP1 SWAP2 SUB SWAP1 LOG2 POP POP JUMP JUMPDEST PUSH0 SWAP2 DUP3 MSTORE PUSH1 0x20 DUP3 DUP2 MSTORE PUSH1 0x40 DUP1 DUP5 KECCAK256 PUSH1 0x1 PUSH1 0x1 PUSH1 0xA0 SHL SUB SWAP4 SWAP1 SWAP4 AND DUP5 MSTORE SWAP2 SWAP1 MSTORE SWAP1 KECCAK256 SLOAD PUSH1 0xFF AND SWAP1 JUMP JUMPDEST PUSH2 0xCF9 PUSH2 0x1776 JUMP JUMPDEST DUP3 PUSH1 0x1 PUSH1 0x1 PUSH1 0xA0 SHL SUB AND DUP5 PUSH1 0x1 PUSH1 0x1 PUSH1 0xA0 SHL SUB AND SUB PUSH2 0xD2A JUMPI PUSH1 0x40 MLOAD PUSH3 0x461BCD PUSH1 0xE5 SHL DUP2 MSTORE PUSH1 0x4 ADD PUSH2 0x530 SWAP1 PUSH2 0x1B93 JUMP JUMPDEST PUSH1 0x1 PUSH1 0x1 PUSH1 0xA0 SHL SUB DUP5 AND PUSH0 SWAP1 DUP2 MSTORE PUSH1 0x4 PUSH1 0x20 MSTORE PUSH1 0x40 SWAP1 KECCAK256 SLOAD PUSH1 0xFF AND DUP1 ISZERO PUSH2 0xD68 JUMPI POP PUSH1 0x1 PUSH1 0x1 PUSH1 0xA0 SHL SUB DUP4 AND PUSH0 SWAP1 DUP2 MSTORE PUSH1 0x4 PUSH1 0x20 MSTORE PUSH1 0x40 SWAP1 KECCAK256 SLOAD PUSH1 0xFF AND JUMPDEST PUSH2 0xD84 JUMPI PUSH1 0x40 MLOAD PUSH3 0x461BCD PUSH1 0xE5 SHL DUP2 MSTORE PUSH1 0x4 ADD PUSH2 0x530 SWAP1 PUSH2 0x1BBD JUMP JUMPDEST PUSH1 0x1 PUSH1 0x1 PUSH1 0xA0 SHL SUB DUP1 DUP6 AND PUSH0 SWAP1 DUP2 MSTORE PUSH1 0x5 PUSH1 0x20 SWAP1 DUP2 MSTORE PUSH1 0x40 DUP1 DUP4 KECCAK256 SWAP4 DUP8 AND DUP4 MSTORE SWAP3 SWAP1 MSTORE KECCAK256 SLOAD DUP1 PUSH2 0xDE7 JUMPI PUSH1 0x40 MLOAD PUSH3 0x461BCD PUSH1 0xE5 SHL DUP2 MSTORE PUSH1 0x20 PUSH1 0x4 DUP3 ADD MSTORE PUSH1 0xE PUSH1 0x24 DUP3 ADD MSTORE PUSH14 0x4E6F20676C6F62616C2072617465 PUSH1 0x90 SHL PUSH1 0x44 DUP3 ADD MSTORE PUSH1 0x64 ADD PUSH2 0x530 JUMP JUMPDEST PUSH0 PUSH2 0xDF2 DUP7 DUP6 PUSH2 0x9E0 JUMP JUMPDEST SWAP1 POP PUSH0 PUSH8 0xDE0B6B3A7640000 PUSH2 0xE08 DUP5 DUP5 PUSH2 0x1D2A JUMP JUMPDEST PUSH2 0xE12 SWAP2 SWAP1 PUSH2 0x1D84 JUMP JUMPDEST SWAP1 POP PUSH0 PUSH2 0xE1F DUP8 DUP4 PUSH2 0xFA7 JUMP JUMPDEST SWAP1 POP PUSH0 PUSH2 0x2710 PUSH1 0x2 SLOAD DUP4 PUSH2 0xE33 SWAP2 SWAP1 PUSH2 0x1D2A JUMP JUMPDEST PUSH2 0xE3D SWAP2 SWAP1 PUSH2 0x1D84 JUMP JUMPDEST SWAP1 POP PUSH0 PUSH2 0xE4A DUP3 DUP5 PUSH2 0x1C10 JUMP JUMPDEST SWAP1 POP DUP7 DUP2 LT ISZERO PUSH2 0xE97 JUMPI PUSH1 0x40 MLOAD PUSH3 0x461BCD PUSH1 0xE5 SHL DUP2 MSTORE PUSH1 0x20 PUSH1 0x4 DUP3 ADD MSTORE PUSH1 0x18 PUSH1 0x24 DUP3 ADD MSTORE PUSH24 0x536C6970706167653A206F757470757420746F6F206C6F77 PUSH1 0x40 SHL PUSH1 0x44 DUP3 ADD MSTORE PUSH1 0x64 ADD PUSH2 0x530 JUMP JUMPDEST PUSH2 0xEAC PUSH1 0x1 PUSH1 0x1 PUSH1 0xA0 SHL SUB DUP12 AND CALLER ADDRESS DUP12 PUSH2 0x182E JUMP JUMPDEST PUSH2 0xEC0 PUSH1 0x1 PUSH1 0x1 PUSH1 0xA0 SHL SUB DUP11 AND CALLER DUP4 PUSH2 0x17CF JUMP JUMPDEST DUP2 ISZERO PUSH2 0xEE0 JUMPI PUSH1 0x3 SLOAD PUSH2 0xEE0 SWAP1 PUSH1 0x1 PUSH1 0x1 PUSH1 0xA0 SHL SUB DUP12 DUP2 AND SWAP2 AND DUP5 PUSH2 0x17CF JUMP JUMPDEST PUSH1 0x40 DUP1 MLOAD DUP10 DUP2 MSTORE PUSH1 0x20 DUP2 ADD DUP4 SWAP1 MSTORE SWAP1 DUP2 ADD DUP4 SWAP1 MSTORE PUSH1 0x1 PUSH1 0x1 PUSH1 0xA0 SHL SUB DUP1 DUP12 AND SWAP2 SWAP1 DUP13 AND SWAP1 CALLER SWAP1 PUSH32 0xEC5098F8C6AD93EE0051F440EC18DCDF5D28B504E6BC4613C0D3ADF4695C00C3 SWAP1 PUSH1 0x60 ADD PUSH1 0x40 MLOAD DUP1 SWAP2 SUB SWAP1 LOG4 POP POP POP POP POP POP PUSH2 0x48E PUSH1 0x1 DUP1 SSTORE JUMP JUMPDEST PUSH1 0x6 DUP2 DUP2 SLOAD DUP2 LT PUSH2 0xF51 JUMPI PUSH0 DUP1 REVERT JUMPDEST PUSH0 SWAP2 DUP3 MSTORE PUSH1 0x20 SWAP1 SWAP2 KECCAK256 PUSH1 0x8 SWAP1 SWAP2 MUL ADD DUP1 SLOAD PUSH1 0x1 DUP3 ADD SLOAD PUSH1 0x2 DUP4 ADD SLOAD PUSH1 0x3 DUP5 ADD SLOAD PUSH1 0x4 DUP6 ADD SLOAD PUSH1 0x5 DUP7 ADD SLOAD PUSH1 0x6 DUP8 ADD SLOAD PUSH1 0x7 SWAP1 SWAP8 ADD SLOAD PUSH1 0x1 PUSH1 0x1 PUSH1 0xA0 SHL SUB SWAP7 DUP8 AND SWAP9 POP SWAP5 DUP7 AND SWAP7 SWAP4 SWAP1 SWAP6 AND SWAP5 SWAP2 SWAP4 SWAP1 SWAP3 SWAP1 PUSH1 0xFF AND DUP9 JUMP JUMPDEST PUSH0 DUP1 PUSH2 0xFB2 DUP5 PUSH2 0x1395 JUMP JUMPDEST SWAP1 POP PUSH1 0x12 DUP2 PUSH1 0xFF AND GT ISZERO PUSH2 0xFFC JUMPI PUSH1 0x40 MLOAD PUSH3 0x461BCD PUSH1 0xE5 SHL DUP2 MSTORE PUSH1 0x20 PUSH1 0x4 DUP3 ADD MSTORE PUSH1 0x11 PUSH1 0x24 DUP3 ADD MSTORE PUSH17 0x546F6F206D616E7920646563696D616C73 PUSH1 0x78 SHL PUSH1 0x44 DUP3 ADD MSTORE PUSH1 0x64 ADD PUSH2 0x530 JUMP JUMPDEST PUSH2 0x1007 DUP2 PUSH1 0x12 PUSH2 0x1C23 JUMP JUMPDEST PUSH2 0x1012 SWAP1 PUSH1 0xA PUSH2 0x1D1C JUMP JUMPDEST PUSH2 0xA55 SWAP1 DUP5 PUSH2 0x1D84 JUMP JUMPDEST PUSH2 0x1024 PUSH2 0x1776 JUMP JUMPDEST PUSH1 0x6 SLOAD DUP4 LT PUSH2 0x105F JUMPI PUSH1 0x40 MLOAD PUSH3 0x461BCD PUSH1 0xE5 SHL DUP2 MSTORE PUSH1 0x20 PUSH1 0x4 DUP3 ADD MSTORE PUSH1 0x7 PUSH1 0x24 DUP3 ADD MSTORE PUSH7 0x125B9D985B1A59 PUSH1 0xCA SHL PUSH1 0x44 DUP3 ADD MSTORE PUSH1 0x64 ADD PUSH2 0x530 JUMP JUMPDEST PUSH0 PUSH1 0x6 DUP5 DUP2 SLOAD DUP2 LT PUSH2 0x1073 JUMPI PUSH2 0x1073 PUSH2 0x1B7F JUMP JUMPDEST PUSH0 SWAP2 DUP3 MSTORE PUSH1 0x20 SWAP1 SWAP2 KECCAK256 PUSH1 0x8 SWAP1 SWAP2 MUL ADD PUSH1 0x7 DUP2 ADD SLOAD SWAP1 SWAP2 POP PUSH1 0xFF AND PUSH2 0x10C4 JUMPI PUSH1 0x40 MLOAD PUSH3 0x461BCD PUSH1 0xE5 SHL DUP2 MSTORE PUSH1 0x20 PUSH1 0x4 DUP3 ADD MSTORE PUSH1 0x8 PUSH1 0x24 DUP3 ADD MSTORE PUSH8 0x496E616374697665 PUSH1 0xC0 SHL PUSH1 0x44 DUP3 ADD MSTORE PUSH1 0x64 ADD PUSH2 0x530 JUMP JUMPDEST PUSH1 0x1 DUP2 ADD SLOAD PUSH1 0x2 DUP3 ADD SLOAD PUSH2 0x10E4 SWAP2 PUSH1 0x1 PUSH1 0x1 PUSH1 0xA0 SHL SUB SWAP1 DUP2 AND SWAP2 AND PUSH2 0x1867 JUMP JUMPDEST PUSH2 0x1100 JUMPI PUSH1 0x40 MLOAD PUSH3 0x461BCD PUSH1 0xE5 SHL DUP2 MSTORE PUSH1 0x4 ADD PUSH2 0x530 SWAP1 PUSH2 0x1BBD JUMP JUMPDEST DUP1 PUSH1 0x6 ADD SLOAD TIMESTAMP LT PUSH2 0x113D JUMPI PUSH1 0x40 MLOAD PUSH3 0x461BCD PUSH1 0xE5 SHL DUP2 MSTORE PUSH1 0x20 PUSH1 0x4 DUP3 ADD MSTORE PUSH1 0x7 PUSH1 0x24 DUP3 ADD MSTORE PUSH7 0x115E1C1A5C9959 PUSH1 0xCA SHL PUSH1 0x44 DUP3 ADD MSTORE PUSH1 0x64 ADD PUSH2 0x530 JUMP JUMPDEST PUSH0 DUP4 GT DUP1 ISZERO PUSH2 0x1150 JUMPI POP DUP1 PUSH1 0x4 ADD SLOAD DUP4 GT ISZERO JUMPDEST PUSH2 0x118B JUMPI PUSH1 0x40 MLOAD PUSH3 0x461BCD PUSH1 0xE5 SHL DUP2 MSTORE PUSH1 0x20 PUSH1 0x4 DUP3 ADD MSTORE PUSH1 0xC PUSH1 0x24 DUP3 ADD MSTORE PUSH12 0x125B9D985B1A5908199A5B1B PUSH1 0xA2 SHL PUSH1 0x44 DUP3 ADD MSTORE PUSH1 0x64 ADD PUSH2 0x530 JUMP JUMPDEST PUSH1 0x1 DUP2 ADD SLOAD PUSH0 SWAP1 PUSH2 0x11A5 SWAP1 PUSH1 0x1 PUSH1 0x1 PUSH1 0xA0 SHL SUB AND DUP6 PUSH2 0x9E0 JUMP JUMPDEST SWAP1 POP PUSH0 PUSH8 0xDE0B6B3A7640000 DUP4 PUSH1 0x5 ADD SLOAD DUP4 PUSH2 0x11C1 SWAP2 SWAP1 PUSH2 0x1D2A JUMP JUMPDEST PUSH2 0x11CB SWAP2 SWAP1 PUSH2 0x1D84 JUMP JUMPDEST PUSH1 0x2 DUP5 ADD SLOAD SWAP1 SWAP2 POP PUSH0 SWAP1 PUSH2 0x11E8 SWAP1 PUSH1 0x1 PUSH1 0x1 PUSH1 0xA0 SHL SUB AND DUP4 PUSH2 0xFA7 JUMP JUMPDEST SWAP1 POP PUSH0 PUSH2 0x2710 PUSH1 0x2 SLOAD DUP4 PUSH2 0x11FC SWAP2 SWAP1 PUSH2 0x1D2A JUMP JUMPDEST PUSH2 0x1206 SWAP2 SWAP1 PUSH2 0x1D84 JUMP JUMPDEST SWAP1 POP PUSH0 PUSH2 0x1213 DUP3 DUP5 PUSH2 0x1C10 JUMP JUMPDEST SWAP1 POP DUP7 DUP2 LT ISZERO PUSH2 0x1260 JUMPI PUSH1 0x40 MLOAD PUSH3 0x461BCD PUSH1 0xE5 SHL DUP2 MSTORE PUSH1 0x20 PUSH1 0x4 DUP3 ADD MSTORE PUSH1 0x18 PUSH1 0x24 DUP3 ADD MSTORE PUSH24 0x536C6970706167653A206F757470757420746F6F206C6F77 PUSH1 0x40 SHL PUSH1 0x44 DUP3 ADD MSTORE PUSH1 0x64 ADD PUSH2 0x530 JUMP JUMPDEST PUSH0 DUP2 GT PUSH2 0x129B JUMPI PUSH1 0x40 MLOAD PUSH3 0x461BCD PUSH1 0xE5 SHL DUP2 MSTORE PUSH1 0x20 PUSH1 0x4 DUP3 ADD MSTORE PUSH1 0x9 PUSH1 0x24 DUP3 ADD MSTORE PUSH9 0x151BDBC81CDB585B1B PUSH1 0xBA SHL PUSH1 0x44 DUP3 ADD MSTORE PUSH1 0x64 ADD PUSH2 0x530 JUMP JUMPDEST PUSH1 0x2 DUP7 ADD SLOAD PUSH2 0x12B5 SWAP1 PUSH1 0x1 PUSH1 0x1 PUSH1 0xA0 SHL SUB AND CALLER ADDRESS DUP7 PUSH2 0x182E JUMP JUMPDEST DUP6 SLOAD PUSH1 0x2 DUP8 ADD SLOAD PUSH2 0x12D3 SWAP2 PUSH1 0x1 PUSH1 0x1 PUSH1 0xA0 SHL SUB SWAP2 DUP3 AND SWAP2 AND DUP4 PUSH2 0x17CF JUMP JUMPDEST DUP2 ISZERO PUSH2 0x12F8 JUMPI PUSH1 0x3 SLOAD PUSH1 0x2 DUP8 ADD SLOAD PUSH2 0x12F8 SWAP2 PUSH1 0x1 PUSH1 0x1 PUSH1 0xA0 SHL SUB SWAP2 DUP3 AND SWAP2 AND DUP5 PUSH2 0x17CF JUMP JUMPDEST PUSH1 0x1 DUP7 ADD SLOAD PUSH2 0x1311 SWAP1 PUSH1 0x1 PUSH1 0x1 PUSH1 0xA0 SHL SUB AND CALLER DUP11 PUSH2 0x17CF JUMP JUMPDEST DUP8 DUP7 PUSH1 0x4 ADD PUSH0 DUP3 DUP3 SLOAD PUSH2 0x1324 SWAP2 SWAP1 PUSH2 0x1C10 JUMP JUMPDEST SWAP1 SWAP2 SSTORE POP POP PUSH1 0x4 DUP7 ADD SLOAD PUSH0 SUB PUSH2 0x1341 JUMPI PUSH1 0x7 DUP7 ADD DUP1 SLOAD PUSH1 0xFF NOT AND SWAP1 SSTORE JUMPDEST PUSH1 0x40 DUP1 MLOAD DUP10 DUP2 MSTORE PUSH1 0x20 DUP2 ADD DUP6 SWAP1 MSTORE SWAP1 DUP2 ADD DUP4 SWAP1 MSTORE CALLER SWAP1 DUP11 SWAP1 PUSH32 0x3FC859A6E9309B7067994110940AA58B5CDB00EF7A86E864022B436F8BA46480 SWAP1 PUSH1 0x60 ADD PUSH1 0x40 MLOAD DUP1 SWAP2 SUB SWAP1 LOG3 POP POP POP POP POP POP PUSH2 0x4C7 PUSH1 0x1 DUP1 SSTORE JUMP JUMPDEST PUSH0 DUP2 PUSH1 0x1 PUSH1 0x1 PUSH1 0xA0 SHL SUB AND PUSH4 0x313CE567 PUSH1 0x40 MLOAD DUP2 PUSH4 0xFFFFFFFF AND PUSH1 0xE0 SHL DUP2 MSTORE PUSH1 0x4 ADD PUSH1 0x20 PUSH1 0x40 MLOAD DUP1 DUP4 SUB DUP2 DUP7 GAS STATICCALL ISZERO DUP1 ISZERO PUSH2 0x13D2 JUMPI RETURNDATASIZE PUSH0 DUP1 RETURNDATACOPY RETURNDATASIZE PUSH0 REVERT JUMPDEST POP POP POP POP PUSH1 0x40 MLOAD RETURNDATASIZE PUSH1 0x1F NOT PUSH1 0x1F DUP3 ADD AND DUP3 ADD DUP1 PUSH1 0x40 MSTORE POP DUP2 ADD SWAP1 PUSH2 0x464 SWAP2 SWAP1 PUSH2 0x1DA3 JUMP JUMPDEST PUSH2 0x1400 PUSH0 CALLER PUSH2 0xCC9 JUMP JUMPDEST DUP1 PUSH2 0x141D JUMPI POP PUSH2 0x141D PUSH0 DUP1 MLOAD PUSH1 0x20 PUSH2 0x1DC4 DUP4 CODECOPY DUP2 MLOAD SWAP2 MSTORE CALLER PUSH2 0xCC9 JUMP JUMPDEST PUSH2 0x1439 JUMPI PUSH1 0x40 MLOAD PUSH3 0x461BCD PUSH1 0xE5 SHL DUP2 MSTORE PUSH1 0x4 ADD PUSH2 0x530 SWAP1 PUSH2 0x1D41 JUMP JUMPDEST DUP2 PUSH1 0x1 PUSH1 0x1 PUSH1 0xA0 SHL SUB AND DUP4 PUSH1 0x1 PUSH1 0x1 PUSH1 0xA0 SHL SUB AND SUB PUSH2 0x146A JUMPI PUSH1 0x40 MLOAD PUSH3 0x461BCD PUSH1 0xE5 SHL DUP2 MSTORE PUSH1 0x4 ADD PUSH2 0x530 SWAP1 PUSH2 0x1B93 JUMP JUMPDEST PUSH0 DUP2 GT PUSH2 0x14A5 JUMPI PUSH1 0x40 MLOAD PUSH3 0x461BCD PUSH1 0xE5 SHL DUP2 MSTORE PUSH1 0x20 PUSH1 0x4 DUP3 ADD MSTORE PUSH1 0x9 PUSH1 0x24 DUP3 ADD MSTORE PUSH9 0x5A65726F2072617465 PUSH1 0xB8 SHL PUSH1 0x44 DUP3 ADD MSTORE PUSH1 0x64 ADD PUSH2 0x530 JUMP JUMPDEST PUSH1 0x1 PUSH1 0x1 PUSH1 0xA0 SHL SUB DUP4 AND PUSH0 SWAP1 DUP2 MSTORE PUSH1 0x4 PUSH1 0x20 MSTORE PUSH1 0x40 SWAP1 KECCAK256 SLOAD PUSH1 0xFF AND DUP1 ISZERO PUSH2 0x14E3 JUMPI POP PUSH1 0x1 PUSH1 0x1 PUSH1 0xA0 SHL SUB DUP3 AND PUSH0 SWAP1 DUP2 MSTORE PUSH1 0x4 PUSH1 0x20 MSTORE PUSH1 0x40 SWAP1 KECCAK256 SLOAD PUSH1 0xFF AND JUMPDEST PUSH2 0x14FF JUMPI PUSH1 0x40 MLOAD PUSH3 0x461BCD PUSH1 0xE5 SHL DUP2 MSTORE PUSH1 0x4 ADD PUSH2 0x530 SWAP1 PUSH2 0x1BBD JUMP JUMPDEST PUSH1 0x1 PUSH1 0x1 PUSH1 0xA0 SHL SUB DUP4 DUP2 AND PUSH0 DUP2 DUP2 MSTORE PUSH1 0x5 PUSH1 0x20 SWAP1 DUP2 MSTORE PUSH1 0x40 DUP1 DUP4 KECCAK256 SWAP5 DUP8 AND DUP1 DUP5 MSTORE SWAP5 DUP3 MSTORE SWAP2 DUP3 SWAP1 KECCAK256 DUP6 SWAP1 SSTORE SWAP1 MLOAD DUP5 DUP2 MSTORE PUSH32 0xBC337C774E3D398E3ABF682DE55E83814A46B4AB164A3D8B50740668193E1DF5 SWAP2 ADD PUSH1 0x40 MLOAD DUP1 SWAP2 SUB SWAP1 LOG3 POP POP POP JUMP JUMPDEST PUSH0 DUP3 DUP2 MSTORE PUSH1 0x20 DUP2 SWAP1 MSTORE PUSH1 0x40 SWAP1 KECCAK256 PUSH1 0x1 ADD SLOAD PUSH2 0x1579 DUP2 PUSH2 0x1674 JUMP JUMPDEST PUSH2 0x48E DUP4 DUP4 PUSH2 0x170D JUMP JUMPDEST PUSH2 0x158D PUSH0 CALLER PUSH2 0xCC9 JUMP JUMPDEST DUP1 PUSH2 0x15AA JUMPI POP PUSH2 0x15AA PUSH0 DUP1 MLOAD PUSH1 0x20 PUSH2 0x1DC4 DUP4 CODECOPY DUP2 MLOAD SWAP2 MSTORE CALLER PUSH2 0xCC9 JUMP JUMPDEST PUSH2 0x15C6 JUMPI PUSH1 0x40 MLOAD PUSH3 0x461BCD PUSH1 0xE5 SHL DUP2 MSTORE PUSH1 0x4 ADD PUSH2 0x530 SWAP1 PUSH2 0x1D41 JUMP JUMPDEST PUSH1 0x1 PUSH1 0x1 PUSH1 0xA0 SHL SUB DUP2 AND PUSH2 0x160B JUMPI PUSH1 0x40 MLOAD PUSH3 0x461BCD PUSH1 0xE5 SHL DUP2 MSTORE PUSH1 0x20 PUSH1 0x4 DUP3 ADD MSTORE PUSH1 0xC PUSH1 0x24 DUP3 ADD MSTORE PUSH12 0x5A65726F2061646472657373 PUSH1 0xA0 SHL PUSH1 0x44 DUP3 ADD MSTORE PUSH1 0x64 ADD PUSH2 0x530 JUMP JUMPDEST PUSH1 0x3 SLOAD PUSH1 0x40 DUP1 MLOAD PUSH1 0x1 PUSH1 0x1 PUSH1 0xA0 SHL SUB SWAP3 DUP4 AND DUP2 MSTORE SWAP2 DUP4 AND PUSH1 0x20 DUP4 ADD MSTORE PUSH32 0xAAEBCF1BFA00580E41D966056B48521FA9F202645C86D4DDF28113E617C1B1D3 SWAP2 ADD PUSH1 0x40 MLOAD DUP1 SWAP2 SUB SWAP1 LOG1 PUSH1 0x3 DUP1 SLOAD PUSH1 0x1 PUSH1 0x1 PUSH1 0xA0 SHL SUB NOT AND PUSH1 0x1 PUSH1 0x1 PUSH1 0xA0 SHL SUB SWAP3 SWAP1 SWAP3 AND SWAP2 SWAP1 SWAP2 OR SWAP1 SSTORE JUMP JUMPDEST PUSH2 0x65F DUP2 CALLER PUSH2 0x18CB JUMP JUMPDEST PUSH0 PUSH2 0x1689 DUP4 DUP4 PUSH2 0xCC9 JUMP JUMPDEST PUSH2 0x1706 JUMPI PUSH0 DUP4 DUP2 MSTORE PUSH1 0x20 DUP2 DUP2 MSTORE PUSH1 0x40 DUP1 DUP4 KECCAK256 PUSH1 0x1 PUSH1 0x1 PUSH1 0xA0 SHL SUB DUP7 AND DUP5 MSTORE SWAP1 SWAP2 MSTORE SWAP1 KECCAK256 DUP1 SLOAD PUSH1 0xFF NOT AND PUSH1 0x1 OR SWAP1 SSTORE PUSH2 0x16BE CALLER SWAP1 JUMP JUMPDEST PUSH1 0x1 PUSH1 0x1 PUSH1 0xA0 SHL SUB AND DUP3 PUSH1 0x1 PUSH1 0x1 PUSH1 0xA0 SHL SUB AND DUP5 PUSH32 0x2F8788117E7EFF1D82E926EC794901D17C78024A50270940304540A733656F0D PUSH1 0x40 MLOAD PUSH1 0x40 MLOAD DUP1 SWAP2 SUB SWAP1 LOG4 POP PUSH1 0x1 PUSH2 0x464 JUMP JUMPDEST POP PUSH0 PUSH2 0x464 JUMP JUMPDEST PUSH0 PUSH2 0x1718 DUP4 DUP4 PUSH2 0xCC9 JUMP JUMPDEST ISZERO PUSH2 0x1706 JUMPI PUSH0 DUP4 DUP2 MSTORE PUSH1 0x20 DUP2 DUP2 MSTORE PUSH1 0x40 DUP1 DUP4 KECCAK256 PUSH1 0x1 PUSH1 0x1 PUSH1 0xA0 SHL SUB DUP7 AND DUP1 DUP6 MSTORE SWAP3 MSTORE DUP1 DUP4 KECCAK256 DUP1 SLOAD PUSH1 0xFF NOT AND SWAP1 SSTORE MLOAD CALLER SWAP3 DUP7 SWAP2 PUSH32 0xF6391F5C32D9C69D2A47EA670B442974B53935D1EDC7FD64EB21E047A839171B SWAP2 SWAP1 LOG4 POP PUSH1 0x1 PUSH2 0x464 JUMP JUMPDEST PUSH1 0x2 PUSH1 0x1 SLOAD SUB PUSH2 0x17C8 JUMPI PUSH1 0x40 MLOAD PUSH3 0x461BCD PUSH1 0xE5 SHL DUP2 MSTORE PUSH1 0x20 PUSH1 0x4 DUP3 ADD MSTORE PUSH1 0x1F PUSH1 0x24 DUP3 ADD MSTORE PUSH32 0x5265656E7472616E637947756172643A207265656E7472616E742063616C6C00 PUSH1 0x44 DUP3 ADD MSTORE PUSH1 0x64 ADD PUSH2 0x530 JUMP JUMPDEST PUSH1 0x2 PUSH1 0x1 SSTORE JUMP JUMPDEST PUSH1 0x40 MLOAD PUSH1 0x1 PUSH1 0x1 PUSH1 0xA0 SHL SUB DUP4 DUP2 AND PUSH1 0x24 DUP4 ADD MSTORE PUSH1 0x44 DUP3 ADD DUP4 SWAP1 MSTORE PUSH2 0x4C7 SWAP2 DUP6 SWAP2 DUP3 AND SWAP1 PUSH4 0xA9059CBB SWAP1 PUSH1 0x64 ADD JUMPDEST PUSH1 0x40 MLOAD PUSH1 0x20 DUP2 DUP4 SUB SUB DUP2 MSTORE SWAP1 PUSH1 0x40 MSTORE SWAP2 POP PUSH1 0xE0 SHL PUSH1 0x20 DUP3 ADD DUP1 MLOAD PUSH1 0x1 PUSH1 0x1 PUSH1 0xE0 SHL SUB DUP4 DUP2 DUP4 AND OR DUP4 MSTORE POP POP POP POP PUSH2 0x1904 JUMP JUMPDEST PUSH1 0x40 MLOAD PUSH1 0x1 PUSH1 0x1 PUSH1 0xA0 SHL SUB DUP5 DUP2 AND PUSH1 0x24 DUP4 ADD MSTORE DUP4 DUP2 AND PUSH1 0x44 DUP4 ADD MSTORE PUSH1 0x64 DUP3 ADD DUP4 SWAP1 MSTORE PUSH2 0x48E SWAP2 DUP7 SWAP2 DUP3 AND SWAP1 PUSH4 0x23B872DD SWAP1 PUSH1 0x84 ADD PUSH2 0x17FC JUMP JUMPDEST PUSH0 DUP2 PUSH1 0x1 PUSH1 0x1 PUSH1 0xA0 SHL SUB AND DUP4 PUSH1 0x1 PUSH1 0x1 PUSH1 0xA0 SHL SUB AND EQ ISZERO DUP1 ISZERO PUSH2 0x18A1 JUMPI POP PUSH1 0x1 PUSH1 0x1 PUSH1 0xA0 SHL SUB DUP4 AND PUSH0 SWAP1 DUP2 MSTORE PUSH1 0x4 PUSH1 0x20 MSTORE PUSH1 0x40 SWAP1 KECCAK256 SLOAD PUSH1 0xFF AND JUMPDEST DUP1 ISZERO PUSH2 0x18C4 JUMPI POP PUSH1 0x1 PUSH1 0x1 PUSH1 0xA0 SHL SUB DUP3 AND PUSH0 SWAP1 DUP2 MSTORE PUSH1 0x4 PUSH1 0x20 MSTORE PUSH1 0x40 SWAP1 KECCAK256 SLOAD PUSH1 0xFF AND JUMPDEST SWAP4 SWAP3 POP POP POP JUMP JUMPDEST PUSH2 0x18D5 DUP3 DUP3 PUSH2 0xCC9 JUMP JUMPDEST PUSH2 0x4ED JUMPI PUSH1 0x40 MLOAD PUSH4 0xE2517D3F PUSH1 0xE0 SHL DUP2 MSTORE PUSH1 0x1 PUSH1 0x1 PUSH1 0xA0 SHL SUB DUP3 AND PUSH1 0x4 DUP3 ADD MSTORE PUSH1 0x24 DUP2 ADD DUP4 SWAP1 MSTORE PUSH1 0x44 ADD PUSH2 0x530 JUMP JUMPDEST PUSH0 DUP1 PUSH1 0x20 PUSH0 DUP5 MLOAD PUSH1 0x20 DUP7 ADD PUSH0 DUP9 GAS CALL DUP1 PUSH2 0x1923 JUMPI PUSH1 0x40 MLOAD RETURNDATASIZE PUSH0 DUP3 RETURNDATACOPY RETURNDATASIZE DUP2 REVERT JUMPDEST POP POP PUSH0 MLOAD RETURNDATASIZE SWAP2 POP DUP2 ISZERO PUSH2 0x193A JUMPI DUP1 PUSH1 0x1 EQ ISZERO PUSH2 0x1947 JUMP JUMPDEST PUSH1 0x1 PUSH1 0x1 PUSH1 0xA0 SHL SUB DUP5 AND EXTCODESIZE ISZERO JUMPDEST ISZERO PUSH2 0x48E JUMPI PUSH1 0x40 MLOAD PUSH4 0x5274AFE7 PUSH1 0xE0 SHL DUP2 MSTORE PUSH1 0x1 PUSH1 0x1 PUSH1 0xA0 SHL SUB DUP6 AND PUSH1 0x4 DUP3 ADD MSTORE PUSH1 0x24 ADD PUSH2 0x530 JUMP JUMPDEST PUSH0 PUSH1 0x20 DUP3 DUP5 SUB SLT ISZERO PUSH2 0x1980 JUMPI PUSH0 DUP1 REVERT JUMPDEST DUP2 CALLDATALOAD PUSH1 0x1 PUSH1 0x1 PUSH1 0xE0 SHL SUB NOT DUP2 AND DUP2 EQ PUSH2 0x18C4 JUMPI PUSH0 DUP1 REVERT JUMPDEST PUSH0 PUSH1 0x20 DUP3 DUP5 SUB SLT ISZERO PUSH2 0x19A7 JUMPI PUSH0 DUP1 REVERT JUMPDEST POP CALLDATALOAD SWAP2 SWAP1 POP JUMP JUMPDEST DUP1 CALLDATALOAD PUSH1 0x1 PUSH1 0x1 PUSH1 0xA0 SHL SUB DUP2 AND DUP2 EQ PUSH2 0x19C4 JUMPI PUSH0 DUP1 REVERT JUMPDEST SWAP2 SWAP1 POP JUMP JUMPDEST PUSH0 DUP1 PUSH1 0x40 DUP4 DUP6 SUB SLT ISZERO PUSH2 0x19DA JUMPI PUSH0 DUP1 REVERT JUMPDEST DUP3 CALLDATALOAD SWAP2 POP PUSH2 0x19EA PUSH1 0x20 DUP5 ADD PUSH2 0x19AE JUMP JUMPDEST SWAP1 POP SWAP3 POP SWAP3 SWAP1 POP JUMP JUMPDEST PUSH0 DUP1 PUSH1 0x40 DUP4 DUP6 SUB SLT ISZERO PUSH2 0x1A04 JUMPI PUSH0 DUP1 REVERT JUMPDEST PUSH2 0x1A0D DUP4 PUSH2 0x19AE JUMP JUMPDEST SWAP2 POP PUSH2 0x19EA PUSH1 0x20 DUP5 ADD PUSH2 0x19AE JUMP JUMPDEST PUSH0 PUSH1 0x20 DUP3 DUP5 SUB SLT ISZERO PUSH2 0x1A2B JUMPI PUSH0 DUP1 REVERT JUMPDEST PUSH2 0x18C4 DUP3 PUSH2 0x19AE JUMP JUMPDEST PUSH0 DUP1 PUSH0 DUP1 PUSH0 PUSH1 0xA0 DUP7 DUP9 SUB SLT ISZERO PUSH2 0x1A48 JUMPI PUSH0 DUP1 REVERT JUMPDEST PUSH2 0x1A51 DUP7 PUSH2 0x19AE JUMP JUMPDEST SWAP5 POP PUSH2 0x1A5F PUSH1 0x20 DUP8 ADD PUSH2 0x19AE JUMP JUMPDEST SWAP5 SWAP8 SWAP5 SWAP7 POP POP POP POP PUSH1 0x40 DUP4 ADD CALLDATALOAD SWAP3 PUSH1 0x60 DUP2 ADD CALLDATALOAD SWAP3 PUSH1 0x80 SWAP1 SWAP2 ADD CALLDATALOAD SWAP2 POP JUMP JUMPDEST PUSH0 DUP1 PUSH1 0x40 DUP4 DUP6 SUB SLT ISZERO PUSH2 0x1A8E JUMPI PUSH0 DUP1 REVERT JUMPDEST PUSH2 0x1A97 DUP4 PUSH2 0x19AE JUMP JUMPDEST SWAP5 PUSH1 0x20 SWAP4 SWAP1 SWAP4 ADD CALLDATALOAD SWAP4 POP POP POP JUMP JUMPDEST PUSH0 DUP1 PUSH1 0x40 DUP4 DUP6 SUB SLT ISZERO PUSH2 0x1AB6 JUMPI PUSH0 DUP1 REVERT JUMPDEST PUSH2 0x1ABF DUP4 PUSH2 0x19AE JUMP JUMPDEST SWAP2 POP PUSH1 0x20 DUP4 ADD CALLDATALOAD DUP1 ISZERO ISZERO DUP2 EQ PUSH2 0x1AD3 JUMPI PUSH0 DUP1 REVERT JUMPDEST DUP1 SWAP2 POP POP SWAP3 POP SWAP3 SWAP1 POP JUMP JUMPDEST PUSH0 DUP1 PUSH0 DUP1 PUSH1 0x80 DUP6 DUP8 SUB SLT ISZERO PUSH2 0x1AF1 JUMPI PUSH0 DUP1 REVERT JUMPDEST PUSH2 0x1AFA DUP6 PUSH2 0x19AE JUMP JUMPDEST SWAP4 POP PUSH2 0x1B08 PUSH1 0x20 DUP7 ADD PUSH2 0x19AE JUMP JUMPDEST SWAP4 SWAP7 SWAP4 SWAP6 POP POP POP POP PUSH1 0x40 DUP3 ADD CALLDATALOAD SWAP2 PUSH1 0x60 ADD CALLDATALOAD SWAP1 JUMP JUMPDEST PUSH0 DUP1 PUSH0 PUSH1 0x60 DUP5 DUP7 SUB SLT ISZERO PUSH2 0x1B2F JUMPI PUSH0 DUP1 REVERT JUMPDEST POP POP DUP2 CALLDATALOAD SWAP4 PUSH1 0x20 DUP4 ADD CALLDATALOAD SWAP4 POP PUSH1 0x40 SWAP1 SWAP3 ADD CALLDATALOAD SWAP2 SWAP1 POP JUMP JUMPDEST PUSH0 DUP1 PUSH0 PUSH1 0x60 DUP5 DUP7 SUB SLT ISZERO PUSH2 0x1B58 JUMPI PUSH0 DUP1 REVERT JUMPDEST PUSH2 0x1B61 DUP5 PUSH2 0x19AE JUMP JUMPDEST SWAP3 POP PUSH2 0x1B6F PUSH1 0x20 DUP6 ADD PUSH2 0x19AE JUMP JUMPDEST SWAP2 POP PUSH1 0x40 DUP5 ADD CALLDATALOAD SWAP1 POP SWAP3 POP SWAP3 POP SWAP3 JUMP JUMPDEST PUSH4 0x4E487B71 PUSH1 0xE0 SHL PUSH0 MSTORE PUSH1 0x32 PUSH1 0x4 MSTORE PUSH1 0x24 PUSH0 REVERT JUMPDEST PUSH1 0x20 DUP1 DUP3 MSTORE PUSH1 0x10 SWAP1 DUP3 ADD MSTORE PUSH16 0x4964656E746963616C20746F6B656E73 PUSH1 0x80 SHL PUSH1 0x40 DUP3 ADD MSTORE PUSH1 0x60 ADD SWAP1 JUMP JUMPDEST PUSH1 0x20 DUP1 DUP3 MSTORE PUSH1 0x12 SWAP1 DUP3 ADD MSTORE PUSH18 0x151BDAD95B9CC81B9BDD08185B1B1BDDD959 PUSH1 0x72 SHL PUSH1 0x40 DUP3 ADD MSTORE PUSH1 0x60 ADD SWAP1 JUMP JUMPDEST PUSH4 0x4E487B71 PUSH1 0xE0 SHL PUSH0 MSTORE PUSH1 0x11 PUSH1 0x4 MSTORE PUSH1 0x24 PUSH0 REVERT JUMPDEST DUP1 DUP3 ADD DUP1 DUP3 GT ISZERO PUSH2 0x464 JUMPI PUSH2 0x464 PUSH2 0x1BE9 JUMP JUMPDEST DUP2 DUP2 SUB DUP2 DUP2 GT ISZERO PUSH2 0x464 JUMPI PUSH2 0x464 PUSH2 0x1BE9 JUMP JUMPDEST PUSH1 0xFF DUP3 DUP2 AND DUP3 DUP3 AND SUB SWAP1 DUP2 GT ISZERO PUSH2 0x464 JUMPI PUSH2 0x464 PUSH2 0x1BE9 JUMP JUMPDEST PUSH1 0x1 DUP2 DUP2 JUMPDEST DUP1 DUP6 GT ISZERO PUSH2 0x1C76 JUMPI DUP2 PUSH0 NOT DIV DUP3 GT ISZERO PUSH2 0x1C5C JUMPI PUSH2 0x1C5C PUSH2 0x1BE9 JUMP JUMPDEST DUP1 DUP6 AND ISZERO PUSH2 0x1C69 JUMPI SWAP2 DUP2 MUL SWAP2 JUMPDEST SWAP4 DUP5 SHR SWAP4 SWAP1 DUP1 MUL SWAP1 PUSH2 0x1C41 JUMP JUMPDEST POP SWAP3 POP SWAP3 SWAP1 POP JUMP JUMPDEST PUSH0 DUP3 PUSH2 0x1C8C JUMPI POP PUSH1 0x1 PUSH2 0x464 JUMP JUMPDEST DUP2 PUSH2 0x1C98 JUMPI POP PUSH0 PUSH2 0x464 JUMP JUMPDEST DUP2 PUSH1 0x1 DUP2 EQ PUSH2 0x1CAE JUMPI PUSH1 0x2 DUP2 EQ PUSH2 0x1CB8 JUMPI PUSH2 0x1CD4 JUMP JUMPDEST PUSH1 0x1 SWAP2 POP POP PUSH2 0x464 JUMP JUMPDEST PUSH1 0xFF DUP5 GT ISZERO PUSH2 0x1CC9 JUMPI PUSH2 0x1CC9 PUSH2 0x1BE9 JUMP JUMPDEST POP POP PUSH1 0x1 DUP3 SHL PUSH2 0x464 JUMP JUMPDEST POP PUSH1 0x20 DUP4 LT PUSH2 0x133 DUP4 LT AND PUSH1 0x4E DUP5 LT PUSH1 0xB DUP5 LT AND OR ISZERO PUSH2 0x1CF7 JUMPI POP DUP2 DUP2 EXP PUSH2 0x464 JUMP JUMPDEST PUSH2 0x1D01 DUP4 DUP4 PUSH2 0x1C3C JUMP JUMPDEST DUP1 PUSH0 NOT DIV DUP3 GT ISZERO PUSH2 0x1D14 JUMPI PUSH2 0x1D14 PUSH2 0x1BE9 JUMP JUMPDEST MUL SWAP4 SWAP3 POP POP POP JUMP JUMPDEST PUSH0 PUSH2 0x18C4 PUSH1 0xFF DUP5 AND DUP4 PUSH2 0x1C7E JUMP JUMPDEST DUP1 DUP3 MUL DUP2 ISZERO DUP3 DUP3 DIV DUP5 EQ OR PUSH2 0x464 JUMPI PUSH2 0x464 PUSH2 0x1BE9 JUMP JUMPDEST PUSH1 0x20 DUP1 DUP3 MSTORE PUSH1 0x12 SWAP1 DUP3 ADD MSTORE PUSH18 0x2737BA1030B236B4B717B9BAB130B236B4B7 PUSH1 0x71 SHL PUSH1 0x40 DUP3 ADD MSTORE PUSH1 0x60 ADD SWAP1 JUMP JUMPDEST PUSH0 PUSH1 0x20 DUP3 DUP5 SUB SLT ISZERO PUSH2 0x1D7D JUMPI PUSH0 DUP1 REVERT JUMPDEST POP MLOAD SWAP2 SWAP1 POP JUMP JUMPDEST PUSH0 DUP3 PUSH2 0x1D9E JUMPI PUSH4 0x4E487B71 PUSH1 0xE0 SHL PUSH0 MSTORE PUSH1 0x12 PUSH1 0x4 MSTORE PUSH1 0x24 PUSH0 REVERT JUMPDEST POP DIV SWAP1 JUMP JUMPDEST PUSH0 PUSH1 0x20 DUP3 DUP5 SUB SLT ISZERO PUSH2 0x1DB3 JUMPI PUSH0 DUP1 REVERT JUMPDEST DUP2 MLOAD PUSH1 0xFF DUP2 AND DUP2 EQ PUSH2 0x18C4 JUMPI PUSH0 DUP1 REVERT INVALID 0x2C 0xCF SWAP1 0xDD PUSH29 0x30B80A460E25097B3C5EF613343F69AD6B2CFD3CFB644AF593CA0BA264 PUSH10 0x70667358221220C3F8E4 0x5E 0xA7 PUSH7 0xF08D2C095491A1 MULMOD STOP MLOAD 0x26 INVALID 0xE7 0x4D 0xC 0x4F 0xE0 0xB1 DUP2 0xD 0xEB PUSH18 0x4BD3F4A164736F6C63430008140033000000 "
		},
		"gasEstimates": {
			"creation": {
				"codeDepositCost": "1541000",
				"executionCost": "infinite",
				"totalCost": "infinite"
			},
			"external": {
				"DEFAULT_ADMIN_ROLE()": "282",
				"SUBADMIN_ROLE()": "infinite",
				"allowedTokens(address)": "2605",
				"cancelOrder(uint256)": "infinite",
				"createOrder(address,address,uint256,uint256,uint256)": "infinite",
				"denormalize(address,uint256)": "infinite",
				"emergencyWithdraw(address)": "infinite",
				"feeRecipient()": "2382",
				"getDecimals(address)": "infinite",
				"getRoleAdmin(bytes32)": "2490",
				"globalRates(address,address)": "infinite",
				"grantRole(bytes32,address)": "infinite",
				"grantSubAdmin(address)": "infinite",
				"hasRole(bytes32,address)": "2693",
				"matchOrder(uint256,uint256,uint256)": "infinite",
				"normalize(address,uint256)": "infinite",
				"orders(uint256)": "19715",
				"renounceRole(bytes32,address)": "29152",
				"revokeRole(bytes32,address)": "infinite",
				"setAllowedToken(address,bool)": "infinite",
				"setFee(uint256)": "infinite",
				"setFeeRecipient(address)": "infinite",
				"setGlobalRate(address,address,uint256)": "infinite",
				"supportsInterface(bytes4)": "447",
				"swapFeeBps()": "2384",
				"swapGlobal(address,address,uint256,uint256)": "infinite"
			},
			"internal": {
				"tokenInOutAllowed(address,address)": "4511"
			}
		},
		"methodIdentifiers": {
			"DEFAULT_ADMIN_ROLE()": "a217fddf",
			"SUBADMIN_ROLE()": "ba87a7c9",
			"allowedTokens(address)": "e744092e",
			"cancelOrder(uint256)": "514fcac7",
			"createOrder(address,address,uint256,uint256,uint256)": "518e62db",
			"denormalize(address,uint256)": "b38e0fc4",
			"emergencyWithdraw(address)": "6ff1c9bc",
			"feeRecipient()": "46904840",
			"getDecimals(address)": "cf54aaa0",
			"getRoleAdmin(bytes32)": "248a9ca3",
			"globalRates(address,address)": "3070e98d",
			"grantRole(bytes32,address)": "2f2ff15d",
			"grantSubAdmin(address)": "4d910929",
			"hasRole(bytes32,address)": "91d14854",
			"matchOrder(uint256,uint256,uint256)": "b7ba16f6",
			"normalize(address,uint256)": "679fb287",
			"orders(uint256)": "a85c38ef",
			"renounceRole(bytes32,address)": "36568abe",
			"revokeRole(bytes32,address)": "d547741f",
			"setAllowedToken(address,bool)": "8aaa2284",
			"setFee(uint256)": "69fe0e2d",
			"setFeeRecipient(address)": "e74b981b",
			"setGlobalRate(address,address,uint256)": "d4248bbe",
			"supportsInterface(bytes4)": "01ffc9a7",
			"swapFeeBps()": "2ffdaf89",
			"swapGlobal(address,address,uint256,uint256)": "9e2afebe"
		}
	},
	"abi": [
		{
			"inputs": [
				{
					"internalType": "address",
					"name": "_feeRecipient",
					"type": "address"
				}
			],
			"stateMutability": "nonpayable",
			"type": "constructor"
		},
		{
			"inputs": [],
			"name": "AccessControlBadConfirmation",
			"type": "error"
		},
		{
			"inputs": [
				{
					"internalType": "address",
					"name": "account",
					"type": "address"
				},
				{
					"internalType": "bytes32",
					"name": "neededRole",
					"type": "bytes32"
				}
			],
			"name": "AccessControlUnauthorizedAccount",
			"type": "error"
		},
		{
			"inputs": [
				{
					"internalType": "address",
					"name": "token",
					"type": "address"
				}
			],
			"name": "SafeERC20FailedOperation",
			"type": "error"
		},
		{
			"anonymous": false,
			"inputs": [
				{
					"indexed": false,
					"internalType": "address",
					"name": "oldRecipient",
					"type": "address"
				},
				{
					"indexed": false,
					"internalType": "address",
					"name": "newRecipient",
					"type": "address"
				}
			],
			"name": "FeeRecipientUpdated",
			"type": "event"
		},
		{
			"anonymous": false,
			"inputs": [
				{
					"indexed": false,
					"internalType": "uint256",
					"name": "oldFeeBps",
					"type": "uint256"
				},
				{
					"indexed": false,
					"internalType": "uint256",
					"name": "newFeeBps",
					"type": "uint256"
				}
			],
			"name": "FeeUpdated",
			"type": "event"
		},
		{
			"anonymous": false,
			"inputs": [
				{
					"indexed": true,
					"internalType": "address",
					"name": "tokenIn",
					"type": "address"
				},
				{
					"indexed": true,
					"internalType": "address",
					"name": "tokenOut",
					"type": "address"
				},
				{
					"indexed": false,
					"internalType": "uint256",
					"name": "rate",
					"type": "uint256"
				}
			],
			"name": "GlobalRateSet",
			"type": "event"
		},
		{
			"anonymous": false,
			"inputs": [
				{
					"indexed": true,
					"internalType": "uint256",
					"name": "orderId",
					"type": "uint256"
				},
				{
					"indexed": false,
					"internalType": "uint256",
					"name": "amountRefunded",
					"type": "uint256"
				}
			],
			"name": "OrderCancelled",
			"type": "event"
		},
		{
			"anonymous": false,
			"inputs": [
				{
					"indexed": true,
					"internalType": "uint256",
					"name": "orderId",
					"type": "uint256"
				},
				{
					"indexed": true,
					"internalType": "address",
					"name": "maker",
					"type": "address"
				},
				{
					"indexed": false,
					"internalType": "address",
					"name": "tokenIn",
					"type": "address"
				},
				{
					"indexed": false,
					"internalType": "address",
					"name": "tokenOut",
					"type": "address"
				},
				{
					"indexed": false,
					"internalType": "uint256",
					"name": "amountInitial",
					"type": "uint256"
				},
				{
					"indexed": false,
					"internalType": "uint256",
					"name": "rate",
					"type": "uint256"
				},
				{
					"indexed": false,
					"internalType": "uint256",
					"name": "expiresAt",
					"type": "uint256"
				}
			],
			"name": "OrderCreated",
			"type": "event"
		},
		{
			"anonymous": false,
			"inputs": [
				{
					"indexed": true,
					"internalType": "uint256",
					"name": "orderId",
					"type": "uint256"
				},
				{
					"indexed": true,
					"internalType": "address",
					"name": "taker",
					"type": "address"
				},
				{
					"indexed": false,
					"internalType": "uint256",
					"name": "fillAmount",
					"type": "uint256"
				},
				{
					"indexed": false,
					"internalType": "uint256",
					"name": "outAmount",
					"type": "uint256"
				},
				{
					"indexed": false,
					"internalType": "uint256",
					"name": "fee",
					"type": "uint256"
				}
			],
			"name": "OrderMatched",
			"type": "event"
		},
		{
			"anonymous": false,
			"inputs": [
				{
					"indexed": true,
					"internalType": "bytes32",
					"name": "role",
					"type": "bytes32"
				},
				{
					"indexed": true,
					"internalType": "bytes32",
					"name": "previousAdminRole",
					"type": "bytes32"
				},
				{
					"indexed": true,
					"internalType": "bytes32",
					"name": "newAdminRole",
					"type": "bytes32"
				}
			],
			"name": "RoleAdminChanged",
			"type": "event"
		},
		{
			"anonymous": false,
			"inputs": [
				{
					"indexed": true,
					"internalType": "bytes32",
					"name": "role",
					"type": "bytes32"
				},
				{
					"indexed": true,
					"internalType": "address",
					"name": "account",
					"type": "address"
				},
				{
					"indexed": true,
					"internalType": "address",
					"name": "sender",
					"type": "address"
				}
			],
			"name": "RoleGranted",
			"type": "event"
		},
		{
			"anonymous": false,
			"inputs": [
				{
					"indexed": true,
					"internalType": "bytes32",
					"name": "role",
					"type": "bytes32"
				},
				{
					"indexed": true,
					"internalType": "address",
					"name": "account",
					"type": "address"
				},
				{
					"indexed": true,
					"internalType": "address",
					"name": "sender",
					"type": "address"
				}
			],
			"name": "RoleRevoked",
			"type": "event"
		},
		{
			"anonymous": false,
			"inputs": [
				{
					"indexed": true,
					"internalType": "address",
					"name": "sender",
					"type": "address"
				},
				{
					"indexed": true,
					"internalType": "address",
					"name": "tokenIn",
					"type": "address"
				},
				{
					"indexed": true,
					"internalType": "address",
					"name": "tokenOut",
					"type": "address"
				},
				{
					"indexed": false,
					"internalType": "uint256",
					"name": "amountIn",
					"type": "uint256"
				},
				{
					"indexed": false,
					"internalType": "uint256",
					"name": "amountOut",
					"type": "uint256"
				},
				{
					"indexed": false,
					"internalType": "uint256",
					"name": "fee",
					"type": "uint256"
				}
			],
			"name": "SwapGlobal",
			"type": "event"
		},
		{
			"anonymous": false,
			"inputs": [
				{
					"indexed": true,
					"internalType": "address",
					"name": "token",
					"type": "address"
				},
				{
					"indexed": false,
					"internalType": "bool",
					"name": "allowed",
					"type": "bool"
				}
			],
			"name": "TokenWhitelistUpdated",
			"type": "event"
		},
		{
			"inputs": [],
			"name": "DEFAULT_ADMIN_ROLE",
			"outputs": [
				{
					"internalType": "bytes32",
					"name": "",
					"type": "bytes32"
				}
			],
			"stateMutability": "view",
			"type": "function"
		},
		{
			"inputs": [],
			"name": "SUBADMIN_ROLE",
			"outputs": [
				{
					"internalType": "bytes32",
					"name": "",
					"type": "bytes32"
				}
			],
			"stateMutability": "view",
			"type": "function"
		},
		{
			"inputs": [
				{
					"internalType": "address",
					"name": "",
					"type": "address"
				}
			],
			"name": "allowedTokens",
			"outputs": [
				{
					"internalType": "bool",
					"name": "",
					"type": "bool"
				}
			],
			"stateMutability": "view",
			"type": "function"
		},
		{
			"inputs": [
				{
					"internalType": "uint256",
					"name": "orderId",
					"type": "uint256"
				}
			],
			"name": "cancelOrder",
			"outputs": [],
			"stateMutability": "nonpayable",
			"type": "function"
		},
		{
			"inputs": [
				{
					"internalType": "address",
					"name": "tokenIn",
					"type": "address"
				},
				{
					"internalType": "address",
					"name": "tokenOut",
					"type": "address"
				},
				{
					"internalType": "uint256",
					"name": "amountIn",
					"type": "uint256"
				},
				{
					"internalType": "uint256",
					"name": "rate",
					"type": "uint256"
				},
				{
					"internalType": "uint256",
					"name": "expiresInSeconds",
					"type": "uint256"
				}
			],
			"name": "createOrder",
			"outputs": [],
			"stateMutability": "nonpayable",
			"type": "function"
		},
		{
			"inputs": [
				{
					"internalType": "address",
					"name": "token",
					"type": "address"
				},
				{
					"internalType": "uint256",
					"name": "nAmount",
					"type": "uint256"
				}
			],
			"name": "denormalize",
			"outputs": [
				{
					"internalType": "uint256",
					"name": "",
					"type": "uint256"
				}
			],
			"stateMutability": "view",
			"type": "function"
		},
		{
			"inputs": [
				{
					"internalType": "address",
					"name": "token",
					"type": "address"
				}
			],
			"name": "emergencyWithdraw",
			"outputs": [],
			"stateMutability": "nonpayable",
			"type": "function"
		},
		{
			"inputs": [],
			"name": "feeRecipient",
			"outputs": [
				{
					"internalType": "address",
					"name": "",
					"type": "address"
				}
			],
			"stateMutability": "view",
			"type": "function"
		},
		{
			"inputs": [
				{
					"internalType": "address",
					"name": "token",
					"type": "address"
				}
			],
			"name": "getDecimals",
			"outputs": [
				{
					"internalType": "uint8",
					"name": "",
					"type": "uint8"
				}
			],
			"stateMutability": "view",
			"type": "function"
		},
		{
			"inputs": [
				{
					"internalType": "bytes32",
					"name": "role",
					"type": "bytes32"
				}
			],
			"name": "getRoleAdmin",
			"outputs": [
				{
					"internalType": "bytes32",
					"name": "",
					"type": "bytes32"
				}
			],
			"stateMutability": "view",
			"type": "function"
		},
		{
			"inputs": [
				{
					"internalType": "address",
					"name": "",
					"type": "address"
				},
				{
					"internalType": "address",
					"name": "",
					"type": "address"
				}
			],
			"name": "globalRates",
			"outputs": [
				{
					"internalType": "uint256",
					"name": "",
					"type": "uint256"
				}
			],
			"stateMutability": "view",
			"type": "function"
		},
		{
			"inputs": [
				{
					"internalType": "bytes32",
					"name": "role",
					"type": "bytes32"
				},
				{
					"internalType": "address",
					"name": "account",
					"type": "address"
				}
			],
			"name": "grantRole",
			"outputs": [],
			"stateMutability": "nonpayable",
			"type": "function"
		},
		{
			"inputs": [
				{
					"internalType": "address",
					"name": "account",
					"type": "address"
				}
			],
			"name": "grantSubAdmin",
			"outputs": [],
			"stateMutability": "nonpayable",
			"type": "function"
		},
		{
			"inputs": [
				{
					"internalType": "bytes32",
					"name": "role",
					"type": "bytes32"
				},
				{
					"internalType": "address",
					"name": "account",
					"type": "address"
				}
			],
			"name": "hasRole",
			"outputs": [
				{
					"internalType": "bool",
					"name": "",
					"type": "bool"
				}
			],
			"stateMutability": "view",
			"type": "function"
		},
		{
			"inputs": [
				{
					"internalType": "uint256",
					"name": "orderId",
					"type": "uint256"
				},
				{
					"internalType": "uint256",
					"name": "fillAmount",
					"type": "uint256"
				},
				{
					"internalType": "uint256",
					"name": "minAmountOut",
					"type": "uint256"
				}
			],
			"name": "matchOrder",
			"outputs": [],
			"stateMutability": "nonpayable",
			"type": "function"
		},
		{
			"inputs": [
				{
					"internalType": "address",
					"name": "token",
					"type": "address"
				},
				{
					"internalType": "uint256",
					"name": "amount",
					"type": "uint256"
				}
			],
			"name": "normalize",
			"outputs": [
				{
					"internalType": "uint256",
					"name": "",
					"type": "uint256"
				}
			],
			"stateMutability": "view",
			"type": "function"
		},
		{
			"inputs": [
				{
					"internalType": "uint256",
					"name": "",
					"type": "uint256"
				}
			],
			"name": "orders",
			"outputs": [
				{
					"internalType": "address",
					"name": "maker",
					"type": "address"
				},
				{
					"internalType": "address",
					"name": "tokenIn",
					"type": "address"
				},
				{
					"internalType": "address",
					"name": "tokenOut",
					"type": "address"
				},
				{
					"internalType": "uint256",
					"name": "amountInitial",
					"type": "uint256"
				},
				{
					"internalType": "uint256",
					"name": "amountRemaining",
					"type": "uint256"
				},
				{
					"internalType": "uint256",
					"name": "rate",
					"type": "uint256"
				},
				{
					"internalType": "uint256",
					"name": "expiresAt",
					"type": "uint256"
				},
				{
					"internalType": "bool",
					"name": "active",
					"type": "bool"
				}
			],
			"stateMutability": "view",
			"type": "function"
		},
		{
			"inputs": [
				{
					"internalType": "bytes32",
					"name": "role",
					"type": "bytes32"
				},
				{
					"internalType": "address",
					"name": "callerConfirmation",
					"type": "address"
				}
			],
			"name": "renounceRole",
			"outputs": [],
			"stateMutability": "nonpayable",
			"type": "function"
		},
		{
			"inputs": [
				{
					"internalType": "bytes32",
					"name": "role",
					"type": "bytes32"
				},
				{
					"internalType": "address",
					"name": "account",
					"type": "address"
				}
			],
			"name": "revokeRole",
			"outputs": [],
			"stateMutability": "nonpayable",
			"type": "function"
		},
		{
			"inputs": [
				{
					"internalType": "address",
					"name": "token",
					"type": "address"
				},
				{
					"internalType": "bool",
					"name": "allowed",
					"type": "bool"
				}
			],
			"name": "setAllowedToken",
			"outputs": [],
			"stateMutability": "nonpayable",
			"type": "function"
		},
		{
			"inputs": [
				{
					"internalType": "uint256",
					"name": "newFeeBps",
					"type": "uint256"
				}
			],
			"name": "setFee",
			"outputs": [],
			"stateMutability": "nonpayable",
			"type": "function"
		},
		{
			"inputs": [
				{
					"internalType": "address",
					"name": "recipient",
					"type": "address"
				}
			],
			"name": "setFeeRecipient",
			"outputs": [],
			"stateMutability": "nonpayable",
			"type": "function"
		},
		{
			"inputs": [
				{
					"internalType": "address",
					"name": "tokenIn",
					"type": "address"
				},
				{
					"internalType": "address",
					"name": "tokenOut",
					"type": "address"
				},
				{
					"internalType": "uint256",
					"name": "rate",
					"type": "uint256"
				}
			],
			"name": "setGlobalRate",
			"outputs": [],
			"stateMutability": "nonpayable",
			"type": "function"
		},
		{
			"inputs": [
				{
					"internalType": "bytes4",
					"name": "interfaceId",
					"type": "bytes4"
				}
			],
			"name": "supportsInterface",
			"outputs": [
				{
					"internalType": "bool",
					"name": "",
					"type": "bool"
				}
			],
			"stateMutability": "view",
			"type": "function"
		},
		{
			"inputs": [],
			"name": "swapFeeBps",
			"outputs": [
				{
					"internalType": "uint256",
					"name": "",
					"type": "uint256"
				}
			],
			"stateMutability": "view",
			"type": "function"
		},
		{
			"inputs": [
				{
					"internalType": "address",
					"name": "tokenIn",
					"type": "address"
				},
				{
					"internalType": "address",
					"name": "tokenOut",
					"type": "address"
				},
				{
					"internalType": "uint256",
					"name": "amountIn",
					"type": "uint256"
				},
				{
					"internalType": "uint256",
					"name": "minAmountOut",
					"type": "uint256"
				}
			],
			"name": "swapGlobal",
			"outputs": [],
			"stateMutability": "nonpayable",
			"type": "function"
		}
	]
}